{
	"data": {
		"bytecode": {
			"linkReferences": {},
			"object": "60a06040523073ffffffffffffffffffffffffffffffffffffffff1660809073ffffffffffffffffffffffffffffffffffffffff168152506040518061024001604052806102028152602001615a0b6102029139600b90816100619190610429565b50604051806101e001604052806101aa81526020016158616101aa9139600c908161008c9190610429565b50348015610098575f5ffd5b506100a76100ac60201b60201c565b610533565b5f6100bb6101aa60201b60201c565b9050805f0160089054906101000a900460ff1615610105576040517ff92ee8a900000000000000000000000000000000000000000000000000000000815260040160405180910390fd5b67ffffffffffffffff8016815f015f9054906101000a900467ffffffffffffffff1667ffffffffffffffff16146101a75767ffffffffffffffff815f015f6101000a81548167ffffffffffffffff021916908367ffffffffffffffff1602179055507fc7f505b2f371ae2175ee4913f4499e1f2633a7b5936321eed1cdaeb6115181d267ffffffffffffffff60405161019e919061051a565b60405180910390a15b50565b5f5f6101ba6101c360201b60201c565b90508091505090565b5f7ff0c57e16840df040f15088dc2f81fe391c3923bec73e23a9662efc9c229c6a005f1b905090565b5f81519050919050565b7f4e487b71000000000000000000000000000000000000000000000000000000005f52604160045260245ffd5b7f4e487b71000000000000000000000000000000000000000000000000000000005f52602260045260245ffd5b5f600282049050600182168061026757607f821691505b60208210810361027a57610279610223565b5b50919050565b5f819050815f5260205f209050919050565b5f6020601f8301049050919050565b5f82821b905092915050565b5f600883026102dc7fffffffffffffffffffffffffffffffffffffffffffffffffffffffffffffffff826102a1565b6102e686836102a1565b95508019841693508086168417925050509392505050565b5f819050919050565b5f819050919050565b5f61032a610325610320846102fe565b610307565b6102fe565b9050919050565b5f819050919050565b61034383610310565b61035761034f82610331565b8484546102ad565b825550505050565b5f5f905090565b61036e61035f565b61037981848461033a565b505050565b5b8181101561039c576103915f82610366565b60018101905061037f565b5050565b601f8211156103e1576103b281610280565b6103bb84610292565b810160208510156103ca578190505b6103de6103d685610292565b83018261037e565b50505b505050565b5f82821c905092915050565b5f6104015f19846008026103e6565b1980831691505092915050565b5f61041983836103f2565b9150826002028217905092915050565b610432826101ec565b67ffffffffffffffff81111561044b5761044a6101f6565b5b6104558254610250565b6104608282856103a0565b5f60209050601f831160018114610491575f841561047f578287015190505b610489858261040e565b8655506104f0565b601f19841661049f86610280565b5f5b828110156104c6578489015182556001820191506020850194506020810190506104a1565b868310156104e357848901516104df601f8916826103f2565b8355505b6001600288020188555050505b505050505050565b5f67ffffffffffffffff82169050919050565b610514816104f8565b82525050565b5f60208201905061052d5f83018461050b565b92915050565b6080516153086105595f395f8181612796015281816127eb01526129ca01526153085ff3fe608060405260043610610219575f3560e01c8063731cbea811610122578063aaf10f42116100aa578063be9ad61e1161006e578063be9ad61e146107fa578063d547741f14610824578063def050c51461084c578063f2fde38b14610876578063f9aff1e81461089e57610219565b8063aaf10f4214610704578063ad3cb1cc1461072e578063b106b39d14610758578063b1e2174914610794578063b7ff920e146107be57610219565b80638db23f27116100f15780638db23f271461060f57806391d148541461064c578063957d90d414610688578063a217fddf146106b2578063a92f67ac146106dc57610219565b8063731cbea81461056957806379ba5097146105a55780638c639a85146105bb5780638da5cb5b146105e557610219565b80633944ea3a116101a557806352d1902d1161017457806352d1902d146104735780635471b47a1461049d5780635a3d7263146104d95780635c975abb146105155780635d5048321461053f57610219565b80633944ea3a146103d957806346904840146104035780634b0795a81461042d5780634f1ef2861461045757610219565b8063107a274a116101ec578063107a274a146102d5578063248a9ca3146103115780632f2ff15d1461034d57806334a9620c1461037557806336568abe146103b157610219565b806301c47c8b1461021d57806301ffc9a71461024757806309c1ba2e146102835780630ca76175146102ad575b5f5ffd5b348015610228575f5ffd5b506102316108c8565b60405161023e91906138e1565b60405180910390f35b348015610252575f5ffd5b5061026d60048036038101906102689190613960565b6108da565b60405161027a91906138e1565b60405180910390f35b34801561028e575f5ffd5b50610297610953565b6040516102a491906139ad565b60405180910390f35b3480156102b8575f5ffd5b506102d360048036038101906102ce9190613b35565b61096c565b005b3480156102e0575f5ffd5b506102fb60048036038101906102f69190613bf0565b610a2f565b6040516103089190613daf565b60405180910390f35b34801561031c575f5ffd5b5061033760048036038101906103329190613dcf565b610bfa565b6040516103449190613e09565b60405180910390f35b348015610358575f5ffd5b50610373600480360381019061036e9190613e4c565b610c24565b005b348015610380575f5ffd5b5061039b60048036038101906103969190613f11565b610c46565b6040516103a89190613e09565b60405180910390f35b3480156103bc575f5ffd5b506103d760048036038101906103d29190613e4c565b610e61565b005b3480156103e4575f5ffd5b506103ed610edc565b6040516103fa9190613fc0565b60405180910390f35b34801561040e575f5ffd5b50610417610f68565b6040516104249190613fef565b60405180910390f35b348015610438575f5ffd5b50610441610f8d565b60405161044e9190613fc0565b60405180910390f35b610471600480360381019061046c9190614008565b611019565b005b34801561047e575f5ffd5b50610487611038565b6040516104949190613e09565b60405180910390f35b3480156104a8575f5ffd5b506104c360048036038101906104be9190614062565b611069565b6040516104d091906138e1565b60405180910390f35b3480156104e4575f5ffd5b506104ff60048036038101906104fa91906140a0565b6112a9565b60405161050c91906138e1565b60405180910390f35b348015610520575f5ffd5b506105296112df565b60405161053691906138e1565b60405180910390f35b34801561054a575f5ffd5b50610553611301565b60405161056091906140fa565b60405180910390f35b348015610574575f5ffd5b5061058f600480360381019061058a9190614168565b611307565b60405161059c9190613e09565b60405180910390f35b3480156105b0575f5ffd5b506105b961142a565b005b3480156105c6575f5ffd5b506105cf6115b9565b6040516105dc91906140fa565b60405180910390f35b3480156105f0575f5ffd5b506105f96115bf565b6040516106069190613fef565b60405180910390f35b34801561061a575f5ffd5b5061063560048036038101906106309190613bf0565b6115e6565b604051610643929190614280565b60405180910390f35b348015610657575f5ffd5b50610672600480360381019061066d9190613e4c565b6117ed565b60405161067f91906138e1565b60405180910390f35b348015610693575f5ffd5b5061069c61185e565b6040516106a991906140fa565b60405180910390f35b3480156106bd575f5ffd5b506106c6611864565b6040516106d39190613e09565b60405180910390f35b3480156106e7575f5ffd5b5061070260048036038101906106fd91906142ae565b61186a565b005b34801561070f575f5ffd5b50610718611b74565b6040516107259190613fef565b60405180910390f35b348015610739575f5ffd5b50610742611b82565b60405161074f9190614337565b60405180910390f35b348015610763575f5ffd5b5061077e600480360381019061077991906143f5565b611bbb565b60405161078b91906138e1565b60405180910390f35b34801561079f575f5ffd5b506107a8611bf0565b6040516107b59190613e09565b60405180910390f35b3480156107c9575f5ffd5b506107e460048036038101906107df919061443c565b611bf6565b6040516107f191906138e1565b60405180910390f35b348015610805575f5ffd5b5061080e611c13565b60405161081b91906140fa565b60405180910390f35b34801561082f575f5ffd5b5061084a60048036038101906108459190613e4c565b611c23565b005b348015610857575f5ffd5b50610860611c45565b60405161086d91906140fa565b60405180910390f35b348015610881575f5ffd5b5061089c6004803603810190610897919061443c565b611c4b565b005b3480156108a9575f5ffd5b506108b2611c5f565b6040516108bf9190614337565b60405180910390f35b60095f9054906101000a900460ff1681565b5f7f7965db0b000000000000000000000000000000000000000000000000000000007bffffffffffffffffffffffffffffffffffffffffffffffffffffffff1916827bffffffffffffffffffffffffffffffffffffffffffffffffffffffff1916148061094c575061094b82611ceb565b5b9050919050565b60125f9054906101000a900467ffffffffffffffff1681565b60025f9054906101000a900473ffffffffffffffffffffffffffffffffffffffff1673ffffffffffffffffffffffffffffffffffffffff163373ffffffffffffffffffffffffffffffffffffffff16146109f2576040517fc6829f8300000000000000000000000000000000000000000000000000000000815260040160405180910390fd5b6109fd838383611d54565b827f85e1543bf2f84fe80c6badbce3648c8539ad1df4d2b3d822938ca0538be727e660405160405180910390a2505050565b610a376137a6565b60135f8381526020019081526020015f20604051806101400160405290815f8201548152602001600182015f9054906101000a900473ffffffffffffffffffffffffffffffffffffffff1673ffffffffffffffffffffffffffffffffffffffff1673ffffffffffffffffffffffffffffffffffffffff16815260200160028201548152602001600382015f9054906101000a900473ffffffffffffffffffffffffffffffffffffffff1673ffffffffffffffffffffffffffffffffffffffff1673ffffffffffffffffffffffffffffffffffffffff168152602001600482015481526020016005820154815260200160068201548152602001600782015f9054906101000a900460ff16151515158152602001600882018054610b5990614494565b80601f0160208091040260200160405190810160405280929190818152602001828054610b8590614494565b8015610bd05780601f10610ba757610100808354040283529160200191610bd0565b820191905f5260205f20905b815481529060010190602001808311610bb357829003601f168201915b50505050508152602001600982015f9054906101000a900460ff1615151515815250509050919050565b5f5f610c04611f90565b9050805f015f8481526020019081526020015f2060010154915050919050565b610c2d82610bfa565b610c3681611fb7565b610c408383611fcb565b50505050565b5f610c4f6120c3565b5f8383905003610c985782826040517f5597dd23000000000000000000000000000000000000000000000000000000008152600401610c8f9291906144f0565b60405180910390fd5b610ca0613820565b610d3b600c8054610cb090614494565b80601f0160208091040260200160405190810160405280929190818152602001828054610cdc90614494565b8015610d275780601f10610cfe57610100808354040283529160200191610d27565b820191905f5260205f20905b815481529060010190602001808311610d0a57829003601f168201915b50505050508261215390919063ffffffff16565b5f600167ffffffffffffffff811115610d5757610d56613a11565b5b604051908082528060200260200182016040528015610d8a57816020015b6060815260200190600190039081610d755790505b50905084848080601f0160208091040260200160405190810160405280939291908181526020018383808284375f81840152601f19601f82011690508083019250505050505050815f81518110610de457610de3614512565b5b6020026020010181905250610e02818361216390919063ffffffff16565b848460089182610e139291906146e9565b50610e4d610e20836121aa565b87620493e07f66756e2d657468657265756d2d7365706f6c69612d31000000000000000000005f1b6125b5565b600381905550600354925050509392505050565b610e69612695565b73ffffffffffffffffffffffffffffffffffffffff168173ffffffffffffffffffffffffffffffffffffffff1614610ecd576040517f6697b23200000000000000000000000000000000000000000000000000000000815260040160405180910390fd5b610ed7828261269c565b505050565b60048054610ee990614494565b80601f0160208091040260200160405190810160405280929190818152602001828054610f1590614494565b8015610f605780601f10610f3757610100808354040283529160200191610f60565b820191905f5260205f20905b815481529060010190602001808311610f4357829003601f168201915b505050505081565b600f5f9054906101000a900473ffffffffffffffffffffffffffffffffffffffff1681565b60058054610f9a90614494565b80601f0160208091040260200160405190810160405280929190818152602001828054610fc690614494565b80156110115780601f10610fe857610100808354040283529160200191611011565b820191905f5260205f20905b815481529060010190602001808311610ff457829003601f168201915b505050505081565b611021612794565b61102a8261287a565b61103482826128aa565b5050565b5f6110416129c8565b7f360894a13ba1a3210667c828492db98dca3e2076cc3735a920a3ca505d382bbc5f1b905090565b5f5f60145f8573ffffffffffffffffffffffffffffffffffffffff1673ffffffffffffffffffffffffffffffffffffffff1681526020019081526020015f205f8481526020019081526020015f205490505f81036110ca575f9150506112a3565b5f60135f8381526020019081526020015f20604051806101400160405290815f8201548152602001600182015f9054906101000a900473ffffffffffffffffffffffffffffffffffffffff1673ffffffffffffffffffffffffffffffffffffffff1673ffffffffffffffffffffffffffffffffffffffff16815260200160028201548152602001600382015f9054906101000a900473ffffffffffffffffffffffffffffffffffffffff1673ffffffffffffffffffffffffffffffffffffffff1673ffffffffffffffffffffffffffffffffffffffff168152602001600482015481526020016005820154815260200160068201548152602001600782015f9054906101000a900460ff161515151581526020016008820180546111ed90614494565b80601f016020809104026020016040519081016040528092919081815260200182805461121990614494565b80156112645780601f1061123b57610100808354040283529160200191611264565b820191905f5260205f20905b81548152906001019060200180831161124757829003601f168201915b50505050508152602001600982015f9054906101000a900460ff16151515158152505090508060e00151801561129e57508060c001514211155b925050505b92915050565b5f600783836040516112bc9291906147e4565b90815260200160405180910390205f9054906101000a900460ff16905092915050565b5f5f6112e9612a4f565b9050805f015f9054906101000a900460ff1691505090565b60065481565b5f6113106120c3565b611318613820565b6113b3600b805461132890614494565b80601f016020809104026020016040519081016040528092919081815260200182805461135490614494565b801561139f5780601f106113765761010080835404028352916020019161139f565b820191905f5260205f20905b81548152906001019060200180831161138257829003601f168201915b50505050508261215390919063ffffffff16565b5f8484905011156113de576113dd8484906113ce91906148ad565b8261216390919063ffffffff16565b5b6114176113ea826121aa565b86620493e07f66756e2d657468657265756d2d7365706f6c69612d31000000000000000000005f1b6125b5565b6003819055506003549150509392505050565b60015f9054906101000a900473ffffffffffffffffffffffffffffffffffffffff1673ffffffffffffffffffffffffffffffffffffffff163373ffffffffffffffffffffffffffffffffffffffff16146114b9576040517f08c379a00000000000000000000000000000000000000000000000000000000081526004016114b09061490b565b60405180910390fd5b5f5f5f9054906101000a900473ffffffffffffffffffffffffffffffffffffffff169050335f5f6101000a81548173ffffffffffffffffffffffffffffffffffffffff021916908373ffffffffffffffffffffffffffffffffffffffff1602179055505f60015f6101000a81548173ffffffffffffffffffffffffffffffffffffffff021916908373ffffffffffffffffffffffffffffffffffffffff1602179055503373ffffffffffffffffffffffffffffffffffffffff168173ffffffffffffffffffffffffffffffffffffffff167f8be0079c531659141344cd1fd0a4f28419497f9722a3daafe3b4186f6b6457e060405160405180910390a350565b600e5481565b5f5f5f9054906101000a900473ffffffffffffffffffffffffffffffffffffffff16905090565b60605f5f60135f8581526020019081526020015f20604051806101400160405290815f8201548152602001600182015f9054906101000a900473ffffffffffffffffffffffffffffffffffffffff1673ffffffffffffffffffffffffffffffffffffffff1673ffffffffffffffffffffffffffffffffffffffff16815260200160028201548152602001600382015f9054906101000a900473ffffffffffffffffffffffffffffffffffffffff1673ffffffffffffffffffffffffffffffffffffffff1673ffffffffffffffffffffffffffffffffffffffff168152602001600482015481526020016005820154815260200160068201548152602001600782015f9054906101000a900460ff1615151515815260200160088201805461170c90614494565b80601f016020809104026020016040519081016040528092919081815260200182805461173890614494565b80156117835780601f1061175a57610100808354040283529160200191611783565b820191905f5260205f20905b81548152906001019060200180831161176657829003601f168201915b50505050508152602001600982015f9054906101000a900460ff161515151581525050905080610100015192505f835111156117e7576017836040516117c99190614959565b90815260200160405180910390205f9054906101000a900460ff1691505b50915091565b5f5f6117f7611f90565b9050805f015f8581526020019081526020015f205f015f8473ffffffffffffffffffffffffffffffffffffffff1673ffffffffffffffffffffffffffffffffffffffff1681526020019081526020015f205f9054906101000a900460ff1691505092915050565b60105481565b5f5f1b81565b5f611873612a76565b90505f815f0160089054906101000a900460ff161590505f825f015f9054906101000a900467ffffffffffffffff1690505f5f8267ffffffffffffffff161480156118bb5750825b90505f60018367ffffffffffffffff161480156118ee57505f3073ffffffffffffffffffffffffffffffffffffffff163b145b9050811580156118fc575080155b15611933576040517ff92ee8a900000000000000000000000000000000000000000000000000000000815260040160405180910390fd5b6001855f015f6101000a81548167ffffffffffffffff021916908367ffffffffffffffff1602179055508315611980576001855f0160086101000a81548160ff0219169083151502179055505b5f73ffffffffffffffffffffffffffffffffffffffff168b73ffffffffffffffffffffffffffffffffffffffff16036119e5576040517fd92e233d00000000000000000000000000000000000000000000000000000000815260040160405180910390fd5b6103e88a1115611a21576040517f8a81d3b300000000000000000000000000000000000000000000000000000000815260040160405180910390fd5b5f891480611a2f5750888811155b15611a66576040517f7616640100000000000000000000000000000000000000000000000000000000815260040160405180910390fd5b611a6e612a89565b611a76612b0a565b611a7e612b1c565b611a8787612b26565b611a9033612b69565b8a600f5f6101000a81548173ffffffffffffffffffffffffffffffffffffffff021916908373ffffffffffffffffffffffffffffffffffffffff16021790555089600e8190555088601081905550876011819055508560125f6101000a81548167ffffffffffffffff021916908367ffffffffffffffff1602179055508315611b67575f855f0160086101000a81548160ff0219169083151502179055507fc7f505b2f371ae2175ee4913f4499e1f2633a7b5936321eed1cdaeb6115181d26001604051611b5e91906149a8565b60405180910390a15b5050505050505050505050565b5f611b7d612c19565b905090565b6040518060400160405280600581526020017f352e302e3000000000000000000000000000000000000000000000000000000081525081565b6007818051602081018201805184825260208301602085012081835280955050505050505f915054906101000a900460ff1681565b60035481565b6015602052805f5260405f205f915054906101000a900460ff1681565b5f611c1e600d612c6c565b905090565b611c2c82610bfa565b611c3581611fb7565b611c3f838361269c565b50505050565b60115481565b611c536120c3565b611c5c81612c78565b50565b60088054611c6c90614494565b80601f0160208091040260200160405190810160405280929190818152602001828054611c9890614494565b8015611ce35780601f10611cba57610100808354040283529160200191611ce3565b820191905f5260205f20905b815481529060010190602001808311611cc657829003601f168201915b505050505081565b5f7f01ffc9a7000000000000000000000000000000000000000000000000000000007bffffffffffffffffffffffffffffffffffffffffffffffffffffffff1916827bffffffffffffffffffffffffffffffffffffffffffffffffffffffff1916149050919050565b6003548314611d9a57826040517fd068bf5b000000000000000000000000000000000000000000000000000000008152600401611d919190613e09565b60405180910390fd5b8160049081611da99190614a19565b508060059081611db99190614a19565b505f60088054611dc890614494565b90501115611f1a575f8151148015611de257506020825110155b15611eb7575f82806020019051810190611dfc9190614afc565b90505f5f821190508060076008604051611e169190614ba7565b90815260200160405180910390205f6101000a81548160ff0219169083151502179055508060095f6101000a81548160ff021916908315150217905550847f99f873583fde66fffee5947d1fa2f03d1cf170fc1c8e52e588cf4284767338676008838787604051611e8a9493929190614c3e565b60405180910390a260405180602001604052805f81525060089081611eaf9190614c96565b505050611f15565b827f99f873583fde66fffee5947d1fa2f03d1cf170fc1c8e52e588cf42847673386760085f8585604051611eee9493929190614c3e565b60405180910390a260405180602001604052805f81525060089081611f139190614c96565b505b611f8b565b5f8151148015611f2c57506020825110155b15611f4c5781806020019051810190611f459190614afc565b6006819055505b827ffc03b1503acd478faf9c08107596f6d5c04b4591fea84f8d6f21bdf613b5370e6006548484604051611f8293929190614d65565b60405180910390a25b505050565b5f7f02dd7bc7dec4dceedda775e58dd541e08a116c6c53815c0bd028192f7b626800905090565b611fc881611fc3612695565b612da3565b50565b5f5f611fd5611f90565b9050611fe184846117ed565b6120b8576001815f015f8681526020019081526020015f205f015f8573ffffffffffffffffffffffffffffffffffffffff1673ffffffffffffffffffffffffffffffffffffffff1681526020019081526020015f205f6101000a81548160ff021916908315150217905550612054612695565b73ffffffffffffffffffffffffffffffffffffffff168373ffffffffffffffffffffffffffffffffffffffff16857f2f8788117e7eff1d82e926ec794901d17c78024a50270940304540a733656f0d60405160405180910390a460019150506120bd565b5f9150505b92915050565b5f5f9054906101000a900473ffffffffffffffffffffffffffffffffffffffff1673ffffffffffffffffffffffffffffffffffffffff163373ffffffffffffffffffffffffffffffffffffffff1614612151576040517f08c379a000000000000000000000000000000000000000000000000000000000815260040161214890614df2565b60405180910390fd5b565b61215f825f5f84612df4565b5050565b5f81510361219d576040517ffe936cb700000000000000000000000000000000000000000000000000000000815260040160405180910390fd5b808260a001819052505050565b60605f6121b8610100612e9a565b90506122026040518060400160405280600c81526020017f636f64654c6f636174696f6e000000000000000000000000000000000000000081525082612ebf90919063ffffffff16565b61222a835f0151600281111561221b5761221a61420d565b5b82612ee790919063ffffffff16565b6122726040518060400160405280600881526020017f6c616e677561676500000000000000000000000000000000000000000000000081525082612ebf90919063ffffffff16565b61229a83604001515f81111561228b5761228a61420d565b5b82612ee790919063ffffffff16565b6122e26040518060400160405280600681526020017f736f75726365000000000000000000000000000000000000000000000000000081525082612ebf90919063ffffffff16565b6122f9836060015182612ebf90919063ffffffff16565b5f8360a001515111156123b05761234e6040518060400160405280600481526020017f617267730000000000000000000000000000000000000000000000000000000081525082612ebf90919063ffffffff16565b61235781612f36565b5f5f90505b8360a00151518110156123a55761239a8460a00151828151811061238357612382614512565b5b602002602001015183612ebf90919063ffffffff16565b80600101905061235c565b506123af81612f5e565b5b5f83608001515111156124ef575f60028111156123d0576123cf61420d565b5b836020015160028111156123e7576123e661420d565b5b0361241e576040517fa80d31f700000000000000000000000000000000000000000000000000000000815260040160405180910390fd5b6124666040518060400160405280600f81526020017f736563726574734c6f636174696f6e000000000000000000000000000000000081525082612ebf90919063ffffffff16565b61248f836020015160028111156124805761247f61420d565b5b82612ee790919063ffffffff16565b6124d76040518060400160405280600781526020017f736563726574730000000000000000000000000000000000000000000000000081525082612ebf90919063ffffffff16565b6124ee836080015182612f8690919063ffffffff16565b5b5f8360c001515111156125a6576125446040518060400160405280600981526020017f627974657341726773000000000000000000000000000000000000000000000081525082612ebf90919063ffffffff16565b61254d81612f36565b5f5f90505b8360c001515181101561259b576125908460c00151828151811061257957612578614512565b5b602002602001015183612f8690919063ffffffff16565b806001019050612552565b506125a581612f5e565b5b805f01515f0151915050919050565b5f5f60025f9054906101000a900473ffffffffffffffffffffffffffffffffffffffff1673ffffffffffffffffffffffffffffffffffffffff1663461d27628688600188886040518663ffffffff1660e01b815260040161261a959493929190614e4a565b6020604051808303815f875af1158015612636573d5f5f3e3d5ffd5b505050506040513d601f19601f8201168201806040525081019061265a9190614eb6565b9050807f1131472297a800fee664d1d89cfa8f7676ff07189ecc53f80bbb5f4969099db860405160405180910390a280915050949350505050565b5f33905090565b5f5f6126a6611f90565b90506126b284846117ed565b15612789575f815f015f8681526020019081526020015f205f015f8573ffffffffffffffffffffffffffffffffffffffff1673ffffffffffffffffffffffffffffffffffffffff1681526020019081526020015f205f6101000a81548160ff021916908315150217905550612725612695565b73ffffffffffffffffffffffffffffffffffffffff168373ffffffffffffffffffffffffffffffffffffffff16857ff6391f5c32d9c69d2a47ea670b442974b53935d1edc7fd64eb21e047a839171b60405160405180910390a4600191505061278e565b5f9150505b92915050565b7f000000000000000000000000000000000000000000000000000000000000000073ffffffffffffffffffffffffffffffffffffffff163073ffffffffffffffffffffffffffffffffffffffff16148061284157507f000000000000000000000000000000000000000000000000000000000000000073ffffffffffffffffffffffffffffffffffffffff16612828612c19565b73ffffffffffffffffffffffffffffffffffffffff1614155b15612878576040517fe07c8dba00000000000000000000000000000000000000000000000000000000815260040160405180910390fd5b565b7fa615a8afb6fffcb8c6809ac0997b5c9c12b8cc97651150f14c8f6203168cff4c5f1b6128a681611fb7565b5050565b8173ffffffffffffffffffffffffffffffffffffffff166352d1902d6040518163ffffffff1660e01b8152600401602060405180830381865afa92505050801561291257506040513d601f19601f8201168201806040525081019061290f9190614eb6565b60015b61295357816040517f4c9c8ce300000000000000000000000000000000000000000000000000000000815260040161294a9190613fef565b60405180910390fd5b7f360894a13ba1a3210667c828492db98dca3e2076cc3735a920a3ca505d382bbc5f1b81146129b957806040517faa1d49a40000000000000000000000000000000000000000000000000000000081526004016129b09190613e09565b60405180910390fd5b6129c38383612fae565b505050565b7f000000000000000000000000000000000000000000000000000000000000000073ffffffffffffffffffffffffffffffffffffffff163073ffffffffffffffffffffffffffffffffffffffff1614612a4d576040517fe07c8dba00000000000000000000000000000000000000000000000000000000815260040160405180910390fd5b565b5f7fcd5ed15c6e187e77e9aee88184c21f4f2182ab5827cb3b7e07fbedcd63f03300905090565b5f5f612a80613020565b90508091505090565b612a91613049565b612a99613089565b612aa1613093565b612aad5f5f1b33611fcb565b50612ada7fa615a8afb6fffcb8c6809ac0997b5c9c12b8cc97651150f14c8f6203168cff4c5f1b33611fcb565b50612b077faf290d8680820aad922855f39b306097b20e28774d6c1ad35a20325630c3a02c5f1b33611fcb565b50565b612b12613049565b612b1a61309d565b565b612b24613049565b565b8060025f6101000a81548173ffffffffffffffffffffffffffffffffffffffff021916908373ffffffffffffffffffffffffffffffffffffffff16021790555050565b5f73ffffffffffffffffffffffffffffffffffffffff168173ffffffffffffffffffffffffffffffffffffffff1603612bd7576040517f08c379a0000000000000000000000000000000000000000000000000000000008152600401612bce90614f2b565b60405180910390fd5b805f5f6101000a81548173ffffffffffffffffffffffffffffffffffffffff021916908373ffffffffffffffffffffffffffffffffffffffff16021790555050565b5f612c457f360894a13ba1a3210667c828492db98dca3e2076cc3735a920a3ca505d382bbc5f1b6130bc565b5f015f9054906101000a900473ffffffffffffffffffffffffffffffffffffffff16905090565b5f815f01549050919050565b3373ffffffffffffffffffffffffffffffffffffffff168173ffffffffffffffffffffffffffffffffffffffff1603612ce6576040517f08c379a0000000000000000000000000000000000000000000000000000000008152600401612cdd90614f93565b60405180910390fd5b8060015f6101000a81548173ffffffffffffffffffffffffffffffffffffffff021916908373ffffffffffffffffffffffffffffffffffffffff1602179055508073ffffffffffffffffffffffffffffffffffffffff165f5f9054906101000a900473ffffffffffffffffffffffffffffffffffffffff1673ffffffffffffffffffffffffffffffffffffffff167fed8889f560326eb138920d842192f0eb3dd22b4f139c87a2c57538e05bae127860405160405180910390a350565b612dad82826117ed565b612df05780826040517fe2517d3f000000000000000000000000000000000000000000000000000000008152600401612de7929190614fb1565b60405180910390fd5b5050565b5f815103612e2e576040517f22ce3edd00000000000000000000000000000000000000000000000000000000815260040160405180910390fd5b82845f01906002811115612e4557612e4461420d565b5b90816002811115612e5957612e5861420d565b5b815250508184604001905f811115612e7457612e7361420d565b5b90815f811115612e8757612e8661420d565b5b8152505080846060018190525050505050565b612ea261388f565b612eaf815f0151836130c5565b505f816020018181525050919050565b612ecc826003835161313b565b612ee281835f01516132db90919063ffffffff16565b505050565b612f0860026005600660ff16901b17835f01516132f790919063ffffffff16565b50612f328282604051602001612f1e91906140fa565b604051602081830303815290604052612f86565b5050565b612f4181600461335e565b600181602001818151612f549190615005565b9150818152505050565b612f6981600761335e565b600181602001818151612f7c9190615038565b9150818152505050565b612f93826002835161313b565b612fa981835f01516132db90919063ffffffff16565b505050565b612fb782613383565b8173ffffffffffffffffffffffffffffffffffffffff167fbc7cd75a20ee27fd9adebab32041f755214dbc6bffa90cc0225b39da2e5c2d3b60405160405180910390a25f815111156130135761300d828261344c565b5061301c565b61301b6134cc565b5b5050565b5f7ff0c57e16840df040f15088dc2f81fe391c3923bec73e23a9662efc9c229c6a005f1b905090565b613051613508565b613087576040517fd7e6bcf800000000000000000000000000000000000000000000000000000000815260040160405180910390fd5b565b613091613049565b565b61309b613049565b565b6130a5613049565b5f6130ae613526565b90506001815f018190555050565b5f819050919050565b6130cd6138ae565b5f6020836130db9190615098565b14613107576020826130ed9190615098565b60206130f99190615038565b826131049190615005565b91505b818360200181815250506040518084525f81528281016020018181101561312c575f5ffd5b80604052505082905092915050565b60178167ffffffffffffffff16116131755761316f8160058460ff16901b60ff1617845f01516132f790919063ffffffff16565b506132d6565b60ff8167ffffffffffffffff16116131d1576131a7601860058460ff16901b17845f01516132f790919063ffffffff16565b506131cb8167ffffffffffffffff166001855f015161354d9092919063ffffffff16565b506132d5565b61ffff8167ffffffffffffffff161161322e57613204601960058460ff16901b17845f01516132f790919063ffffffff16565b506132288167ffffffffffffffff166002855f015161354d9092919063ffffffff16565b506132d4565b63ffffffff8167ffffffffffffffff161161328d57613263601a60058460ff16901b17845f01516132f790919063ffffffff16565b506132878167ffffffffffffffff166004855f015161354d9092919063ffffffff16565b506132d3565b6132ad601b60058460ff16901b17845f01516132f790919063ffffffff16565b506132d18167ffffffffffffffff166008855f015161354d9092919063ffffffff16565b505b5b5b5b505050565b6132e36138ae565b6132ef838384516135d6565b905092915050565b6132ff6138ae565b5f835f01515190505f6001826133159190615005565b905084602001518210613339576133388560028361333391906150c8565b6136b3565b5b84516020838201018581538151831115613351578282525b5050849250505092915050565b61337e601f60058360ff16901b17835f01516132f790919063ffffffff16565b505050565b5f8173ffffffffffffffffffffffffffffffffffffffff163b036133de57806040517f4c9c8ce30000000000000000000000000000000000000000000000000000000081526004016133d59190613fef565b60405180910390fd5b8061340a7f360894a13ba1a3210667c828492db98dca3e2076cc3735a920a3ca505d382bbc5f1b6130bc565b5f015f6101000a81548173ffffffffffffffffffffffffffffffffffffffff021916908373ffffffffffffffffffffffffffffffffffffffff16021790555050565b60605f5f8473ffffffffffffffffffffffffffffffffffffffff16846040516134759190615143565b5f60405180830381855af49150503d805f81146134ad576040519150601f19603f3d011682016040523d82523d5f602084013e6134b2565b606091505b50915091506134c28583836136d5565b9250505092915050565b5f341115613506576040517fb398979f00000000000000000000000000000000000000000000000000000000815260040160405180910390fd5b565b5f613511612a76565b5f0160089054906101000a900460ff16905090565b5f7f9b779b17422d0df92223018b32b4d1fa46e071723d6817e2486d003becc55f00905090565b6135556138ae565b5f845f01515190505f818461356a9190615005565b9050856020015181111561358f5761358e8660028361358991906150c8565b6136b3565b5b5f6001856101006135a09190615288565b6135aa9190615038565b9050865182810187831982511617815281518411156135c7578382525b50508693505050509392505050565b6135de6138ae565b82518211156135eb575f5ffd5b5f845f01515190505f83826136009190615005565b90508560200151811115613625576136248660028361361f91906150c8565b6136b3565b5b5f5f8751805185602083010193508085111561363f578482525b60208901925050505b6020861061368657805182526020826136619190615005565b91506020816136709190615005565b905060208661367f9190615038565b9550613648565b5f6001876020036101000a0390508019825116818451168181178552505050879450505050509392505050565b5f825f015190506136c483836130c5565b506136cf83826132db565b50505050565b6060826136ea576136e582613762565b61375a565b5f825114801561371057505f8473ffffffffffffffffffffffffffffffffffffffff163b145b1561375257836040517f9996b3150000000000000000000000000000000000000000000000000000000081526004016137499190613fef565b60405180910390fd5b81905061375b565b5b9392505050565b5f815111156137745780518082602001fd5b6040517fd6bda27500000000000000000000000000000000000000000000000000000000815260040160405180910390fd5b6040518061014001604052805f81526020015f73ffffffffffffffffffffffffffffffffffffffff1681526020015f81526020015f73ffffffffffffffffffffffffffffffffffffffff1681526020015f81526020015f81526020015f81526020015f15158152602001606081526020015f151581525090565b6040518060e001604052805f600281111561383e5761383d61420d565b5b81526020015f60028111156138565761385561420d565b5b81526020015f5f81111561386d5761386c61420d565b5b8152602001606081526020016060815260200160608152602001606081525090565b60405180604001604052806138a26138ae565b81526020015f81525090565b6040518060400160405280606081526020015f81525090565b5f8115159050919050565b6138db816138c7565b82525050565b5f6020820190506138f45f8301846138d2565b92915050565b5f604051905090565b5f5ffd5b5f5ffd5b5f7fffffffff0000000000000000000000000000000000000000000000000000000082169050919050565b61393f8161390b565b8114613949575f5ffd5b50565b5f8135905061395a81613936565b92915050565b5f6020828403121561397557613974613903565b5b5f6139828482850161394c565b91505092915050565b5f67ffffffffffffffff82169050919050565b6139a78161398b565b82525050565b5f6020820190506139c05f83018461399e565b92915050565b5f819050919050565b6139d8816139c6565b81146139e2575f5ffd5b50565b5f813590506139f3816139cf565b92915050565b5f5ffd5b5f5ffd5b5f601f19601f8301169050919050565b7f4e487b71000000000000000000000000000000000000000000000000000000005f52604160045260245ffd5b613a4782613a01565b810181811067ffffffffffffffff82111715613a6657613a65613a11565b5b80604052505050565b5f613a786138fa565b9050613a848282613a3e565b919050565b5f67ffffffffffffffff821115613aa357613aa2613a11565b5b613aac82613a01565b9050602081019050919050565b828183375f83830152505050565b5f613ad9613ad484613a89565b613a6f565b905082815260208101848484011115613af557613af46139fd565b5b613b00848285613ab9565b509392505050565b5f82601f830112613b1c57613b1b6139f9565b5b8135613b2c848260208601613ac7565b91505092915050565b5f5f5f60608486031215613b4c57613b4b613903565b5b5f613b59868287016139e5565b935050602084013567ffffffffffffffff811115613b7a57613b79613907565b5b613b8686828701613b08565b925050604084013567ffffffffffffffff811115613ba757613ba6613907565b5b613bb386828701613b08565b9150509250925092565b5f819050919050565b613bcf81613bbd565b8114613bd9575f5ffd5b50565b5f81359050613bea81613bc6565b92915050565b5f60208284031215613c0557613c04613903565b5b5f613c1284828501613bdc565b91505092915050565b613c2481613bbd565b82525050565b5f73ffffffffffffffffffffffffffffffffffffffff82169050919050565b5f613c5382613c2a565b9050919050565b613c6381613c49565b82525050565b613c72816138c7565b82525050565b5f81519050919050565b5f82825260208201905092915050565b8281835e5f83830152505050565b5f613caa82613c78565b613cb48185613c82565b9350613cc4818560208601613c92565b613ccd81613a01565b840191505092915050565b5f61014083015f830151613cee5f860182613c1b565b506020830151613d016020860182613c5a565b506040830151613d146040860182613c1b565b506060830151613d276060860182613c5a565b506080830151613d3a6080860182613c1b565b5060a0830151613d4d60a0860182613c1b565b5060c0830151613d6060c0860182613c1b565b5060e0830151613d7360e0860182613c69565b50610100830151848203610100860152613d8d8282613ca0565b915050610120830151613da4610120860182613c69565b508091505092915050565b5f6020820190508181035f830152613dc78184613cd8565b905092915050565b5f60208284031215613de457613de3613903565b5b5f613df1848285016139e5565b91505092915050565b613e03816139c6565b82525050565b5f602082019050613e1c5f830184613dfa565b92915050565b613e2b81613c49565b8114613e35575f5ffd5b50565b5f81359050613e4681613e22565b92915050565b5f5f60408385031215613e6257613e61613903565b5b5f613e6f858286016139e5565b9250506020613e8085828601613e38565b9150509250929050565b613e938161398b565b8114613e9d575f5ffd5b50565b5f81359050613eae81613e8a565b92915050565b5f5ffd5b5f5ffd5b5f5f83601f840112613ed157613ed06139f9565b5b8235905067ffffffffffffffff811115613eee57613eed613eb4565b5b602083019150836001820283011115613f0a57613f09613eb8565b5b9250929050565b5f5f5f60408486031215613f2857613f27613903565b5b5f613f3586828701613ea0565b935050602084013567ffffffffffffffff811115613f5657613f55613907565b5b613f6286828701613ebc565b92509250509250925092565b5f81519050919050565b5f82825260208201905092915050565b5f613f9282613f6e565b613f9c8185613f78565b9350613fac818560208601613c92565b613fb581613a01565b840191505092915050565b5f6020820190508181035f830152613fd88184613f88565b905092915050565b613fe981613c49565b82525050565b5f6020820190506140025f830184613fe0565b92915050565b5f5f6040838503121561401e5761401d613903565b5b5f61402b85828601613e38565b925050602083013567ffffffffffffffff81111561404c5761404b613907565b5b61405885828601613b08565b9150509250929050565b5f5f6040838503121561407857614077613903565b5b5f61408585828601613e38565b925050602061409685828601613bdc565b9150509250929050565b5f5f602083850312156140b6576140b5613903565b5b5f83013567ffffffffffffffff8111156140d3576140d2613907565b5b6140df85828601613ebc565b92509250509250929050565b6140f481613bbd565b82525050565b5f60208201905061410d5f8301846140eb565b92915050565b5f5f83601f840112614128576141276139f9565b5b8235905067ffffffffffffffff81111561414557614144613eb4565b5b60208301915083602082028301111561416157614160613eb8565b5b9250929050565b5f5f5f6040848603121561417f5761417e613903565b5b5f61418c86828701613ea0565b935050602084013567ffffffffffffffff8111156141ad576141ac613907565b5b6141b986828701614113565b92509250509250925092565b5f82825260208201905092915050565b5f6141df82613c78565b6141e981856141c5565b93506141f9818560208601613c92565b61420281613a01565b840191505092915050565b7f4e487b71000000000000000000000000000000000000000000000000000000005f52602160045260245ffd5b6005811061424b5761424a61420d565b5b50565b5f81905061425b8261423a565b919050565b5f61426a8261424e565b9050919050565b61427a81614260565b82525050565b5f6040820190508181035f83015261429881856141d5565b90506142a76020830184614271565b9392505050565b5f5f5f5f5f5f60c087890312156142c8576142c7613903565b5b5f6142d589828a01613e38565b96505060206142e689828a01613bdc565b95505060406142f789828a01613bdc565b945050606061430889828a01613bdc565b935050608061431989828a01613e38565b92505060a061432a89828a01613ea0565b9150509295509295509295565b5f6020820190508181035f83015261434f81846141d5565b905092915050565b5f67ffffffffffffffff82111561437157614370613a11565b5b61437a82613a01565b9050602081019050919050565b5f61439961439484614357565b613a6f565b9050828152602081018484840111156143b5576143b46139fd565b5b6143c0848285613ab9565b509392505050565b5f82601f8301126143dc576143db6139f9565b5b81356143ec848260208601614387565b91505092915050565b5f6020828403121561440a57614409613903565b5b5f82013567ffffffffffffffff81111561442757614426613907565b5b614433848285016143c8565b91505092915050565b5f6020828403121561445157614450613903565b5b5f61445e84828501613e38565b91505092915050565b7f4e487b71000000000000000000000000000000000000000000000000000000005f52602260045260245ffd5b5f60028204905060018216806144ab57607f821691505b6020821081036144be576144bd614467565b5b50919050565b5f6144cf83856141c5565b93506144dc838584613ab9565b6144e583613a01565b840190509392505050565b5f6020820190508181035f8301526145098184866144c4565b90509392505050565b7f4e487b71000000000000000000000000000000000000000000000000000000005f52603260045260245ffd5b5f82905092915050565b5f819050815f5260205f209050919050565b5f6020601f8301049050919050565b5f82821b905092915050565b5f600883026145a57fffffffffffffffffffffffffffffffffffffffffffffffffffffffffffffffff8261456a565b6145af868361456a565b95508019841693508086168417925050509392505050565b5f819050919050565b5f6145ea6145e56145e084613bbd565b6145c7565b613bbd565b9050919050565b5f819050919050565b614603836145d0565b61461761460f826145f1565b848454614576565b825550505050565b5f5f905090565b61462e61461f565b6146398184846145fa565b505050565b5b8181101561465c576146515f82614626565b60018101905061463f565b5050565b601f8211156146a15761467281614549565b61467b8461455b565b8101602085101561468a578190505b61469e6146968561455b565b83018261463e565b50505b505050565b5f82821c905092915050565b5f6146c15f19846008026146a6565b1980831691505092915050565b5f6146d983836146b2565b9150826002028217905092915050565b6146f3838361453f565b67ffffffffffffffff81111561470c5761470b613a11565b5b6147168254614494565b614721828285614660565b5f601f83116001811461474e575f841561473c578287013590505b61474685826146ce565b8655506147ad565b601f19841661475c86614549565b5f5b828110156147835784890135825560018201915060208501945060208101905061475e565b868310156147a0578489013561479c601f8916826146b2565b8355505b6001600288020188555050505b50505050505050565b5f81905092915050565b5f6147cb83856147b6565b93506147d8838584613ab9565b82840190509392505050565b5f6147f08284866147c0565b91508190509392505050565b5f67ffffffffffffffff82111561481657614815613a11565b5b602082029050602081019050919050565b5f614839614834846147fc565b613a6f565b9050808382526020820190506020840283018581111561485c5761485b613eb8565b5b835b818110156148a357803567ffffffffffffffff811115614881576148806139f9565b5b80860161488e89826143c8565b8552602085019450505060208101905061485e565b5050509392505050565b5f6148b9368484614827565b905092915050565b7f4d7573742062652070726f706f736564206f776e6572000000000000000000005f82015250565b5f6148f56016836141c5565b9150614900826148c1565b602082019050919050565b5f6020820190508181035f830152614922816148e9565b9050919050565b5f61493382613c78565b61493d81856147b6565b935061494d818560208601613c92565b80840191505092915050565b5f6149648284614929565b915081905092915050565b5f819050919050565b5f61499261498d6149888461496f565b6145c7565b61398b565b9050919050565b6149a281614978565b82525050565b5f6020820190506149bb5f830184614999565b92915050565b5f819050815f5260205f209050919050565b601f821115614a14576149e5816149c1565b6149ee8461455b565b810160208510156149fd578190505b614a11614a098561455b565b83018261463e565b50505b505050565b614a2282613f6e565b67ffffffffffffffff811115614a3b57614a3a613a11565b5b614a458254614494565b614a508282856149d3565b5f60209050601f831160018114614a81575f8415614a6f578287015190505b614a7985826146ce565b865550614ae0565b601f198416614a8f866149c1565b5f5b82811015614ab657848901518255600182019150602085019450602081019050614a91565b86831015614ad35784890151614acf601f8916826146b2565b8355505b6001600288020188555050505b505050505050565b5f81519050614af681613bc6565b92915050565b5f60208284031215614b1157614b10613903565b5b5f614b1e84828501614ae8565b91505092915050565b5f8154614b3381614494565b614b3d81866147b6565b9450600182165f8114614b575760018114614b6c57614b9e565b60ff1983168652811515820286019350614b9e565b614b7585614549565b5f5b83811015614b9657815481890152600182019150602081019050614b77565b838801955050505b50505092915050565b5f614bb28284614b27565b915081905092915050565b5f8154614bc981614494565b614bd381866141c5565b9450600182165f8114614bed5760018114614c0357614c35565b60ff198316865281151560200286019350614c35565b614c0c85614549565b5f5b83811015614c2d57815481890152600182019150602081019050614c0e565b808801955050505b50505092915050565b5f6080820190508181035f830152614c568187614bbd565b9050614c6560208301866138d2565b8181036040830152614c778185613f88565b90508181036060830152614c8b8184613f88565b905095945050505050565b614c9f82613c78565b67ffffffffffffffff811115614cb857614cb7613a11565b5b614cc28254614494565b614ccd828285614660565b5f60209050601f831160018114614cfe575f8415614cec578287015190505b614cf685826146ce565b865550614d5d565b601f198416614d0c86614549565b5f5b82811015614d3357848901518255600182019150602085019450602081019050614d0e565b86831015614d505784890151614d4c601f8916826146b2565b8355505b6001600288020188555050505b505050505050565b5f606082019050614d785f8301866140eb565b8181036020830152614d8a8185613f88565b90508181036040830152614d9e8184613f88565b9050949350505050565b7f4f6e6c792063616c6c61626c65206279206f776e6572000000000000000000005f82015250565b5f614ddc6016836141c5565b9150614de782614da8565b602082019050919050565b5f6020820190508181035f830152614e0981614dd0565b9050919050565b5f61ffff82169050919050565b614e2681614e10565b82525050565b5f63ffffffff82169050919050565b614e4481614e2c565b82525050565b5f60a082019050614e5d5f83018861399e565b8181036020830152614e6f8187613f88565b9050614e7e6040830186614e1d565b614e8b6060830185614e3b565b614e986080830184613dfa565b9695505050505050565b5f81519050614eb0816139cf565b92915050565b5f60208284031215614ecb57614eca613903565b5b5f614ed884828501614ea2565b91505092915050565b7f43616e6e6f7420736574206f776e657220746f207a65726f00000000000000005f82015250565b5f614f156018836141c5565b9150614f2082614ee1565b602082019050919050565b5f6020820190508181035f830152614f4281614f09565b9050919050565b7f43616e6e6f74207472616e7366657220746f2073656c660000000000000000005f82015250565b5f614f7d6017836141c5565b9150614f8882614f49565b602082019050919050565b5f6020820190508181035f830152614faa81614f71565b9050919050565b5f604082019050614fc45f830185613fe0565b614fd16020830184613dfa565b9392505050565b7f4e487b71000000000000000000000000000000000000000000000000000000005f52601160045260245ffd5b5f61500f82613bbd565b915061501a83613bbd565b925082820190508082111561503257615031614fd8565b5b92915050565b5f61504282613bbd565b915061504d83613bbd565b925082820390508181111561506557615064614fd8565b5b92915050565b7f4e487b71000000000000000000000000000000000000000000000000000000005f52601260045260245ffd5b5f6150a282613bbd565b91506150ad83613bbd565b9250826150bd576150bc61506b565b5b828206905092915050565b5f6150d282613bbd565b91506150dd83613bbd565b92508282026150eb81613bbd565b9150828204841483151761510257615101614fd8565b5b5092915050565b5f81905092915050565b5f61511d82613f6e565b6151278185615109565b9350615137818560208601613c92565b80840191505092915050565b5f61514e8284615113565b915081905092915050565b5f8160011c9050919050565b5f5f8291508390505b60018511156151ae5780860481111561518a57615189614fd8565b5b60018516156151995780820291505b80810290506151a785615159565b945061516e565b94509492505050565b5f826151c65760019050615281565b816151d3575f9050615281565b81600181146151e957600281146151f357615222565b6001915050615281565b60ff84111561520557615204614fd8565b5b8360020a91508482111561521c5761521b614fd8565b5b50615281565b5060208310610133831016604e8410600b84101617156152575782820a90508381111561525257615251614fd8565b5b615281565b6152648484846001615165565b9250905081840481111561527b5761527a614fd8565b5b81810290505b9392505050565b5f61529282613bbd565b915061529d83613bbd565b92506152ca7fffffffffffffffffffffffffffffffffffffffffffffffffffffffffffffffff84846151b7565b90509291505056fea2646970667358221220dea2f97f71a0b9558f11f73a5f7913e401606c7fa6925244aa16752e32f5cd8964736f6c634300081e0033636f6e7374207469636b65744964203d20617267735b305d3b636f6e73742075726c203d202768747470733a2f2f3638343163663361643438353136643164333563663731632e6d6f636b6170692e696f2f7665726966797469636b6574732f27202b207469636b657449643b636f6e737420726573706f6e7365203d2061776169742046756e6374696f6e732e6d616b654874747052657175657374287b2075726c207d293b69662028726573706f6e73652e6572726f7229207b207468726f77204572726f72282752657175657374206661696c656427293b207d636f6e73742064617461203d20726573706f6e73652e646174613b696620282164617461207c7c20747970656f66206461746120213d3d20276f626a6563742729207468726f77204572726f7228605469636b657420494420247b7469636b657449647d206e6f7420666f756e64206f7220696e76616c696460293b636f6e737420697355736564203d20646174612e75736564203d3d3d20747275653b72657475726e2046756e6374696f6e732e656e636f646555696e7432353628697355736564203f2031203a2030293b636f6e7374206576656e744964203d20617267735b305d3b636f6e73742075726c203d202768747470733a2f2f3638343163663361643438353136643164333563663731632e6d6f636b6170692e696f2f7469636b6574732f27202b206576656e7449643b636f6e737420726573706f6e7365203d2061776169742046756e6374696f6e732e6d616b654874747052657175657374287b2075726c207d293b69662028726573706f6e73652e6572726f7229207b207468726f77204572726f72282752657175657374206661696c656427293b207d636f6e73742064617461203d20726573706f6e73652e646174613b696620282164617461207c7c20747970656f66206461746120213d3d20276f626a6563742729207468726f77204572726f722860496e76616c696420726573706f6e736560293b636f6e73742072617752656d61696e696e67203d20646174612e72656d61696e696e673b636f6e737420617661696c61626c65203d204e756d6265722872617752656d61696e696e67293b69662028214e756d6265722e697346696e69746528617661696c61626c652929207468726f77204572726f722860496e76616c6964207469636b657420636f756e743a20247b72617752656d61696e696e677d60293b72657475726e2046756e6374696f6e732e656e636f646555696e7432353628617661696c61626c65293b",
			"opcodes": "PUSH1 0xA0 PUSH1 0x40 MSTORE ADDRESS PUSH20 0xFFFFFFFFFFFFFFFFFFFFFFFFFFFFFFFFFFFFFFFF AND PUSH1 0x80 SWAP1 PUSH20 0xFFFFFFFFFFFFFFFFFFFFFFFFFFFFFFFFFFFFFFFF AND DUP2 MSTORE POP PUSH1 0x40 MLOAD DUP1 PUSH2 0x240 ADD PUSH1 0x40 MSTORE DUP1 PUSH2 0x202 DUP2 MSTORE PUSH1 0x20 ADD PUSH2 0x5A0B PUSH2 0x202 SWAP2 CODECOPY PUSH1 0xB SWAP1 DUP2 PUSH2 0x61 SWAP2 SWAP1 PUSH2 0x429 JUMP JUMPDEST POP PUSH1 0x40 MLOAD DUP1 PUSH2 0x1E0 ADD PUSH1 0x40 MSTORE DUP1 PUSH2 0x1AA DUP2 MSTORE PUSH1 0x20 ADD PUSH2 0x5861 PUSH2 0x1AA SWAP2 CODECOPY PUSH1 0xC SWAP1 DUP2 PUSH2 0x8C SWAP2 SWAP1 PUSH2 0x429 JUMP JUMPDEST POP CALLVALUE DUP1 ISZERO PUSH2 0x98 JUMPI PUSH0 PUSH0 REVERT JUMPDEST POP PUSH2 0xA7 PUSH2 0xAC PUSH1 0x20 SHL PUSH1 0x20 SHR JUMP JUMPDEST PUSH2 0x533 JUMP JUMPDEST PUSH0 PUSH2 0xBB PUSH2 0x1AA PUSH1 0x20 SHL PUSH1 0x20 SHR JUMP JUMPDEST SWAP1 POP DUP1 PUSH0 ADD PUSH1 0x8 SWAP1 SLOAD SWAP1 PUSH2 0x100 EXP SWAP1 DIV PUSH1 0xFF AND ISZERO PUSH2 0x105 JUMPI PUSH1 0x40 MLOAD PUSH32 0xF92EE8A900000000000000000000000000000000000000000000000000000000 DUP2 MSTORE PUSH1 0x4 ADD PUSH1 0x40 MLOAD DUP1 SWAP2 SUB SWAP1 REVERT JUMPDEST PUSH8 0xFFFFFFFFFFFFFFFF DUP1 AND DUP2 PUSH0 ADD PUSH0 SWAP1 SLOAD SWAP1 PUSH2 0x100 EXP SWAP1 DIV PUSH8 0xFFFFFFFFFFFFFFFF AND PUSH8 0xFFFFFFFFFFFFFFFF AND EQ PUSH2 0x1A7 JUMPI PUSH8 0xFFFFFFFFFFFFFFFF DUP2 PUSH0 ADD PUSH0 PUSH2 0x100 EXP DUP2 SLOAD DUP2 PUSH8 0xFFFFFFFFFFFFFFFF MUL NOT AND SWAP1 DUP4 PUSH8 0xFFFFFFFFFFFFFFFF AND MUL OR SWAP1 SSTORE POP PUSH32 0xC7F505B2F371AE2175EE4913F4499E1F2633A7B5936321EED1CDAEB6115181D2 PUSH8 0xFFFFFFFFFFFFFFFF PUSH1 0x40 MLOAD PUSH2 0x19E SWAP2 SWAP1 PUSH2 0x51A JUMP JUMPDEST PUSH1 0x40 MLOAD DUP1 SWAP2 SUB SWAP1 LOG1 JUMPDEST POP JUMP JUMPDEST PUSH0 PUSH0 PUSH2 0x1BA PUSH2 0x1C3 PUSH1 0x20 SHL PUSH1 0x20 SHR JUMP JUMPDEST SWAP1 POP DUP1 SWAP2 POP POP SWAP1 JUMP JUMPDEST PUSH0 PUSH32 0xF0C57E16840DF040F15088DC2F81FE391C3923BEC73E23A9662EFC9C229C6A00 PUSH0 SHL SWAP1 POP SWAP1 JUMP JUMPDEST PUSH0 DUP2 MLOAD SWAP1 POP SWAP2 SWAP1 POP JUMP JUMPDEST PUSH32 0x4E487B7100000000000000000000000000000000000000000000000000000000 PUSH0 MSTORE PUSH1 0x41 PUSH1 0x4 MSTORE PUSH1 0x24 PUSH0 REVERT JUMPDEST PUSH32 0x4E487B7100000000000000000000000000000000000000000000000000000000 PUSH0 MSTORE PUSH1 0x22 PUSH1 0x4 MSTORE PUSH1 0x24 PUSH0 REVERT JUMPDEST PUSH0 PUSH1 0x2 DUP3 DIV SWAP1 POP PUSH1 0x1 DUP3 AND DUP1 PUSH2 0x267 JUMPI PUSH1 0x7F DUP3 AND SWAP2 POP JUMPDEST PUSH1 0x20 DUP3 LT DUP2 SUB PUSH2 0x27A JUMPI PUSH2 0x279 PUSH2 0x223 JUMP JUMPDEST JUMPDEST POP SWAP2 SWAP1 POP JUMP JUMPDEST PUSH0 DUP2 SWAP1 POP DUP2 PUSH0 MSTORE PUSH1 0x20 PUSH0 KECCAK256 SWAP1 POP SWAP2 SWAP1 POP JUMP JUMPDEST PUSH0 PUSH1 0x20 PUSH1 0x1F DUP4 ADD DIV SWAP1 POP SWAP2 SWAP1 POP JUMP JUMPDEST PUSH0 DUP3 DUP3 SHL SWAP1 POP SWAP3 SWAP2 POP POP JUMP JUMPDEST PUSH0 PUSH1 0x8 DUP4 MUL PUSH2 0x2DC PUSH32 0xFFFFFFFFFFFFFFFFFFFFFFFFFFFFFFFFFFFFFFFFFFFFFFFFFFFFFFFFFFFFFFFF DUP3 PUSH2 0x2A1 JUMP JUMPDEST PUSH2 0x2E6 DUP7 DUP4 PUSH2 0x2A1 JUMP JUMPDEST SWAP6 POP DUP1 NOT DUP5 AND SWAP4 POP DUP1 DUP7 AND DUP5 OR SWAP3 POP POP POP SWAP4 SWAP3 POP POP POP JUMP JUMPDEST PUSH0 DUP2 SWAP1 POP SWAP2 SWAP1 POP JUMP JUMPDEST PUSH0 DUP2 SWAP1 POP SWAP2 SWAP1 POP JUMP JUMPDEST PUSH0 PUSH2 0x32A PUSH2 0x325 PUSH2 0x320 DUP5 PUSH2 0x2FE JUMP JUMPDEST PUSH2 0x307 JUMP JUMPDEST PUSH2 0x2FE JUMP JUMPDEST SWAP1 POP SWAP2 SWAP1 POP JUMP JUMPDEST PUSH0 DUP2 SWAP1 POP SWAP2 SWAP1 POP JUMP JUMPDEST PUSH2 0x343 DUP4 PUSH2 0x310 JUMP JUMPDEST PUSH2 0x357 PUSH2 0x34F DUP3 PUSH2 0x331 JUMP JUMPDEST DUP5 DUP5 SLOAD PUSH2 0x2AD JUMP JUMPDEST DUP3 SSTORE POP POP POP POP JUMP JUMPDEST PUSH0 PUSH0 SWAP1 POP SWAP1 JUMP JUMPDEST PUSH2 0x36E PUSH2 0x35F JUMP JUMPDEST PUSH2 0x379 DUP2 DUP5 DUP5 PUSH2 0x33A JUMP JUMPDEST POP POP POP JUMP JUMPDEST JUMPDEST DUP2 DUP2 LT ISZERO PUSH2 0x39C JUMPI PUSH2 0x391 PUSH0 DUP3 PUSH2 0x366 JUMP JUMPDEST PUSH1 0x1 DUP2 ADD SWAP1 POP PUSH2 0x37F JUMP JUMPDEST POP POP JUMP JUMPDEST PUSH1 0x1F DUP3 GT ISZERO PUSH2 0x3E1 JUMPI PUSH2 0x3B2 DUP2 PUSH2 0x280 JUMP JUMPDEST PUSH2 0x3BB DUP5 PUSH2 0x292 JUMP JUMPDEST DUP2 ADD PUSH1 0x20 DUP6 LT ISZERO PUSH2 0x3CA JUMPI DUP2 SWAP1 POP JUMPDEST PUSH2 0x3DE PUSH2 0x3D6 DUP6 PUSH2 0x292 JUMP JUMPDEST DUP4 ADD DUP3 PUSH2 0x37E JUMP JUMPDEST POP POP JUMPDEST POP POP POP JUMP JUMPDEST PUSH0 DUP3 DUP3 SHR SWAP1 POP SWAP3 SWAP2 POP POP JUMP JUMPDEST PUSH0 PUSH2 0x401 PUSH0 NOT DUP5 PUSH1 0x8 MUL PUSH2 0x3E6 JUMP JUMPDEST NOT DUP1 DUP4 AND SWAP2 POP POP SWAP3 SWAP2 POP POP JUMP JUMPDEST PUSH0 PUSH2 0x419 DUP4 DUP4 PUSH2 0x3F2 JUMP JUMPDEST SWAP2 POP DUP3 PUSH1 0x2 MUL DUP3 OR SWAP1 POP SWAP3 SWAP2 POP POP JUMP JUMPDEST PUSH2 0x432 DUP3 PUSH2 0x1EC JUMP JUMPDEST PUSH8 0xFFFFFFFFFFFFFFFF DUP2 GT ISZERO PUSH2 0x44B JUMPI PUSH2 0x44A PUSH2 0x1F6 JUMP JUMPDEST JUMPDEST PUSH2 0x455 DUP3 SLOAD PUSH2 0x250 JUMP JUMPDEST PUSH2 0x460 DUP3 DUP3 DUP6 PUSH2 0x3A0 JUMP JUMPDEST PUSH0 PUSH1 0x20 SWAP1 POP PUSH1 0x1F DUP4 GT PUSH1 0x1 DUP2 EQ PUSH2 0x491 JUMPI PUSH0 DUP5 ISZERO PUSH2 0x47F JUMPI DUP3 DUP8 ADD MLOAD SWAP1 POP JUMPDEST PUSH2 0x489 DUP6 DUP3 PUSH2 0x40E JUMP JUMPDEST DUP7 SSTORE POP PUSH2 0x4F0 JUMP JUMPDEST PUSH1 0x1F NOT DUP5 AND PUSH2 0x49F DUP7 PUSH2 0x280 JUMP JUMPDEST PUSH0 JUMPDEST DUP3 DUP2 LT ISZERO PUSH2 0x4C6 JUMPI DUP5 DUP10 ADD MLOAD DUP3 SSTORE PUSH1 0x1 DUP3 ADD SWAP2 POP PUSH1 0x20 DUP6 ADD SWAP5 POP PUSH1 0x20 DUP2 ADD SWAP1 POP PUSH2 0x4A1 JUMP JUMPDEST DUP7 DUP4 LT ISZERO PUSH2 0x4E3 JUMPI DUP5 DUP10 ADD MLOAD PUSH2 0x4DF PUSH1 0x1F DUP10 AND DUP3 PUSH2 0x3F2 JUMP JUMPDEST DUP4 SSTORE POP JUMPDEST PUSH1 0x1 PUSH1 0x2 DUP9 MUL ADD DUP9 SSTORE POP POP POP JUMPDEST POP POP POP POP POP POP JUMP JUMPDEST PUSH0 PUSH8 0xFFFFFFFFFFFFFFFF DUP3 AND SWAP1 POP SWAP2 SWAP1 POP JUMP JUMPDEST PUSH2 0x514 DUP2 PUSH2 0x4F8 JUMP JUMPDEST DUP3 MSTORE POP POP JUMP JUMPDEST PUSH0 PUSH1 0x20 DUP3 ADD SWAP1 POP PUSH2 0x52D PUSH0 DUP4 ADD DUP5 PUSH2 0x50B JUMP JUMPDEST SWAP3 SWAP2 POP POP JUMP JUMPDEST PUSH1 0x80 MLOAD PUSH2 0x5308 PUSH2 0x559 PUSH0 CODECOPY PUSH0 DUP2 DUP2 PUSH2 0x2796 ADD MSTORE DUP2 DUP2 PUSH2 0x27EB ADD MSTORE PUSH2 0x29CA ADD MSTORE PUSH2 0x5308 PUSH0 RETURN INVALID PUSH1 0x80 PUSH1 0x40 MSTORE PUSH1 0x4 CALLDATASIZE LT PUSH2 0x219 JUMPI PUSH0 CALLDATALOAD PUSH1 0xE0 SHR DUP1 PUSH4 0x731CBEA8 GT PUSH2 0x122 JUMPI DUP1 PUSH4 0xAAF10F42 GT PUSH2 0xAA JUMPI DUP1 PUSH4 0xBE9AD61E GT PUSH2 0x6E JUMPI DUP1 PUSH4 0xBE9AD61E EQ PUSH2 0x7FA JUMPI DUP1 PUSH4 0xD547741F EQ PUSH2 0x824 JUMPI DUP1 PUSH4 0xDEF050C5 EQ PUSH2 0x84C JUMPI DUP1 PUSH4 0xF2FDE38B EQ PUSH2 0x876 JUMPI DUP1 PUSH4 0xF9AFF1E8 EQ PUSH2 0x89E JUMPI PUSH2 0x219 JUMP JUMPDEST DUP1 PUSH4 0xAAF10F42 EQ PUSH2 0x704 JUMPI DUP1 PUSH4 0xAD3CB1CC EQ PUSH2 0x72E JUMPI DUP1 PUSH4 0xB106B39D EQ PUSH2 0x758 JUMPI DUP1 PUSH4 0xB1E21749 EQ PUSH2 0x794 JUMPI DUP1 PUSH4 0xB7FF920E EQ PUSH2 0x7BE JUMPI PUSH2 0x219 JUMP JUMPDEST DUP1 PUSH4 0x8DB23F27 GT PUSH2 0xF1 JUMPI DUP1 PUSH4 0x8DB23F27 EQ PUSH2 0x60F JUMPI DUP1 PUSH4 0x91D14854 EQ PUSH2 0x64C JUMPI DUP1 PUSH4 0x957D90D4 EQ PUSH2 0x688 JUMPI DUP1 PUSH4 0xA217FDDF EQ PUSH2 0x6B2 JUMPI DUP1 PUSH4 0xA92F67AC EQ PUSH2 0x6DC JUMPI PUSH2 0x219 JUMP JUMPDEST DUP1 PUSH4 0x731CBEA8 EQ PUSH2 0x569 JUMPI DUP1 PUSH4 0x79BA5097 EQ PUSH2 0x5A5 JUMPI DUP1 PUSH4 0x8C639A85 EQ PUSH2 0x5BB JUMPI DUP1 PUSH4 0x8DA5CB5B EQ PUSH2 0x5E5 JUMPI PUSH2 0x219 JUMP JUMPDEST DUP1 PUSH4 0x3944EA3A GT PUSH2 0x1A5 JUMPI DUP1 PUSH4 0x52D1902D GT PUSH2 0x174 JUMPI DUP1 PUSH4 0x52D1902D EQ PUSH2 0x473 JUMPI DUP1 PUSH4 0x5471B47A EQ PUSH2 0x49D JUMPI DUP1 PUSH4 0x5A3D7263 EQ PUSH2 0x4D9 JUMPI DUP1 PUSH4 0x5C975ABB EQ PUSH2 0x515 JUMPI DUP1 PUSH4 0x5D504832 EQ PUSH2 0x53F JUMPI PUSH2 0x219 JUMP JUMPDEST DUP1 PUSH4 0x3944EA3A EQ PUSH2 0x3D9 JUMPI DUP1 PUSH4 0x46904840 EQ PUSH2 0x403 JUMPI DUP1 PUSH4 0x4B0795A8 EQ PUSH2 0x42D JUMPI DUP1 PUSH4 0x4F1EF286 EQ PUSH2 0x457 JUMPI PUSH2 0x219 JUMP JUMPDEST DUP1 PUSH4 0x107A274A GT PUSH2 0x1EC JUMPI DUP1 PUSH4 0x107A274A EQ PUSH2 0x2D5 JUMPI DUP1 PUSH4 0x248A9CA3 EQ PUSH2 0x311 JUMPI DUP1 PUSH4 0x2F2FF15D EQ PUSH2 0x34D JUMPI DUP1 PUSH4 0x34A9620C EQ PUSH2 0x375 JUMPI DUP1 PUSH4 0x36568ABE EQ PUSH2 0x3B1 JUMPI PUSH2 0x219 JUMP JUMPDEST DUP1 PUSH4 0x1C47C8B EQ PUSH2 0x21D JUMPI DUP1 PUSH4 0x1FFC9A7 EQ PUSH2 0x247 JUMPI DUP1 PUSH4 0x9C1BA2E EQ PUSH2 0x283 JUMPI DUP1 PUSH4 0xCA76175 EQ PUSH2 0x2AD JUMPI JUMPDEST PUSH0 PUSH0 REVERT JUMPDEST CALLVALUE DUP1 ISZERO PUSH2 0x228 JUMPI PUSH0 PUSH0 REVERT JUMPDEST POP PUSH2 0x231 PUSH2 0x8C8 JUMP JUMPDEST PUSH1 0x40 MLOAD PUSH2 0x23E SWAP2 SWAP1 PUSH2 0x38E1 JUMP JUMPDEST PUSH1 0x40 MLOAD DUP1 SWAP2 SUB SWAP1 RETURN JUMPDEST CALLVALUE DUP1 ISZERO PUSH2 0x252 JUMPI PUSH0 PUSH0 REVERT JUMPDEST POP PUSH2 0x26D PUSH1 0x4 DUP1 CALLDATASIZE SUB DUP2 ADD SWAP1 PUSH2 0x268 SWAP2 SWAP1 PUSH2 0x3960 JUMP JUMPDEST PUSH2 0x8DA JUMP JUMPDEST PUSH1 0x40 MLOAD PUSH2 0x27A SWAP2 SWAP1 PUSH2 0x38E1 JUMP JUMPDEST PUSH1 0x40 MLOAD DUP1 SWAP2 SUB SWAP1 RETURN JUMPDEST CALLVALUE DUP1 ISZERO PUSH2 0x28E JUMPI PUSH0 PUSH0 REVERT JUMPDEST POP PUSH2 0x297 PUSH2 0x953 JUMP JUMPDEST PUSH1 0x40 MLOAD PUSH2 0x2A4 SWAP2 SWAP1 PUSH2 0x39AD JUMP JUMPDEST PUSH1 0x40 MLOAD DUP1 SWAP2 SUB SWAP1 RETURN JUMPDEST CALLVALUE DUP1 ISZERO PUSH2 0x2B8 JUMPI PUSH0 PUSH0 REVERT JUMPDEST POP PUSH2 0x2D3 PUSH1 0x4 DUP1 CALLDATASIZE SUB DUP2 ADD SWAP1 PUSH2 0x2CE SWAP2 SWAP1 PUSH2 0x3B35 JUMP JUMPDEST PUSH2 0x96C JUMP JUMPDEST STOP JUMPDEST CALLVALUE DUP1 ISZERO PUSH2 0x2E0 JUMPI PUSH0 PUSH0 REVERT JUMPDEST POP PUSH2 0x2FB PUSH1 0x4 DUP1 CALLDATASIZE SUB DUP2 ADD SWAP1 PUSH2 0x2F6 SWAP2 SWAP1 PUSH2 0x3BF0 JUMP JUMPDEST PUSH2 0xA2F JUMP JUMPDEST PUSH1 0x40 MLOAD PUSH2 0x308 SWAP2 SWAP1 PUSH2 0x3DAF JUMP JUMPDEST PUSH1 0x40 MLOAD DUP1 SWAP2 SUB SWAP1 RETURN JUMPDEST CALLVALUE DUP1 ISZERO PUSH2 0x31C JUMPI PUSH0 PUSH0 REVERT JUMPDEST POP PUSH2 0x337 PUSH1 0x4 DUP1 CALLDATASIZE SUB DUP2 ADD SWAP1 PUSH2 0x332 SWAP2 SWAP1 PUSH2 0x3DCF JUMP JUMPDEST PUSH2 0xBFA JUMP JUMPDEST PUSH1 0x40 MLOAD PUSH2 0x344 SWAP2 SWAP1 PUSH2 0x3E09 JUMP JUMPDEST PUSH1 0x40 MLOAD DUP1 SWAP2 SUB SWAP1 RETURN JUMPDEST CALLVALUE DUP1 ISZERO PUSH2 0x358 JUMPI PUSH0 PUSH0 REVERT JUMPDEST POP PUSH2 0x373 PUSH1 0x4 DUP1 CALLDATASIZE SUB DUP2 ADD SWAP1 PUSH2 0x36E SWAP2 SWAP1 PUSH2 0x3E4C JUMP JUMPDEST PUSH2 0xC24 JUMP JUMPDEST STOP JUMPDEST CALLVALUE DUP1 ISZERO PUSH2 0x380 JUMPI PUSH0 PUSH0 REVERT JUMPDEST POP PUSH2 0x39B PUSH1 0x4 DUP1 CALLDATASIZE SUB DUP2 ADD SWAP1 PUSH2 0x396 SWAP2 SWAP1 PUSH2 0x3F11 JUMP JUMPDEST PUSH2 0xC46 JUMP JUMPDEST PUSH1 0x40 MLOAD PUSH2 0x3A8 SWAP2 SWAP1 PUSH2 0x3E09 JUMP JUMPDEST PUSH1 0x40 MLOAD DUP1 SWAP2 SUB SWAP1 RETURN JUMPDEST CALLVALUE DUP1 ISZERO PUSH2 0x3BC JUMPI PUSH0 PUSH0 REVERT JUMPDEST POP PUSH2 0x3D7 PUSH1 0x4 DUP1 CALLDATASIZE SUB DUP2 ADD SWAP1 PUSH2 0x3D2 SWAP2 SWAP1 PUSH2 0x3E4C JUMP JUMPDEST PUSH2 0xE61 JUMP JUMPDEST STOP JUMPDEST CALLVALUE DUP1 ISZERO PUSH2 0x3E4 JUMPI PUSH0 PUSH0 REVERT JUMPDEST POP PUSH2 0x3ED PUSH2 0xEDC JUMP JUMPDEST PUSH1 0x40 MLOAD PUSH2 0x3FA SWAP2 SWAP1 PUSH2 0x3FC0 JUMP JUMPDEST PUSH1 0x40 MLOAD DUP1 SWAP2 SUB SWAP1 RETURN JUMPDEST CALLVALUE DUP1 ISZERO PUSH2 0x40E JUMPI PUSH0 PUSH0 REVERT JUMPDEST POP PUSH2 0x417 PUSH2 0xF68 JUMP JUMPDEST PUSH1 0x40 MLOAD PUSH2 0x424 SWAP2 SWAP1 PUSH2 0x3FEF JUMP JUMPDEST PUSH1 0x40 MLOAD DUP1 SWAP2 SUB SWAP1 RETURN JUMPDEST CALLVALUE DUP1 ISZERO PUSH2 0x438 JUMPI PUSH0 PUSH0 REVERT JUMPDEST POP PUSH2 0x441 PUSH2 0xF8D JUMP JUMPDEST PUSH1 0x40 MLOAD PUSH2 0x44E SWAP2 SWAP1 PUSH2 0x3FC0 JUMP JUMPDEST PUSH1 0x40 MLOAD DUP1 SWAP2 SUB SWAP1 RETURN JUMPDEST PUSH2 0x471 PUSH1 0x4 DUP1 CALLDATASIZE SUB DUP2 ADD SWAP1 PUSH2 0x46C SWAP2 SWAP1 PUSH2 0x4008 JUMP JUMPDEST PUSH2 0x1019 JUMP JUMPDEST STOP JUMPDEST CALLVALUE DUP1 ISZERO PUSH2 0x47E JUMPI PUSH0 PUSH0 REVERT JUMPDEST POP PUSH2 0x487 PUSH2 0x1038 JUMP JUMPDEST PUSH1 0x40 MLOAD PUSH2 0x494 SWAP2 SWAP1 PUSH2 0x3E09 JUMP JUMPDEST PUSH1 0x40 MLOAD DUP1 SWAP2 SUB SWAP1 RETURN JUMPDEST CALLVALUE DUP1 ISZERO PUSH2 0x4A8 JUMPI PUSH0 PUSH0 REVERT JUMPDEST POP PUSH2 0x4C3 PUSH1 0x4 DUP1 CALLDATASIZE SUB DUP2 ADD SWAP1 PUSH2 0x4BE SWAP2 SWAP1 PUSH2 0x4062 JUMP JUMPDEST PUSH2 0x1069 JUMP JUMPDEST PUSH1 0x40 MLOAD PUSH2 0x4D0 SWAP2 SWAP1 PUSH2 0x38E1 JUMP JUMPDEST PUSH1 0x40 MLOAD DUP1 SWAP2 SUB SWAP1 RETURN JUMPDEST CALLVALUE DUP1 ISZERO PUSH2 0x4E4 JUMPI PUSH0 PUSH0 REVERT JUMPDEST POP PUSH2 0x4FF PUSH1 0x4 DUP1 CALLDATASIZE SUB DUP2 ADD SWAP1 PUSH2 0x4FA SWAP2 SWAP1 PUSH2 0x40A0 JUMP JUMPDEST PUSH2 0x12A9 JUMP JUMPDEST PUSH1 0x40 MLOAD PUSH2 0x50C SWAP2 SWAP1 PUSH2 0x38E1 JUMP JUMPDEST PUSH1 0x40 MLOAD DUP1 SWAP2 SUB SWAP1 RETURN JUMPDEST CALLVALUE DUP1 ISZERO PUSH2 0x520 JUMPI PUSH0 PUSH0 REVERT JUMPDEST POP PUSH2 0x529 PUSH2 0x12DF JUMP JUMPDEST PUSH1 0x40 MLOAD PUSH2 0x536 SWAP2 SWAP1 PUSH2 0x38E1 JUMP JUMPDEST PUSH1 0x40 MLOAD DUP1 SWAP2 SUB SWAP1 RETURN JUMPDEST CALLVALUE DUP1 ISZERO PUSH2 0x54A JUMPI PUSH0 PUSH0 REVERT JUMPDEST POP PUSH2 0x553 PUSH2 0x1301 JUMP JUMPDEST PUSH1 0x40 MLOAD PUSH2 0x560 SWAP2 SWAP1 PUSH2 0x40FA JUMP JUMPDEST PUSH1 0x40 MLOAD DUP1 SWAP2 SUB SWAP1 RETURN JUMPDEST CALLVALUE DUP1 ISZERO PUSH2 0x574 JUMPI PUSH0 PUSH0 REVERT JUMPDEST POP PUSH2 0x58F PUSH1 0x4 DUP1 CALLDATASIZE SUB DUP2 ADD SWAP1 PUSH2 0x58A SWAP2 SWAP1 PUSH2 0x4168 JUMP JUMPDEST PUSH2 0x1307 JUMP JUMPDEST PUSH1 0x40 MLOAD PUSH2 0x59C SWAP2 SWAP1 PUSH2 0x3E09 JUMP JUMPDEST PUSH1 0x40 MLOAD DUP1 SWAP2 SUB SWAP1 RETURN JUMPDEST CALLVALUE DUP1 ISZERO PUSH2 0x5B0 JUMPI PUSH0 PUSH0 REVERT JUMPDEST POP PUSH2 0x5B9 PUSH2 0x142A JUMP JUMPDEST STOP JUMPDEST CALLVALUE DUP1 ISZERO PUSH2 0x5C6 JUMPI PUSH0 PUSH0 REVERT JUMPDEST POP PUSH2 0x5CF PUSH2 0x15B9 JUMP JUMPDEST PUSH1 0x40 MLOAD PUSH2 0x5DC SWAP2 SWAP1 PUSH2 0x40FA JUMP JUMPDEST PUSH1 0x40 MLOAD DUP1 SWAP2 SUB SWAP1 RETURN JUMPDEST CALLVALUE DUP1 ISZERO PUSH2 0x5F0 JUMPI PUSH0 PUSH0 REVERT JUMPDEST POP PUSH2 0x5F9 PUSH2 0x15BF JUMP JUMPDEST PUSH1 0x40 MLOAD PUSH2 0x606 SWAP2 SWAP1 PUSH2 0x3FEF JUMP JUMPDEST PUSH1 0x40 MLOAD DUP1 SWAP2 SUB SWAP1 RETURN JUMPDEST CALLVALUE DUP1 ISZERO PUSH2 0x61A JUMPI PUSH0 PUSH0 REVERT JUMPDEST POP PUSH2 0x635 PUSH1 0x4 DUP1 CALLDATASIZE SUB DUP2 ADD SWAP1 PUSH2 0x630 SWAP2 SWAP1 PUSH2 0x3BF0 JUMP JUMPDEST PUSH2 0x15E6 JUMP JUMPDEST PUSH1 0x40 MLOAD PUSH2 0x643 SWAP3 SWAP2 SWAP1 PUSH2 0x4280 JUMP JUMPDEST PUSH1 0x40 MLOAD DUP1 SWAP2 SUB SWAP1 RETURN JUMPDEST CALLVALUE DUP1 ISZERO PUSH2 0x657 JUMPI PUSH0 PUSH0 REVERT JUMPDEST POP PUSH2 0x672 PUSH1 0x4 DUP1 CALLDATASIZE SUB DUP2 ADD SWAP1 PUSH2 0x66D SWAP2 SWAP1 PUSH2 0x3E4C JUMP JUMPDEST PUSH2 0x17ED JUMP JUMPDEST PUSH1 0x40 MLOAD PUSH2 0x67F SWAP2 SWAP1 PUSH2 0x38E1 JUMP JUMPDEST PUSH1 0x40 MLOAD DUP1 SWAP2 SUB SWAP1 RETURN JUMPDEST CALLVALUE DUP1 ISZERO PUSH2 0x693 JUMPI PUSH0 PUSH0 REVERT JUMPDEST POP PUSH2 0x69C PUSH2 0x185E JUMP JUMPDEST PUSH1 0x40 MLOAD PUSH2 0x6A9 SWAP2 SWAP1 PUSH2 0x40FA JUMP JUMPDEST PUSH1 0x40 MLOAD DUP1 SWAP2 SUB SWAP1 RETURN JUMPDEST CALLVALUE DUP1 ISZERO PUSH2 0x6BD JUMPI PUSH0 PUSH0 REVERT JUMPDEST POP PUSH2 0x6C6 PUSH2 0x1864 JUMP JUMPDEST PUSH1 0x40 MLOAD PUSH2 0x6D3 SWAP2 SWAP1 PUSH2 0x3E09 JUMP JUMPDEST PUSH1 0x40 MLOAD DUP1 SWAP2 SUB SWAP1 RETURN JUMPDEST CALLVALUE DUP1 ISZERO PUSH2 0x6E7 JUMPI PUSH0 PUSH0 REVERT JUMPDEST POP PUSH2 0x702 PUSH1 0x4 DUP1 CALLDATASIZE SUB DUP2 ADD SWAP1 PUSH2 0x6FD SWAP2 SWAP1 PUSH2 0x42AE JUMP JUMPDEST PUSH2 0x186A JUMP JUMPDEST STOP JUMPDEST CALLVALUE DUP1 ISZERO PUSH2 0x70F JUMPI PUSH0 PUSH0 REVERT JUMPDEST POP PUSH2 0x718 PUSH2 0x1B74 JUMP JUMPDEST PUSH1 0x40 MLOAD PUSH2 0x725 SWAP2 SWAP1 PUSH2 0x3FEF JUMP JUMPDEST PUSH1 0x40 MLOAD DUP1 SWAP2 SUB SWAP1 RETURN JUMPDEST CALLVALUE DUP1 ISZERO PUSH2 0x739 JUMPI PUSH0 PUSH0 REVERT JUMPDEST POP PUSH2 0x742 PUSH2 0x1B82 JUMP JUMPDEST PUSH1 0x40 MLOAD PUSH2 0x74F SWAP2 SWAP1 PUSH2 0x4337 JUMP JUMPDEST PUSH1 0x40 MLOAD DUP1 SWAP2 SUB SWAP1 RETURN JUMPDEST CALLVALUE DUP1 ISZERO PUSH2 0x763 JUMPI PUSH0 PUSH0 REVERT JUMPDEST POP PUSH2 0x77E PUSH1 0x4 DUP1 CALLDATASIZE SUB DUP2 ADD SWAP1 PUSH2 0x779 SWAP2 SWAP1 PUSH2 0x43F5 JUMP JUMPDEST PUSH2 0x1BBB JUMP JUMPDEST PUSH1 0x40 MLOAD PUSH2 0x78B SWAP2 SWAP1 PUSH2 0x38E1 JUMP JUMPDEST PUSH1 0x40 MLOAD DUP1 SWAP2 SUB SWAP1 RETURN JUMPDEST CALLVALUE DUP1 ISZERO PUSH2 0x79F JUMPI PUSH0 PUSH0 REVERT JUMPDEST POP PUSH2 0x7A8 PUSH2 0x1BF0 JUMP JUMPDEST PUSH1 0x40 MLOAD PUSH2 0x7B5 SWAP2 SWAP1 PUSH2 0x3E09 JUMP JUMPDEST PUSH1 0x40 MLOAD DUP1 SWAP2 SUB SWAP1 RETURN JUMPDEST CALLVALUE DUP1 ISZERO PUSH2 0x7C9 JUMPI PUSH0 PUSH0 REVERT JUMPDEST POP PUSH2 0x7E4 PUSH1 0x4 DUP1 CALLDATASIZE SUB DUP2 ADD SWAP1 PUSH2 0x7DF SWAP2 SWAP1 PUSH2 0x443C JUMP JUMPDEST PUSH2 0x1BF6 JUMP JUMPDEST PUSH1 0x40 MLOAD PUSH2 0x7F1 SWAP2 SWAP1 PUSH2 0x38E1 JUMP JUMPDEST PUSH1 0x40 MLOAD DUP1 SWAP2 SUB SWAP1 RETURN JUMPDEST CALLVALUE DUP1 ISZERO PUSH2 0x805 JUMPI PUSH0 PUSH0 REVERT JUMPDEST POP PUSH2 0x80E PUSH2 0x1C13 JUMP JUMPDEST PUSH1 0x40 MLOAD PUSH2 0x81B SWAP2 SWAP1 PUSH2 0x40FA JUMP JUMPDEST PUSH1 0x40 MLOAD DUP1 SWAP2 SUB SWAP1 RETURN JUMPDEST CALLVALUE DUP1 ISZERO PUSH2 0x82F JUMPI PUSH0 PUSH0 REVERT JUMPDEST POP PUSH2 0x84A PUSH1 0x4 DUP1 CALLDATASIZE SUB DUP2 ADD SWAP1 PUSH2 0x845 SWAP2 SWAP1 PUSH2 0x3E4C JUMP JUMPDEST PUSH2 0x1C23 JUMP JUMPDEST STOP JUMPDEST CALLVALUE DUP1 ISZERO PUSH2 0x857 JUMPI PUSH0 PUSH0 REVERT JUMPDEST POP PUSH2 0x860 PUSH2 0x1C45 JUMP JUMPDEST PUSH1 0x40 MLOAD PUSH2 0x86D SWAP2 SWAP1 PUSH2 0x40FA JUMP JUMPDEST PUSH1 0x40 MLOAD DUP1 SWAP2 SUB SWAP1 RETURN JUMPDEST CALLVALUE DUP1 ISZERO PUSH2 0x881 JUMPI PUSH0 PUSH0 REVERT JUMPDEST POP PUSH2 0x89C PUSH1 0x4 DUP1 CALLDATASIZE SUB DUP2 ADD SWAP1 PUSH2 0x897 SWAP2 SWAP1 PUSH2 0x443C JUMP JUMPDEST PUSH2 0x1C4B JUMP JUMPDEST STOP JUMPDEST CALLVALUE DUP1 ISZERO PUSH2 0x8A9 JUMPI PUSH0 PUSH0 REVERT JUMPDEST POP PUSH2 0x8B2 PUSH2 0x1C5F JUMP JUMPDEST PUSH1 0x40 MLOAD PUSH2 0x8BF SWAP2 SWAP1 PUSH2 0x4337 JUMP JUMPDEST PUSH1 0x40 MLOAD DUP1 SWAP2 SUB SWAP1 RETURN JUMPDEST PUSH1 0x9 PUSH0 SWAP1 SLOAD SWAP1 PUSH2 0x100 EXP SWAP1 DIV PUSH1 0xFF AND DUP2 JUMP JUMPDEST PUSH0 PUSH32 0x7965DB0B00000000000000000000000000000000000000000000000000000000 PUSH28 0xFFFFFFFFFFFFFFFFFFFFFFFFFFFFFFFFFFFFFFFFFFFFFFFFFFFFFFFF NOT AND DUP3 PUSH28 0xFFFFFFFFFFFFFFFFFFFFFFFFFFFFFFFFFFFFFFFFFFFFFFFFFFFFFFFF NOT AND EQ DUP1 PUSH2 0x94C JUMPI POP PUSH2 0x94B DUP3 PUSH2 0x1CEB JUMP JUMPDEST JUMPDEST SWAP1 POP SWAP2 SWAP1 POP JUMP JUMPDEST PUSH1 0x12 PUSH0 SWAP1 SLOAD SWAP1 PUSH2 0x100 EXP SWAP1 DIV PUSH8 0xFFFFFFFFFFFFFFFF AND DUP2 JUMP JUMPDEST PUSH1 0x2 PUSH0 SWAP1 SLOAD SWAP1 PUSH2 0x100 EXP SWAP1 DIV PUSH20 0xFFFFFFFFFFFFFFFFFFFFFFFFFFFFFFFFFFFFFFFF AND PUSH20 0xFFFFFFFFFFFFFFFFFFFFFFFFFFFFFFFFFFFFFFFF AND CALLER PUSH20 0xFFFFFFFFFFFFFFFFFFFFFFFFFFFFFFFFFFFFFFFF AND EQ PUSH2 0x9F2 JUMPI PUSH1 0x40 MLOAD PUSH32 0xC6829F8300000000000000000000000000000000000000000000000000000000 DUP2 MSTORE PUSH1 0x4 ADD PUSH1 0x40 MLOAD DUP1 SWAP2 SUB SWAP1 REVERT JUMPDEST PUSH2 0x9FD DUP4 DUP4 DUP4 PUSH2 0x1D54 JUMP JUMPDEST DUP3 PUSH32 0x85E1543BF2F84FE80C6BADBCE3648C8539AD1DF4D2B3D822938CA0538BE727E6 PUSH1 0x40 MLOAD PUSH1 0x40 MLOAD DUP1 SWAP2 SUB SWAP1 LOG2 POP POP POP JUMP JUMPDEST PUSH2 0xA37 PUSH2 0x37A6 JUMP JUMPDEST PUSH1 0x13 PUSH0 DUP4 DUP2 MSTORE PUSH1 0x20 ADD SWAP1 DUP2 MSTORE PUSH1 0x20 ADD PUSH0 KECCAK256 PUSH1 0x40 MLOAD DUP1 PUSH2 0x140 ADD PUSH1 0x40 MSTORE SWAP1 DUP2 PUSH0 DUP3 ADD SLOAD DUP2 MSTORE PUSH1 0x20 ADD PUSH1 0x1 DUP3 ADD PUSH0 SWAP1 SLOAD SWAP1 PUSH2 0x100 EXP SWAP1 DIV PUSH20 0xFFFFFFFFFFFFFFFFFFFFFFFFFFFFFFFFFFFFFFFF AND PUSH20 0xFFFFFFFFFFFFFFFFFFFFFFFFFFFFFFFFFFFFFFFF AND PUSH20 0xFFFFFFFFFFFFFFFFFFFFFFFFFFFFFFFFFFFFFFFF AND DUP2 MSTORE PUSH1 0x20 ADD PUSH1 0x2 DUP3 ADD SLOAD DUP2 MSTORE PUSH1 0x20 ADD PUSH1 0x3 DUP3 ADD PUSH0 SWAP1 SLOAD SWAP1 PUSH2 0x100 EXP SWAP1 DIV PUSH20 0xFFFFFFFFFFFFFFFFFFFFFFFFFFFFFFFFFFFFFFFF AND PUSH20 0xFFFFFFFFFFFFFFFFFFFFFFFFFFFFFFFFFFFFFFFF AND PUSH20 0xFFFFFFFFFFFFFFFFFFFFFFFFFFFFFFFFFFFFFFFF AND DUP2 MSTORE PUSH1 0x20 ADD PUSH1 0x4 DUP3 ADD SLOAD DUP2 MSTORE PUSH1 0x20 ADD PUSH1 0x5 DUP3 ADD SLOAD DUP2 MSTORE PUSH1 0x20 ADD PUSH1 0x6 DUP3 ADD SLOAD DUP2 MSTORE PUSH1 0x20 ADD PUSH1 0x7 DUP3 ADD PUSH0 SWAP1 SLOAD SWAP1 PUSH2 0x100 EXP SWAP1 DIV PUSH1 0xFF AND ISZERO ISZERO ISZERO ISZERO DUP2 MSTORE PUSH1 0x20 ADD PUSH1 0x8 DUP3 ADD DUP1 SLOAD PUSH2 0xB59 SWAP1 PUSH2 0x4494 JUMP JUMPDEST DUP1 PUSH1 0x1F ADD PUSH1 0x20 DUP1 SWAP2 DIV MUL PUSH1 0x20 ADD PUSH1 0x40 MLOAD SWAP1 DUP2 ADD PUSH1 0x40 MSTORE DUP1 SWAP3 SWAP2 SWAP1 DUP2 DUP2 MSTORE PUSH1 0x20 ADD DUP3 DUP1 SLOAD PUSH2 0xB85 SWAP1 PUSH2 0x4494 JUMP JUMPDEST DUP1 ISZERO PUSH2 0xBD0 JUMPI DUP1 PUSH1 0x1F LT PUSH2 0xBA7 JUMPI PUSH2 0x100 DUP1 DUP4 SLOAD DIV MUL DUP4 MSTORE SWAP2 PUSH1 0x20 ADD SWAP2 PUSH2 0xBD0 JUMP JUMPDEST DUP3 ADD SWAP2 SWAP1 PUSH0 MSTORE PUSH1 0x20 PUSH0 KECCAK256 SWAP1 JUMPDEST DUP2 SLOAD DUP2 MSTORE SWAP1 PUSH1 0x1 ADD SWAP1 PUSH1 0x20 ADD DUP1 DUP4 GT PUSH2 0xBB3 JUMPI DUP3 SWAP1 SUB PUSH1 0x1F AND DUP3 ADD SWAP2 JUMPDEST POP POP POP POP POP DUP2 MSTORE PUSH1 0x20 ADD PUSH1 0x9 DUP3 ADD PUSH0 SWAP1 SLOAD SWAP1 PUSH2 0x100 EXP SWAP1 DIV PUSH1 0xFF AND ISZERO ISZERO ISZERO ISZERO DUP2 MSTORE POP POP SWAP1 POP SWAP2 SWAP1 POP JUMP JUMPDEST PUSH0 PUSH0 PUSH2 0xC04 PUSH2 0x1F90 JUMP JUMPDEST SWAP1 POP DUP1 PUSH0 ADD PUSH0 DUP5 DUP2 MSTORE PUSH1 0x20 ADD SWAP1 DUP2 MSTORE PUSH1 0x20 ADD PUSH0 KECCAK256 PUSH1 0x1 ADD SLOAD SWAP2 POP POP SWAP2 SWAP1 POP JUMP JUMPDEST PUSH2 0xC2D DUP3 PUSH2 0xBFA JUMP JUMPDEST PUSH2 0xC36 DUP2 PUSH2 0x1FB7 JUMP JUMPDEST PUSH2 0xC40 DUP4 DUP4 PUSH2 0x1FCB JUMP JUMPDEST POP POP POP POP JUMP JUMPDEST PUSH0 PUSH2 0xC4F PUSH2 0x20C3 JUMP JUMPDEST PUSH0 DUP4 DUP4 SWAP1 POP SUB PUSH2 0xC98 JUMPI DUP3 DUP3 PUSH1 0x40 MLOAD PUSH32 0x5597DD2300000000000000000000000000000000000000000000000000000000 DUP2 MSTORE PUSH1 0x4 ADD PUSH2 0xC8F SWAP3 SWAP2 SWAP1 PUSH2 0x44F0 JUMP JUMPDEST PUSH1 0x40 MLOAD DUP1 SWAP2 SUB SWAP1 REVERT JUMPDEST PUSH2 0xCA0 PUSH2 0x3820 JUMP JUMPDEST PUSH2 0xD3B PUSH1 0xC DUP1 SLOAD PUSH2 0xCB0 SWAP1 PUSH2 0x4494 JUMP JUMPDEST DUP1 PUSH1 0x1F ADD PUSH1 0x20 DUP1 SWAP2 DIV MUL PUSH1 0x20 ADD PUSH1 0x40 MLOAD SWAP1 DUP2 ADD PUSH1 0x40 MSTORE DUP1 SWAP3 SWAP2 SWAP1 DUP2 DUP2 MSTORE PUSH1 0x20 ADD DUP3 DUP1 SLOAD PUSH2 0xCDC SWAP1 PUSH2 0x4494 JUMP JUMPDEST DUP1 ISZERO PUSH2 0xD27 JUMPI DUP1 PUSH1 0x1F LT PUSH2 0xCFE JUMPI PUSH2 0x100 DUP1 DUP4 SLOAD DIV MUL DUP4 MSTORE SWAP2 PUSH1 0x20 ADD SWAP2 PUSH2 0xD27 JUMP JUMPDEST DUP3 ADD SWAP2 SWAP1 PUSH0 MSTORE PUSH1 0x20 PUSH0 KECCAK256 SWAP1 JUMPDEST DUP2 SLOAD DUP2 MSTORE SWAP1 PUSH1 0x1 ADD SWAP1 PUSH1 0x20 ADD DUP1 DUP4 GT PUSH2 0xD0A JUMPI DUP3 SWAP1 SUB PUSH1 0x1F AND DUP3 ADD SWAP2 JUMPDEST POP POP POP POP POP DUP3 PUSH2 0x2153 SWAP1 SWAP2 SWAP1 PUSH4 0xFFFFFFFF AND JUMP JUMPDEST PUSH0 PUSH1 0x1 PUSH8 0xFFFFFFFFFFFFFFFF DUP2 GT ISZERO PUSH2 0xD57 JUMPI PUSH2 0xD56 PUSH2 0x3A11 JUMP JUMPDEST JUMPDEST PUSH1 0x40 MLOAD SWAP1 DUP1 DUP3 MSTORE DUP1 PUSH1 0x20 MUL PUSH1 0x20 ADD DUP3 ADD PUSH1 0x40 MSTORE DUP1 ISZERO PUSH2 0xD8A JUMPI DUP2 PUSH1 0x20 ADD JUMPDEST PUSH1 0x60 DUP2 MSTORE PUSH1 0x20 ADD SWAP1 PUSH1 0x1 SWAP1 SUB SWAP1 DUP2 PUSH2 0xD75 JUMPI SWAP1 POP JUMPDEST POP SWAP1 POP DUP5 DUP5 DUP1 DUP1 PUSH1 0x1F ADD PUSH1 0x20 DUP1 SWAP2 DIV MUL PUSH1 0x20 ADD PUSH1 0x40 MLOAD SWAP1 DUP2 ADD PUSH1 0x40 MSTORE DUP1 SWAP4 SWAP3 SWAP2 SWAP1 DUP2 DUP2 MSTORE PUSH1 0x20 ADD DUP4 DUP4 DUP1 DUP3 DUP5 CALLDATACOPY PUSH0 DUP2 DUP5 ADD MSTORE PUSH1 0x1F NOT PUSH1 0x1F DUP3 ADD AND SWAP1 POP DUP1 DUP4 ADD SWAP3 POP POP POP POP POP POP POP DUP2 PUSH0 DUP2 MLOAD DUP2 LT PUSH2 0xDE4 JUMPI PUSH2 0xDE3 PUSH2 0x4512 JUMP JUMPDEST JUMPDEST PUSH1 0x20 MUL PUSH1 0x20 ADD ADD DUP2 SWAP1 MSTORE POP PUSH2 0xE02 DUP2 DUP4 PUSH2 0x2163 SWAP1 SWAP2 SWAP1 PUSH4 0xFFFFFFFF AND JUMP JUMPDEST DUP5 DUP5 PUSH1 0x8 SWAP2 DUP3 PUSH2 0xE13 SWAP3 SWAP2 SWAP1 PUSH2 0x46E9 JUMP JUMPDEST POP PUSH2 0xE4D PUSH2 0xE20 DUP4 PUSH2 0x21AA JUMP JUMPDEST DUP8 PUSH3 0x493E0 PUSH32 0x66756E2D657468657265756D2D7365706F6C69612D3100000000000000000000 PUSH0 SHL PUSH2 0x25B5 JUMP JUMPDEST PUSH1 0x3 DUP2 SWAP1 SSTORE POP PUSH1 0x3 SLOAD SWAP3 POP POP POP SWAP4 SWAP3 POP POP POP JUMP JUMPDEST PUSH2 0xE69 PUSH2 0x2695 JUMP JUMPDEST PUSH20 0xFFFFFFFFFFFFFFFFFFFFFFFFFFFFFFFFFFFFFFFF AND DUP2 PUSH20 0xFFFFFFFFFFFFFFFFFFFFFFFFFFFFFFFFFFFFFFFF AND EQ PUSH2 0xECD JUMPI PUSH1 0x40 MLOAD PUSH32 0x6697B23200000000000000000000000000000000000000000000000000000000 DUP2 MSTORE PUSH1 0x4 ADD PUSH1 0x40 MLOAD DUP1 SWAP2 SUB SWAP1 REVERT JUMPDEST PUSH2 0xED7 DUP3 DUP3 PUSH2 0x269C JUMP JUMPDEST POP POP POP JUMP JUMPDEST PUSH1 0x4 DUP1 SLOAD PUSH2 0xEE9 SWAP1 PUSH2 0x4494 JUMP JUMPDEST DUP1 PUSH1 0x1F ADD PUSH1 0x20 DUP1 SWAP2 DIV MUL PUSH1 0x20 ADD PUSH1 0x40 MLOAD SWAP1 DUP2 ADD PUSH1 0x40 MSTORE DUP1 SWAP3 SWAP2 SWAP1 DUP2 DUP2 MSTORE PUSH1 0x20 ADD DUP3 DUP1 SLOAD PUSH2 0xF15 SWAP1 PUSH2 0x4494 JUMP JUMPDEST DUP1 ISZERO PUSH2 0xF60 JUMPI DUP1 PUSH1 0x1F LT PUSH2 0xF37 JUMPI PUSH2 0x100 DUP1 DUP4 SLOAD DIV MUL DUP4 MSTORE SWAP2 PUSH1 0x20 ADD SWAP2 PUSH2 0xF60 JUMP JUMPDEST DUP3 ADD SWAP2 SWAP1 PUSH0 MSTORE PUSH1 0x20 PUSH0 KECCAK256 SWAP1 JUMPDEST DUP2 SLOAD DUP2 MSTORE SWAP1 PUSH1 0x1 ADD SWAP1 PUSH1 0x20 ADD DUP1 DUP4 GT PUSH2 0xF43 JUMPI DUP3 SWAP1 SUB PUSH1 0x1F AND DUP3 ADD SWAP2 JUMPDEST POP POP POP POP POP DUP2 JUMP JUMPDEST PUSH1 0xF PUSH0 SWAP1 SLOAD SWAP1 PUSH2 0x100 EXP SWAP1 DIV PUSH20 0xFFFFFFFFFFFFFFFFFFFFFFFFFFFFFFFFFFFFFFFF AND DUP2 JUMP JUMPDEST PUSH1 0x5 DUP1 SLOAD PUSH2 0xF9A SWAP1 PUSH2 0x4494 JUMP JUMPDEST DUP1 PUSH1 0x1F ADD PUSH1 0x20 DUP1 SWAP2 DIV MUL PUSH1 0x20 ADD PUSH1 0x40 MLOAD SWAP1 DUP2 ADD PUSH1 0x40 MSTORE DUP1 SWAP3 SWAP2 SWAP1 DUP2 DUP2 MSTORE PUSH1 0x20 ADD DUP3 DUP1 SLOAD PUSH2 0xFC6 SWAP1 PUSH2 0x4494 JUMP JUMPDEST DUP1 ISZERO PUSH2 0x1011 JUMPI DUP1 PUSH1 0x1F LT PUSH2 0xFE8 JUMPI PUSH2 0x100 DUP1 DUP4 SLOAD DIV MUL DUP4 MSTORE SWAP2 PUSH1 0x20 ADD SWAP2 PUSH2 0x1011 JUMP JUMPDEST DUP3 ADD SWAP2 SWAP1 PUSH0 MSTORE PUSH1 0x20 PUSH0 KECCAK256 SWAP1 JUMPDEST DUP2 SLOAD DUP2 MSTORE SWAP1 PUSH1 0x1 ADD SWAP1 PUSH1 0x20 ADD DUP1 DUP4 GT PUSH2 0xFF4 JUMPI DUP3 SWAP1 SUB PUSH1 0x1F AND DUP3 ADD SWAP2 JUMPDEST POP POP POP POP POP DUP2 JUMP JUMPDEST PUSH2 0x1021 PUSH2 0x2794 JUMP JUMPDEST PUSH2 0x102A DUP3 PUSH2 0x287A JUMP JUMPDEST PUSH2 0x1034 DUP3 DUP3 PUSH2 0x28AA JUMP JUMPDEST POP POP JUMP JUMPDEST PUSH0 PUSH2 0x1041 PUSH2 0x29C8 JUMP JUMPDEST PUSH32 0x360894A13BA1A3210667C828492DB98DCA3E2076CC3735A920A3CA505D382BBC PUSH0 SHL SWAP1 POP SWAP1 JUMP JUMPDEST PUSH0 PUSH0 PUSH1 0x14 PUSH0 DUP6 PUSH20 0xFFFFFFFFFFFFFFFFFFFFFFFFFFFFFFFFFFFFFFFF AND PUSH20 0xFFFFFFFFFFFFFFFFFFFFFFFFFFFFFFFFFFFFFFFF AND DUP2 MSTORE PUSH1 0x20 ADD SWAP1 DUP2 MSTORE PUSH1 0x20 ADD PUSH0 KECCAK256 PUSH0 DUP5 DUP2 MSTORE PUSH1 0x20 ADD SWAP1 DUP2 MSTORE PUSH1 0x20 ADD PUSH0 KECCAK256 SLOAD SWAP1 POP PUSH0 DUP2 SUB PUSH2 0x10CA JUMPI PUSH0 SWAP2 POP POP PUSH2 0x12A3 JUMP JUMPDEST PUSH0 PUSH1 0x13 PUSH0 DUP4 DUP2 MSTORE PUSH1 0x20 ADD SWAP1 DUP2 MSTORE PUSH1 0x20 ADD PUSH0 KECCAK256 PUSH1 0x40 MLOAD DUP1 PUSH2 0x140 ADD PUSH1 0x40 MSTORE SWAP1 DUP2 PUSH0 DUP3 ADD SLOAD DUP2 MSTORE PUSH1 0x20 ADD PUSH1 0x1 DUP3 ADD PUSH0 SWAP1 SLOAD SWAP1 PUSH2 0x100 EXP SWAP1 DIV PUSH20 0xFFFFFFFFFFFFFFFFFFFFFFFFFFFFFFFFFFFFFFFF AND PUSH20 0xFFFFFFFFFFFFFFFFFFFFFFFFFFFFFFFFFFFFFFFF AND PUSH20 0xFFFFFFFFFFFFFFFFFFFFFFFFFFFFFFFFFFFFFFFF AND DUP2 MSTORE PUSH1 0x20 ADD PUSH1 0x2 DUP3 ADD SLOAD DUP2 MSTORE PUSH1 0x20 ADD PUSH1 0x3 DUP3 ADD PUSH0 SWAP1 SLOAD SWAP1 PUSH2 0x100 EXP SWAP1 DIV PUSH20 0xFFFFFFFFFFFFFFFFFFFFFFFFFFFFFFFFFFFFFFFF AND PUSH20 0xFFFFFFFFFFFFFFFFFFFFFFFFFFFFFFFFFFFFFFFF AND PUSH20 0xFFFFFFFFFFFFFFFFFFFFFFFFFFFFFFFFFFFFFFFF AND DUP2 MSTORE PUSH1 0x20 ADD PUSH1 0x4 DUP3 ADD SLOAD DUP2 MSTORE PUSH1 0x20 ADD PUSH1 0x5 DUP3 ADD SLOAD DUP2 MSTORE PUSH1 0x20 ADD PUSH1 0x6 DUP3 ADD SLOAD DUP2 MSTORE PUSH1 0x20 ADD PUSH1 0x7 DUP3 ADD PUSH0 SWAP1 SLOAD SWAP1 PUSH2 0x100 EXP SWAP1 DIV PUSH1 0xFF AND ISZERO ISZERO ISZERO ISZERO DUP2 MSTORE PUSH1 0x20 ADD PUSH1 0x8 DUP3 ADD DUP1 SLOAD PUSH2 0x11ED SWAP1 PUSH2 0x4494 JUMP JUMPDEST DUP1 PUSH1 0x1F ADD PUSH1 0x20 DUP1 SWAP2 DIV MUL PUSH1 0x20 ADD PUSH1 0x40 MLOAD SWAP1 DUP2 ADD PUSH1 0x40 MSTORE DUP1 SWAP3 SWAP2 SWAP1 DUP2 DUP2 MSTORE PUSH1 0x20 ADD DUP3 DUP1 SLOAD PUSH2 0x1219 SWAP1 PUSH2 0x4494 JUMP JUMPDEST DUP1 ISZERO PUSH2 0x1264 JUMPI DUP1 PUSH1 0x1F LT PUSH2 0x123B JUMPI PUSH2 0x100 DUP1 DUP4 SLOAD DIV MUL DUP4 MSTORE SWAP2 PUSH1 0x20 ADD SWAP2 PUSH2 0x1264 JUMP JUMPDEST DUP3 ADD SWAP2 SWAP1 PUSH0 MSTORE PUSH1 0x20 PUSH0 KECCAK256 SWAP1 JUMPDEST DUP2 SLOAD DUP2 MSTORE SWAP1 PUSH1 0x1 ADD SWAP1 PUSH1 0x20 ADD DUP1 DUP4 GT PUSH2 0x1247 JUMPI DUP3 SWAP1 SUB PUSH1 0x1F AND DUP3 ADD SWAP2 JUMPDEST POP POP POP POP POP DUP2 MSTORE PUSH1 0x20 ADD PUSH1 0x9 DUP3 ADD PUSH0 SWAP1 SLOAD SWAP1 PUSH2 0x100 EXP SWAP1 DIV PUSH1 0xFF AND ISZERO ISZERO ISZERO ISZERO DUP2 MSTORE POP POP SWAP1 POP DUP1 PUSH1 0xE0 ADD MLOAD DUP1 ISZERO PUSH2 0x129E JUMPI POP DUP1 PUSH1 0xC0 ADD MLOAD TIMESTAMP GT ISZERO JUMPDEST SWAP3 POP POP POP JUMPDEST SWAP3 SWAP2 POP POP JUMP JUMPDEST PUSH0 PUSH1 0x7 DUP4 DUP4 PUSH1 0x40 MLOAD PUSH2 0x12BC SWAP3 SWAP2 SWAP1 PUSH2 0x47E4 JUMP JUMPDEST SWAP1 DUP2 MSTORE PUSH1 0x20 ADD PUSH1 0x40 MLOAD DUP1 SWAP2 SUB SWAP1 KECCAK256 PUSH0 SWAP1 SLOAD SWAP1 PUSH2 0x100 EXP SWAP1 DIV PUSH1 0xFF AND SWAP1 POP SWAP3 SWAP2 POP POP JUMP JUMPDEST PUSH0 PUSH0 PUSH2 0x12E9 PUSH2 0x2A4F JUMP JUMPDEST SWAP1 POP DUP1 PUSH0 ADD PUSH0 SWAP1 SLOAD SWAP1 PUSH2 0x100 EXP SWAP1 DIV PUSH1 0xFF AND SWAP2 POP POP SWAP1 JUMP JUMPDEST PUSH1 0x6 SLOAD DUP2 JUMP JUMPDEST PUSH0 PUSH2 0x1310 PUSH2 0x20C3 JUMP JUMPDEST PUSH2 0x1318 PUSH2 0x3820 JUMP JUMPDEST PUSH2 0x13B3 PUSH1 0xB DUP1 SLOAD PUSH2 0x1328 SWAP1 PUSH2 0x4494 JUMP JUMPDEST DUP1 PUSH1 0x1F ADD PUSH1 0x20 DUP1 SWAP2 DIV MUL PUSH1 0x20 ADD PUSH1 0x40 MLOAD SWAP1 DUP2 ADD PUSH1 0x40 MSTORE DUP1 SWAP3 SWAP2 SWAP1 DUP2 DUP2 MSTORE PUSH1 0x20 ADD DUP3 DUP1 SLOAD PUSH2 0x1354 SWAP1 PUSH2 0x4494 JUMP JUMPDEST DUP1 ISZERO PUSH2 0x139F JUMPI DUP1 PUSH1 0x1F LT PUSH2 0x1376 JUMPI PUSH2 0x100 DUP1 DUP4 SLOAD DIV MUL DUP4 MSTORE SWAP2 PUSH1 0x20 ADD SWAP2 PUSH2 0x139F JUMP JUMPDEST DUP3 ADD SWAP2 SWAP1 PUSH0 MSTORE PUSH1 0x20 PUSH0 KECCAK256 SWAP1 JUMPDEST DUP2 SLOAD DUP2 MSTORE SWAP1 PUSH1 0x1 ADD SWAP1 PUSH1 0x20 ADD DUP1 DUP4 GT PUSH2 0x1382 JUMPI DUP3 SWAP1 SUB PUSH1 0x1F AND DUP3 ADD SWAP2 JUMPDEST POP POP POP POP POP DUP3 PUSH2 0x2153 SWAP1 SWAP2 SWAP1 PUSH4 0xFFFFFFFF AND JUMP JUMPDEST PUSH0 DUP5 DUP5 SWAP1 POP GT ISZERO PUSH2 0x13DE JUMPI PUSH2 0x13DD DUP5 DUP5 SWAP1 PUSH2 0x13CE SWAP2 SWAP1 PUSH2 0x48AD JUMP JUMPDEST DUP3 PUSH2 0x2163 SWAP1 SWAP2 SWAP1 PUSH4 0xFFFFFFFF AND JUMP JUMPDEST JUMPDEST PUSH2 0x1417 PUSH2 0x13EA DUP3 PUSH2 0x21AA JUMP JUMPDEST DUP7 PUSH3 0x493E0 PUSH32 0x66756E2D657468657265756D2D7365706F6C69612D3100000000000000000000 PUSH0 SHL PUSH2 0x25B5 JUMP JUMPDEST PUSH1 0x3 DUP2 SWAP1 SSTORE POP PUSH1 0x3 SLOAD SWAP2 POP POP SWAP4 SWAP3 POP POP POP JUMP JUMPDEST PUSH1 0x1 PUSH0 SWAP1 SLOAD SWAP1 PUSH2 0x100 EXP SWAP1 DIV PUSH20 0xFFFFFFFFFFFFFFFFFFFFFFFFFFFFFFFFFFFFFFFF AND PUSH20 0xFFFFFFFFFFFFFFFFFFFFFFFFFFFFFFFFFFFFFFFF AND CALLER PUSH20 0xFFFFFFFFFFFFFFFFFFFFFFFFFFFFFFFFFFFFFFFF AND EQ PUSH2 0x14B9 JUMPI PUSH1 0x40 MLOAD PUSH32 0x8C379A000000000000000000000000000000000000000000000000000000000 DUP2 MSTORE PUSH1 0x4 ADD PUSH2 0x14B0 SWAP1 PUSH2 0x490B JUMP JUMPDEST PUSH1 0x40 MLOAD DUP1 SWAP2 SUB SWAP1 REVERT JUMPDEST PUSH0 PUSH0 PUSH0 SWAP1 SLOAD SWAP1 PUSH2 0x100 EXP SWAP1 DIV PUSH20 0xFFFFFFFFFFFFFFFFFFFFFFFFFFFFFFFFFFFFFFFF AND SWAP1 POP CALLER PUSH0 PUSH0 PUSH2 0x100 EXP DUP2 SLOAD DUP2 PUSH20 0xFFFFFFFFFFFFFFFFFFFFFFFFFFFFFFFFFFFFFFFF MUL NOT AND SWAP1 DUP4 PUSH20 0xFFFFFFFFFFFFFFFFFFFFFFFFFFFFFFFFFFFFFFFF AND MUL OR SWAP1 SSTORE POP PUSH0 PUSH1 0x1 PUSH0 PUSH2 0x100 EXP DUP2 SLOAD DUP2 PUSH20 0xFFFFFFFFFFFFFFFFFFFFFFFFFFFFFFFFFFFFFFFF MUL NOT AND SWAP1 DUP4 PUSH20 0xFFFFFFFFFFFFFFFFFFFFFFFFFFFFFFFFFFFFFFFF AND MUL OR SWAP1 SSTORE POP CALLER PUSH20 0xFFFFFFFFFFFFFFFFFFFFFFFFFFFFFFFFFFFFFFFF AND DUP2 PUSH20 0xFFFFFFFFFFFFFFFFFFFFFFFFFFFFFFFFFFFFFFFF AND PUSH32 0x8BE0079C531659141344CD1FD0A4F28419497F9722A3DAAFE3B4186F6B6457E0 PUSH1 0x40 MLOAD PUSH1 0x40 MLOAD DUP1 SWAP2 SUB SWAP1 LOG3 POP JUMP JUMPDEST PUSH1 0xE SLOAD DUP2 JUMP JUMPDEST PUSH0 PUSH0 PUSH0 SWAP1 SLOAD SWAP1 PUSH2 0x100 EXP SWAP1 DIV PUSH20 0xFFFFFFFFFFFFFFFFFFFFFFFFFFFFFFFFFFFFFFFF AND SWAP1 POP SWAP1 JUMP JUMPDEST PUSH1 0x60 PUSH0 PUSH0 PUSH1 0x13 PUSH0 DUP6 DUP2 MSTORE PUSH1 0x20 ADD SWAP1 DUP2 MSTORE PUSH1 0x20 ADD PUSH0 KECCAK256 PUSH1 0x40 MLOAD DUP1 PUSH2 0x140 ADD PUSH1 0x40 MSTORE SWAP1 DUP2 PUSH0 DUP3 ADD SLOAD DUP2 MSTORE PUSH1 0x20 ADD PUSH1 0x1 DUP3 ADD PUSH0 SWAP1 SLOAD SWAP1 PUSH2 0x100 EXP SWAP1 DIV PUSH20 0xFFFFFFFFFFFFFFFFFFFFFFFFFFFFFFFFFFFFFFFF AND PUSH20 0xFFFFFFFFFFFFFFFFFFFFFFFFFFFFFFFFFFFFFFFF AND PUSH20 0xFFFFFFFFFFFFFFFFFFFFFFFFFFFFFFFFFFFFFFFF AND DUP2 MSTORE PUSH1 0x20 ADD PUSH1 0x2 DUP3 ADD SLOAD DUP2 MSTORE PUSH1 0x20 ADD PUSH1 0x3 DUP3 ADD PUSH0 SWAP1 SLOAD SWAP1 PUSH2 0x100 EXP SWAP1 DIV PUSH20 0xFFFFFFFFFFFFFFFFFFFFFFFFFFFFFFFFFFFFFFFF AND PUSH20 0xFFFFFFFFFFFFFFFFFFFFFFFFFFFFFFFFFFFFFFFF AND PUSH20 0xFFFFFFFFFFFFFFFFFFFFFFFFFFFFFFFFFFFFFFFF AND DUP2 MSTORE PUSH1 0x20 ADD PUSH1 0x4 DUP3 ADD SLOAD DUP2 MSTORE PUSH1 0x20 ADD PUSH1 0x5 DUP3 ADD SLOAD DUP2 MSTORE PUSH1 0x20 ADD PUSH1 0x6 DUP3 ADD SLOAD DUP2 MSTORE PUSH1 0x20 ADD PUSH1 0x7 DUP3 ADD PUSH0 SWAP1 SLOAD SWAP1 PUSH2 0x100 EXP SWAP1 DIV PUSH1 0xFF AND ISZERO ISZERO ISZERO ISZERO DUP2 MSTORE PUSH1 0x20 ADD PUSH1 0x8 DUP3 ADD DUP1 SLOAD PUSH2 0x170C SWAP1 PUSH2 0x4494 JUMP JUMPDEST DUP1 PUSH1 0x1F ADD PUSH1 0x20 DUP1 SWAP2 DIV MUL PUSH1 0x20 ADD PUSH1 0x40 MLOAD SWAP1 DUP2 ADD PUSH1 0x40 MSTORE DUP1 SWAP3 SWAP2 SWAP1 DUP2 DUP2 MSTORE PUSH1 0x20 ADD DUP3 DUP1 SLOAD PUSH2 0x1738 SWAP1 PUSH2 0x4494 JUMP JUMPDEST DUP1 ISZERO PUSH2 0x1783 JUMPI DUP1 PUSH1 0x1F LT PUSH2 0x175A JUMPI PUSH2 0x100 DUP1 DUP4 SLOAD DIV MUL DUP4 MSTORE SWAP2 PUSH1 0x20 ADD SWAP2 PUSH2 0x1783 JUMP JUMPDEST DUP3 ADD SWAP2 SWAP1 PUSH0 MSTORE PUSH1 0x20 PUSH0 KECCAK256 SWAP1 JUMPDEST DUP2 SLOAD DUP2 MSTORE SWAP1 PUSH1 0x1 ADD SWAP1 PUSH1 0x20 ADD DUP1 DUP4 GT PUSH2 0x1766 JUMPI DUP3 SWAP1 SUB PUSH1 0x1F AND DUP3 ADD SWAP2 JUMPDEST POP POP POP POP POP DUP2 MSTORE PUSH1 0x20 ADD PUSH1 0x9 DUP3 ADD PUSH0 SWAP1 SLOAD SWAP1 PUSH2 0x100 EXP SWAP1 DIV PUSH1 0xFF AND ISZERO ISZERO ISZERO ISZERO DUP2 MSTORE POP POP SWAP1 POP DUP1 PUSH2 0x100 ADD MLOAD SWAP3 POP PUSH0 DUP4 MLOAD GT ISZERO PUSH2 0x17E7 JUMPI PUSH1 0x17 DUP4 PUSH1 0x40 MLOAD PUSH2 0x17C9 SWAP2 SWAP1 PUSH2 0x4959 JUMP JUMPDEST SWAP1 DUP2 MSTORE PUSH1 0x20 ADD PUSH1 0x40 MLOAD DUP1 SWAP2 SUB SWAP1 KECCAK256 PUSH0 SWAP1 SLOAD SWAP1 PUSH2 0x100 EXP SWAP1 DIV PUSH1 0xFF AND SWAP2 POP JUMPDEST POP SWAP2 POP SWAP2 JUMP JUMPDEST PUSH0 PUSH0 PUSH2 0x17F7 PUSH2 0x1F90 JUMP JUMPDEST SWAP1 POP DUP1 PUSH0 ADD PUSH0 DUP6 DUP2 MSTORE PUSH1 0x20 ADD SWAP1 DUP2 MSTORE PUSH1 0x20 ADD PUSH0 KECCAK256 PUSH0 ADD PUSH0 DUP5 PUSH20 0xFFFFFFFFFFFFFFFFFFFFFFFFFFFFFFFFFFFFFFFF AND PUSH20 0xFFFFFFFFFFFFFFFFFFFFFFFFFFFFFFFFFFFFFFFF AND DUP2 MSTORE PUSH1 0x20 ADD SWAP1 DUP2 MSTORE PUSH1 0x20 ADD PUSH0 KECCAK256 PUSH0 SWAP1 SLOAD SWAP1 PUSH2 0x100 EXP SWAP1 DIV PUSH1 0xFF AND SWAP2 POP POP SWAP3 SWAP2 POP POP JUMP JUMPDEST PUSH1 0x10 SLOAD DUP2 JUMP JUMPDEST PUSH0 PUSH0 SHL DUP2 JUMP JUMPDEST PUSH0 PUSH2 0x1873 PUSH2 0x2A76 JUMP JUMPDEST SWAP1 POP PUSH0 DUP2 PUSH0 ADD PUSH1 0x8 SWAP1 SLOAD SWAP1 PUSH2 0x100 EXP SWAP1 DIV PUSH1 0xFF AND ISZERO SWAP1 POP PUSH0 DUP3 PUSH0 ADD PUSH0 SWAP1 SLOAD SWAP1 PUSH2 0x100 EXP SWAP1 DIV PUSH8 0xFFFFFFFFFFFFFFFF AND SWAP1 POP PUSH0 PUSH0 DUP3 PUSH8 0xFFFFFFFFFFFFFFFF AND EQ DUP1 ISZERO PUSH2 0x18BB JUMPI POP DUP3 JUMPDEST SWAP1 POP PUSH0 PUSH1 0x1 DUP4 PUSH8 0xFFFFFFFFFFFFFFFF AND EQ DUP1 ISZERO PUSH2 0x18EE JUMPI POP PUSH0 ADDRESS PUSH20 0xFFFFFFFFFFFFFFFFFFFFFFFFFFFFFFFFFFFFFFFF AND EXTCODESIZE EQ JUMPDEST SWAP1 POP DUP2 ISZERO DUP1 ISZERO PUSH2 0x18FC JUMPI POP DUP1 ISZERO JUMPDEST ISZERO PUSH2 0x1933 JUMPI PUSH1 0x40 MLOAD PUSH32 0xF92EE8A900000000000000000000000000000000000000000000000000000000 DUP2 MSTORE PUSH1 0x4 ADD PUSH1 0x40 MLOAD DUP1 SWAP2 SUB SWAP1 REVERT JUMPDEST PUSH1 0x1 DUP6 PUSH0 ADD PUSH0 PUSH2 0x100 EXP DUP2 SLOAD DUP2 PUSH8 0xFFFFFFFFFFFFFFFF MUL NOT AND SWAP1 DUP4 PUSH8 0xFFFFFFFFFFFFFFFF AND MUL OR SWAP1 SSTORE POP DUP4 ISZERO PUSH2 0x1980 JUMPI PUSH1 0x1 DUP6 PUSH0 ADD PUSH1 0x8 PUSH2 0x100 EXP DUP2 SLOAD DUP2 PUSH1 0xFF MUL NOT AND SWAP1 DUP4 ISZERO ISZERO MUL OR SWAP1 SSTORE POP JUMPDEST PUSH0 PUSH20 0xFFFFFFFFFFFFFFFFFFFFFFFFFFFFFFFFFFFFFFFF AND DUP12 PUSH20 0xFFFFFFFFFFFFFFFFFFFFFFFFFFFFFFFFFFFFFFFF AND SUB PUSH2 0x19E5 JUMPI PUSH1 0x40 MLOAD PUSH32 0xD92E233D00000000000000000000000000000000000000000000000000000000 DUP2 MSTORE PUSH1 0x4 ADD PUSH1 0x40 MLOAD DUP1 SWAP2 SUB SWAP1 REVERT JUMPDEST PUSH2 0x3E8 DUP11 GT ISZERO PUSH2 0x1A21 JUMPI PUSH1 0x40 MLOAD PUSH32 0x8A81D3B300000000000000000000000000000000000000000000000000000000 DUP2 MSTORE PUSH1 0x4 ADD PUSH1 0x40 MLOAD DUP1 SWAP2 SUB SWAP1 REVERT JUMPDEST PUSH0 DUP10 EQ DUP1 PUSH2 0x1A2F JUMPI POP DUP9 DUP9 GT ISZERO JUMPDEST ISZERO PUSH2 0x1A66 JUMPI PUSH1 0x40 MLOAD PUSH32 0x7616640100000000000000000000000000000000000000000000000000000000 DUP2 MSTORE PUSH1 0x4 ADD PUSH1 0x40 MLOAD DUP1 SWAP2 SUB SWAP1 REVERT JUMPDEST PUSH2 0x1A6E PUSH2 0x2A89 JUMP JUMPDEST PUSH2 0x1A76 PUSH2 0x2B0A JUMP JUMPDEST PUSH2 0x1A7E PUSH2 0x2B1C JUMP JUMPDEST PUSH2 0x1A87 DUP8 PUSH2 0x2B26 JUMP JUMPDEST PUSH2 0x1A90 CALLER PUSH2 0x2B69 JUMP JUMPDEST DUP11 PUSH1 0xF PUSH0 PUSH2 0x100 EXP DUP2 SLOAD DUP2 PUSH20 0xFFFFFFFFFFFFFFFFFFFFFFFFFFFFFFFFFFFFFFFF MUL NOT AND SWAP1 DUP4 PUSH20 0xFFFFFFFFFFFFFFFFFFFFFFFFFFFFFFFFFFFFFFFF AND MUL OR SWAP1 SSTORE POP DUP10 PUSH1 0xE DUP2 SWAP1 SSTORE POP DUP9 PUSH1 0x10 DUP2 SWAP1 SSTORE POP DUP8 PUSH1 0x11 DUP2 SWAP1 SSTORE POP DUP6 PUSH1 0x12 PUSH0 PUSH2 0x100 EXP DUP2 SLOAD DUP2 PUSH8 0xFFFFFFFFFFFFFFFF MUL NOT AND SWAP1 DUP4 PUSH8 0xFFFFFFFFFFFFFFFF AND MUL OR SWAP1 SSTORE POP DUP4 ISZERO PUSH2 0x1B67 JUMPI PUSH0 DUP6 PUSH0 ADD PUSH1 0x8 PUSH2 0x100 EXP DUP2 SLOAD DUP2 PUSH1 0xFF MUL NOT AND SWAP1 DUP4 ISZERO ISZERO MUL OR SWAP1 SSTORE POP PUSH32 0xC7F505B2F371AE2175EE4913F4499E1F2633A7B5936321EED1CDAEB6115181D2 PUSH1 0x1 PUSH1 0x40 MLOAD PUSH2 0x1B5E SWAP2 SWAP1 PUSH2 0x49A8 JUMP JUMPDEST PUSH1 0x40 MLOAD DUP1 SWAP2 SUB SWAP1 LOG1 JUMPDEST POP POP POP POP POP POP POP POP POP POP POP JUMP JUMPDEST PUSH0 PUSH2 0x1B7D PUSH2 0x2C19 JUMP JUMPDEST SWAP1 POP SWAP1 JUMP JUMPDEST PUSH1 0x40 MLOAD DUP1 PUSH1 0x40 ADD PUSH1 0x40 MSTORE DUP1 PUSH1 0x5 DUP2 MSTORE PUSH1 0x20 ADD PUSH32 0x352E302E30000000000000000000000000000000000000000000000000000000 DUP2 MSTORE POP DUP2 JUMP JUMPDEST PUSH1 0x7 DUP2 DUP1 MLOAD PUSH1 0x20 DUP2 ADD DUP3 ADD DUP1 MLOAD DUP5 DUP3 MSTORE PUSH1 0x20 DUP4 ADD PUSH1 0x20 DUP6 ADD KECCAK256 DUP2 DUP4 MSTORE DUP1 SWAP6 POP POP POP POP POP POP PUSH0 SWAP2 POP SLOAD SWAP1 PUSH2 0x100 EXP SWAP1 DIV PUSH1 0xFF AND DUP2 JUMP JUMPDEST PUSH1 0x3 SLOAD DUP2 JUMP JUMPDEST PUSH1 0x15 PUSH1 0x20 MSTORE DUP1 PUSH0 MSTORE PUSH1 0x40 PUSH0 KECCAK256 PUSH0 SWAP2 POP SLOAD SWAP1 PUSH2 0x100 EXP SWAP1 DIV PUSH1 0xFF AND DUP2 JUMP JUMPDEST PUSH0 PUSH2 0x1C1E PUSH1 0xD PUSH2 0x2C6C JUMP JUMPDEST SWAP1 POP SWAP1 JUMP JUMPDEST PUSH2 0x1C2C DUP3 PUSH2 0xBFA JUMP JUMPDEST PUSH2 0x1C35 DUP2 PUSH2 0x1FB7 JUMP JUMPDEST PUSH2 0x1C3F DUP4 DUP4 PUSH2 0x269C JUMP JUMPDEST POP POP POP POP JUMP JUMPDEST PUSH1 0x11 SLOAD DUP2 JUMP JUMPDEST PUSH2 0x1C53 PUSH2 0x20C3 JUMP JUMPDEST PUSH2 0x1C5C DUP2 PUSH2 0x2C78 JUMP JUMPDEST POP JUMP JUMPDEST PUSH1 0x8 DUP1 SLOAD PUSH2 0x1C6C SWAP1 PUSH2 0x4494 JUMP JUMPDEST DUP1 PUSH1 0x1F ADD PUSH1 0x20 DUP1 SWAP2 DIV MUL PUSH1 0x20 ADD PUSH1 0x40 MLOAD SWAP1 DUP2 ADD PUSH1 0x40 MSTORE DUP1 SWAP3 SWAP2 SWAP1 DUP2 DUP2 MSTORE PUSH1 0x20 ADD DUP3 DUP1 SLOAD PUSH2 0x1C98 SWAP1 PUSH2 0x4494 JUMP JUMPDEST DUP1 ISZERO PUSH2 0x1CE3 JUMPI DUP1 PUSH1 0x1F LT PUSH2 0x1CBA JUMPI PUSH2 0x100 DUP1 DUP4 SLOAD DIV MUL DUP4 MSTORE SWAP2 PUSH1 0x20 ADD SWAP2 PUSH2 0x1CE3 JUMP JUMPDEST DUP3 ADD SWAP2 SWAP1 PUSH0 MSTORE PUSH1 0x20 PUSH0 KECCAK256 SWAP1 JUMPDEST DUP2 SLOAD DUP2 MSTORE SWAP1 PUSH1 0x1 ADD SWAP1 PUSH1 0x20 ADD DUP1 DUP4 GT PUSH2 0x1CC6 JUMPI DUP3 SWAP1 SUB PUSH1 0x1F AND DUP3 ADD SWAP2 JUMPDEST POP POP POP POP POP DUP2 JUMP JUMPDEST PUSH0 PUSH32 0x1FFC9A700000000000000000000000000000000000000000000000000000000 PUSH28 0xFFFFFFFFFFFFFFFFFFFFFFFFFFFFFFFFFFFFFFFFFFFFFFFFFFFFFFFF NOT AND DUP3 PUSH28 0xFFFFFFFFFFFFFFFFFFFFFFFFFFFFFFFFFFFFFFFFFFFFFFFFFFFFFFFF NOT AND EQ SWAP1 POP SWAP2 SWAP1 POP JUMP JUMPDEST PUSH1 0x3 SLOAD DUP4 EQ PUSH2 0x1D9A JUMPI DUP3 PUSH1 0x40 MLOAD PUSH32 0xD068BF5B00000000000000000000000000000000000000000000000000000000 DUP2 MSTORE PUSH1 0x4 ADD PUSH2 0x1D91 SWAP2 SWAP1 PUSH2 0x3E09 JUMP JUMPDEST PUSH1 0x40 MLOAD DUP1 SWAP2 SUB SWAP1 REVERT JUMPDEST DUP2 PUSH1 0x4 SWAP1 DUP2 PUSH2 0x1DA9 SWAP2 SWAP1 PUSH2 0x4A19 JUMP JUMPDEST POP DUP1 PUSH1 0x5 SWAP1 DUP2 PUSH2 0x1DB9 SWAP2 SWAP1 PUSH2 0x4A19 JUMP JUMPDEST POP PUSH0 PUSH1 0x8 DUP1 SLOAD PUSH2 0x1DC8 SWAP1 PUSH2 0x4494 JUMP JUMPDEST SWAP1 POP GT ISZERO PUSH2 0x1F1A JUMPI PUSH0 DUP2 MLOAD EQ DUP1 ISZERO PUSH2 0x1DE2 JUMPI POP PUSH1 0x20 DUP3 MLOAD LT ISZERO JUMPDEST ISZERO PUSH2 0x1EB7 JUMPI PUSH0 DUP3 DUP1 PUSH1 0x20 ADD SWAP1 MLOAD DUP2 ADD SWAP1 PUSH2 0x1DFC SWAP2 SWAP1 PUSH2 0x4AFC JUMP JUMPDEST SWAP1 POP PUSH0 PUSH0 DUP3 GT SWAP1 POP DUP1 PUSH1 0x7 PUSH1 0x8 PUSH1 0x40 MLOAD PUSH2 0x1E16 SWAP2 SWAP1 PUSH2 0x4BA7 JUMP JUMPDEST SWAP1 DUP2 MSTORE PUSH1 0x20 ADD PUSH1 0x40 MLOAD DUP1 SWAP2 SUB SWAP1 KECCAK256 PUSH0 PUSH2 0x100 EXP DUP2 SLOAD DUP2 PUSH1 0xFF MUL NOT AND SWAP1 DUP4 ISZERO ISZERO MUL OR SWAP1 SSTORE POP DUP1 PUSH1 0x9 PUSH0 PUSH2 0x100 EXP DUP2 SLOAD DUP2 PUSH1 0xFF MUL NOT AND SWAP1 DUP4 ISZERO ISZERO MUL OR SWAP1 SSTORE POP DUP5 PUSH32 0x99F873583FDE66FFFEE5947D1FA2F03D1CF170FC1C8E52E588CF428476733867 PUSH1 0x8 DUP4 DUP8 DUP8 PUSH1 0x40 MLOAD PUSH2 0x1E8A SWAP5 SWAP4 SWAP3 SWAP2 SWAP1 PUSH2 0x4C3E JUMP JUMPDEST PUSH1 0x40 MLOAD DUP1 SWAP2 SUB SWAP1 LOG2 PUSH1 0x40 MLOAD DUP1 PUSH1 0x20 ADD PUSH1 0x40 MSTORE DUP1 PUSH0 DUP2 MSTORE POP PUSH1 0x8 SWAP1 DUP2 PUSH2 0x1EAF SWAP2 SWAP1 PUSH2 0x4C96 JUMP JUMPDEST POP POP POP PUSH2 0x1F15 JUMP JUMPDEST DUP3 PUSH32 0x99F873583FDE66FFFEE5947D1FA2F03D1CF170FC1C8E52E588CF428476733867 PUSH1 0x8 PUSH0 DUP6 DUP6 PUSH1 0x40 MLOAD PUSH2 0x1EEE SWAP5 SWAP4 SWAP3 SWAP2 SWAP1 PUSH2 0x4C3E JUMP JUMPDEST PUSH1 0x40 MLOAD DUP1 SWAP2 SUB SWAP1 LOG2 PUSH1 0x40 MLOAD DUP1 PUSH1 0x20 ADD PUSH1 0x40 MSTORE DUP1 PUSH0 DUP2 MSTORE POP PUSH1 0x8 SWAP1 DUP2 PUSH2 0x1F13 SWAP2 SWAP1 PUSH2 0x4C96 JUMP JUMPDEST POP JUMPDEST PUSH2 0x1F8B JUMP JUMPDEST PUSH0 DUP2 MLOAD EQ DUP1 ISZERO PUSH2 0x1F2C JUMPI POP PUSH1 0x20 DUP3 MLOAD LT ISZERO JUMPDEST ISZERO PUSH2 0x1F4C JUMPI DUP2 DUP1 PUSH1 0x20 ADD SWAP1 MLOAD DUP2 ADD SWAP1 PUSH2 0x1F45 SWAP2 SWAP1 PUSH2 0x4AFC JUMP JUMPDEST PUSH1 0x6 DUP2 SWAP1 SSTORE POP JUMPDEST DUP3 PUSH32 0xFC03B1503ACD478FAF9C08107596F6D5C04B4591FEA84F8D6F21BDF613B5370E PUSH1 0x6 SLOAD DUP5 DUP5 PUSH1 0x40 MLOAD PUSH2 0x1F82 SWAP4 SWAP3 SWAP2 SWAP1 PUSH2 0x4D65 JUMP JUMPDEST PUSH1 0x40 MLOAD DUP1 SWAP2 SUB SWAP1 LOG2 JUMPDEST POP POP POP JUMP JUMPDEST PUSH0 PUSH32 0x2DD7BC7DEC4DCEEDDA775E58DD541E08A116C6C53815C0BD028192F7B626800 SWAP1 POP SWAP1 JUMP JUMPDEST PUSH2 0x1FC8 DUP2 PUSH2 0x1FC3 PUSH2 0x2695 JUMP JUMPDEST PUSH2 0x2DA3 JUMP JUMPDEST POP JUMP JUMPDEST PUSH0 PUSH0 PUSH2 0x1FD5 PUSH2 0x1F90 JUMP JUMPDEST SWAP1 POP PUSH2 0x1FE1 DUP5 DUP5 PUSH2 0x17ED JUMP JUMPDEST PUSH2 0x20B8 JUMPI PUSH1 0x1 DUP2 PUSH0 ADD PUSH0 DUP7 DUP2 MSTORE PUSH1 0x20 ADD SWAP1 DUP2 MSTORE PUSH1 0x20 ADD PUSH0 KECCAK256 PUSH0 ADD PUSH0 DUP6 PUSH20 0xFFFFFFFFFFFFFFFFFFFFFFFFFFFFFFFFFFFFFFFF AND PUSH20 0xFFFFFFFFFFFFFFFFFFFFFFFFFFFFFFFFFFFFFFFF AND DUP2 MSTORE PUSH1 0x20 ADD SWAP1 DUP2 MSTORE PUSH1 0x20 ADD PUSH0 KECCAK256 PUSH0 PUSH2 0x100 EXP DUP2 SLOAD DUP2 PUSH1 0xFF MUL NOT AND SWAP1 DUP4 ISZERO ISZERO MUL OR SWAP1 SSTORE POP PUSH2 0x2054 PUSH2 0x2695 JUMP JUMPDEST PUSH20 0xFFFFFFFFFFFFFFFFFFFFFFFFFFFFFFFFFFFFFFFF AND DUP4 PUSH20 0xFFFFFFFFFFFFFFFFFFFFFFFFFFFFFFFFFFFFFFFF AND DUP6 PUSH32 0x2F8788117E7EFF1D82E926EC794901D17C78024A50270940304540A733656F0D PUSH1 0x40 MLOAD PUSH1 0x40 MLOAD DUP1 SWAP2 SUB SWAP1 LOG4 PUSH1 0x1 SWAP2 POP POP PUSH2 0x20BD JUMP JUMPDEST PUSH0 SWAP2 POP POP JUMPDEST SWAP3 SWAP2 POP POP JUMP JUMPDEST PUSH0 PUSH0 SWAP1 SLOAD SWAP1 PUSH2 0x100 EXP SWAP1 DIV PUSH20 0xFFFFFFFFFFFFFFFFFFFFFFFFFFFFFFFFFFFFFFFF AND PUSH20 0xFFFFFFFFFFFFFFFFFFFFFFFFFFFFFFFFFFFFFFFF AND CALLER PUSH20 0xFFFFFFFFFFFFFFFFFFFFFFFFFFFFFFFFFFFFFFFF AND EQ PUSH2 0x2151 JUMPI PUSH1 0x40 MLOAD PUSH32 0x8C379A000000000000000000000000000000000000000000000000000000000 DUP2 MSTORE PUSH1 0x4 ADD PUSH2 0x2148 SWAP1 PUSH2 0x4DF2 JUMP JUMPDEST PUSH1 0x40 MLOAD DUP1 SWAP2 SUB SWAP1 REVERT JUMPDEST JUMP JUMPDEST PUSH2 0x215F DUP3 PUSH0 PUSH0 DUP5 PUSH2 0x2DF4 JUMP JUMPDEST POP POP JUMP JUMPDEST PUSH0 DUP2 MLOAD SUB PUSH2 0x219D JUMPI PUSH1 0x40 MLOAD PUSH32 0xFE936CB700000000000000000000000000000000000000000000000000000000 DUP2 MSTORE PUSH1 0x4 ADD PUSH1 0x40 MLOAD DUP1 SWAP2 SUB SWAP1 REVERT JUMPDEST DUP1 DUP3 PUSH1 0xA0 ADD DUP2 SWAP1 MSTORE POP POP POP JUMP JUMPDEST PUSH1 0x60 PUSH0 PUSH2 0x21B8 PUSH2 0x100 PUSH2 0x2E9A JUMP JUMPDEST SWAP1 POP PUSH2 0x2202 PUSH1 0x40 MLOAD DUP1 PUSH1 0x40 ADD PUSH1 0x40 MSTORE DUP1 PUSH1 0xC DUP2 MSTORE PUSH1 0x20 ADD PUSH32 0x636F64654C6F636174696F6E0000000000000000000000000000000000000000 DUP2 MSTORE POP DUP3 PUSH2 0x2EBF SWAP1 SWAP2 SWAP1 PUSH4 0xFFFFFFFF AND JUMP JUMPDEST PUSH2 0x222A DUP4 PUSH0 ADD MLOAD PUSH1 0x2 DUP2 GT ISZERO PUSH2 0x221B JUMPI PUSH2 0x221A PUSH2 0x420D JUMP JUMPDEST JUMPDEST DUP3 PUSH2 0x2EE7 SWAP1 SWAP2 SWAP1 PUSH4 0xFFFFFFFF AND JUMP JUMPDEST PUSH2 0x2272 PUSH1 0x40 MLOAD DUP1 PUSH1 0x40 ADD PUSH1 0x40 MSTORE DUP1 PUSH1 0x8 DUP2 MSTORE PUSH1 0x20 ADD PUSH32 0x6C616E6775616765000000000000000000000000000000000000000000000000 DUP2 MSTORE POP DUP3 PUSH2 0x2EBF SWAP1 SWAP2 SWAP1 PUSH4 0xFFFFFFFF AND JUMP JUMPDEST PUSH2 0x229A DUP4 PUSH1 0x40 ADD MLOAD PUSH0 DUP2 GT ISZERO PUSH2 0x228B JUMPI PUSH2 0x228A PUSH2 0x420D JUMP JUMPDEST JUMPDEST DUP3 PUSH2 0x2EE7 SWAP1 SWAP2 SWAP1 PUSH4 0xFFFFFFFF AND JUMP JUMPDEST PUSH2 0x22E2 PUSH1 0x40 MLOAD DUP1 PUSH1 0x40 ADD PUSH1 0x40 MSTORE DUP1 PUSH1 0x6 DUP2 MSTORE PUSH1 0x20 ADD PUSH32 0x736F757263650000000000000000000000000000000000000000000000000000 DUP2 MSTORE POP DUP3 PUSH2 0x2EBF SWAP1 SWAP2 SWAP1 PUSH4 0xFFFFFFFF AND JUMP JUMPDEST PUSH2 0x22F9 DUP4 PUSH1 0x60 ADD MLOAD DUP3 PUSH2 0x2EBF SWAP1 SWAP2 SWAP1 PUSH4 0xFFFFFFFF AND JUMP JUMPDEST PUSH0 DUP4 PUSH1 0xA0 ADD MLOAD MLOAD GT ISZERO PUSH2 0x23B0 JUMPI PUSH2 0x234E PUSH1 0x40 MLOAD DUP1 PUSH1 0x40 ADD PUSH1 0x40 MSTORE DUP1 PUSH1 0x4 DUP2 MSTORE PUSH1 0x20 ADD PUSH32 0x6172677300000000000000000000000000000000000000000000000000000000 DUP2 MSTORE POP DUP3 PUSH2 0x2EBF SWAP1 SWAP2 SWAP1 PUSH4 0xFFFFFFFF AND JUMP JUMPDEST PUSH2 0x2357 DUP2 PUSH2 0x2F36 JUMP JUMPDEST PUSH0 PUSH0 SWAP1 POP JUMPDEST DUP4 PUSH1 0xA0 ADD MLOAD MLOAD DUP2 LT ISZERO PUSH2 0x23A5 JUMPI PUSH2 0x239A DUP5 PUSH1 0xA0 ADD MLOAD DUP3 DUP2 MLOAD DUP2 LT PUSH2 0x2383 JUMPI PUSH2 0x2382 PUSH2 0x4512 JUMP JUMPDEST JUMPDEST PUSH1 0x20 MUL PUSH1 0x20 ADD ADD MLOAD DUP4 PUSH2 0x2EBF SWAP1 SWAP2 SWAP1 PUSH4 0xFFFFFFFF AND JUMP JUMPDEST DUP1 PUSH1 0x1 ADD SWAP1 POP PUSH2 0x235C JUMP JUMPDEST POP PUSH2 0x23AF DUP2 PUSH2 0x2F5E JUMP JUMPDEST JUMPDEST PUSH0 DUP4 PUSH1 0x80 ADD MLOAD MLOAD GT ISZERO PUSH2 0x24EF JUMPI PUSH0 PUSH1 0x2 DUP2 GT ISZERO PUSH2 0x23D0 JUMPI PUSH2 0x23CF PUSH2 0x420D JUMP JUMPDEST JUMPDEST DUP4 PUSH1 0x20 ADD MLOAD PUSH1 0x2 DUP2 GT ISZERO PUSH2 0x23E7 JUMPI PUSH2 0x23E6 PUSH2 0x420D JUMP JUMPDEST JUMPDEST SUB PUSH2 0x241E JUMPI PUSH1 0x40 MLOAD PUSH32 0xA80D31F700000000000000000000000000000000000000000000000000000000 DUP2 MSTORE PUSH1 0x4 ADD PUSH1 0x40 MLOAD DUP1 SWAP2 SUB SWAP1 REVERT JUMPDEST PUSH2 0x2466 PUSH1 0x40 MLOAD DUP1 PUSH1 0x40 ADD PUSH1 0x40 MSTORE DUP1 PUSH1 0xF DUP2 MSTORE PUSH1 0x20 ADD PUSH32 0x736563726574734C6F636174696F6E0000000000000000000000000000000000 DUP2 MSTORE POP DUP3 PUSH2 0x2EBF SWAP1 SWAP2 SWAP1 PUSH4 0xFFFFFFFF AND JUMP JUMPDEST PUSH2 0x248F DUP4 PUSH1 0x20 ADD MLOAD PUSH1 0x2 DUP2 GT ISZERO PUSH2 0x2480 JUMPI PUSH2 0x247F PUSH2 0x420D JUMP JUMPDEST JUMPDEST DUP3 PUSH2 0x2EE7 SWAP1 SWAP2 SWAP1 PUSH4 0xFFFFFFFF AND JUMP JUMPDEST PUSH2 0x24D7 PUSH1 0x40 MLOAD DUP1 PUSH1 0x40 ADD PUSH1 0x40 MSTORE DUP1 PUSH1 0x7 DUP2 MSTORE PUSH1 0x20 ADD PUSH32 0x7365637265747300000000000000000000000000000000000000000000000000 DUP2 MSTORE POP DUP3 PUSH2 0x2EBF SWAP1 SWAP2 SWAP1 PUSH4 0xFFFFFFFF AND JUMP JUMPDEST PUSH2 0x24EE DUP4 PUSH1 0x80 ADD MLOAD DUP3 PUSH2 0x2F86 SWAP1 SWAP2 SWAP1 PUSH4 0xFFFFFFFF AND JUMP JUMPDEST JUMPDEST PUSH0 DUP4 PUSH1 0xC0 ADD MLOAD MLOAD GT ISZERO PUSH2 0x25A6 JUMPI PUSH2 0x2544 PUSH1 0x40 MLOAD DUP1 PUSH1 0x40 ADD PUSH1 0x40 MSTORE DUP1 PUSH1 0x9 DUP2 MSTORE PUSH1 0x20 ADD PUSH32 0x6279746573417267730000000000000000000000000000000000000000000000 DUP2 MSTORE POP DUP3 PUSH2 0x2EBF SWAP1 SWAP2 SWAP1 PUSH4 0xFFFFFFFF AND JUMP JUMPDEST PUSH2 0x254D DUP2 PUSH2 0x2F36 JUMP JUMPDEST PUSH0 PUSH0 SWAP1 POP JUMPDEST DUP4 PUSH1 0xC0 ADD MLOAD MLOAD DUP2 LT ISZERO PUSH2 0x259B JUMPI PUSH2 0x2590 DUP5 PUSH1 0xC0 ADD MLOAD DUP3 DUP2 MLOAD DUP2 LT PUSH2 0x2579 JUMPI PUSH2 0x2578 PUSH2 0x4512 JUMP JUMPDEST JUMPDEST PUSH1 0x20 MUL PUSH1 0x20 ADD ADD MLOAD DUP4 PUSH2 0x2F86 SWAP1 SWAP2 SWAP1 PUSH4 0xFFFFFFFF AND JUMP JUMPDEST DUP1 PUSH1 0x1 ADD SWAP1 POP PUSH2 0x2552 JUMP JUMPDEST POP PUSH2 0x25A5 DUP2 PUSH2 0x2F5E JUMP JUMPDEST JUMPDEST DUP1 PUSH0 ADD MLOAD PUSH0 ADD MLOAD SWAP2 POP POP SWAP2 SWAP1 POP JUMP JUMPDEST PUSH0 PUSH0 PUSH1 0x2 PUSH0 SWAP1 SLOAD SWAP1 PUSH2 0x100 EXP SWAP1 DIV PUSH20 0xFFFFFFFFFFFFFFFFFFFFFFFFFFFFFFFFFFFFFFFF AND PUSH20 0xFFFFFFFFFFFFFFFFFFFFFFFFFFFFFFFFFFFFFFFF AND PUSH4 0x461D2762 DUP7 DUP9 PUSH1 0x1 DUP9 DUP9 PUSH1 0x40 MLOAD DUP7 PUSH4 0xFFFFFFFF AND PUSH1 0xE0 SHL DUP2 MSTORE PUSH1 0x4 ADD PUSH2 0x261A SWAP6 SWAP5 SWAP4 SWAP3 SWAP2 SWAP1 PUSH2 0x4E4A JUMP JUMPDEST PUSH1 0x20 PUSH1 0x40 MLOAD DUP1 DUP4 SUB DUP2 PUSH0 DUP8 GAS CALL ISZERO DUP1 ISZERO PUSH2 0x2636 JUMPI RETURNDATASIZE PUSH0 PUSH0 RETURNDATACOPY RETURNDATASIZE PUSH0 REVERT JUMPDEST POP POP POP POP PUSH1 0x40 MLOAD RETURNDATASIZE PUSH1 0x1F NOT PUSH1 0x1F DUP3 ADD AND DUP3 ADD DUP1 PUSH1 0x40 MSTORE POP DUP2 ADD SWAP1 PUSH2 0x265A SWAP2 SWAP1 PUSH2 0x4EB6 JUMP JUMPDEST SWAP1 POP DUP1 PUSH32 0x1131472297A800FEE664D1D89CFA8F7676FF07189ECC53F80BBB5F4969099DB8 PUSH1 0x40 MLOAD PUSH1 0x40 MLOAD DUP1 SWAP2 SUB SWAP1 LOG2 DUP1 SWAP2 POP POP SWAP5 SWAP4 POP POP POP POP JUMP JUMPDEST PUSH0 CALLER SWAP1 POP SWAP1 JUMP JUMPDEST PUSH0 PUSH0 PUSH2 0x26A6 PUSH2 0x1F90 JUMP JUMPDEST SWAP1 POP PUSH2 0x26B2 DUP5 DUP5 PUSH2 0x17ED JUMP JUMPDEST ISZERO PUSH2 0x2789 JUMPI PUSH0 DUP2 PUSH0 ADD PUSH0 DUP7 DUP2 MSTORE PUSH1 0x20 ADD SWAP1 DUP2 MSTORE PUSH1 0x20 ADD PUSH0 KECCAK256 PUSH0 ADD PUSH0 DUP6 PUSH20 0xFFFFFFFFFFFFFFFFFFFFFFFFFFFFFFFFFFFFFFFF AND PUSH20 0xFFFFFFFFFFFFFFFFFFFFFFFFFFFFFFFFFFFFFFFF AND DUP2 MSTORE PUSH1 0x20 ADD SWAP1 DUP2 MSTORE PUSH1 0x20 ADD PUSH0 KECCAK256 PUSH0 PUSH2 0x100 EXP DUP2 SLOAD DUP2 PUSH1 0xFF MUL NOT AND SWAP1 DUP4 ISZERO ISZERO MUL OR SWAP1 SSTORE POP PUSH2 0x2725 PUSH2 0x2695 JUMP JUMPDEST PUSH20 0xFFFFFFFFFFFFFFFFFFFFFFFFFFFFFFFFFFFFFFFF AND DUP4 PUSH20 0xFFFFFFFFFFFFFFFFFFFFFFFFFFFFFFFFFFFFFFFF AND DUP6 PUSH32 0xF6391F5C32D9C69D2A47EA670B442974B53935D1EDC7FD64EB21E047A839171B PUSH1 0x40 MLOAD PUSH1 0x40 MLOAD DUP1 SWAP2 SUB SWAP1 LOG4 PUSH1 0x1 SWAP2 POP POP PUSH2 0x278E JUMP JUMPDEST PUSH0 SWAP2 POP POP JUMPDEST SWAP3 SWAP2 POP POP JUMP JUMPDEST PUSH32 0x0 PUSH20 0xFFFFFFFFFFFFFFFFFFFFFFFFFFFFFFFFFFFFFFFF AND ADDRESS PUSH20 0xFFFFFFFFFFFFFFFFFFFFFFFFFFFFFFFFFFFFFFFF AND EQ DUP1 PUSH2 0x2841 JUMPI POP PUSH32 0x0 PUSH20 0xFFFFFFFFFFFFFFFFFFFFFFFFFFFFFFFFFFFFFFFF AND PUSH2 0x2828 PUSH2 0x2C19 JUMP JUMPDEST PUSH20 0xFFFFFFFFFFFFFFFFFFFFFFFFFFFFFFFFFFFFFFFF AND EQ ISZERO JUMPDEST ISZERO PUSH2 0x2878 JUMPI PUSH1 0x40 MLOAD PUSH32 0xE07C8DBA00000000000000000000000000000000000000000000000000000000 DUP2 MSTORE PUSH1 0x4 ADD PUSH1 0x40 MLOAD DUP1 SWAP2 SUB SWAP1 REVERT JUMPDEST JUMP JUMPDEST PUSH32 0xA615A8AFB6FFFCB8C6809AC0997B5C9C12B8CC97651150F14C8F6203168CFF4C PUSH0 SHL PUSH2 0x28A6 DUP2 PUSH2 0x1FB7 JUMP JUMPDEST POP POP JUMP JUMPDEST DUP2 PUSH20 0xFFFFFFFFFFFFFFFFFFFFFFFFFFFFFFFFFFFFFFFF AND PUSH4 0x52D1902D PUSH1 0x40 MLOAD DUP2 PUSH4 0xFFFFFFFF AND PUSH1 0xE0 SHL DUP2 MSTORE PUSH1 0x4 ADD PUSH1 0x20 PUSH1 0x40 MLOAD DUP1 DUP4 SUB DUP2 DUP7 GAS STATICCALL SWAP3 POP POP POP DUP1 ISZERO PUSH2 0x2912 JUMPI POP PUSH1 0x40 MLOAD RETURNDATASIZE PUSH1 0x1F NOT PUSH1 0x1F DUP3 ADD AND DUP3 ADD DUP1 PUSH1 0x40 MSTORE POP DUP2 ADD SWAP1 PUSH2 0x290F SWAP2 SWAP1 PUSH2 0x4EB6 JUMP JUMPDEST PUSH1 0x1 JUMPDEST PUSH2 0x2953 JUMPI DUP2 PUSH1 0x40 MLOAD PUSH32 0x4C9C8CE300000000000000000000000000000000000000000000000000000000 DUP2 MSTORE PUSH1 0x4 ADD PUSH2 0x294A SWAP2 SWAP1 PUSH2 0x3FEF JUMP JUMPDEST PUSH1 0x40 MLOAD DUP1 SWAP2 SUB SWAP1 REVERT JUMPDEST PUSH32 0x360894A13BA1A3210667C828492DB98DCA3E2076CC3735A920A3CA505D382BBC PUSH0 SHL DUP2 EQ PUSH2 0x29B9 JUMPI DUP1 PUSH1 0x40 MLOAD PUSH32 0xAA1D49A400000000000000000000000000000000000000000000000000000000 DUP2 MSTORE PUSH1 0x4 ADD PUSH2 0x29B0 SWAP2 SWAP1 PUSH2 0x3E09 JUMP JUMPDEST PUSH1 0x40 MLOAD DUP1 SWAP2 SUB SWAP1 REVERT JUMPDEST PUSH2 0x29C3 DUP4 DUP4 PUSH2 0x2FAE JUMP JUMPDEST POP POP POP JUMP JUMPDEST PUSH32 0x0 PUSH20 0xFFFFFFFFFFFFFFFFFFFFFFFFFFFFFFFFFFFFFFFF AND ADDRESS PUSH20 0xFFFFFFFFFFFFFFFFFFFFFFFFFFFFFFFFFFFFFFFF AND EQ PUSH2 0x2A4D JUMPI PUSH1 0x40 MLOAD PUSH32 0xE07C8DBA00000000000000000000000000000000000000000000000000000000 DUP2 MSTORE PUSH1 0x4 ADD PUSH1 0x40 MLOAD DUP1 SWAP2 SUB SWAP1 REVERT JUMPDEST JUMP JUMPDEST PUSH0 PUSH32 0xCD5ED15C6E187E77E9AEE88184C21F4F2182AB5827CB3B7E07FBEDCD63F03300 SWAP1 POP SWAP1 JUMP JUMPDEST PUSH0 PUSH0 PUSH2 0x2A80 PUSH2 0x3020 JUMP JUMPDEST SWAP1 POP DUP1 SWAP2 POP POP SWAP1 JUMP JUMPDEST PUSH2 0x2A91 PUSH2 0x3049 JUMP JUMPDEST PUSH2 0x2A99 PUSH2 0x3089 JUMP JUMPDEST PUSH2 0x2AA1 PUSH2 0x3093 JUMP JUMPDEST PUSH2 0x2AAD PUSH0 PUSH0 SHL CALLER PUSH2 0x1FCB JUMP JUMPDEST POP PUSH2 0x2ADA PUSH32 0xA615A8AFB6FFFCB8C6809AC0997B5C9C12B8CC97651150F14C8F6203168CFF4C PUSH0 SHL CALLER PUSH2 0x1FCB JUMP JUMPDEST POP PUSH2 0x2B07 PUSH32 0xAF290D8680820AAD922855F39B306097B20E28774D6C1AD35A20325630C3A02C PUSH0 SHL CALLER PUSH2 0x1FCB JUMP JUMPDEST POP JUMP JUMPDEST PUSH2 0x2B12 PUSH2 0x3049 JUMP JUMPDEST PUSH2 0x2B1A PUSH2 0x309D JUMP JUMPDEST JUMP JUMPDEST PUSH2 0x2B24 PUSH2 0x3049 JUMP JUMPDEST JUMP JUMPDEST DUP1 PUSH1 0x2 PUSH0 PUSH2 0x100 EXP DUP2 SLOAD DUP2 PUSH20 0xFFFFFFFFFFFFFFFFFFFFFFFFFFFFFFFFFFFFFFFF MUL NOT AND SWAP1 DUP4 PUSH20 0xFFFFFFFFFFFFFFFFFFFFFFFFFFFFFFFFFFFFFFFF AND MUL OR SWAP1 SSTORE POP POP JUMP JUMPDEST PUSH0 PUSH20 0xFFFFFFFFFFFFFFFFFFFFFFFFFFFFFFFFFFFFFFFF AND DUP2 PUSH20 0xFFFFFFFFFFFFFFFFFFFFFFFFFFFFFFFFFFFFFFFF AND SUB PUSH2 0x2BD7 JUMPI PUSH1 0x40 MLOAD PUSH32 0x8C379A000000000000000000000000000000000000000000000000000000000 DUP2 MSTORE PUSH1 0x4 ADD PUSH2 0x2BCE SWAP1 PUSH2 0x4F2B JUMP JUMPDEST PUSH1 0x40 MLOAD DUP1 SWAP2 SUB SWAP1 REVERT JUMPDEST DUP1 PUSH0 PUSH0 PUSH2 0x100 EXP DUP2 SLOAD DUP2 PUSH20 0xFFFFFFFFFFFFFFFFFFFFFFFFFFFFFFFFFFFFFFFF MUL NOT AND SWAP1 DUP4 PUSH20 0xFFFFFFFFFFFFFFFFFFFFFFFFFFFFFFFFFFFFFFFF AND MUL OR SWAP1 SSTORE POP POP JUMP JUMPDEST PUSH0 PUSH2 0x2C45 PUSH32 0x360894A13BA1A3210667C828492DB98DCA3E2076CC3735A920A3CA505D382BBC PUSH0 SHL PUSH2 0x30BC JUMP JUMPDEST PUSH0 ADD PUSH0 SWAP1 SLOAD SWAP1 PUSH2 0x100 EXP SWAP1 DIV PUSH20 0xFFFFFFFFFFFFFFFFFFFFFFFFFFFFFFFFFFFFFFFF AND SWAP1 POP SWAP1 JUMP JUMPDEST PUSH0 DUP2 PUSH0 ADD SLOAD SWAP1 POP SWAP2 SWAP1 POP JUMP JUMPDEST CALLER PUSH20 0xFFFFFFFFFFFFFFFFFFFFFFFFFFFFFFFFFFFFFFFF AND DUP2 PUSH20 0xFFFFFFFFFFFFFFFFFFFFFFFFFFFFFFFFFFFFFFFF AND SUB PUSH2 0x2CE6 JUMPI PUSH1 0x40 MLOAD PUSH32 0x8C379A000000000000000000000000000000000000000000000000000000000 DUP2 MSTORE PUSH1 0x4 ADD PUSH2 0x2CDD SWAP1 PUSH2 0x4F93 JUMP JUMPDEST PUSH1 0x40 MLOAD DUP1 SWAP2 SUB SWAP1 REVERT JUMPDEST DUP1 PUSH1 0x1 PUSH0 PUSH2 0x100 EXP DUP2 SLOAD DUP2 PUSH20 0xFFFFFFFFFFFFFFFFFFFFFFFFFFFFFFFFFFFFFFFF MUL NOT AND SWAP1 DUP4 PUSH20 0xFFFFFFFFFFFFFFFFFFFFFFFFFFFFFFFFFFFFFFFF AND MUL OR SWAP1 SSTORE POP DUP1 PUSH20 0xFFFFFFFFFFFFFFFFFFFFFFFFFFFFFFFFFFFFFFFF AND PUSH0 PUSH0 SWAP1 SLOAD SWAP1 PUSH2 0x100 EXP SWAP1 DIV PUSH20 0xFFFFFFFFFFFFFFFFFFFFFFFFFFFFFFFFFFFFFFFF AND PUSH20 0xFFFFFFFFFFFFFFFFFFFFFFFFFFFFFFFFFFFFFFFF AND PUSH32 0xED8889F560326EB138920D842192F0EB3DD22B4F139C87A2C57538E05BAE1278 PUSH1 0x40 MLOAD PUSH1 0x40 MLOAD DUP1 SWAP2 SUB SWAP1 LOG3 POP JUMP JUMPDEST PUSH2 0x2DAD DUP3 DUP3 PUSH2 0x17ED JUMP JUMPDEST PUSH2 0x2DF0 JUMPI DUP1 DUP3 PUSH1 0x40 MLOAD PUSH32 0xE2517D3F00000000000000000000000000000000000000000000000000000000 DUP2 MSTORE PUSH1 0x4 ADD PUSH2 0x2DE7 SWAP3 SWAP2 SWAP1 PUSH2 0x4FB1 JUMP JUMPDEST PUSH1 0x40 MLOAD DUP1 SWAP2 SUB SWAP1 REVERT JUMPDEST POP POP JUMP JUMPDEST PUSH0 DUP2 MLOAD SUB PUSH2 0x2E2E JUMPI PUSH1 0x40 MLOAD PUSH32 0x22CE3EDD00000000000000000000000000000000000000000000000000000000 DUP2 MSTORE PUSH1 0x4 ADD PUSH1 0x40 MLOAD DUP1 SWAP2 SUB SWAP1 REVERT JUMPDEST DUP3 DUP5 PUSH0 ADD SWAP1 PUSH1 0x2 DUP2 GT ISZERO PUSH2 0x2E45 JUMPI PUSH2 0x2E44 PUSH2 0x420D JUMP JUMPDEST JUMPDEST SWAP1 DUP2 PUSH1 0x2 DUP2 GT ISZERO PUSH2 0x2E59 JUMPI PUSH2 0x2E58 PUSH2 0x420D JUMP JUMPDEST JUMPDEST DUP2 MSTORE POP POP DUP2 DUP5 PUSH1 0x40 ADD SWAP1 PUSH0 DUP2 GT ISZERO PUSH2 0x2E74 JUMPI PUSH2 0x2E73 PUSH2 0x420D JUMP JUMPDEST JUMPDEST SWAP1 DUP2 PUSH0 DUP2 GT ISZERO PUSH2 0x2E87 JUMPI PUSH2 0x2E86 PUSH2 0x420D JUMP JUMPDEST JUMPDEST DUP2 MSTORE POP POP DUP1 DUP5 PUSH1 0x60 ADD DUP2 SWAP1 MSTORE POP POP POP POP POP JUMP JUMPDEST PUSH2 0x2EA2 PUSH2 0x388F JUMP JUMPDEST PUSH2 0x2EAF DUP2 PUSH0 ADD MLOAD DUP4 PUSH2 0x30C5 JUMP JUMPDEST POP PUSH0 DUP2 PUSH1 0x20 ADD DUP2 DUP2 MSTORE POP POP SWAP2 SWAP1 POP JUMP JUMPDEST PUSH2 0x2ECC DUP3 PUSH1 0x3 DUP4 MLOAD PUSH2 0x313B JUMP JUMPDEST PUSH2 0x2EE2 DUP2 DUP4 PUSH0 ADD MLOAD PUSH2 0x32DB SWAP1 SWAP2 SWAP1 PUSH4 0xFFFFFFFF AND JUMP JUMPDEST POP POP POP JUMP JUMPDEST PUSH2 0x2F08 PUSH1 0x2 PUSH1 0x5 PUSH1 0x6 PUSH1 0xFF AND SWAP1 SHL OR DUP4 PUSH0 ADD MLOAD PUSH2 0x32F7 SWAP1 SWAP2 SWAP1 PUSH4 0xFFFFFFFF AND JUMP JUMPDEST POP PUSH2 0x2F32 DUP3 DUP3 PUSH1 0x40 MLOAD PUSH1 0x20 ADD PUSH2 0x2F1E SWAP2 SWAP1 PUSH2 0x40FA JUMP JUMPDEST PUSH1 0x40 MLOAD PUSH1 0x20 DUP2 DUP4 SUB SUB DUP2 MSTORE SWAP1 PUSH1 0x40 MSTORE PUSH2 0x2F86 JUMP JUMPDEST POP POP JUMP JUMPDEST PUSH2 0x2F41 DUP2 PUSH1 0x4 PUSH2 0x335E JUMP JUMPDEST PUSH1 0x1 DUP2 PUSH1 0x20 ADD DUP2 DUP2 MLOAD PUSH2 0x2F54 SWAP2 SWAP1 PUSH2 0x5005 JUMP JUMPDEST SWAP2 POP DUP2 DUP2 MSTORE POP POP POP JUMP JUMPDEST PUSH2 0x2F69 DUP2 PUSH1 0x7 PUSH2 0x335E JUMP JUMPDEST PUSH1 0x1 DUP2 PUSH1 0x20 ADD DUP2 DUP2 MLOAD PUSH2 0x2F7C SWAP2 SWAP1 PUSH2 0x5038 JUMP JUMPDEST SWAP2 POP DUP2 DUP2 MSTORE POP POP POP JUMP JUMPDEST PUSH2 0x2F93 DUP3 PUSH1 0x2 DUP4 MLOAD PUSH2 0x313B JUMP JUMPDEST PUSH2 0x2FA9 DUP2 DUP4 PUSH0 ADD MLOAD PUSH2 0x32DB SWAP1 SWAP2 SWAP1 PUSH4 0xFFFFFFFF AND JUMP JUMPDEST POP POP POP JUMP JUMPDEST PUSH2 0x2FB7 DUP3 PUSH2 0x3383 JUMP JUMPDEST DUP2 PUSH20 0xFFFFFFFFFFFFFFFFFFFFFFFFFFFFFFFFFFFFFFFF AND PUSH32 0xBC7CD75A20EE27FD9ADEBAB32041F755214DBC6BFFA90CC0225B39DA2E5C2D3B PUSH1 0x40 MLOAD PUSH1 0x40 MLOAD DUP1 SWAP2 SUB SWAP1 LOG2 PUSH0 DUP2 MLOAD GT ISZERO PUSH2 0x3013 JUMPI PUSH2 0x300D DUP3 DUP3 PUSH2 0x344C JUMP JUMPDEST POP PUSH2 0x301C JUMP JUMPDEST PUSH2 0x301B PUSH2 0x34CC JUMP JUMPDEST JUMPDEST POP POP JUMP JUMPDEST PUSH0 PUSH32 0xF0C57E16840DF040F15088DC2F81FE391C3923BEC73E23A9662EFC9C229C6A00 PUSH0 SHL SWAP1 POP SWAP1 JUMP JUMPDEST PUSH2 0x3051 PUSH2 0x3508 JUMP JUMPDEST PUSH2 0x3087 JUMPI PUSH1 0x40 MLOAD PUSH32 0xD7E6BCF800000000000000000000000000000000000000000000000000000000 DUP2 MSTORE PUSH1 0x4 ADD PUSH1 0x40 MLOAD DUP1 SWAP2 SUB SWAP1 REVERT JUMPDEST JUMP JUMPDEST PUSH2 0x3091 PUSH2 0x3049 JUMP JUMPDEST JUMP JUMPDEST PUSH2 0x309B PUSH2 0x3049 JUMP JUMPDEST JUMP JUMPDEST PUSH2 0x30A5 PUSH2 0x3049 JUMP JUMPDEST PUSH0 PUSH2 0x30AE PUSH2 0x3526 JUMP JUMPDEST SWAP1 POP PUSH1 0x1 DUP2 PUSH0 ADD DUP2 SWAP1 SSTORE POP POP JUMP JUMPDEST PUSH0 DUP2 SWAP1 POP SWAP2 SWAP1 POP JUMP JUMPDEST PUSH2 0x30CD PUSH2 0x38AE JUMP JUMPDEST PUSH0 PUSH1 0x20 DUP4 PUSH2 0x30DB SWAP2 SWAP1 PUSH2 0x5098 JUMP JUMPDEST EQ PUSH2 0x3107 JUMPI PUSH1 0x20 DUP3 PUSH2 0x30ED SWAP2 SWAP1 PUSH2 0x5098 JUMP JUMPDEST PUSH1 0x20 PUSH2 0x30F9 SWAP2 SWAP1 PUSH2 0x5038 JUMP JUMPDEST DUP3 PUSH2 0x3104 SWAP2 SWAP1 PUSH2 0x5005 JUMP JUMPDEST SWAP2 POP JUMPDEST DUP2 DUP4 PUSH1 0x20 ADD DUP2 DUP2 MSTORE POP POP PUSH1 0x40 MLOAD DUP1 DUP5 MSTORE PUSH0 DUP2 MSTORE DUP3 DUP2 ADD PUSH1 0x20 ADD DUP2 DUP2 LT ISZERO PUSH2 0x312C JUMPI PUSH0 PUSH0 REVERT JUMPDEST DUP1 PUSH1 0x40 MSTORE POP POP DUP3 SWAP1 POP SWAP3 SWAP2 POP POP JUMP JUMPDEST PUSH1 0x17 DUP2 PUSH8 0xFFFFFFFFFFFFFFFF AND GT PUSH2 0x3175 JUMPI PUSH2 0x316F DUP2 PUSH1 0x5 DUP5 PUSH1 0xFF AND SWAP1 SHL PUSH1 0xFF AND OR DUP5 PUSH0 ADD MLOAD PUSH2 0x32F7 SWAP1 SWAP2 SWAP1 PUSH4 0xFFFFFFFF AND JUMP JUMPDEST POP PUSH2 0x32D6 JUMP JUMPDEST PUSH1 0xFF DUP2 PUSH8 0xFFFFFFFFFFFFFFFF AND GT PUSH2 0x31D1 JUMPI PUSH2 0x31A7 PUSH1 0x18 PUSH1 0x5 DUP5 PUSH1 0xFF AND SWAP1 SHL OR DUP5 PUSH0 ADD MLOAD PUSH2 0x32F7 SWAP1 SWAP2 SWAP1 PUSH4 0xFFFFFFFF AND JUMP JUMPDEST POP PUSH2 0x31CB DUP2 PUSH8 0xFFFFFFFFFFFFFFFF AND PUSH1 0x1 DUP6 PUSH0 ADD MLOAD PUSH2 0x354D SWAP1 SWAP3 SWAP2 SWAP1 PUSH4 0xFFFFFFFF AND JUMP JUMPDEST POP PUSH2 0x32D5 JUMP JUMPDEST PUSH2 0xFFFF DUP2 PUSH8 0xFFFFFFFFFFFFFFFF AND GT PUSH2 0x322E JUMPI PUSH2 0x3204 PUSH1 0x19 PUSH1 0x5 DUP5 PUSH1 0xFF AND SWAP1 SHL OR DUP5 PUSH0 ADD MLOAD PUSH2 0x32F7 SWAP1 SWAP2 SWAP1 PUSH4 0xFFFFFFFF AND JUMP JUMPDEST POP PUSH2 0x3228 DUP2 PUSH8 0xFFFFFFFFFFFFFFFF AND PUSH1 0x2 DUP6 PUSH0 ADD MLOAD PUSH2 0x354D SWAP1 SWAP3 SWAP2 SWAP1 PUSH4 0xFFFFFFFF AND JUMP JUMPDEST POP PUSH2 0x32D4 JUMP JUMPDEST PUSH4 0xFFFFFFFF DUP2 PUSH8 0xFFFFFFFFFFFFFFFF AND GT PUSH2 0x328D JUMPI PUSH2 0x3263 PUSH1 0x1A PUSH1 0x5 DUP5 PUSH1 0xFF AND SWAP1 SHL OR DUP5 PUSH0 ADD MLOAD PUSH2 0x32F7 SWAP1 SWAP2 SWAP1 PUSH4 0xFFFFFFFF AND JUMP JUMPDEST POP PUSH2 0x3287 DUP2 PUSH8 0xFFFFFFFFFFFFFFFF AND PUSH1 0x4 DUP6 PUSH0 ADD MLOAD PUSH2 0x354D SWAP1 SWAP3 SWAP2 SWAP1 PUSH4 0xFFFFFFFF AND JUMP JUMPDEST POP PUSH2 0x32D3 JUMP JUMPDEST PUSH2 0x32AD PUSH1 0x1B PUSH1 0x5 DUP5 PUSH1 0xFF AND SWAP1 SHL OR DUP5 PUSH0 ADD MLOAD PUSH2 0x32F7 SWAP1 SWAP2 SWAP1 PUSH4 0xFFFFFFFF AND JUMP JUMPDEST POP PUSH2 0x32D1 DUP2 PUSH8 0xFFFFFFFFFFFFFFFF AND PUSH1 0x8 DUP6 PUSH0 ADD MLOAD PUSH2 0x354D SWAP1 SWAP3 SWAP2 SWAP1 PUSH4 0xFFFFFFFF AND JUMP JUMPDEST POP JUMPDEST JUMPDEST JUMPDEST JUMPDEST POP POP POP JUMP JUMPDEST PUSH2 0x32E3 PUSH2 0x38AE JUMP JUMPDEST PUSH2 0x32EF DUP4 DUP4 DUP5 MLOAD PUSH2 0x35D6 JUMP JUMPDEST SWAP1 POP SWAP3 SWAP2 POP POP JUMP JUMPDEST PUSH2 0x32FF PUSH2 0x38AE JUMP JUMPDEST PUSH0 DUP4 PUSH0 ADD MLOAD MLOAD SWAP1 POP PUSH0 PUSH1 0x1 DUP3 PUSH2 0x3315 SWAP2 SWAP1 PUSH2 0x5005 JUMP JUMPDEST SWAP1 POP DUP5 PUSH1 0x20 ADD MLOAD DUP3 LT PUSH2 0x3339 JUMPI PUSH2 0x3338 DUP6 PUSH1 0x2 DUP4 PUSH2 0x3333 SWAP2 SWAP1 PUSH2 0x50C8 JUMP JUMPDEST PUSH2 0x36B3 JUMP JUMPDEST JUMPDEST DUP5 MLOAD PUSH1 0x20 DUP4 DUP3 ADD ADD DUP6 DUP2 MSTORE8 DUP2 MLOAD DUP4 GT ISZERO PUSH2 0x3351 JUMPI DUP3 DUP3 MSTORE JUMPDEST POP POP DUP5 SWAP3 POP POP POP SWAP3 SWAP2 POP POP JUMP JUMPDEST PUSH2 0x337E PUSH1 0x1F PUSH1 0x5 DUP4 PUSH1 0xFF AND SWAP1 SHL OR DUP4 PUSH0 ADD MLOAD PUSH2 0x32F7 SWAP1 SWAP2 SWAP1 PUSH4 0xFFFFFFFF AND JUMP JUMPDEST POP POP POP JUMP JUMPDEST PUSH0 DUP2 PUSH20 0xFFFFFFFFFFFFFFFFFFFFFFFFFFFFFFFFFFFFFFFF AND EXTCODESIZE SUB PUSH2 0x33DE JUMPI DUP1 PUSH1 0x40 MLOAD PUSH32 0x4C9C8CE300000000000000000000000000000000000000000000000000000000 DUP2 MSTORE PUSH1 0x4 ADD PUSH2 0x33D5 SWAP2 SWAP1 PUSH2 0x3FEF JUMP JUMPDEST PUSH1 0x40 MLOAD DUP1 SWAP2 SUB SWAP1 REVERT JUMPDEST DUP1 PUSH2 0x340A PUSH32 0x360894A13BA1A3210667C828492DB98DCA3E2076CC3735A920A3CA505D382BBC PUSH0 SHL PUSH2 0x30BC JUMP JUMPDEST PUSH0 ADD PUSH0 PUSH2 0x100 EXP DUP2 SLOAD DUP2 PUSH20 0xFFFFFFFFFFFFFFFFFFFFFFFFFFFFFFFFFFFFFFFF MUL NOT AND SWAP1 DUP4 PUSH20 0xFFFFFFFFFFFFFFFFFFFFFFFFFFFFFFFFFFFFFFFF AND MUL OR SWAP1 SSTORE POP POP JUMP JUMPDEST PUSH1 0x60 PUSH0 PUSH0 DUP5 PUSH20 0xFFFFFFFFFFFFFFFFFFFFFFFFFFFFFFFFFFFFFFFF AND DUP5 PUSH1 0x40 MLOAD PUSH2 0x3475 SWAP2 SWAP1 PUSH2 0x5143 JUMP JUMPDEST PUSH0 PUSH1 0x40 MLOAD DUP1 DUP4 SUB DUP2 DUP6 GAS DELEGATECALL SWAP2 POP POP RETURNDATASIZE DUP1 PUSH0 DUP2 EQ PUSH2 0x34AD JUMPI PUSH1 0x40 MLOAD SWAP2 POP PUSH1 0x1F NOT PUSH1 0x3F RETURNDATASIZE ADD AND DUP3 ADD PUSH1 0x40 MSTORE RETURNDATASIZE DUP3 MSTORE RETURNDATASIZE PUSH0 PUSH1 0x20 DUP5 ADD RETURNDATACOPY PUSH2 0x34B2 JUMP JUMPDEST PUSH1 0x60 SWAP2 POP JUMPDEST POP SWAP2 POP SWAP2 POP PUSH2 0x34C2 DUP6 DUP4 DUP4 PUSH2 0x36D5 JUMP JUMPDEST SWAP3 POP POP POP SWAP3 SWAP2 POP POP JUMP JUMPDEST PUSH0 CALLVALUE GT ISZERO PUSH2 0x3506 JUMPI PUSH1 0x40 MLOAD PUSH32 0xB398979F00000000000000000000000000000000000000000000000000000000 DUP2 MSTORE PUSH1 0x4 ADD PUSH1 0x40 MLOAD DUP1 SWAP2 SUB SWAP1 REVERT JUMPDEST JUMP JUMPDEST PUSH0 PUSH2 0x3511 PUSH2 0x2A76 JUMP JUMPDEST PUSH0 ADD PUSH1 0x8 SWAP1 SLOAD SWAP1 PUSH2 0x100 EXP SWAP1 DIV PUSH1 0xFF AND SWAP1 POP SWAP1 JUMP JUMPDEST PUSH0 PUSH32 0x9B779B17422D0DF92223018B32B4D1FA46E071723D6817E2486D003BECC55F00 SWAP1 POP SWAP1 JUMP JUMPDEST PUSH2 0x3555 PUSH2 0x38AE JUMP JUMPDEST PUSH0 DUP5 PUSH0 ADD MLOAD MLOAD SWAP1 POP PUSH0 DUP2 DUP5 PUSH2 0x356A SWAP2 SWAP1 PUSH2 0x5005 JUMP JUMPDEST SWAP1 POP DUP6 PUSH1 0x20 ADD MLOAD DUP2 GT ISZERO PUSH2 0x358F JUMPI PUSH2 0x358E DUP7 PUSH1 0x2 DUP4 PUSH2 0x3589 SWAP2 SWAP1 PUSH2 0x50C8 JUMP JUMPDEST PUSH2 0x36B3 JUMP JUMPDEST JUMPDEST PUSH0 PUSH1 0x1 DUP6 PUSH2 0x100 PUSH2 0x35A0 SWAP2 SWAP1 PUSH2 0x5288 JUMP JUMPDEST PUSH2 0x35AA SWAP2 SWAP1 PUSH2 0x5038 JUMP JUMPDEST SWAP1 POP DUP7 MLOAD DUP3 DUP2 ADD DUP8 DUP4 NOT DUP3 MLOAD AND OR DUP2 MSTORE DUP2 MLOAD DUP5 GT ISZERO PUSH2 0x35C7 JUMPI DUP4 DUP3 MSTORE JUMPDEST POP POP DUP7 SWAP4 POP POP POP POP SWAP4 SWAP3 POP POP POP JUMP JUMPDEST PUSH2 0x35DE PUSH2 0x38AE JUMP JUMPDEST DUP3 MLOAD DUP3 GT ISZERO PUSH2 0x35EB JUMPI PUSH0 PUSH0 REVERT JUMPDEST PUSH0 DUP5 PUSH0 ADD MLOAD MLOAD SWAP1 POP PUSH0 DUP4 DUP3 PUSH2 0x3600 SWAP2 SWAP1 PUSH2 0x5005 JUMP JUMPDEST SWAP1 POP DUP6 PUSH1 0x20 ADD MLOAD DUP2 GT ISZERO PUSH2 0x3625 JUMPI PUSH2 0x3624 DUP7 PUSH1 0x2 DUP4 PUSH2 0x361F SWAP2 SWAP1 PUSH2 0x50C8 JUMP JUMPDEST PUSH2 0x36B3 JUMP JUMPDEST JUMPDEST PUSH0 PUSH0 DUP8 MLOAD DUP1 MLOAD DUP6 PUSH1 0x20 DUP4 ADD ADD SWAP4 POP DUP1 DUP6 GT ISZERO PUSH2 0x363F JUMPI DUP5 DUP3 MSTORE JUMPDEST PUSH1 0x20 DUP10 ADD SWAP3 POP POP POP JUMPDEST PUSH1 0x20 DUP7 LT PUSH2 0x3686 JUMPI DUP1 MLOAD DUP3 MSTORE PUSH1 0x20 DUP3 PUSH2 0x3661 SWAP2 SWAP1 PUSH2 0x5005 JUMP JUMPDEST SWAP2 POP PUSH1 0x20 DUP2 PUSH2 0x3670 SWAP2 SWAP1 PUSH2 0x5005 JUMP JUMPDEST SWAP1 POP PUSH1 0x20 DUP7 PUSH2 0x367F SWAP2 SWAP1 PUSH2 0x5038 JUMP JUMPDEST SWAP6 POP PUSH2 0x3648 JUMP JUMPDEST PUSH0 PUSH1 0x1 DUP8 PUSH1 0x20 SUB PUSH2 0x100 EXP SUB SWAP1 POP DUP1 NOT DUP3 MLOAD AND DUP2 DUP5 MLOAD AND DUP2 DUP2 OR DUP6 MSTORE POP POP POP DUP8 SWAP5 POP POP POP POP POP SWAP4 SWAP3 POP POP POP JUMP JUMPDEST PUSH0 DUP3 PUSH0 ADD MLOAD SWAP1 POP PUSH2 0x36C4 DUP4 DUP4 PUSH2 0x30C5 JUMP JUMPDEST POP PUSH2 0x36CF DUP4 DUP3 PUSH2 0x32DB JUMP JUMPDEST POP POP POP POP JUMP JUMPDEST PUSH1 0x60 DUP3 PUSH2 0x36EA JUMPI PUSH2 0x36E5 DUP3 PUSH2 0x3762 JUMP JUMPDEST PUSH2 0x375A JUMP JUMPDEST PUSH0 DUP3 MLOAD EQ DUP1 ISZERO PUSH2 0x3710 JUMPI POP PUSH0 DUP5 PUSH20 0xFFFFFFFFFFFFFFFFFFFFFFFFFFFFFFFFFFFFFFFF AND EXTCODESIZE EQ JUMPDEST ISZERO PUSH2 0x3752 JUMPI DUP4 PUSH1 0x40 MLOAD PUSH32 0x9996B31500000000000000000000000000000000000000000000000000000000 DUP2 MSTORE PUSH1 0x4 ADD PUSH2 0x3749 SWAP2 SWAP1 PUSH2 0x3FEF JUMP JUMPDEST PUSH1 0x40 MLOAD DUP1 SWAP2 SUB SWAP1 REVERT JUMPDEST DUP2 SWAP1 POP PUSH2 0x375B JUMP JUMPDEST JUMPDEST SWAP4 SWAP3 POP POP POP JUMP JUMPDEST PUSH0 DUP2 MLOAD GT ISZERO PUSH2 0x3774 JUMPI DUP1 MLOAD DUP1 DUP3 PUSH1 0x20 ADD REVERT JUMPDEST PUSH1 0x40 MLOAD PUSH32 0xD6BDA27500000000000000000000000000000000000000000000000000000000 DUP2 MSTORE PUSH1 0x4 ADD PUSH1 0x40 MLOAD DUP1 SWAP2 SUB SWAP1 REVERT JUMPDEST PUSH1 0x40 MLOAD DUP1 PUSH2 0x140 ADD PUSH1 0x40 MSTORE DUP1 PUSH0 DUP2 MSTORE PUSH1 0x20 ADD PUSH0 PUSH20 0xFFFFFFFFFFFFFFFFFFFFFFFFFFFFFFFFFFFFFFFF AND DUP2 MSTORE PUSH1 0x20 ADD PUSH0 DUP2 MSTORE PUSH1 0x20 ADD PUSH0 PUSH20 0xFFFFFFFFFFFFFFFFFFFFFFFFFFFFFFFFFFFFFFFF AND DUP2 MSTORE PUSH1 0x20 ADD PUSH0 DUP2 MSTORE PUSH1 0x20 ADD PUSH0 DUP2 MSTORE PUSH1 0x20 ADD PUSH0 DUP2 MSTORE PUSH1 0x20 ADD PUSH0 ISZERO ISZERO DUP2 MSTORE PUSH1 0x20 ADD PUSH1 0x60 DUP2 MSTORE PUSH1 0x20 ADD PUSH0 ISZERO ISZERO DUP2 MSTORE POP SWAP1 JUMP JUMPDEST PUSH1 0x40 MLOAD DUP1 PUSH1 0xE0 ADD PUSH1 0x40 MSTORE DUP1 PUSH0 PUSH1 0x2 DUP2 GT ISZERO PUSH2 0x383E JUMPI PUSH2 0x383D PUSH2 0x420D JUMP JUMPDEST JUMPDEST DUP2 MSTORE PUSH1 0x20 ADD PUSH0 PUSH1 0x2 DUP2 GT ISZERO PUSH2 0x3856 JUMPI PUSH2 0x3855 PUSH2 0x420D JUMP JUMPDEST JUMPDEST DUP2 MSTORE PUSH1 0x20 ADD PUSH0 PUSH0 DUP2 GT ISZERO PUSH2 0x386D JUMPI PUSH2 0x386C PUSH2 0x420D JUMP JUMPDEST JUMPDEST DUP2 MSTORE PUSH1 0x20 ADD PUSH1 0x60 DUP2 MSTORE PUSH1 0x20 ADD PUSH1 0x60 DUP2 MSTORE PUSH1 0x20 ADD PUSH1 0x60 DUP2 MSTORE PUSH1 0x20 ADD PUSH1 0x60 DUP2 MSTORE POP SWAP1 JUMP JUMPDEST PUSH1 0x40 MLOAD DUP1 PUSH1 0x40 ADD PUSH1 0x40 MSTORE DUP1 PUSH2 0x38A2 PUSH2 0x38AE JUMP JUMPDEST DUP2 MSTORE PUSH1 0x20 ADD PUSH0 DUP2 MSTORE POP SWAP1 JUMP JUMPDEST PUSH1 0x40 MLOAD DUP1 PUSH1 0x40 ADD PUSH1 0x40 MSTORE DUP1 PUSH1 0x60 DUP2 MSTORE PUSH1 0x20 ADD PUSH0 DUP2 MSTORE POP SWAP1 JUMP JUMPDEST PUSH0 DUP2 ISZERO ISZERO SWAP1 POP SWAP2 SWAP1 POP JUMP JUMPDEST PUSH2 0x38DB DUP2 PUSH2 0x38C7 JUMP JUMPDEST DUP3 MSTORE POP POP JUMP JUMPDEST PUSH0 PUSH1 0x20 DUP3 ADD SWAP1 POP PUSH2 0x38F4 PUSH0 DUP4 ADD DUP5 PUSH2 0x38D2 JUMP JUMPDEST SWAP3 SWAP2 POP POP JUMP JUMPDEST PUSH0 PUSH1 0x40 MLOAD SWAP1 POP SWAP1 JUMP JUMPDEST PUSH0 PUSH0 REVERT JUMPDEST PUSH0 PUSH0 REVERT JUMPDEST PUSH0 PUSH32 0xFFFFFFFF00000000000000000000000000000000000000000000000000000000 DUP3 AND SWAP1 POP SWAP2 SWAP1 POP JUMP JUMPDEST PUSH2 0x393F DUP2 PUSH2 0x390B JUMP JUMPDEST DUP2 EQ PUSH2 0x3949 JUMPI PUSH0 PUSH0 REVERT JUMPDEST POP JUMP JUMPDEST PUSH0 DUP2 CALLDATALOAD SWAP1 POP PUSH2 0x395A DUP2 PUSH2 0x3936 JUMP JUMPDEST SWAP3 SWAP2 POP POP JUMP JUMPDEST PUSH0 PUSH1 0x20 DUP3 DUP5 SUB SLT ISZERO PUSH2 0x3975 JUMPI PUSH2 0x3974 PUSH2 0x3903 JUMP JUMPDEST JUMPDEST PUSH0 PUSH2 0x3982 DUP5 DUP3 DUP6 ADD PUSH2 0x394C JUMP JUMPDEST SWAP2 POP POP SWAP3 SWAP2 POP POP JUMP JUMPDEST PUSH0 PUSH8 0xFFFFFFFFFFFFFFFF DUP3 AND SWAP1 POP SWAP2 SWAP1 POP JUMP JUMPDEST PUSH2 0x39A7 DUP2 PUSH2 0x398B JUMP JUMPDEST DUP3 MSTORE POP POP JUMP JUMPDEST PUSH0 PUSH1 0x20 DUP3 ADD SWAP1 POP PUSH2 0x39C0 PUSH0 DUP4 ADD DUP5 PUSH2 0x399E JUMP JUMPDEST SWAP3 SWAP2 POP POP JUMP JUMPDEST PUSH0 DUP2 SWAP1 POP SWAP2 SWAP1 POP JUMP JUMPDEST PUSH2 0x39D8 DUP2 PUSH2 0x39C6 JUMP JUMPDEST DUP2 EQ PUSH2 0x39E2 JUMPI PUSH0 PUSH0 REVERT JUMPDEST POP JUMP JUMPDEST PUSH0 DUP2 CALLDATALOAD SWAP1 POP PUSH2 0x39F3 DUP2 PUSH2 0x39CF JUMP JUMPDEST SWAP3 SWAP2 POP POP JUMP JUMPDEST PUSH0 PUSH0 REVERT JUMPDEST PUSH0 PUSH0 REVERT JUMPDEST PUSH0 PUSH1 0x1F NOT PUSH1 0x1F DUP4 ADD AND SWAP1 POP SWAP2 SWAP1 POP JUMP JUMPDEST PUSH32 0x4E487B7100000000000000000000000000000000000000000000000000000000 PUSH0 MSTORE PUSH1 0x41 PUSH1 0x4 MSTORE PUSH1 0x24 PUSH0 REVERT JUMPDEST PUSH2 0x3A47 DUP3 PUSH2 0x3A01 JUMP JUMPDEST DUP2 ADD DUP2 DUP2 LT PUSH8 0xFFFFFFFFFFFFFFFF DUP3 GT OR ISZERO PUSH2 0x3A66 JUMPI PUSH2 0x3A65 PUSH2 0x3A11 JUMP JUMPDEST JUMPDEST DUP1 PUSH1 0x40 MSTORE POP POP POP JUMP JUMPDEST PUSH0 PUSH2 0x3A78 PUSH2 0x38FA JUMP JUMPDEST SWAP1 POP PUSH2 0x3A84 DUP3 DUP3 PUSH2 0x3A3E JUMP JUMPDEST SWAP2 SWAP1 POP JUMP JUMPDEST PUSH0 PUSH8 0xFFFFFFFFFFFFFFFF DUP3 GT ISZERO PUSH2 0x3AA3 JUMPI PUSH2 0x3AA2 PUSH2 0x3A11 JUMP JUMPDEST JUMPDEST PUSH2 0x3AAC DUP3 PUSH2 0x3A01 JUMP JUMPDEST SWAP1 POP PUSH1 0x20 DUP2 ADD SWAP1 POP SWAP2 SWAP1 POP JUMP JUMPDEST DUP3 DUP2 DUP4 CALLDATACOPY PUSH0 DUP4 DUP4 ADD MSTORE POP POP POP JUMP JUMPDEST PUSH0 PUSH2 0x3AD9 PUSH2 0x3AD4 DUP5 PUSH2 0x3A89 JUMP JUMPDEST PUSH2 0x3A6F JUMP JUMPDEST SWAP1 POP DUP3 DUP2 MSTORE PUSH1 0x20 DUP2 ADD DUP5 DUP5 DUP5 ADD GT ISZERO PUSH2 0x3AF5 JUMPI PUSH2 0x3AF4 PUSH2 0x39FD JUMP JUMPDEST JUMPDEST PUSH2 0x3B00 DUP5 DUP3 DUP6 PUSH2 0x3AB9 JUMP JUMPDEST POP SWAP4 SWAP3 POP POP POP JUMP JUMPDEST PUSH0 DUP3 PUSH1 0x1F DUP4 ADD SLT PUSH2 0x3B1C JUMPI PUSH2 0x3B1B PUSH2 0x39F9 JUMP JUMPDEST JUMPDEST DUP2 CALLDATALOAD PUSH2 0x3B2C DUP5 DUP3 PUSH1 0x20 DUP7 ADD PUSH2 0x3AC7 JUMP JUMPDEST SWAP2 POP POP SWAP3 SWAP2 POP POP JUMP JUMPDEST PUSH0 PUSH0 PUSH0 PUSH1 0x60 DUP5 DUP7 SUB SLT ISZERO PUSH2 0x3B4C JUMPI PUSH2 0x3B4B PUSH2 0x3903 JUMP JUMPDEST JUMPDEST PUSH0 PUSH2 0x3B59 DUP7 DUP3 DUP8 ADD PUSH2 0x39E5 JUMP JUMPDEST SWAP4 POP POP PUSH1 0x20 DUP5 ADD CALLDATALOAD PUSH8 0xFFFFFFFFFFFFFFFF DUP2 GT ISZERO PUSH2 0x3B7A JUMPI PUSH2 0x3B79 PUSH2 0x3907 JUMP JUMPDEST JUMPDEST PUSH2 0x3B86 DUP7 DUP3 DUP8 ADD PUSH2 0x3B08 JUMP JUMPDEST SWAP3 POP POP PUSH1 0x40 DUP5 ADD CALLDATALOAD PUSH8 0xFFFFFFFFFFFFFFFF DUP2 GT ISZERO PUSH2 0x3BA7 JUMPI PUSH2 0x3BA6 PUSH2 0x3907 JUMP JUMPDEST JUMPDEST PUSH2 0x3BB3 DUP7 DUP3 DUP8 ADD PUSH2 0x3B08 JUMP JUMPDEST SWAP2 POP POP SWAP3 POP SWAP3 POP SWAP3 JUMP JUMPDEST PUSH0 DUP2 SWAP1 POP SWAP2 SWAP1 POP JUMP JUMPDEST PUSH2 0x3BCF DUP2 PUSH2 0x3BBD JUMP JUMPDEST DUP2 EQ PUSH2 0x3BD9 JUMPI PUSH0 PUSH0 REVERT JUMPDEST POP JUMP JUMPDEST PUSH0 DUP2 CALLDATALOAD SWAP1 POP PUSH2 0x3BEA DUP2 PUSH2 0x3BC6 JUMP JUMPDEST SWAP3 SWAP2 POP POP JUMP JUMPDEST PUSH0 PUSH1 0x20 DUP3 DUP5 SUB SLT ISZERO PUSH2 0x3C05 JUMPI PUSH2 0x3C04 PUSH2 0x3903 JUMP JUMPDEST JUMPDEST PUSH0 PUSH2 0x3C12 DUP5 DUP3 DUP6 ADD PUSH2 0x3BDC JUMP JUMPDEST SWAP2 POP POP SWAP3 SWAP2 POP POP JUMP JUMPDEST PUSH2 0x3C24 DUP2 PUSH2 0x3BBD JUMP JUMPDEST DUP3 MSTORE POP POP JUMP JUMPDEST PUSH0 PUSH20 0xFFFFFFFFFFFFFFFFFFFFFFFFFFFFFFFFFFFFFFFF DUP3 AND SWAP1 POP SWAP2 SWAP1 POP JUMP JUMPDEST PUSH0 PUSH2 0x3C53 DUP3 PUSH2 0x3C2A JUMP JUMPDEST SWAP1 POP SWAP2 SWAP1 POP JUMP JUMPDEST PUSH2 0x3C63 DUP2 PUSH2 0x3C49 JUMP JUMPDEST DUP3 MSTORE POP POP JUMP JUMPDEST PUSH2 0x3C72 DUP2 PUSH2 0x38C7 JUMP JUMPDEST DUP3 MSTORE POP POP JUMP JUMPDEST PUSH0 DUP2 MLOAD SWAP1 POP SWAP2 SWAP1 POP JUMP JUMPDEST PUSH0 DUP3 DUP3 MSTORE PUSH1 0x20 DUP3 ADD SWAP1 POP SWAP3 SWAP2 POP POP JUMP JUMPDEST DUP3 DUP2 DUP4 MCOPY PUSH0 DUP4 DUP4 ADD MSTORE POP POP POP JUMP JUMPDEST PUSH0 PUSH2 0x3CAA DUP3 PUSH2 0x3C78 JUMP JUMPDEST PUSH2 0x3CB4 DUP2 DUP6 PUSH2 0x3C82 JUMP JUMPDEST SWAP4 POP PUSH2 0x3CC4 DUP2 DUP6 PUSH1 0x20 DUP7 ADD PUSH2 0x3C92 JUMP JUMPDEST PUSH2 0x3CCD DUP2 PUSH2 0x3A01 JUMP JUMPDEST DUP5 ADD SWAP2 POP POP SWAP3 SWAP2 POP POP JUMP JUMPDEST PUSH0 PUSH2 0x140 DUP4 ADD PUSH0 DUP4 ADD MLOAD PUSH2 0x3CEE PUSH0 DUP7 ADD DUP3 PUSH2 0x3C1B JUMP JUMPDEST POP PUSH1 0x20 DUP4 ADD MLOAD PUSH2 0x3D01 PUSH1 0x20 DUP7 ADD DUP3 PUSH2 0x3C5A JUMP JUMPDEST POP PUSH1 0x40 DUP4 ADD MLOAD PUSH2 0x3D14 PUSH1 0x40 DUP7 ADD DUP3 PUSH2 0x3C1B JUMP JUMPDEST POP PUSH1 0x60 DUP4 ADD MLOAD PUSH2 0x3D27 PUSH1 0x60 DUP7 ADD DUP3 PUSH2 0x3C5A JUMP JUMPDEST POP PUSH1 0x80 DUP4 ADD MLOAD PUSH2 0x3D3A PUSH1 0x80 DUP7 ADD DUP3 PUSH2 0x3C1B JUMP JUMPDEST POP PUSH1 0xA0 DUP4 ADD MLOAD PUSH2 0x3D4D PUSH1 0xA0 DUP7 ADD DUP3 PUSH2 0x3C1B JUMP JUMPDEST POP PUSH1 0xC0 DUP4 ADD MLOAD PUSH2 0x3D60 PUSH1 0xC0 DUP7 ADD DUP3 PUSH2 0x3C1B JUMP JUMPDEST POP PUSH1 0xE0 DUP4 ADD MLOAD PUSH2 0x3D73 PUSH1 0xE0 DUP7 ADD DUP3 PUSH2 0x3C69 JUMP JUMPDEST POP PUSH2 0x100 DUP4 ADD MLOAD DUP5 DUP3 SUB PUSH2 0x100 DUP7 ADD MSTORE PUSH2 0x3D8D DUP3 DUP3 PUSH2 0x3CA0 JUMP JUMPDEST SWAP2 POP POP PUSH2 0x120 DUP4 ADD MLOAD PUSH2 0x3DA4 PUSH2 0x120 DUP7 ADD DUP3 PUSH2 0x3C69 JUMP JUMPDEST POP DUP1 SWAP2 POP POP SWAP3 SWAP2 POP POP JUMP JUMPDEST PUSH0 PUSH1 0x20 DUP3 ADD SWAP1 POP DUP2 DUP2 SUB PUSH0 DUP4 ADD MSTORE PUSH2 0x3DC7 DUP2 DUP5 PUSH2 0x3CD8 JUMP JUMPDEST SWAP1 POP SWAP3 SWAP2 POP POP JUMP JUMPDEST PUSH0 PUSH1 0x20 DUP3 DUP5 SUB SLT ISZERO PUSH2 0x3DE4 JUMPI PUSH2 0x3DE3 PUSH2 0x3903 JUMP JUMPDEST JUMPDEST PUSH0 PUSH2 0x3DF1 DUP5 DUP3 DUP6 ADD PUSH2 0x39E5 JUMP JUMPDEST SWAP2 POP POP SWAP3 SWAP2 POP POP JUMP JUMPDEST PUSH2 0x3E03 DUP2 PUSH2 0x39C6 JUMP JUMPDEST DUP3 MSTORE POP POP JUMP JUMPDEST PUSH0 PUSH1 0x20 DUP3 ADD SWAP1 POP PUSH2 0x3E1C PUSH0 DUP4 ADD DUP5 PUSH2 0x3DFA JUMP JUMPDEST SWAP3 SWAP2 POP POP JUMP JUMPDEST PUSH2 0x3E2B DUP2 PUSH2 0x3C49 JUMP JUMPDEST DUP2 EQ PUSH2 0x3E35 JUMPI PUSH0 PUSH0 REVERT JUMPDEST POP JUMP JUMPDEST PUSH0 DUP2 CALLDATALOAD SWAP1 POP PUSH2 0x3E46 DUP2 PUSH2 0x3E22 JUMP JUMPDEST SWAP3 SWAP2 POP POP JUMP JUMPDEST PUSH0 PUSH0 PUSH1 0x40 DUP4 DUP6 SUB SLT ISZERO PUSH2 0x3E62 JUMPI PUSH2 0x3E61 PUSH2 0x3903 JUMP JUMPDEST JUMPDEST PUSH0 PUSH2 0x3E6F DUP6 DUP3 DUP7 ADD PUSH2 0x39E5 JUMP JUMPDEST SWAP3 POP POP PUSH1 0x20 PUSH2 0x3E80 DUP6 DUP3 DUP7 ADD PUSH2 0x3E38 JUMP JUMPDEST SWAP2 POP POP SWAP3 POP SWAP3 SWAP1 POP JUMP JUMPDEST PUSH2 0x3E93 DUP2 PUSH2 0x398B JUMP JUMPDEST DUP2 EQ PUSH2 0x3E9D JUMPI PUSH0 PUSH0 REVERT JUMPDEST POP JUMP JUMPDEST PUSH0 DUP2 CALLDATALOAD SWAP1 POP PUSH2 0x3EAE DUP2 PUSH2 0x3E8A JUMP JUMPDEST SWAP3 SWAP2 POP POP JUMP JUMPDEST PUSH0 PUSH0 REVERT JUMPDEST PUSH0 PUSH0 REVERT JUMPDEST PUSH0 PUSH0 DUP4 PUSH1 0x1F DUP5 ADD SLT PUSH2 0x3ED1 JUMPI PUSH2 0x3ED0 PUSH2 0x39F9 JUMP JUMPDEST JUMPDEST DUP3 CALLDATALOAD SWAP1 POP PUSH8 0xFFFFFFFFFFFFFFFF DUP2 GT ISZERO PUSH2 0x3EEE JUMPI PUSH2 0x3EED PUSH2 0x3EB4 JUMP JUMPDEST JUMPDEST PUSH1 0x20 DUP4 ADD SWAP2 POP DUP4 PUSH1 0x1 DUP3 MUL DUP4 ADD GT ISZERO PUSH2 0x3F0A JUMPI PUSH2 0x3F09 PUSH2 0x3EB8 JUMP JUMPDEST JUMPDEST SWAP3 POP SWAP3 SWAP1 POP JUMP JUMPDEST PUSH0 PUSH0 PUSH0 PUSH1 0x40 DUP5 DUP7 SUB SLT ISZERO PUSH2 0x3F28 JUMPI PUSH2 0x3F27 PUSH2 0x3903 JUMP JUMPDEST JUMPDEST PUSH0 PUSH2 0x3F35 DUP7 DUP3 DUP8 ADD PUSH2 0x3EA0 JUMP JUMPDEST SWAP4 POP POP PUSH1 0x20 DUP5 ADD CALLDATALOAD PUSH8 0xFFFFFFFFFFFFFFFF DUP2 GT ISZERO PUSH2 0x3F56 JUMPI PUSH2 0x3F55 PUSH2 0x3907 JUMP JUMPDEST JUMPDEST PUSH2 0x3F62 DUP7 DUP3 DUP8 ADD PUSH2 0x3EBC JUMP JUMPDEST SWAP3 POP SWAP3 POP POP SWAP3 POP SWAP3 POP SWAP3 JUMP JUMPDEST PUSH0 DUP2 MLOAD SWAP1 POP SWAP2 SWAP1 POP JUMP JUMPDEST PUSH0 DUP3 DUP3 MSTORE PUSH1 0x20 DUP3 ADD SWAP1 POP SWAP3 SWAP2 POP POP JUMP JUMPDEST PUSH0 PUSH2 0x3F92 DUP3 PUSH2 0x3F6E JUMP JUMPDEST PUSH2 0x3F9C DUP2 DUP6 PUSH2 0x3F78 JUMP JUMPDEST SWAP4 POP PUSH2 0x3FAC DUP2 DUP6 PUSH1 0x20 DUP7 ADD PUSH2 0x3C92 JUMP JUMPDEST PUSH2 0x3FB5 DUP2 PUSH2 0x3A01 JUMP JUMPDEST DUP5 ADD SWAP2 POP POP SWAP3 SWAP2 POP POP JUMP JUMPDEST PUSH0 PUSH1 0x20 DUP3 ADD SWAP1 POP DUP2 DUP2 SUB PUSH0 DUP4 ADD MSTORE PUSH2 0x3FD8 DUP2 DUP5 PUSH2 0x3F88 JUMP JUMPDEST SWAP1 POP SWAP3 SWAP2 POP POP JUMP JUMPDEST PUSH2 0x3FE9 DUP2 PUSH2 0x3C49 JUMP JUMPDEST DUP3 MSTORE POP POP JUMP JUMPDEST PUSH0 PUSH1 0x20 DUP3 ADD SWAP1 POP PUSH2 0x4002 PUSH0 DUP4 ADD DUP5 PUSH2 0x3FE0 JUMP JUMPDEST SWAP3 SWAP2 POP POP JUMP JUMPDEST PUSH0 PUSH0 PUSH1 0x40 DUP4 DUP6 SUB SLT ISZERO PUSH2 0x401E JUMPI PUSH2 0x401D PUSH2 0x3903 JUMP JUMPDEST JUMPDEST PUSH0 PUSH2 0x402B DUP6 DUP3 DUP7 ADD PUSH2 0x3E38 JUMP JUMPDEST SWAP3 POP POP PUSH1 0x20 DUP4 ADD CALLDATALOAD PUSH8 0xFFFFFFFFFFFFFFFF DUP2 GT ISZERO PUSH2 0x404C JUMPI PUSH2 0x404B PUSH2 0x3907 JUMP JUMPDEST JUMPDEST PUSH2 0x4058 DUP6 DUP3 DUP7 ADD PUSH2 0x3B08 JUMP JUMPDEST SWAP2 POP POP SWAP3 POP SWAP3 SWAP1 POP JUMP JUMPDEST PUSH0 PUSH0 PUSH1 0x40 DUP4 DUP6 SUB SLT ISZERO PUSH2 0x4078 JUMPI PUSH2 0x4077 PUSH2 0x3903 JUMP JUMPDEST JUMPDEST PUSH0 PUSH2 0x4085 DUP6 DUP3 DUP7 ADD PUSH2 0x3E38 JUMP JUMPDEST SWAP3 POP POP PUSH1 0x20 PUSH2 0x4096 DUP6 DUP3 DUP7 ADD PUSH2 0x3BDC JUMP JUMPDEST SWAP2 POP POP SWAP3 POP SWAP3 SWAP1 POP JUMP JUMPDEST PUSH0 PUSH0 PUSH1 0x20 DUP4 DUP6 SUB SLT ISZERO PUSH2 0x40B6 JUMPI PUSH2 0x40B5 PUSH2 0x3903 JUMP JUMPDEST JUMPDEST PUSH0 DUP4 ADD CALLDATALOAD PUSH8 0xFFFFFFFFFFFFFFFF DUP2 GT ISZERO PUSH2 0x40D3 JUMPI PUSH2 0x40D2 PUSH2 0x3907 JUMP JUMPDEST JUMPDEST PUSH2 0x40DF DUP6 DUP3 DUP7 ADD PUSH2 0x3EBC JUMP JUMPDEST SWAP3 POP SWAP3 POP POP SWAP3 POP SWAP3 SWAP1 POP JUMP JUMPDEST PUSH2 0x40F4 DUP2 PUSH2 0x3BBD JUMP JUMPDEST DUP3 MSTORE POP POP JUMP JUMPDEST PUSH0 PUSH1 0x20 DUP3 ADD SWAP1 POP PUSH2 0x410D PUSH0 DUP4 ADD DUP5 PUSH2 0x40EB JUMP JUMPDEST SWAP3 SWAP2 POP POP JUMP JUMPDEST PUSH0 PUSH0 DUP4 PUSH1 0x1F DUP5 ADD SLT PUSH2 0x4128 JUMPI PUSH2 0x4127 PUSH2 0x39F9 JUMP JUMPDEST JUMPDEST DUP3 CALLDATALOAD SWAP1 POP PUSH8 0xFFFFFFFFFFFFFFFF DUP2 GT ISZERO PUSH2 0x4145 JUMPI PUSH2 0x4144 PUSH2 0x3EB4 JUMP JUMPDEST JUMPDEST PUSH1 0x20 DUP4 ADD SWAP2 POP DUP4 PUSH1 0x20 DUP3 MUL DUP4 ADD GT ISZERO PUSH2 0x4161 JUMPI PUSH2 0x4160 PUSH2 0x3EB8 JUMP JUMPDEST JUMPDEST SWAP3 POP SWAP3 SWAP1 POP JUMP JUMPDEST PUSH0 PUSH0 PUSH0 PUSH1 0x40 DUP5 DUP7 SUB SLT ISZERO PUSH2 0x417F JUMPI PUSH2 0x417E PUSH2 0x3903 JUMP JUMPDEST JUMPDEST PUSH0 PUSH2 0x418C DUP7 DUP3 DUP8 ADD PUSH2 0x3EA0 JUMP JUMPDEST SWAP4 POP POP PUSH1 0x20 DUP5 ADD CALLDATALOAD PUSH8 0xFFFFFFFFFFFFFFFF DUP2 GT ISZERO PUSH2 0x41AD JUMPI PUSH2 0x41AC PUSH2 0x3907 JUMP JUMPDEST JUMPDEST PUSH2 0x41B9 DUP7 DUP3 DUP8 ADD PUSH2 0x4113 JUMP JUMPDEST SWAP3 POP SWAP3 POP POP SWAP3 POP SWAP3 POP SWAP3 JUMP JUMPDEST PUSH0 DUP3 DUP3 MSTORE PUSH1 0x20 DUP3 ADD SWAP1 POP SWAP3 SWAP2 POP POP JUMP JUMPDEST PUSH0 PUSH2 0x41DF DUP3 PUSH2 0x3C78 JUMP JUMPDEST PUSH2 0x41E9 DUP2 DUP6 PUSH2 0x41C5 JUMP JUMPDEST SWAP4 POP PUSH2 0x41F9 DUP2 DUP6 PUSH1 0x20 DUP7 ADD PUSH2 0x3C92 JUMP JUMPDEST PUSH2 0x4202 DUP2 PUSH2 0x3A01 JUMP JUMPDEST DUP5 ADD SWAP2 POP POP SWAP3 SWAP2 POP POP JUMP JUMPDEST PUSH32 0x4E487B7100000000000000000000000000000000000000000000000000000000 PUSH0 MSTORE PUSH1 0x21 PUSH1 0x4 MSTORE PUSH1 0x24 PUSH0 REVERT JUMPDEST PUSH1 0x5 DUP2 LT PUSH2 0x424B JUMPI PUSH2 0x424A PUSH2 0x420D JUMP JUMPDEST JUMPDEST POP JUMP JUMPDEST PUSH0 DUP2 SWAP1 POP PUSH2 0x425B DUP3 PUSH2 0x423A JUMP JUMPDEST SWAP2 SWAP1 POP JUMP JUMPDEST PUSH0 PUSH2 0x426A DUP3 PUSH2 0x424E JUMP JUMPDEST SWAP1 POP SWAP2 SWAP1 POP JUMP JUMPDEST PUSH2 0x427A DUP2 PUSH2 0x4260 JUMP JUMPDEST DUP3 MSTORE POP POP JUMP JUMPDEST PUSH0 PUSH1 0x40 DUP3 ADD SWAP1 POP DUP2 DUP2 SUB PUSH0 DUP4 ADD MSTORE PUSH2 0x4298 DUP2 DUP6 PUSH2 0x41D5 JUMP JUMPDEST SWAP1 POP PUSH2 0x42A7 PUSH1 0x20 DUP4 ADD DUP5 PUSH2 0x4271 JUMP JUMPDEST SWAP4 SWAP3 POP POP POP JUMP JUMPDEST PUSH0 PUSH0 PUSH0 PUSH0 PUSH0 PUSH0 PUSH1 0xC0 DUP8 DUP10 SUB SLT ISZERO PUSH2 0x42C8 JUMPI PUSH2 0x42C7 PUSH2 0x3903 JUMP JUMPDEST JUMPDEST PUSH0 PUSH2 0x42D5 DUP10 DUP3 DUP11 ADD PUSH2 0x3E38 JUMP JUMPDEST SWAP7 POP POP PUSH1 0x20 PUSH2 0x42E6 DUP10 DUP3 DUP11 ADD PUSH2 0x3BDC JUMP JUMPDEST SWAP6 POP POP PUSH1 0x40 PUSH2 0x42F7 DUP10 DUP3 DUP11 ADD PUSH2 0x3BDC JUMP JUMPDEST SWAP5 POP POP PUSH1 0x60 PUSH2 0x4308 DUP10 DUP3 DUP11 ADD PUSH2 0x3BDC JUMP JUMPDEST SWAP4 POP POP PUSH1 0x80 PUSH2 0x4319 DUP10 DUP3 DUP11 ADD PUSH2 0x3E38 JUMP JUMPDEST SWAP3 POP POP PUSH1 0xA0 PUSH2 0x432A DUP10 DUP3 DUP11 ADD PUSH2 0x3EA0 JUMP JUMPDEST SWAP2 POP POP SWAP3 SWAP6 POP SWAP3 SWAP6 POP SWAP3 SWAP6 JUMP JUMPDEST PUSH0 PUSH1 0x20 DUP3 ADD SWAP1 POP DUP2 DUP2 SUB PUSH0 DUP4 ADD MSTORE PUSH2 0x434F DUP2 DUP5 PUSH2 0x41D5 JUMP JUMPDEST SWAP1 POP SWAP3 SWAP2 POP POP JUMP JUMPDEST PUSH0 PUSH8 0xFFFFFFFFFFFFFFFF DUP3 GT ISZERO PUSH2 0x4371 JUMPI PUSH2 0x4370 PUSH2 0x3A11 JUMP JUMPDEST JUMPDEST PUSH2 0x437A DUP3 PUSH2 0x3A01 JUMP JUMPDEST SWAP1 POP PUSH1 0x20 DUP2 ADD SWAP1 POP SWAP2 SWAP1 POP JUMP JUMPDEST PUSH0 PUSH2 0x4399 PUSH2 0x4394 DUP5 PUSH2 0x4357 JUMP JUMPDEST PUSH2 0x3A6F JUMP JUMPDEST SWAP1 POP DUP3 DUP2 MSTORE PUSH1 0x20 DUP2 ADD DUP5 DUP5 DUP5 ADD GT ISZERO PUSH2 0x43B5 JUMPI PUSH2 0x43B4 PUSH2 0x39FD JUMP JUMPDEST JUMPDEST PUSH2 0x43C0 DUP5 DUP3 DUP6 PUSH2 0x3AB9 JUMP JUMPDEST POP SWAP4 SWAP3 POP POP POP JUMP JUMPDEST PUSH0 DUP3 PUSH1 0x1F DUP4 ADD SLT PUSH2 0x43DC JUMPI PUSH2 0x43DB PUSH2 0x39F9 JUMP JUMPDEST JUMPDEST DUP2 CALLDATALOAD PUSH2 0x43EC DUP5 DUP3 PUSH1 0x20 DUP7 ADD PUSH2 0x4387 JUMP JUMPDEST SWAP2 POP POP SWAP3 SWAP2 POP POP JUMP JUMPDEST PUSH0 PUSH1 0x20 DUP3 DUP5 SUB SLT ISZERO PUSH2 0x440A JUMPI PUSH2 0x4409 PUSH2 0x3903 JUMP JUMPDEST JUMPDEST PUSH0 DUP3 ADD CALLDATALOAD PUSH8 0xFFFFFFFFFFFFFFFF DUP2 GT ISZERO PUSH2 0x4427 JUMPI PUSH2 0x4426 PUSH2 0x3907 JUMP JUMPDEST JUMPDEST PUSH2 0x4433 DUP5 DUP3 DUP6 ADD PUSH2 0x43C8 JUMP JUMPDEST SWAP2 POP POP SWAP3 SWAP2 POP POP JUMP JUMPDEST PUSH0 PUSH1 0x20 DUP3 DUP5 SUB SLT ISZERO PUSH2 0x4451 JUMPI PUSH2 0x4450 PUSH2 0x3903 JUMP JUMPDEST JUMPDEST PUSH0 PUSH2 0x445E DUP5 DUP3 DUP6 ADD PUSH2 0x3E38 JUMP JUMPDEST SWAP2 POP POP SWAP3 SWAP2 POP POP JUMP JUMPDEST PUSH32 0x4E487B7100000000000000000000000000000000000000000000000000000000 PUSH0 MSTORE PUSH1 0x22 PUSH1 0x4 MSTORE PUSH1 0x24 PUSH0 REVERT JUMPDEST PUSH0 PUSH1 0x2 DUP3 DIV SWAP1 POP PUSH1 0x1 DUP3 AND DUP1 PUSH2 0x44AB JUMPI PUSH1 0x7F DUP3 AND SWAP2 POP JUMPDEST PUSH1 0x20 DUP3 LT DUP2 SUB PUSH2 0x44BE JUMPI PUSH2 0x44BD PUSH2 0x4467 JUMP JUMPDEST JUMPDEST POP SWAP2 SWAP1 POP JUMP JUMPDEST PUSH0 PUSH2 0x44CF DUP4 DUP6 PUSH2 0x41C5 JUMP JUMPDEST SWAP4 POP PUSH2 0x44DC DUP4 DUP6 DUP5 PUSH2 0x3AB9 JUMP JUMPDEST PUSH2 0x44E5 DUP4 PUSH2 0x3A01 JUMP JUMPDEST DUP5 ADD SWAP1 POP SWAP4 SWAP3 POP POP POP JUMP JUMPDEST PUSH0 PUSH1 0x20 DUP3 ADD SWAP1 POP DUP2 DUP2 SUB PUSH0 DUP4 ADD MSTORE PUSH2 0x4509 DUP2 DUP5 DUP7 PUSH2 0x44C4 JUMP JUMPDEST SWAP1 POP SWAP4 SWAP3 POP POP POP JUMP JUMPDEST PUSH32 0x4E487B7100000000000000000000000000000000000000000000000000000000 PUSH0 MSTORE PUSH1 0x32 PUSH1 0x4 MSTORE PUSH1 0x24 PUSH0 REVERT JUMPDEST PUSH0 DUP3 SWAP1 POP SWAP3 SWAP2 POP POP JUMP JUMPDEST PUSH0 DUP2 SWAP1 POP DUP2 PUSH0 MSTORE PUSH1 0x20 PUSH0 KECCAK256 SWAP1 POP SWAP2 SWAP1 POP JUMP JUMPDEST PUSH0 PUSH1 0x20 PUSH1 0x1F DUP4 ADD DIV SWAP1 POP SWAP2 SWAP1 POP JUMP JUMPDEST PUSH0 DUP3 DUP3 SHL SWAP1 POP SWAP3 SWAP2 POP POP JUMP JUMPDEST PUSH0 PUSH1 0x8 DUP4 MUL PUSH2 0x45A5 PUSH32 0xFFFFFFFFFFFFFFFFFFFFFFFFFFFFFFFFFFFFFFFFFFFFFFFFFFFFFFFFFFFFFFFF DUP3 PUSH2 0x456A JUMP JUMPDEST PUSH2 0x45AF DUP7 DUP4 PUSH2 0x456A JUMP JUMPDEST SWAP6 POP DUP1 NOT DUP5 AND SWAP4 POP DUP1 DUP7 AND DUP5 OR SWAP3 POP POP POP SWAP4 SWAP3 POP POP POP JUMP JUMPDEST PUSH0 DUP2 SWAP1 POP SWAP2 SWAP1 POP JUMP JUMPDEST PUSH0 PUSH2 0x45EA PUSH2 0x45E5 PUSH2 0x45E0 DUP5 PUSH2 0x3BBD JUMP JUMPDEST PUSH2 0x45C7 JUMP JUMPDEST PUSH2 0x3BBD JUMP JUMPDEST SWAP1 POP SWAP2 SWAP1 POP JUMP JUMPDEST PUSH0 DUP2 SWAP1 POP SWAP2 SWAP1 POP JUMP JUMPDEST PUSH2 0x4603 DUP4 PUSH2 0x45D0 JUMP JUMPDEST PUSH2 0x4617 PUSH2 0x460F DUP3 PUSH2 0x45F1 JUMP JUMPDEST DUP5 DUP5 SLOAD PUSH2 0x4576 JUMP JUMPDEST DUP3 SSTORE POP POP POP POP JUMP JUMPDEST PUSH0 PUSH0 SWAP1 POP SWAP1 JUMP JUMPDEST PUSH2 0x462E PUSH2 0x461F JUMP JUMPDEST PUSH2 0x4639 DUP2 DUP5 DUP5 PUSH2 0x45FA JUMP JUMPDEST POP POP POP JUMP JUMPDEST JUMPDEST DUP2 DUP2 LT ISZERO PUSH2 0x465C JUMPI PUSH2 0x4651 PUSH0 DUP3 PUSH2 0x4626 JUMP JUMPDEST PUSH1 0x1 DUP2 ADD SWAP1 POP PUSH2 0x463F JUMP JUMPDEST POP POP JUMP JUMPDEST PUSH1 0x1F DUP3 GT ISZERO PUSH2 0x46A1 JUMPI PUSH2 0x4672 DUP2 PUSH2 0x4549 JUMP JUMPDEST PUSH2 0x467B DUP5 PUSH2 0x455B JUMP JUMPDEST DUP2 ADD PUSH1 0x20 DUP6 LT ISZERO PUSH2 0x468A JUMPI DUP2 SWAP1 POP JUMPDEST PUSH2 0x469E PUSH2 0x4696 DUP6 PUSH2 0x455B JUMP JUMPDEST DUP4 ADD DUP3 PUSH2 0x463E JUMP JUMPDEST POP POP JUMPDEST POP POP POP JUMP JUMPDEST PUSH0 DUP3 DUP3 SHR SWAP1 POP SWAP3 SWAP2 POP POP JUMP JUMPDEST PUSH0 PUSH2 0x46C1 PUSH0 NOT DUP5 PUSH1 0x8 MUL PUSH2 0x46A6 JUMP JUMPDEST NOT DUP1 DUP4 AND SWAP2 POP POP SWAP3 SWAP2 POP POP JUMP JUMPDEST PUSH0 PUSH2 0x46D9 DUP4 DUP4 PUSH2 0x46B2 JUMP JUMPDEST SWAP2 POP DUP3 PUSH1 0x2 MUL DUP3 OR SWAP1 POP SWAP3 SWAP2 POP POP JUMP JUMPDEST PUSH2 0x46F3 DUP4 DUP4 PUSH2 0x453F JUMP JUMPDEST PUSH8 0xFFFFFFFFFFFFFFFF DUP2 GT ISZERO PUSH2 0x470C JUMPI PUSH2 0x470B PUSH2 0x3A11 JUMP JUMPDEST JUMPDEST PUSH2 0x4716 DUP3 SLOAD PUSH2 0x4494 JUMP JUMPDEST PUSH2 0x4721 DUP3 DUP3 DUP6 PUSH2 0x4660 JUMP JUMPDEST PUSH0 PUSH1 0x1F DUP4 GT PUSH1 0x1 DUP2 EQ PUSH2 0x474E JUMPI PUSH0 DUP5 ISZERO PUSH2 0x473C JUMPI DUP3 DUP8 ADD CALLDATALOAD SWAP1 POP JUMPDEST PUSH2 0x4746 DUP6 DUP3 PUSH2 0x46CE JUMP JUMPDEST DUP7 SSTORE POP PUSH2 0x47AD JUMP JUMPDEST PUSH1 0x1F NOT DUP5 AND PUSH2 0x475C DUP7 PUSH2 0x4549 JUMP JUMPDEST PUSH0 JUMPDEST DUP3 DUP2 LT ISZERO PUSH2 0x4783 JUMPI DUP5 DUP10 ADD CALLDATALOAD DUP3 SSTORE PUSH1 0x1 DUP3 ADD SWAP2 POP PUSH1 0x20 DUP6 ADD SWAP5 POP PUSH1 0x20 DUP2 ADD SWAP1 POP PUSH2 0x475E JUMP JUMPDEST DUP7 DUP4 LT ISZERO PUSH2 0x47A0 JUMPI DUP5 DUP10 ADD CALLDATALOAD PUSH2 0x479C PUSH1 0x1F DUP10 AND DUP3 PUSH2 0x46B2 JUMP JUMPDEST DUP4 SSTORE POP JUMPDEST PUSH1 0x1 PUSH1 0x2 DUP9 MUL ADD DUP9 SSTORE POP POP POP JUMPDEST POP POP POP POP POP POP POP JUMP JUMPDEST PUSH0 DUP2 SWAP1 POP SWAP3 SWAP2 POP POP JUMP JUMPDEST PUSH0 PUSH2 0x47CB DUP4 DUP6 PUSH2 0x47B6 JUMP JUMPDEST SWAP4 POP PUSH2 0x47D8 DUP4 DUP6 DUP5 PUSH2 0x3AB9 JUMP JUMPDEST DUP3 DUP5 ADD SWAP1 POP SWAP4 SWAP3 POP POP POP JUMP JUMPDEST PUSH0 PUSH2 0x47F0 DUP3 DUP5 DUP7 PUSH2 0x47C0 JUMP JUMPDEST SWAP2 POP DUP2 SWAP1 POP SWAP4 SWAP3 POP POP POP JUMP JUMPDEST PUSH0 PUSH8 0xFFFFFFFFFFFFFFFF DUP3 GT ISZERO PUSH2 0x4816 JUMPI PUSH2 0x4815 PUSH2 0x3A11 JUMP JUMPDEST JUMPDEST PUSH1 0x20 DUP3 MUL SWAP1 POP PUSH1 0x20 DUP2 ADD SWAP1 POP SWAP2 SWAP1 POP JUMP JUMPDEST PUSH0 PUSH2 0x4839 PUSH2 0x4834 DUP5 PUSH2 0x47FC JUMP JUMPDEST PUSH2 0x3A6F JUMP JUMPDEST SWAP1 POP DUP1 DUP4 DUP3 MSTORE PUSH1 0x20 DUP3 ADD SWAP1 POP PUSH1 0x20 DUP5 MUL DUP4 ADD DUP6 DUP2 GT ISZERO PUSH2 0x485C JUMPI PUSH2 0x485B PUSH2 0x3EB8 JUMP JUMPDEST JUMPDEST DUP4 JUMPDEST DUP2 DUP2 LT ISZERO PUSH2 0x48A3 JUMPI DUP1 CALLDATALOAD PUSH8 0xFFFFFFFFFFFFFFFF DUP2 GT ISZERO PUSH2 0x4881 JUMPI PUSH2 0x4880 PUSH2 0x39F9 JUMP JUMPDEST JUMPDEST DUP1 DUP7 ADD PUSH2 0x488E DUP10 DUP3 PUSH2 0x43C8 JUMP JUMPDEST DUP6 MSTORE PUSH1 0x20 DUP6 ADD SWAP5 POP POP POP PUSH1 0x20 DUP2 ADD SWAP1 POP PUSH2 0x485E JUMP JUMPDEST POP POP POP SWAP4 SWAP3 POP POP POP JUMP JUMPDEST PUSH0 PUSH2 0x48B9 CALLDATASIZE DUP5 DUP5 PUSH2 0x4827 JUMP JUMPDEST SWAP1 POP SWAP3 SWAP2 POP POP JUMP JUMPDEST PUSH32 0x4D7573742062652070726F706F736564206F776E657200000000000000000000 PUSH0 DUP3 ADD MSTORE POP JUMP JUMPDEST PUSH0 PUSH2 0x48F5 PUSH1 0x16 DUP4 PUSH2 0x41C5 JUMP JUMPDEST SWAP2 POP PUSH2 0x4900 DUP3 PUSH2 0x48C1 JUMP JUMPDEST PUSH1 0x20 DUP3 ADD SWAP1 POP SWAP2 SWAP1 POP JUMP JUMPDEST PUSH0 PUSH1 0x20 DUP3 ADD SWAP1 POP DUP2 DUP2 SUB PUSH0 DUP4 ADD MSTORE PUSH2 0x4922 DUP2 PUSH2 0x48E9 JUMP JUMPDEST SWAP1 POP SWAP2 SWAP1 POP JUMP JUMPDEST PUSH0 PUSH2 0x4933 DUP3 PUSH2 0x3C78 JUMP JUMPDEST PUSH2 0x493D DUP2 DUP6 PUSH2 0x47B6 JUMP JUMPDEST SWAP4 POP PUSH2 0x494D DUP2 DUP6 PUSH1 0x20 DUP7 ADD PUSH2 0x3C92 JUMP JUMPDEST DUP1 DUP5 ADD SWAP2 POP POP SWAP3 SWAP2 POP POP JUMP JUMPDEST PUSH0 PUSH2 0x4964 DUP3 DUP5 PUSH2 0x4929 JUMP JUMPDEST SWAP2 POP DUP2 SWAP1 POP SWAP3 SWAP2 POP POP JUMP JUMPDEST PUSH0 DUP2 SWAP1 POP SWAP2 SWAP1 POP JUMP JUMPDEST PUSH0 PUSH2 0x4992 PUSH2 0x498D PUSH2 0x4988 DUP5 PUSH2 0x496F JUMP JUMPDEST PUSH2 0x45C7 JUMP JUMPDEST PUSH2 0x398B JUMP JUMPDEST SWAP1 POP SWAP2 SWAP1 POP JUMP JUMPDEST PUSH2 0x49A2 DUP2 PUSH2 0x4978 JUMP JUMPDEST DUP3 MSTORE POP POP JUMP JUMPDEST PUSH0 PUSH1 0x20 DUP3 ADD SWAP1 POP PUSH2 0x49BB PUSH0 DUP4 ADD DUP5 PUSH2 0x4999 JUMP JUMPDEST SWAP3 SWAP2 POP POP JUMP JUMPDEST PUSH0 DUP2 SWAP1 POP DUP2 PUSH0 MSTORE PUSH1 0x20 PUSH0 KECCAK256 SWAP1 POP SWAP2 SWAP1 POP JUMP JUMPDEST PUSH1 0x1F DUP3 GT ISZERO PUSH2 0x4A14 JUMPI PUSH2 0x49E5 DUP2 PUSH2 0x49C1 JUMP JUMPDEST PUSH2 0x49EE DUP5 PUSH2 0x455B JUMP JUMPDEST DUP2 ADD PUSH1 0x20 DUP6 LT ISZERO PUSH2 0x49FD JUMPI DUP2 SWAP1 POP JUMPDEST PUSH2 0x4A11 PUSH2 0x4A09 DUP6 PUSH2 0x455B JUMP JUMPDEST DUP4 ADD DUP3 PUSH2 0x463E JUMP JUMPDEST POP POP JUMPDEST POP POP POP JUMP JUMPDEST PUSH2 0x4A22 DUP3 PUSH2 0x3F6E JUMP JUMPDEST PUSH8 0xFFFFFFFFFFFFFFFF DUP2 GT ISZERO PUSH2 0x4A3B JUMPI PUSH2 0x4A3A PUSH2 0x3A11 JUMP JUMPDEST JUMPDEST PUSH2 0x4A45 DUP3 SLOAD PUSH2 0x4494 JUMP JUMPDEST PUSH2 0x4A50 DUP3 DUP3 DUP6 PUSH2 0x49D3 JUMP JUMPDEST PUSH0 PUSH1 0x20 SWAP1 POP PUSH1 0x1F DUP4 GT PUSH1 0x1 DUP2 EQ PUSH2 0x4A81 JUMPI PUSH0 DUP5 ISZERO PUSH2 0x4A6F JUMPI DUP3 DUP8 ADD MLOAD SWAP1 POP JUMPDEST PUSH2 0x4A79 DUP6 DUP3 PUSH2 0x46CE JUMP JUMPDEST DUP7 SSTORE POP PUSH2 0x4AE0 JUMP JUMPDEST PUSH1 0x1F NOT DUP5 AND PUSH2 0x4A8F DUP7 PUSH2 0x49C1 JUMP JUMPDEST PUSH0 JUMPDEST DUP3 DUP2 LT ISZERO PUSH2 0x4AB6 JUMPI DUP5 DUP10 ADD MLOAD DUP3 SSTORE PUSH1 0x1 DUP3 ADD SWAP2 POP PUSH1 0x20 DUP6 ADD SWAP5 POP PUSH1 0x20 DUP2 ADD SWAP1 POP PUSH2 0x4A91 JUMP JUMPDEST DUP7 DUP4 LT ISZERO PUSH2 0x4AD3 JUMPI DUP5 DUP10 ADD MLOAD PUSH2 0x4ACF PUSH1 0x1F DUP10 AND DUP3 PUSH2 0x46B2 JUMP JUMPDEST DUP4 SSTORE POP JUMPDEST PUSH1 0x1 PUSH1 0x2 DUP9 MUL ADD DUP9 SSTORE POP POP POP JUMPDEST POP POP POP POP POP POP JUMP JUMPDEST PUSH0 DUP2 MLOAD SWAP1 POP PUSH2 0x4AF6 DUP2 PUSH2 0x3BC6 JUMP JUMPDEST SWAP3 SWAP2 POP POP JUMP JUMPDEST PUSH0 PUSH1 0x20 DUP3 DUP5 SUB SLT ISZERO PUSH2 0x4B11 JUMPI PUSH2 0x4B10 PUSH2 0x3903 JUMP JUMPDEST JUMPDEST PUSH0 PUSH2 0x4B1E DUP5 DUP3 DUP6 ADD PUSH2 0x4AE8 JUMP JUMPDEST SWAP2 POP POP SWAP3 SWAP2 POP POP JUMP JUMPDEST PUSH0 DUP2 SLOAD PUSH2 0x4B33 DUP2 PUSH2 0x4494 JUMP JUMPDEST PUSH2 0x4B3D DUP2 DUP7 PUSH2 0x47B6 JUMP JUMPDEST SWAP5 POP PUSH1 0x1 DUP3 AND PUSH0 DUP2 EQ PUSH2 0x4B57 JUMPI PUSH1 0x1 DUP2 EQ PUSH2 0x4B6C JUMPI PUSH2 0x4B9E JUMP JUMPDEST PUSH1 0xFF NOT DUP4 AND DUP7 MSTORE DUP2 ISZERO ISZERO DUP3 MUL DUP7 ADD SWAP4 POP PUSH2 0x4B9E JUMP JUMPDEST PUSH2 0x4B75 DUP6 PUSH2 0x4549 JUMP JUMPDEST PUSH0 JUMPDEST DUP4 DUP2 LT ISZERO PUSH2 0x4B96 JUMPI DUP2 SLOAD DUP2 DUP10 ADD MSTORE PUSH1 0x1 DUP3 ADD SWAP2 POP PUSH1 0x20 DUP2 ADD SWAP1 POP PUSH2 0x4B77 JUMP JUMPDEST DUP4 DUP9 ADD SWAP6 POP POP POP JUMPDEST POP POP POP SWAP3 SWAP2 POP POP JUMP JUMPDEST PUSH0 PUSH2 0x4BB2 DUP3 DUP5 PUSH2 0x4B27 JUMP JUMPDEST SWAP2 POP DUP2 SWAP1 POP SWAP3 SWAP2 POP POP JUMP JUMPDEST PUSH0 DUP2 SLOAD PUSH2 0x4BC9 DUP2 PUSH2 0x4494 JUMP JUMPDEST PUSH2 0x4BD3 DUP2 DUP7 PUSH2 0x41C5 JUMP JUMPDEST SWAP5 POP PUSH1 0x1 DUP3 AND PUSH0 DUP2 EQ PUSH2 0x4BED JUMPI PUSH1 0x1 DUP2 EQ PUSH2 0x4C03 JUMPI PUSH2 0x4C35 JUMP JUMPDEST PUSH1 0xFF NOT DUP4 AND DUP7 MSTORE DUP2 ISZERO ISZERO PUSH1 0x20 MUL DUP7 ADD SWAP4 POP PUSH2 0x4C35 JUMP JUMPDEST PUSH2 0x4C0C DUP6 PUSH2 0x4549 JUMP JUMPDEST PUSH0 JUMPDEST DUP4 DUP2 LT ISZERO PUSH2 0x4C2D JUMPI DUP2 SLOAD DUP2 DUP10 ADD MSTORE PUSH1 0x1 DUP3 ADD SWAP2 POP PUSH1 0x20 DUP2 ADD SWAP1 POP PUSH2 0x4C0E JUMP JUMPDEST DUP1 DUP9 ADD SWAP6 POP POP POP JUMPDEST POP POP POP SWAP3 SWAP2 POP POP JUMP JUMPDEST PUSH0 PUSH1 0x80 DUP3 ADD SWAP1 POP DUP2 DUP2 SUB PUSH0 DUP4 ADD MSTORE PUSH2 0x4C56 DUP2 DUP8 PUSH2 0x4BBD JUMP JUMPDEST SWAP1 POP PUSH2 0x4C65 PUSH1 0x20 DUP4 ADD DUP7 PUSH2 0x38D2 JUMP JUMPDEST DUP2 DUP2 SUB PUSH1 0x40 DUP4 ADD MSTORE PUSH2 0x4C77 DUP2 DUP6 PUSH2 0x3F88 JUMP JUMPDEST SWAP1 POP DUP2 DUP2 SUB PUSH1 0x60 DUP4 ADD MSTORE PUSH2 0x4C8B DUP2 DUP5 PUSH2 0x3F88 JUMP JUMPDEST SWAP1 POP SWAP6 SWAP5 POP POP POP POP POP JUMP JUMPDEST PUSH2 0x4C9F DUP3 PUSH2 0x3C78 JUMP JUMPDEST PUSH8 0xFFFFFFFFFFFFFFFF DUP2 GT ISZERO PUSH2 0x4CB8 JUMPI PUSH2 0x4CB7 PUSH2 0x3A11 JUMP JUMPDEST JUMPDEST PUSH2 0x4CC2 DUP3 SLOAD PUSH2 0x4494 JUMP JUMPDEST PUSH2 0x4CCD DUP3 DUP3 DUP6 PUSH2 0x4660 JUMP JUMPDEST PUSH0 PUSH1 0x20 SWAP1 POP PUSH1 0x1F DUP4 GT PUSH1 0x1 DUP2 EQ PUSH2 0x4CFE JUMPI PUSH0 DUP5 ISZERO PUSH2 0x4CEC JUMPI DUP3 DUP8 ADD MLOAD SWAP1 POP JUMPDEST PUSH2 0x4CF6 DUP6 DUP3 PUSH2 0x46CE JUMP JUMPDEST DUP7 SSTORE POP PUSH2 0x4D5D JUMP JUMPDEST PUSH1 0x1F NOT DUP5 AND PUSH2 0x4D0C DUP7 PUSH2 0x4549 JUMP JUMPDEST PUSH0 JUMPDEST DUP3 DUP2 LT ISZERO PUSH2 0x4D33 JUMPI DUP5 DUP10 ADD MLOAD DUP3 SSTORE PUSH1 0x1 DUP3 ADD SWAP2 POP PUSH1 0x20 DUP6 ADD SWAP5 POP PUSH1 0x20 DUP2 ADD SWAP1 POP PUSH2 0x4D0E JUMP JUMPDEST DUP7 DUP4 LT ISZERO PUSH2 0x4D50 JUMPI DUP5 DUP10 ADD MLOAD PUSH2 0x4D4C PUSH1 0x1F DUP10 AND DUP3 PUSH2 0x46B2 JUMP JUMPDEST DUP4 SSTORE POP JUMPDEST PUSH1 0x1 PUSH1 0x2 DUP9 MUL ADD DUP9 SSTORE POP POP POP JUMPDEST POP POP POP POP POP POP JUMP JUMPDEST PUSH0 PUSH1 0x60 DUP3 ADD SWAP1 POP PUSH2 0x4D78 PUSH0 DUP4 ADD DUP7 PUSH2 0x40EB JUMP JUMPDEST DUP2 DUP2 SUB PUSH1 0x20 DUP4 ADD MSTORE PUSH2 0x4D8A DUP2 DUP6 PUSH2 0x3F88 JUMP JUMPDEST SWAP1 POP DUP2 DUP2 SUB PUSH1 0x40 DUP4 ADD MSTORE PUSH2 0x4D9E DUP2 DUP5 PUSH2 0x3F88 JUMP JUMPDEST SWAP1 POP SWAP5 SWAP4 POP POP POP POP JUMP JUMPDEST PUSH32 0x4F6E6C792063616C6C61626C65206279206F776E657200000000000000000000 PUSH0 DUP3 ADD MSTORE POP JUMP JUMPDEST PUSH0 PUSH2 0x4DDC PUSH1 0x16 DUP4 PUSH2 0x41C5 JUMP JUMPDEST SWAP2 POP PUSH2 0x4DE7 DUP3 PUSH2 0x4DA8 JUMP JUMPDEST PUSH1 0x20 DUP3 ADD SWAP1 POP SWAP2 SWAP1 POP JUMP JUMPDEST PUSH0 PUSH1 0x20 DUP3 ADD SWAP1 POP DUP2 DUP2 SUB PUSH0 DUP4 ADD MSTORE PUSH2 0x4E09 DUP2 PUSH2 0x4DD0 JUMP JUMPDEST SWAP1 POP SWAP2 SWAP1 POP JUMP JUMPDEST PUSH0 PUSH2 0xFFFF DUP3 AND SWAP1 POP SWAP2 SWAP1 POP JUMP JUMPDEST PUSH2 0x4E26 DUP2 PUSH2 0x4E10 JUMP JUMPDEST DUP3 MSTORE POP POP JUMP JUMPDEST PUSH0 PUSH4 0xFFFFFFFF DUP3 AND SWAP1 POP SWAP2 SWAP1 POP JUMP JUMPDEST PUSH2 0x4E44 DUP2 PUSH2 0x4E2C JUMP JUMPDEST DUP3 MSTORE POP POP JUMP JUMPDEST PUSH0 PUSH1 0xA0 DUP3 ADD SWAP1 POP PUSH2 0x4E5D PUSH0 DUP4 ADD DUP9 PUSH2 0x399E JUMP JUMPDEST DUP2 DUP2 SUB PUSH1 0x20 DUP4 ADD MSTORE PUSH2 0x4E6F DUP2 DUP8 PUSH2 0x3F88 JUMP JUMPDEST SWAP1 POP PUSH2 0x4E7E PUSH1 0x40 DUP4 ADD DUP7 PUSH2 0x4E1D JUMP JUMPDEST PUSH2 0x4E8B PUSH1 0x60 DUP4 ADD DUP6 PUSH2 0x4E3B JUMP JUMPDEST PUSH2 0x4E98 PUSH1 0x80 DUP4 ADD DUP5 PUSH2 0x3DFA JUMP JUMPDEST SWAP7 SWAP6 POP POP POP POP POP POP JUMP JUMPDEST PUSH0 DUP2 MLOAD SWAP1 POP PUSH2 0x4EB0 DUP2 PUSH2 0x39CF JUMP JUMPDEST SWAP3 SWAP2 POP POP JUMP JUMPDEST PUSH0 PUSH1 0x20 DUP3 DUP5 SUB SLT ISZERO PUSH2 0x4ECB JUMPI PUSH2 0x4ECA PUSH2 0x3903 JUMP JUMPDEST JUMPDEST PUSH0 PUSH2 0x4ED8 DUP5 DUP3 DUP6 ADD PUSH2 0x4EA2 JUMP JUMPDEST SWAP2 POP POP SWAP3 SWAP2 POP POP JUMP JUMPDEST PUSH32 0x43616E6E6F7420736574206F776E657220746F207A65726F0000000000000000 PUSH0 DUP3 ADD MSTORE POP JUMP JUMPDEST PUSH0 PUSH2 0x4F15 PUSH1 0x18 DUP4 PUSH2 0x41C5 JUMP JUMPDEST SWAP2 POP PUSH2 0x4F20 DUP3 PUSH2 0x4EE1 JUMP JUMPDEST PUSH1 0x20 DUP3 ADD SWAP1 POP SWAP2 SWAP1 POP JUMP JUMPDEST PUSH0 PUSH1 0x20 DUP3 ADD SWAP1 POP DUP2 DUP2 SUB PUSH0 DUP4 ADD MSTORE PUSH2 0x4F42 DUP2 PUSH2 0x4F09 JUMP JUMPDEST SWAP1 POP SWAP2 SWAP1 POP JUMP JUMPDEST PUSH32 0x43616E6E6F74207472616E7366657220746F2073656C66000000000000000000 PUSH0 DUP3 ADD MSTORE POP JUMP JUMPDEST PUSH0 PUSH2 0x4F7D PUSH1 0x17 DUP4 PUSH2 0x41C5 JUMP JUMPDEST SWAP2 POP PUSH2 0x4F88 DUP3 PUSH2 0x4F49 JUMP JUMPDEST PUSH1 0x20 DUP3 ADD SWAP1 POP SWAP2 SWAP1 POP JUMP JUMPDEST PUSH0 PUSH1 0x20 DUP3 ADD SWAP1 POP DUP2 DUP2 SUB PUSH0 DUP4 ADD MSTORE PUSH2 0x4FAA DUP2 PUSH2 0x4F71 JUMP JUMPDEST SWAP1 POP SWAP2 SWAP1 POP JUMP JUMPDEST PUSH0 PUSH1 0x40 DUP3 ADD SWAP1 POP PUSH2 0x4FC4 PUSH0 DUP4 ADD DUP6 PUSH2 0x3FE0 JUMP JUMPDEST PUSH2 0x4FD1 PUSH1 0x20 DUP4 ADD DUP5 PUSH2 0x3DFA JUMP JUMPDEST SWAP4 SWAP3 POP POP POP JUMP JUMPDEST PUSH32 0x4E487B7100000000000000000000000000000000000000000000000000000000 PUSH0 MSTORE PUSH1 0x11 PUSH1 0x4 MSTORE PUSH1 0x24 PUSH0 REVERT JUMPDEST PUSH0 PUSH2 0x500F DUP3 PUSH2 0x3BBD JUMP JUMPDEST SWAP2 POP PUSH2 0x501A DUP4 PUSH2 0x3BBD JUMP JUMPDEST SWAP3 POP DUP3 DUP3 ADD SWAP1 POP DUP1 DUP3 GT ISZERO PUSH2 0x5032 JUMPI PUSH2 0x5031 PUSH2 0x4FD8 JUMP JUMPDEST JUMPDEST SWAP3 SWAP2 POP POP JUMP JUMPDEST PUSH0 PUSH2 0x5042 DUP3 PUSH2 0x3BBD JUMP JUMPDEST SWAP2 POP PUSH2 0x504D DUP4 PUSH2 0x3BBD JUMP JUMPDEST SWAP3 POP DUP3 DUP3 SUB SWAP1 POP DUP2 DUP2 GT ISZERO PUSH2 0x5065 JUMPI PUSH2 0x5064 PUSH2 0x4FD8 JUMP JUMPDEST JUMPDEST SWAP3 SWAP2 POP POP JUMP JUMPDEST PUSH32 0x4E487B7100000000000000000000000000000000000000000000000000000000 PUSH0 MSTORE PUSH1 0x12 PUSH1 0x4 MSTORE PUSH1 0x24 PUSH0 REVERT JUMPDEST PUSH0 PUSH2 0x50A2 DUP3 PUSH2 0x3BBD JUMP JUMPDEST SWAP2 POP PUSH2 0x50AD DUP4 PUSH2 0x3BBD JUMP JUMPDEST SWAP3 POP DUP3 PUSH2 0x50BD JUMPI PUSH2 0x50BC PUSH2 0x506B JUMP JUMPDEST JUMPDEST DUP3 DUP3 MOD SWAP1 POP SWAP3 SWAP2 POP POP JUMP JUMPDEST PUSH0 PUSH2 0x50D2 DUP3 PUSH2 0x3BBD JUMP JUMPDEST SWAP2 POP PUSH2 0x50DD DUP4 PUSH2 0x3BBD JUMP JUMPDEST SWAP3 POP DUP3 DUP3 MUL PUSH2 0x50EB DUP2 PUSH2 0x3BBD JUMP JUMPDEST SWAP2 POP DUP3 DUP3 DIV DUP5 EQ DUP4 ISZERO OR PUSH2 0x5102 JUMPI PUSH2 0x5101 PUSH2 0x4FD8 JUMP JUMPDEST JUMPDEST POP SWAP3 SWAP2 POP POP JUMP JUMPDEST PUSH0 DUP2 SWAP1 POP SWAP3 SWAP2 POP POP JUMP JUMPDEST PUSH0 PUSH2 0x511D DUP3 PUSH2 0x3F6E JUMP JUMPDEST PUSH2 0x5127 DUP2 DUP6 PUSH2 0x5109 JUMP JUMPDEST SWAP4 POP PUSH2 0x5137 DUP2 DUP6 PUSH1 0x20 DUP7 ADD PUSH2 0x3C92 JUMP JUMPDEST DUP1 DUP5 ADD SWAP2 POP POP SWAP3 SWAP2 POP POP JUMP JUMPDEST PUSH0 PUSH2 0x514E DUP3 DUP5 PUSH2 0x5113 JUMP JUMPDEST SWAP2 POP DUP2 SWAP1 POP SWAP3 SWAP2 POP POP JUMP JUMPDEST PUSH0 DUP2 PUSH1 0x1 SHR SWAP1 POP SWAP2 SWAP1 POP JUMP JUMPDEST PUSH0 PUSH0 DUP3 SWAP2 POP DUP4 SWAP1 POP JUMPDEST PUSH1 0x1 DUP6 GT ISZERO PUSH2 0x51AE JUMPI DUP1 DUP7 DIV DUP2 GT ISZERO PUSH2 0x518A JUMPI PUSH2 0x5189 PUSH2 0x4FD8 JUMP JUMPDEST JUMPDEST PUSH1 0x1 DUP6 AND ISZERO PUSH2 0x5199 JUMPI DUP1 DUP3 MUL SWAP2 POP JUMPDEST DUP1 DUP2 MUL SWAP1 POP PUSH2 0x51A7 DUP6 PUSH2 0x5159 JUMP JUMPDEST SWAP5 POP PUSH2 0x516E JUMP JUMPDEST SWAP5 POP SWAP5 SWAP3 POP POP POP JUMP JUMPDEST PUSH0 DUP3 PUSH2 0x51C6 JUMPI PUSH1 0x1 SWAP1 POP PUSH2 0x5281 JUMP JUMPDEST DUP2 PUSH2 0x51D3 JUMPI PUSH0 SWAP1 POP PUSH2 0x5281 JUMP JUMPDEST DUP2 PUSH1 0x1 DUP2 EQ PUSH2 0x51E9 JUMPI PUSH1 0x2 DUP2 EQ PUSH2 0x51F3 JUMPI PUSH2 0x5222 JUMP JUMPDEST PUSH1 0x1 SWAP2 POP POP PUSH2 0x5281 JUMP JUMPDEST PUSH1 0xFF DUP5 GT ISZERO PUSH2 0x5205 JUMPI PUSH2 0x5204 PUSH2 0x4FD8 JUMP JUMPDEST JUMPDEST DUP4 PUSH1 0x2 EXP SWAP2 POP DUP5 DUP3 GT ISZERO PUSH2 0x521C JUMPI PUSH2 0x521B PUSH2 0x4FD8 JUMP JUMPDEST JUMPDEST POP PUSH2 0x5281 JUMP JUMPDEST POP PUSH1 0x20 DUP4 LT PUSH2 0x133 DUP4 LT AND PUSH1 0x4E DUP5 LT PUSH1 0xB DUP5 LT AND OR ISZERO PUSH2 0x5257 JUMPI DUP3 DUP3 EXP SWAP1 POP DUP4 DUP2 GT ISZERO PUSH2 0x5252 JUMPI PUSH2 0x5251 PUSH2 0x4FD8 JUMP JUMPDEST JUMPDEST PUSH2 0x5281 JUMP JUMPDEST PUSH2 0x5264 DUP5 DUP5 DUP5 PUSH1 0x1 PUSH2 0x5165 JUMP JUMPDEST SWAP3 POP SWAP1 POP DUP2 DUP5 DIV DUP2 GT ISZERO PUSH2 0x527B JUMPI PUSH2 0x527A PUSH2 0x4FD8 JUMP JUMPDEST JUMPDEST DUP2 DUP2 MUL SWAP1 POP JUMPDEST SWAP4 SWAP3 POP POP POP JUMP JUMPDEST PUSH0 PUSH2 0x5292 DUP3 PUSH2 0x3BBD JUMP JUMPDEST SWAP2 POP PUSH2 0x529D DUP4 PUSH2 0x3BBD JUMP JUMPDEST SWAP3 POP PUSH2 0x52CA PUSH32 0xFFFFFFFFFFFFFFFFFFFFFFFFFFFFFFFFFFFFFFFFFFFFFFFFFFFFFFFFFFFFFFFF DUP5 DUP5 PUSH2 0x51B7 JUMP JUMPDEST SWAP1 POP SWAP3 SWAP2 POP POP JUMP INVALID LOG2 PUSH5 0x6970667358 0x22 SLT KECCAK256 0xDE LOG2 EXTDELEGATECALL PUSH32 0x71A0B9558F11F73A5F7913E401606C7FA6925244AA16752E32F5CD8964736F6C PUSH4 0x4300081E STOP CALLER PUSH4 0x6F6E7374 KECCAK256 PUSH21 0x69636B65744964203D20617267735B305D3B636F6E PUSH20 0x742075726C203D202768747470733A2F2F363834 BALANCE PUSH4 0x66336164 CALLVALUE CODESIZE CALLDATALOAD BALANCE CALLDATASIZE PUSH5 0x3164333563 PUSH7 0x3731632E6D6F63 PUSH12 0x6170692E696F2F7665726966 PUSH26 0x7469636B6574732F27202B207469636B657449643B636F6E7374 KECCAK256 PUSH19 0x6573706F6E7365203D2061776169742046756E PUSH4 0x74696F6E PUSH20 0x2E6D616B654874747052657175657374287B2075 PUSH19 0x6C207D293B69662028726573706F6E73652E65 PUSH19 0x726F7229207B207468726F77204572726F7228 0x27 MSTORE PUSH6 0x717565737420 PUSH7 0x61696C65642729 EXTCODESIZE KECCAK256 PUSH30 0x636F6E73742064617461203D20726573706F6E73652E646174613B696620 0x28 0x21 PUSH5 0x617461207C PUSH29 0x20747970656F66206461746120213D3D20276F626A6563742729207468 PUSH19 0x6F77204572726F7228605469636B6574204944 KECCAK256 0x24 PUSH28 0x7469636B657449647D206E6F7420666F756E64206F7220696E76616C PUSH10 0x6460293B636F6E737420 PUSH10 0x7355736564203D206461 PUSH21 0x612E75736564203D3D3D20747275653B7265747572 PUSH15 0x2046756E6374696F6E732E656E636F PUSH5 0x6555696E74 ORIGIN CALLDATALOAD CALLDATASIZE 0x28 PUSH10 0x7355736564203F203120 GASPRICE KECCAK256 ADDRESS 0x29 EXTCODESIZE PUSH4 0x6F6E7374 KECCAK256 PUSH6 0x76656E744964 KECCAK256 RETURNDATASIZE KECCAK256 PUSH2 0x7267 PUSH20 0x5B305D3B636F6E73742075726C203D2027687474 PUSH17 0x733A2F2F36383431636633616434383531 CALLDATASIZE PUSH5 0x3164333563 PUSH7 0x3731632E6D6F63 PUSH12 0x6170692E696F2F7469636B65 PUSH21 0x732F27202B206576656E7449643B636F6E73742072 PUSH6 0x73706F6E7365 KECCAK256 RETURNDATASIZE KECCAK256 PUSH2 0x7761 PUSH10 0x742046756E6374696F6E PUSH20 0x2E6D616B654874747052657175657374287B2075 PUSH19 0x6C207D293B69662028726573706F6E73652E65 PUSH19 0x726F7229207B207468726F77204572726F7228 0x27 MSTORE PUSH6 0x717565737420 PUSH7 0x61696C65642729 EXTCODESIZE KECCAK256 PUSH30 0x636F6E73742064617461203D20726573706F6E73652E646174613B696620 0x28 0x21 PUSH5 0x617461207C PUSH29 0x20747970656F66206461746120213D3D20276F626A6563742729207468 PUSH19 0x6F77204572726F722860496E76616C69642072 PUSH6 0x73706F6E7365 PUSH1 0x29 EXTCODESIZE PUSH4 0x6F6E7374 KECCAK256 PUSH19 0x617752656D61696E696E67203D20646174612E PUSH19 0x656D61696E696E673B636F6E73742061766169 PUSH13 0x61626C65203D204E756D626572 0x28 PUSH19 0x617752656D61696E696E67293B69662028214E PUSH22 0x6D6265722E697346696E69746528617661696C61626C PUSH6 0x292920746872 PUSH16 0x77204572726F722860496E76616C6964 KECCAK256 PUSH21 0x69636B657420636F756E743A20247B72617752656D PUSH2 0x696E PUSH10 0x6E677D60293B72657475 PUSH19 0x6E2046756E6374696F6E732E656E636F646555 PUSH10 0x6E743235362861766169 PUSH13 0x61626C65293B00000000000000 "
		},
		"gasEstimates": {
			"creation": {
				"codeDepositCost": "4251200",
				"executionCost": "infinite",
				"totalCost": "infinite"
			},
			"external": {
				"DEFAULT_ADMIN_ROLE()": "440",
				"UPGRADE_INTERFACE_VERSION()": "infinite",
				"acceptOwnership()": "54599",
				"feeRecipient()": "2576",
				"getCurrentListingId()": "2523",
				"getImplementation()": "2646",
				"getListing(uint256)": "infinite",
				"getListingTicketStatus(uint256)": "infinite",
				"getRoleAdmin(bytes32)": "infinite",
				"grantRole(bytes32,address)": "infinite",
				"handleOracleFulfillment(bytes32,bytes,bytes)": "infinite",
				"hasRole(bytes32,address)": "3239",
				"initialize(address,uint256,uint256,uint256,address,uint64)": "infinite",
				"isTicketUsed(string)": "infinite",
				"isTokenListed(address,uint256)": "infinite",
				"maxListingDuration()": "2513",
				"minListingDuration()": "2514",
				"owner()": "2626",
				"paused()": "2635",
				"platformFeePercent()": "2515",
				"proxiableUUID()": "infinite",
				"remainingTickets()": "2558",
				"renounceRole(bytes32,address)": "infinite",
				"requestRemainingTickets(uint64,string[])": "infinite",
				"revokeRole(bytes32,address)": "infinite",
				"s_lastCheckedTicketId()": "infinite",
				"s_lastError()": "infinite",
				"s_lastRequestId()": "2536",
				"s_lastResponse()": "infinite",
				"s_lastTicketUsed()": "2513",
				"subscriptionId()": "2557",
				"supportedContracts(address)": "2966",
				"supportsInterface(bytes4)": "786",
				"ticketUsageStatus(string)": "infinite",
				"transferOwnership(address)": "30759",
				"upgradeToAndCall(address,bytes)": "infinite",
				"verifyTicketUsage(uint64,string)": "infinite"
			},
			"internal": {
				"_authorizeUpgrade(address)": "infinite"
			}
		},
		"methodIdentifiers": {
			"DEFAULT_ADMIN_ROLE()": "a217fddf",
			"UPGRADE_INTERFACE_VERSION()": "ad3cb1cc",
			"acceptOwnership()": "79ba5097",
			"feeRecipient()": "46904840",
			"getCurrentListingId()": "be9ad61e",
			"getImplementation()": "aaf10f42",
			"getListing(uint256)": "107a274a",
			"getListingTicketStatus(uint256)": "8db23f27",
			"getRoleAdmin(bytes32)": "248a9ca3",
			"grantRole(bytes32,address)": "2f2ff15d",
			"handleOracleFulfillment(bytes32,bytes,bytes)": "0ca76175",
			"hasRole(bytes32,address)": "91d14854",
			"initialize(address,uint256,uint256,uint256,address,uint64)": "a92f67ac",
			"isTicketUsed(string)": "5a3d7263",
			"isTokenListed(address,uint256)": "5471b47a",
			"maxListingDuration()": "def050c5",
			"minListingDuration()": "957d90d4",
			"owner()": "8da5cb5b",
			"paused()": "5c975abb",
			"platformFeePercent()": "8c639a85",
			"proxiableUUID()": "52d1902d",
			"remainingTickets()": "5d504832",
			"renounceRole(bytes32,address)": "36568abe",
			"requestRemainingTickets(uint64,string[])": "731cbea8",
			"revokeRole(bytes32,address)": "d547741f",
			"s_lastCheckedTicketId()": "f9aff1e8",
			"s_lastError()": "4b0795a8",
			"s_lastRequestId()": "b1e21749",
			"s_lastResponse()": "3944ea3a",
			"s_lastTicketUsed()": "01c47c8b",
			"subscriptionId()": "09c1ba2e",
			"supportedContracts(address)": "b7ff920e",
			"supportsInterface(bytes4)": "01ffc9a7",
			"ticketUsageStatus(string)": "b106b39d",
			"transferOwnership(address)": "f2fde38b",
			"upgradeToAndCall(address,bytes)": "4f1ef286",
			"verifyTicketUsage(uint64,string)": "34a9620c"
		}
	},
	"abi": [
		{
			"inputs": [],
			"name": "AccessControlBadConfirmation",
			"type": "error"
		},
		{
			"inputs": [
				{
					"internalType": "address",
					"name": "account",
					"type": "address"
				},
				{
					"internalType": "bytes32",
					"name": "neededRole",
					"type": "bytes32"
				}
			],
			"name": "AccessControlUnauthorizedAccount",
			"type": "error"
		},
		{
			"inputs": [
				{
					"internalType": "address",
					"name": "target",
					"type": "address"
				}
			],
			"name": "AddressEmptyCode",
			"type": "error"
		},
		{
			"inputs": [
				{
					"internalType": "address",
					"name": "implementation",
					"type": "address"
				}
			],
			"name": "ERC1967InvalidImplementation",
			"type": "error"
		},
		{
			"inputs": [],
			"name": "ERC1967NonPayable",
			"type": "error"
		},
		{
			"inputs": [],
			"name": "EmptyArgs",
			"type": "error"
		},
		{
			"inputs": [],
			"name": "EmptySource",
			"type": "error"
		},
		{
			"inputs": [],
			"name": "EnforcedPause",
			"type": "error"
		},
		{
			"inputs": [],
			"name": "EventEnded",
			"type": "error"
		},
		{
			"inputs": [],
			"name": "ExpectedPause",
			"type": "error"
		},
		{
			"inputs": [],
			"name": "FailedCall",
			"type": "error"
		},
		{
			"inputs": [],
			"name": "InsufficientPayment",
			"type": "error"
		},
		{
			"inputs": [],
			"name": "InvalidDuration",
			"type": "error"
		},
		{
			"inputs": [],
			"name": "InvalidFeePercent",
			"type": "error"
		},
		{
			"inputs": [],
			"name": "InvalidInitialization",
			"type": "error"
		},
		{
			"inputs": [],
			"name": "InvalidPrice",
			"type": "error"
		},
		{
			"inputs": [
				{
					"internalType": "string",
					"name": "ticketId",
					"type": "string"
				}
			],
			"name": "InvalidTicketID",
			"type": "error"
		},
		{
			"inputs": [],
			"name": "ListingExpired",
			"type": "error"
		},
		{
			"inputs": [],
			"name": "ListingNotActive",
			"type": "error"
		},
		{
			"inputs": [],
			"name": "ListingNotFound",
			"type": "error"
		},
		{
			"inputs": [],
			"name": "NoInlineSecrets",
			"type": "error"
		},
		{
			"inputs": [],
			"name": "NotInitializing",
			"type": "error"
		},
		{
			"inputs": [],
			"name": "NotSeller",
			"type": "error"
		},
		{
			"inputs": [],
			"name": "NotTokenOwner",
			"type": "error"
		},
		{
			"inputs": [],
			"name": "OnlyRouterCanFulfill",
			"type": "error"
		},
		{
			"inputs": [],
			"name": "ReentrancyGuardReentrantCall",
			"type": "error"
		},
		{
			"inputs": [
				{
					"internalType": "string",
					"name": "ticketId",
					"type": "string"
				}
			],
			"name": "TicketAlreadyUsed",
			"type": "error"
		},
		{
			"inputs": [
				{
					"internalType": "string",
					"name": "ticketId",
					"type": "string"
				}
			],
			"name": "TicketNotFresh",
			"type": "error"
		},
		{
			"inputs": [],
			"name": "TokenAlreadyListed",
			"type": "error"
		},
		{
			"inputs": [],
			"name": "TokenNotApproved",
			"type": "error"
		},
		{
			"inputs": [],
			"name": "TransferFailed",
			"type": "error"
		},
		{
			"inputs": [],
			"name": "UUPSUnauthorizedCallContext",
			"type": "error"
		},
		{
			"inputs": [
				{
					"internalType": "bytes32",
					"name": "slot",
					"type": "bytes32"
				}
			],
			"name": "UUPSUnsupportedProxiableUUID",
			"type": "error"
		},
		{
			"inputs": [
				{
					"internalType": "bytes32",
					"name": "requestId",
					"type": "bytes32"
				}
			],
			"name": "UnexpectedRequestID",
			"type": "error"
		},
		{
			"inputs": [],
			"name": "UnsupportedContract",
			"type": "error"
		},
		{
			"inputs": [],
			"name": "ZeroAddress",
			"type": "error"
		},
		{
			"anonymous": false,
			"inputs": [
				{
					"indexed": false,
					"internalType": "address",
					"name": "nftContract",
					"type": "address"
				},
				{
					"indexed": false,
					"internalType": "bool",
					"name": "supported",
					"type": "bool"
				}
			],
			"name": "ContractSupportUpdated",
			"type": "event"
		},
		{
			"anonymous": false,
			"inputs": [
				{
					"indexed": false,
					"internalType": "address",
					"name": "newFeeRecipient",
					"type": "address"
				}
			],
			"name": "FeeRecipientUpdated",
			"type": "event"
		},
		{
			"anonymous": false,
			"inputs": [
				{
					"indexed": false,
					"internalType": "uint64",
					"name": "version",
					"type": "uint64"
				}
			],
			"name": "Initialized",
			"type": "event"
		},
		{
			"anonymous": false,
			"inputs": [
				{
					"indexed": true,
					"internalType": "uint256",
					"name": "listingId",
					"type": "uint256"
				},
				{
					"indexed": true,
					"internalType": "address",
					"name": "seller",
					"type": "address"
				}
			],
			"name": "ListingCancelled",
			"type": "event"
		},
		{
			"anonymous": false,
			"inputs": [
				{
					"indexed": true,
					"internalType": "uint256",
					"name": "listingId",
					"type": "uint256"
				},
				{
					"indexed": true,
					"internalType": "address",
					"name": "nftContract",
					"type": "address"
				},
				{
					"indexed": true,
					"internalType": "uint256",
					"name": "tokenId",
					"type": "uint256"
				},
				{
					"indexed": false,
					"internalType": "address",
					"name": "seller",
					"type": "address"
				},
				{
					"indexed": false,
					"internalType": "uint256",
					"name": "price",
					"type": "uint256"
				},
				{
					"indexed": false,
					"internalType": "uint256",
					"name": "startTime",
					"type": "uint256"
				},
				{
					"indexed": false,
					"internalType": "uint256",
					"name": "endTime",
					"type": "uint256"
				},
				{
					"indexed": false,
					"internalType": "string",
					"name": "ticketId",
					"type": "string"
				}
			],
			"name": "ListingCreated",
			"type": "event"
		},
		{
			"anonymous": false,
			"inputs": [
				{
					"indexed": true,
					"internalType": "uint256",
					"name": "listingId",
					"type": "uint256"
				},
				{
					"indexed": true,
					"internalType": "address",
					"name": "buyer",
					"type": "address"
				},
				{
					"indexed": true,
					"internalType": "address",
					"name": "seller",
					"type": "address"
				},
				{
					"indexed": false,
					"internalType": "uint256",
					"name": "price",
					"type": "uint256"
				}
			],
			"name": "ListingPurchased",
			"type": "event"
		},
		{
			"anonymous": false,
			"inputs": [
				{
					"indexed": true,
					"internalType": "uint256",
					"name": "listingId",
					"type": "uint256"
				},
				{
					"indexed": false,
					"internalType": "string",
					"name": "ticketId",
					"type": "string"
				},
				{
					"indexed": false,
					"internalType": "bool",
					"name": "verified",
					"type": "bool"
				}
			],
			"name": "ListingVerified",
			"type": "event"
		},
		{
			"anonymous": false,
			"inputs": [
				{
					"indexed": true,
					"internalType": "address",
					"name": "from",
					"type": "address"
				},
				{
					"indexed": true,
					"internalType": "address",
					"name": "to",
					"type": "address"
				}
			],
			"name": "OwnershipTransferRequested",
			"type": "event"
		},
		{
			"anonymous": false,
			"inputs": [
				{
					"indexed": true,
					"internalType": "address",
					"name": "from",
					"type": "address"
				},
				{
					"indexed": true,
					"internalType": "address",
					"name": "to",
					"type": "address"
				}
			],
			"name": "OwnershipTransferred",
			"type": "event"
		},
		{
			"anonymous": false,
			"inputs": [
				{
					"indexed": false,
					"internalType": "address",
					"name": "account",
					"type": "address"
				}
			],
			"name": "Paused",
			"type": "event"
		},
		{
			"anonymous": false,
			"inputs": [
				{
					"indexed": false,
					"internalType": "uint256",
					"name": "newFeePercent",
					"type": "uint256"
				}
			],
			"name": "PlatformFeeUpdated",
			"type": "event"
		},
		{
			"anonymous": false,
			"inputs": [
				{
					"indexed": true,
					"internalType": "bytes32",
					"name": "id",
					"type": "bytes32"
				}
			],
			"name": "RequestFulfilled",
			"type": "event"
		},
		{
			"anonymous": false,
			"inputs": [
				{
					"indexed": true,
					"internalType": "bytes32",
					"name": "id",
					"type": "bytes32"
				}
			],
			"name": "RequestSent",
			"type": "event"
		},
		{
			"anonymous": false,
			"inputs": [
				{
					"indexed": true,
					"internalType": "bytes32",
					"name": "requestId",
					"type": "bytes32"
				},
				{
					"indexed": false,
					"internalType": "uint256",
					"name": "remainingTickets",
					"type": "uint256"
				},
				{
					"indexed": false,
					"internalType": "bytes",
					"name": "rawResponse",
					"type": "bytes"
				},
				{
					"indexed": false,
					"internalType": "bytes",
					"name": "error",
					"type": "bytes"
				}
			],
			"name": "Response",
			"type": "event"
		},
		{
			"anonymous": false,
			"inputs": [
				{
					"indexed": true,
					"internalType": "bytes32",
					"name": "role",
					"type": "bytes32"
				},
				{
					"indexed": true,
					"internalType": "bytes32",
					"name": "previousAdminRole",
					"type": "bytes32"
				},
				{
					"indexed": true,
					"internalType": "bytes32",
					"name": "newAdminRole",
					"type": "bytes32"
				}
			],
			"name": "RoleAdminChanged",
			"type": "event"
		},
		{
			"anonymous": false,
			"inputs": [
				{
					"indexed": true,
					"internalType": "bytes32",
					"name": "role",
					"type": "bytes32"
				},
				{
					"indexed": true,
					"internalType": "address",
					"name": "account",
					"type": "address"
				},
				{
					"indexed": true,
					"internalType": "address",
					"name": "sender",
					"type": "address"
				}
			],
			"name": "RoleGranted",
			"type": "event"
		},
		{
			"anonymous": false,
			"inputs": [
				{
					"indexed": true,
					"internalType": "bytes32",
					"name": "role",
					"type": "bytes32"
				},
				{
					"indexed": true,
					"internalType": "address",
					"name": "account",
					"type": "address"
				},
				{
					"indexed": true,
					"internalType": "address",
					"name": "sender",
					"type": "address"
				}
			],
			"name": "RoleRevoked",
			"type": "event"
		},
		{
			"anonymous": false,
			"inputs": [
				{
					"indexed": false,
					"internalType": "string",
					"name": "ticketId",
					"type": "string"
				},
				{
					"indexed": false,
					"internalType": "enum SecondaryMarketStorage.TicketStatus",
					"name": "status",
					"type": "uint8"
				}
			],
			"name": "TicketStatusUpdated",
			"type": "event"
		},
		{
			"anonymous": false,
			"inputs": [
				{
					"indexed": true,
					"internalType": "uint256",
					"name": "listingId",
					"type": "uint256"
				},
				{
					"indexed": false,
					"internalType": "string",
					"name": "ticketId",
					"type": "string"
				},
				{
					"indexed": false,
					"internalType": "bytes32",
					"name": "requestId",
					"type": "bytes32"
				}
			],
			"name": "TicketVerificationRequested",
			"type": "event"
		},
		{
			"anonymous": false,
			"inputs": [
				{
					"indexed": true,
					"internalType": "bytes32",
					"name": "requestId",
					"type": "bytes32"
				},
				{
					"indexed": false,
					"internalType": "string",
					"name": "ticketId",
					"type": "string"
				},
				{
					"indexed": false,
					"internalType": "bool",
					"name": "isUsed",
					"type": "bool"
				},
				{
					"indexed": false,
					"internalType": "bytes",
					"name": "rawResponse",
					"type": "bytes"
				},
				{
					"indexed": false,
					"internalType": "bytes",
					"name": "error",
					"type": "bytes"
				}
			],
			"name": "TicketVerified",
			"type": "event"
		},
		{
			"anonymous": false,
			"inputs": [
				{
					"indexed": false,
					"internalType": "address",
					"name": "account",
					"type": "address"
				}
			],
			"name": "Unpaused",
			"type": "event"
		},
		{
			"anonymous": false,
			"inputs": [
				{
					"indexed": true,
					"internalType": "address",
					"name": "implementation",
					"type": "address"
				}
			],
			"name": "Upgraded",
			"type": "event"
		},
		{
			"inputs": [],
			"name": "DEFAULT_ADMIN_ROLE",
			"outputs": [
				{
					"internalType": "bytes32",
					"name": "",
					"type": "bytes32"
				}
			],
			"stateMutability": "view",
			"type": "function"
		},
		{
			"inputs": [],
			"name": "UPGRADE_INTERFACE_VERSION",
			"outputs": [
				{
					"internalType": "string",
					"name": "",
					"type": "string"
				}
			],
			"stateMutability": "view",
			"type": "function"
		},
		{
			"inputs": [],
			"name": "acceptOwnership",
			"outputs": [],
			"stateMutability": "nonpayable",
			"type": "function"
		},
		{
			"inputs": [],
			"name": "feeRecipient",
			"outputs": [
				{
					"internalType": "address",
					"name": "",
					"type": "address"
				}
			],
			"stateMutability": "view",
			"type": "function"
		},
		{
			"inputs": [],
			"name": "getCurrentListingId",
			"outputs": [
				{
					"internalType": "uint256",
					"name": "",
					"type": "uint256"
				}
			],
			"stateMutability": "view",
			"type": "function"
		},
		{
			"inputs": [],
			"name": "getImplementation",
			"outputs": [
				{
					"internalType": "address",
					"name": "",
					"type": "address"
				}
			],
			"stateMutability": "view",
			"type": "function"
		},
		{
			"inputs": [
				{
					"internalType": "uint256",
					"name": "listingId",
					"type": "uint256"
				}
			],
			"name": "getListing",
			"outputs": [
				{
					"components": [
						{
							"internalType": "uint256",
							"name": "listingId",
							"type": "uint256"
						},
						{
							"internalType": "address",
							"name": "nftContract",
							"type": "address"
						},
						{
							"internalType": "uint256",
							"name": "tokenId",
							"type": "uint256"
						},
						{
							"internalType": "address",
							"name": "seller",
							"type": "address"
						},
						{
							"internalType": "uint256",
							"name": "price",
							"type": "uint256"
						},
						{
							"internalType": "uint256",
							"name": "startTime",
							"type": "uint256"
						},
						{
							"internalType": "uint256",
							"name": "endTime",
							"type": "uint256"
						},
						{
							"internalType": "bool",
							"name": "active",
							"type": "bool"
						},
						{
							"internalType": "string",
							"name": "ticketId",
							"type": "string"
						},
						{
							"internalType": "bool",
							"name": "pendingVerification",
							"type": "bool"
						}
					],
					"internalType": "struct SecondaryMarketStorage.Listing",
					"name": "",
					"type": "tuple"
				}
			],
			"stateMutability": "view",
			"type": "function"
		},
		{
			"inputs": [
				{
					"internalType": "uint256",
					"name": "listingId",
					"type": "uint256"
				}
			],
			"name": "getListingTicketStatus",
			"outputs": [
				{
					"internalType": "string",
					"name": "ticketId",
					"type": "string"
				},
				{
					"internalType": "enum SecondaryMarketStorage.TicketStatus",
					"name": "status",
					"type": "uint8"
				}
			],
			"stateMutability": "view",
			"type": "function"
		},
		{
			"inputs": [
				{
					"internalType": "bytes32",
					"name": "role",
					"type": "bytes32"
				}
			],
			"name": "getRoleAdmin",
			"outputs": [
				{
					"internalType": "bytes32",
					"name": "",
					"type": "bytes32"
				}
			],
			"stateMutability": "view",
			"type": "function"
		},
		{
			"inputs": [
				{
					"internalType": "bytes32",
					"name": "role",
					"type": "bytes32"
				},
				{
					"internalType": "address",
					"name": "account",
					"type": "address"
				}
			],
			"name": "grantRole",
			"outputs": [],
			"stateMutability": "nonpayable",
			"type": "function"
		},
		{
			"inputs": [
				{
					"internalType": "bytes32",
					"name": "requestId",
					"type": "bytes32"
				},
				{
					"internalType": "bytes",
					"name": "response",
					"type": "bytes"
				},
				{
					"internalType": "bytes",
					"name": "err",
					"type": "bytes"
				}
			],
			"name": "handleOracleFulfillment",
			"outputs": [],
			"stateMutability": "nonpayable",
			"type": "function"
		},
		{
			"inputs": [
				{
					"internalType": "bytes32",
					"name": "role",
					"type": "bytes32"
				},
				{
					"internalType": "address",
					"name": "account",
					"type": "address"
				}
			],
			"name": "hasRole",
			"outputs": [
				{
					"internalType": "bool",
					"name": "",
					"type": "bool"
				}
			],
			"stateMutability": "view",
			"type": "function"
		},
		{
			"inputs": [
				{
					"internalType": "address",
					"name": "_feeRecipient",
					"type": "address"
				},
				{
					"internalType": "uint256",
					"name": "_platformFeePercent",
					"type": "uint256"
				},
				{
					"internalType": "uint256",
					"name": "_minListingDuration",
					"type": "uint256"
				},
				{
					"internalType": "uint256",
					"name": "_maxListingDuration",
					"type": "uint256"
				},
				{
					"internalType": "address",
					"name": "_router",
					"type": "address"
				},
				{
					"internalType": "uint64",
					"name": "_subscriptionId",
					"type": "uint64"
				}
			],
			"name": "initialize",
			"outputs": [],
			"stateMutability": "nonpayable",
			"type": "function"
		},
		{
			"inputs": [
				{
					"internalType": "string",
					"name": "ticketId",
					"type": "string"
				}
			],
			"name": "isTicketUsed",
			"outputs": [
				{
					"internalType": "bool",
					"name": "",
					"type": "bool"
				}
			],
			"stateMutability": "view",
			"type": "function"
		},
		{
			"inputs": [
				{
					"internalType": "address",
					"name": "nftContract",
					"type": "address"
				},
				{
					"internalType": "uint256",
					"name": "tokenId",
					"type": "uint256"
				}
			],
			"name": "isTokenListed",
			"outputs": [
				{
					"internalType": "bool",
					"name": "",
					"type": "bool"
				}
			],
			"stateMutability": "view",
			"type": "function"
		},
		{
			"inputs": [],
			"name": "maxListingDuration",
			"outputs": [
				{
					"internalType": "uint256",
					"name": "",
					"type": "uint256"
				}
			],
			"stateMutability": "view",
			"type": "function"
		},
		{
			"inputs": [],
			"name": "minListingDuration",
			"outputs": [
				{
					"internalType": "uint256",
					"name": "",
					"type": "uint256"
				}
			],
			"stateMutability": "view",
			"type": "function"
		},
		{
			"inputs": [],
			"name": "owner",
			"outputs": [
				{
					"internalType": "address",
					"name": "",
					"type": "address"
				}
			],
			"stateMutability": "view",
			"type": "function"
		},
		{
			"inputs": [],
			"name": "paused",
			"outputs": [
				{
					"internalType": "bool",
					"name": "",
					"type": "bool"
				}
			],
			"stateMutability": "view",
			"type": "function"
		},
		{
			"inputs": [],
			"name": "platformFeePercent",
			"outputs": [
				{
					"internalType": "uint256",
					"name": "",
					"type": "uint256"
				}
			],
			"stateMutability": "view",
			"type": "function"
		},
		{
			"inputs": [],
			"name": "proxiableUUID",
			"outputs": [
				{
					"internalType": "bytes32",
					"name": "",
					"type": "bytes32"
				}
			],
			"stateMutability": "view",
			"type": "function"
		},
		{
			"inputs": [],
			"name": "remainingTickets",
			"outputs": [
				{
					"internalType": "uint256",
					"name": "",
					"type": "uint256"
				}
			],
			"stateMutability": "view",
			"type": "function"
		},
		{
			"inputs": [
				{
					"internalType": "bytes32",
					"name": "role",
					"type": "bytes32"
				},
				{
					"internalType": "address",
					"name": "callerConfirmation",
					"type": "address"
				}
			],
			"name": "renounceRole",
			"outputs": [],
			"stateMutability": "nonpayable",
			"type": "function"
		},
		{
			"inputs": [
				{
					"internalType": "uint64",
					"name": "subscriptionId",
					"type": "uint64"
				},
				{
					"internalType": "string[]",
					"name": "args",
					"type": "string[]"
				}
			],
			"name": "requestRemainingTickets",
			"outputs": [
				{
					"internalType": "bytes32",
					"name": "requestId",
					"type": "bytes32"
				}
			],
			"stateMutability": "nonpayable",
			"type": "function"
		},
		{
			"inputs": [
				{
					"internalType": "bytes32",
					"name": "role",
					"type": "bytes32"
				},
				{
					"internalType": "address",
					"name": "account",
					"type": "address"
				}
			],
			"name": "revokeRole",
			"outputs": [],
			"stateMutability": "nonpayable",
			"type": "function"
		},
		{
			"inputs": [],
			"name": "s_lastCheckedTicketId",
			"outputs": [
				{
					"internalType": "string",
					"name": "",
					"type": "string"
				}
			],
			"stateMutability": "view",
			"type": "function"
		},
		{
			"inputs": [],
			"name": "s_lastError",
			"outputs": [
				{
					"internalType": "bytes",
					"name": "",
					"type": "bytes"
				}
			],
			"stateMutability": "view",
			"type": "function"
		},
		{
			"inputs": [],
			"name": "s_lastRequestId",
			"outputs": [
				{
					"internalType": "bytes32",
					"name": "",
					"type": "bytes32"
				}
			],
			"stateMutability": "view",
			"type": "function"
		},
		{
			"inputs": [],
			"name": "s_lastResponse",
			"outputs": [
				{
					"internalType": "bytes",
					"name": "",
					"type": "bytes"
				}
			],
			"stateMutability": "view",
			"type": "function"
		},
		{
			"inputs": [],
			"name": "s_lastTicketUsed",
			"outputs": [
				{
					"internalType": "bool",
					"name": "",
					"type": "bool"
				}
			],
			"stateMutability": "view",
			"type": "function"
		},
		{
			"inputs": [],
			"name": "subscriptionId",
			"outputs": [
				{
					"internalType": "uint64",
					"name": "",
					"type": "uint64"
				}
			],
			"stateMutability": "view",
			"type": "function"
		},
		{
			"inputs": [
				{
					"internalType": "address",
					"name": "",
					"type": "address"
				}
			],
			"name": "supportedContracts",
			"outputs": [
				{
					"internalType": "bool",
					"name": "",
					"type": "bool"
				}
			],
			"stateMutability": "view",
			"type": "function"
		},
		{
			"inputs": [
				{
					"internalType": "bytes4",
					"name": "interfaceId",
					"type": "bytes4"
				}
			],
			"name": "supportsInterface",
			"outputs": [
				{
					"internalType": "bool",
					"name": "",
					"type": "bool"
				}
			],
			"stateMutability": "view",
			"type": "function"
		},
		{
			"inputs": [
				{
					"internalType": "string",
					"name": "",
					"type": "string"
				}
			],
			"name": "ticketUsageStatus",
			"outputs": [
				{
					"internalType": "bool",
					"name": "",
					"type": "bool"
				}
			],
			"stateMutability": "view",
			"type": "function"
		},
		{
			"inputs": [
				{
					"internalType": "address",
					"name": "to",
					"type": "address"
				}
			],
			"name": "transferOwnership",
			"outputs": [],
			"stateMutability": "nonpayable",
			"type": "function"
		},
		{
			"inputs": [
				{
					"internalType": "address",
					"name": "newImplementation",
					"type": "address"
				},
				{
					"internalType": "bytes",
					"name": "data",
					"type": "bytes"
				}
			],
			"name": "upgradeToAndCall",
			"outputs": [],
			"stateMutability": "payable",
			"type": "function"
		},
		{
			"inputs": [
				{
					"internalType": "uint64",
					"name": "subscriptionId",
					"type": "uint64"
				},
				{
					"internalType": "string",
					"name": "ticketId",
					"type": "string"
				}
			],
			"name": "verifyTicketUsage",
			"outputs": [
				{
					"internalType": "bytes32",
					"name": "requestId",
					"type": "bytes32"
				}
			],
			"stateMutability": "nonpayable",
			"type": "function"
		}
	]
}