{
	"data": {
		"bytecode": {
			"linkReferences": {},
			"object": "608060405260405180610240016040528061020281526020016135dc6102029139600b908161002e91906102a8565b50604051806101e001604052806101aa81526020016134326101aa9139600c908161005991906102a8565b50348015610065575f5ffd5b50610377565b5f81519050919050565b7f4e487b71000000000000000000000000000000000000000000000000000000005f52604160045260245ffd5b7f4e487b71000000000000000000000000000000000000000000000000000000005f52602260045260245ffd5b5f60028204905060018216806100e657607f821691505b6020821081036100f9576100f86100a2565b5b50919050565b5f819050815f5260205f209050919050565b5f6020601f8301049050919050565b5f82821b905092915050565b5f6008830261015b7fffffffffffffffffffffffffffffffffffffffffffffffffffffffffffffffff82610120565b6101658683610120565b95508019841693508086168417925050509392505050565b5f819050919050565b5f819050919050565b5f6101a96101a461019f8461017d565b610186565b61017d565b9050919050565b5f819050919050565b6101c28361018f565b6101d66101ce826101b0565b84845461012c565b825550505050565b5f5f905090565b6101ed6101de565b6101f88184846101b9565b505050565b5b8181101561021b576102105f826101e5565b6001810190506101fe565b5050565b601f82111561026057610231816100ff565b61023a84610111565b81016020851015610249578190505b61025d61025585610111565b8301826101fd565b50505b505050565b5f82821c905092915050565b5f6102805f1984600802610265565b1980831691505092915050565b5f6102988383610271565b9150826002028217905092915050565b6102b18261006b565b67ffffffffffffffff8111156102ca576102c9610075565b5b6102d482546100cf565b6102df82828561021f565b5f60209050601f831160018114610310575f84156102fe578287015190505b610308858261028d565b86555061036f565b601f19841661031e866100ff565b5f5b8281101561034557848901518255600182019150602085019450602081019050610320565b86831015610362578489015161035e601f891682610271565b8355505b6001600288020188555050505b505050505050565b6130ae806103845f395ff3fe608060405234801561000f575f5ffd5b506004361061012a575f3560e01c806379ba5097116100ab578063b1e217491161006f578063b1e2174914610322578063b7ff920e14610340578063def050c514610370578063f2fde38b1461038e578063f9aff1e8146103aa5761012a565b806379ba50971461028e5780638c639a85146102985780638da5cb5b146102b6578063957d90d4146102d4578063b106b39d146102f25761012a565b806346904840116100f257806346904840146101d45780634b0795a8146101f25780635a3d7263146102105780635d50483214610240578063731cbea81461025e5761012a565b806301c47c8b1461012e57806309c1ba2e1461014c5780630ca761751461016a57806334a9620c146101865780633944ea3a146101b6575b5f5ffd5b6101366103c8565b6040516101439190611c27565b60405180910390f35b6101546103da565b6040516101619190611c62565b60405180910390f35b610184600480360381019061017f9190611dfb565b6103f3565b005b6101a0600480360381019061019b9190611f0a565b6104b6565b6040516101ad9190611f76565b60405180910390f35b6101be6106d1565b6040516101cb9190611fef565b60405180910390f35b6101dc61075d565b6040516101e9919061204e565b60405180910390f35b6101fa610782565b6040516102079190611fef565b60405180910390f35b61022a60048036038101906102259190612067565b61080e565b6040516102379190611c27565b60405180910390f35b610248610844565b60405161025591906120ca565b60405180910390f35b61027860048036038101906102739190612138565b61084a565b6040516102859190611f76565b60405180910390f35b61029661096d565b005b6102a0610afc565b6040516102ad91906120ca565b60405180910390f35b6102be610b02565b6040516102cb919061204e565b60405180910390f35b6102dc610b29565b6040516102e991906120ca565b60405180910390f35b61030c60048036038101906103079190612233565b610b2f565b6040516103199190611c27565b60405180910390f35b61032a610b64565b6040516103379190611f76565b60405180910390f35b61035a600480360381019061035591906122a4565b610b6a565b6040516103679190611c27565b60405180910390f35b610378610b87565b60405161038591906120ca565b60405180910390f35b6103a860048036038101906103a391906122a4565b610b8d565b005b6103b2610ba1565b6040516103bf9190612321565b60405180910390f35b60095f9054906101000a900460ff1681565b60125f9054906101000a900467ffffffffffffffff1681565b60025f9054906101000a900473ffffffffffffffffffffffffffffffffffffffff1673ffffffffffffffffffffffffffffffffffffffff163373ffffffffffffffffffffffffffffffffffffffff1614610479576040517fc6829f8300000000000000000000000000000000000000000000000000000000815260040160405180910390fd5b610484838383610c2d565b827f85e1543bf2f84fe80c6badbce3648c8539ad1df4d2b3d822938ca0538be727e660405160405180910390a2505050565b5f6104bf610e69565b5f83839050036105085782826040517f5597dd230000000000000000000000000000000000000000000000000000000081526004016104ff92919061236d565b60405180910390fd5b610510611b66565b6105ab600c8054610520906123bc565b80601f016020809104026020016040519081016040528092919081815260200182805461054c906123bc565b80156105975780601f1061056e57610100808354040283529160200191610597565b820191905f5260205f20905b81548152906001019060200180831161057a57829003601f168201915b505050505082610ef990919063ffffffff16565b5f600167ffffffffffffffff8111156105c7576105c6611cd7565b5b6040519080825280602002602001820160405280156105fa57816020015b60608152602001906001900390816105e55790505b50905084848080601f0160208091040260200160405190810160405280939291908181526020018383808284375f81840152601f19601f82011690508083019250505050505050815f81518110610654576106536123ec565b5b60200260200101819052506106728183610f0990919063ffffffff16565b8484600891826106839291906125c3565b506106bd61069083610f50565b87620493e07f66756e2d657468657265756d2d7365706f6c69612d31000000000000000000005f1b61135b565b600381905550600354925050509392505050565b600480546106de906123bc565b80601f016020809104026020016040519081016040528092919081815260200182805461070a906123bc565b80156107555780601f1061072c57610100808354040283529160200191610755565b820191905f5260205f20905b81548152906001019060200180831161073857829003601f168201915b505050505081565b600f5f9054906101000a900473ffffffffffffffffffffffffffffffffffffffff1681565b6005805461078f906123bc565b80601f01602080910402602001604051908101604052809291908181526020018280546107bb906123bc565b80156108065780601f106107dd57610100808354040283529160200191610806565b820191905f5260205f20905b8154815290600101906020018083116107e957829003601f168201915b505050505081565b5f600783836040516108219291906126be565b90815260200160405180910390205f9054906101000a900460ff16905092915050565b60065481565b5f610853610e69565b61085b611b66565b6108f6600b805461086b906123bc565b80601f0160208091040260200160405190810160405280929190818152602001828054610897906123bc565b80156108e25780601f106108b9576101008083540402835291602001916108e2565b820191905f5260205f20905b8154815290600101906020018083116108c557829003601f168201915b505050505082610ef990919063ffffffff16565b5f848490501115610921576109208484906109119190612787565b82610f0990919063ffffffff16565b5b61095a61092d82610f50565b86620493e07f66756e2d657468657265756d2d7365706f6c69612d31000000000000000000005f1b61135b565b6003819055506003549150509392505050565b60015f9054906101000a900473ffffffffffffffffffffffffffffffffffffffff1673ffffffffffffffffffffffffffffffffffffffff163373ffffffffffffffffffffffffffffffffffffffff16146109fc576040517f08c379a00000000000000000000000000000000000000000000000000000000081526004016109f3906127e5565b60405180910390fd5b5f5f5f9054906101000a900473ffffffffffffffffffffffffffffffffffffffff169050335f5f6101000a81548173ffffffffffffffffffffffffffffffffffffffff021916908373ffffffffffffffffffffffffffffffffffffffff1602179055505f60015f6101000a81548173ffffffffffffffffffffffffffffffffffffffff021916908373ffffffffffffffffffffffffffffffffffffffff1602179055503373ffffffffffffffffffffffffffffffffffffffff168173ffffffffffffffffffffffffffffffffffffffff167f8be0079c531659141344cd1fd0a4f28419497f9722a3daafe3b4186f6b6457e060405160405180910390a350565b600e5481565b5f5f5f9054906101000a900473ffffffffffffffffffffffffffffffffffffffff16905090565b60105481565b6007818051602081018201805184825260208301602085012081835280955050505050505f915054906101000a900460ff1681565b60035481565b6015602052805f5260405f205f915054906101000a900460ff1681565b60115481565b610b95610e69565b610b9e8161143b565b50565b60088054610bae906123bc565b80601f0160208091040260200160405190810160405280929190818152602001828054610bda906123bc565b8015610c255780601f10610bfc57610100808354040283529160200191610c25565b820191905f5260205f20905b815481529060010190602001808311610c0857829003601f168201915b505050505081565b6003548314610c7357826040517fd068bf5b000000000000000000000000000000000000000000000000000000008152600401610c6a9190611f76565b60405180910390fd5b8160049081610c82919061285b565b508060059081610c92919061285b565b505f60088054610ca1906123bc565b90501115610df3575f8151148015610cbb57506020825110155b15610d90575f82806020019051810190610cd59190612954565b90505f5f821190508060076008604051610cef91906129ff565b90815260200160405180910390205f6101000a81548160ff0219169083151502179055508060095f6101000a81548160ff021916908315150217905550847f99f873583fde66fffee5947d1fa2f03d1cf170fc1c8e52e588cf4284767338676008838787604051610d639493929190612a96565b60405180910390a260405180602001604052805f81525060089081610d889190612aee565b505050610dee565b827f99f873583fde66fffee5947d1fa2f03d1cf170fc1c8e52e588cf42847673386760085f8585604051610dc79493929190612a96565b60405180910390a260405180602001604052805f81525060089081610dec9190612aee565b505b610e64565b5f8151148015610e0557506020825110155b15610e255781806020019051810190610e1e9190612954565b6006819055505b827ffc03b1503acd478faf9c08107596f6d5c04b4591fea84f8d6f21bdf613b5370e6006548484604051610e5b93929190612bbd565b60405180910390a25b505050565b5f5f9054906101000a900473ffffffffffffffffffffffffffffffffffffffff1673ffffffffffffffffffffffffffffffffffffffff163373ffffffffffffffffffffffffffffffffffffffff1614610ef7576040517f08c379a0000000000000000000000000000000000000000000000000000000008152600401610eee90612c4a565b60405180910390fd5b565b610f05825f5f84611566565b5050565b5f815103610f43576040517ffe936cb700000000000000000000000000000000000000000000000000000000815260040160405180910390fd5b808260a001819052505050565b60605f610f5e61010061160c565b9050610fa86040518060400160405280600c81526020017f636f64654c6f636174696f6e00000000000000000000000000000000000000008152508261163190919063ffffffff16565b610fd0835f01516002811115610fc157610fc0612c68565b5b8261165990919063ffffffff16565b6110186040518060400160405280600881526020017f6c616e67756167650000000000000000000000000000000000000000000000008152508261163190919063ffffffff16565b61104083604001515f81111561103157611030612c68565b5b8261165990919063ffffffff16565b6110886040518060400160405280600681526020017f736f7572636500000000000000000000000000000000000000000000000000008152508261163190919063ffffffff16565b61109f83606001518261163190919063ffffffff16565b5f8360a00151511115611156576110f46040518060400160405280600481526020017f61726773000000000000000000000000000000000000000000000000000000008152508261163190919063ffffffff16565b6110fd816116a8565b5f5f90505b8360a001515181101561114b576111408460a001518281518110611129576111286123ec565b5b60200260200101518361163190919063ffffffff16565b806001019050611102565b50611155816116d0565b5b5f8360800151511115611295575f600281111561117657611175612c68565b5b8360200151600281111561118d5761118c612c68565b5b036111c4576040517fa80d31f700000000000000000000000000000000000000000000000000000000815260040160405180910390fd5b61120c6040518060400160405280600f81526020017f736563726574734c6f636174696f6e00000000000000000000000000000000008152508261163190919063ffffffff16565b6112358360200151600281111561122657611225612c68565b5b8261165990919063ffffffff16565b61127d6040518060400160405280600781526020017f73656372657473000000000000000000000000000000000000000000000000008152508261163190919063ffffffff16565b6112948360800151826116f890919063ffffffff16565b5b5f8360c0015151111561134c576112ea6040518060400160405280600981526020017f62797465734172677300000000000000000000000000000000000000000000008152508261163190919063ffffffff16565b6112f3816116a8565b5f5f90505b8360c0015151811015611341576113368460c00151828151811061131f5761131e6123ec565b5b6020026020010151836116f890919063ffffffff16565b8060010190506112f8565b5061134b816116d0565b5b805f01515f0151915050919050565b5f5f60025f9054906101000a900473ffffffffffffffffffffffffffffffffffffffff1673ffffffffffffffffffffffffffffffffffffffff1663461d27628688600188886040518663ffffffff1660e01b81526004016113c0959493929190612ccf565b6020604051808303815f875af11580156113dc573d5f5f3e3d5ffd5b505050506040513d601f19601f820116820180604052508101906114009190612d3b565b9050807f1131472297a800fee664d1d89cfa8f7676ff07189ecc53f80bbb5f4969099db860405160405180910390a280915050949350505050565b3373ffffffffffffffffffffffffffffffffffffffff168173ffffffffffffffffffffffffffffffffffffffff16036114a9576040517f08c379a00000000000000000000000000000000000000000000000000000000081526004016114a090612db0565b60405180910390fd5b8060015f6101000a81548173ffffffffffffffffffffffffffffffffffffffff021916908373ffffffffffffffffffffffffffffffffffffffff1602179055508073ffffffffffffffffffffffffffffffffffffffff165f5f9054906101000a900473ffffffffffffffffffffffffffffffffffffffff1673ffffffffffffffffffffffffffffffffffffffff167fed8889f560326eb138920d842192f0eb3dd22b4f139c87a2c57538e05bae127860405160405180910390a350565b5f8151036115a0576040517f22ce3edd00000000000000000000000000000000000000000000000000000000815260040160405180910390fd5b82845f019060028111156115b7576115b6612c68565b5b908160028111156115cb576115ca612c68565b5b815250508184604001905f8111156115e6576115e5612c68565b5b90815f8111156115f9576115f8612c68565b5b8152505080846060018190525050505050565b611614611bd5565b611621815f015183611720565b505f816020018181525050919050565b61163e8260038351611796565b61165481835f015161193690919063ffffffff16565b505050565b61167a60026005600660ff16901b17835f015161195290919063ffffffff16565b506116a4828260405160200161169091906120ca565b6040516020818303038152906040526116f8565b5050565b6116b38160046119b9565b6001816020018181516116c69190612dfb565b9150818152505050565b6116db8160076119b9565b6001816020018181516116ee9190612e2e565b9150818152505050565b6117058260028351611796565b61171b81835f015161193690919063ffffffff16565b505050565b611728611bf4565b5f6020836117369190612e8e565b14611762576020826117489190612e8e565b60206117549190612e2e565b8261175f9190612dfb565b91505b818360200181815250506040518084525f815282810160200181811015611787575f5ffd5b80604052505082905092915050565b60178167ffffffffffffffff16116117d0576117ca8160058460ff16901b60ff1617845f015161195290919063ffffffff16565b50611931565b60ff8167ffffffffffffffff161161182c57611802601860058460ff16901b17845f015161195290919063ffffffff16565b506118268167ffffffffffffffff166001855f01516119de9092919063ffffffff16565b50611930565b61ffff8167ffffffffffffffff16116118895761185f601960058460ff16901b17845f015161195290919063ffffffff16565b506118838167ffffffffffffffff166002855f01516119de9092919063ffffffff16565b5061192f565b63ffffffff8167ffffffffffffffff16116118e8576118be601a60058460ff16901b17845f015161195290919063ffffffff16565b506118e28167ffffffffffffffff166004855f01516119de9092919063ffffffff16565b5061192e565b611908601b60058460ff16901b17845f015161195290919063ffffffff16565b5061192c8167ffffffffffffffff166008855f01516119de9092919063ffffffff16565b505b5b5b5b505050565b61193e611bf4565b61194a83838451611a67565b905092915050565b61195a611bf4565b5f835f01515190505f6001826119709190612dfb565b905084602001518210611994576119938560028361198e9190612ebe565b611b44565b5b845160208382010185815381518311156119ac578282525b5050849250505092915050565b6119d9601f60058360ff16901b17835f015161195290919063ffffffff16565b505050565b6119e6611bf4565b5f845f01515190505f81846119fb9190612dfb565b90508560200151811115611a2057611a1f86600283611a1a9190612ebe565b611b44565b5b5f600185610100611a31919061302e565b611a3b9190612e2e565b905086518281018783198251161781528151841115611a58578382525b50508693505050509392505050565b611a6f611bf4565b8251821115611a7c575f5ffd5b5f845f01515190505f8382611a919190612dfb565b90508560200151811115611ab657611ab586600283611ab09190612ebe565b611b44565b5b5f5f87518051856020830101935080851115611ad0578482525b60208901925050505b60208610611b175780518252602082611af29190612dfb565b9150602081611b019190612dfb565b9050602086611b109190612e2e565b9550611ad9565b5f6001876020036101000a0390508019825116818451168181178552505050879450505050509392505050565b5f825f01519050611b558383611720565b50611b608382611936565b50505050565b6040518060e001604052805f6002811115611b8457611b83612c68565b5b81526020015f6002811115611b9c57611b9b612c68565b5b81526020015f5f811115611bb357611bb2612c68565b5b8152602001606081526020016060815260200160608152602001606081525090565b6040518060400160405280611be8611bf4565b81526020015f81525090565b6040518060400160405280606081526020015f81525090565b5f8115159050919050565b611c2181611c0d565b82525050565b5f602082019050611c3a5f830184611c18565b92915050565b5f67ffffffffffffffff82169050919050565b611c5c81611c40565b82525050565b5f602082019050611c755f830184611c53565b92915050565b5f604051905090565b5f5ffd5b5f5ffd5b5f819050919050565b611c9e81611c8c565b8114611ca8575f5ffd5b50565b5f81359050611cb981611c95565b92915050565b5f5ffd5b5f5ffd5b5f601f19601f8301169050919050565b7f4e487b71000000000000000000000000000000000000000000000000000000005f52604160045260245ffd5b611d0d82611cc7565b810181811067ffffffffffffffff82111715611d2c57611d2b611cd7565b5b80604052505050565b5f611d3e611c7b565b9050611d4a8282611d04565b919050565b5f67ffffffffffffffff821115611d6957611d68611cd7565b5b611d7282611cc7565b9050602081019050919050565b828183375f83830152505050565b5f611d9f611d9a84611d4f565b611d35565b905082815260208101848484011115611dbb57611dba611cc3565b5b611dc6848285611d7f565b509392505050565b5f82601f830112611de257611de1611cbf565b5b8135611df2848260208601611d8d565b91505092915050565b5f5f5f60608486031215611e1257611e11611c84565b5b5f611e1f86828701611cab565b935050602084013567ffffffffffffffff811115611e4057611e3f611c88565b5b611e4c86828701611dce565b925050604084013567ffffffffffffffff811115611e6d57611e6c611c88565b5b611e7986828701611dce565b9150509250925092565b611e8c81611c40565b8114611e96575f5ffd5b50565b5f81359050611ea781611e83565b92915050565b5f5ffd5b5f5ffd5b5f5f83601f840112611eca57611ec9611cbf565b5b8235905067ffffffffffffffff811115611ee757611ee6611ead565b5b602083019150836001820283011115611f0357611f02611eb1565b5b9250929050565b5f5f5f60408486031215611f2157611f20611c84565b5b5f611f2e86828701611e99565b935050602084013567ffffffffffffffff811115611f4f57611f4e611c88565b5b611f5b86828701611eb5565b92509250509250925092565b611f7081611c8c565b82525050565b5f602082019050611f895f830184611f67565b92915050565b5f81519050919050565b5f82825260208201905092915050565b8281835e5f83830152505050565b5f611fc182611f8f565b611fcb8185611f99565b9350611fdb818560208601611fa9565b611fe481611cc7565b840191505092915050565b5f6020820190508181035f8301526120078184611fb7565b905092915050565b5f73ffffffffffffffffffffffffffffffffffffffff82169050919050565b5f6120388261200f565b9050919050565b6120488161202e565b82525050565b5f6020820190506120615f83018461203f565b92915050565b5f5f6020838503121561207d5761207c611c84565b5b5f83013567ffffffffffffffff81111561209a57612099611c88565b5b6120a685828601611eb5565b92509250509250929050565b5f819050919050565b6120c4816120b2565b82525050565b5f6020820190506120dd5f8301846120bb565b92915050565b5f5f83601f8401126120f8576120f7611cbf565b5b8235905067ffffffffffffffff81111561211557612114611ead565b5b60208301915083602082028301111561213157612130611eb1565b5b9250929050565b5f5f5f6040848603121561214f5761214e611c84565b5b5f61215c86828701611e99565b935050602084013567ffffffffffffffff81111561217d5761217c611c88565b5b612189868287016120e3565b92509250509250925092565b5f67ffffffffffffffff8211156121af576121ae611cd7565b5b6121b882611cc7565b9050602081019050919050565b5f6121d76121d284612195565b611d35565b9050828152602081018484840111156121f3576121f2611cc3565b5b6121fe848285611d7f565b509392505050565b5f82601f83011261221a57612219611cbf565b5b813561222a8482602086016121c5565b91505092915050565b5f6020828403121561224857612247611c84565b5b5f82013567ffffffffffffffff81111561226557612264611c88565b5b61227184828501612206565b91505092915050565b6122838161202e565b811461228d575f5ffd5b50565b5f8135905061229e8161227a565b92915050565b5f602082840312156122b9576122b8611c84565b5b5f6122c684828501612290565b91505092915050565b5f81519050919050565b5f82825260208201905092915050565b5f6122f3826122cf565b6122fd81856122d9565b935061230d818560208601611fa9565b61231681611cc7565b840191505092915050565b5f6020820190508181035f83015261233981846122e9565b905092915050565b5f61234c83856122d9565b9350612359838584611d7f565b61236283611cc7565b840190509392505050565b5f6020820190508181035f830152612386818486612341565b90509392505050565b7f4e487b71000000000000000000000000000000000000000000000000000000005f52602260045260245ffd5b5f60028204905060018216806123d357607f821691505b6020821081036123e6576123e561238f565b5b50919050565b7f4e487b71000000000000000000000000000000000000000000000000000000005f52603260045260245ffd5b5f82905092915050565b5f819050815f5260205f209050919050565b5f6020601f8301049050919050565b5f82821b905092915050565b5f6008830261247f7fffffffffffffffffffffffffffffffffffffffffffffffffffffffffffffffff82612444565b6124898683612444565b95508019841693508086168417925050509392505050565b5f819050919050565b5f6124c46124bf6124ba846120b2565b6124a1565b6120b2565b9050919050565b5f819050919050565b6124dd836124aa565b6124f16124e9826124cb565b848454612450565b825550505050565b5f5f905090565b6125086124f9565b6125138184846124d4565b505050565b5b818110156125365761252b5f82612500565b600181019050612519565b5050565b601f82111561257b5761254c81612423565b61255584612435565b81016020851015612564578190505b61257861257085612435565b830182612518565b50505b505050565b5f82821c905092915050565b5f61259b5f1984600802612580565b1980831691505092915050565b5f6125b3838361258c565b9150826002028217905092915050565b6125cd8383612419565b67ffffffffffffffff8111156125e6576125e5611cd7565b5b6125f082546123bc565b6125fb82828561253a565b5f601f831160018114612628575f8415612616578287013590505b61262085826125a8565b865550612687565b601f19841661263686612423565b5f5b8281101561265d57848901358255600182019150602085019450602081019050612638565b8683101561267a5784890135612676601f89168261258c565b8355505b6001600288020188555050505b50505050505050565b5f81905092915050565b5f6126a58385612690565b93506126b2838584611d7f565b82840190509392505050565b5f6126ca82848661269a565b91508190509392505050565b5f67ffffffffffffffff8211156126f0576126ef611cd7565b5b602082029050602081019050919050565b5f61271361270e846126d6565b611d35565b9050808382526020820190506020840283018581111561273657612735611eb1565b5b835b8181101561277d57803567ffffffffffffffff81111561275b5761275a611cbf565b5b8086016127688982612206565b85526020850194505050602081019050612738565b5050509392505050565b5f612793368484612701565b905092915050565b7f4d7573742062652070726f706f736564206f776e6572000000000000000000005f82015250565b5f6127cf6016836122d9565b91506127da8261279b565b602082019050919050565b5f6020820190508181035f8301526127fc816127c3565b9050919050565b5f819050815f5260205f209050919050565b601f8211156128565761282781612803565b61283084612435565b8101602085101561283f578190505b61285361284b85612435565b830182612518565b50505b505050565b61286482611f8f565b67ffffffffffffffff81111561287d5761287c611cd7565b5b61288782546123bc565b612892828285612815565b5f60209050601f8311600181146128c3575f84156128b1578287015190505b6128bb85826125a8565b865550612922565b601f1984166128d186612803565b5f5b828110156128f8578489015182556001820191506020850194506020810190506128d3565b868310156129155784890151612911601f89168261258c565b8355505b6001600288020188555050505b505050505050565b612933816120b2565b811461293d575f5ffd5b50565b5f8151905061294e8161292a565b92915050565b5f6020828403121561296957612968611c84565b5b5f61297684828501612940565b91505092915050565b5f815461298b816123bc565b6129958186612690565b9450600182165f81146129af57600181146129c4576129f6565b60ff19831686528115158202860193506129f6565b6129cd85612423565b5f5b838110156129ee578154818901526001820191506020810190506129cf565b838801955050505b50505092915050565b5f612a0a828461297f565b915081905092915050565b5f8154612a21816123bc565b612a2b81866122d9565b9450600182165f8114612a455760018114612a5b57612a8d565b60ff198316865281151560200286019350612a8d565b612a6485612423565b5f5b83811015612a8557815481890152600182019150602081019050612a66565b808801955050505b50505092915050565b5f6080820190508181035f830152612aae8187612a15565b9050612abd6020830186611c18565b8181036040830152612acf8185611fb7565b90508181036060830152612ae38184611fb7565b905095945050505050565b612af7826122cf565b67ffffffffffffffff811115612b1057612b0f611cd7565b5b612b1a82546123bc565b612b2582828561253a565b5f60209050601f831160018114612b56575f8415612b44578287015190505b612b4e85826125a8565b865550612bb5565b601f198416612b6486612423565b5f5b82811015612b8b57848901518255600182019150602085019450602081019050612b66565b86831015612ba85784890151612ba4601f89168261258c565b8355505b6001600288020188555050505b505050505050565b5f606082019050612bd05f8301866120bb565b8181036020830152612be28185611fb7565b90508181036040830152612bf68184611fb7565b9050949350505050565b7f4f6e6c792063616c6c61626c65206279206f776e6572000000000000000000005f82015250565b5f612c346016836122d9565b9150612c3f82612c00565b602082019050919050565b5f6020820190508181035f830152612c6181612c28565b9050919050565b7f4e487b71000000000000000000000000000000000000000000000000000000005f52602160045260245ffd5b5f61ffff82169050919050565b612cab81612c95565b82525050565b5f63ffffffff82169050919050565b612cc981612cb1565b82525050565b5f60a082019050612ce25f830188611c53565b8181036020830152612cf48187611fb7565b9050612d036040830186612ca2565b612d106060830185612cc0565b612d1d6080830184611f67565b9695505050505050565b5f81519050612d3581611c95565b92915050565b5f60208284031215612d5057612d4f611c84565b5b5f612d5d84828501612d27565b91505092915050565b7f43616e6e6f74207472616e7366657220746f2073656c660000000000000000005f82015250565b5f612d9a6017836122d9565b9150612da582612d66565b602082019050919050565b5f6020820190508181035f830152612dc781612d8e565b9050919050565b7f4e487b71000000000000000000000000000000000000000000000000000000005f52601160045260245ffd5b5f612e05826120b2565b9150612e10836120b2565b9250828201905080821115612e2857612e27612dce565b5b92915050565b5f612e38826120b2565b9150612e43836120b2565b9250828203905081811115612e5b57612e5a612dce565b5b92915050565b7f4e487b71000000000000000000000000000000000000000000000000000000005f52601260045260245ffd5b5f612e98826120b2565b9150612ea3836120b2565b925082612eb357612eb2612e61565b5b828206905092915050565b5f612ec8826120b2565b9150612ed3836120b2565b9250828202612ee1816120b2565b91508282048414831517612ef857612ef7612dce565b5b5092915050565b5f8160011c9050919050565b5f5f8291508390505b6001851115612f5457808604811115612f3057612f2f612dce565b5b6001851615612f3f5780820291505b8081029050612f4d85612eff565b9450612f14565b94509492505050565b5f82612f6c5760019050613027565b81612f79575f9050613027565b8160018114612f8f5760028114612f9957612fc8565b6001915050613027565b60ff841115612fab57612faa612dce565b5b8360020a915084821115612fc257612fc1612dce565b5b50613027565b5060208310610133831016604e8410600b8410161715612ffd5782820a905083811115612ff857612ff7612dce565b5b613027565b61300a8484846001612f0b565b9250905081840481111561302157613020612dce565b5b81810290505b9392505050565b5f613038826120b2565b9150613043836120b2565b92506130707fffffffffffffffffffffffffffffffffffffffffffffffffffffffffffffffff8484612f5d565b90509291505056fea2646970667358221220e860ad74d4325c806e799ce0337582de79fdc43b99c42f3b3606288053eb857c64736f6c634300081e0033636f6e7374207469636b65744964203d20617267735b305d3b636f6e73742075726c203d202768747470733a2f2f3638343163663361643438353136643164333563663731632e6d6f636b6170692e696f2f7665726966797469636b6574732f27202b207469636b657449643b636f6e737420726573706f6e7365203d2061776169742046756e6374696f6e732e6d616b654874747052657175657374287b2075726c207d293b69662028726573706f6e73652e6572726f7229207b207468726f77204572726f72282752657175657374206661696c656427293b207d636f6e73742064617461203d20726573706f6e73652e646174613b696620282164617461207c7c20747970656f66206461746120213d3d20276f626a6563742729207468726f77204572726f7228605469636b657420494420247b7469636b657449647d206e6f7420666f756e64206f7220696e76616c696460293b636f6e737420697355736564203d20646174612e75736564203d3d3d20747275653b72657475726e2046756e6374696f6e732e656e636f646555696e7432353628697355736564203f2031203a2030293b636f6e7374206576656e744964203d20617267735b305d3b636f6e73742075726c203d202768747470733a2f2f3638343163663361643438353136643164333563663731632e6d6f636b6170692e696f2f7469636b6574732f27202b206576656e7449643b636f6e737420726573706f6e7365203d2061776169742046756e6374696f6e732e6d616b654874747052657175657374287b2075726c207d293b69662028726573706f6e73652e6572726f7229207b207468726f77204572726f72282752657175657374206661696c656427293b207d636f6e73742064617461203d20726573706f6e73652e646174613b696620282164617461207c7c20747970656f66206461746120213d3d20276f626a6563742729207468726f77204572726f722860496e76616c696420726573706f6e736560293b636f6e73742072617752656d61696e696e67203d20646174612e72656d61696e696e673b636f6e737420617661696c61626c65203d204e756d6265722872617752656d61696e696e67293b69662028214e756d6265722e697346696e69746528617661696c61626c652929207468726f77204572726f722860496e76616c6964207469636b657420636f756e743a20247b72617752656d61696e696e677d60293b72657475726e2046756e6374696f6e732e656e636f646555696e7432353628617661696c61626c65293b",
			"opcodes": "PUSH1 0x80 PUSH1 0x40 MSTORE PUSH1 0x40 MLOAD DUP1 PUSH2 0x240 ADD PUSH1 0x40 MSTORE DUP1 PUSH2 0x202 DUP2 MSTORE PUSH1 0x20 ADD PUSH2 0x35DC PUSH2 0x202 SWAP2 CODECOPY PUSH1 0xB SWAP1 DUP2 PUSH2 0x2E SWAP2 SWAP1 PUSH2 0x2A8 JUMP JUMPDEST POP PUSH1 0x40 MLOAD DUP1 PUSH2 0x1E0 ADD PUSH1 0x40 MSTORE DUP1 PUSH2 0x1AA DUP2 MSTORE PUSH1 0x20 ADD PUSH2 0x3432 PUSH2 0x1AA SWAP2 CODECOPY PUSH1 0xC SWAP1 DUP2 PUSH2 0x59 SWAP2 SWAP1 PUSH2 0x2A8 JUMP JUMPDEST POP CALLVALUE DUP1 ISZERO PUSH2 0x65 JUMPI PUSH0 PUSH0 REVERT JUMPDEST POP PUSH2 0x377 JUMP JUMPDEST PUSH0 DUP2 MLOAD SWAP1 POP SWAP2 SWAP1 POP JUMP JUMPDEST PUSH32 0x4E487B7100000000000000000000000000000000000000000000000000000000 PUSH0 MSTORE PUSH1 0x41 PUSH1 0x4 MSTORE PUSH1 0x24 PUSH0 REVERT JUMPDEST PUSH32 0x4E487B7100000000000000000000000000000000000000000000000000000000 PUSH0 MSTORE PUSH1 0x22 PUSH1 0x4 MSTORE PUSH1 0x24 PUSH0 REVERT JUMPDEST PUSH0 PUSH1 0x2 DUP3 DIV SWAP1 POP PUSH1 0x1 DUP3 AND DUP1 PUSH2 0xE6 JUMPI PUSH1 0x7F DUP3 AND SWAP2 POP JUMPDEST PUSH1 0x20 DUP3 LT DUP2 SUB PUSH2 0xF9 JUMPI PUSH2 0xF8 PUSH2 0xA2 JUMP JUMPDEST JUMPDEST POP SWAP2 SWAP1 POP JUMP JUMPDEST PUSH0 DUP2 SWAP1 POP DUP2 PUSH0 MSTORE PUSH1 0x20 PUSH0 KECCAK256 SWAP1 POP SWAP2 SWAP1 POP JUMP JUMPDEST PUSH0 PUSH1 0x20 PUSH1 0x1F DUP4 ADD DIV SWAP1 POP SWAP2 SWAP1 POP JUMP JUMPDEST PUSH0 DUP3 DUP3 SHL SWAP1 POP SWAP3 SWAP2 POP POP JUMP JUMPDEST PUSH0 PUSH1 0x8 DUP4 MUL PUSH2 0x15B PUSH32 0xFFFFFFFFFFFFFFFFFFFFFFFFFFFFFFFFFFFFFFFFFFFFFFFFFFFFFFFFFFFFFFFF DUP3 PUSH2 0x120 JUMP JUMPDEST PUSH2 0x165 DUP7 DUP4 PUSH2 0x120 JUMP JUMPDEST SWAP6 POP DUP1 NOT DUP5 AND SWAP4 POP DUP1 DUP7 AND DUP5 OR SWAP3 POP POP POP SWAP4 SWAP3 POP POP POP JUMP JUMPDEST PUSH0 DUP2 SWAP1 POP SWAP2 SWAP1 POP JUMP JUMPDEST PUSH0 DUP2 SWAP1 POP SWAP2 SWAP1 POP JUMP JUMPDEST PUSH0 PUSH2 0x1A9 PUSH2 0x1A4 PUSH2 0x19F DUP5 PUSH2 0x17D JUMP JUMPDEST PUSH2 0x186 JUMP JUMPDEST PUSH2 0x17D JUMP JUMPDEST SWAP1 POP SWAP2 SWAP1 POP JUMP JUMPDEST PUSH0 DUP2 SWAP1 POP SWAP2 SWAP1 POP JUMP JUMPDEST PUSH2 0x1C2 DUP4 PUSH2 0x18F JUMP JUMPDEST PUSH2 0x1D6 PUSH2 0x1CE DUP3 PUSH2 0x1B0 JUMP JUMPDEST DUP5 DUP5 SLOAD PUSH2 0x12C JUMP JUMPDEST DUP3 SSTORE POP POP POP POP JUMP JUMPDEST PUSH0 PUSH0 SWAP1 POP SWAP1 JUMP JUMPDEST PUSH2 0x1ED PUSH2 0x1DE JUMP JUMPDEST PUSH2 0x1F8 DUP2 DUP5 DUP5 PUSH2 0x1B9 JUMP JUMPDEST POP POP POP JUMP JUMPDEST JUMPDEST DUP2 DUP2 LT ISZERO PUSH2 0x21B JUMPI PUSH2 0x210 PUSH0 DUP3 PUSH2 0x1E5 JUMP JUMPDEST PUSH1 0x1 DUP2 ADD SWAP1 POP PUSH2 0x1FE JUMP JUMPDEST POP POP JUMP JUMPDEST PUSH1 0x1F DUP3 GT ISZERO PUSH2 0x260 JUMPI PUSH2 0x231 DUP2 PUSH2 0xFF JUMP JUMPDEST PUSH2 0x23A DUP5 PUSH2 0x111 JUMP JUMPDEST DUP2 ADD PUSH1 0x20 DUP6 LT ISZERO PUSH2 0x249 JUMPI DUP2 SWAP1 POP JUMPDEST PUSH2 0x25D PUSH2 0x255 DUP6 PUSH2 0x111 JUMP JUMPDEST DUP4 ADD DUP3 PUSH2 0x1FD JUMP JUMPDEST POP POP JUMPDEST POP POP POP JUMP JUMPDEST PUSH0 DUP3 DUP3 SHR SWAP1 POP SWAP3 SWAP2 POP POP JUMP JUMPDEST PUSH0 PUSH2 0x280 PUSH0 NOT DUP5 PUSH1 0x8 MUL PUSH2 0x265 JUMP JUMPDEST NOT DUP1 DUP4 AND SWAP2 POP POP SWAP3 SWAP2 POP POP JUMP JUMPDEST PUSH0 PUSH2 0x298 DUP4 DUP4 PUSH2 0x271 JUMP JUMPDEST SWAP2 POP DUP3 PUSH1 0x2 MUL DUP3 OR SWAP1 POP SWAP3 SWAP2 POP POP JUMP JUMPDEST PUSH2 0x2B1 DUP3 PUSH2 0x6B JUMP JUMPDEST PUSH8 0xFFFFFFFFFFFFFFFF DUP2 GT ISZERO PUSH2 0x2CA JUMPI PUSH2 0x2C9 PUSH2 0x75 JUMP JUMPDEST JUMPDEST PUSH2 0x2D4 DUP3 SLOAD PUSH2 0xCF JUMP JUMPDEST PUSH2 0x2DF DUP3 DUP3 DUP6 PUSH2 0x21F JUMP JUMPDEST PUSH0 PUSH1 0x20 SWAP1 POP PUSH1 0x1F DUP4 GT PUSH1 0x1 DUP2 EQ PUSH2 0x310 JUMPI PUSH0 DUP5 ISZERO PUSH2 0x2FE JUMPI DUP3 DUP8 ADD MLOAD SWAP1 POP JUMPDEST PUSH2 0x308 DUP6 DUP3 PUSH2 0x28D JUMP JUMPDEST DUP7 SSTORE POP PUSH2 0x36F JUMP JUMPDEST PUSH1 0x1F NOT DUP5 AND PUSH2 0x31E DUP7 PUSH2 0xFF JUMP JUMPDEST PUSH0 JUMPDEST DUP3 DUP2 LT ISZERO PUSH2 0x345 JUMPI DUP5 DUP10 ADD MLOAD DUP3 SSTORE PUSH1 0x1 DUP3 ADD SWAP2 POP PUSH1 0x20 DUP6 ADD SWAP5 POP PUSH1 0x20 DUP2 ADD SWAP1 POP PUSH2 0x320 JUMP JUMPDEST DUP7 DUP4 LT ISZERO PUSH2 0x362 JUMPI DUP5 DUP10 ADD MLOAD PUSH2 0x35E PUSH1 0x1F DUP10 AND DUP3 PUSH2 0x271 JUMP JUMPDEST DUP4 SSTORE POP JUMPDEST PUSH1 0x1 PUSH1 0x2 DUP9 MUL ADD DUP9 SSTORE POP POP POP JUMPDEST POP POP POP POP POP POP JUMP JUMPDEST PUSH2 0x30AE DUP1 PUSH2 0x384 PUSH0 CODECOPY PUSH0 RETURN INVALID PUSH1 0x80 PUSH1 0x40 MSTORE CALLVALUE DUP1 ISZERO PUSH2 0xF JUMPI PUSH0 PUSH0 REVERT JUMPDEST POP PUSH1 0x4 CALLDATASIZE LT PUSH2 0x12A JUMPI PUSH0 CALLDATALOAD PUSH1 0xE0 SHR DUP1 PUSH4 0x79BA5097 GT PUSH2 0xAB JUMPI DUP1 PUSH4 0xB1E21749 GT PUSH2 0x6F JUMPI DUP1 PUSH4 0xB1E21749 EQ PUSH2 0x322 JUMPI DUP1 PUSH4 0xB7FF920E EQ PUSH2 0x340 JUMPI DUP1 PUSH4 0xDEF050C5 EQ PUSH2 0x370 JUMPI DUP1 PUSH4 0xF2FDE38B EQ PUSH2 0x38E JUMPI DUP1 PUSH4 0xF9AFF1E8 EQ PUSH2 0x3AA JUMPI PUSH2 0x12A JUMP JUMPDEST DUP1 PUSH4 0x79BA5097 EQ PUSH2 0x28E JUMPI DUP1 PUSH4 0x8C639A85 EQ PUSH2 0x298 JUMPI DUP1 PUSH4 0x8DA5CB5B EQ PUSH2 0x2B6 JUMPI DUP1 PUSH4 0x957D90D4 EQ PUSH2 0x2D4 JUMPI DUP1 PUSH4 0xB106B39D EQ PUSH2 0x2F2 JUMPI PUSH2 0x12A JUMP JUMPDEST DUP1 PUSH4 0x46904840 GT PUSH2 0xF2 JUMPI DUP1 PUSH4 0x46904840 EQ PUSH2 0x1D4 JUMPI DUP1 PUSH4 0x4B0795A8 EQ PUSH2 0x1F2 JUMPI DUP1 PUSH4 0x5A3D7263 EQ PUSH2 0x210 JUMPI DUP1 PUSH4 0x5D504832 EQ PUSH2 0x240 JUMPI DUP1 PUSH4 0x731CBEA8 EQ PUSH2 0x25E JUMPI PUSH2 0x12A JUMP JUMPDEST DUP1 PUSH4 0x1C47C8B EQ PUSH2 0x12E JUMPI DUP1 PUSH4 0x9C1BA2E EQ PUSH2 0x14C JUMPI DUP1 PUSH4 0xCA76175 EQ PUSH2 0x16A JUMPI DUP1 PUSH4 0x34A9620C EQ PUSH2 0x186 JUMPI DUP1 PUSH4 0x3944EA3A EQ PUSH2 0x1B6 JUMPI JUMPDEST PUSH0 PUSH0 REVERT JUMPDEST PUSH2 0x136 PUSH2 0x3C8 JUMP JUMPDEST PUSH1 0x40 MLOAD PUSH2 0x143 SWAP2 SWAP1 PUSH2 0x1C27 JUMP JUMPDEST PUSH1 0x40 MLOAD DUP1 SWAP2 SUB SWAP1 RETURN JUMPDEST PUSH2 0x154 PUSH2 0x3DA JUMP JUMPDEST PUSH1 0x40 MLOAD PUSH2 0x161 SWAP2 SWAP1 PUSH2 0x1C62 JUMP JUMPDEST PUSH1 0x40 MLOAD DUP1 SWAP2 SUB SWAP1 RETURN JUMPDEST PUSH2 0x184 PUSH1 0x4 DUP1 CALLDATASIZE SUB DUP2 ADD SWAP1 PUSH2 0x17F SWAP2 SWAP1 PUSH2 0x1DFB JUMP JUMPDEST PUSH2 0x3F3 JUMP JUMPDEST STOP JUMPDEST PUSH2 0x1A0 PUSH1 0x4 DUP1 CALLDATASIZE SUB DUP2 ADD SWAP1 PUSH2 0x19B SWAP2 SWAP1 PUSH2 0x1F0A JUMP JUMPDEST PUSH2 0x4B6 JUMP JUMPDEST PUSH1 0x40 MLOAD PUSH2 0x1AD SWAP2 SWAP1 PUSH2 0x1F76 JUMP JUMPDEST PUSH1 0x40 MLOAD DUP1 SWAP2 SUB SWAP1 RETURN JUMPDEST PUSH2 0x1BE PUSH2 0x6D1 JUMP JUMPDEST PUSH1 0x40 MLOAD PUSH2 0x1CB SWAP2 SWAP1 PUSH2 0x1FEF JUMP JUMPDEST PUSH1 0x40 MLOAD DUP1 SWAP2 SUB SWAP1 RETURN JUMPDEST PUSH2 0x1DC PUSH2 0x75D JUMP JUMPDEST PUSH1 0x40 MLOAD PUSH2 0x1E9 SWAP2 SWAP1 PUSH2 0x204E JUMP JUMPDEST PUSH1 0x40 MLOAD DUP1 SWAP2 SUB SWAP1 RETURN JUMPDEST PUSH2 0x1FA PUSH2 0x782 JUMP JUMPDEST PUSH1 0x40 MLOAD PUSH2 0x207 SWAP2 SWAP1 PUSH2 0x1FEF JUMP JUMPDEST PUSH1 0x40 MLOAD DUP1 SWAP2 SUB SWAP1 RETURN JUMPDEST PUSH2 0x22A PUSH1 0x4 DUP1 CALLDATASIZE SUB DUP2 ADD SWAP1 PUSH2 0x225 SWAP2 SWAP1 PUSH2 0x2067 JUMP JUMPDEST PUSH2 0x80E JUMP JUMPDEST PUSH1 0x40 MLOAD PUSH2 0x237 SWAP2 SWAP1 PUSH2 0x1C27 JUMP JUMPDEST PUSH1 0x40 MLOAD DUP1 SWAP2 SUB SWAP1 RETURN JUMPDEST PUSH2 0x248 PUSH2 0x844 JUMP JUMPDEST PUSH1 0x40 MLOAD PUSH2 0x255 SWAP2 SWAP1 PUSH2 0x20CA JUMP JUMPDEST PUSH1 0x40 MLOAD DUP1 SWAP2 SUB SWAP1 RETURN JUMPDEST PUSH2 0x278 PUSH1 0x4 DUP1 CALLDATASIZE SUB DUP2 ADD SWAP1 PUSH2 0x273 SWAP2 SWAP1 PUSH2 0x2138 JUMP JUMPDEST PUSH2 0x84A JUMP JUMPDEST PUSH1 0x40 MLOAD PUSH2 0x285 SWAP2 SWAP1 PUSH2 0x1F76 JUMP JUMPDEST PUSH1 0x40 MLOAD DUP1 SWAP2 SUB SWAP1 RETURN JUMPDEST PUSH2 0x296 PUSH2 0x96D JUMP JUMPDEST STOP JUMPDEST PUSH2 0x2A0 PUSH2 0xAFC JUMP JUMPDEST PUSH1 0x40 MLOAD PUSH2 0x2AD SWAP2 SWAP1 PUSH2 0x20CA JUMP JUMPDEST PUSH1 0x40 MLOAD DUP1 SWAP2 SUB SWAP1 RETURN JUMPDEST PUSH2 0x2BE PUSH2 0xB02 JUMP JUMPDEST PUSH1 0x40 MLOAD PUSH2 0x2CB SWAP2 SWAP1 PUSH2 0x204E JUMP JUMPDEST PUSH1 0x40 MLOAD DUP1 SWAP2 SUB SWAP1 RETURN JUMPDEST PUSH2 0x2DC PUSH2 0xB29 JUMP JUMPDEST PUSH1 0x40 MLOAD PUSH2 0x2E9 SWAP2 SWAP1 PUSH2 0x20CA JUMP JUMPDEST PUSH1 0x40 MLOAD DUP1 SWAP2 SUB SWAP1 RETURN JUMPDEST PUSH2 0x30C PUSH1 0x4 DUP1 CALLDATASIZE SUB DUP2 ADD SWAP1 PUSH2 0x307 SWAP2 SWAP1 PUSH2 0x2233 JUMP JUMPDEST PUSH2 0xB2F JUMP JUMPDEST PUSH1 0x40 MLOAD PUSH2 0x319 SWAP2 SWAP1 PUSH2 0x1C27 JUMP JUMPDEST PUSH1 0x40 MLOAD DUP1 SWAP2 SUB SWAP1 RETURN JUMPDEST PUSH2 0x32A PUSH2 0xB64 JUMP JUMPDEST PUSH1 0x40 MLOAD PUSH2 0x337 SWAP2 SWAP1 PUSH2 0x1F76 JUMP JUMPDEST PUSH1 0x40 MLOAD DUP1 SWAP2 SUB SWAP1 RETURN JUMPDEST PUSH2 0x35A PUSH1 0x4 DUP1 CALLDATASIZE SUB DUP2 ADD SWAP1 PUSH2 0x355 SWAP2 SWAP1 PUSH2 0x22A4 JUMP JUMPDEST PUSH2 0xB6A JUMP JUMPDEST PUSH1 0x40 MLOAD PUSH2 0x367 SWAP2 SWAP1 PUSH2 0x1C27 JUMP JUMPDEST PUSH1 0x40 MLOAD DUP1 SWAP2 SUB SWAP1 RETURN JUMPDEST PUSH2 0x378 PUSH2 0xB87 JUMP JUMPDEST PUSH1 0x40 MLOAD PUSH2 0x385 SWAP2 SWAP1 PUSH2 0x20CA JUMP JUMPDEST PUSH1 0x40 MLOAD DUP1 SWAP2 SUB SWAP1 RETURN JUMPDEST PUSH2 0x3A8 PUSH1 0x4 DUP1 CALLDATASIZE SUB DUP2 ADD SWAP1 PUSH2 0x3A3 SWAP2 SWAP1 PUSH2 0x22A4 JUMP JUMPDEST PUSH2 0xB8D JUMP JUMPDEST STOP JUMPDEST PUSH2 0x3B2 PUSH2 0xBA1 JUMP JUMPDEST PUSH1 0x40 MLOAD PUSH2 0x3BF SWAP2 SWAP1 PUSH2 0x2321 JUMP JUMPDEST PUSH1 0x40 MLOAD DUP1 SWAP2 SUB SWAP1 RETURN JUMPDEST PUSH1 0x9 PUSH0 SWAP1 SLOAD SWAP1 PUSH2 0x100 EXP SWAP1 DIV PUSH1 0xFF AND DUP2 JUMP JUMPDEST PUSH1 0x12 PUSH0 SWAP1 SLOAD SWAP1 PUSH2 0x100 EXP SWAP1 DIV PUSH8 0xFFFFFFFFFFFFFFFF AND DUP2 JUMP JUMPDEST PUSH1 0x2 PUSH0 SWAP1 SLOAD SWAP1 PUSH2 0x100 EXP SWAP1 DIV PUSH20 0xFFFFFFFFFFFFFFFFFFFFFFFFFFFFFFFFFFFFFFFF AND PUSH20 0xFFFFFFFFFFFFFFFFFFFFFFFFFFFFFFFFFFFFFFFF AND CALLER PUSH20 0xFFFFFFFFFFFFFFFFFFFFFFFFFFFFFFFFFFFFFFFF AND EQ PUSH2 0x479 JUMPI PUSH1 0x40 MLOAD PUSH32 0xC6829F8300000000000000000000000000000000000000000000000000000000 DUP2 MSTORE PUSH1 0x4 ADD PUSH1 0x40 MLOAD DUP1 SWAP2 SUB SWAP1 REVERT JUMPDEST PUSH2 0x484 DUP4 DUP4 DUP4 PUSH2 0xC2D JUMP JUMPDEST DUP3 PUSH32 0x85E1543BF2F84FE80C6BADBCE3648C8539AD1DF4D2B3D822938CA0538BE727E6 PUSH1 0x40 MLOAD PUSH1 0x40 MLOAD DUP1 SWAP2 SUB SWAP1 LOG2 POP POP POP JUMP JUMPDEST PUSH0 PUSH2 0x4BF PUSH2 0xE69 JUMP JUMPDEST PUSH0 DUP4 DUP4 SWAP1 POP SUB PUSH2 0x508 JUMPI DUP3 DUP3 PUSH1 0x40 MLOAD PUSH32 0x5597DD2300000000000000000000000000000000000000000000000000000000 DUP2 MSTORE PUSH1 0x4 ADD PUSH2 0x4FF SWAP3 SWAP2 SWAP1 PUSH2 0x236D JUMP JUMPDEST PUSH1 0x40 MLOAD DUP1 SWAP2 SUB SWAP1 REVERT JUMPDEST PUSH2 0x510 PUSH2 0x1B66 JUMP JUMPDEST PUSH2 0x5AB PUSH1 0xC DUP1 SLOAD PUSH2 0x520 SWAP1 PUSH2 0x23BC JUMP JUMPDEST DUP1 PUSH1 0x1F ADD PUSH1 0x20 DUP1 SWAP2 DIV MUL PUSH1 0x20 ADD PUSH1 0x40 MLOAD SWAP1 DUP2 ADD PUSH1 0x40 MSTORE DUP1 SWAP3 SWAP2 SWAP1 DUP2 DUP2 MSTORE PUSH1 0x20 ADD DUP3 DUP1 SLOAD PUSH2 0x54C SWAP1 PUSH2 0x23BC JUMP JUMPDEST DUP1 ISZERO PUSH2 0x597 JUMPI DUP1 PUSH1 0x1F LT PUSH2 0x56E JUMPI PUSH2 0x100 DUP1 DUP4 SLOAD DIV MUL DUP4 MSTORE SWAP2 PUSH1 0x20 ADD SWAP2 PUSH2 0x597 JUMP JUMPDEST DUP3 ADD SWAP2 SWAP1 PUSH0 MSTORE PUSH1 0x20 PUSH0 KECCAK256 SWAP1 JUMPDEST DUP2 SLOAD DUP2 MSTORE SWAP1 PUSH1 0x1 ADD SWAP1 PUSH1 0x20 ADD DUP1 DUP4 GT PUSH2 0x57A JUMPI DUP3 SWAP1 SUB PUSH1 0x1F AND DUP3 ADD SWAP2 JUMPDEST POP POP POP POP POP DUP3 PUSH2 0xEF9 SWAP1 SWAP2 SWAP1 PUSH4 0xFFFFFFFF AND JUMP JUMPDEST PUSH0 PUSH1 0x1 PUSH8 0xFFFFFFFFFFFFFFFF DUP2 GT ISZERO PUSH2 0x5C7 JUMPI PUSH2 0x5C6 PUSH2 0x1CD7 JUMP JUMPDEST JUMPDEST PUSH1 0x40 MLOAD SWAP1 DUP1 DUP3 MSTORE DUP1 PUSH1 0x20 MUL PUSH1 0x20 ADD DUP3 ADD PUSH1 0x40 MSTORE DUP1 ISZERO PUSH2 0x5FA JUMPI DUP2 PUSH1 0x20 ADD JUMPDEST PUSH1 0x60 DUP2 MSTORE PUSH1 0x20 ADD SWAP1 PUSH1 0x1 SWAP1 SUB SWAP1 DUP2 PUSH2 0x5E5 JUMPI SWAP1 POP JUMPDEST POP SWAP1 POP DUP5 DUP5 DUP1 DUP1 PUSH1 0x1F ADD PUSH1 0x20 DUP1 SWAP2 DIV MUL PUSH1 0x20 ADD PUSH1 0x40 MLOAD SWAP1 DUP2 ADD PUSH1 0x40 MSTORE DUP1 SWAP4 SWAP3 SWAP2 SWAP1 DUP2 DUP2 MSTORE PUSH1 0x20 ADD DUP4 DUP4 DUP1 DUP3 DUP5 CALLDATACOPY PUSH0 DUP2 DUP5 ADD MSTORE PUSH1 0x1F NOT PUSH1 0x1F DUP3 ADD AND SWAP1 POP DUP1 DUP4 ADD SWAP3 POP POP POP POP POP POP POP DUP2 PUSH0 DUP2 MLOAD DUP2 LT PUSH2 0x654 JUMPI PUSH2 0x653 PUSH2 0x23EC JUMP JUMPDEST JUMPDEST PUSH1 0x20 MUL PUSH1 0x20 ADD ADD DUP2 SWAP1 MSTORE POP PUSH2 0x672 DUP2 DUP4 PUSH2 0xF09 SWAP1 SWAP2 SWAP1 PUSH4 0xFFFFFFFF AND JUMP JUMPDEST DUP5 DUP5 PUSH1 0x8 SWAP2 DUP3 PUSH2 0x683 SWAP3 SWAP2 SWAP1 PUSH2 0x25C3 JUMP JUMPDEST POP PUSH2 0x6BD PUSH2 0x690 DUP4 PUSH2 0xF50 JUMP JUMPDEST DUP8 PUSH3 0x493E0 PUSH32 0x66756E2D657468657265756D2D7365706F6C69612D3100000000000000000000 PUSH0 SHL PUSH2 0x135B JUMP JUMPDEST PUSH1 0x3 DUP2 SWAP1 SSTORE POP PUSH1 0x3 SLOAD SWAP3 POP POP POP SWAP4 SWAP3 POP POP POP JUMP JUMPDEST PUSH1 0x4 DUP1 SLOAD PUSH2 0x6DE SWAP1 PUSH2 0x23BC JUMP JUMPDEST DUP1 PUSH1 0x1F ADD PUSH1 0x20 DUP1 SWAP2 DIV MUL PUSH1 0x20 ADD PUSH1 0x40 MLOAD SWAP1 DUP2 ADD PUSH1 0x40 MSTORE DUP1 SWAP3 SWAP2 SWAP1 DUP2 DUP2 MSTORE PUSH1 0x20 ADD DUP3 DUP1 SLOAD PUSH2 0x70A SWAP1 PUSH2 0x23BC JUMP JUMPDEST DUP1 ISZERO PUSH2 0x755 JUMPI DUP1 PUSH1 0x1F LT PUSH2 0x72C JUMPI PUSH2 0x100 DUP1 DUP4 SLOAD DIV MUL DUP4 MSTORE SWAP2 PUSH1 0x20 ADD SWAP2 PUSH2 0x755 JUMP JUMPDEST DUP3 ADD SWAP2 SWAP1 PUSH0 MSTORE PUSH1 0x20 PUSH0 KECCAK256 SWAP1 JUMPDEST DUP2 SLOAD DUP2 MSTORE SWAP1 PUSH1 0x1 ADD SWAP1 PUSH1 0x20 ADD DUP1 DUP4 GT PUSH2 0x738 JUMPI DUP3 SWAP1 SUB PUSH1 0x1F AND DUP3 ADD SWAP2 JUMPDEST POP POP POP POP POP DUP2 JUMP JUMPDEST PUSH1 0xF PUSH0 SWAP1 SLOAD SWAP1 PUSH2 0x100 EXP SWAP1 DIV PUSH20 0xFFFFFFFFFFFFFFFFFFFFFFFFFFFFFFFFFFFFFFFF AND DUP2 JUMP JUMPDEST PUSH1 0x5 DUP1 SLOAD PUSH2 0x78F SWAP1 PUSH2 0x23BC JUMP JUMPDEST DUP1 PUSH1 0x1F ADD PUSH1 0x20 DUP1 SWAP2 DIV MUL PUSH1 0x20 ADD PUSH1 0x40 MLOAD SWAP1 DUP2 ADD PUSH1 0x40 MSTORE DUP1 SWAP3 SWAP2 SWAP1 DUP2 DUP2 MSTORE PUSH1 0x20 ADD DUP3 DUP1 SLOAD PUSH2 0x7BB SWAP1 PUSH2 0x23BC JUMP JUMPDEST DUP1 ISZERO PUSH2 0x806 JUMPI DUP1 PUSH1 0x1F LT PUSH2 0x7DD JUMPI PUSH2 0x100 DUP1 DUP4 SLOAD DIV MUL DUP4 MSTORE SWAP2 PUSH1 0x20 ADD SWAP2 PUSH2 0x806 JUMP JUMPDEST DUP3 ADD SWAP2 SWAP1 PUSH0 MSTORE PUSH1 0x20 PUSH0 KECCAK256 SWAP1 JUMPDEST DUP2 SLOAD DUP2 MSTORE SWAP1 PUSH1 0x1 ADD SWAP1 PUSH1 0x20 ADD DUP1 DUP4 GT PUSH2 0x7E9 JUMPI DUP3 SWAP1 SUB PUSH1 0x1F AND DUP3 ADD SWAP2 JUMPDEST POP POP POP POP POP DUP2 JUMP JUMPDEST PUSH0 PUSH1 0x7 DUP4 DUP4 PUSH1 0x40 MLOAD PUSH2 0x821 SWAP3 SWAP2 SWAP1 PUSH2 0x26BE JUMP JUMPDEST SWAP1 DUP2 MSTORE PUSH1 0x20 ADD PUSH1 0x40 MLOAD DUP1 SWAP2 SUB SWAP1 KECCAK256 PUSH0 SWAP1 SLOAD SWAP1 PUSH2 0x100 EXP SWAP1 DIV PUSH1 0xFF AND SWAP1 POP SWAP3 SWAP2 POP POP JUMP JUMPDEST PUSH1 0x6 SLOAD DUP2 JUMP JUMPDEST PUSH0 PUSH2 0x853 PUSH2 0xE69 JUMP JUMPDEST PUSH2 0x85B PUSH2 0x1B66 JUMP JUMPDEST PUSH2 0x8F6 PUSH1 0xB DUP1 SLOAD PUSH2 0x86B SWAP1 PUSH2 0x23BC JUMP JUMPDEST DUP1 PUSH1 0x1F ADD PUSH1 0x20 DUP1 SWAP2 DIV MUL PUSH1 0x20 ADD PUSH1 0x40 MLOAD SWAP1 DUP2 ADD PUSH1 0x40 MSTORE DUP1 SWAP3 SWAP2 SWAP1 DUP2 DUP2 MSTORE PUSH1 0x20 ADD DUP3 DUP1 SLOAD PUSH2 0x897 SWAP1 PUSH2 0x23BC JUMP JUMPDEST DUP1 ISZERO PUSH2 0x8E2 JUMPI DUP1 PUSH1 0x1F LT PUSH2 0x8B9 JUMPI PUSH2 0x100 DUP1 DUP4 SLOAD DIV MUL DUP4 MSTORE SWAP2 PUSH1 0x20 ADD SWAP2 PUSH2 0x8E2 JUMP JUMPDEST DUP3 ADD SWAP2 SWAP1 PUSH0 MSTORE PUSH1 0x20 PUSH0 KECCAK256 SWAP1 JUMPDEST DUP2 SLOAD DUP2 MSTORE SWAP1 PUSH1 0x1 ADD SWAP1 PUSH1 0x20 ADD DUP1 DUP4 GT PUSH2 0x8C5 JUMPI DUP3 SWAP1 SUB PUSH1 0x1F AND DUP3 ADD SWAP2 JUMPDEST POP POP POP POP POP DUP3 PUSH2 0xEF9 SWAP1 SWAP2 SWAP1 PUSH4 0xFFFFFFFF AND JUMP JUMPDEST PUSH0 DUP5 DUP5 SWAP1 POP GT ISZERO PUSH2 0x921 JUMPI PUSH2 0x920 DUP5 DUP5 SWAP1 PUSH2 0x911 SWAP2 SWAP1 PUSH2 0x2787 JUMP JUMPDEST DUP3 PUSH2 0xF09 SWAP1 SWAP2 SWAP1 PUSH4 0xFFFFFFFF AND JUMP JUMPDEST JUMPDEST PUSH2 0x95A PUSH2 0x92D DUP3 PUSH2 0xF50 JUMP JUMPDEST DUP7 PUSH3 0x493E0 PUSH32 0x66756E2D657468657265756D2D7365706F6C69612D3100000000000000000000 PUSH0 SHL PUSH2 0x135B JUMP JUMPDEST PUSH1 0x3 DUP2 SWAP1 SSTORE POP PUSH1 0x3 SLOAD SWAP2 POP POP SWAP4 SWAP3 POP POP POP JUMP JUMPDEST PUSH1 0x1 PUSH0 SWAP1 SLOAD SWAP1 PUSH2 0x100 EXP SWAP1 DIV PUSH20 0xFFFFFFFFFFFFFFFFFFFFFFFFFFFFFFFFFFFFFFFF AND PUSH20 0xFFFFFFFFFFFFFFFFFFFFFFFFFFFFFFFFFFFFFFFF AND CALLER PUSH20 0xFFFFFFFFFFFFFFFFFFFFFFFFFFFFFFFFFFFFFFFF AND EQ PUSH2 0x9FC JUMPI PUSH1 0x40 MLOAD PUSH32 0x8C379A000000000000000000000000000000000000000000000000000000000 DUP2 MSTORE PUSH1 0x4 ADD PUSH2 0x9F3 SWAP1 PUSH2 0x27E5 JUMP JUMPDEST PUSH1 0x40 MLOAD DUP1 SWAP2 SUB SWAP1 REVERT JUMPDEST PUSH0 PUSH0 PUSH0 SWAP1 SLOAD SWAP1 PUSH2 0x100 EXP SWAP1 DIV PUSH20 0xFFFFFFFFFFFFFFFFFFFFFFFFFFFFFFFFFFFFFFFF AND SWAP1 POP CALLER PUSH0 PUSH0 PUSH2 0x100 EXP DUP2 SLOAD DUP2 PUSH20 0xFFFFFFFFFFFFFFFFFFFFFFFFFFFFFFFFFFFFFFFF MUL NOT AND SWAP1 DUP4 PUSH20 0xFFFFFFFFFFFFFFFFFFFFFFFFFFFFFFFFFFFFFFFF AND MUL OR SWAP1 SSTORE POP PUSH0 PUSH1 0x1 PUSH0 PUSH2 0x100 EXP DUP2 SLOAD DUP2 PUSH20 0xFFFFFFFFFFFFFFFFFFFFFFFFFFFFFFFFFFFFFFFF MUL NOT AND SWAP1 DUP4 PUSH20 0xFFFFFFFFFFFFFFFFFFFFFFFFFFFFFFFFFFFFFFFF AND MUL OR SWAP1 SSTORE POP CALLER PUSH20 0xFFFFFFFFFFFFFFFFFFFFFFFFFFFFFFFFFFFFFFFF AND DUP2 PUSH20 0xFFFFFFFFFFFFFFFFFFFFFFFFFFFFFFFFFFFFFFFF AND PUSH32 0x8BE0079C531659141344CD1FD0A4F28419497F9722A3DAAFE3B4186F6B6457E0 PUSH1 0x40 MLOAD PUSH1 0x40 MLOAD DUP1 SWAP2 SUB SWAP1 LOG3 POP JUMP JUMPDEST PUSH1 0xE SLOAD DUP2 JUMP JUMPDEST PUSH0 PUSH0 PUSH0 SWAP1 SLOAD SWAP1 PUSH2 0x100 EXP SWAP1 DIV PUSH20 0xFFFFFFFFFFFFFFFFFFFFFFFFFFFFFFFFFFFFFFFF AND SWAP1 POP SWAP1 JUMP JUMPDEST PUSH1 0x10 SLOAD DUP2 JUMP JUMPDEST PUSH1 0x7 DUP2 DUP1 MLOAD PUSH1 0x20 DUP2 ADD DUP3 ADD DUP1 MLOAD DUP5 DUP3 MSTORE PUSH1 0x20 DUP4 ADD PUSH1 0x20 DUP6 ADD KECCAK256 DUP2 DUP4 MSTORE DUP1 SWAP6 POP POP POP POP POP POP PUSH0 SWAP2 POP SLOAD SWAP1 PUSH2 0x100 EXP SWAP1 DIV PUSH1 0xFF AND DUP2 JUMP JUMPDEST PUSH1 0x3 SLOAD DUP2 JUMP JUMPDEST PUSH1 0x15 PUSH1 0x20 MSTORE DUP1 PUSH0 MSTORE PUSH1 0x40 PUSH0 KECCAK256 PUSH0 SWAP2 POP SLOAD SWAP1 PUSH2 0x100 EXP SWAP1 DIV PUSH1 0xFF AND DUP2 JUMP JUMPDEST PUSH1 0x11 SLOAD DUP2 JUMP JUMPDEST PUSH2 0xB95 PUSH2 0xE69 JUMP JUMPDEST PUSH2 0xB9E DUP2 PUSH2 0x143B JUMP JUMPDEST POP JUMP JUMPDEST PUSH1 0x8 DUP1 SLOAD PUSH2 0xBAE SWAP1 PUSH2 0x23BC JUMP JUMPDEST DUP1 PUSH1 0x1F ADD PUSH1 0x20 DUP1 SWAP2 DIV MUL PUSH1 0x20 ADD PUSH1 0x40 MLOAD SWAP1 DUP2 ADD PUSH1 0x40 MSTORE DUP1 SWAP3 SWAP2 SWAP1 DUP2 DUP2 MSTORE PUSH1 0x20 ADD DUP3 DUP1 SLOAD PUSH2 0xBDA SWAP1 PUSH2 0x23BC JUMP JUMPDEST DUP1 ISZERO PUSH2 0xC25 JUMPI DUP1 PUSH1 0x1F LT PUSH2 0xBFC JUMPI PUSH2 0x100 DUP1 DUP4 SLOAD DIV MUL DUP4 MSTORE SWAP2 PUSH1 0x20 ADD SWAP2 PUSH2 0xC25 JUMP JUMPDEST DUP3 ADD SWAP2 SWAP1 PUSH0 MSTORE PUSH1 0x20 PUSH0 KECCAK256 SWAP1 JUMPDEST DUP2 SLOAD DUP2 MSTORE SWAP1 PUSH1 0x1 ADD SWAP1 PUSH1 0x20 ADD DUP1 DUP4 GT PUSH2 0xC08 JUMPI DUP3 SWAP1 SUB PUSH1 0x1F AND DUP3 ADD SWAP2 JUMPDEST POP POP POP POP POP DUP2 JUMP JUMPDEST PUSH1 0x3 SLOAD DUP4 EQ PUSH2 0xC73 JUMPI DUP3 PUSH1 0x40 MLOAD PUSH32 0xD068BF5B00000000000000000000000000000000000000000000000000000000 DUP2 MSTORE PUSH1 0x4 ADD PUSH2 0xC6A SWAP2 SWAP1 PUSH2 0x1F76 JUMP JUMPDEST PUSH1 0x40 MLOAD DUP1 SWAP2 SUB SWAP1 REVERT JUMPDEST DUP2 PUSH1 0x4 SWAP1 DUP2 PUSH2 0xC82 SWAP2 SWAP1 PUSH2 0x285B JUMP JUMPDEST POP DUP1 PUSH1 0x5 SWAP1 DUP2 PUSH2 0xC92 SWAP2 SWAP1 PUSH2 0x285B JUMP JUMPDEST POP PUSH0 PUSH1 0x8 DUP1 SLOAD PUSH2 0xCA1 SWAP1 PUSH2 0x23BC JUMP JUMPDEST SWAP1 POP GT ISZERO PUSH2 0xDF3 JUMPI PUSH0 DUP2 MLOAD EQ DUP1 ISZERO PUSH2 0xCBB JUMPI POP PUSH1 0x20 DUP3 MLOAD LT ISZERO JUMPDEST ISZERO PUSH2 0xD90 JUMPI PUSH0 DUP3 DUP1 PUSH1 0x20 ADD SWAP1 MLOAD DUP2 ADD SWAP1 PUSH2 0xCD5 SWAP2 SWAP1 PUSH2 0x2954 JUMP JUMPDEST SWAP1 POP PUSH0 PUSH0 DUP3 GT SWAP1 POP DUP1 PUSH1 0x7 PUSH1 0x8 PUSH1 0x40 MLOAD PUSH2 0xCEF SWAP2 SWAP1 PUSH2 0x29FF JUMP JUMPDEST SWAP1 DUP2 MSTORE PUSH1 0x20 ADD PUSH1 0x40 MLOAD DUP1 SWAP2 SUB SWAP1 KECCAK256 PUSH0 PUSH2 0x100 EXP DUP2 SLOAD DUP2 PUSH1 0xFF MUL NOT AND SWAP1 DUP4 ISZERO ISZERO MUL OR SWAP1 SSTORE POP DUP1 PUSH1 0x9 PUSH0 PUSH2 0x100 EXP DUP2 SLOAD DUP2 PUSH1 0xFF MUL NOT AND SWAP1 DUP4 ISZERO ISZERO MUL OR SWAP1 SSTORE POP DUP5 PUSH32 0x99F873583FDE66FFFEE5947D1FA2F03D1CF170FC1C8E52E588CF428476733867 PUSH1 0x8 DUP4 DUP8 DUP8 PUSH1 0x40 MLOAD PUSH2 0xD63 SWAP5 SWAP4 SWAP3 SWAP2 SWAP1 PUSH2 0x2A96 JUMP JUMPDEST PUSH1 0x40 MLOAD DUP1 SWAP2 SUB SWAP1 LOG2 PUSH1 0x40 MLOAD DUP1 PUSH1 0x20 ADD PUSH1 0x40 MSTORE DUP1 PUSH0 DUP2 MSTORE POP PUSH1 0x8 SWAP1 DUP2 PUSH2 0xD88 SWAP2 SWAP1 PUSH2 0x2AEE JUMP JUMPDEST POP POP POP PUSH2 0xDEE JUMP JUMPDEST DUP3 PUSH32 0x99F873583FDE66FFFEE5947D1FA2F03D1CF170FC1C8E52E588CF428476733867 PUSH1 0x8 PUSH0 DUP6 DUP6 PUSH1 0x40 MLOAD PUSH2 0xDC7 SWAP5 SWAP4 SWAP3 SWAP2 SWAP1 PUSH2 0x2A96 JUMP JUMPDEST PUSH1 0x40 MLOAD DUP1 SWAP2 SUB SWAP1 LOG2 PUSH1 0x40 MLOAD DUP1 PUSH1 0x20 ADD PUSH1 0x40 MSTORE DUP1 PUSH0 DUP2 MSTORE POP PUSH1 0x8 SWAP1 DUP2 PUSH2 0xDEC SWAP2 SWAP1 PUSH2 0x2AEE JUMP JUMPDEST POP JUMPDEST PUSH2 0xE64 JUMP JUMPDEST PUSH0 DUP2 MLOAD EQ DUP1 ISZERO PUSH2 0xE05 JUMPI POP PUSH1 0x20 DUP3 MLOAD LT ISZERO JUMPDEST ISZERO PUSH2 0xE25 JUMPI DUP2 DUP1 PUSH1 0x20 ADD SWAP1 MLOAD DUP2 ADD SWAP1 PUSH2 0xE1E SWAP2 SWAP1 PUSH2 0x2954 JUMP JUMPDEST PUSH1 0x6 DUP2 SWAP1 SSTORE POP JUMPDEST DUP3 PUSH32 0xFC03B1503ACD478FAF9C08107596F6D5C04B4591FEA84F8D6F21BDF613B5370E PUSH1 0x6 SLOAD DUP5 DUP5 PUSH1 0x40 MLOAD PUSH2 0xE5B SWAP4 SWAP3 SWAP2 SWAP1 PUSH2 0x2BBD JUMP JUMPDEST PUSH1 0x40 MLOAD DUP1 SWAP2 SUB SWAP1 LOG2 JUMPDEST POP POP POP JUMP JUMPDEST PUSH0 PUSH0 SWAP1 SLOAD SWAP1 PUSH2 0x100 EXP SWAP1 DIV PUSH20 0xFFFFFFFFFFFFFFFFFFFFFFFFFFFFFFFFFFFFFFFF AND PUSH20 0xFFFFFFFFFFFFFFFFFFFFFFFFFFFFFFFFFFFFFFFF AND CALLER PUSH20 0xFFFFFFFFFFFFFFFFFFFFFFFFFFFFFFFFFFFFFFFF AND EQ PUSH2 0xEF7 JUMPI PUSH1 0x40 MLOAD PUSH32 0x8C379A000000000000000000000000000000000000000000000000000000000 DUP2 MSTORE PUSH1 0x4 ADD PUSH2 0xEEE SWAP1 PUSH2 0x2C4A JUMP JUMPDEST PUSH1 0x40 MLOAD DUP1 SWAP2 SUB SWAP1 REVERT JUMPDEST JUMP JUMPDEST PUSH2 0xF05 DUP3 PUSH0 PUSH0 DUP5 PUSH2 0x1566 JUMP JUMPDEST POP POP JUMP JUMPDEST PUSH0 DUP2 MLOAD SUB PUSH2 0xF43 JUMPI PUSH1 0x40 MLOAD PUSH32 0xFE936CB700000000000000000000000000000000000000000000000000000000 DUP2 MSTORE PUSH1 0x4 ADD PUSH1 0x40 MLOAD DUP1 SWAP2 SUB SWAP1 REVERT JUMPDEST DUP1 DUP3 PUSH1 0xA0 ADD DUP2 SWAP1 MSTORE POP POP POP JUMP JUMPDEST PUSH1 0x60 PUSH0 PUSH2 0xF5E PUSH2 0x100 PUSH2 0x160C JUMP JUMPDEST SWAP1 POP PUSH2 0xFA8 PUSH1 0x40 MLOAD DUP1 PUSH1 0x40 ADD PUSH1 0x40 MSTORE DUP1 PUSH1 0xC DUP2 MSTORE PUSH1 0x20 ADD PUSH32 0x636F64654C6F636174696F6E0000000000000000000000000000000000000000 DUP2 MSTORE POP DUP3 PUSH2 0x1631 SWAP1 SWAP2 SWAP1 PUSH4 0xFFFFFFFF AND JUMP JUMPDEST PUSH2 0xFD0 DUP4 PUSH0 ADD MLOAD PUSH1 0x2 DUP2 GT ISZERO PUSH2 0xFC1 JUMPI PUSH2 0xFC0 PUSH2 0x2C68 JUMP JUMPDEST JUMPDEST DUP3 PUSH2 0x1659 SWAP1 SWAP2 SWAP1 PUSH4 0xFFFFFFFF AND JUMP JUMPDEST PUSH2 0x1018 PUSH1 0x40 MLOAD DUP1 PUSH1 0x40 ADD PUSH1 0x40 MSTORE DUP1 PUSH1 0x8 DUP2 MSTORE PUSH1 0x20 ADD PUSH32 0x6C616E6775616765000000000000000000000000000000000000000000000000 DUP2 MSTORE POP DUP3 PUSH2 0x1631 SWAP1 SWAP2 SWAP1 PUSH4 0xFFFFFFFF AND JUMP JUMPDEST PUSH2 0x1040 DUP4 PUSH1 0x40 ADD MLOAD PUSH0 DUP2 GT ISZERO PUSH2 0x1031 JUMPI PUSH2 0x1030 PUSH2 0x2C68 JUMP JUMPDEST JUMPDEST DUP3 PUSH2 0x1659 SWAP1 SWAP2 SWAP1 PUSH4 0xFFFFFFFF AND JUMP JUMPDEST PUSH2 0x1088 PUSH1 0x40 MLOAD DUP1 PUSH1 0x40 ADD PUSH1 0x40 MSTORE DUP1 PUSH1 0x6 DUP2 MSTORE PUSH1 0x20 ADD PUSH32 0x736F757263650000000000000000000000000000000000000000000000000000 DUP2 MSTORE POP DUP3 PUSH2 0x1631 SWAP1 SWAP2 SWAP1 PUSH4 0xFFFFFFFF AND JUMP JUMPDEST PUSH2 0x109F DUP4 PUSH1 0x60 ADD MLOAD DUP3 PUSH2 0x1631 SWAP1 SWAP2 SWAP1 PUSH4 0xFFFFFFFF AND JUMP JUMPDEST PUSH0 DUP4 PUSH1 0xA0 ADD MLOAD MLOAD GT ISZERO PUSH2 0x1156 JUMPI PUSH2 0x10F4 PUSH1 0x40 MLOAD DUP1 PUSH1 0x40 ADD PUSH1 0x40 MSTORE DUP1 PUSH1 0x4 DUP2 MSTORE PUSH1 0x20 ADD PUSH32 0x6172677300000000000000000000000000000000000000000000000000000000 DUP2 MSTORE POP DUP3 PUSH2 0x1631 SWAP1 SWAP2 SWAP1 PUSH4 0xFFFFFFFF AND JUMP JUMPDEST PUSH2 0x10FD DUP2 PUSH2 0x16A8 JUMP JUMPDEST PUSH0 PUSH0 SWAP1 POP JUMPDEST DUP4 PUSH1 0xA0 ADD MLOAD MLOAD DUP2 LT ISZERO PUSH2 0x114B JUMPI PUSH2 0x1140 DUP5 PUSH1 0xA0 ADD MLOAD DUP3 DUP2 MLOAD DUP2 LT PUSH2 0x1129 JUMPI PUSH2 0x1128 PUSH2 0x23EC JUMP JUMPDEST JUMPDEST PUSH1 0x20 MUL PUSH1 0x20 ADD ADD MLOAD DUP4 PUSH2 0x1631 SWAP1 SWAP2 SWAP1 PUSH4 0xFFFFFFFF AND JUMP JUMPDEST DUP1 PUSH1 0x1 ADD SWAP1 POP PUSH2 0x1102 JUMP JUMPDEST POP PUSH2 0x1155 DUP2 PUSH2 0x16D0 JUMP JUMPDEST JUMPDEST PUSH0 DUP4 PUSH1 0x80 ADD MLOAD MLOAD GT ISZERO PUSH2 0x1295 JUMPI PUSH0 PUSH1 0x2 DUP2 GT ISZERO PUSH2 0x1176 JUMPI PUSH2 0x1175 PUSH2 0x2C68 JUMP JUMPDEST JUMPDEST DUP4 PUSH1 0x20 ADD MLOAD PUSH1 0x2 DUP2 GT ISZERO PUSH2 0x118D JUMPI PUSH2 0x118C PUSH2 0x2C68 JUMP JUMPDEST JUMPDEST SUB PUSH2 0x11C4 JUMPI PUSH1 0x40 MLOAD PUSH32 0xA80D31F700000000000000000000000000000000000000000000000000000000 DUP2 MSTORE PUSH1 0x4 ADD PUSH1 0x40 MLOAD DUP1 SWAP2 SUB SWAP1 REVERT JUMPDEST PUSH2 0x120C PUSH1 0x40 MLOAD DUP1 PUSH1 0x40 ADD PUSH1 0x40 MSTORE DUP1 PUSH1 0xF DUP2 MSTORE PUSH1 0x20 ADD PUSH32 0x736563726574734C6F636174696F6E0000000000000000000000000000000000 DUP2 MSTORE POP DUP3 PUSH2 0x1631 SWAP1 SWAP2 SWAP1 PUSH4 0xFFFFFFFF AND JUMP JUMPDEST PUSH2 0x1235 DUP4 PUSH1 0x20 ADD MLOAD PUSH1 0x2 DUP2 GT ISZERO PUSH2 0x1226 JUMPI PUSH2 0x1225 PUSH2 0x2C68 JUMP JUMPDEST JUMPDEST DUP3 PUSH2 0x1659 SWAP1 SWAP2 SWAP1 PUSH4 0xFFFFFFFF AND JUMP JUMPDEST PUSH2 0x127D PUSH1 0x40 MLOAD DUP1 PUSH1 0x40 ADD PUSH1 0x40 MSTORE DUP1 PUSH1 0x7 DUP2 MSTORE PUSH1 0x20 ADD PUSH32 0x7365637265747300000000000000000000000000000000000000000000000000 DUP2 MSTORE POP DUP3 PUSH2 0x1631 SWAP1 SWAP2 SWAP1 PUSH4 0xFFFFFFFF AND JUMP JUMPDEST PUSH2 0x1294 DUP4 PUSH1 0x80 ADD MLOAD DUP3 PUSH2 0x16F8 SWAP1 SWAP2 SWAP1 PUSH4 0xFFFFFFFF AND JUMP JUMPDEST JUMPDEST PUSH0 DUP4 PUSH1 0xC0 ADD MLOAD MLOAD GT ISZERO PUSH2 0x134C JUMPI PUSH2 0x12EA PUSH1 0x40 MLOAD DUP1 PUSH1 0x40 ADD PUSH1 0x40 MSTORE DUP1 PUSH1 0x9 DUP2 MSTORE PUSH1 0x20 ADD PUSH32 0x6279746573417267730000000000000000000000000000000000000000000000 DUP2 MSTORE POP DUP3 PUSH2 0x1631 SWAP1 SWAP2 SWAP1 PUSH4 0xFFFFFFFF AND JUMP JUMPDEST PUSH2 0x12F3 DUP2 PUSH2 0x16A8 JUMP JUMPDEST PUSH0 PUSH0 SWAP1 POP JUMPDEST DUP4 PUSH1 0xC0 ADD MLOAD MLOAD DUP2 LT ISZERO PUSH2 0x1341 JUMPI PUSH2 0x1336 DUP5 PUSH1 0xC0 ADD MLOAD DUP3 DUP2 MLOAD DUP2 LT PUSH2 0x131F JUMPI PUSH2 0x131E PUSH2 0x23EC JUMP JUMPDEST JUMPDEST PUSH1 0x20 MUL PUSH1 0x20 ADD ADD MLOAD DUP4 PUSH2 0x16F8 SWAP1 SWAP2 SWAP1 PUSH4 0xFFFFFFFF AND JUMP JUMPDEST DUP1 PUSH1 0x1 ADD SWAP1 POP PUSH2 0x12F8 JUMP JUMPDEST POP PUSH2 0x134B DUP2 PUSH2 0x16D0 JUMP JUMPDEST JUMPDEST DUP1 PUSH0 ADD MLOAD PUSH0 ADD MLOAD SWAP2 POP POP SWAP2 SWAP1 POP JUMP JUMPDEST PUSH0 PUSH0 PUSH1 0x2 PUSH0 SWAP1 SLOAD SWAP1 PUSH2 0x100 EXP SWAP1 DIV PUSH20 0xFFFFFFFFFFFFFFFFFFFFFFFFFFFFFFFFFFFFFFFF AND PUSH20 0xFFFFFFFFFFFFFFFFFFFFFFFFFFFFFFFFFFFFFFFF AND PUSH4 0x461D2762 DUP7 DUP9 PUSH1 0x1 DUP9 DUP9 PUSH1 0x40 MLOAD DUP7 PUSH4 0xFFFFFFFF AND PUSH1 0xE0 SHL DUP2 MSTORE PUSH1 0x4 ADD PUSH2 0x13C0 SWAP6 SWAP5 SWAP4 SWAP3 SWAP2 SWAP1 PUSH2 0x2CCF JUMP JUMPDEST PUSH1 0x20 PUSH1 0x40 MLOAD DUP1 DUP4 SUB DUP2 PUSH0 DUP8 GAS CALL ISZERO DUP1 ISZERO PUSH2 0x13DC JUMPI RETURNDATASIZE PUSH0 PUSH0 RETURNDATACOPY RETURNDATASIZE PUSH0 REVERT JUMPDEST POP POP POP POP PUSH1 0x40 MLOAD RETURNDATASIZE PUSH1 0x1F NOT PUSH1 0x1F DUP3 ADD AND DUP3 ADD DUP1 PUSH1 0x40 MSTORE POP DUP2 ADD SWAP1 PUSH2 0x1400 SWAP2 SWAP1 PUSH2 0x2D3B JUMP JUMPDEST SWAP1 POP DUP1 PUSH32 0x1131472297A800FEE664D1D89CFA8F7676FF07189ECC53F80BBB5F4969099DB8 PUSH1 0x40 MLOAD PUSH1 0x40 MLOAD DUP1 SWAP2 SUB SWAP1 LOG2 DUP1 SWAP2 POP POP SWAP5 SWAP4 POP POP POP POP JUMP JUMPDEST CALLER PUSH20 0xFFFFFFFFFFFFFFFFFFFFFFFFFFFFFFFFFFFFFFFF AND DUP2 PUSH20 0xFFFFFFFFFFFFFFFFFFFFFFFFFFFFFFFFFFFFFFFF AND SUB PUSH2 0x14A9 JUMPI PUSH1 0x40 MLOAD PUSH32 0x8C379A000000000000000000000000000000000000000000000000000000000 DUP2 MSTORE PUSH1 0x4 ADD PUSH2 0x14A0 SWAP1 PUSH2 0x2DB0 JUMP JUMPDEST PUSH1 0x40 MLOAD DUP1 SWAP2 SUB SWAP1 REVERT JUMPDEST DUP1 PUSH1 0x1 PUSH0 PUSH2 0x100 EXP DUP2 SLOAD DUP2 PUSH20 0xFFFFFFFFFFFFFFFFFFFFFFFFFFFFFFFFFFFFFFFF MUL NOT AND SWAP1 DUP4 PUSH20 0xFFFFFFFFFFFFFFFFFFFFFFFFFFFFFFFFFFFFFFFF AND MUL OR SWAP1 SSTORE POP DUP1 PUSH20 0xFFFFFFFFFFFFFFFFFFFFFFFFFFFFFFFFFFFFFFFF AND PUSH0 PUSH0 SWAP1 SLOAD SWAP1 PUSH2 0x100 EXP SWAP1 DIV PUSH20 0xFFFFFFFFFFFFFFFFFFFFFFFFFFFFFFFFFFFFFFFF AND PUSH20 0xFFFFFFFFFFFFFFFFFFFFFFFFFFFFFFFFFFFFFFFF AND PUSH32 0xED8889F560326EB138920D842192F0EB3DD22B4F139C87A2C57538E05BAE1278 PUSH1 0x40 MLOAD PUSH1 0x40 MLOAD DUP1 SWAP2 SUB SWAP1 LOG3 POP JUMP JUMPDEST PUSH0 DUP2 MLOAD SUB PUSH2 0x15A0 JUMPI PUSH1 0x40 MLOAD PUSH32 0x22CE3EDD00000000000000000000000000000000000000000000000000000000 DUP2 MSTORE PUSH1 0x4 ADD PUSH1 0x40 MLOAD DUP1 SWAP2 SUB SWAP1 REVERT JUMPDEST DUP3 DUP5 PUSH0 ADD SWAP1 PUSH1 0x2 DUP2 GT ISZERO PUSH2 0x15B7 JUMPI PUSH2 0x15B6 PUSH2 0x2C68 JUMP JUMPDEST JUMPDEST SWAP1 DUP2 PUSH1 0x2 DUP2 GT ISZERO PUSH2 0x15CB JUMPI PUSH2 0x15CA PUSH2 0x2C68 JUMP JUMPDEST JUMPDEST DUP2 MSTORE POP POP DUP2 DUP5 PUSH1 0x40 ADD SWAP1 PUSH0 DUP2 GT ISZERO PUSH2 0x15E6 JUMPI PUSH2 0x15E5 PUSH2 0x2C68 JUMP JUMPDEST JUMPDEST SWAP1 DUP2 PUSH0 DUP2 GT ISZERO PUSH2 0x15F9 JUMPI PUSH2 0x15F8 PUSH2 0x2C68 JUMP JUMPDEST JUMPDEST DUP2 MSTORE POP POP DUP1 DUP5 PUSH1 0x60 ADD DUP2 SWAP1 MSTORE POP POP POP POP POP JUMP JUMPDEST PUSH2 0x1614 PUSH2 0x1BD5 JUMP JUMPDEST PUSH2 0x1621 DUP2 PUSH0 ADD MLOAD DUP4 PUSH2 0x1720 JUMP JUMPDEST POP PUSH0 DUP2 PUSH1 0x20 ADD DUP2 DUP2 MSTORE POP POP SWAP2 SWAP1 POP JUMP JUMPDEST PUSH2 0x163E DUP3 PUSH1 0x3 DUP4 MLOAD PUSH2 0x1796 JUMP JUMPDEST PUSH2 0x1654 DUP2 DUP4 PUSH0 ADD MLOAD PUSH2 0x1936 SWAP1 SWAP2 SWAP1 PUSH4 0xFFFFFFFF AND JUMP JUMPDEST POP POP POP JUMP JUMPDEST PUSH2 0x167A PUSH1 0x2 PUSH1 0x5 PUSH1 0x6 PUSH1 0xFF AND SWAP1 SHL OR DUP4 PUSH0 ADD MLOAD PUSH2 0x1952 SWAP1 SWAP2 SWAP1 PUSH4 0xFFFFFFFF AND JUMP JUMPDEST POP PUSH2 0x16A4 DUP3 DUP3 PUSH1 0x40 MLOAD PUSH1 0x20 ADD PUSH2 0x1690 SWAP2 SWAP1 PUSH2 0x20CA JUMP JUMPDEST PUSH1 0x40 MLOAD PUSH1 0x20 DUP2 DUP4 SUB SUB DUP2 MSTORE SWAP1 PUSH1 0x40 MSTORE PUSH2 0x16F8 JUMP JUMPDEST POP POP JUMP JUMPDEST PUSH2 0x16B3 DUP2 PUSH1 0x4 PUSH2 0x19B9 JUMP JUMPDEST PUSH1 0x1 DUP2 PUSH1 0x20 ADD DUP2 DUP2 MLOAD PUSH2 0x16C6 SWAP2 SWAP1 PUSH2 0x2DFB JUMP JUMPDEST SWAP2 POP DUP2 DUP2 MSTORE POP POP POP JUMP JUMPDEST PUSH2 0x16DB DUP2 PUSH1 0x7 PUSH2 0x19B9 JUMP JUMPDEST PUSH1 0x1 DUP2 PUSH1 0x20 ADD DUP2 DUP2 MLOAD PUSH2 0x16EE SWAP2 SWAP1 PUSH2 0x2E2E JUMP JUMPDEST SWAP2 POP DUP2 DUP2 MSTORE POP POP POP JUMP JUMPDEST PUSH2 0x1705 DUP3 PUSH1 0x2 DUP4 MLOAD PUSH2 0x1796 JUMP JUMPDEST PUSH2 0x171B DUP2 DUP4 PUSH0 ADD MLOAD PUSH2 0x1936 SWAP1 SWAP2 SWAP1 PUSH4 0xFFFFFFFF AND JUMP JUMPDEST POP POP POP JUMP JUMPDEST PUSH2 0x1728 PUSH2 0x1BF4 JUMP JUMPDEST PUSH0 PUSH1 0x20 DUP4 PUSH2 0x1736 SWAP2 SWAP1 PUSH2 0x2E8E JUMP JUMPDEST EQ PUSH2 0x1762 JUMPI PUSH1 0x20 DUP3 PUSH2 0x1748 SWAP2 SWAP1 PUSH2 0x2E8E JUMP JUMPDEST PUSH1 0x20 PUSH2 0x1754 SWAP2 SWAP1 PUSH2 0x2E2E JUMP JUMPDEST DUP3 PUSH2 0x175F SWAP2 SWAP1 PUSH2 0x2DFB JUMP JUMPDEST SWAP2 POP JUMPDEST DUP2 DUP4 PUSH1 0x20 ADD DUP2 DUP2 MSTORE POP POP PUSH1 0x40 MLOAD DUP1 DUP5 MSTORE PUSH0 DUP2 MSTORE DUP3 DUP2 ADD PUSH1 0x20 ADD DUP2 DUP2 LT ISZERO PUSH2 0x1787 JUMPI PUSH0 PUSH0 REVERT JUMPDEST DUP1 PUSH1 0x40 MSTORE POP POP DUP3 SWAP1 POP SWAP3 SWAP2 POP POP JUMP JUMPDEST PUSH1 0x17 DUP2 PUSH8 0xFFFFFFFFFFFFFFFF AND GT PUSH2 0x17D0 JUMPI PUSH2 0x17CA DUP2 PUSH1 0x5 DUP5 PUSH1 0xFF AND SWAP1 SHL PUSH1 0xFF AND OR DUP5 PUSH0 ADD MLOAD PUSH2 0x1952 SWAP1 SWAP2 SWAP1 PUSH4 0xFFFFFFFF AND JUMP JUMPDEST POP PUSH2 0x1931 JUMP JUMPDEST PUSH1 0xFF DUP2 PUSH8 0xFFFFFFFFFFFFFFFF AND GT PUSH2 0x182C JUMPI PUSH2 0x1802 PUSH1 0x18 PUSH1 0x5 DUP5 PUSH1 0xFF AND SWAP1 SHL OR DUP5 PUSH0 ADD MLOAD PUSH2 0x1952 SWAP1 SWAP2 SWAP1 PUSH4 0xFFFFFFFF AND JUMP JUMPDEST POP PUSH2 0x1826 DUP2 PUSH8 0xFFFFFFFFFFFFFFFF AND PUSH1 0x1 DUP6 PUSH0 ADD MLOAD PUSH2 0x19DE SWAP1 SWAP3 SWAP2 SWAP1 PUSH4 0xFFFFFFFF AND JUMP JUMPDEST POP PUSH2 0x1930 JUMP JUMPDEST PUSH2 0xFFFF DUP2 PUSH8 0xFFFFFFFFFFFFFFFF AND GT PUSH2 0x1889 JUMPI PUSH2 0x185F PUSH1 0x19 PUSH1 0x5 DUP5 PUSH1 0xFF AND SWAP1 SHL OR DUP5 PUSH0 ADD MLOAD PUSH2 0x1952 SWAP1 SWAP2 SWAP1 PUSH4 0xFFFFFFFF AND JUMP JUMPDEST POP PUSH2 0x1883 DUP2 PUSH8 0xFFFFFFFFFFFFFFFF AND PUSH1 0x2 DUP6 PUSH0 ADD MLOAD PUSH2 0x19DE SWAP1 SWAP3 SWAP2 SWAP1 PUSH4 0xFFFFFFFF AND JUMP JUMPDEST POP PUSH2 0x192F JUMP JUMPDEST PUSH4 0xFFFFFFFF DUP2 PUSH8 0xFFFFFFFFFFFFFFFF AND GT PUSH2 0x18E8 JUMPI PUSH2 0x18BE PUSH1 0x1A PUSH1 0x5 DUP5 PUSH1 0xFF AND SWAP1 SHL OR DUP5 PUSH0 ADD MLOAD PUSH2 0x1952 SWAP1 SWAP2 SWAP1 PUSH4 0xFFFFFFFF AND JUMP JUMPDEST POP PUSH2 0x18E2 DUP2 PUSH8 0xFFFFFFFFFFFFFFFF AND PUSH1 0x4 DUP6 PUSH0 ADD MLOAD PUSH2 0x19DE SWAP1 SWAP3 SWAP2 SWAP1 PUSH4 0xFFFFFFFF AND JUMP JUMPDEST POP PUSH2 0x192E JUMP JUMPDEST PUSH2 0x1908 PUSH1 0x1B PUSH1 0x5 DUP5 PUSH1 0xFF AND SWAP1 SHL OR DUP5 PUSH0 ADD MLOAD PUSH2 0x1952 SWAP1 SWAP2 SWAP1 PUSH4 0xFFFFFFFF AND JUMP JUMPDEST POP PUSH2 0x192C DUP2 PUSH8 0xFFFFFFFFFFFFFFFF AND PUSH1 0x8 DUP6 PUSH0 ADD MLOAD PUSH2 0x19DE SWAP1 SWAP3 SWAP2 SWAP1 PUSH4 0xFFFFFFFF AND JUMP JUMPDEST POP JUMPDEST JUMPDEST JUMPDEST JUMPDEST POP POP POP JUMP JUMPDEST PUSH2 0x193E PUSH2 0x1BF4 JUMP JUMPDEST PUSH2 0x194A DUP4 DUP4 DUP5 MLOAD PUSH2 0x1A67 JUMP JUMPDEST SWAP1 POP SWAP3 SWAP2 POP POP JUMP JUMPDEST PUSH2 0x195A PUSH2 0x1BF4 JUMP JUMPDEST PUSH0 DUP4 PUSH0 ADD MLOAD MLOAD SWAP1 POP PUSH0 PUSH1 0x1 DUP3 PUSH2 0x1970 SWAP2 SWAP1 PUSH2 0x2DFB JUMP JUMPDEST SWAP1 POP DUP5 PUSH1 0x20 ADD MLOAD DUP3 LT PUSH2 0x1994 JUMPI PUSH2 0x1993 DUP6 PUSH1 0x2 DUP4 PUSH2 0x198E SWAP2 SWAP1 PUSH2 0x2EBE JUMP JUMPDEST PUSH2 0x1B44 JUMP JUMPDEST JUMPDEST DUP5 MLOAD PUSH1 0x20 DUP4 DUP3 ADD ADD DUP6 DUP2 MSTORE8 DUP2 MLOAD DUP4 GT ISZERO PUSH2 0x19AC JUMPI DUP3 DUP3 MSTORE JUMPDEST POP POP DUP5 SWAP3 POP POP POP SWAP3 SWAP2 POP POP JUMP JUMPDEST PUSH2 0x19D9 PUSH1 0x1F PUSH1 0x5 DUP4 PUSH1 0xFF AND SWAP1 SHL OR DUP4 PUSH0 ADD MLOAD PUSH2 0x1952 SWAP1 SWAP2 SWAP1 PUSH4 0xFFFFFFFF AND JUMP JUMPDEST POP POP POP JUMP JUMPDEST PUSH2 0x19E6 PUSH2 0x1BF4 JUMP JUMPDEST PUSH0 DUP5 PUSH0 ADD MLOAD MLOAD SWAP1 POP PUSH0 DUP2 DUP5 PUSH2 0x19FB SWAP2 SWAP1 PUSH2 0x2DFB JUMP JUMPDEST SWAP1 POP DUP6 PUSH1 0x20 ADD MLOAD DUP2 GT ISZERO PUSH2 0x1A20 JUMPI PUSH2 0x1A1F DUP7 PUSH1 0x2 DUP4 PUSH2 0x1A1A SWAP2 SWAP1 PUSH2 0x2EBE JUMP JUMPDEST PUSH2 0x1B44 JUMP JUMPDEST JUMPDEST PUSH0 PUSH1 0x1 DUP6 PUSH2 0x100 PUSH2 0x1A31 SWAP2 SWAP1 PUSH2 0x302E JUMP JUMPDEST PUSH2 0x1A3B SWAP2 SWAP1 PUSH2 0x2E2E JUMP JUMPDEST SWAP1 POP DUP7 MLOAD DUP3 DUP2 ADD DUP8 DUP4 NOT DUP3 MLOAD AND OR DUP2 MSTORE DUP2 MLOAD DUP5 GT ISZERO PUSH2 0x1A58 JUMPI DUP4 DUP3 MSTORE JUMPDEST POP POP DUP7 SWAP4 POP POP POP POP SWAP4 SWAP3 POP POP POP JUMP JUMPDEST PUSH2 0x1A6F PUSH2 0x1BF4 JUMP JUMPDEST DUP3 MLOAD DUP3 GT ISZERO PUSH2 0x1A7C JUMPI PUSH0 PUSH0 REVERT JUMPDEST PUSH0 DUP5 PUSH0 ADD MLOAD MLOAD SWAP1 POP PUSH0 DUP4 DUP3 PUSH2 0x1A91 SWAP2 SWAP1 PUSH2 0x2DFB JUMP JUMPDEST SWAP1 POP DUP6 PUSH1 0x20 ADD MLOAD DUP2 GT ISZERO PUSH2 0x1AB6 JUMPI PUSH2 0x1AB5 DUP7 PUSH1 0x2 DUP4 PUSH2 0x1AB0 SWAP2 SWAP1 PUSH2 0x2EBE JUMP JUMPDEST PUSH2 0x1B44 JUMP JUMPDEST JUMPDEST PUSH0 PUSH0 DUP8 MLOAD DUP1 MLOAD DUP6 PUSH1 0x20 DUP4 ADD ADD SWAP4 POP DUP1 DUP6 GT ISZERO PUSH2 0x1AD0 JUMPI DUP5 DUP3 MSTORE JUMPDEST PUSH1 0x20 DUP10 ADD SWAP3 POP POP POP JUMPDEST PUSH1 0x20 DUP7 LT PUSH2 0x1B17 JUMPI DUP1 MLOAD DUP3 MSTORE PUSH1 0x20 DUP3 PUSH2 0x1AF2 SWAP2 SWAP1 PUSH2 0x2DFB JUMP JUMPDEST SWAP2 POP PUSH1 0x20 DUP2 PUSH2 0x1B01 SWAP2 SWAP1 PUSH2 0x2DFB JUMP JUMPDEST SWAP1 POP PUSH1 0x20 DUP7 PUSH2 0x1B10 SWAP2 SWAP1 PUSH2 0x2E2E JUMP JUMPDEST SWAP6 POP PUSH2 0x1AD9 JUMP JUMPDEST PUSH0 PUSH1 0x1 DUP8 PUSH1 0x20 SUB PUSH2 0x100 EXP SUB SWAP1 POP DUP1 NOT DUP3 MLOAD AND DUP2 DUP5 MLOAD AND DUP2 DUP2 OR DUP6 MSTORE POP POP POP DUP8 SWAP5 POP POP POP POP POP SWAP4 SWAP3 POP POP POP JUMP JUMPDEST PUSH0 DUP3 PUSH0 ADD MLOAD SWAP1 POP PUSH2 0x1B55 DUP4 DUP4 PUSH2 0x1720 JUMP JUMPDEST POP PUSH2 0x1B60 DUP4 DUP3 PUSH2 0x1936 JUMP JUMPDEST POP POP POP POP JUMP JUMPDEST PUSH1 0x40 MLOAD DUP1 PUSH1 0xE0 ADD PUSH1 0x40 MSTORE DUP1 PUSH0 PUSH1 0x2 DUP2 GT ISZERO PUSH2 0x1B84 JUMPI PUSH2 0x1B83 PUSH2 0x2C68 JUMP JUMPDEST JUMPDEST DUP2 MSTORE PUSH1 0x20 ADD PUSH0 PUSH1 0x2 DUP2 GT ISZERO PUSH2 0x1B9C JUMPI PUSH2 0x1B9B PUSH2 0x2C68 JUMP JUMPDEST JUMPDEST DUP2 MSTORE PUSH1 0x20 ADD PUSH0 PUSH0 DUP2 GT ISZERO PUSH2 0x1BB3 JUMPI PUSH2 0x1BB2 PUSH2 0x2C68 JUMP JUMPDEST JUMPDEST DUP2 MSTORE PUSH1 0x20 ADD PUSH1 0x60 DUP2 MSTORE PUSH1 0x20 ADD PUSH1 0x60 DUP2 MSTORE PUSH1 0x20 ADD PUSH1 0x60 DUP2 MSTORE PUSH1 0x20 ADD PUSH1 0x60 DUP2 MSTORE POP SWAP1 JUMP JUMPDEST PUSH1 0x40 MLOAD DUP1 PUSH1 0x40 ADD PUSH1 0x40 MSTORE DUP1 PUSH2 0x1BE8 PUSH2 0x1BF4 JUMP JUMPDEST DUP2 MSTORE PUSH1 0x20 ADD PUSH0 DUP2 MSTORE POP SWAP1 JUMP JUMPDEST PUSH1 0x40 MLOAD DUP1 PUSH1 0x40 ADD PUSH1 0x40 MSTORE DUP1 PUSH1 0x60 DUP2 MSTORE PUSH1 0x20 ADD PUSH0 DUP2 MSTORE POP SWAP1 JUMP JUMPDEST PUSH0 DUP2 ISZERO ISZERO SWAP1 POP SWAP2 SWAP1 POP JUMP JUMPDEST PUSH2 0x1C21 DUP2 PUSH2 0x1C0D JUMP JUMPDEST DUP3 MSTORE POP POP JUMP JUMPDEST PUSH0 PUSH1 0x20 DUP3 ADD SWAP1 POP PUSH2 0x1C3A PUSH0 DUP4 ADD DUP5 PUSH2 0x1C18 JUMP JUMPDEST SWAP3 SWAP2 POP POP JUMP JUMPDEST PUSH0 PUSH8 0xFFFFFFFFFFFFFFFF DUP3 AND SWAP1 POP SWAP2 SWAP1 POP JUMP JUMPDEST PUSH2 0x1C5C DUP2 PUSH2 0x1C40 JUMP JUMPDEST DUP3 MSTORE POP POP JUMP JUMPDEST PUSH0 PUSH1 0x20 DUP3 ADD SWAP1 POP PUSH2 0x1C75 PUSH0 DUP4 ADD DUP5 PUSH2 0x1C53 JUMP JUMPDEST SWAP3 SWAP2 POP POP JUMP JUMPDEST PUSH0 PUSH1 0x40 MLOAD SWAP1 POP SWAP1 JUMP JUMPDEST PUSH0 PUSH0 REVERT JUMPDEST PUSH0 PUSH0 REVERT JUMPDEST PUSH0 DUP2 SWAP1 POP SWAP2 SWAP1 POP JUMP JUMPDEST PUSH2 0x1C9E DUP2 PUSH2 0x1C8C JUMP JUMPDEST DUP2 EQ PUSH2 0x1CA8 JUMPI PUSH0 PUSH0 REVERT JUMPDEST POP JUMP JUMPDEST PUSH0 DUP2 CALLDATALOAD SWAP1 POP PUSH2 0x1CB9 DUP2 PUSH2 0x1C95 JUMP JUMPDEST SWAP3 SWAP2 POP POP JUMP JUMPDEST PUSH0 PUSH0 REVERT JUMPDEST PUSH0 PUSH0 REVERT JUMPDEST PUSH0 PUSH1 0x1F NOT PUSH1 0x1F DUP4 ADD AND SWAP1 POP SWAP2 SWAP1 POP JUMP JUMPDEST PUSH32 0x4E487B7100000000000000000000000000000000000000000000000000000000 PUSH0 MSTORE PUSH1 0x41 PUSH1 0x4 MSTORE PUSH1 0x24 PUSH0 REVERT JUMPDEST PUSH2 0x1D0D DUP3 PUSH2 0x1CC7 JUMP JUMPDEST DUP2 ADD DUP2 DUP2 LT PUSH8 0xFFFFFFFFFFFFFFFF DUP3 GT OR ISZERO PUSH2 0x1D2C JUMPI PUSH2 0x1D2B PUSH2 0x1CD7 JUMP JUMPDEST JUMPDEST DUP1 PUSH1 0x40 MSTORE POP POP POP JUMP JUMPDEST PUSH0 PUSH2 0x1D3E PUSH2 0x1C7B JUMP JUMPDEST SWAP1 POP PUSH2 0x1D4A DUP3 DUP3 PUSH2 0x1D04 JUMP JUMPDEST SWAP2 SWAP1 POP JUMP JUMPDEST PUSH0 PUSH8 0xFFFFFFFFFFFFFFFF DUP3 GT ISZERO PUSH2 0x1D69 JUMPI PUSH2 0x1D68 PUSH2 0x1CD7 JUMP JUMPDEST JUMPDEST PUSH2 0x1D72 DUP3 PUSH2 0x1CC7 JUMP JUMPDEST SWAP1 POP PUSH1 0x20 DUP2 ADD SWAP1 POP SWAP2 SWAP1 POP JUMP JUMPDEST DUP3 DUP2 DUP4 CALLDATACOPY PUSH0 DUP4 DUP4 ADD MSTORE POP POP POP JUMP JUMPDEST PUSH0 PUSH2 0x1D9F PUSH2 0x1D9A DUP5 PUSH2 0x1D4F JUMP JUMPDEST PUSH2 0x1D35 JUMP JUMPDEST SWAP1 POP DUP3 DUP2 MSTORE PUSH1 0x20 DUP2 ADD DUP5 DUP5 DUP5 ADD GT ISZERO PUSH2 0x1DBB JUMPI PUSH2 0x1DBA PUSH2 0x1CC3 JUMP JUMPDEST JUMPDEST PUSH2 0x1DC6 DUP5 DUP3 DUP6 PUSH2 0x1D7F JUMP JUMPDEST POP SWAP4 SWAP3 POP POP POP JUMP JUMPDEST PUSH0 DUP3 PUSH1 0x1F DUP4 ADD SLT PUSH2 0x1DE2 JUMPI PUSH2 0x1DE1 PUSH2 0x1CBF JUMP JUMPDEST JUMPDEST DUP2 CALLDATALOAD PUSH2 0x1DF2 DUP5 DUP3 PUSH1 0x20 DUP7 ADD PUSH2 0x1D8D JUMP JUMPDEST SWAP2 POP POP SWAP3 SWAP2 POP POP JUMP JUMPDEST PUSH0 PUSH0 PUSH0 PUSH1 0x60 DUP5 DUP7 SUB SLT ISZERO PUSH2 0x1E12 JUMPI PUSH2 0x1E11 PUSH2 0x1C84 JUMP JUMPDEST JUMPDEST PUSH0 PUSH2 0x1E1F DUP7 DUP3 DUP8 ADD PUSH2 0x1CAB JUMP JUMPDEST SWAP4 POP POP PUSH1 0x20 DUP5 ADD CALLDATALOAD PUSH8 0xFFFFFFFFFFFFFFFF DUP2 GT ISZERO PUSH2 0x1E40 JUMPI PUSH2 0x1E3F PUSH2 0x1C88 JUMP JUMPDEST JUMPDEST PUSH2 0x1E4C DUP7 DUP3 DUP8 ADD PUSH2 0x1DCE JUMP JUMPDEST SWAP3 POP POP PUSH1 0x40 DUP5 ADD CALLDATALOAD PUSH8 0xFFFFFFFFFFFFFFFF DUP2 GT ISZERO PUSH2 0x1E6D JUMPI PUSH2 0x1E6C PUSH2 0x1C88 JUMP JUMPDEST JUMPDEST PUSH2 0x1E79 DUP7 DUP3 DUP8 ADD PUSH2 0x1DCE JUMP JUMPDEST SWAP2 POP POP SWAP3 POP SWAP3 POP SWAP3 JUMP JUMPDEST PUSH2 0x1E8C DUP2 PUSH2 0x1C40 JUMP JUMPDEST DUP2 EQ PUSH2 0x1E96 JUMPI PUSH0 PUSH0 REVERT JUMPDEST POP JUMP JUMPDEST PUSH0 DUP2 CALLDATALOAD SWAP1 POP PUSH2 0x1EA7 DUP2 PUSH2 0x1E83 JUMP JUMPDEST SWAP3 SWAP2 POP POP JUMP JUMPDEST PUSH0 PUSH0 REVERT JUMPDEST PUSH0 PUSH0 REVERT JUMPDEST PUSH0 PUSH0 DUP4 PUSH1 0x1F DUP5 ADD SLT PUSH2 0x1ECA JUMPI PUSH2 0x1EC9 PUSH2 0x1CBF JUMP JUMPDEST JUMPDEST DUP3 CALLDATALOAD SWAP1 POP PUSH8 0xFFFFFFFFFFFFFFFF DUP2 GT ISZERO PUSH2 0x1EE7 JUMPI PUSH2 0x1EE6 PUSH2 0x1EAD JUMP JUMPDEST JUMPDEST PUSH1 0x20 DUP4 ADD SWAP2 POP DUP4 PUSH1 0x1 DUP3 MUL DUP4 ADD GT ISZERO PUSH2 0x1F03 JUMPI PUSH2 0x1F02 PUSH2 0x1EB1 JUMP JUMPDEST JUMPDEST SWAP3 POP SWAP3 SWAP1 POP JUMP JUMPDEST PUSH0 PUSH0 PUSH0 PUSH1 0x40 DUP5 DUP7 SUB SLT ISZERO PUSH2 0x1F21 JUMPI PUSH2 0x1F20 PUSH2 0x1C84 JUMP JUMPDEST JUMPDEST PUSH0 PUSH2 0x1F2E DUP7 DUP3 DUP8 ADD PUSH2 0x1E99 JUMP JUMPDEST SWAP4 POP POP PUSH1 0x20 DUP5 ADD CALLDATALOAD PUSH8 0xFFFFFFFFFFFFFFFF DUP2 GT ISZERO PUSH2 0x1F4F JUMPI PUSH2 0x1F4E PUSH2 0x1C88 JUMP JUMPDEST JUMPDEST PUSH2 0x1F5B DUP7 DUP3 DUP8 ADD PUSH2 0x1EB5 JUMP JUMPDEST SWAP3 POP SWAP3 POP POP SWAP3 POP SWAP3 POP SWAP3 JUMP JUMPDEST PUSH2 0x1F70 DUP2 PUSH2 0x1C8C JUMP JUMPDEST DUP3 MSTORE POP POP JUMP JUMPDEST PUSH0 PUSH1 0x20 DUP3 ADD SWAP1 POP PUSH2 0x1F89 PUSH0 DUP4 ADD DUP5 PUSH2 0x1F67 JUMP JUMPDEST SWAP3 SWAP2 POP POP JUMP JUMPDEST PUSH0 DUP2 MLOAD SWAP1 POP SWAP2 SWAP1 POP JUMP JUMPDEST PUSH0 DUP3 DUP3 MSTORE PUSH1 0x20 DUP3 ADD SWAP1 POP SWAP3 SWAP2 POP POP JUMP JUMPDEST DUP3 DUP2 DUP4 MCOPY PUSH0 DUP4 DUP4 ADD MSTORE POP POP POP JUMP JUMPDEST PUSH0 PUSH2 0x1FC1 DUP3 PUSH2 0x1F8F JUMP JUMPDEST PUSH2 0x1FCB DUP2 DUP6 PUSH2 0x1F99 JUMP JUMPDEST SWAP4 POP PUSH2 0x1FDB DUP2 DUP6 PUSH1 0x20 DUP7 ADD PUSH2 0x1FA9 JUMP JUMPDEST PUSH2 0x1FE4 DUP2 PUSH2 0x1CC7 JUMP JUMPDEST DUP5 ADD SWAP2 POP POP SWAP3 SWAP2 POP POP JUMP JUMPDEST PUSH0 PUSH1 0x20 DUP3 ADD SWAP1 POP DUP2 DUP2 SUB PUSH0 DUP4 ADD MSTORE PUSH2 0x2007 DUP2 DUP5 PUSH2 0x1FB7 JUMP JUMPDEST SWAP1 POP SWAP3 SWAP2 POP POP JUMP JUMPDEST PUSH0 PUSH20 0xFFFFFFFFFFFFFFFFFFFFFFFFFFFFFFFFFFFFFFFF DUP3 AND SWAP1 POP SWAP2 SWAP1 POP JUMP JUMPDEST PUSH0 PUSH2 0x2038 DUP3 PUSH2 0x200F JUMP JUMPDEST SWAP1 POP SWAP2 SWAP1 POP JUMP JUMPDEST PUSH2 0x2048 DUP2 PUSH2 0x202E JUMP JUMPDEST DUP3 MSTORE POP POP JUMP JUMPDEST PUSH0 PUSH1 0x20 DUP3 ADD SWAP1 POP PUSH2 0x2061 PUSH0 DUP4 ADD DUP5 PUSH2 0x203F JUMP JUMPDEST SWAP3 SWAP2 POP POP JUMP JUMPDEST PUSH0 PUSH0 PUSH1 0x20 DUP4 DUP6 SUB SLT ISZERO PUSH2 0x207D JUMPI PUSH2 0x207C PUSH2 0x1C84 JUMP JUMPDEST JUMPDEST PUSH0 DUP4 ADD CALLDATALOAD PUSH8 0xFFFFFFFFFFFFFFFF DUP2 GT ISZERO PUSH2 0x209A JUMPI PUSH2 0x2099 PUSH2 0x1C88 JUMP JUMPDEST JUMPDEST PUSH2 0x20A6 DUP6 DUP3 DUP7 ADD PUSH2 0x1EB5 JUMP JUMPDEST SWAP3 POP SWAP3 POP POP SWAP3 POP SWAP3 SWAP1 POP JUMP JUMPDEST PUSH0 DUP2 SWAP1 POP SWAP2 SWAP1 POP JUMP JUMPDEST PUSH2 0x20C4 DUP2 PUSH2 0x20B2 JUMP JUMPDEST DUP3 MSTORE POP POP JUMP JUMPDEST PUSH0 PUSH1 0x20 DUP3 ADD SWAP1 POP PUSH2 0x20DD PUSH0 DUP4 ADD DUP5 PUSH2 0x20BB JUMP JUMPDEST SWAP3 SWAP2 POP POP JUMP JUMPDEST PUSH0 PUSH0 DUP4 PUSH1 0x1F DUP5 ADD SLT PUSH2 0x20F8 JUMPI PUSH2 0x20F7 PUSH2 0x1CBF JUMP JUMPDEST JUMPDEST DUP3 CALLDATALOAD SWAP1 POP PUSH8 0xFFFFFFFFFFFFFFFF DUP2 GT ISZERO PUSH2 0x2115 JUMPI PUSH2 0x2114 PUSH2 0x1EAD JUMP JUMPDEST JUMPDEST PUSH1 0x20 DUP4 ADD SWAP2 POP DUP4 PUSH1 0x20 DUP3 MUL DUP4 ADD GT ISZERO PUSH2 0x2131 JUMPI PUSH2 0x2130 PUSH2 0x1EB1 JUMP JUMPDEST JUMPDEST SWAP3 POP SWAP3 SWAP1 POP JUMP JUMPDEST PUSH0 PUSH0 PUSH0 PUSH1 0x40 DUP5 DUP7 SUB SLT ISZERO PUSH2 0x214F JUMPI PUSH2 0x214E PUSH2 0x1C84 JUMP JUMPDEST JUMPDEST PUSH0 PUSH2 0x215C DUP7 DUP3 DUP8 ADD PUSH2 0x1E99 JUMP JUMPDEST SWAP4 POP POP PUSH1 0x20 DUP5 ADD CALLDATALOAD PUSH8 0xFFFFFFFFFFFFFFFF DUP2 GT ISZERO PUSH2 0x217D JUMPI PUSH2 0x217C PUSH2 0x1C88 JUMP JUMPDEST JUMPDEST PUSH2 0x2189 DUP7 DUP3 DUP8 ADD PUSH2 0x20E3 JUMP JUMPDEST SWAP3 POP SWAP3 POP POP SWAP3 POP SWAP3 POP SWAP3 JUMP JUMPDEST PUSH0 PUSH8 0xFFFFFFFFFFFFFFFF DUP3 GT ISZERO PUSH2 0x21AF JUMPI PUSH2 0x21AE PUSH2 0x1CD7 JUMP JUMPDEST JUMPDEST PUSH2 0x21B8 DUP3 PUSH2 0x1CC7 JUMP JUMPDEST SWAP1 POP PUSH1 0x20 DUP2 ADD SWAP1 POP SWAP2 SWAP1 POP JUMP JUMPDEST PUSH0 PUSH2 0x21D7 PUSH2 0x21D2 DUP5 PUSH2 0x2195 JUMP JUMPDEST PUSH2 0x1D35 JUMP JUMPDEST SWAP1 POP DUP3 DUP2 MSTORE PUSH1 0x20 DUP2 ADD DUP5 DUP5 DUP5 ADD GT ISZERO PUSH2 0x21F3 JUMPI PUSH2 0x21F2 PUSH2 0x1CC3 JUMP JUMPDEST JUMPDEST PUSH2 0x21FE DUP5 DUP3 DUP6 PUSH2 0x1D7F JUMP JUMPDEST POP SWAP4 SWAP3 POP POP POP JUMP JUMPDEST PUSH0 DUP3 PUSH1 0x1F DUP4 ADD SLT PUSH2 0x221A JUMPI PUSH2 0x2219 PUSH2 0x1CBF JUMP JUMPDEST JUMPDEST DUP2 CALLDATALOAD PUSH2 0x222A DUP5 DUP3 PUSH1 0x20 DUP7 ADD PUSH2 0x21C5 JUMP JUMPDEST SWAP2 POP POP SWAP3 SWAP2 POP POP JUMP JUMPDEST PUSH0 PUSH1 0x20 DUP3 DUP5 SUB SLT ISZERO PUSH2 0x2248 JUMPI PUSH2 0x2247 PUSH2 0x1C84 JUMP JUMPDEST JUMPDEST PUSH0 DUP3 ADD CALLDATALOAD PUSH8 0xFFFFFFFFFFFFFFFF DUP2 GT ISZERO PUSH2 0x2265 JUMPI PUSH2 0x2264 PUSH2 0x1C88 JUMP JUMPDEST JUMPDEST PUSH2 0x2271 DUP5 DUP3 DUP6 ADD PUSH2 0x2206 JUMP JUMPDEST SWAP2 POP POP SWAP3 SWAP2 POP POP JUMP JUMPDEST PUSH2 0x2283 DUP2 PUSH2 0x202E JUMP JUMPDEST DUP2 EQ PUSH2 0x228D JUMPI PUSH0 PUSH0 REVERT JUMPDEST POP JUMP JUMPDEST PUSH0 DUP2 CALLDATALOAD SWAP1 POP PUSH2 0x229E DUP2 PUSH2 0x227A JUMP JUMPDEST SWAP3 SWAP2 POP POP JUMP JUMPDEST PUSH0 PUSH1 0x20 DUP3 DUP5 SUB SLT ISZERO PUSH2 0x22B9 JUMPI PUSH2 0x22B8 PUSH2 0x1C84 JUMP JUMPDEST JUMPDEST PUSH0 PUSH2 0x22C6 DUP5 DUP3 DUP6 ADD PUSH2 0x2290 JUMP JUMPDEST SWAP2 POP POP SWAP3 SWAP2 POP POP JUMP JUMPDEST PUSH0 DUP2 MLOAD SWAP1 POP SWAP2 SWAP1 POP JUMP JUMPDEST PUSH0 DUP3 DUP3 MSTORE PUSH1 0x20 DUP3 ADD SWAP1 POP SWAP3 SWAP2 POP POP JUMP JUMPDEST PUSH0 PUSH2 0x22F3 DUP3 PUSH2 0x22CF JUMP JUMPDEST PUSH2 0x22FD DUP2 DUP6 PUSH2 0x22D9 JUMP JUMPDEST SWAP4 POP PUSH2 0x230D DUP2 DUP6 PUSH1 0x20 DUP7 ADD PUSH2 0x1FA9 JUMP JUMPDEST PUSH2 0x2316 DUP2 PUSH2 0x1CC7 JUMP JUMPDEST DUP5 ADD SWAP2 POP POP SWAP3 SWAP2 POP POP JUMP JUMPDEST PUSH0 PUSH1 0x20 DUP3 ADD SWAP1 POP DUP2 DUP2 SUB PUSH0 DUP4 ADD MSTORE PUSH2 0x2339 DUP2 DUP5 PUSH2 0x22E9 JUMP JUMPDEST SWAP1 POP SWAP3 SWAP2 POP POP JUMP JUMPDEST PUSH0 PUSH2 0x234C DUP4 DUP6 PUSH2 0x22D9 JUMP JUMPDEST SWAP4 POP PUSH2 0x2359 DUP4 DUP6 DUP5 PUSH2 0x1D7F JUMP JUMPDEST PUSH2 0x2362 DUP4 PUSH2 0x1CC7 JUMP JUMPDEST DUP5 ADD SWAP1 POP SWAP4 SWAP3 POP POP POP JUMP JUMPDEST PUSH0 PUSH1 0x20 DUP3 ADD SWAP1 POP DUP2 DUP2 SUB PUSH0 DUP4 ADD MSTORE PUSH2 0x2386 DUP2 DUP5 DUP7 PUSH2 0x2341 JUMP JUMPDEST SWAP1 POP SWAP4 SWAP3 POP POP POP JUMP JUMPDEST PUSH32 0x4E487B7100000000000000000000000000000000000000000000000000000000 PUSH0 MSTORE PUSH1 0x22 PUSH1 0x4 MSTORE PUSH1 0x24 PUSH0 REVERT JUMPDEST PUSH0 PUSH1 0x2 DUP3 DIV SWAP1 POP PUSH1 0x1 DUP3 AND DUP1 PUSH2 0x23D3 JUMPI PUSH1 0x7F DUP3 AND SWAP2 POP JUMPDEST PUSH1 0x20 DUP3 LT DUP2 SUB PUSH2 0x23E6 JUMPI PUSH2 0x23E5 PUSH2 0x238F JUMP JUMPDEST JUMPDEST POP SWAP2 SWAP1 POP JUMP JUMPDEST PUSH32 0x4E487B7100000000000000000000000000000000000000000000000000000000 PUSH0 MSTORE PUSH1 0x32 PUSH1 0x4 MSTORE PUSH1 0x24 PUSH0 REVERT JUMPDEST PUSH0 DUP3 SWAP1 POP SWAP3 SWAP2 POP POP JUMP JUMPDEST PUSH0 DUP2 SWAP1 POP DUP2 PUSH0 MSTORE PUSH1 0x20 PUSH0 KECCAK256 SWAP1 POP SWAP2 SWAP1 POP JUMP JUMPDEST PUSH0 PUSH1 0x20 PUSH1 0x1F DUP4 ADD DIV SWAP1 POP SWAP2 SWAP1 POP JUMP JUMPDEST PUSH0 DUP3 DUP3 SHL SWAP1 POP SWAP3 SWAP2 POP POP JUMP JUMPDEST PUSH0 PUSH1 0x8 DUP4 MUL PUSH2 0x247F PUSH32 0xFFFFFFFFFFFFFFFFFFFFFFFFFFFFFFFFFFFFFFFFFFFFFFFFFFFFFFFFFFFFFFFF DUP3 PUSH2 0x2444 JUMP JUMPDEST PUSH2 0x2489 DUP7 DUP4 PUSH2 0x2444 JUMP JUMPDEST SWAP6 POP DUP1 NOT DUP5 AND SWAP4 POP DUP1 DUP7 AND DUP5 OR SWAP3 POP POP POP SWAP4 SWAP3 POP POP POP JUMP JUMPDEST PUSH0 DUP2 SWAP1 POP SWAP2 SWAP1 POP JUMP JUMPDEST PUSH0 PUSH2 0x24C4 PUSH2 0x24BF PUSH2 0x24BA DUP5 PUSH2 0x20B2 JUMP JUMPDEST PUSH2 0x24A1 JUMP JUMPDEST PUSH2 0x20B2 JUMP JUMPDEST SWAP1 POP SWAP2 SWAP1 POP JUMP JUMPDEST PUSH0 DUP2 SWAP1 POP SWAP2 SWAP1 POP JUMP JUMPDEST PUSH2 0x24DD DUP4 PUSH2 0x24AA JUMP JUMPDEST PUSH2 0x24F1 PUSH2 0x24E9 DUP3 PUSH2 0x24CB JUMP JUMPDEST DUP5 DUP5 SLOAD PUSH2 0x2450 JUMP JUMPDEST DUP3 SSTORE POP POP POP POP JUMP JUMPDEST PUSH0 PUSH0 SWAP1 POP SWAP1 JUMP JUMPDEST PUSH2 0x2508 PUSH2 0x24F9 JUMP JUMPDEST PUSH2 0x2513 DUP2 DUP5 DUP5 PUSH2 0x24D4 JUMP JUMPDEST POP POP POP JUMP JUMPDEST JUMPDEST DUP2 DUP2 LT ISZERO PUSH2 0x2536 JUMPI PUSH2 0x252B PUSH0 DUP3 PUSH2 0x2500 JUMP JUMPDEST PUSH1 0x1 DUP2 ADD SWAP1 POP PUSH2 0x2519 JUMP JUMPDEST POP POP JUMP JUMPDEST PUSH1 0x1F DUP3 GT ISZERO PUSH2 0x257B JUMPI PUSH2 0x254C DUP2 PUSH2 0x2423 JUMP JUMPDEST PUSH2 0x2555 DUP5 PUSH2 0x2435 JUMP JUMPDEST DUP2 ADD PUSH1 0x20 DUP6 LT ISZERO PUSH2 0x2564 JUMPI DUP2 SWAP1 POP JUMPDEST PUSH2 0x2578 PUSH2 0x2570 DUP6 PUSH2 0x2435 JUMP JUMPDEST DUP4 ADD DUP3 PUSH2 0x2518 JUMP JUMPDEST POP POP JUMPDEST POP POP POP JUMP JUMPDEST PUSH0 DUP3 DUP3 SHR SWAP1 POP SWAP3 SWAP2 POP POP JUMP JUMPDEST PUSH0 PUSH2 0x259B PUSH0 NOT DUP5 PUSH1 0x8 MUL PUSH2 0x2580 JUMP JUMPDEST NOT DUP1 DUP4 AND SWAP2 POP POP SWAP3 SWAP2 POP POP JUMP JUMPDEST PUSH0 PUSH2 0x25B3 DUP4 DUP4 PUSH2 0x258C JUMP JUMPDEST SWAP2 POP DUP3 PUSH1 0x2 MUL DUP3 OR SWAP1 POP SWAP3 SWAP2 POP POP JUMP JUMPDEST PUSH2 0x25CD DUP4 DUP4 PUSH2 0x2419 JUMP JUMPDEST PUSH8 0xFFFFFFFFFFFFFFFF DUP2 GT ISZERO PUSH2 0x25E6 JUMPI PUSH2 0x25E5 PUSH2 0x1CD7 JUMP JUMPDEST JUMPDEST PUSH2 0x25F0 DUP3 SLOAD PUSH2 0x23BC JUMP JUMPDEST PUSH2 0x25FB DUP3 DUP3 DUP6 PUSH2 0x253A JUMP JUMPDEST PUSH0 PUSH1 0x1F DUP4 GT PUSH1 0x1 DUP2 EQ PUSH2 0x2628 JUMPI PUSH0 DUP5 ISZERO PUSH2 0x2616 JUMPI DUP3 DUP8 ADD CALLDATALOAD SWAP1 POP JUMPDEST PUSH2 0x2620 DUP6 DUP3 PUSH2 0x25A8 JUMP JUMPDEST DUP7 SSTORE POP PUSH2 0x2687 JUMP JUMPDEST PUSH1 0x1F NOT DUP5 AND PUSH2 0x2636 DUP7 PUSH2 0x2423 JUMP JUMPDEST PUSH0 JUMPDEST DUP3 DUP2 LT ISZERO PUSH2 0x265D JUMPI DUP5 DUP10 ADD CALLDATALOAD DUP3 SSTORE PUSH1 0x1 DUP3 ADD SWAP2 POP PUSH1 0x20 DUP6 ADD SWAP5 POP PUSH1 0x20 DUP2 ADD SWAP1 POP PUSH2 0x2638 JUMP JUMPDEST DUP7 DUP4 LT ISZERO PUSH2 0x267A JUMPI DUP5 DUP10 ADD CALLDATALOAD PUSH2 0x2676 PUSH1 0x1F DUP10 AND DUP3 PUSH2 0x258C JUMP JUMPDEST DUP4 SSTORE POP JUMPDEST PUSH1 0x1 PUSH1 0x2 DUP9 MUL ADD DUP9 SSTORE POP POP POP JUMPDEST POP POP POP POP POP POP POP JUMP JUMPDEST PUSH0 DUP2 SWAP1 POP SWAP3 SWAP2 POP POP JUMP JUMPDEST PUSH0 PUSH2 0x26A5 DUP4 DUP6 PUSH2 0x2690 JUMP JUMPDEST SWAP4 POP PUSH2 0x26B2 DUP4 DUP6 DUP5 PUSH2 0x1D7F JUMP JUMPDEST DUP3 DUP5 ADD SWAP1 POP SWAP4 SWAP3 POP POP POP JUMP JUMPDEST PUSH0 PUSH2 0x26CA DUP3 DUP5 DUP7 PUSH2 0x269A JUMP JUMPDEST SWAP2 POP DUP2 SWAP1 POP SWAP4 SWAP3 POP POP POP JUMP JUMPDEST PUSH0 PUSH8 0xFFFFFFFFFFFFFFFF DUP3 GT ISZERO PUSH2 0x26F0 JUMPI PUSH2 0x26EF PUSH2 0x1CD7 JUMP JUMPDEST JUMPDEST PUSH1 0x20 DUP3 MUL SWAP1 POP PUSH1 0x20 DUP2 ADD SWAP1 POP SWAP2 SWAP1 POP JUMP JUMPDEST PUSH0 PUSH2 0x2713 PUSH2 0x270E DUP5 PUSH2 0x26D6 JUMP JUMPDEST PUSH2 0x1D35 JUMP JUMPDEST SWAP1 POP DUP1 DUP4 DUP3 MSTORE PUSH1 0x20 DUP3 ADD SWAP1 POP PUSH1 0x20 DUP5 MUL DUP4 ADD DUP6 DUP2 GT ISZERO PUSH2 0x2736 JUMPI PUSH2 0x2735 PUSH2 0x1EB1 JUMP JUMPDEST JUMPDEST DUP4 JUMPDEST DUP2 DUP2 LT ISZERO PUSH2 0x277D JUMPI DUP1 CALLDATALOAD PUSH8 0xFFFFFFFFFFFFFFFF DUP2 GT ISZERO PUSH2 0x275B JUMPI PUSH2 0x275A PUSH2 0x1CBF JUMP JUMPDEST JUMPDEST DUP1 DUP7 ADD PUSH2 0x2768 DUP10 DUP3 PUSH2 0x2206 JUMP JUMPDEST DUP6 MSTORE PUSH1 0x20 DUP6 ADD SWAP5 POP POP POP PUSH1 0x20 DUP2 ADD SWAP1 POP PUSH2 0x2738 JUMP JUMPDEST POP POP POP SWAP4 SWAP3 POP POP POP JUMP JUMPDEST PUSH0 PUSH2 0x2793 CALLDATASIZE DUP5 DUP5 PUSH2 0x2701 JUMP JUMPDEST SWAP1 POP SWAP3 SWAP2 POP POP JUMP JUMPDEST PUSH32 0x4D7573742062652070726F706F736564206F776E657200000000000000000000 PUSH0 DUP3 ADD MSTORE POP JUMP JUMPDEST PUSH0 PUSH2 0x27CF PUSH1 0x16 DUP4 PUSH2 0x22D9 JUMP JUMPDEST SWAP2 POP PUSH2 0x27DA DUP3 PUSH2 0x279B JUMP JUMPDEST PUSH1 0x20 DUP3 ADD SWAP1 POP SWAP2 SWAP1 POP JUMP JUMPDEST PUSH0 PUSH1 0x20 DUP3 ADD SWAP1 POP DUP2 DUP2 SUB PUSH0 DUP4 ADD MSTORE PUSH2 0x27FC DUP2 PUSH2 0x27C3 JUMP JUMPDEST SWAP1 POP SWAP2 SWAP1 POP JUMP JUMPDEST PUSH0 DUP2 SWAP1 POP DUP2 PUSH0 MSTORE PUSH1 0x20 PUSH0 KECCAK256 SWAP1 POP SWAP2 SWAP1 POP JUMP JUMPDEST PUSH1 0x1F DUP3 GT ISZERO PUSH2 0x2856 JUMPI PUSH2 0x2827 DUP2 PUSH2 0x2803 JUMP JUMPDEST PUSH2 0x2830 DUP5 PUSH2 0x2435 JUMP JUMPDEST DUP2 ADD PUSH1 0x20 DUP6 LT ISZERO PUSH2 0x283F JUMPI DUP2 SWAP1 POP JUMPDEST PUSH2 0x2853 PUSH2 0x284B DUP6 PUSH2 0x2435 JUMP JUMPDEST DUP4 ADD DUP3 PUSH2 0x2518 JUMP JUMPDEST POP POP JUMPDEST POP POP POP JUMP JUMPDEST PUSH2 0x2864 DUP3 PUSH2 0x1F8F JUMP JUMPDEST PUSH8 0xFFFFFFFFFFFFFFFF DUP2 GT ISZERO PUSH2 0x287D JUMPI PUSH2 0x287C PUSH2 0x1CD7 JUMP JUMPDEST JUMPDEST PUSH2 0x2887 DUP3 SLOAD PUSH2 0x23BC JUMP JUMPDEST PUSH2 0x2892 DUP3 DUP3 DUP6 PUSH2 0x2815 JUMP JUMPDEST PUSH0 PUSH1 0x20 SWAP1 POP PUSH1 0x1F DUP4 GT PUSH1 0x1 DUP2 EQ PUSH2 0x28C3 JUMPI PUSH0 DUP5 ISZERO PUSH2 0x28B1 JUMPI DUP3 DUP8 ADD MLOAD SWAP1 POP JUMPDEST PUSH2 0x28BB DUP6 DUP3 PUSH2 0x25A8 JUMP JUMPDEST DUP7 SSTORE POP PUSH2 0x2922 JUMP JUMPDEST PUSH1 0x1F NOT DUP5 AND PUSH2 0x28D1 DUP7 PUSH2 0x2803 JUMP JUMPDEST PUSH0 JUMPDEST DUP3 DUP2 LT ISZERO PUSH2 0x28F8 JUMPI DUP5 DUP10 ADD MLOAD DUP3 SSTORE PUSH1 0x1 DUP3 ADD SWAP2 POP PUSH1 0x20 DUP6 ADD SWAP5 POP PUSH1 0x20 DUP2 ADD SWAP1 POP PUSH2 0x28D3 JUMP JUMPDEST DUP7 DUP4 LT ISZERO PUSH2 0x2915 JUMPI DUP5 DUP10 ADD MLOAD PUSH2 0x2911 PUSH1 0x1F DUP10 AND DUP3 PUSH2 0x258C JUMP JUMPDEST DUP4 SSTORE POP JUMPDEST PUSH1 0x1 PUSH1 0x2 DUP9 MUL ADD DUP9 SSTORE POP POP POP JUMPDEST POP POP POP POP POP POP JUMP JUMPDEST PUSH2 0x2933 DUP2 PUSH2 0x20B2 JUMP JUMPDEST DUP2 EQ PUSH2 0x293D JUMPI PUSH0 PUSH0 REVERT JUMPDEST POP JUMP JUMPDEST PUSH0 DUP2 MLOAD SWAP1 POP PUSH2 0x294E DUP2 PUSH2 0x292A JUMP JUMPDEST SWAP3 SWAP2 POP POP JUMP JUMPDEST PUSH0 PUSH1 0x20 DUP3 DUP5 SUB SLT ISZERO PUSH2 0x2969 JUMPI PUSH2 0x2968 PUSH2 0x1C84 JUMP JUMPDEST JUMPDEST PUSH0 PUSH2 0x2976 DUP5 DUP3 DUP6 ADD PUSH2 0x2940 JUMP JUMPDEST SWAP2 POP POP SWAP3 SWAP2 POP POP JUMP JUMPDEST PUSH0 DUP2 SLOAD PUSH2 0x298B DUP2 PUSH2 0x23BC JUMP JUMPDEST PUSH2 0x2995 DUP2 DUP7 PUSH2 0x2690 JUMP JUMPDEST SWAP5 POP PUSH1 0x1 DUP3 AND PUSH0 DUP2 EQ PUSH2 0x29AF JUMPI PUSH1 0x1 DUP2 EQ PUSH2 0x29C4 JUMPI PUSH2 0x29F6 JUMP JUMPDEST PUSH1 0xFF NOT DUP4 AND DUP7 MSTORE DUP2 ISZERO ISZERO DUP3 MUL DUP7 ADD SWAP4 POP PUSH2 0x29F6 JUMP JUMPDEST PUSH2 0x29CD DUP6 PUSH2 0x2423 JUMP JUMPDEST PUSH0 JUMPDEST DUP4 DUP2 LT ISZERO PUSH2 0x29EE JUMPI DUP2 SLOAD DUP2 DUP10 ADD MSTORE PUSH1 0x1 DUP3 ADD SWAP2 POP PUSH1 0x20 DUP2 ADD SWAP1 POP PUSH2 0x29CF JUMP JUMPDEST DUP4 DUP9 ADD SWAP6 POP POP POP JUMPDEST POP POP POP SWAP3 SWAP2 POP POP JUMP JUMPDEST PUSH0 PUSH2 0x2A0A DUP3 DUP5 PUSH2 0x297F JUMP JUMPDEST SWAP2 POP DUP2 SWAP1 POP SWAP3 SWAP2 POP POP JUMP JUMPDEST PUSH0 DUP2 SLOAD PUSH2 0x2A21 DUP2 PUSH2 0x23BC JUMP JUMPDEST PUSH2 0x2A2B DUP2 DUP7 PUSH2 0x22D9 JUMP JUMPDEST SWAP5 POP PUSH1 0x1 DUP3 AND PUSH0 DUP2 EQ PUSH2 0x2A45 JUMPI PUSH1 0x1 DUP2 EQ PUSH2 0x2A5B JUMPI PUSH2 0x2A8D JUMP JUMPDEST PUSH1 0xFF NOT DUP4 AND DUP7 MSTORE DUP2 ISZERO ISZERO PUSH1 0x20 MUL DUP7 ADD SWAP4 POP PUSH2 0x2A8D JUMP JUMPDEST PUSH2 0x2A64 DUP6 PUSH2 0x2423 JUMP JUMPDEST PUSH0 JUMPDEST DUP4 DUP2 LT ISZERO PUSH2 0x2A85 JUMPI DUP2 SLOAD DUP2 DUP10 ADD MSTORE PUSH1 0x1 DUP3 ADD SWAP2 POP PUSH1 0x20 DUP2 ADD SWAP1 POP PUSH2 0x2A66 JUMP JUMPDEST DUP1 DUP9 ADD SWAP6 POP POP POP JUMPDEST POP POP POP SWAP3 SWAP2 POP POP JUMP JUMPDEST PUSH0 PUSH1 0x80 DUP3 ADD SWAP1 POP DUP2 DUP2 SUB PUSH0 DUP4 ADD MSTORE PUSH2 0x2AAE DUP2 DUP8 PUSH2 0x2A15 JUMP JUMPDEST SWAP1 POP PUSH2 0x2ABD PUSH1 0x20 DUP4 ADD DUP7 PUSH2 0x1C18 JUMP JUMPDEST DUP2 DUP2 SUB PUSH1 0x40 DUP4 ADD MSTORE PUSH2 0x2ACF DUP2 DUP6 PUSH2 0x1FB7 JUMP JUMPDEST SWAP1 POP DUP2 DUP2 SUB PUSH1 0x60 DUP4 ADD MSTORE PUSH2 0x2AE3 DUP2 DUP5 PUSH2 0x1FB7 JUMP JUMPDEST SWAP1 POP SWAP6 SWAP5 POP POP POP POP POP JUMP JUMPDEST PUSH2 0x2AF7 DUP3 PUSH2 0x22CF JUMP JUMPDEST PUSH8 0xFFFFFFFFFFFFFFFF DUP2 GT ISZERO PUSH2 0x2B10 JUMPI PUSH2 0x2B0F PUSH2 0x1CD7 JUMP JUMPDEST JUMPDEST PUSH2 0x2B1A DUP3 SLOAD PUSH2 0x23BC JUMP JUMPDEST PUSH2 0x2B25 DUP3 DUP3 DUP6 PUSH2 0x253A JUMP JUMPDEST PUSH0 PUSH1 0x20 SWAP1 POP PUSH1 0x1F DUP4 GT PUSH1 0x1 DUP2 EQ PUSH2 0x2B56 JUMPI PUSH0 DUP5 ISZERO PUSH2 0x2B44 JUMPI DUP3 DUP8 ADD MLOAD SWAP1 POP JUMPDEST PUSH2 0x2B4E DUP6 DUP3 PUSH2 0x25A8 JUMP JUMPDEST DUP7 SSTORE POP PUSH2 0x2BB5 JUMP JUMPDEST PUSH1 0x1F NOT DUP5 AND PUSH2 0x2B64 DUP7 PUSH2 0x2423 JUMP JUMPDEST PUSH0 JUMPDEST DUP3 DUP2 LT ISZERO PUSH2 0x2B8B JUMPI DUP5 DUP10 ADD MLOAD DUP3 SSTORE PUSH1 0x1 DUP3 ADD SWAP2 POP PUSH1 0x20 DUP6 ADD SWAP5 POP PUSH1 0x20 DUP2 ADD SWAP1 POP PUSH2 0x2B66 JUMP JUMPDEST DUP7 DUP4 LT ISZERO PUSH2 0x2BA8 JUMPI DUP5 DUP10 ADD MLOAD PUSH2 0x2BA4 PUSH1 0x1F DUP10 AND DUP3 PUSH2 0x258C JUMP JUMPDEST DUP4 SSTORE POP JUMPDEST PUSH1 0x1 PUSH1 0x2 DUP9 MUL ADD DUP9 SSTORE POP POP POP JUMPDEST POP POP POP POP POP POP JUMP JUMPDEST PUSH0 PUSH1 0x60 DUP3 ADD SWAP1 POP PUSH2 0x2BD0 PUSH0 DUP4 ADD DUP7 PUSH2 0x20BB JUMP JUMPDEST DUP2 DUP2 SUB PUSH1 0x20 DUP4 ADD MSTORE PUSH2 0x2BE2 DUP2 DUP6 PUSH2 0x1FB7 JUMP JUMPDEST SWAP1 POP DUP2 DUP2 SUB PUSH1 0x40 DUP4 ADD MSTORE PUSH2 0x2BF6 DUP2 DUP5 PUSH2 0x1FB7 JUMP JUMPDEST SWAP1 POP SWAP5 SWAP4 POP POP POP POP JUMP JUMPDEST PUSH32 0x4F6E6C792063616C6C61626C65206279206F776E657200000000000000000000 PUSH0 DUP3 ADD MSTORE POP JUMP JUMPDEST PUSH0 PUSH2 0x2C34 PUSH1 0x16 DUP4 PUSH2 0x22D9 JUMP JUMPDEST SWAP2 POP PUSH2 0x2C3F DUP3 PUSH2 0x2C00 JUMP JUMPDEST PUSH1 0x20 DUP3 ADD SWAP1 POP SWAP2 SWAP1 POP JUMP JUMPDEST PUSH0 PUSH1 0x20 DUP3 ADD SWAP1 POP DUP2 DUP2 SUB PUSH0 DUP4 ADD MSTORE PUSH2 0x2C61 DUP2 PUSH2 0x2C28 JUMP JUMPDEST SWAP1 POP SWAP2 SWAP1 POP JUMP JUMPDEST PUSH32 0x4E487B7100000000000000000000000000000000000000000000000000000000 PUSH0 MSTORE PUSH1 0x21 PUSH1 0x4 MSTORE PUSH1 0x24 PUSH0 REVERT JUMPDEST PUSH0 PUSH2 0xFFFF DUP3 AND SWAP1 POP SWAP2 SWAP1 POP JUMP JUMPDEST PUSH2 0x2CAB DUP2 PUSH2 0x2C95 JUMP JUMPDEST DUP3 MSTORE POP POP JUMP JUMPDEST PUSH0 PUSH4 0xFFFFFFFF DUP3 AND SWAP1 POP SWAP2 SWAP1 POP JUMP JUMPDEST PUSH2 0x2CC9 DUP2 PUSH2 0x2CB1 JUMP JUMPDEST DUP3 MSTORE POP POP JUMP JUMPDEST PUSH0 PUSH1 0xA0 DUP3 ADD SWAP1 POP PUSH2 0x2CE2 PUSH0 DUP4 ADD DUP9 PUSH2 0x1C53 JUMP JUMPDEST DUP2 DUP2 SUB PUSH1 0x20 DUP4 ADD MSTORE PUSH2 0x2CF4 DUP2 DUP8 PUSH2 0x1FB7 JUMP JUMPDEST SWAP1 POP PUSH2 0x2D03 PUSH1 0x40 DUP4 ADD DUP7 PUSH2 0x2CA2 JUMP JUMPDEST PUSH2 0x2D10 PUSH1 0x60 DUP4 ADD DUP6 PUSH2 0x2CC0 JUMP JUMPDEST PUSH2 0x2D1D PUSH1 0x80 DUP4 ADD DUP5 PUSH2 0x1F67 JUMP JUMPDEST SWAP7 SWAP6 POP POP POP POP POP POP JUMP JUMPDEST PUSH0 DUP2 MLOAD SWAP1 POP PUSH2 0x2D35 DUP2 PUSH2 0x1C95 JUMP JUMPDEST SWAP3 SWAP2 POP POP JUMP JUMPDEST PUSH0 PUSH1 0x20 DUP3 DUP5 SUB SLT ISZERO PUSH2 0x2D50 JUMPI PUSH2 0x2D4F PUSH2 0x1C84 JUMP JUMPDEST JUMPDEST PUSH0 PUSH2 0x2D5D DUP5 DUP3 DUP6 ADD PUSH2 0x2D27 JUMP JUMPDEST SWAP2 POP POP SWAP3 SWAP2 POP POP JUMP JUMPDEST PUSH32 0x43616E6E6F74207472616E7366657220746F2073656C66000000000000000000 PUSH0 DUP3 ADD MSTORE POP JUMP JUMPDEST PUSH0 PUSH2 0x2D9A PUSH1 0x17 DUP4 PUSH2 0x22D9 JUMP JUMPDEST SWAP2 POP PUSH2 0x2DA5 DUP3 PUSH2 0x2D66 JUMP JUMPDEST PUSH1 0x20 DUP3 ADD SWAP1 POP SWAP2 SWAP1 POP JUMP JUMPDEST PUSH0 PUSH1 0x20 DUP3 ADD SWAP1 POP DUP2 DUP2 SUB PUSH0 DUP4 ADD MSTORE PUSH2 0x2DC7 DUP2 PUSH2 0x2D8E JUMP JUMPDEST SWAP1 POP SWAP2 SWAP1 POP JUMP JUMPDEST PUSH32 0x4E487B7100000000000000000000000000000000000000000000000000000000 PUSH0 MSTORE PUSH1 0x11 PUSH1 0x4 MSTORE PUSH1 0x24 PUSH0 REVERT JUMPDEST PUSH0 PUSH2 0x2E05 DUP3 PUSH2 0x20B2 JUMP JUMPDEST SWAP2 POP PUSH2 0x2E10 DUP4 PUSH2 0x20B2 JUMP JUMPDEST SWAP3 POP DUP3 DUP3 ADD SWAP1 POP DUP1 DUP3 GT ISZERO PUSH2 0x2E28 JUMPI PUSH2 0x2E27 PUSH2 0x2DCE JUMP JUMPDEST JUMPDEST SWAP3 SWAP2 POP POP JUMP JUMPDEST PUSH0 PUSH2 0x2E38 DUP3 PUSH2 0x20B2 JUMP JUMPDEST SWAP2 POP PUSH2 0x2E43 DUP4 PUSH2 0x20B2 JUMP JUMPDEST SWAP3 POP DUP3 DUP3 SUB SWAP1 POP DUP2 DUP2 GT ISZERO PUSH2 0x2E5B JUMPI PUSH2 0x2E5A PUSH2 0x2DCE JUMP JUMPDEST JUMPDEST SWAP3 SWAP2 POP POP JUMP JUMPDEST PUSH32 0x4E487B7100000000000000000000000000000000000000000000000000000000 PUSH0 MSTORE PUSH1 0x12 PUSH1 0x4 MSTORE PUSH1 0x24 PUSH0 REVERT JUMPDEST PUSH0 PUSH2 0x2E98 DUP3 PUSH2 0x20B2 JUMP JUMPDEST SWAP2 POP PUSH2 0x2EA3 DUP4 PUSH2 0x20B2 JUMP JUMPDEST SWAP3 POP DUP3 PUSH2 0x2EB3 JUMPI PUSH2 0x2EB2 PUSH2 0x2E61 JUMP JUMPDEST JUMPDEST DUP3 DUP3 MOD SWAP1 POP SWAP3 SWAP2 POP POP JUMP JUMPDEST PUSH0 PUSH2 0x2EC8 DUP3 PUSH2 0x20B2 JUMP JUMPDEST SWAP2 POP PUSH2 0x2ED3 DUP4 PUSH2 0x20B2 JUMP JUMPDEST SWAP3 POP DUP3 DUP3 MUL PUSH2 0x2EE1 DUP2 PUSH2 0x20B2 JUMP JUMPDEST SWAP2 POP DUP3 DUP3 DIV DUP5 EQ DUP4 ISZERO OR PUSH2 0x2EF8 JUMPI PUSH2 0x2EF7 PUSH2 0x2DCE JUMP JUMPDEST JUMPDEST POP SWAP3 SWAP2 POP POP JUMP JUMPDEST PUSH0 DUP2 PUSH1 0x1 SHR SWAP1 POP SWAP2 SWAP1 POP JUMP JUMPDEST PUSH0 PUSH0 DUP3 SWAP2 POP DUP4 SWAP1 POP JUMPDEST PUSH1 0x1 DUP6 GT ISZERO PUSH2 0x2F54 JUMPI DUP1 DUP7 DIV DUP2 GT ISZERO PUSH2 0x2F30 JUMPI PUSH2 0x2F2F PUSH2 0x2DCE JUMP JUMPDEST JUMPDEST PUSH1 0x1 DUP6 AND ISZERO PUSH2 0x2F3F JUMPI DUP1 DUP3 MUL SWAP2 POP JUMPDEST DUP1 DUP2 MUL SWAP1 POP PUSH2 0x2F4D DUP6 PUSH2 0x2EFF JUMP JUMPDEST SWAP5 POP PUSH2 0x2F14 JUMP JUMPDEST SWAP5 POP SWAP5 SWAP3 POP POP POP JUMP JUMPDEST PUSH0 DUP3 PUSH2 0x2F6C JUMPI PUSH1 0x1 SWAP1 POP PUSH2 0x3027 JUMP JUMPDEST DUP2 PUSH2 0x2F79 JUMPI PUSH0 SWAP1 POP PUSH2 0x3027 JUMP JUMPDEST DUP2 PUSH1 0x1 DUP2 EQ PUSH2 0x2F8F JUMPI PUSH1 0x2 DUP2 EQ PUSH2 0x2F99 JUMPI PUSH2 0x2FC8 JUMP JUMPDEST PUSH1 0x1 SWAP2 POP POP PUSH2 0x3027 JUMP JUMPDEST PUSH1 0xFF DUP5 GT ISZERO PUSH2 0x2FAB JUMPI PUSH2 0x2FAA PUSH2 0x2DCE JUMP JUMPDEST JUMPDEST DUP4 PUSH1 0x2 EXP SWAP2 POP DUP5 DUP3 GT ISZERO PUSH2 0x2FC2 JUMPI PUSH2 0x2FC1 PUSH2 0x2DCE JUMP JUMPDEST JUMPDEST POP PUSH2 0x3027 JUMP JUMPDEST POP PUSH1 0x20 DUP4 LT PUSH2 0x133 DUP4 LT AND PUSH1 0x4E DUP5 LT PUSH1 0xB DUP5 LT AND OR ISZERO PUSH2 0x2FFD JUMPI DUP3 DUP3 EXP SWAP1 POP DUP4 DUP2 GT ISZERO PUSH2 0x2FF8 JUMPI PUSH2 0x2FF7 PUSH2 0x2DCE JUMP JUMPDEST JUMPDEST PUSH2 0x3027 JUMP JUMPDEST PUSH2 0x300A DUP5 DUP5 DUP5 PUSH1 0x1 PUSH2 0x2F0B JUMP JUMPDEST SWAP3 POP SWAP1 POP DUP2 DUP5 DIV DUP2 GT ISZERO PUSH2 0x3021 JUMPI PUSH2 0x3020 PUSH2 0x2DCE JUMP JUMPDEST JUMPDEST DUP2 DUP2 MUL SWAP1 POP JUMPDEST SWAP4 SWAP3 POP POP POP JUMP JUMPDEST PUSH0 PUSH2 0x3038 DUP3 PUSH2 0x20B2 JUMP JUMPDEST SWAP2 POP PUSH2 0x3043 DUP4 PUSH2 0x20B2 JUMP JUMPDEST SWAP3 POP PUSH2 0x3070 PUSH32 0xFFFFFFFFFFFFFFFFFFFFFFFFFFFFFFFFFFFFFFFFFFFFFFFFFFFFFFFFFFFFFFFF DUP5 DUP5 PUSH2 0x2F5D JUMP JUMPDEST SWAP1 POP SWAP3 SWAP2 POP POP JUMP INVALID LOG2 PUSH5 0x6970667358 0x22 SLT KECCAK256 0xE8 PUSH1 0xAD PUSH21 0xD4325C806E799CE0337582DE79FDC43B99C42F3B36 MOD 0x28 DUP1 MSTORE8 0xEB DUP6 PUSH29 0x64736F6C634300081E0033636F6E7374207469636B65744964203D2061 PUSH19 0x67735B305D3B636F6E73742075726C203D2027 PUSH9 0x747470733A2F2F3638 CALLVALUE BALANCE PUSH4 0x66336164 CALLVALUE CODESIZE CALLDATALOAD BALANCE CALLDATASIZE PUSH5 0x3164333563 PUSH7 0x3731632E6D6F63 PUSH12 0x6170692E696F2F7665726966 PUSH26 0x7469636B6574732F27202B207469636B657449643B636F6E7374 KECCAK256 PUSH19 0x6573706F6E7365203D2061776169742046756E PUSH4 0x74696F6E PUSH20 0x2E6D616B654874747052657175657374287B2075 PUSH19 0x6C207D293B69662028726573706F6E73652E65 PUSH19 0x726F7229207B207468726F77204572726F7228 0x27 MSTORE PUSH6 0x717565737420 PUSH7 0x61696C65642729 EXTCODESIZE KECCAK256 PUSH30 0x636F6E73742064617461203D20726573706F6E73652E646174613B696620 0x28 0x21 PUSH5 0x617461207C PUSH29 0x20747970656F66206461746120213D3D20276F626A6563742729207468 PUSH19 0x6F77204572726F7228605469636B6574204944 KECCAK256 0x24 PUSH28 0x7469636B657449647D206E6F7420666F756E64206F7220696E76616C PUSH10 0x6460293B636F6E737420 PUSH10 0x7355736564203D206461 PUSH21 0x612E75736564203D3D3D20747275653B7265747572 PUSH15 0x2046756E6374696F6E732E656E636F PUSH5 0x6555696E74 ORIGIN CALLDATALOAD CALLDATASIZE 0x28 PUSH10 0x7355736564203F203120 GASPRICE KECCAK256 ADDRESS 0x29 EXTCODESIZE PUSH4 0x6F6E7374 KECCAK256 PUSH6 0x76656E744964 KECCAK256 RETURNDATASIZE KECCAK256 PUSH2 0x7267 PUSH20 0x5B305D3B636F6E73742075726C203D2027687474 PUSH17 0x733A2F2F36383431636633616434383531 CALLDATASIZE PUSH5 0x3164333563 PUSH7 0x3731632E6D6F63 PUSH12 0x6170692E696F2F7469636B65 PUSH21 0x732F27202B206576656E7449643B636F6E73742072 PUSH6 0x73706F6E7365 KECCAK256 RETURNDATASIZE KECCAK256 PUSH2 0x7761 PUSH10 0x742046756E6374696F6E PUSH20 0x2E6D616B654874747052657175657374287B2075 PUSH19 0x6C207D293B69662028726573706F6E73652E65 PUSH19 0x726F7229207B207468726F77204572726F7228 0x27 MSTORE PUSH6 0x717565737420 PUSH7 0x61696C65642729 EXTCODESIZE KECCAK256 PUSH30 0x636F6E73742064617461203D20726573706F6E73652E646174613B696620 0x28 0x21 PUSH5 0x617461207C PUSH29 0x20747970656F66206461746120213D3D20276F626A6563742729207468 PUSH19 0x6F77204572726F722860496E76616C69642072 PUSH6 0x73706F6E7365 PUSH1 0x29 EXTCODESIZE PUSH4 0x6F6E7374 KECCAK256 PUSH19 0x617752656D61696E696E67203D20646174612E PUSH19 0x656D61696E696E673B636F6E73742061766169 PUSH13 0x61626C65203D204E756D626572 0x28 PUSH19 0x617752656D61696E696E67293B69662028214E PUSH22 0x6D6265722E697346696E69746528617661696C61626C PUSH6 0x292920746872 PUSH16 0x77204572726F722860496E76616C6964 KECCAK256 PUSH21 0x69636B657420636F756E743A20247B72617752656D PUSH2 0x696E PUSH10 0x6E677D60293B72657475 PUSH19 0x6E2046756E6374696F6E732E656E636F646555 PUSH10 0x6E743235362861766169 PUSH13 0x61626C65293B00000000000000 "
		},
		"gasEstimates": {
			"creation": {
				"codeDepositCost": "2492400",
				"executionCost": "infinite",
				"totalCost": "infinite"
			},
			"external": {
				"acceptOwnership()": "54554",
				"feeRecipient()": "2531",
				"handleOracleFulfillment(bytes32,bytes,bytes)": "infinite",
				"isTicketUsed(string)": "infinite",
				"maxListingDuration()": "2491",
				"minListingDuration()": "2514",
				"owner()": "2581",
				"platformFeePercent()": "2470",
				"remainingTickets()": "2514",
				"requestRemainingTickets(uint64,string[])": "infinite",
				"s_lastCheckedTicketId()": "infinite",
				"s_lastError()": "infinite",
				"s_lastRequestId()": "2447",
				"s_lastResponse()": "infinite",
				"s_lastTicketUsed()": "2490",
				"subscriptionId()": "2512",
				"supportedContracts(address)": "2877",
				"ticketUsageStatus(string)": "infinite",
				"transferOwnership(address)": "30737",
				"verifyTicketUsage(uint64,string)": "infinite"
			}
		},
		"methodIdentifiers": {
			"acceptOwnership()": "79ba5097",
			"feeRecipient()": "46904840",
			"handleOracleFulfillment(bytes32,bytes,bytes)": "0ca76175",
			"isTicketUsed(string)": "5a3d7263",
			"maxListingDuration()": "def050c5",
			"minListingDuration()": "957d90d4",
			"owner()": "8da5cb5b",
			"platformFeePercent()": "8c639a85",
			"remainingTickets()": "5d504832",
			"requestRemainingTickets(uint64,string[])": "731cbea8",
			"s_lastCheckedTicketId()": "f9aff1e8",
			"s_lastError()": "4b0795a8",
			"s_lastRequestId()": "b1e21749",
			"s_lastResponse()": "3944ea3a",
			"s_lastTicketUsed()": "01c47c8b",
			"subscriptionId()": "09c1ba2e",
			"supportedContracts(address)": "b7ff920e",
			"ticketUsageStatus(string)": "b106b39d",
			"transferOwnership(address)": "f2fde38b",
			"verifyTicketUsage(uint64,string)": "34a9620c"
		}
	},
	"abi": [
		{
			"inputs": [],
			"name": "EmptyArgs",
			"type": "error"
		},
		{
			"inputs": [],
			"name": "EmptySource",
			"type": "error"
		},
		{
			"inputs": [],
			"name": "EventEnded",
			"type": "error"
		},
		{
			"inputs": [],
			"name": "InsufficientPayment",
			"type": "error"
		},
		{
			"inputs": [],
			"name": "InvalidDuration",
			"type": "error"
		},
		{
			"inputs": [],
			"name": "InvalidFeePercent",
			"type": "error"
		},
		{
			"inputs": [],
			"name": "InvalidPrice",
			"type": "error"
		},
		{
			"inputs": [
				{
					"internalType": "string",
					"name": "ticketId",
					"type": "string"
				}
			],
			"name": "InvalidTicketID",
			"type": "error"
		},
		{
			"inputs": [],
			"name": "ListingExpired",
			"type": "error"
		},
		{
			"inputs": [],
			"name": "ListingNotActive",
			"type": "error"
		},
		{
			"inputs": [],
			"name": "ListingNotFound",
			"type": "error"
		},
		{
			"inputs": [],
			"name": "NoInlineSecrets",
			"type": "error"
		},
		{
			"inputs": [],
			"name": "NotSeller",
			"type": "error"
		},
		{
			"inputs": [],
			"name": "NotTokenOwner",
			"type": "error"
		},
		{
			"inputs": [],
			"name": "OnlyRouterCanFulfill",
			"type": "error"
		},
		{
			"inputs": [
				{
					"internalType": "string",
					"name": "ticketId",
					"type": "string"
				}
			],
			"name": "TicketAlreadyUsed",
			"type": "error"
		},
		{
			"inputs": [
				{
					"internalType": "string",
					"name": "ticketId",
					"type": "string"
				}
			],
			"name": "TicketNotFresh",
			"type": "error"
		},
		{
			"inputs": [],
			"name": "TokenAlreadyListed",
			"type": "error"
		},
		{
			"inputs": [],
			"name": "TokenNotApproved",
			"type": "error"
		},
		{
			"inputs": [],
			"name": "TransferFailed",
			"type": "error"
		},
		{
			"inputs": [
				{
					"internalType": "bytes32",
					"name": "requestId",
					"type": "bytes32"
				}
			],
			"name": "UnexpectedRequestID",
			"type": "error"
		},
		{
			"inputs": [],
			"name": "UnsupportedContract",
			"type": "error"
		},
		{
			"inputs": [],
			"name": "ZeroAddress",
			"type": "error"
		},
		{
			"anonymous": false,
			"inputs": [
				{
					"indexed": false,
					"internalType": "address",
					"name": "nftContract",
					"type": "address"
				},
				{
					"indexed": false,
					"internalType": "bool",
					"name": "supported",
					"type": "bool"
				}
			],
			"name": "ContractSupportUpdated",
			"type": "event"
		},
		{
			"anonymous": false,
			"inputs": [
				{
					"indexed": false,
					"internalType": "address",
					"name": "newFeeRecipient",
					"type": "address"
				}
			],
			"name": "FeeRecipientUpdated",
			"type": "event"
		},
		{
			"anonymous": false,
			"inputs": [
				{
					"indexed": true,
					"internalType": "uint256",
					"name": "listingId",
					"type": "uint256"
				},
				{
					"indexed": true,
					"internalType": "address",
					"name": "seller",
					"type": "address"
				}
			],
			"name": "ListingCancelled",
			"type": "event"
		},
		{
			"anonymous": false,
			"inputs": [
				{
					"indexed": true,
					"internalType": "uint256",
					"name": "listingId",
					"type": "uint256"
				},
				{
					"indexed": true,
					"internalType": "address",
					"name": "nftContract",
					"type": "address"
				},
				{
					"indexed": true,
					"internalType": "uint256",
					"name": "tokenId",
					"type": "uint256"
				},
				{
					"indexed": false,
					"internalType": "address",
					"name": "seller",
					"type": "address"
				},
				{
					"indexed": false,
					"internalType": "uint256",
					"name": "price",
					"type": "uint256"
				},
				{
					"indexed": false,
					"internalType": "uint256",
					"name": "startTime",
					"type": "uint256"
				},
				{
					"indexed": false,
					"internalType": "uint256",
					"name": "endTime",
					"type": "uint256"
				},
				{
					"indexed": false,
					"internalType": "string",
					"name": "ticketId",
					"type": "string"
				}
			],
			"name": "ListingCreated",
			"type": "event"
		},
		{
			"anonymous": false,
			"inputs": [
				{
					"indexed": true,
					"internalType": "uint256",
					"name": "listingId",
					"type": "uint256"
				},
				{
					"indexed": true,
					"internalType": "address",
					"name": "buyer",
					"type": "address"
				},
				{
					"indexed": true,
					"internalType": "address",
					"name": "seller",
					"type": "address"
				},
				{
					"indexed": false,
					"internalType": "uint256",
					"name": "price",
					"type": "uint256"
				}
			],
			"name": "ListingPurchased",
			"type": "event"
		},
		{
			"anonymous": false,
			"inputs": [
				{
					"indexed": true,
					"internalType": "uint256",
					"name": "listingId",
					"type": "uint256"
				},
				{
					"indexed": false,
					"internalType": "string",
					"name": "ticketId",
					"type": "string"
				},
				{
					"indexed": false,
					"internalType": "bool",
					"name": "verified",
					"type": "bool"
				}
			],
			"name": "ListingVerified",
			"type": "event"
		},
		{
			"anonymous": false,
			"inputs": [
				{
					"indexed": true,
					"internalType": "address",
					"name": "from",
					"type": "address"
				},
				{
					"indexed": true,
					"internalType": "address",
					"name": "to",
					"type": "address"
				}
			],
			"name": "OwnershipTransferRequested",
			"type": "event"
		},
		{
			"anonymous": false,
			"inputs": [
				{
					"indexed": true,
					"internalType": "address",
					"name": "from",
					"type": "address"
				},
				{
					"indexed": true,
					"internalType": "address",
					"name": "to",
					"type": "address"
				}
			],
			"name": "OwnershipTransferred",
			"type": "event"
		},
		{
			"anonymous": false,
			"inputs": [
				{
					"indexed": false,
					"internalType": "uint256",
					"name": "newFeePercent",
					"type": "uint256"
				}
			],
			"name": "PlatformFeeUpdated",
			"type": "event"
		},
		{
			"anonymous": false,
			"inputs": [
				{
					"indexed": true,
					"internalType": "bytes32",
					"name": "id",
					"type": "bytes32"
				}
			],
			"name": "RequestFulfilled",
			"type": "event"
		},
		{
			"anonymous": false,
			"inputs": [
				{
					"indexed": true,
					"internalType": "bytes32",
					"name": "id",
					"type": "bytes32"
				}
			],
			"name": "RequestSent",
			"type": "event"
		},
		{
			"anonymous": false,
			"inputs": [
				{
					"indexed": true,
					"internalType": "bytes32",
					"name": "requestId",
					"type": "bytes32"
				},
				{
					"indexed": false,
					"internalType": "uint256",
					"name": "remainingTickets",
					"type": "uint256"
				},
				{
					"indexed": false,
					"internalType": "bytes",
					"name": "rawResponse",
					"type": "bytes"
				},
				{
					"indexed": false,
					"internalType": "bytes",
					"name": "error",
					"type": "bytes"
				}
			],
			"name": "Response",
			"type": "event"
		},
		{
			"anonymous": false,
			"inputs": [
				{
					"indexed": false,
					"internalType": "string",
					"name": "ticketId",
					"type": "string"
				},
				{
					"indexed": false,
					"internalType": "enum SecondaryMarketStorage.TicketStatus",
					"name": "status",
					"type": "uint8"
				}
			],
			"name": "TicketStatusUpdated",
			"type": "event"
		},
		{
			"anonymous": false,
			"inputs": [
				{
					"indexed": true,
					"internalType": "uint256",
					"name": "listingId",
					"type": "uint256"
				},
				{
					"indexed": false,
					"internalType": "string",
					"name": "ticketId",
					"type": "string"
				},
				{
					"indexed": false,
					"internalType": "bytes32",
					"name": "requestId",
					"type": "bytes32"
				}
			],
			"name": "TicketVerificationRequested",
			"type": "event"
		},
		{
			"anonymous": false,
			"inputs": [
				{
					"indexed": true,
					"internalType": "bytes32",
					"name": "requestId",
					"type": "bytes32"
				},
				{
					"indexed": false,
					"internalType": "string",
					"name": "ticketId",
					"type": "string"
				},
				{
					"indexed": false,
					"internalType": "bool",
					"name": "isUsed",
					"type": "bool"
				},
				{
					"indexed": false,
					"internalType": "bytes",
					"name": "rawResponse",
					"type": "bytes"
				},
				{
					"indexed": false,
					"internalType": "bytes",
					"name": "error",
					"type": "bytes"
				}
			],
			"name": "TicketVerified",
			"type": "event"
		},
		{
			"inputs": [],
			"name": "acceptOwnership",
			"outputs": [],
			"stateMutability": "nonpayable",
			"type": "function"
		},
		{
			"inputs": [],
			"name": "feeRecipient",
			"outputs": [
				{
					"internalType": "address",
					"name": "",
					"type": "address"
				}
			],
			"stateMutability": "view",
			"type": "function"
		},
		{
			"inputs": [
				{
					"internalType": "bytes32",
					"name": "requestId",
					"type": "bytes32"
				},
				{
					"internalType": "bytes",
					"name": "response",
					"type": "bytes"
				},
				{
					"internalType": "bytes",
					"name": "err",
					"type": "bytes"
				}
			],
			"name": "handleOracleFulfillment",
			"outputs": [],
			"stateMutability": "nonpayable",
			"type": "function"
		},
		{
			"inputs": [
				{
					"internalType": "string",
					"name": "ticketId",
					"type": "string"
				}
			],
			"name": "isTicketUsed",
			"outputs": [
				{
					"internalType": "bool",
					"name": "",
					"type": "bool"
				}
			],
			"stateMutability": "view",
			"type": "function"
		},
		{
			"inputs": [],
			"name": "maxListingDuration",
			"outputs": [
				{
					"internalType": "uint256",
					"name": "",
					"type": "uint256"
				}
			],
			"stateMutability": "view",
			"type": "function"
		},
		{
			"inputs": [],
			"name": "minListingDuration",
			"outputs": [
				{
					"internalType": "uint256",
					"name": "",
					"type": "uint256"
				}
			],
			"stateMutability": "view",
			"type": "function"
		},
		{
			"inputs": [],
			"name": "owner",
			"outputs": [
				{
					"internalType": "address",
					"name": "",
					"type": "address"
				}
			],
			"stateMutability": "view",
			"type": "function"
		},
		{
			"inputs": [],
			"name": "platformFeePercent",
			"outputs": [
				{
					"internalType": "uint256",
					"name": "",
					"type": "uint256"
				}
			],
			"stateMutability": "view",
			"type": "function"
		},
		{
			"inputs": [],
			"name": "remainingTickets",
			"outputs": [
				{
					"internalType": "uint256",
					"name": "",
					"type": "uint256"
				}
			],
			"stateMutability": "view",
			"type": "function"
		},
		{
			"inputs": [
				{
					"internalType": "uint64",
					"name": "subscriptionId",
					"type": "uint64"
				},
				{
					"internalType": "string[]",
					"name": "args",
					"type": "string[]"
				}
			],
			"name": "requestRemainingTickets",
			"outputs": [
				{
					"internalType": "bytes32",
					"name": "requestId",
					"type": "bytes32"
				}
			],
			"stateMutability": "nonpayable",
			"type": "function"
		},
		{
			"inputs": [],
			"name": "s_lastCheckedTicketId",
			"outputs": [
				{
					"internalType": "string",
					"name": "",
					"type": "string"
				}
			],
			"stateMutability": "view",
			"type": "function"
		},
		{
			"inputs": [],
			"name": "s_lastError",
			"outputs": [
				{
					"internalType": "bytes",
					"name": "",
					"type": "bytes"
				}
			],
			"stateMutability": "view",
			"type": "function"
		},
		{
			"inputs": [],
			"name": "s_lastRequestId",
			"outputs": [
				{
					"internalType": "bytes32",
					"name": "",
					"type": "bytes32"
				}
			],
			"stateMutability": "view",
			"type": "function"
		},
		{
			"inputs": [],
			"name": "s_lastResponse",
			"outputs": [
				{
					"internalType": "bytes",
					"name": "",
					"type": "bytes"
				}
			],
			"stateMutability": "view",
			"type": "function"
		},
		{
			"inputs": [],
			"name": "s_lastTicketUsed",
			"outputs": [
				{
					"internalType": "bool",
					"name": "",
					"type": "bool"
				}
			],
			"stateMutability": "view",
			"type": "function"
		},
		{
			"inputs": [],
			"name": "subscriptionId",
			"outputs": [
				{
					"internalType": "uint64",
					"name": "",
					"type": "uint64"
				}
			],
			"stateMutability": "view",
			"type": "function"
		},
		{
			"inputs": [
				{
					"internalType": "address",
					"name": "",
					"type": "address"
				}
			],
			"name": "supportedContracts",
			"outputs": [
				{
					"internalType": "bool",
					"name": "",
					"type": "bool"
				}
			],
			"stateMutability": "view",
			"type": "function"
		},
		{
			"inputs": [
				{
					"internalType": "string",
					"name": "",
					"type": "string"
				}
			],
			"name": "ticketUsageStatus",
			"outputs": [
				{
					"internalType": "bool",
					"name": "",
					"type": "bool"
				}
			],
			"stateMutability": "view",
			"type": "function"
		},
		{
			"inputs": [
				{
					"internalType": "address",
					"name": "to",
					"type": "address"
				}
			],
			"name": "transferOwnership",
			"outputs": [],
			"stateMutability": "nonpayable",
			"type": "function"
		},
		{
			"inputs": [
				{
					"internalType": "uint64",
					"name": "subscriptionId",
					"type": "uint64"
				},
				{
					"internalType": "string",
					"name": "ticketId",
					"type": "string"
				}
			],
			"name": "verifyTicketUsage",
			"outputs": [
				{
					"internalType": "bytes32",
					"name": "requestId",
					"type": "bytes32"
				}
			],
			"stateMutability": "nonpayable",
			"type": "function"
		}
	]
}