{
	"data": {
		"bytecode": {
			"linkReferences": {},
			"object": "60a06040523073ffffffffffffffffffffffffffffffffffffffff1660809073ffffffffffffffffffffffffffffffffffffffff1681525060405180610240016040528061020281526020016186636102029139600b90816100619190610429565b50604051806101e001604052806101aa81526020016184b96101aa9139600c908161008c9190610429565b50348015610098575f5ffd5b506100a76100ac60201b60201c565b610533565b5f6100bb6101aa60201b60201c565b9050805f0160089054906101000a900460ff1615610105576040517ff92ee8a900000000000000000000000000000000000000000000000000000000815260040160405180910390fd5b67ffffffffffffffff8016815f015f9054906101000a900467ffffffffffffffff1667ffffffffffffffff16146101a75767ffffffffffffffff815f015f6101000a81548167ffffffffffffffff021916908367ffffffffffffffff1602179055507fc7f505b2f371ae2175ee4913f4499e1f2633a7b5936321eed1cdaeb6115181d267ffffffffffffffff60405161019e919061051a565b60405180910390a15b50565b5f5f6101ba6101c360201b60201c565b90508091505090565b5f7ff0c57e16840df040f15088dc2f81fe391c3923bec73e23a9662efc9c229c6a005f1b905090565b5f81519050919050565b7f4e487b71000000000000000000000000000000000000000000000000000000005f52604160045260245ffd5b7f4e487b71000000000000000000000000000000000000000000000000000000005f52602260045260245ffd5b5f600282049050600182168061026757607f821691505b60208210810361027a57610279610223565b5b50919050565b5f819050815f5260205f209050919050565b5f6020601f8301049050919050565b5f82821b905092915050565b5f600883026102dc7fffffffffffffffffffffffffffffffffffffffffffffffffffffffffffffffff826102a1565b6102e686836102a1565b95508019841693508086168417925050509392505050565b5f819050919050565b5f819050919050565b5f61032a610325610320846102fe565b610307565b6102fe565b9050919050565b5f819050919050565b61034383610310565b61035761034f82610331565b8484546102ad565b825550505050565b5f5f905090565b61036e61035f565b61037981848461033a565b505050565b5b8181101561039c576103915f82610366565b60018101905061037f565b5050565b601f8211156103e1576103b281610280565b6103bb84610292565b810160208510156103ca578190505b6103de6103d685610292565b83018261037e565b50505b505050565b5f82821c905092915050565b5f6104015f19846008026103e6565b1980831691505092915050565b5f61041983836103f2565b9150826002028217905092915050565b610432826101ec565b67ffffffffffffffff81111561044b5761044a6101f6565b5b6104558254610250565b6104608282856103a0565b5f60209050601f831160018114610491575f841561047f578287015190505b610489858261040e565b8655506104f0565b601f19841661049f86610280565b5f5b828110156104c6578489015182556001820191506020850194506020810190506104a1565b868310156104e357848901516104df601f8916826103f2565b8355505b6001600288020188555050505b505050505050565b5f67ffffffffffffffff82169050919050565b610514816104f8565b82525050565b5f60208201905061052d5f83018461050b565b92915050565b608051617f606105595f395f8181614bb101528181614c060152614de50152617f605ff3fe608060405260043610610334575f3560e01c80638456cb59116101aa578063b6ef573e116100f6578063e74b981b11610094578063f2fde38b1161006e578063f2fde38b14610c12578063f559ec1014610c3a578063f9aff1e814610c62578063fd12597f14610c8c57610334565b8063e74b981b14610b86578063ea7b4f7714610bae578063f165a33714610bd657610334565b8063c56370e9116100d0578063c56370e914610ac7578063d547741f14610aef578063de74e57b14610b17578063def050c514610b5c57610334565b8063b6ef573e14610a39578063b7ff920e14610a61578063be9ad61e14610a9d57610334565b80639e95fe7111610163578063aaf10f421161013d578063aaf10f421461097f578063ad3cb1cc146109a9578063b106b39d146109d3578063b1e2174914610a0f57610334565b80639e95fe71146108f1578063a217fddf1461092d578063a92f67ac1461095757610334565b80638456cb59146107e45780638c639a85146107fa5780638da5cb5b146108245780638db23f271461084e57806391d148541461088b578063957d90d4146108c757610334565b80633f4ba83a116102845780635471b47a116102225780635d504832116101fc5780635d5048321461072c5780636f7b435214610756578063731cbea81461079257806379ba5097146107ce57610334565b80635471b47a1461068a5780635a3d7263146106c65780635c975abb1461070257610334565b80634d38bb391161025e5780634d38bb39146105f45780634f1c0eeb1461061c5780634f1ef2861461064457806352d1902d1461066057610334565b80633f4ba83a1461058a57806346904840146105a05780634b0795a8146105ca57610334565b8063169d5a7d116102f1578063305a67a8116102cb578063305a67a8146104d457806334a9620c146104fc57806336568abe146105385780633944ea3a1461056057610334565b8063169d5a7d14610454578063248a9ca3146104705780632f2ff15d146104ac57610334565b806301c47c8b1461033857806301ffc9a71461036257806309c1ba2e1461039e5780630ca76175146103c8578063107a274a146103f057806312e8e2c31461042c575b5f5ffd5b348015610343575f5ffd5b5061034c610cc8565b6040516103599190615fdb565b60405180910390f35b34801561036d575f5ffd5b506103886004803603810190610383919061605a565b610cda565b6040516103959190615fdb565b60405180910390f35b3480156103a9575f5ffd5b506103b2610d53565b6040516103bf91906160a7565b60405180910390f35b3480156103d3575f5ffd5b506103ee60048036038101906103e9919061622f565b610d6c565b005b3480156103fb575f5ffd5b50610416600480360381019061041191906162ea565b610e2f565b60405161042391906164a9565b60405180910390f35b348015610437575f5ffd5b50610452600480360381019061044d91906162ea565b610ffa565b005b61046e600480360381019061046991906162ea565b6110a4565b005b34801561047b575f5ffd5b50610496600480360381019061049191906164c9565b611846565b6040516104a39190616503565b60405180910390f35b3480156104b7575f5ffd5b506104d260048036038101906104cd9190616546565b611870565b005b3480156104df575f5ffd5b506104fa60048036038101906104f591906162ea565b611892565b005b348015610507575f5ffd5b50610522600480360381019061051d919061660b565b611b43565b60405161052f9190616503565b60405180910390f35b348015610543575f5ffd5b5061055e60048036038101906105599190616546565b611d5e565b005b34801561056b575f5ffd5b50610574611dd9565b60405161058191906166ba565b60405180910390f35b348015610595575f5ffd5b5061059e611e65565b005b3480156105ab575f5ffd5b506105b4611e9c565b6040516105c191906166e9565b60405180910390f35b3480156105d5575f5ffd5b506105de611ec1565b6040516105eb91906166ba565b60405180910390f35b3480156105ff575f5ffd5b5061061a60048036038101906106159190616702565b611f4d565b005b348015610627575f5ffd5b50610642600480360381019061063d91906167bb565b612949565b005b61065e60048036038101906106599190616818565b6129fd565b005b34801561066b575f5ffd5b50610674612a1c565b6040516106819190616503565b60405180910390f35b348015610695575f5ffd5b506106b060048036038101906106ab9190616872565b612a4d565b6040516106bd9190615fdb565b60405180910390f35b3480156106d1575f5ffd5b506106ec60048036038101906106e791906168b0565b612c8d565b6040516106f99190615fdb565b60405180910390f35b34801561070d575f5ffd5b50610716612cc3565b6040516107239190615fdb565b60405180910390f35b348015610737575f5ffd5b50610740612ce5565b60405161074d919061690a565b60405180910390f35b348015610761575f5ffd5b5061077c60048036038101906107779190616872565b612ceb565b604051610789919061690a565b60405180910390f35b34801561079d575f5ffd5b506107b860048036038101906107b39190616978565b612d0b565b6040516107c59190616503565b60405180910390f35b3480156107d9575f5ffd5b506107e2612e2e565b005b3480156107ef575f5ffd5b506107f8612fbd565b005b348015610805575f5ffd5b5061080e612ff4565b60405161081b919061690a565b60405180910390f35b34801561082f575f5ffd5b50610838612ffa565b60405161084591906166e9565b60405180910390f35b348015610859575f5ffd5b50610874600480360381019061086f91906162ea565b613021565b604051610882929190616a90565b60405180910390f35b348015610896575f5ffd5b506108b160048036038101906108ac9190616546565b613228565b6040516108be9190615fdb565b60405180910390f35b3480156108d2575f5ffd5b506108db613299565b6040516108e8919061690a565b60405180910390f35b3480156108fc575f5ffd5b5061091760048036038101906109129190616b5c565b61329f565b6040516109249190616ba3565b60405180910390f35b348015610938575f5ffd5b506109416132d4565b60405161094e9190616503565b60405180910390f35b348015610962575f5ffd5b5061097d60048036038101906109789190616bbc565b6132da565b005b34801561098a575f5ffd5b506109936135e4565b6040516109a091906166e9565b60405180910390f35b3480156109b4575f5ffd5b506109bd6135f2565b6040516109ca9190616c45565b60405180910390f35b3480156109de575f5ffd5b506109f960048036038101906109f49190616b5c565b61362b565b604051610a069190615fdb565b60405180910390f35b348015610a1a575f5ffd5b50610a23613660565b604051610a309190616503565b60405180910390f35b348015610a44575f5ffd5b50610a5f6004803603810190610a5a9190616c65565b613666565b005b348015610a6c575f5ffd5b50610a876004803603810190610a829190616ca3565b6136ea565b604051610a949190615fdb565b60405180910390f35b348015610aa8575f5ffd5b50610ab1613707565b604051610abe919061690a565b60405180910390f35b348015610ad2575f5ffd5b50610aed6004803603810190610ae891906162ea565b613717565b005b348015610afa575f5ffd5b50610b156004803603810190610b109190616546565b613931565b005b348015610b22575f5ffd5b50610b3d6004803603810190610b3891906162ea565b613953565b604051610b539a99989796959493929190616cce565b60405180910390f35b348015610b67575f5ffd5b50610b70613a7f565b604051610b7d919061690a565b60405180910390f35b348015610b91575f5ffd5b50610bac6004803603810190610ba79190616ca3565b613a85565b005b348015610bb9575f5ffd5b50610bd46004803603810190610bcf9190616d6f565b613b91565b005b348015610be1575f5ffd5b50610bfc6004803603810190610bf791906164c9565b613be9565b604051610c09919061690a565b60405180910390f35b348015610c1d575f5ffd5b50610c386004803603810190610c339190616ca3565b613bfe565b005b348015610c45575f5ffd5b50610c606004803603810190610c5b9190616dc4565b613c12565b005b348015610c6d575f5ffd5b50610c76613cd0565b604051610c839190616c45565b60405180910390f35b348015610c97575f5ffd5b50610cb26004803603810190610cad91906162ea565b613d5c565b604051610cbf9190616c45565b60405180910390f35b60095f9054906101000a900460ff1681565b5f7f7965db0b000000000000000000000000000000000000000000000000000000007bffffffffffffffffffffffffffffffffffffffffffffffffffffffff1916827bffffffffffffffffffffffffffffffffffffffffffffffffffffffff19161480610d4c5750610d4b82613df7565b5b9050919050565b60125f9054906101000a900467ffffffffffffffff1681565b60025f9054906101000a900473ffffffffffffffffffffffffffffffffffffffff1673ffffffffffffffffffffffffffffffffffffffff163373ffffffffffffffffffffffffffffffffffffffff1614610df2576040517fc6829f8300000000000000000000000000000000000000000000000000000000815260040160405180910390fd5b610dfd838383613e60565b827f85e1543bf2f84fe80c6badbce3648c8539ad1df4d2b3d822938ca0538be727e660405160405180910390a2505050565b610e37615ea0565b60135f8381526020019081526020015f20604051806101400160405290815f8201548152602001600182015f9054906101000a900473ffffffffffffffffffffffffffffffffffffffff1673ffffffffffffffffffffffffffffffffffffffff1673ffffffffffffffffffffffffffffffffffffffff16815260200160028201548152602001600382015f9054906101000a900473ffffffffffffffffffffffffffffffffffffffff1673ffffffffffffffffffffffffffffffffffffffff1673ffffffffffffffffffffffffffffffffffffffff168152602001600482015481526020016005820154815260200160068201548152602001600782015f9054906101000a900460ff16151515158152602001600882018054610f5990616e2f565b80601f0160208091040260200160405190810160405280929190818152602001828054610f8590616e2f565b8015610fd05780601f10610fa757610100808354040283529160200191610fd0565b820191905f5260205f20905b815481529060010190602001808311610fb357829003601f168201915b50505050508152602001600982015f9054906101000a900460ff1615151515815250509050919050565b7faf290d8680820aad922855f39b306097b20e28774d6c1ad35a20325630c3a02c5f1b61102681614271565b6103e8821115611062576040517f8a81d3b300000000000000000000000000000000000000000000000000000000815260040160405180910390fd5b81600e819055507f45610d581145924dd7090a5017e5f2b1d6f42213bb2e95707ff86846bbfcb1ca82604051611098919061690a565b60405180910390a15050565b6110ac614285565b6110b46142c6565b805f60135f8381526020019081526020015f205f015403611101576040517f7e43e63800000000000000000000000000000000000000000000000000000000815260040160405180910390fd5b60135f8281526020019081526020015f206007015f9054906101000a900460ff16611158576040517f66cb03e900000000000000000000000000000000000000000000000000000000815260040160405180910390fd5b60135f8281526020019081526020015f206009015f9054906101000a900460ff16156111b0576040517f66cb03e900000000000000000000000000000000000000000000000000000000815260040160405180910390fd5b60135f8281526020019081526020015f20600601544211156111fe576040517f398cfd0200000000000000000000000000000000000000000000000000000000815260040160405180910390fd5b5f60135f8481526020019081526020015f2090508060040154341015611250576040517fcd1c886700000000000000000000000000000000000000000000000000000000815260040160405180910390fd5b5f81600801805461126090616e2f565b90501115611346575f816001015f9054906101000a900473ffffffffffffffffffffffffffffffffffffffff1690505f8173ffffffffffffffffffffffffffffffffffffffff16633197cbb66040518163ffffffff1660e01b8152600401602060405180830381865afa1580156112d9573d5f5f3e3d5ffd5b505050506040513d601f19601f820116820180604052508101906112fd9190616e73565b90508067ffffffffffffffff16421115611343576040517f1963c37d00000000000000000000000000000000000000000000000000000000815260040160405180910390fd5b50505b5f816007015f6101000a81548160ff0219169083151502179055505f60145f836001015f9054906101000a900473ffffffffffffffffffffffffffffffffffffffff1673ffffffffffffffffffffffffffffffffffffffff1673ffffffffffffffffffffffffffffffffffffffff1681526020019081526020015f205f836002015481526020019081526020015f20819055505f8160080180546113e990616e2f565b905011156114785760036017826008016040516114069190616f3a565b90815260200160405180910390205f6101000a81548160ff0219169083600481111561143557611434616a1d565b5b02179055507f384a7354a96a31098438152e3be618fcafb335084ca123fbc6168a866f50824181600801600360405161146f929190616fd1565b60405180910390a15b5f612710600e54836004015461148e919061702c565b611498919061709a565b90505f8183600401546114ab91906170ca565b9050826001015f9054906101000a900473ffffffffffffffffffffffffffffffffffffffff1673ffffffffffffffffffffffffffffffffffffffff166342842e0e846003015f9054906101000a900473ffffffffffffffffffffffffffffffffffffffff163386600201546040518463ffffffff1660e01b8152600401611534939291906170fd565b5f604051808303815f87803b15801561154b575f5ffd5b505af115801561155d573d5f5f3e3d5ffd5b505050505f82111561162b575f600f5f9054906101000a900473ffffffffffffffffffffffffffffffffffffffff1673ffffffffffffffffffffffffffffffffffffffff16836040516115af9061715f565b5f6040518083038185875af1925050503d805f81146115e9576040519150601f19603f3d011682016040523d82523d5f602084013e6115ee565b606091505b5050905080611629576040517f90b8ec1800000000000000000000000000000000000000000000000000000000815260040160405180910390fd5b505b5f836003015f9054906101000a900473ffffffffffffffffffffffffffffffffffffffff1673ffffffffffffffffffffffffffffffffffffffff16826040516116739061715f565b5f6040518083038185875af1925050503d805f81146116ad576040519150601f19603f3d011682016040523d82523d5f602084013e6116b2565b606091505b50509050806116ed576040517f90b8ec1800000000000000000000000000000000000000000000000000000000815260040160405180910390fd5b83600401543411156117a9575f3373ffffffffffffffffffffffffffffffffffffffff1685600401543461172191906170ca565b60405161172d9061715f565b5f6040518083038185875af1925050503d805f8114611767576040519150601f19603f3d011682016040523d82523d5f602084013e61176c565b606091505b50509050806117a7576040517f90b8ec1800000000000000000000000000000000000000000000000000000000815260040160405180910390fd5b505b836003015f9054906101000a900473ffffffffffffffffffffffffffffffffffffffff1673ffffffffffffffffffffffffffffffffffffffff163373ffffffffffffffffffffffffffffffffffffffff16877f05e16e5cf13eeb3ff32f51644ccd765a8ecfd4114beb5820ff29d0b3b1e91a84876004015460405161182e919061690a565b60405180910390a4505050505061184361431a565b50565b5f5f611850614331565b9050805f015f8481526020019081526020015f2060010154915050919050565b61187982611846565b61188281614271565b61188c8383614358565b50505050565b61189a614285565b6118a26142c6565b5f60135f8381526020019081526020015f2090505f815f0154036118f2576040517f7e43e63800000000000000000000000000000000000000000000000000000000815260040160405180910390fd5b806007015f9054906101000a900460ff16611939576040517f66cb03e900000000000000000000000000000000000000000000000000000000815260040160405180910390fd5b3373ffffffffffffffffffffffffffffffffffffffff16816003015f9054906101000a900473ffffffffffffffffffffffffffffffffffffffff1673ffffffffffffffffffffffffffffffffffffffff16146119c1576040517f5ec8235100000000000000000000000000000000000000000000000000000000815260040160405180910390fd5b5f816007015f6101000a81548160ff0219169083151502179055505f60145f836001015f9054906101000a900473ffffffffffffffffffffffffffffffffffffffff1673ffffffffffffffffffffffffffffffffffffffff1673ffffffffffffffffffffffffffffffffffffffff1681526020019081526020015f205f836002015481526020019081526020015f20819055505f816008018054611a6490616e2f565b90501115611af3576004601782600801604051611a819190616f3a565b90815260200160405180910390205f6101000a81548160ff02191690836004811115611ab057611aaf616a1d565b5b02179055507f384a7354a96a31098438152e3be618fcafb335084ca123fbc6168a866f508241816008016004604051611aea929190616fd1565b60405180910390a15b3373ffffffffffffffffffffffffffffffffffffffff16827f8e25282255ab31897df2b0456bb993ac7f84d376861aefd84901d2d63a7428a260405160405180910390a350611b4061431a565b50565b5f611b4c614450565b5f8383905003611b955782826040517f5597dd23000000000000000000000000000000000000000000000000000000008152600401611b8c92919061719f565b60405180910390fd5b611b9d615f1a565b611c38600c8054611bad90616e2f565b80601f0160208091040260200160405190810160405280929190818152602001828054611bd990616e2f565b8015611c245780601f10611bfb57610100808354040283529160200191611c24565b820191905f5260205f20905b815481529060010190602001808311611c0757829003601f168201915b5050505050826144e090919063ffffffff16565b5f600167ffffffffffffffff811115611c5457611c5361610b565b5b604051908082528060200260200182016040528015611c8757816020015b6060815260200190600190039081611c725790505b50905084848080601f0160208091040260200160405190810160405280939291908181526020018383808284375f81840152601f19601f82011690508083019250505050505050815f81518110611ce157611ce06171c1565b5b6020026020010181905250611cff81836144f090919063ffffffff16565b848460089182611d10929190617386565b50611d4a611d1d83614537565b87620493e07f66756e2d657468657265756d2d7365706f6c69612d31000000000000000000005f1b614942565b600381905550600354925050509392505050565b611d66614a22565b73ffffffffffffffffffffffffffffffffffffffff168173ffffffffffffffffffffffffffffffffffffffff1614611dca576040517f6697b23200000000000000000000000000000000000000000000000000000000815260040160405180910390fd5b611dd48282614a29565b505050565b60048054611de690616e2f565b80601f0160208091040260200160405190810160405280929190818152602001828054611e1290616e2f565b8015611e5d5780601f10611e3457610100808354040283529160200191611e5d565b820191905f5260205f20905b815481529060010190602001808311611e4057829003601f168201915b505050505081565b7faf290d8680820aad922855f39b306097b20e28774d6c1ad35a20325630c3a02c5f1b611e9181614271565b611e99614b21565b50565b600f5f9054906101000a900473ffffffffffffffffffffffffffffffffffffffff1681565b60058054611ece90616e2f565b80601f0160208091040260200160405190810160405280929190818152602001828054611efa90616e2f565b8015611f455780601f10611f1c57610100808354040283529160200191611f45565b820191905f5260205f20905b815481529060010190602001808311611f2857829003601f168201915b505050505081565b611f55614285565b611f5d6142c6565b5f8403611f95576040517ebfc92100000000000000000000000000000000000000000000000000000000815260040160405180910390fd5b601054831080611fa6575060115483115b15611fdd576040517f7616640100000000000000000000000000000000000000000000000000000000815260040160405180910390fd5b60155f8773ffffffffffffffffffffffffffffffffffffffff1673ffffffffffffffffffffffffffffffffffffffff1681526020019081526020015f205f9054906101000a900460ff1661205d576040517f12f140a300000000000000000000000000000000000000000000000000000000815260040160405180910390fd5b5f60145f8873ffffffffffffffffffffffffffffffffffffffff1673ffffffffffffffffffffffffffffffffffffffff1681526020019081526020015f205f8781526020019081526020015f2054146120e2576040517fdeaabdc200000000000000000000000000000000000000000000000000000000815260040160405180910390fd5b5f8282905011156121ec575f60178383604051612100929190617477565b90815260200160405180910390205f9054906101000a900460ff1690505f60048111156121305761212f616a1d565b5b81600481111561214357612142616a1d565b5b14158015612175575060048081111561215f5761215e616a1d565b5b81600481111561217257612171616a1d565b5b14155b80156121a65750600360048111156121905761218f616a1d565b5b8160048111156121a3576121a2616a1d565b5b14155b156121ea5782826040517fdb1faaaf0000000000000000000000000000000000000000000000000000000081526004016121e192919061719f565b60405180910390fd5b505b5f8690503373ffffffffffffffffffffffffffffffffffffffff168173ffffffffffffffffffffffffffffffffffffffff16636352211e886040518263ffffffff1660e01b8152600401612240919061690a565b602060405180830381865afa15801561225b573d5f5f3e3d5ffd5b505050506040513d601f19601f8201168201806040525081019061227f91906174a3565b73ffffffffffffffffffffffffffffffffffffffff16146122cc576040517f59dc379f00000000000000000000000000000000000000000000000000000000815260040160405180910390fd5b8073ffffffffffffffffffffffffffffffffffffffff1663e985e9c533306040518363ffffffff1660e01b81526004016123079291906174ce565b602060405180830381865afa158015612322573d5f5f3e3d5ffd5b505050506040513d601f19601f820116820180604052508101906123469190617509565b1580156123f657503073ffffffffffffffffffffffffffffffffffffffff168173ffffffffffffffffffffffffffffffffffffffff1663081812fc886040518263ffffffff1660e01b815260040161239e919061690a565b602060405180830381865afa1580156123b9573d5f5f3e3d5ffd5b505050506040513d601f19601f820116820180604052508101906123dd91906174a3565b73ffffffffffffffffffffffffffffffffffffffff1614155b1561242d576040517f32da96a300000000000000000000000000000000000000000000000000000000815260040160405180910390fd5b5f8383905011156124f3575f8790505f8173ffffffffffffffffffffffffffffffffffffffff16633197cbb66040518163ffffffff1660e01b8152600401602060405180830381865afa158015612486573d5f5f3e3d5ffd5b505050506040513d601f19601f820116820180604052508101906124aa9190616e73565b90508067ffffffffffffffff164211156124f0576040517f1963c37d00000000000000000000000000000000000000000000000000000000815260040160405180910390fd5b50505b6124fd600d614b8f565b5f612508600d614ba3565b90505f4290505f868261251b9190617534565b90505f5f90505f600190506040518061014001604052808681526020018d73ffffffffffffffffffffffffffffffffffffffff1681526020018c81526020013373ffffffffffffffffffffffffffffffffffffffff1681526020018b8152602001858152602001848152602001831515815260200189898080601f0160208091040260200160405190810160405280939291908181526020018383808284375f81840152601f19601f82011690508083019250505050505050815260200182151581525060135f8781526020019081526020015f205f820151815f01556020820151816001015f6101000a81548173ffffffffffffffffffffffffffffffffffffffff021916908373ffffffffffffffffffffffffffffffffffffffff160217905550604082015181600201556060820151816003015f6101000a81548173ffffffffffffffffffffffffffffffffffffffff021916908373ffffffffffffffffffffffffffffffffffffffff1602179055506080820151816004015560a0820151816005015560c0820151816006015560e0820151816007015f6101000a81548160ff0219169083151502179055506101008201518160080190816126e19190617567565b50610120820151816009015f6101000a81548160ff0219169083151502179055509050508460145f8e73ffffffffffffffffffffffffffffffffffffffff1673ffffffffffffffffffffffffffffffffffffffff1681526020019081526020015f205f8d81526020019081526020015f20819055505f88889050111561288157878760165f8881526020019081526020015f209182612781929190617386565b50600160178989604051612796929190617477565b90815260200160405180910390205f6101000a81548160ff021916908360048111156127c5576127c4616a1d565b5b02179055507f384a7354a96a31098438152e3be618fcafb335084ca123fbc6168a866f508241888860016040516127fe93929190617636565b60405180910390a15f61282760125f9054906101000a900467ffffffffffffffff168a8a611b43565b90508560185f8381526020019081526020015f2081905550857fcd78c6782f8df7053dab6d63baee24ae10fb919661afdc7fd6d25f33f05a9cb78a8a8460405161287393929190617666565b60405180910390a2506128d9565b600160135f8781526020019081526020015f206007015f6101000a81548160ff0219169083151502179055505f60135f8781526020019081526020015f206009015f6101000a81548160ff0219169083151502179055505b8a8c73ffffffffffffffffffffffffffffffffffffffff16867fa37311f4098f313d5cd60cbd3d848e0674622cd802b858a6f78467be78c69539338e89898f8f60405161292b96959493929190617696565b60405180910390a450505050505061294161431a565b505050505050565b7faf290d8680820aad922855f39b306097b20e28774d6c1ad35a20325630c3a02c5f1b61297581614271565b8160178585604051612988929190617477565b90815260200160405180910390205f6101000a81548160ff021916908360048111156129b7576129b6616a1d565b5b02179055507f384a7354a96a31098438152e3be618fcafb335084ca123fbc6168a866f5082418484846040516129ef93929190617636565b60405180910390a150505050565b612a05614baf565b612a0e82614c95565b612a188282614cc5565b5050565b5f612a25614de3565b7f360894a13ba1a3210667c828492db98dca3e2076cc3735a920a3ca505d382bbc5f1b905090565b5f5f60145f8573ffffffffffffffffffffffffffffffffffffffff1673ffffffffffffffffffffffffffffffffffffffff1681526020019081526020015f205f8481526020019081526020015f205490505f8103612aae575f915050612c87565b5f60135f8381526020019081526020015f20604051806101400160405290815f8201548152602001600182015f9054906101000a900473ffffffffffffffffffffffffffffffffffffffff1673ffffffffffffffffffffffffffffffffffffffff1673ffffffffffffffffffffffffffffffffffffffff16815260200160028201548152602001600382015f9054906101000a900473ffffffffffffffffffffffffffffffffffffffff1673ffffffffffffffffffffffffffffffffffffffff1673ffffffffffffffffffffffffffffffffffffffff168152602001600482015481526020016005820154815260200160068201548152602001600782015f9054906101000a900460ff16151515158152602001600882018054612bd190616e2f565b80601f0160208091040260200160405190810160405280929190818152602001828054612bfd90616e2f565b8015612c485780601f10612c1f57610100808354040283529160200191612c48565b820191905f5260205f20905b815481529060010190602001808311612c2b57829003601f168201915b50505050508152602001600982015f9054906101000a900460ff16151515158152505090508060e001518015612c8257508060c001514211155b925050505b92915050565b5f60078383604051612ca0929190617477565b90815260200160405180910390205f9054906101000a900460ff16905092915050565b5f5f612ccd614e6a565b9050805f015f9054906101000a900460ff1691505090565b60065481565b6014602052815f5260405f20602052805f5260405f205f91509150505481565b5f612d14614450565b612d1c615f1a565b612db7600b8054612d2c90616e2f565b80601f0160208091040260200160405190810160405280929190818152602001828054612d5890616e2f565b8015612da35780601f10612d7a57610100808354040283529160200191612da3565b820191905f5260205f20905b815481529060010190602001808311612d8657829003601f168201915b5050505050826144e090919063ffffffff16565b5f848490501115612de257612de1848490612dd291906177a1565b826144f090919063ffffffff16565b5b612e1b612dee82614537565b86620493e07f66756e2d657468657265756d2d7365706f6c69612d31000000000000000000005f1b614942565b6003819055506003549150509392505050565b60015f9054906101000a900473ffffffffffffffffffffffffffffffffffffffff1673ffffffffffffffffffffffffffffffffffffffff163373ffffffffffffffffffffffffffffffffffffffff1614612ebd576040517f08c379a0000000000000000000000000000000000000000000000000000000008152600401612eb4906177ff565b60405180910390fd5b5f5f5f9054906101000a900473ffffffffffffffffffffffffffffffffffffffff169050335f5f6101000a81548173ffffffffffffffffffffffffffffffffffffffff021916908373ffffffffffffffffffffffffffffffffffffffff1602179055505f60015f6101000a81548173ffffffffffffffffffffffffffffffffffffffff021916908373ffffffffffffffffffffffffffffffffffffffff1602179055503373ffffffffffffffffffffffffffffffffffffffff168173ffffffffffffffffffffffffffffffffffffffff167f8be0079c531659141344cd1fd0a4f28419497f9722a3daafe3b4186f6b6457e060405160405180910390a350565b7faf290d8680820aad922855f39b306097b20e28774d6c1ad35a20325630c3a02c5f1b612fe981614271565b612ff1614e91565b50565b600e5481565b5f5f5f9054906101000a900473ffffffffffffffffffffffffffffffffffffffff16905090565b60605f5f60135f8581526020019081526020015f20604051806101400160405290815f8201548152602001600182015f9054906101000a900473ffffffffffffffffffffffffffffffffffffffff1673ffffffffffffffffffffffffffffffffffffffff1673ffffffffffffffffffffffffffffffffffffffff16815260200160028201548152602001600382015f9054906101000a900473ffffffffffffffffffffffffffffffffffffffff1673ffffffffffffffffffffffffffffffffffffffff1673ffffffffffffffffffffffffffffffffffffffff168152602001600482015481526020016005820154815260200160068201548152602001600782015f9054906101000a900460ff1615151515815260200160088201805461314790616e2f565b80601f016020809104026020016040519081016040528092919081815260200182805461317390616e2f565b80156131be5780601f10613195576101008083540402835291602001916131be565b820191905f5260205f20905b8154815290600101906020018083116131a157829003601f168201915b50505050508152602001600982015f9054906101000a900460ff161515151581525050905080610100015192505f8351111561322257601783604051613204919061784d565b90815260200160405180910390205f9054906101000a900460ff1691505b50915091565b5f5f613232614331565b9050805f015f8581526020019081526020015f205f015f8473ffffffffffffffffffffffffffffffffffffffff1673ffffffffffffffffffffffffffffffffffffffff1681526020019081526020015f205f9054906101000a900460ff1691505092915050565b60105481565b6017818051602081018201805184825260208301602085012081835280955050505050505f915054906101000a900460ff1681565b5f5f1b81565b5f6132e3614f00565b90505f815f0160089054906101000a900460ff161590505f825f015f9054906101000a900467ffffffffffffffff1690505f5f8267ffffffffffffffff1614801561332b5750825b90505f60018367ffffffffffffffff1614801561335e57505f3073ffffffffffffffffffffffffffffffffffffffff163b145b90508115801561336c575080155b156133a3576040517ff92ee8a900000000000000000000000000000000000000000000000000000000815260040160405180910390fd5b6001855f015f6101000a81548167ffffffffffffffff021916908367ffffffffffffffff16021790555083156133f0576001855f0160086101000a81548160ff0219169083151502179055505b5f73ffffffffffffffffffffffffffffffffffffffff168b73ffffffffffffffffffffffffffffffffffffffff1603613455576040517fd92e233d00000000000000000000000000000000000000000000000000000000815260040160405180910390fd5b6103e88a1115613491576040517f8a81d3b300000000000000000000000000000000000000000000000000000000815260040160405180910390fd5b5f89148061349f5750888811155b156134d6576040517f7616640100000000000000000000000000000000000000000000000000000000815260040160405180910390fd5b6134de614f13565b6134e6614f94565b6134ee614fa6565b6134f787614fb0565b61350033614ff3565b8a600f5f6101000a81548173ffffffffffffffffffffffffffffffffffffffff021916908373ffffffffffffffffffffffffffffffffffffffff16021790555089600e8190555088601081905550876011819055508560125f6101000a81548167ffffffffffffffff021916908367ffffffffffffffff16021790555083156135d7575f855f0160086101000a81548160ff0219169083151502179055507fc7f505b2f371ae2175ee4913f4499e1f2633a7b5936321eed1cdaeb6115181d260016040516135ce919061789c565b60405180910390a15b5050505050505050505050565b5f6135ed6150a3565b905090565b6040518060400160405280600581526020017f352e302e3000000000000000000000000000000000000000000000000000000081525081565b6007818051602081018201805184825260208301602085012081835280955050505050505f915054906101000a900460ff1681565b60035481565b7faf290d8680820aad922855f39b306097b20e28774d6c1ad35a20325630c3a02c5f1b61369281614271565b5f8314806136a05750828211155b156136d7576040517f7616640100000000000000000000000000000000000000000000000000000000815260040160405180910390fd5b8260108190555081601181905550505050565b6015602052805f5260405f205f915054906101000a900460ff1681565b5f613712600d614ba3565b905090565b7faf290d8680820aad922855f39b306097b20e28774d6c1ad35a20325630c3a02c5f1b61374381614271565b5f60135f8481526020019081526020015f2090505f815f015403613793576040517f7e43e63800000000000000000000000000000000000000000000000000000000815260040160405180910390fd5b5f816007015f6101000a81548160ff0219169083151502179055505f60145f836001015f9054906101000a900473ffffffffffffffffffffffffffffffffffffffff1673ffffffffffffffffffffffffffffffffffffffff1673ffffffffffffffffffffffffffffffffffffffff1681526020019081526020015f205f836002015481526020019081526020015f20819055505f81600801805461383690616e2f565b905011156138c55760046017826008016040516138539190616f3a565b90815260200160405180910390205f6101000a81548160ff0219169083600481111561388257613881616a1d565b5b02179055507f384a7354a96a31098438152e3be618fcafb335084ca123fbc6168a866f5082418160080160046040516138bc929190616fd1565b60405180910390a15b806003015f9054906101000a900473ffffffffffffffffffffffffffffffffffffffff1673ffffffffffffffffffffffffffffffffffffffff16837f8e25282255ab31897df2b0456bb993ac7f84d376861aefd84901d2d63a7428a260405160405180910390a3505050565b61393a82611846565b61394381614271565b61394d8383614a29565b50505050565b6013602052805f5260405f205f91509050805f015490806001015f9054906101000a900473ffffffffffffffffffffffffffffffffffffffff1690806002015490806003015f9054906101000a900473ffffffffffffffffffffffffffffffffffffffff1690806004015490806005015490806006015490806007015f9054906101000a900460ff16908060080180546139ec90616e2f565b80601f0160208091040260200160405190810160405280929190818152602001828054613a1890616e2f565b8015613a635780601f10613a3a57610100808354040283529160200191613a63565b820191905f5260205f20905b815481529060010190602001808311613a4657829003601f168201915b505050505090806009015f9054906101000a900460ff1690508a565b60115481565b7faf290d8680820aad922855f39b306097b20e28774d6c1ad35a20325630c3a02c5f1b613ab181614271565b5f73ffffffffffffffffffffffffffffffffffffffff168273ffffffffffffffffffffffffffffffffffffffff1603613b16576040517fd92e233d00000000000000000000000000000000000000000000000000000000815260040160405180910390fd5b81600f5f6101000a81548173ffffffffffffffffffffffffffffffffffffffff021916908373ffffffffffffffffffffffffffffffffffffffff1602179055507f7a7b5a0a132f9e0581eb8527f66eae9ee89c2a3e79d4ac7e41a1f1f4d48a7fc282604051613b8591906166e9565b60405180910390a15050565b7faf290d8680820aad922855f39b306097b20e28774d6c1ad35a20325630c3a02c5f1b613bbd81614271565b8160125f6101000a81548167ffffffffffffffff021916908367ffffffffffffffff1602179055505050565b6018602052805f5260405f205f915090505481565b613c06614450565b613c0f816150f6565b50565b7faf290d8680820aad922855f39b306097b20e28774d6c1ad35a20325630c3a02c5f1b613c3e81614271565b8160155f8573ffffffffffffffffffffffffffffffffffffffff1673ffffffffffffffffffffffffffffffffffffffff1681526020019081526020015f205f6101000a81548160ff0219169083151502179055507fc02821a0733520ed1ff655355f8788cf0dec3ee597dd68c29a5e03fcd2519c708383604051613cc39291906178b5565b60405180910390a1505050565b60088054613cdd90616e2f565b80601f0160208091040260200160405190810160405280929190818152602001828054613d0990616e2f565b8015613d545780601f10613d2b57610100808354040283529160200191613d54565b820191905f5260205f20905b815481529060010190602001808311613d3757829003601f168201915b505050505081565b6016602052805f5260405f205f915090508054613d7890616e2f565b80601f0160208091040260200160405190810160405280929190818152602001828054613da490616e2f565b8015613def5780601f10613dc657610100808354040283529160200191613def565b820191905f5260205f20905b815481529060010190602001808311613dd257829003601f168201915b505050505081565b5f7f01ffc9a7000000000000000000000000000000000000000000000000000000007bffffffffffffffffffffffffffffffffffffffffffffffffffffffff1916827bffffffffffffffffffffffffffffffffffffffffffffffffffffffff1916149050919050565b613e6b838383615221565b5f60185f8581526020019081526020015f205490505f81111561426b575f60135f8381526020019081526020015f2090505f815f015414158015613ebc5750806009015f9054906101000a900460ff165b15614269575f816008018054613ed190616e2f565b80601f0160208091040260200160405190810160405280929190818152602001828054613efd90616e2f565b8015613f485780601f10613f1f57610100808354040283529160200191613f48565b820191905f5260205f20905b815481529060010190602001808311613f2b57829003601f168201915b505050505090505f8451148015613f875750600781604051613f6a919061784d565b90815260200160405180910390205f9054906101000a900460ff16155b15614083576001826007015f6101000a81548160ff0219169083151502179055505f826009015f6101000a81548160ff0219169083151502179055506002601782604051613fd5919061784d565b90815260200160405180910390205f6101000a81548160ff0219169083600481111561400457614003616a1d565b5b02179055507f384a7354a96a31098438152e3be618fcafb335084ca123fbc6168a866f50824181600260405161403b929190616a90565b60405180910390a1827fed511385fb4bafd7db18d9508e9269e349929bd4d28772a691a66a01dc552a268260016040516140769291906178dc565b60405180910390a2614253565b5f826007015f6101000a81548160ff0219169083151502179055505f826009015f6101000a81548160ff0219169083151502179055505f60145f846001015f9054906101000a900473ffffffffffffffffffffffffffffffffffffffff1673ffffffffffffffffffffffffffffffffffffffff1673ffffffffffffffffffffffffffffffffffffffff1681526020019081526020015f205f846002015481526020019081526020015f20819055506004601782604051614143919061784d565b90815260200160405180910390205f6101000a81548160ff0219169083600481111561417257614171616a1d565b5b02179055507f384a7354a96a31098438152e3be618fcafb335084ca123fbc6168a866f5082418160046040516141a9929190616a90565b60405180910390a1827fed511385fb4bafd7db18d9508e9269e349929bd4d28772a691a66a01dc552a26825f6040516141e39291906178dc565b60405180910390a2816003015f9054906101000a900473ffffffffffffffffffffffffffffffffffffffff1673ffffffffffffffffffffffffffffffffffffffff16837f8e25282255ab31897df2b0456bb993ac7f84d376861aefd84901d2d63a7428a260405160405180910390a35b60185f8781526020019081526020015f205f9055505b505b50505050565b6142828161427d614a22565b61545d565b50565b61428d612cc3565b156142c4576040517fd93c066500000000000000000000000000000000000000000000000000000000815260040160405180910390fd5b565b5f6142cf6154ae565b90506002815f01540361430e576040517f3ee5aeb500000000000000000000000000000000000000000000000000000000815260040160405180910390fd5b6002815f018190555050565b5f6143236154ae565b90506001815f018190555050565b5f7f02dd7bc7dec4dceedda775e58dd541e08a116c6c53815c0bd028192f7b626800905090565b5f5f614362614331565b905061436e8484613228565b614445576001815f015f8681526020019081526020015f205f015f8573ffffffffffffffffffffffffffffffffffffffff1673ffffffffffffffffffffffffffffffffffffffff1681526020019081526020015f205f6101000a81548160ff0219169083151502179055506143e1614a22565b73ffffffffffffffffffffffffffffffffffffffff168373ffffffffffffffffffffffffffffffffffffffff16857f2f8788117e7eff1d82e926ec794901d17c78024a50270940304540a733656f0d60405160405180910390a4600191505061444a565b5f9150505b92915050565b5f5f9054906101000a900473ffffffffffffffffffffffffffffffffffffffff1673ffffffffffffffffffffffffffffffffffffffff163373ffffffffffffffffffffffffffffffffffffffff16146144de576040517f08c379a00000000000000000000000000000000000000000000000000000000081526004016144d590617954565b60405180910390fd5b565b6144ec825f5f846154d5565b5050565b5f81510361452a576040517ffe936cb700000000000000000000000000000000000000000000000000000000815260040160405180910390fd5b808260a001819052505050565b60605f61454561010061557b565b905061458f6040518060400160405280600c81526020017f636f64654c6f636174696f6e0000000000000000000000000000000000000000815250826155a090919063ffffffff16565b6145b7835f015160028111156145a8576145a7616a1d565b5b826155c890919063ffffffff16565b6145ff6040518060400160405280600881526020017f6c616e6775616765000000000000000000000000000000000000000000000000815250826155a090919063ffffffff16565b61462783604001515f81111561461857614617616a1d565b5b826155c890919063ffffffff16565b61466f6040518060400160405280600681526020017f736f757263650000000000000000000000000000000000000000000000000000815250826155a090919063ffffffff16565b6146868360600151826155a090919063ffffffff16565b5f8360a0015151111561473d576146db6040518060400160405280600481526020017f6172677300000000000000000000000000000000000000000000000000000000815250826155a090919063ffffffff16565b6146e481615617565b5f5f90505b8360a0015151811015614732576147278460a0015182815181106147105761470f6171c1565b5b6020026020010151836155a090919063ffffffff16565b8060010190506146e9565b5061473c8161563f565b5b5f836080015151111561487c575f600281111561475d5761475c616a1d565b5b8360200151600281111561477457614773616a1d565b5b036147ab576040517fa80d31f700000000000000000000000000000000000000000000000000000000815260040160405180910390fd5b6147f36040518060400160405280600f81526020017f736563726574734c6f636174696f6e0000000000000000000000000000000000815250826155a090919063ffffffff16565b61481c8360200151600281111561480d5761480c616a1d565b5b826155c890919063ffffffff16565b6148646040518060400160405280600781526020017f7365637265747300000000000000000000000000000000000000000000000000815250826155a090919063ffffffff16565b61487b83608001518261566790919063ffffffff16565b5b5f8360c00151511115614933576148d16040518060400160405280600981526020017f6279746573417267730000000000000000000000000000000000000000000000815250826155a090919063ffffffff16565b6148da81615617565b5f5f90505b8360c00151518110156149285761491d8460c001518281518110614906576149056171c1565b5b60200260200101518361566790919063ffffffff16565b8060010190506148df565b506149328161563f565b5b805f01515f0151915050919050565b5f5f60025f9054906101000a900473ffffffffffffffffffffffffffffffffffffffff1673ffffffffffffffffffffffffffffffffffffffff1663461d27628688600188886040518663ffffffff1660e01b81526004016149a79594939291906179ac565b6020604051808303815f875af11580156149c3573d5f5f3e3d5ffd5b505050506040513d601f19601f820116820180604052508101906149e79190617a18565b9050807f1131472297a800fee664d1d89cfa8f7676ff07189ecc53f80bbb5f4969099db860405160405180910390a280915050949350505050565b5f33905090565b5f5f614a33614331565b9050614a3f8484613228565b15614b16575f815f015f8681526020019081526020015f205f015f8573ffffffffffffffffffffffffffffffffffffffff1673ffffffffffffffffffffffffffffffffffffffff1681526020019081526020015f205f6101000a81548160ff021916908315150217905550614ab2614a22565b73ffffffffffffffffffffffffffffffffffffffff168373ffffffffffffffffffffffffffffffffffffffff16857ff6391f5c32d9c69d2a47ea670b442974b53935d1edc7fd64eb21e047a839171b60405160405180910390a46001915050614b1b565b5f9150505b92915050565b614b2961568f565b5f614b32614e6a565b90505f815f015f6101000a81548160ff0219169083151502179055507f5db9ee0a495bf2e6ff9c91a7834c1ba4fdd244a5e8aa4e537bd38aeae4b073aa614b77614a22565b604051614b8491906166e9565b60405180910390a150565b6001815f015f828254019250508190555050565b5f815f01549050919050565b7f000000000000000000000000000000000000000000000000000000000000000073ffffffffffffffffffffffffffffffffffffffff163073ffffffffffffffffffffffffffffffffffffffff161480614c5c57507f000000000000000000000000000000000000000000000000000000000000000073ffffffffffffffffffffffffffffffffffffffff16614c436150a3565b73ffffffffffffffffffffffffffffffffffffffff1614155b15614c93576040517fe07c8dba00000000000000000000000000000000000000000000000000000000815260040160405180910390fd5b565b7fa615a8afb6fffcb8c6809ac0997b5c9c12b8cc97651150f14c8f6203168cff4c5f1b614cc181614271565b5050565b8173ffffffffffffffffffffffffffffffffffffffff166352d1902d6040518163ffffffff1660e01b8152600401602060405180830381865afa925050508015614d2d57506040513d601f19601f82011682018060405250810190614d2a9190617a18565b60015b614d6e57816040517f4c9c8ce3000000000000000000000000000000000000000000000000000000008152600401614d6591906166e9565b60405180910390fd5b7f360894a13ba1a3210667c828492db98dca3e2076cc3735a920a3ca505d382bbc5f1b8114614dd457806040517faa1d49a4000000000000000000000000000000000000000000000000000000008152600401614dcb9190616503565b60405180910390fd5b614dde83836156cf565b505050565b7f000000000000000000000000000000000000000000000000000000000000000073ffffffffffffffffffffffffffffffffffffffff163073ffffffffffffffffffffffffffffffffffffffff1614614e68576040517fe07c8dba00000000000000000000000000000000000000000000000000000000815260040160405180910390fd5b565b5f7fcd5ed15c6e187e77e9aee88184c21f4f2182ab5827cb3b7e07fbedcd63f03300905090565b614e99614285565b5f614ea2614e6a565b90506001815f015f6101000a81548160ff0219169083151502179055507f62e78cea01bee320cd4e420270b5ea74000d11b0c9f74754ebdbfc544b05a258614ee8614a22565b604051614ef591906166e9565b60405180910390a150565b5f5f614f0a615741565b90508091505090565b614f1b61576a565b614f236157aa565b614f2b6157b4565b614f375f5f1b33614358565b50614f647fa615a8afb6fffcb8c6809ac0997b5c9c12b8cc97651150f14c8f6203168cff4c5f1b33614358565b50614f917faf290d8680820aad922855f39b306097b20e28774d6c1ad35a20325630c3a02c5f1b33614358565b50565b614f9c61576a565b614fa46157be565b565b614fae61576a565b565b8060025f6101000a81548173ffffffffffffffffffffffffffffffffffffffff021916908373ffffffffffffffffffffffffffffffffffffffff16021790555050565b5f73ffffffffffffffffffffffffffffffffffffffff168173ffffffffffffffffffffffffffffffffffffffff1603615061576040517f08c379a000000000000000000000000000000000000000000000000000000000815260040161505890617a8d565b60405180910390fd5b805f5f6101000a81548173ffffffffffffffffffffffffffffffffffffffff021916908373ffffffffffffffffffffffffffffffffffffffff16021790555050565b5f6150cf7f360894a13ba1a3210667c828492db98dca3e2076cc3735a920a3ca505d382bbc5f1b6157dd565b5f015f9054906101000a900473ffffffffffffffffffffffffffffffffffffffff16905090565b3373ffffffffffffffffffffffffffffffffffffffff168173ffffffffffffffffffffffffffffffffffffffff1603615164576040517f08c379a000000000000000000000000000000000000000000000000000000000815260040161515b90617af5565b60405180910390fd5b8060015f6101000a81548173ffffffffffffffffffffffffffffffffffffffff021916908373ffffffffffffffffffffffffffffffffffffffff1602179055508073ffffffffffffffffffffffffffffffffffffffff165f5f9054906101000a900473ffffffffffffffffffffffffffffffffffffffff1673ffffffffffffffffffffffffffffffffffffffff167fed8889f560326eb138920d842192f0eb3dd22b4f139c87a2c57538e05bae127860405160405180910390a350565b600354831461526757826040517fd068bf5b00000000000000000000000000000000000000000000000000000000815260040161525e9190616503565b60405180910390fd5b81600490816152769190617b6b565b5080600590816152869190617b6b565b505f6008805461529590616e2f565b905011156153e7575f81511480156152af57506020825110155b15615384575f828060200190518101906152c99190617c4e565b90505f5f8211905080600760086040516152e39190616f3a565b90815260200160405180910390205f6101000a81548160ff0219169083151502179055508060095f6101000a81548160ff021916908315150217905550847f99f873583fde66fffee5947d1fa2f03d1cf170fc1c8e52e588cf42847673386760088387876040516153579493929190617c79565b60405180910390a260405180602001604052805f8152506008908161537c9190617567565b5050506153e2565b827f99f873583fde66fffee5947d1fa2f03d1cf170fc1c8e52e588cf42847673386760085f85856040516153bb9493929190617c79565b60405180910390a260405180602001604052805f815250600890816153e09190617567565b505b615458565b5f81511480156153f957506020825110155b1561541957818060200190518101906154129190617c4e565b6006819055505b827ffc03b1503acd478faf9c08107596f6d5c04b4591fea84f8d6f21bdf613b5370e600654848460405161544f93929190617cd1565b60405180910390a25b505050565b6154678282613228565b6154aa5780826040517fe2517d3f0000000000000000000000000000000000000000000000000000000081526004016154a1929190617d14565b60405180910390fd5b5050565b5f7f9b779b17422d0df92223018b32b4d1fa46e071723d6817e2486d003becc55f00905090565b5f81510361550f576040517f22ce3edd00000000000000000000000000000000000000000000000000000000815260040160405180910390fd5b82845f0190600281111561552657615525616a1d565b5b9081600281111561553a57615539616a1d565b5b815250508184604001905f81111561555557615554616a1d565b5b90815f81111561556857615567616a1d565b5b8152505080846060018190525050505050565b615583615f89565b615590815f0151836157e6565b505f816020018181525050919050565b6155ad826003835161585c565b6155c381835f01516159fc90919063ffffffff16565b505050565b6155e960026005600660ff16901b17835f0151615a1890919063ffffffff16565b5061561382826040516020016155ff919061690a565b604051602081830303815290604052615667565b5050565b615622816004615a7f565b6001816020018181516156359190617534565b9150818152505050565b61564a816007615a7f565b60018160200181815161565d91906170ca565b9150818152505050565b615674826002835161585c565b61568a81835f01516159fc90919063ffffffff16565b505050565b615697612cc3565b6156cd576040517f8dfc202b00000000000000000000000000000000000000000000000000000000815260040160405180910390fd5b565b6156d882615aa4565b8173ffffffffffffffffffffffffffffffffffffffff167fbc7cd75a20ee27fd9adebab32041f755214dbc6bffa90cc0225b39da2e5c2d3b60405160405180910390a25f815111156157345761572e8282615b6d565b5061573d565b61573c615bed565b5b5050565b5f7ff0c57e16840df040f15088dc2f81fe391c3923bec73e23a9662efc9c229c6a005f1b905090565b615772615c29565b6157a8576040517fd7e6bcf800000000000000000000000000000000000000000000000000000000815260040160405180910390fd5b565b6157b261576a565b565b6157bc61576a565b565b6157c661576a565b5f6157cf6154ae565b90506001815f018190555050565b5f819050919050565b6157ee615fa8565b5f6020836157fc9190617d3b565b146158285760208261580e9190617d3b565b602061581a91906170ca565b826158259190617534565b91505b818360200181815250506040518084525f81528281016020018181101561584d575f5ffd5b80604052505082905092915050565b60178167ffffffffffffffff1611615896576158908160058460ff16901b60ff1617845f0151615a1890919063ffffffff16565b506159f7565b60ff8167ffffffffffffffff16116158f2576158c8601860058460ff16901b17845f0151615a1890919063ffffffff16565b506158ec8167ffffffffffffffff166001855f0151615c479092919063ffffffff16565b506159f6565b61ffff8167ffffffffffffffff161161594f57615925601960058460ff16901b17845f0151615a1890919063ffffffff16565b506159498167ffffffffffffffff166002855f0151615c479092919063ffffffff16565b506159f5565b63ffffffff8167ffffffffffffffff16116159ae57615984601a60058460ff16901b17845f0151615a1890919063ffffffff16565b506159a88167ffffffffffffffff166004855f0151615c479092919063ffffffff16565b506159f4565b6159ce601b60058460ff16901b17845f0151615a1890919063ffffffff16565b506159f28167ffffffffffffffff166008855f0151615c479092919063ffffffff16565b505b5b5b5b505050565b615a04615fa8565b615a1083838451615cd0565b905092915050565b615a20615fa8565b5f835f01515190505f600182615a369190617534565b905084602001518210615a5a57615a5985600283615a54919061702c565b615dad565b5b84516020838201018581538151831115615a72578282525b5050849250505092915050565b615a9f601f60058360ff16901b17835f0151615a1890919063ffffffff16565b505050565b5f8173ffffffffffffffffffffffffffffffffffffffff163b03615aff57806040517f4c9c8ce3000000000000000000000000000000000000000000000000000000008152600401615af691906166e9565b60405180910390fd5b80615b2b7f360894a13ba1a3210667c828492db98dca3e2076cc3735a920a3ca505d382bbc5f1b6157dd565b5f015f6101000a81548173ffffffffffffffffffffffffffffffffffffffff021916908373ffffffffffffffffffffffffffffffffffffffff16021790555050565b60605f5f8473ffffffffffffffffffffffffffffffffffffffff1684604051615b969190617d9b565b5f60405180830381855af49150503d805f8114615bce576040519150601f19603f3d011682016040523d82523d5f602084013e615bd3565b606091505b5091509150615be3858383615dcf565b9250505092915050565b5f341115615c27576040517fb398979f00000000000000000000000000000000000000000000000000000000815260040160405180910390fd5b565b5f615c32614f00565b5f0160089054906101000a900460ff16905090565b615c4f615fa8565b5f845f01515190505f8184615c649190617534565b90508560200151811115615c8957615c8886600283615c83919061702c565b615dad565b5b5f600185610100615c9a9190617ee0565b615ca491906170ca565b905086518281018783198251161781528151841115615cc1578382525b50508693505050509392505050565b615cd8615fa8565b8251821115615ce5575f5ffd5b5f845f01515190505f8382615cfa9190617534565b90508560200151811115615d1f57615d1e86600283615d19919061702c565b615dad565b5b5f5f87518051856020830101935080851115615d39578482525b60208901925050505b60208610615d805780518252602082615d5b9190617534565b9150602081615d6a9190617534565b9050602086615d7991906170ca565b9550615d42565b5f6001876020036101000a0390508019825116818451168181178552505050879450505050509392505050565b5f825f01519050615dbe83836157e6565b50615dc983826159fc565b50505050565b606082615de457615ddf82615e5c565b615e54565b5f8251148015615e0a57505f8473ffffffffffffffffffffffffffffffffffffffff163b145b15615e4c57836040517f9996b315000000000000000000000000000000000000000000000000000000008152600401615e4391906166e9565b60405180910390fd5b819050615e55565b5b9392505050565b5f81511115615e6e5780518082602001fd5b6040517fd6bda27500000000000000000000000000000000000000000000000000000000815260040160405180910390fd5b6040518061014001604052805f81526020015f73ffffffffffffffffffffffffffffffffffffffff1681526020015f81526020015f73ffffffffffffffffffffffffffffffffffffffff1681526020015f81526020015f81526020015f81526020015f15158152602001606081526020015f151581525090565b6040518060e001604052805f6002811115615f3857615f37616a1d565b5b81526020015f6002811115615f5057615f4f616a1d565b5b81526020015f5f811115615f6757615f66616a1d565b5b8152602001606081526020016060815260200160608152602001606081525090565b6040518060400160405280615f9c615fa8565b81526020015f81525090565b6040518060400160405280606081526020015f81525090565b5f8115159050919050565b615fd581615fc1565b82525050565b5f602082019050615fee5f830184615fcc565b92915050565b5f604051905090565b5f5ffd5b5f5ffd5b5f7fffffffff0000000000000000000000000000000000000000000000000000000082169050919050565b61603981616005565b8114616043575f5ffd5b50565b5f8135905061605481616030565b92915050565b5f6020828403121561606f5761606e615ffd565b5b5f61607c84828501616046565b91505092915050565b5f67ffffffffffffffff82169050919050565b6160a181616085565b82525050565b5f6020820190506160ba5f830184616098565b92915050565b5f819050919050565b6160d2816160c0565b81146160dc575f5ffd5b50565b5f813590506160ed816160c9565b92915050565b5f5ffd5b5f5ffd5b5f601f19601f8301169050919050565b7f4e487b71000000000000000000000000000000000000000000000000000000005f52604160045260245ffd5b616141826160fb565b810181811067ffffffffffffffff821117156161605761615f61610b565b5b80604052505050565b5f616172615ff4565b905061617e8282616138565b919050565b5f67ffffffffffffffff82111561619d5761619c61610b565b5b6161a6826160fb565b9050602081019050919050565b828183375f83830152505050565b5f6161d36161ce84616183565b616169565b9050828152602081018484840111156161ef576161ee6160f7565b5b6161fa8482856161b3565b509392505050565b5f82601f830112616216576162156160f3565b5b81356162268482602086016161c1565b91505092915050565b5f5f5f6060848603121561624657616245615ffd565b5b5f616253868287016160df565b935050602084013567ffffffffffffffff81111561627457616273616001565b5b61628086828701616202565b925050604084013567ffffffffffffffff8111156162a1576162a0616001565b5b6162ad86828701616202565b9150509250925092565b5f819050919050565b6162c9816162b7565b81146162d3575f5ffd5b50565b5f813590506162e4816162c0565b92915050565b5f602082840312156162ff576162fe615ffd565b5b5f61630c848285016162d6565b91505092915050565b61631e816162b7565b82525050565b5f73ffffffffffffffffffffffffffffffffffffffff82169050919050565b5f61634d82616324565b9050919050565b61635d81616343565b82525050565b61636c81615fc1565b82525050565b5f81519050919050565b5f82825260208201905092915050565b8281835e5f83830152505050565b5f6163a482616372565b6163ae818561637c565b93506163be81856020860161638c565b6163c7816160fb565b840191505092915050565b5f61014083015f8301516163e85f860182616315565b5060208301516163fb6020860182616354565b50604083015161640e6040860182616315565b5060608301516164216060860182616354565b5060808301516164346080860182616315565b5060a083015161644760a0860182616315565b5060c083015161645a60c0860182616315565b5060e083015161646d60e0860182616363565b50610100830151848203610100860152616487828261639a565b91505061012083015161649e610120860182616363565b508091505092915050565b5f6020820190508181035f8301526164c181846163d2565b905092915050565b5f602082840312156164de576164dd615ffd565b5b5f6164eb848285016160df565b91505092915050565b6164fd816160c0565b82525050565b5f6020820190506165165f8301846164f4565b92915050565b61652581616343565b811461652f575f5ffd5b50565b5f813590506165408161651c565b92915050565b5f5f6040838503121561655c5761655b615ffd565b5b5f616569858286016160df565b925050602061657a85828601616532565b9150509250929050565b61658d81616085565b8114616597575f5ffd5b50565b5f813590506165a881616584565b92915050565b5f5ffd5b5f5ffd5b5f5f83601f8401126165cb576165ca6160f3565b5b8235905067ffffffffffffffff8111156165e8576165e76165ae565b5b602083019150836001820283011115616604576166036165b2565b5b9250929050565b5f5f5f6040848603121561662257616621615ffd565b5b5f61662f8682870161659a565b935050602084013567ffffffffffffffff8111156166505761664f616001565b5b61665c868287016165b6565b92509250509250925092565b5f81519050919050565b5f82825260208201905092915050565b5f61668c82616668565b6166968185616672565b93506166a681856020860161638c565b6166af816160fb565b840191505092915050565b5f6020820190508181035f8301526166d28184616682565b905092915050565b6166e381616343565b82525050565b5f6020820190506166fc5f8301846166da565b92915050565b5f5f5f5f5f5f60a0878903121561671c5761671b615ffd565b5b5f61672989828a01616532565b965050602061673a89828a016162d6565b955050604061674b89828a016162d6565b945050606061675c89828a016162d6565b935050608087013567ffffffffffffffff81111561677d5761677c616001565b5b61678989828a016165b6565b92509250509295509295509295565b600581106167a4575f5ffd5b50565b5f813590506167b581616798565b92915050565b5f5f5f604084860312156167d2576167d1615ffd565b5b5f84013567ffffffffffffffff8111156167ef576167ee616001565b5b6167fb868287016165b6565b9350935050602061680e868287016167a7565b9150509250925092565b5f5f6040838503121561682e5761682d615ffd565b5b5f61683b85828601616532565b925050602083013567ffffffffffffffff81111561685c5761685b616001565b5b61686885828601616202565b9150509250929050565b5f5f6040838503121561688857616887615ffd565b5b5f61689585828601616532565b92505060206168a6858286016162d6565b9150509250929050565b5f5f602083850312156168c6576168c5615ffd565b5b5f83013567ffffffffffffffff8111156168e3576168e2616001565b5b6168ef858286016165b6565b92509250509250929050565b616904816162b7565b82525050565b5f60208201905061691d5f8301846168fb565b92915050565b5f5f83601f840112616938576169376160f3565b5b8235905067ffffffffffffffff811115616955576169546165ae565b5b602083019150836020820283011115616971576169706165b2565b5b9250929050565b5f5f5f6040848603121561698f5761698e615ffd565b5b5f61699c8682870161659a565b935050602084013567ffffffffffffffff8111156169bd576169bc616001565b5b6169c986828701616923565b92509250509250925092565b5f82825260208201905092915050565b5f6169ef82616372565b6169f981856169d5565b9350616a0981856020860161638c565b616a12816160fb565b840191505092915050565b7f4e487b71000000000000000000000000000000000000000000000000000000005f52602160045260245ffd5b60058110616a5b57616a5a616a1d565b5b50565b5f819050616a6b82616a4a565b919050565b5f616a7a82616a5e565b9050919050565b616a8a81616a70565b82525050565b5f6040820190508181035f830152616aa881856169e5565b9050616ab76020830184616a81565b9392505050565b5f67ffffffffffffffff821115616ad857616ad761610b565b5b616ae1826160fb565b9050602081019050919050565b5f616b00616afb84616abe565b616169565b905082815260208101848484011115616b1c57616b1b6160f7565b5b616b278482856161b3565b509392505050565b5f82601f830112616b4357616b426160f3565b5b8135616b53848260208601616aee565b91505092915050565b5f60208284031215616b7157616b70615ffd565b5b5f82013567ffffffffffffffff811115616b8e57616b8d616001565b5b616b9a84828501616b2f565b91505092915050565b5f602082019050616bb65f830184616a81565b92915050565b5f5f5f5f5f5f60c08789031215616bd657616bd5615ffd565b5b5f616be389828a01616532565b9650506020616bf489828a016162d6565b9550506040616c0589828a016162d6565b9450506060616c1689828a016162d6565b9350506080616c2789828a01616532565b92505060a0616c3889828a0161659a565b9150509295509295509295565b5f6020820190508181035f830152616c5d81846169e5565b905092915050565b5f5f60408385031215616c7b57616c7a615ffd565b5b5f616c88858286016162d6565b9250506020616c99858286016162d6565b9150509250929050565b5f60208284031215616cb857616cb7615ffd565b5b5f616cc584828501616532565b91505092915050565b5f61014082019050616ce25f83018d6168fb565b616cef602083018c6166da565b616cfc604083018b6168fb565b616d09606083018a6166da565b616d1660808301896168fb565b616d2360a08301886168fb565b616d3060c08301876168fb565b616d3d60e0830186615fcc565b818103610100830152616d5081856169e5565b9050616d60610120830184615fcc565b9b9a5050505050505050505050565b5f60208284031215616d8457616d83615ffd565b5b5f616d918482850161659a565b91505092915050565b616da381615fc1565b8114616dad575f5ffd5b50565b5f81359050616dbe81616d9a565b92915050565b5f5f60408385031215616dda57616dd9615ffd565b5b5f616de785828601616532565b9250506020616df885828601616db0565b9150509250929050565b7f4e487b71000000000000000000000000000000000000000000000000000000005f52602260045260245ffd5b5f6002820490506001821680616e4657607f821691505b602082108103616e5957616e58616e02565b5b50919050565b5f81519050616e6d81616584565b92915050565b5f60208284031215616e8857616e87615ffd565b5b5f616e9584828501616e5f565b91505092915050565b5f81905092915050565b5f819050815f5260205f209050919050565b5f8154616ec681616e2f565b616ed08186616e9e565b9450600182165f8114616eea5760018114616eff57616f31565b60ff1983168652811515820286019350616f31565b616f0885616ea8565b5f5b83811015616f2957815481890152600182019150602081019050616f0a565b838801955050505b50505092915050565b5f616f458284616eba565b915081905092915050565b5f8154616f5c81616e2f565b616f6681866169d5565b9450600182165f8114616f805760018114616f9657616fc8565b60ff198316865281151560200286019350616fc8565b616f9f85616ea8565b5f5b83811015616fc057815481890152600182019150602081019050616fa1565b808801955050505b50505092915050565b5f6040820190508181035f830152616fe98185616f50565b9050616ff86020830184616a81565b9392505050565b7f4e487b71000000000000000000000000000000000000000000000000000000005f52601160045260245ffd5b5f617036826162b7565b9150617041836162b7565b925082820261704f816162b7565b9150828204841483151761706657617065616fff565b5b5092915050565b7f4e487b71000000000000000000000000000000000000000000000000000000005f52601260045260245ffd5b5f6170a4826162b7565b91506170af836162b7565b9250826170bf576170be61706d565b5b828204905092915050565b5f6170d4826162b7565b91506170df836162b7565b92508282039050818111156170f7576170f6616fff565b5b92915050565b5f6060820190506171105f8301866166da565b61711d60208301856166da565b61712a60408301846168fb565b949350505050565b5f81905092915050565b50565b5f61714a5f83617132565b91506171558261713c565b5f82019050919050565b5f6171698261713f565b9150819050919050565b5f61717e83856169d5565b935061718b8385846161b3565b617194836160fb565b840190509392505050565b5f6020820190508181035f8301526171b8818486617173565b90509392505050565b7f4e487b71000000000000000000000000000000000000000000000000000000005f52603260045260245ffd5b5f82905092915050565b5f6020601f8301049050919050565b5f82821b905092915050565b5f600883026172427fffffffffffffffffffffffffffffffffffffffffffffffffffffffffffffffff82617207565b61724c8683617207565b95508019841693508086168417925050509392505050565b5f819050919050565b5f61728761728261727d846162b7565b617264565b6162b7565b9050919050565b5f819050919050565b6172a08361726d565b6172b46172ac8261728e565b848454617213565b825550505050565b5f5f905090565b6172cb6172bc565b6172d6818484617297565b505050565b5b818110156172f9576172ee5f826172c3565b6001810190506172dc565b5050565b601f82111561733e5761730f81616ea8565b617318846171f8565b81016020851015617327578190505b61733b617333856171f8565b8301826172db565b50505b505050565b5f82821c905092915050565b5f61735e5f1984600802617343565b1980831691505092915050565b5f617376838361734f565b9150826002028217905092915050565b61739083836171ee565b67ffffffffffffffff8111156173a9576173a861610b565b5b6173b38254616e2f565b6173be8282856172fd565b5f601f8311600181146173eb575f84156173d9578287013590505b6173e3858261736b565b86555061744a565b601f1984166173f986616ea8565b5f5b82811015617420578489013582556001820191506020850194506020810190506173fb565b8683101561743d5784890135617439601f89168261734f565b8355505b6001600288020188555050505b50505050505050565b5f61745e8385616e9e565b935061746b8385846161b3565b82840190509392505050565b5f617483828486617453565b91508190509392505050565b5f8151905061749d8161651c565b92915050565b5f602082840312156174b8576174b7615ffd565b5b5f6174c58482850161748f565b91505092915050565b5f6040820190506174e15f8301856166da565b6174ee60208301846166da565b9392505050565b5f8151905061750381616d9a565b92915050565b5f6020828403121561751e5761751d615ffd565b5b5f61752b848285016174f5565b91505092915050565b5f61753e826162b7565b9150617549836162b7565b925082820190508082111561756157617560616fff565b5b92915050565b61757082616372565b67ffffffffffffffff8111156175895761758861610b565b5b6175938254616e2f565b61759e8282856172fd565b5f60209050601f8311600181146175cf575f84156175bd578287015190505b6175c7858261736b565b86555061762e565b601f1984166175dd86616ea8565b5f5b82811015617604578489015182556001820191506020850194506020810190506175df565b86831015617621578489015161761d601f89168261734f565b8355505b6001600288020188555050505b505050505050565b5f6040820190508181035f83015261764f818587617173565b905061765e6020830184616a81565b949350505050565b5f6040820190508181035f83015261767f818587617173565b905061768e60208301846164f4565b949350505050565b5f60a0820190506176a95f8301896166da565b6176b660208301886168fb565b6176c360408301876168fb565b6176d060608301866168fb565b81810360808301526176e3818486617173565b9050979650505050505050565b5f67ffffffffffffffff82111561770a5761770961610b565b5b602082029050602081019050919050565b5f61772d617728846176f0565b616169565b905080838252602082019050602084028301858111156177505761774f6165b2565b5b835b8181101561779757803567ffffffffffffffff811115617775576177746160f3565b5b8086016177828982616b2f565b85526020850194505050602081019050617752565b5050509392505050565b5f6177ad36848461771b565b905092915050565b7f4d7573742062652070726f706f736564206f776e6572000000000000000000005f82015250565b5f6177e96016836169d5565b91506177f4826177b5565b602082019050919050565b5f6020820190508181035f830152617816816177dd565b9050919050565b5f61782782616372565b6178318185616e9e565b935061784181856020860161638c565b80840191505092915050565b5f617858828461781d565b915081905092915050565b5f819050919050565b5f61788661788161787c84617863565b617264565b616085565b9050919050565b6178968161786c565b82525050565b5f6020820190506178af5f83018461788d565b92915050565b5f6040820190506178c85f8301856166da565b6178d56020830184615fcc565b9392505050565b5f6040820190508181035f8301526178f481856169e5565b90506179036020830184615fcc565b9392505050565b7f4f6e6c792063616c6c61626c65206279206f776e6572000000000000000000005f82015250565b5f61793e6016836169d5565b91506179498261790a565b602082019050919050565b5f6020820190508181035f83015261796b81617932565b9050919050565b5f61ffff82169050919050565b61798881617972565b82525050565b5f63ffffffff82169050919050565b6179a68161798e565b82525050565b5f60a0820190506179bf5f830188616098565b81810360208301526179d18187616682565b90506179e0604083018661797f565b6179ed606083018561799d565b6179fa60808301846164f4565b9695505050505050565b5f81519050617a12816160c9565b92915050565b5f60208284031215617a2d57617a2c615ffd565b5b5f617a3a84828501617a04565b91505092915050565b7f43616e6e6f7420736574206f776e657220746f207a65726f00000000000000005f82015250565b5f617a776018836169d5565b9150617a8282617a43565b602082019050919050565b5f6020820190508181035f830152617aa481617a6b565b9050919050565b7f43616e6e6f74207472616e7366657220746f2073656c660000000000000000005f82015250565b5f617adf6017836169d5565b9150617aea82617aab565b602082019050919050565b5f6020820190508181035f830152617b0c81617ad3565b9050919050565b5f819050815f5260205f209050919050565b601f821115617b6657617b3781617b13565b617b40846171f8565b81016020851015617b4f578190505b617b63617b5b856171f8565b8301826172db565b50505b505050565b617b7482616668565b67ffffffffffffffff811115617b8d57617b8c61610b565b5b617b978254616e2f565b617ba2828285617b25565b5f60209050601f831160018114617bd3575f8415617bc1578287015190505b617bcb858261736b565b865550617c32565b601f198416617be186617b13565b5f5b82811015617c0857848901518255600182019150602085019450602081019050617be3565b86831015617c255784890151617c21601f89168261734f565b8355505b6001600288020188555050505b505050505050565b5f81519050617c48816162c0565b92915050565b5f60208284031215617c6357617c62615ffd565b5b5f617c7084828501617c3a565b91505092915050565b5f6080820190508181035f830152617c918187616f50565b9050617ca06020830186615fcc565b8181036040830152617cb28185616682565b90508181036060830152617cc68184616682565b905095945050505050565b5f606082019050617ce45f8301866168fb565b8181036020830152617cf68185616682565b90508181036040830152617d0a8184616682565b9050949350505050565b5f604082019050617d275f8301856166da565b617d3460208301846164f4565b9392505050565b5f617d45826162b7565b9150617d50836162b7565b925082617d6057617d5f61706d565b5b828206905092915050565b5f617d7582616668565b617d7f8185617132565b9350617d8f81856020860161638c565b80840191505092915050565b5f617da68284617d6b565b915081905092915050565b5f8160011c9050919050565b5f5f8291508390505b6001851115617e0657808604811115617de257617de1616fff565b5b6001851615617df15780820291505b8081029050617dff85617db1565b9450617dc6565b94509492505050565b5f82617e1e5760019050617ed9565b81617e2b575f9050617ed9565b8160018114617e415760028114617e4b57617e7a565b6001915050617ed9565b60ff841115617e5d57617e5c616fff565b5b8360020a915084821115617e7457617e73616fff565b5b50617ed9565b5060208310610133831016604e8410600b8410161715617eaf5782820a905083811115617eaa57617ea9616fff565b5b617ed9565b617ebc8484846001617dbd565b92509050818404811115617ed357617ed2616fff565b5b81810290505b9392505050565b5f617eea826162b7565b9150617ef5836162b7565b9250617f227fffffffffffffffffffffffffffffffffffffffffffffffffffffffffffffffff8484617e0f565b90509291505056fea2646970667358221220dfdcc16deeae3d0e88b250c1e0fc5294696d35364d3f48db364be67d195f8ceb64736f6c634300081e0033636f6e7374207469636b65744964203d20617267735b305d3b636f6e73742075726c203d202768747470733a2f2f3638343163663361643438353136643164333563663731632e6d6f636b6170692e696f2f7665726966797469636b6574732f27202b207469636b657449643b636f6e737420726573706f6e7365203d2061776169742046756e6374696f6e732e6d616b654874747052657175657374287b2075726c207d293b69662028726573706f6e73652e6572726f7229207b207468726f77204572726f72282752657175657374206661696c656427293b207d636f6e73742064617461203d20726573706f6e73652e646174613b696620282164617461207c7c20747970656f66206461746120213d3d20276f626a6563742729207468726f77204572726f7228605469636b657420494420247b7469636b657449647d206e6f7420666f756e64206f7220696e76616c696460293b636f6e737420697355736564203d20646174612e75736564203d3d3d20747275653b72657475726e2046756e6374696f6e732e656e636f646555696e7432353628697355736564203f2031203a2030293b636f6e7374206576656e744964203d20617267735b305d3b636f6e73742075726c203d202768747470733a2f2f3638343163663361643438353136643164333563663731632e6d6f636b6170692e696f2f7469636b6574732f27202b206576656e7449643b636f6e737420726573706f6e7365203d2061776169742046756e6374696f6e732e6d616b654874747052657175657374287b2075726c207d293b69662028726573706f6e73652e6572726f7229207b207468726f77204572726f72282752657175657374206661696c656427293b207d636f6e73742064617461203d20726573706f6e73652e646174613b696620282164617461207c7c20747970656f66206461746120213d3d20276f626a6563742729207468726f77204572726f722860496e76616c696420726573706f6e736560293b636f6e73742072617752656d61696e696e67203d20646174612e72656d61696e696e673b636f6e737420617661696c61626c65203d204e756d6265722872617752656d61696e696e67293b69662028214e756d6265722e697346696e69746528617661696c61626c652929207468726f77204572726f722860496e76616c6964207469636b657420636f756e743a20247b72617752656d61696e696e677d60293b72657475726e2046756e6374696f6e732e656e636f646555696e7432353628617661696c61626c65293b",
			"opcodes": "PUSH1 0xA0 PUSH1 0x40 MSTORE ADDRESS PUSH20 0xFFFFFFFFFFFFFFFFFFFFFFFFFFFFFFFFFFFFFFFF AND PUSH1 0x80 SWAP1 PUSH20 0xFFFFFFFFFFFFFFFFFFFFFFFFFFFFFFFFFFFFFFFF AND DUP2 MSTORE POP PUSH1 0x40 MLOAD DUP1 PUSH2 0x240 ADD PUSH1 0x40 MSTORE DUP1 PUSH2 0x202 DUP2 MSTORE PUSH1 0x20 ADD PUSH2 0x8663 PUSH2 0x202 SWAP2 CODECOPY PUSH1 0xB SWAP1 DUP2 PUSH2 0x61 SWAP2 SWAP1 PUSH2 0x429 JUMP JUMPDEST POP PUSH1 0x40 MLOAD DUP1 PUSH2 0x1E0 ADD PUSH1 0x40 MSTORE DUP1 PUSH2 0x1AA DUP2 MSTORE PUSH1 0x20 ADD PUSH2 0x84B9 PUSH2 0x1AA SWAP2 CODECOPY PUSH1 0xC SWAP1 DUP2 PUSH2 0x8C SWAP2 SWAP1 PUSH2 0x429 JUMP JUMPDEST POP CALLVALUE DUP1 ISZERO PUSH2 0x98 JUMPI PUSH0 PUSH0 REVERT JUMPDEST POP PUSH2 0xA7 PUSH2 0xAC PUSH1 0x20 SHL PUSH1 0x20 SHR JUMP JUMPDEST PUSH2 0x533 JUMP JUMPDEST PUSH0 PUSH2 0xBB PUSH2 0x1AA PUSH1 0x20 SHL PUSH1 0x20 SHR JUMP JUMPDEST SWAP1 POP DUP1 PUSH0 ADD PUSH1 0x8 SWAP1 SLOAD SWAP1 PUSH2 0x100 EXP SWAP1 DIV PUSH1 0xFF AND ISZERO PUSH2 0x105 JUMPI PUSH1 0x40 MLOAD PUSH32 0xF92EE8A900000000000000000000000000000000000000000000000000000000 DUP2 MSTORE PUSH1 0x4 ADD PUSH1 0x40 MLOAD DUP1 SWAP2 SUB SWAP1 REVERT JUMPDEST PUSH8 0xFFFFFFFFFFFFFFFF DUP1 AND DUP2 PUSH0 ADD PUSH0 SWAP1 SLOAD SWAP1 PUSH2 0x100 EXP SWAP1 DIV PUSH8 0xFFFFFFFFFFFFFFFF AND PUSH8 0xFFFFFFFFFFFFFFFF AND EQ PUSH2 0x1A7 JUMPI PUSH8 0xFFFFFFFFFFFFFFFF DUP2 PUSH0 ADD PUSH0 PUSH2 0x100 EXP DUP2 SLOAD DUP2 PUSH8 0xFFFFFFFFFFFFFFFF MUL NOT AND SWAP1 DUP4 PUSH8 0xFFFFFFFFFFFFFFFF AND MUL OR SWAP1 SSTORE POP PUSH32 0xC7F505B2F371AE2175EE4913F4499E1F2633A7B5936321EED1CDAEB6115181D2 PUSH8 0xFFFFFFFFFFFFFFFF PUSH1 0x40 MLOAD PUSH2 0x19E SWAP2 SWAP1 PUSH2 0x51A JUMP JUMPDEST PUSH1 0x40 MLOAD DUP1 SWAP2 SUB SWAP1 LOG1 JUMPDEST POP JUMP JUMPDEST PUSH0 PUSH0 PUSH2 0x1BA PUSH2 0x1C3 PUSH1 0x20 SHL PUSH1 0x20 SHR JUMP JUMPDEST SWAP1 POP DUP1 SWAP2 POP POP SWAP1 JUMP JUMPDEST PUSH0 PUSH32 0xF0C57E16840DF040F15088DC2F81FE391C3923BEC73E23A9662EFC9C229C6A00 PUSH0 SHL SWAP1 POP SWAP1 JUMP JUMPDEST PUSH0 DUP2 MLOAD SWAP1 POP SWAP2 SWAP1 POP JUMP JUMPDEST PUSH32 0x4E487B7100000000000000000000000000000000000000000000000000000000 PUSH0 MSTORE PUSH1 0x41 PUSH1 0x4 MSTORE PUSH1 0x24 PUSH0 REVERT JUMPDEST PUSH32 0x4E487B7100000000000000000000000000000000000000000000000000000000 PUSH0 MSTORE PUSH1 0x22 PUSH1 0x4 MSTORE PUSH1 0x24 PUSH0 REVERT JUMPDEST PUSH0 PUSH1 0x2 DUP3 DIV SWAP1 POP PUSH1 0x1 DUP3 AND DUP1 PUSH2 0x267 JUMPI PUSH1 0x7F DUP3 AND SWAP2 POP JUMPDEST PUSH1 0x20 DUP3 LT DUP2 SUB PUSH2 0x27A JUMPI PUSH2 0x279 PUSH2 0x223 JUMP JUMPDEST JUMPDEST POP SWAP2 SWAP1 POP JUMP JUMPDEST PUSH0 DUP2 SWAP1 POP DUP2 PUSH0 MSTORE PUSH1 0x20 PUSH0 KECCAK256 SWAP1 POP SWAP2 SWAP1 POP JUMP JUMPDEST PUSH0 PUSH1 0x20 PUSH1 0x1F DUP4 ADD DIV SWAP1 POP SWAP2 SWAP1 POP JUMP JUMPDEST PUSH0 DUP3 DUP3 SHL SWAP1 POP SWAP3 SWAP2 POP POP JUMP JUMPDEST PUSH0 PUSH1 0x8 DUP4 MUL PUSH2 0x2DC PUSH32 0xFFFFFFFFFFFFFFFFFFFFFFFFFFFFFFFFFFFFFFFFFFFFFFFFFFFFFFFFFFFFFFFF DUP3 PUSH2 0x2A1 JUMP JUMPDEST PUSH2 0x2E6 DUP7 DUP4 PUSH2 0x2A1 JUMP JUMPDEST SWAP6 POP DUP1 NOT DUP5 AND SWAP4 POP DUP1 DUP7 AND DUP5 OR SWAP3 POP POP POP SWAP4 SWAP3 POP POP POP JUMP JUMPDEST PUSH0 DUP2 SWAP1 POP SWAP2 SWAP1 POP JUMP JUMPDEST PUSH0 DUP2 SWAP1 POP SWAP2 SWAP1 POP JUMP JUMPDEST PUSH0 PUSH2 0x32A PUSH2 0x325 PUSH2 0x320 DUP5 PUSH2 0x2FE JUMP JUMPDEST PUSH2 0x307 JUMP JUMPDEST PUSH2 0x2FE JUMP JUMPDEST SWAP1 POP SWAP2 SWAP1 POP JUMP JUMPDEST PUSH0 DUP2 SWAP1 POP SWAP2 SWAP1 POP JUMP JUMPDEST PUSH2 0x343 DUP4 PUSH2 0x310 JUMP JUMPDEST PUSH2 0x357 PUSH2 0x34F DUP3 PUSH2 0x331 JUMP JUMPDEST DUP5 DUP5 SLOAD PUSH2 0x2AD JUMP JUMPDEST DUP3 SSTORE POP POP POP POP JUMP JUMPDEST PUSH0 PUSH0 SWAP1 POP SWAP1 JUMP JUMPDEST PUSH2 0x36E PUSH2 0x35F JUMP JUMPDEST PUSH2 0x379 DUP2 DUP5 DUP5 PUSH2 0x33A JUMP JUMPDEST POP POP POP JUMP JUMPDEST JUMPDEST DUP2 DUP2 LT ISZERO PUSH2 0x39C JUMPI PUSH2 0x391 PUSH0 DUP3 PUSH2 0x366 JUMP JUMPDEST PUSH1 0x1 DUP2 ADD SWAP1 POP PUSH2 0x37F JUMP JUMPDEST POP POP JUMP JUMPDEST PUSH1 0x1F DUP3 GT ISZERO PUSH2 0x3E1 JUMPI PUSH2 0x3B2 DUP2 PUSH2 0x280 JUMP JUMPDEST PUSH2 0x3BB DUP5 PUSH2 0x292 JUMP JUMPDEST DUP2 ADD PUSH1 0x20 DUP6 LT ISZERO PUSH2 0x3CA JUMPI DUP2 SWAP1 POP JUMPDEST PUSH2 0x3DE PUSH2 0x3D6 DUP6 PUSH2 0x292 JUMP JUMPDEST DUP4 ADD DUP3 PUSH2 0x37E JUMP JUMPDEST POP POP JUMPDEST POP POP POP JUMP JUMPDEST PUSH0 DUP3 DUP3 SHR SWAP1 POP SWAP3 SWAP2 POP POP JUMP JUMPDEST PUSH0 PUSH2 0x401 PUSH0 NOT DUP5 PUSH1 0x8 MUL PUSH2 0x3E6 JUMP JUMPDEST NOT DUP1 DUP4 AND SWAP2 POP POP SWAP3 SWAP2 POP POP JUMP JUMPDEST PUSH0 PUSH2 0x419 DUP4 DUP4 PUSH2 0x3F2 JUMP JUMPDEST SWAP2 POP DUP3 PUSH1 0x2 MUL DUP3 OR SWAP1 POP SWAP3 SWAP2 POP POP JUMP JUMPDEST PUSH2 0x432 DUP3 PUSH2 0x1EC JUMP JUMPDEST PUSH8 0xFFFFFFFFFFFFFFFF DUP2 GT ISZERO PUSH2 0x44B JUMPI PUSH2 0x44A PUSH2 0x1F6 JUMP JUMPDEST JUMPDEST PUSH2 0x455 DUP3 SLOAD PUSH2 0x250 JUMP JUMPDEST PUSH2 0x460 DUP3 DUP3 DUP6 PUSH2 0x3A0 JUMP JUMPDEST PUSH0 PUSH1 0x20 SWAP1 POP PUSH1 0x1F DUP4 GT PUSH1 0x1 DUP2 EQ PUSH2 0x491 JUMPI PUSH0 DUP5 ISZERO PUSH2 0x47F JUMPI DUP3 DUP8 ADD MLOAD SWAP1 POP JUMPDEST PUSH2 0x489 DUP6 DUP3 PUSH2 0x40E JUMP JUMPDEST DUP7 SSTORE POP PUSH2 0x4F0 JUMP JUMPDEST PUSH1 0x1F NOT DUP5 AND PUSH2 0x49F DUP7 PUSH2 0x280 JUMP JUMPDEST PUSH0 JUMPDEST DUP3 DUP2 LT ISZERO PUSH2 0x4C6 JUMPI DUP5 DUP10 ADD MLOAD DUP3 SSTORE PUSH1 0x1 DUP3 ADD SWAP2 POP PUSH1 0x20 DUP6 ADD SWAP5 POP PUSH1 0x20 DUP2 ADD SWAP1 POP PUSH2 0x4A1 JUMP JUMPDEST DUP7 DUP4 LT ISZERO PUSH2 0x4E3 JUMPI DUP5 DUP10 ADD MLOAD PUSH2 0x4DF PUSH1 0x1F DUP10 AND DUP3 PUSH2 0x3F2 JUMP JUMPDEST DUP4 SSTORE POP JUMPDEST PUSH1 0x1 PUSH1 0x2 DUP9 MUL ADD DUP9 SSTORE POP POP POP JUMPDEST POP POP POP POP POP POP JUMP JUMPDEST PUSH0 PUSH8 0xFFFFFFFFFFFFFFFF DUP3 AND SWAP1 POP SWAP2 SWAP1 POP JUMP JUMPDEST PUSH2 0x514 DUP2 PUSH2 0x4F8 JUMP JUMPDEST DUP3 MSTORE POP POP JUMP JUMPDEST PUSH0 PUSH1 0x20 DUP3 ADD SWAP1 POP PUSH2 0x52D PUSH0 DUP4 ADD DUP5 PUSH2 0x50B JUMP JUMPDEST SWAP3 SWAP2 POP POP JUMP JUMPDEST PUSH1 0x80 MLOAD PUSH2 0x7F60 PUSH2 0x559 PUSH0 CODECOPY PUSH0 DUP2 DUP2 PUSH2 0x4BB1 ADD MSTORE DUP2 DUP2 PUSH2 0x4C06 ADD MSTORE PUSH2 0x4DE5 ADD MSTORE PUSH2 0x7F60 PUSH0 RETURN INVALID PUSH1 0x80 PUSH1 0x40 MSTORE PUSH1 0x4 CALLDATASIZE LT PUSH2 0x334 JUMPI PUSH0 CALLDATALOAD PUSH1 0xE0 SHR DUP1 PUSH4 0x8456CB59 GT PUSH2 0x1AA JUMPI DUP1 PUSH4 0xB6EF573E GT PUSH2 0xF6 JUMPI DUP1 PUSH4 0xE74B981B GT PUSH2 0x94 JUMPI DUP1 PUSH4 0xF2FDE38B GT PUSH2 0x6E JUMPI DUP1 PUSH4 0xF2FDE38B EQ PUSH2 0xC12 JUMPI DUP1 PUSH4 0xF559EC10 EQ PUSH2 0xC3A JUMPI DUP1 PUSH4 0xF9AFF1E8 EQ PUSH2 0xC62 JUMPI DUP1 PUSH4 0xFD12597F EQ PUSH2 0xC8C JUMPI PUSH2 0x334 JUMP JUMPDEST DUP1 PUSH4 0xE74B981B EQ PUSH2 0xB86 JUMPI DUP1 PUSH4 0xEA7B4F77 EQ PUSH2 0xBAE JUMPI DUP1 PUSH4 0xF165A337 EQ PUSH2 0xBD6 JUMPI PUSH2 0x334 JUMP JUMPDEST DUP1 PUSH4 0xC56370E9 GT PUSH2 0xD0 JUMPI DUP1 PUSH4 0xC56370E9 EQ PUSH2 0xAC7 JUMPI DUP1 PUSH4 0xD547741F EQ PUSH2 0xAEF JUMPI DUP1 PUSH4 0xDE74E57B EQ PUSH2 0xB17 JUMPI DUP1 PUSH4 0xDEF050C5 EQ PUSH2 0xB5C JUMPI PUSH2 0x334 JUMP JUMPDEST DUP1 PUSH4 0xB6EF573E EQ PUSH2 0xA39 JUMPI DUP1 PUSH4 0xB7FF920E EQ PUSH2 0xA61 JUMPI DUP1 PUSH4 0xBE9AD61E EQ PUSH2 0xA9D JUMPI PUSH2 0x334 JUMP JUMPDEST DUP1 PUSH4 0x9E95FE71 GT PUSH2 0x163 JUMPI DUP1 PUSH4 0xAAF10F42 GT PUSH2 0x13D JUMPI DUP1 PUSH4 0xAAF10F42 EQ PUSH2 0x97F JUMPI DUP1 PUSH4 0xAD3CB1CC EQ PUSH2 0x9A9 JUMPI DUP1 PUSH4 0xB106B39D EQ PUSH2 0x9D3 JUMPI DUP1 PUSH4 0xB1E21749 EQ PUSH2 0xA0F JUMPI PUSH2 0x334 JUMP JUMPDEST DUP1 PUSH4 0x9E95FE71 EQ PUSH2 0x8F1 JUMPI DUP1 PUSH4 0xA217FDDF EQ PUSH2 0x92D JUMPI DUP1 PUSH4 0xA92F67AC EQ PUSH2 0x957 JUMPI PUSH2 0x334 JUMP JUMPDEST DUP1 PUSH4 0x8456CB59 EQ PUSH2 0x7E4 JUMPI DUP1 PUSH4 0x8C639A85 EQ PUSH2 0x7FA JUMPI DUP1 PUSH4 0x8DA5CB5B EQ PUSH2 0x824 JUMPI DUP1 PUSH4 0x8DB23F27 EQ PUSH2 0x84E JUMPI DUP1 PUSH4 0x91D14854 EQ PUSH2 0x88B JUMPI DUP1 PUSH4 0x957D90D4 EQ PUSH2 0x8C7 JUMPI PUSH2 0x334 JUMP JUMPDEST DUP1 PUSH4 0x3F4BA83A GT PUSH2 0x284 JUMPI DUP1 PUSH4 0x5471B47A GT PUSH2 0x222 JUMPI DUP1 PUSH4 0x5D504832 GT PUSH2 0x1FC JUMPI DUP1 PUSH4 0x5D504832 EQ PUSH2 0x72C JUMPI DUP1 PUSH4 0x6F7B4352 EQ PUSH2 0x756 JUMPI DUP1 PUSH4 0x731CBEA8 EQ PUSH2 0x792 JUMPI DUP1 PUSH4 0x79BA5097 EQ PUSH2 0x7CE JUMPI PUSH2 0x334 JUMP JUMPDEST DUP1 PUSH4 0x5471B47A EQ PUSH2 0x68A JUMPI DUP1 PUSH4 0x5A3D7263 EQ PUSH2 0x6C6 JUMPI DUP1 PUSH4 0x5C975ABB EQ PUSH2 0x702 JUMPI PUSH2 0x334 JUMP JUMPDEST DUP1 PUSH4 0x4D38BB39 GT PUSH2 0x25E JUMPI DUP1 PUSH4 0x4D38BB39 EQ PUSH2 0x5F4 JUMPI DUP1 PUSH4 0x4F1C0EEB EQ PUSH2 0x61C JUMPI DUP1 PUSH4 0x4F1EF286 EQ PUSH2 0x644 JUMPI DUP1 PUSH4 0x52D1902D EQ PUSH2 0x660 JUMPI PUSH2 0x334 JUMP JUMPDEST DUP1 PUSH4 0x3F4BA83A EQ PUSH2 0x58A JUMPI DUP1 PUSH4 0x46904840 EQ PUSH2 0x5A0 JUMPI DUP1 PUSH4 0x4B0795A8 EQ PUSH2 0x5CA JUMPI PUSH2 0x334 JUMP JUMPDEST DUP1 PUSH4 0x169D5A7D GT PUSH2 0x2F1 JUMPI DUP1 PUSH4 0x305A67A8 GT PUSH2 0x2CB JUMPI DUP1 PUSH4 0x305A67A8 EQ PUSH2 0x4D4 JUMPI DUP1 PUSH4 0x34A9620C EQ PUSH2 0x4FC JUMPI DUP1 PUSH4 0x36568ABE EQ PUSH2 0x538 JUMPI DUP1 PUSH4 0x3944EA3A EQ PUSH2 0x560 JUMPI PUSH2 0x334 JUMP JUMPDEST DUP1 PUSH4 0x169D5A7D EQ PUSH2 0x454 JUMPI DUP1 PUSH4 0x248A9CA3 EQ PUSH2 0x470 JUMPI DUP1 PUSH4 0x2F2FF15D EQ PUSH2 0x4AC JUMPI PUSH2 0x334 JUMP JUMPDEST DUP1 PUSH4 0x1C47C8B EQ PUSH2 0x338 JUMPI DUP1 PUSH4 0x1FFC9A7 EQ PUSH2 0x362 JUMPI DUP1 PUSH4 0x9C1BA2E EQ PUSH2 0x39E JUMPI DUP1 PUSH4 0xCA76175 EQ PUSH2 0x3C8 JUMPI DUP1 PUSH4 0x107A274A EQ PUSH2 0x3F0 JUMPI DUP1 PUSH4 0x12E8E2C3 EQ PUSH2 0x42C JUMPI JUMPDEST PUSH0 PUSH0 REVERT JUMPDEST CALLVALUE DUP1 ISZERO PUSH2 0x343 JUMPI PUSH0 PUSH0 REVERT JUMPDEST POP PUSH2 0x34C PUSH2 0xCC8 JUMP JUMPDEST PUSH1 0x40 MLOAD PUSH2 0x359 SWAP2 SWAP1 PUSH2 0x5FDB JUMP JUMPDEST PUSH1 0x40 MLOAD DUP1 SWAP2 SUB SWAP1 RETURN JUMPDEST CALLVALUE DUP1 ISZERO PUSH2 0x36D JUMPI PUSH0 PUSH0 REVERT JUMPDEST POP PUSH2 0x388 PUSH1 0x4 DUP1 CALLDATASIZE SUB DUP2 ADD SWAP1 PUSH2 0x383 SWAP2 SWAP1 PUSH2 0x605A JUMP JUMPDEST PUSH2 0xCDA JUMP JUMPDEST PUSH1 0x40 MLOAD PUSH2 0x395 SWAP2 SWAP1 PUSH2 0x5FDB JUMP JUMPDEST PUSH1 0x40 MLOAD DUP1 SWAP2 SUB SWAP1 RETURN JUMPDEST CALLVALUE DUP1 ISZERO PUSH2 0x3A9 JUMPI PUSH0 PUSH0 REVERT JUMPDEST POP PUSH2 0x3B2 PUSH2 0xD53 JUMP JUMPDEST PUSH1 0x40 MLOAD PUSH2 0x3BF SWAP2 SWAP1 PUSH2 0x60A7 JUMP JUMPDEST PUSH1 0x40 MLOAD DUP1 SWAP2 SUB SWAP1 RETURN JUMPDEST CALLVALUE DUP1 ISZERO PUSH2 0x3D3 JUMPI PUSH0 PUSH0 REVERT JUMPDEST POP PUSH2 0x3EE PUSH1 0x4 DUP1 CALLDATASIZE SUB DUP2 ADD SWAP1 PUSH2 0x3E9 SWAP2 SWAP1 PUSH2 0x622F JUMP JUMPDEST PUSH2 0xD6C JUMP JUMPDEST STOP JUMPDEST CALLVALUE DUP1 ISZERO PUSH2 0x3FB JUMPI PUSH0 PUSH0 REVERT JUMPDEST POP PUSH2 0x416 PUSH1 0x4 DUP1 CALLDATASIZE SUB DUP2 ADD SWAP1 PUSH2 0x411 SWAP2 SWAP1 PUSH2 0x62EA JUMP JUMPDEST PUSH2 0xE2F JUMP JUMPDEST PUSH1 0x40 MLOAD PUSH2 0x423 SWAP2 SWAP1 PUSH2 0x64A9 JUMP JUMPDEST PUSH1 0x40 MLOAD DUP1 SWAP2 SUB SWAP1 RETURN JUMPDEST CALLVALUE DUP1 ISZERO PUSH2 0x437 JUMPI PUSH0 PUSH0 REVERT JUMPDEST POP PUSH2 0x452 PUSH1 0x4 DUP1 CALLDATASIZE SUB DUP2 ADD SWAP1 PUSH2 0x44D SWAP2 SWAP1 PUSH2 0x62EA JUMP JUMPDEST PUSH2 0xFFA JUMP JUMPDEST STOP JUMPDEST PUSH2 0x46E PUSH1 0x4 DUP1 CALLDATASIZE SUB DUP2 ADD SWAP1 PUSH2 0x469 SWAP2 SWAP1 PUSH2 0x62EA JUMP JUMPDEST PUSH2 0x10A4 JUMP JUMPDEST STOP JUMPDEST CALLVALUE DUP1 ISZERO PUSH2 0x47B JUMPI PUSH0 PUSH0 REVERT JUMPDEST POP PUSH2 0x496 PUSH1 0x4 DUP1 CALLDATASIZE SUB DUP2 ADD SWAP1 PUSH2 0x491 SWAP2 SWAP1 PUSH2 0x64C9 JUMP JUMPDEST PUSH2 0x1846 JUMP JUMPDEST PUSH1 0x40 MLOAD PUSH2 0x4A3 SWAP2 SWAP1 PUSH2 0x6503 JUMP JUMPDEST PUSH1 0x40 MLOAD DUP1 SWAP2 SUB SWAP1 RETURN JUMPDEST CALLVALUE DUP1 ISZERO PUSH2 0x4B7 JUMPI PUSH0 PUSH0 REVERT JUMPDEST POP PUSH2 0x4D2 PUSH1 0x4 DUP1 CALLDATASIZE SUB DUP2 ADD SWAP1 PUSH2 0x4CD SWAP2 SWAP1 PUSH2 0x6546 JUMP JUMPDEST PUSH2 0x1870 JUMP JUMPDEST STOP JUMPDEST CALLVALUE DUP1 ISZERO PUSH2 0x4DF JUMPI PUSH0 PUSH0 REVERT JUMPDEST POP PUSH2 0x4FA PUSH1 0x4 DUP1 CALLDATASIZE SUB DUP2 ADD SWAP1 PUSH2 0x4F5 SWAP2 SWAP1 PUSH2 0x62EA JUMP JUMPDEST PUSH2 0x1892 JUMP JUMPDEST STOP JUMPDEST CALLVALUE DUP1 ISZERO PUSH2 0x507 JUMPI PUSH0 PUSH0 REVERT JUMPDEST POP PUSH2 0x522 PUSH1 0x4 DUP1 CALLDATASIZE SUB DUP2 ADD SWAP1 PUSH2 0x51D SWAP2 SWAP1 PUSH2 0x660B JUMP JUMPDEST PUSH2 0x1B43 JUMP JUMPDEST PUSH1 0x40 MLOAD PUSH2 0x52F SWAP2 SWAP1 PUSH2 0x6503 JUMP JUMPDEST PUSH1 0x40 MLOAD DUP1 SWAP2 SUB SWAP1 RETURN JUMPDEST CALLVALUE DUP1 ISZERO PUSH2 0x543 JUMPI PUSH0 PUSH0 REVERT JUMPDEST POP PUSH2 0x55E PUSH1 0x4 DUP1 CALLDATASIZE SUB DUP2 ADD SWAP1 PUSH2 0x559 SWAP2 SWAP1 PUSH2 0x6546 JUMP JUMPDEST PUSH2 0x1D5E JUMP JUMPDEST STOP JUMPDEST CALLVALUE DUP1 ISZERO PUSH2 0x56B JUMPI PUSH0 PUSH0 REVERT JUMPDEST POP PUSH2 0x574 PUSH2 0x1DD9 JUMP JUMPDEST PUSH1 0x40 MLOAD PUSH2 0x581 SWAP2 SWAP1 PUSH2 0x66BA JUMP JUMPDEST PUSH1 0x40 MLOAD DUP1 SWAP2 SUB SWAP1 RETURN JUMPDEST CALLVALUE DUP1 ISZERO PUSH2 0x595 JUMPI PUSH0 PUSH0 REVERT JUMPDEST POP PUSH2 0x59E PUSH2 0x1E65 JUMP JUMPDEST STOP JUMPDEST CALLVALUE DUP1 ISZERO PUSH2 0x5AB JUMPI PUSH0 PUSH0 REVERT JUMPDEST POP PUSH2 0x5B4 PUSH2 0x1E9C JUMP JUMPDEST PUSH1 0x40 MLOAD PUSH2 0x5C1 SWAP2 SWAP1 PUSH2 0x66E9 JUMP JUMPDEST PUSH1 0x40 MLOAD DUP1 SWAP2 SUB SWAP1 RETURN JUMPDEST CALLVALUE DUP1 ISZERO PUSH2 0x5D5 JUMPI PUSH0 PUSH0 REVERT JUMPDEST POP PUSH2 0x5DE PUSH2 0x1EC1 JUMP JUMPDEST PUSH1 0x40 MLOAD PUSH2 0x5EB SWAP2 SWAP1 PUSH2 0x66BA JUMP JUMPDEST PUSH1 0x40 MLOAD DUP1 SWAP2 SUB SWAP1 RETURN JUMPDEST CALLVALUE DUP1 ISZERO PUSH2 0x5FF JUMPI PUSH0 PUSH0 REVERT JUMPDEST POP PUSH2 0x61A PUSH1 0x4 DUP1 CALLDATASIZE SUB DUP2 ADD SWAP1 PUSH2 0x615 SWAP2 SWAP1 PUSH2 0x6702 JUMP JUMPDEST PUSH2 0x1F4D JUMP JUMPDEST STOP JUMPDEST CALLVALUE DUP1 ISZERO PUSH2 0x627 JUMPI PUSH0 PUSH0 REVERT JUMPDEST POP PUSH2 0x642 PUSH1 0x4 DUP1 CALLDATASIZE SUB DUP2 ADD SWAP1 PUSH2 0x63D SWAP2 SWAP1 PUSH2 0x67BB JUMP JUMPDEST PUSH2 0x2949 JUMP JUMPDEST STOP JUMPDEST PUSH2 0x65E PUSH1 0x4 DUP1 CALLDATASIZE SUB DUP2 ADD SWAP1 PUSH2 0x659 SWAP2 SWAP1 PUSH2 0x6818 JUMP JUMPDEST PUSH2 0x29FD JUMP JUMPDEST STOP JUMPDEST CALLVALUE DUP1 ISZERO PUSH2 0x66B JUMPI PUSH0 PUSH0 REVERT JUMPDEST POP PUSH2 0x674 PUSH2 0x2A1C JUMP JUMPDEST PUSH1 0x40 MLOAD PUSH2 0x681 SWAP2 SWAP1 PUSH2 0x6503 JUMP JUMPDEST PUSH1 0x40 MLOAD DUP1 SWAP2 SUB SWAP1 RETURN JUMPDEST CALLVALUE DUP1 ISZERO PUSH2 0x695 JUMPI PUSH0 PUSH0 REVERT JUMPDEST POP PUSH2 0x6B0 PUSH1 0x4 DUP1 CALLDATASIZE SUB DUP2 ADD SWAP1 PUSH2 0x6AB SWAP2 SWAP1 PUSH2 0x6872 JUMP JUMPDEST PUSH2 0x2A4D JUMP JUMPDEST PUSH1 0x40 MLOAD PUSH2 0x6BD SWAP2 SWAP1 PUSH2 0x5FDB JUMP JUMPDEST PUSH1 0x40 MLOAD DUP1 SWAP2 SUB SWAP1 RETURN JUMPDEST CALLVALUE DUP1 ISZERO PUSH2 0x6D1 JUMPI PUSH0 PUSH0 REVERT JUMPDEST POP PUSH2 0x6EC PUSH1 0x4 DUP1 CALLDATASIZE SUB DUP2 ADD SWAP1 PUSH2 0x6E7 SWAP2 SWAP1 PUSH2 0x68B0 JUMP JUMPDEST PUSH2 0x2C8D JUMP JUMPDEST PUSH1 0x40 MLOAD PUSH2 0x6F9 SWAP2 SWAP1 PUSH2 0x5FDB JUMP JUMPDEST PUSH1 0x40 MLOAD DUP1 SWAP2 SUB SWAP1 RETURN JUMPDEST CALLVALUE DUP1 ISZERO PUSH2 0x70D JUMPI PUSH0 PUSH0 REVERT JUMPDEST POP PUSH2 0x716 PUSH2 0x2CC3 JUMP JUMPDEST PUSH1 0x40 MLOAD PUSH2 0x723 SWAP2 SWAP1 PUSH2 0x5FDB JUMP JUMPDEST PUSH1 0x40 MLOAD DUP1 SWAP2 SUB SWAP1 RETURN JUMPDEST CALLVALUE DUP1 ISZERO PUSH2 0x737 JUMPI PUSH0 PUSH0 REVERT JUMPDEST POP PUSH2 0x740 PUSH2 0x2CE5 JUMP JUMPDEST PUSH1 0x40 MLOAD PUSH2 0x74D SWAP2 SWAP1 PUSH2 0x690A JUMP JUMPDEST PUSH1 0x40 MLOAD DUP1 SWAP2 SUB SWAP1 RETURN JUMPDEST CALLVALUE DUP1 ISZERO PUSH2 0x761 JUMPI PUSH0 PUSH0 REVERT JUMPDEST POP PUSH2 0x77C PUSH1 0x4 DUP1 CALLDATASIZE SUB DUP2 ADD SWAP1 PUSH2 0x777 SWAP2 SWAP1 PUSH2 0x6872 JUMP JUMPDEST PUSH2 0x2CEB JUMP JUMPDEST PUSH1 0x40 MLOAD PUSH2 0x789 SWAP2 SWAP1 PUSH2 0x690A JUMP JUMPDEST PUSH1 0x40 MLOAD DUP1 SWAP2 SUB SWAP1 RETURN JUMPDEST CALLVALUE DUP1 ISZERO PUSH2 0x79D JUMPI PUSH0 PUSH0 REVERT JUMPDEST POP PUSH2 0x7B8 PUSH1 0x4 DUP1 CALLDATASIZE SUB DUP2 ADD SWAP1 PUSH2 0x7B3 SWAP2 SWAP1 PUSH2 0x6978 JUMP JUMPDEST PUSH2 0x2D0B JUMP JUMPDEST PUSH1 0x40 MLOAD PUSH2 0x7C5 SWAP2 SWAP1 PUSH2 0x6503 JUMP JUMPDEST PUSH1 0x40 MLOAD DUP1 SWAP2 SUB SWAP1 RETURN JUMPDEST CALLVALUE DUP1 ISZERO PUSH2 0x7D9 JUMPI PUSH0 PUSH0 REVERT JUMPDEST POP PUSH2 0x7E2 PUSH2 0x2E2E JUMP JUMPDEST STOP JUMPDEST CALLVALUE DUP1 ISZERO PUSH2 0x7EF JUMPI PUSH0 PUSH0 REVERT JUMPDEST POP PUSH2 0x7F8 PUSH2 0x2FBD JUMP JUMPDEST STOP JUMPDEST CALLVALUE DUP1 ISZERO PUSH2 0x805 JUMPI PUSH0 PUSH0 REVERT JUMPDEST POP PUSH2 0x80E PUSH2 0x2FF4 JUMP JUMPDEST PUSH1 0x40 MLOAD PUSH2 0x81B SWAP2 SWAP1 PUSH2 0x690A JUMP JUMPDEST PUSH1 0x40 MLOAD DUP1 SWAP2 SUB SWAP1 RETURN JUMPDEST CALLVALUE DUP1 ISZERO PUSH2 0x82F JUMPI PUSH0 PUSH0 REVERT JUMPDEST POP PUSH2 0x838 PUSH2 0x2FFA JUMP JUMPDEST PUSH1 0x40 MLOAD PUSH2 0x845 SWAP2 SWAP1 PUSH2 0x66E9 JUMP JUMPDEST PUSH1 0x40 MLOAD DUP1 SWAP2 SUB SWAP1 RETURN JUMPDEST CALLVALUE DUP1 ISZERO PUSH2 0x859 JUMPI PUSH0 PUSH0 REVERT JUMPDEST POP PUSH2 0x874 PUSH1 0x4 DUP1 CALLDATASIZE SUB DUP2 ADD SWAP1 PUSH2 0x86F SWAP2 SWAP1 PUSH2 0x62EA JUMP JUMPDEST PUSH2 0x3021 JUMP JUMPDEST PUSH1 0x40 MLOAD PUSH2 0x882 SWAP3 SWAP2 SWAP1 PUSH2 0x6A90 JUMP JUMPDEST PUSH1 0x40 MLOAD DUP1 SWAP2 SUB SWAP1 RETURN JUMPDEST CALLVALUE DUP1 ISZERO PUSH2 0x896 JUMPI PUSH0 PUSH0 REVERT JUMPDEST POP PUSH2 0x8B1 PUSH1 0x4 DUP1 CALLDATASIZE SUB DUP2 ADD SWAP1 PUSH2 0x8AC SWAP2 SWAP1 PUSH2 0x6546 JUMP JUMPDEST PUSH2 0x3228 JUMP JUMPDEST PUSH1 0x40 MLOAD PUSH2 0x8BE SWAP2 SWAP1 PUSH2 0x5FDB JUMP JUMPDEST PUSH1 0x40 MLOAD DUP1 SWAP2 SUB SWAP1 RETURN JUMPDEST CALLVALUE DUP1 ISZERO PUSH2 0x8D2 JUMPI PUSH0 PUSH0 REVERT JUMPDEST POP PUSH2 0x8DB PUSH2 0x3299 JUMP JUMPDEST PUSH1 0x40 MLOAD PUSH2 0x8E8 SWAP2 SWAP1 PUSH2 0x690A JUMP JUMPDEST PUSH1 0x40 MLOAD DUP1 SWAP2 SUB SWAP1 RETURN JUMPDEST CALLVALUE DUP1 ISZERO PUSH2 0x8FC JUMPI PUSH0 PUSH0 REVERT JUMPDEST POP PUSH2 0x917 PUSH1 0x4 DUP1 CALLDATASIZE SUB DUP2 ADD SWAP1 PUSH2 0x912 SWAP2 SWAP1 PUSH2 0x6B5C JUMP JUMPDEST PUSH2 0x329F JUMP JUMPDEST PUSH1 0x40 MLOAD PUSH2 0x924 SWAP2 SWAP1 PUSH2 0x6BA3 JUMP JUMPDEST PUSH1 0x40 MLOAD DUP1 SWAP2 SUB SWAP1 RETURN JUMPDEST CALLVALUE DUP1 ISZERO PUSH2 0x938 JUMPI PUSH0 PUSH0 REVERT JUMPDEST POP PUSH2 0x941 PUSH2 0x32D4 JUMP JUMPDEST PUSH1 0x40 MLOAD PUSH2 0x94E SWAP2 SWAP1 PUSH2 0x6503 JUMP JUMPDEST PUSH1 0x40 MLOAD DUP1 SWAP2 SUB SWAP1 RETURN JUMPDEST CALLVALUE DUP1 ISZERO PUSH2 0x962 JUMPI PUSH0 PUSH0 REVERT JUMPDEST POP PUSH2 0x97D PUSH1 0x4 DUP1 CALLDATASIZE SUB DUP2 ADD SWAP1 PUSH2 0x978 SWAP2 SWAP1 PUSH2 0x6BBC JUMP JUMPDEST PUSH2 0x32DA JUMP JUMPDEST STOP JUMPDEST CALLVALUE DUP1 ISZERO PUSH2 0x98A JUMPI PUSH0 PUSH0 REVERT JUMPDEST POP PUSH2 0x993 PUSH2 0x35E4 JUMP JUMPDEST PUSH1 0x40 MLOAD PUSH2 0x9A0 SWAP2 SWAP1 PUSH2 0x66E9 JUMP JUMPDEST PUSH1 0x40 MLOAD DUP1 SWAP2 SUB SWAP1 RETURN JUMPDEST CALLVALUE DUP1 ISZERO PUSH2 0x9B4 JUMPI PUSH0 PUSH0 REVERT JUMPDEST POP PUSH2 0x9BD PUSH2 0x35F2 JUMP JUMPDEST PUSH1 0x40 MLOAD PUSH2 0x9CA SWAP2 SWAP1 PUSH2 0x6C45 JUMP JUMPDEST PUSH1 0x40 MLOAD DUP1 SWAP2 SUB SWAP1 RETURN JUMPDEST CALLVALUE DUP1 ISZERO PUSH2 0x9DE JUMPI PUSH0 PUSH0 REVERT JUMPDEST POP PUSH2 0x9F9 PUSH1 0x4 DUP1 CALLDATASIZE SUB DUP2 ADD SWAP1 PUSH2 0x9F4 SWAP2 SWAP1 PUSH2 0x6B5C JUMP JUMPDEST PUSH2 0x362B JUMP JUMPDEST PUSH1 0x40 MLOAD PUSH2 0xA06 SWAP2 SWAP1 PUSH2 0x5FDB JUMP JUMPDEST PUSH1 0x40 MLOAD DUP1 SWAP2 SUB SWAP1 RETURN JUMPDEST CALLVALUE DUP1 ISZERO PUSH2 0xA1A JUMPI PUSH0 PUSH0 REVERT JUMPDEST POP PUSH2 0xA23 PUSH2 0x3660 JUMP JUMPDEST PUSH1 0x40 MLOAD PUSH2 0xA30 SWAP2 SWAP1 PUSH2 0x6503 JUMP JUMPDEST PUSH1 0x40 MLOAD DUP1 SWAP2 SUB SWAP1 RETURN JUMPDEST CALLVALUE DUP1 ISZERO PUSH2 0xA44 JUMPI PUSH0 PUSH0 REVERT JUMPDEST POP PUSH2 0xA5F PUSH1 0x4 DUP1 CALLDATASIZE SUB DUP2 ADD SWAP1 PUSH2 0xA5A SWAP2 SWAP1 PUSH2 0x6C65 JUMP JUMPDEST PUSH2 0x3666 JUMP JUMPDEST STOP JUMPDEST CALLVALUE DUP1 ISZERO PUSH2 0xA6C JUMPI PUSH0 PUSH0 REVERT JUMPDEST POP PUSH2 0xA87 PUSH1 0x4 DUP1 CALLDATASIZE SUB DUP2 ADD SWAP1 PUSH2 0xA82 SWAP2 SWAP1 PUSH2 0x6CA3 JUMP JUMPDEST PUSH2 0x36EA JUMP JUMPDEST PUSH1 0x40 MLOAD PUSH2 0xA94 SWAP2 SWAP1 PUSH2 0x5FDB JUMP JUMPDEST PUSH1 0x40 MLOAD DUP1 SWAP2 SUB SWAP1 RETURN JUMPDEST CALLVALUE DUP1 ISZERO PUSH2 0xAA8 JUMPI PUSH0 PUSH0 REVERT JUMPDEST POP PUSH2 0xAB1 PUSH2 0x3707 JUMP JUMPDEST PUSH1 0x40 MLOAD PUSH2 0xABE SWAP2 SWAP1 PUSH2 0x690A JUMP JUMPDEST PUSH1 0x40 MLOAD DUP1 SWAP2 SUB SWAP1 RETURN JUMPDEST CALLVALUE DUP1 ISZERO PUSH2 0xAD2 JUMPI PUSH0 PUSH0 REVERT JUMPDEST POP PUSH2 0xAED PUSH1 0x4 DUP1 CALLDATASIZE SUB DUP2 ADD SWAP1 PUSH2 0xAE8 SWAP2 SWAP1 PUSH2 0x62EA JUMP JUMPDEST PUSH2 0x3717 JUMP JUMPDEST STOP JUMPDEST CALLVALUE DUP1 ISZERO PUSH2 0xAFA JUMPI PUSH0 PUSH0 REVERT JUMPDEST POP PUSH2 0xB15 PUSH1 0x4 DUP1 CALLDATASIZE SUB DUP2 ADD SWAP1 PUSH2 0xB10 SWAP2 SWAP1 PUSH2 0x6546 JUMP JUMPDEST PUSH2 0x3931 JUMP JUMPDEST STOP JUMPDEST CALLVALUE DUP1 ISZERO PUSH2 0xB22 JUMPI PUSH0 PUSH0 REVERT JUMPDEST POP PUSH2 0xB3D PUSH1 0x4 DUP1 CALLDATASIZE SUB DUP2 ADD SWAP1 PUSH2 0xB38 SWAP2 SWAP1 PUSH2 0x62EA JUMP JUMPDEST PUSH2 0x3953 JUMP JUMPDEST PUSH1 0x40 MLOAD PUSH2 0xB53 SWAP11 SWAP10 SWAP9 SWAP8 SWAP7 SWAP6 SWAP5 SWAP4 SWAP3 SWAP2 SWAP1 PUSH2 0x6CCE JUMP JUMPDEST PUSH1 0x40 MLOAD DUP1 SWAP2 SUB SWAP1 RETURN JUMPDEST CALLVALUE DUP1 ISZERO PUSH2 0xB67 JUMPI PUSH0 PUSH0 REVERT JUMPDEST POP PUSH2 0xB70 PUSH2 0x3A7F JUMP JUMPDEST PUSH1 0x40 MLOAD PUSH2 0xB7D SWAP2 SWAP1 PUSH2 0x690A JUMP JUMPDEST PUSH1 0x40 MLOAD DUP1 SWAP2 SUB SWAP1 RETURN JUMPDEST CALLVALUE DUP1 ISZERO PUSH2 0xB91 JUMPI PUSH0 PUSH0 REVERT JUMPDEST POP PUSH2 0xBAC PUSH1 0x4 DUP1 CALLDATASIZE SUB DUP2 ADD SWAP1 PUSH2 0xBA7 SWAP2 SWAP1 PUSH2 0x6CA3 JUMP JUMPDEST PUSH2 0x3A85 JUMP JUMPDEST STOP JUMPDEST CALLVALUE DUP1 ISZERO PUSH2 0xBB9 JUMPI PUSH0 PUSH0 REVERT JUMPDEST POP PUSH2 0xBD4 PUSH1 0x4 DUP1 CALLDATASIZE SUB DUP2 ADD SWAP1 PUSH2 0xBCF SWAP2 SWAP1 PUSH2 0x6D6F JUMP JUMPDEST PUSH2 0x3B91 JUMP JUMPDEST STOP JUMPDEST CALLVALUE DUP1 ISZERO PUSH2 0xBE1 JUMPI PUSH0 PUSH0 REVERT JUMPDEST POP PUSH2 0xBFC PUSH1 0x4 DUP1 CALLDATASIZE SUB DUP2 ADD SWAP1 PUSH2 0xBF7 SWAP2 SWAP1 PUSH2 0x64C9 JUMP JUMPDEST PUSH2 0x3BE9 JUMP JUMPDEST PUSH1 0x40 MLOAD PUSH2 0xC09 SWAP2 SWAP1 PUSH2 0x690A JUMP JUMPDEST PUSH1 0x40 MLOAD DUP1 SWAP2 SUB SWAP1 RETURN JUMPDEST CALLVALUE DUP1 ISZERO PUSH2 0xC1D JUMPI PUSH0 PUSH0 REVERT JUMPDEST POP PUSH2 0xC38 PUSH1 0x4 DUP1 CALLDATASIZE SUB DUP2 ADD SWAP1 PUSH2 0xC33 SWAP2 SWAP1 PUSH2 0x6CA3 JUMP JUMPDEST PUSH2 0x3BFE JUMP JUMPDEST STOP JUMPDEST CALLVALUE DUP1 ISZERO PUSH2 0xC45 JUMPI PUSH0 PUSH0 REVERT JUMPDEST POP PUSH2 0xC60 PUSH1 0x4 DUP1 CALLDATASIZE SUB DUP2 ADD SWAP1 PUSH2 0xC5B SWAP2 SWAP1 PUSH2 0x6DC4 JUMP JUMPDEST PUSH2 0x3C12 JUMP JUMPDEST STOP JUMPDEST CALLVALUE DUP1 ISZERO PUSH2 0xC6D JUMPI PUSH0 PUSH0 REVERT JUMPDEST POP PUSH2 0xC76 PUSH2 0x3CD0 JUMP JUMPDEST PUSH1 0x40 MLOAD PUSH2 0xC83 SWAP2 SWAP1 PUSH2 0x6C45 JUMP JUMPDEST PUSH1 0x40 MLOAD DUP1 SWAP2 SUB SWAP1 RETURN JUMPDEST CALLVALUE DUP1 ISZERO PUSH2 0xC97 JUMPI PUSH0 PUSH0 REVERT JUMPDEST POP PUSH2 0xCB2 PUSH1 0x4 DUP1 CALLDATASIZE SUB DUP2 ADD SWAP1 PUSH2 0xCAD SWAP2 SWAP1 PUSH2 0x62EA JUMP JUMPDEST PUSH2 0x3D5C JUMP JUMPDEST PUSH1 0x40 MLOAD PUSH2 0xCBF SWAP2 SWAP1 PUSH2 0x6C45 JUMP JUMPDEST PUSH1 0x40 MLOAD DUP1 SWAP2 SUB SWAP1 RETURN JUMPDEST PUSH1 0x9 PUSH0 SWAP1 SLOAD SWAP1 PUSH2 0x100 EXP SWAP1 DIV PUSH1 0xFF AND DUP2 JUMP JUMPDEST PUSH0 PUSH32 0x7965DB0B00000000000000000000000000000000000000000000000000000000 PUSH28 0xFFFFFFFFFFFFFFFFFFFFFFFFFFFFFFFFFFFFFFFFFFFFFFFFFFFFFFFF NOT AND DUP3 PUSH28 0xFFFFFFFFFFFFFFFFFFFFFFFFFFFFFFFFFFFFFFFFFFFFFFFFFFFFFFFF NOT AND EQ DUP1 PUSH2 0xD4C JUMPI POP PUSH2 0xD4B DUP3 PUSH2 0x3DF7 JUMP JUMPDEST JUMPDEST SWAP1 POP SWAP2 SWAP1 POP JUMP JUMPDEST PUSH1 0x12 PUSH0 SWAP1 SLOAD SWAP1 PUSH2 0x100 EXP SWAP1 DIV PUSH8 0xFFFFFFFFFFFFFFFF AND DUP2 JUMP JUMPDEST PUSH1 0x2 PUSH0 SWAP1 SLOAD SWAP1 PUSH2 0x100 EXP SWAP1 DIV PUSH20 0xFFFFFFFFFFFFFFFFFFFFFFFFFFFFFFFFFFFFFFFF AND PUSH20 0xFFFFFFFFFFFFFFFFFFFFFFFFFFFFFFFFFFFFFFFF AND CALLER PUSH20 0xFFFFFFFFFFFFFFFFFFFFFFFFFFFFFFFFFFFFFFFF AND EQ PUSH2 0xDF2 JUMPI PUSH1 0x40 MLOAD PUSH32 0xC6829F8300000000000000000000000000000000000000000000000000000000 DUP2 MSTORE PUSH1 0x4 ADD PUSH1 0x40 MLOAD DUP1 SWAP2 SUB SWAP1 REVERT JUMPDEST PUSH2 0xDFD DUP4 DUP4 DUP4 PUSH2 0x3E60 JUMP JUMPDEST DUP3 PUSH32 0x85E1543BF2F84FE80C6BADBCE3648C8539AD1DF4D2B3D822938CA0538BE727E6 PUSH1 0x40 MLOAD PUSH1 0x40 MLOAD DUP1 SWAP2 SUB SWAP1 LOG2 POP POP POP JUMP JUMPDEST PUSH2 0xE37 PUSH2 0x5EA0 JUMP JUMPDEST PUSH1 0x13 PUSH0 DUP4 DUP2 MSTORE PUSH1 0x20 ADD SWAP1 DUP2 MSTORE PUSH1 0x20 ADD PUSH0 KECCAK256 PUSH1 0x40 MLOAD DUP1 PUSH2 0x140 ADD PUSH1 0x40 MSTORE SWAP1 DUP2 PUSH0 DUP3 ADD SLOAD DUP2 MSTORE PUSH1 0x20 ADD PUSH1 0x1 DUP3 ADD PUSH0 SWAP1 SLOAD SWAP1 PUSH2 0x100 EXP SWAP1 DIV PUSH20 0xFFFFFFFFFFFFFFFFFFFFFFFFFFFFFFFFFFFFFFFF AND PUSH20 0xFFFFFFFFFFFFFFFFFFFFFFFFFFFFFFFFFFFFFFFF AND PUSH20 0xFFFFFFFFFFFFFFFFFFFFFFFFFFFFFFFFFFFFFFFF AND DUP2 MSTORE PUSH1 0x20 ADD PUSH1 0x2 DUP3 ADD SLOAD DUP2 MSTORE PUSH1 0x20 ADD PUSH1 0x3 DUP3 ADD PUSH0 SWAP1 SLOAD SWAP1 PUSH2 0x100 EXP SWAP1 DIV PUSH20 0xFFFFFFFFFFFFFFFFFFFFFFFFFFFFFFFFFFFFFFFF AND PUSH20 0xFFFFFFFFFFFFFFFFFFFFFFFFFFFFFFFFFFFFFFFF AND PUSH20 0xFFFFFFFFFFFFFFFFFFFFFFFFFFFFFFFFFFFFFFFF AND DUP2 MSTORE PUSH1 0x20 ADD PUSH1 0x4 DUP3 ADD SLOAD DUP2 MSTORE PUSH1 0x20 ADD PUSH1 0x5 DUP3 ADD SLOAD DUP2 MSTORE PUSH1 0x20 ADD PUSH1 0x6 DUP3 ADD SLOAD DUP2 MSTORE PUSH1 0x20 ADD PUSH1 0x7 DUP3 ADD PUSH0 SWAP1 SLOAD SWAP1 PUSH2 0x100 EXP SWAP1 DIV PUSH1 0xFF AND ISZERO ISZERO ISZERO ISZERO DUP2 MSTORE PUSH1 0x20 ADD PUSH1 0x8 DUP3 ADD DUP1 SLOAD PUSH2 0xF59 SWAP1 PUSH2 0x6E2F JUMP JUMPDEST DUP1 PUSH1 0x1F ADD PUSH1 0x20 DUP1 SWAP2 DIV MUL PUSH1 0x20 ADD PUSH1 0x40 MLOAD SWAP1 DUP2 ADD PUSH1 0x40 MSTORE DUP1 SWAP3 SWAP2 SWAP1 DUP2 DUP2 MSTORE PUSH1 0x20 ADD DUP3 DUP1 SLOAD PUSH2 0xF85 SWAP1 PUSH2 0x6E2F JUMP JUMPDEST DUP1 ISZERO PUSH2 0xFD0 JUMPI DUP1 PUSH1 0x1F LT PUSH2 0xFA7 JUMPI PUSH2 0x100 DUP1 DUP4 SLOAD DIV MUL DUP4 MSTORE SWAP2 PUSH1 0x20 ADD SWAP2 PUSH2 0xFD0 JUMP JUMPDEST DUP3 ADD SWAP2 SWAP1 PUSH0 MSTORE PUSH1 0x20 PUSH0 KECCAK256 SWAP1 JUMPDEST DUP2 SLOAD DUP2 MSTORE SWAP1 PUSH1 0x1 ADD SWAP1 PUSH1 0x20 ADD DUP1 DUP4 GT PUSH2 0xFB3 JUMPI DUP3 SWAP1 SUB PUSH1 0x1F AND DUP3 ADD SWAP2 JUMPDEST POP POP POP POP POP DUP2 MSTORE PUSH1 0x20 ADD PUSH1 0x9 DUP3 ADD PUSH0 SWAP1 SLOAD SWAP1 PUSH2 0x100 EXP SWAP1 DIV PUSH1 0xFF AND ISZERO ISZERO ISZERO ISZERO DUP2 MSTORE POP POP SWAP1 POP SWAP2 SWAP1 POP JUMP JUMPDEST PUSH32 0xAF290D8680820AAD922855F39B306097B20E28774D6C1AD35A20325630C3A02C PUSH0 SHL PUSH2 0x1026 DUP2 PUSH2 0x4271 JUMP JUMPDEST PUSH2 0x3E8 DUP3 GT ISZERO PUSH2 0x1062 JUMPI PUSH1 0x40 MLOAD PUSH32 0x8A81D3B300000000000000000000000000000000000000000000000000000000 DUP2 MSTORE PUSH1 0x4 ADD PUSH1 0x40 MLOAD DUP1 SWAP2 SUB SWAP1 REVERT JUMPDEST DUP2 PUSH1 0xE DUP2 SWAP1 SSTORE POP PUSH32 0x45610D581145924DD7090A5017E5F2B1D6F42213BB2E95707FF86846BBFCB1CA DUP3 PUSH1 0x40 MLOAD PUSH2 0x1098 SWAP2 SWAP1 PUSH2 0x690A JUMP JUMPDEST PUSH1 0x40 MLOAD DUP1 SWAP2 SUB SWAP1 LOG1 POP POP JUMP JUMPDEST PUSH2 0x10AC PUSH2 0x4285 JUMP JUMPDEST PUSH2 0x10B4 PUSH2 0x42C6 JUMP JUMPDEST DUP1 PUSH0 PUSH1 0x13 PUSH0 DUP4 DUP2 MSTORE PUSH1 0x20 ADD SWAP1 DUP2 MSTORE PUSH1 0x20 ADD PUSH0 KECCAK256 PUSH0 ADD SLOAD SUB PUSH2 0x1101 JUMPI PUSH1 0x40 MLOAD PUSH32 0x7E43E63800000000000000000000000000000000000000000000000000000000 DUP2 MSTORE PUSH1 0x4 ADD PUSH1 0x40 MLOAD DUP1 SWAP2 SUB SWAP1 REVERT JUMPDEST PUSH1 0x13 PUSH0 DUP3 DUP2 MSTORE PUSH1 0x20 ADD SWAP1 DUP2 MSTORE PUSH1 0x20 ADD PUSH0 KECCAK256 PUSH1 0x7 ADD PUSH0 SWAP1 SLOAD SWAP1 PUSH2 0x100 EXP SWAP1 DIV PUSH1 0xFF AND PUSH2 0x1158 JUMPI PUSH1 0x40 MLOAD PUSH32 0x66CB03E900000000000000000000000000000000000000000000000000000000 DUP2 MSTORE PUSH1 0x4 ADD PUSH1 0x40 MLOAD DUP1 SWAP2 SUB SWAP1 REVERT JUMPDEST PUSH1 0x13 PUSH0 DUP3 DUP2 MSTORE PUSH1 0x20 ADD SWAP1 DUP2 MSTORE PUSH1 0x20 ADD PUSH0 KECCAK256 PUSH1 0x9 ADD PUSH0 SWAP1 SLOAD SWAP1 PUSH2 0x100 EXP SWAP1 DIV PUSH1 0xFF AND ISZERO PUSH2 0x11B0 JUMPI PUSH1 0x40 MLOAD PUSH32 0x66CB03E900000000000000000000000000000000000000000000000000000000 DUP2 MSTORE PUSH1 0x4 ADD PUSH1 0x40 MLOAD DUP1 SWAP2 SUB SWAP1 REVERT JUMPDEST PUSH1 0x13 PUSH0 DUP3 DUP2 MSTORE PUSH1 0x20 ADD SWAP1 DUP2 MSTORE PUSH1 0x20 ADD PUSH0 KECCAK256 PUSH1 0x6 ADD SLOAD TIMESTAMP GT ISZERO PUSH2 0x11FE JUMPI PUSH1 0x40 MLOAD PUSH32 0x398CFD0200000000000000000000000000000000000000000000000000000000 DUP2 MSTORE PUSH1 0x4 ADD PUSH1 0x40 MLOAD DUP1 SWAP2 SUB SWAP1 REVERT JUMPDEST PUSH0 PUSH1 0x13 PUSH0 DUP5 DUP2 MSTORE PUSH1 0x20 ADD SWAP1 DUP2 MSTORE PUSH1 0x20 ADD PUSH0 KECCAK256 SWAP1 POP DUP1 PUSH1 0x4 ADD SLOAD CALLVALUE LT ISZERO PUSH2 0x1250 JUMPI PUSH1 0x40 MLOAD PUSH32 0xCD1C886700000000000000000000000000000000000000000000000000000000 DUP2 MSTORE PUSH1 0x4 ADD PUSH1 0x40 MLOAD DUP1 SWAP2 SUB SWAP1 REVERT JUMPDEST PUSH0 DUP2 PUSH1 0x8 ADD DUP1 SLOAD PUSH2 0x1260 SWAP1 PUSH2 0x6E2F JUMP JUMPDEST SWAP1 POP GT ISZERO PUSH2 0x1346 JUMPI PUSH0 DUP2 PUSH1 0x1 ADD PUSH0 SWAP1 SLOAD SWAP1 PUSH2 0x100 EXP SWAP1 DIV PUSH20 0xFFFFFFFFFFFFFFFFFFFFFFFFFFFFFFFFFFFFFFFF AND SWAP1 POP PUSH0 DUP2 PUSH20 0xFFFFFFFFFFFFFFFFFFFFFFFFFFFFFFFFFFFFFFFF AND PUSH4 0x3197CBB6 PUSH1 0x40 MLOAD DUP2 PUSH4 0xFFFFFFFF AND PUSH1 0xE0 SHL DUP2 MSTORE PUSH1 0x4 ADD PUSH1 0x20 PUSH1 0x40 MLOAD DUP1 DUP4 SUB DUP2 DUP7 GAS STATICCALL ISZERO DUP1 ISZERO PUSH2 0x12D9 JUMPI RETURNDATASIZE PUSH0 PUSH0 RETURNDATACOPY RETURNDATASIZE PUSH0 REVERT JUMPDEST POP POP POP POP PUSH1 0x40 MLOAD RETURNDATASIZE PUSH1 0x1F NOT PUSH1 0x1F DUP3 ADD AND DUP3 ADD DUP1 PUSH1 0x40 MSTORE POP DUP2 ADD SWAP1 PUSH2 0x12FD SWAP2 SWAP1 PUSH2 0x6E73 JUMP JUMPDEST SWAP1 POP DUP1 PUSH8 0xFFFFFFFFFFFFFFFF AND TIMESTAMP GT ISZERO PUSH2 0x1343 JUMPI PUSH1 0x40 MLOAD PUSH32 0x1963C37D00000000000000000000000000000000000000000000000000000000 DUP2 MSTORE PUSH1 0x4 ADD PUSH1 0x40 MLOAD DUP1 SWAP2 SUB SWAP1 REVERT JUMPDEST POP POP JUMPDEST PUSH0 DUP2 PUSH1 0x7 ADD PUSH0 PUSH2 0x100 EXP DUP2 SLOAD DUP2 PUSH1 0xFF MUL NOT AND SWAP1 DUP4 ISZERO ISZERO MUL OR SWAP1 SSTORE POP PUSH0 PUSH1 0x14 PUSH0 DUP4 PUSH1 0x1 ADD PUSH0 SWAP1 SLOAD SWAP1 PUSH2 0x100 EXP SWAP1 DIV PUSH20 0xFFFFFFFFFFFFFFFFFFFFFFFFFFFFFFFFFFFFFFFF AND PUSH20 0xFFFFFFFFFFFFFFFFFFFFFFFFFFFFFFFFFFFFFFFF AND PUSH20 0xFFFFFFFFFFFFFFFFFFFFFFFFFFFFFFFFFFFFFFFF AND DUP2 MSTORE PUSH1 0x20 ADD SWAP1 DUP2 MSTORE PUSH1 0x20 ADD PUSH0 KECCAK256 PUSH0 DUP4 PUSH1 0x2 ADD SLOAD DUP2 MSTORE PUSH1 0x20 ADD SWAP1 DUP2 MSTORE PUSH1 0x20 ADD PUSH0 KECCAK256 DUP2 SWAP1 SSTORE POP PUSH0 DUP2 PUSH1 0x8 ADD DUP1 SLOAD PUSH2 0x13E9 SWAP1 PUSH2 0x6E2F JUMP JUMPDEST SWAP1 POP GT ISZERO PUSH2 0x1478 JUMPI PUSH1 0x3 PUSH1 0x17 DUP3 PUSH1 0x8 ADD PUSH1 0x40 MLOAD PUSH2 0x1406 SWAP2 SWAP1 PUSH2 0x6F3A JUMP JUMPDEST SWAP1 DUP2 MSTORE PUSH1 0x20 ADD PUSH1 0x40 MLOAD DUP1 SWAP2 SUB SWAP1 KECCAK256 PUSH0 PUSH2 0x100 EXP DUP2 SLOAD DUP2 PUSH1 0xFF MUL NOT AND SWAP1 DUP4 PUSH1 0x4 DUP2 GT ISZERO PUSH2 0x1435 JUMPI PUSH2 0x1434 PUSH2 0x6A1D JUMP JUMPDEST JUMPDEST MUL OR SWAP1 SSTORE POP PUSH32 0x384A7354A96A31098438152E3BE618FCAFB335084CA123FBC6168A866F508241 DUP2 PUSH1 0x8 ADD PUSH1 0x3 PUSH1 0x40 MLOAD PUSH2 0x146F SWAP3 SWAP2 SWAP1 PUSH2 0x6FD1 JUMP JUMPDEST PUSH1 0x40 MLOAD DUP1 SWAP2 SUB SWAP1 LOG1 JUMPDEST PUSH0 PUSH2 0x2710 PUSH1 0xE SLOAD DUP4 PUSH1 0x4 ADD SLOAD PUSH2 0x148E SWAP2 SWAP1 PUSH2 0x702C JUMP JUMPDEST PUSH2 0x1498 SWAP2 SWAP1 PUSH2 0x709A JUMP JUMPDEST SWAP1 POP PUSH0 DUP2 DUP4 PUSH1 0x4 ADD SLOAD PUSH2 0x14AB SWAP2 SWAP1 PUSH2 0x70CA JUMP JUMPDEST SWAP1 POP DUP3 PUSH1 0x1 ADD PUSH0 SWAP1 SLOAD SWAP1 PUSH2 0x100 EXP SWAP1 DIV PUSH20 0xFFFFFFFFFFFFFFFFFFFFFFFFFFFFFFFFFFFFFFFF AND PUSH20 0xFFFFFFFFFFFFFFFFFFFFFFFFFFFFFFFFFFFFFFFF AND PUSH4 0x42842E0E DUP5 PUSH1 0x3 ADD PUSH0 SWAP1 SLOAD SWAP1 PUSH2 0x100 EXP SWAP1 DIV PUSH20 0xFFFFFFFFFFFFFFFFFFFFFFFFFFFFFFFFFFFFFFFF AND CALLER DUP7 PUSH1 0x2 ADD SLOAD PUSH1 0x40 MLOAD DUP5 PUSH4 0xFFFFFFFF AND PUSH1 0xE0 SHL DUP2 MSTORE PUSH1 0x4 ADD PUSH2 0x1534 SWAP4 SWAP3 SWAP2 SWAP1 PUSH2 0x70FD JUMP JUMPDEST PUSH0 PUSH1 0x40 MLOAD DUP1 DUP4 SUB DUP2 PUSH0 DUP8 DUP1 EXTCODESIZE ISZERO DUP1 ISZERO PUSH2 0x154B JUMPI PUSH0 PUSH0 REVERT JUMPDEST POP GAS CALL ISZERO DUP1 ISZERO PUSH2 0x155D JUMPI RETURNDATASIZE PUSH0 PUSH0 RETURNDATACOPY RETURNDATASIZE PUSH0 REVERT JUMPDEST POP POP POP POP PUSH0 DUP3 GT ISZERO PUSH2 0x162B JUMPI PUSH0 PUSH1 0xF PUSH0 SWAP1 SLOAD SWAP1 PUSH2 0x100 EXP SWAP1 DIV PUSH20 0xFFFFFFFFFFFFFFFFFFFFFFFFFFFFFFFFFFFFFFFF AND PUSH20 0xFFFFFFFFFFFFFFFFFFFFFFFFFFFFFFFFFFFFFFFF AND DUP4 PUSH1 0x40 MLOAD PUSH2 0x15AF SWAP1 PUSH2 0x715F JUMP JUMPDEST PUSH0 PUSH1 0x40 MLOAD DUP1 DUP4 SUB DUP2 DUP6 DUP8 GAS CALL SWAP3 POP POP POP RETURNDATASIZE DUP1 PUSH0 DUP2 EQ PUSH2 0x15E9 JUMPI PUSH1 0x40 MLOAD SWAP2 POP PUSH1 0x1F NOT PUSH1 0x3F RETURNDATASIZE ADD AND DUP3 ADD PUSH1 0x40 MSTORE RETURNDATASIZE DUP3 MSTORE RETURNDATASIZE PUSH0 PUSH1 0x20 DUP5 ADD RETURNDATACOPY PUSH2 0x15EE JUMP JUMPDEST PUSH1 0x60 SWAP2 POP JUMPDEST POP POP SWAP1 POP DUP1 PUSH2 0x1629 JUMPI PUSH1 0x40 MLOAD PUSH32 0x90B8EC1800000000000000000000000000000000000000000000000000000000 DUP2 MSTORE PUSH1 0x4 ADD PUSH1 0x40 MLOAD DUP1 SWAP2 SUB SWAP1 REVERT JUMPDEST POP JUMPDEST PUSH0 DUP4 PUSH1 0x3 ADD PUSH0 SWAP1 SLOAD SWAP1 PUSH2 0x100 EXP SWAP1 DIV PUSH20 0xFFFFFFFFFFFFFFFFFFFFFFFFFFFFFFFFFFFFFFFF AND PUSH20 0xFFFFFFFFFFFFFFFFFFFFFFFFFFFFFFFFFFFFFFFF AND DUP3 PUSH1 0x40 MLOAD PUSH2 0x1673 SWAP1 PUSH2 0x715F JUMP JUMPDEST PUSH0 PUSH1 0x40 MLOAD DUP1 DUP4 SUB DUP2 DUP6 DUP8 GAS CALL SWAP3 POP POP POP RETURNDATASIZE DUP1 PUSH0 DUP2 EQ PUSH2 0x16AD JUMPI PUSH1 0x40 MLOAD SWAP2 POP PUSH1 0x1F NOT PUSH1 0x3F RETURNDATASIZE ADD AND DUP3 ADD PUSH1 0x40 MSTORE RETURNDATASIZE DUP3 MSTORE RETURNDATASIZE PUSH0 PUSH1 0x20 DUP5 ADD RETURNDATACOPY PUSH2 0x16B2 JUMP JUMPDEST PUSH1 0x60 SWAP2 POP JUMPDEST POP POP SWAP1 POP DUP1 PUSH2 0x16ED JUMPI PUSH1 0x40 MLOAD PUSH32 0x90B8EC1800000000000000000000000000000000000000000000000000000000 DUP2 MSTORE PUSH1 0x4 ADD PUSH1 0x40 MLOAD DUP1 SWAP2 SUB SWAP1 REVERT JUMPDEST DUP4 PUSH1 0x4 ADD SLOAD CALLVALUE GT ISZERO PUSH2 0x17A9 JUMPI PUSH0 CALLER PUSH20 0xFFFFFFFFFFFFFFFFFFFFFFFFFFFFFFFFFFFFFFFF AND DUP6 PUSH1 0x4 ADD SLOAD CALLVALUE PUSH2 0x1721 SWAP2 SWAP1 PUSH2 0x70CA JUMP JUMPDEST PUSH1 0x40 MLOAD PUSH2 0x172D SWAP1 PUSH2 0x715F JUMP JUMPDEST PUSH0 PUSH1 0x40 MLOAD DUP1 DUP4 SUB DUP2 DUP6 DUP8 GAS CALL SWAP3 POP POP POP RETURNDATASIZE DUP1 PUSH0 DUP2 EQ PUSH2 0x1767 JUMPI PUSH1 0x40 MLOAD SWAP2 POP PUSH1 0x1F NOT PUSH1 0x3F RETURNDATASIZE ADD AND DUP3 ADD PUSH1 0x40 MSTORE RETURNDATASIZE DUP3 MSTORE RETURNDATASIZE PUSH0 PUSH1 0x20 DUP5 ADD RETURNDATACOPY PUSH2 0x176C JUMP JUMPDEST PUSH1 0x60 SWAP2 POP JUMPDEST POP POP SWAP1 POP DUP1 PUSH2 0x17A7 JUMPI PUSH1 0x40 MLOAD PUSH32 0x90B8EC1800000000000000000000000000000000000000000000000000000000 DUP2 MSTORE PUSH1 0x4 ADD PUSH1 0x40 MLOAD DUP1 SWAP2 SUB SWAP1 REVERT JUMPDEST POP JUMPDEST DUP4 PUSH1 0x3 ADD PUSH0 SWAP1 SLOAD SWAP1 PUSH2 0x100 EXP SWAP1 DIV PUSH20 0xFFFFFFFFFFFFFFFFFFFFFFFFFFFFFFFFFFFFFFFF AND PUSH20 0xFFFFFFFFFFFFFFFFFFFFFFFFFFFFFFFFFFFFFFFF AND CALLER PUSH20 0xFFFFFFFFFFFFFFFFFFFFFFFFFFFFFFFFFFFFFFFF AND DUP8 PUSH32 0x5E16E5CF13EEB3FF32F51644CCD765A8ECFD4114BEB5820FF29D0B3B1E91A84 DUP8 PUSH1 0x4 ADD SLOAD PUSH1 0x40 MLOAD PUSH2 0x182E SWAP2 SWAP1 PUSH2 0x690A JUMP JUMPDEST PUSH1 0x40 MLOAD DUP1 SWAP2 SUB SWAP1 LOG4 POP POP POP POP POP PUSH2 0x1843 PUSH2 0x431A JUMP JUMPDEST POP JUMP JUMPDEST PUSH0 PUSH0 PUSH2 0x1850 PUSH2 0x4331 JUMP JUMPDEST SWAP1 POP DUP1 PUSH0 ADD PUSH0 DUP5 DUP2 MSTORE PUSH1 0x20 ADD SWAP1 DUP2 MSTORE PUSH1 0x20 ADD PUSH0 KECCAK256 PUSH1 0x1 ADD SLOAD SWAP2 POP POP SWAP2 SWAP1 POP JUMP JUMPDEST PUSH2 0x1879 DUP3 PUSH2 0x1846 JUMP JUMPDEST PUSH2 0x1882 DUP2 PUSH2 0x4271 JUMP JUMPDEST PUSH2 0x188C DUP4 DUP4 PUSH2 0x4358 JUMP JUMPDEST POP POP POP POP JUMP JUMPDEST PUSH2 0x189A PUSH2 0x4285 JUMP JUMPDEST PUSH2 0x18A2 PUSH2 0x42C6 JUMP JUMPDEST PUSH0 PUSH1 0x13 PUSH0 DUP4 DUP2 MSTORE PUSH1 0x20 ADD SWAP1 DUP2 MSTORE PUSH1 0x20 ADD PUSH0 KECCAK256 SWAP1 POP PUSH0 DUP2 PUSH0 ADD SLOAD SUB PUSH2 0x18F2 JUMPI PUSH1 0x40 MLOAD PUSH32 0x7E43E63800000000000000000000000000000000000000000000000000000000 DUP2 MSTORE PUSH1 0x4 ADD PUSH1 0x40 MLOAD DUP1 SWAP2 SUB SWAP1 REVERT JUMPDEST DUP1 PUSH1 0x7 ADD PUSH0 SWAP1 SLOAD SWAP1 PUSH2 0x100 EXP SWAP1 DIV PUSH1 0xFF AND PUSH2 0x1939 JUMPI PUSH1 0x40 MLOAD PUSH32 0x66CB03E900000000000000000000000000000000000000000000000000000000 DUP2 MSTORE PUSH1 0x4 ADD PUSH1 0x40 MLOAD DUP1 SWAP2 SUB SWAP1 REVERT JUMPDEST CALLER PUSH20 0xFFFFFFFFFFFFFFFFFFFFFFFFFFFFFFFFFFFFFFFF AND DUP2 PUSH1 0x3 ADD PUSH0 SWAP1 SLOAD SWAP1 PUSH2 0x100 EXP SWAP1 DIV PUSH20 0xFFFFFFFFFFFFFFFFFFFFFFFFFFFFFFFFFFFFFFFF AND PUSH20 0xFFFFFFFFFFFFFFFFFFFFFFFFFFFFFFFFFFFFFFFF AND EQ PUSH2 0x19C1 JUMPI PUSH1 0x40 MLOAD PUSH32 0x5EC8235100000000000000000000000000000000000000000000000000000000 DUP2 MSTORE PUSH1 0x4 ADD PUSH1 0x40 MLOAD DUP1 SWAP2 SUB SWAP1 REVERT JUMPDEST PUSH0 DUP2 PUSH1 0x7 ADD PUSH0 PUSH2 0x100 EXP DUP2 SLOAD DUP2 PUSH1 0xFF MUL NOT AND SWAP1 DUP4 ISZERO ISZERO MUL OR SWAP1 SSTORE POP PUSH0 PUSH1 0x14 PUSH0 DUP4 PUSH1 0x1 ADD PUSH0 SWAP1 SLOAD SWAP1 PUSH2 0x100 EXP SWAP1 DIV PUSH20 0xFFFFFFFFFFFFFFFFFFFFFFFFFFFFFFFFFFFFFFFF AND PUSH20 0xFFFFFFFFFFFFFFFFFFFFFFFFFFFFFFFFFFFFFFFF AND PUSH20 0xFFFFFFFFFFFFFFFFFFFFFFFFFFFFFFFFFFFFFFFF AND DUP2 MSTORE PUSH1 0x20 ADD SWAP1 DUP2 MSTORE PUSH1 0x20 ADD PUSH0 KECCAK256 PUSH0 DUP4 PUSH1 0x2 ADD SLOAD DUP2 MSTORE PUSH1 0x20 ADD SWAP1 DUP2 MSTORE PUSH1 0x20 ADD PUSH0 KECCAK256 DUP2 SWAP1 SSTORE POP PUSH0 DUP2 PUSH1 0x8 ADD DUP1 SLOAD PUSH2 0x1A64 SWAP1 PUSH2 0x6E2F JUMP JUMPDEST SWAP1 POP GT ISZERO PUSH2 0x1AF3 JUMPI PUSH1 0x4 PUSH1 0x17 DUP3 PUSH1 0x8 ADD PUSH1 0x40 MLOAD PUSH2 0x1A81 SWAP2 SWAP1 PUSH2 0x6F3A JUMP JUMPDEST SWAP1 DUP2 MSTORE PUSH1 0x20 ADD PUSH1 0x40 MLOAD DUP1 SWAP2 SUB SWAP1 KECCAK256 PUSH0 PUSH2 0x100 EXP DUP2 SLOAD DUP2 PUSH1 0xFF MUL NOT AND SWAP1 DUP4 PUSH1 0x4 DUP2 GT ISZERO PUSH2 0x1AB0 JUMPI PUSH2 0x1AAF PUSH2 0x6A1D JUMP JUMPDEST JUMPDEST MUL OR SWAP1 SSTORE POP PUSH32 0x384A7354A96A31098438152E3BE618FCAFB335084CA123FBC6168A866F508241 DUP2 PUSH1 0x8 ADD PUSH1 0x4 PUSH1 0x40 MLOAD PUSH2 0x1AEA SWAP3 SWAP2 SWAP1 PUSH2 0x6FD1 JUMP JUMPDEST PUSH1 0x40 MLOAD DUP1 SWAP2 SUB SWAP1 LOG1 JUMPDEST CALLER PUSH20 0xFFFFFFFFFFFFFFFFFFFFFFFFFFFFFFFFFFFFFFFF AND DUP3 PUSH32 0x8E25282255AB31897DF2B0456BB993AC7F84D376861AEFD84901D2D63A7428A2 PUSH1 0x40 MLOAD PUSH1 0x40 MLOAD DUP1 SWAP2 SUB SWAP1 LOG3 POP PUSH2 0x1B40 PUSH2 0x431A JUMP JUMPDEST POP JUMP JUMPDEST PUSH0 PUSH2 0x1B4C PUSH2 0x4450 JUMP JUMPDEST PUSH0 DUP4 DUP4 SWAP1 POP SUB PUSH2 0x1B95 JUMPI DUP3 DUP3 PUSH1 0x40 MLOAD PUSH32 0x5597DD2300000000000000000000000000000000000000000000000000000000 DUP2 MSTORE PUSH1 0x4 ADD PUSH2 0x1B8C SWAP3 SWAP2 SWAP1 PUSH2 0x719F JUMP JUMPDEST PUSH1 0x40 MLOAD DUP1 SWAP2 SUB SWAP1 REVERT JUMPDEST PUSH2 0x1B9D PUSH2 0x5F1A JUMP JUMPDEST PUSH2 0x1C38 PUSH1 0xC DUP1 SLOAD PUSH2 0x1BAD SWAP1 PUSH2 0x6E2F JUMP JUMPDEST DUP1 PUSH1 0x1F ADD PUSH1 0x20 DUP1 SWAP2 DIV MUL PUSH1 0x20 ADD PUSH1 0x40 MLOAD SWAP1 DUP2 ADD PUSH1 0x40 MSTORE DUP1 SWAP3 SWAP2 SWAP1 DUP2 DUP2 MSTORE PUSH1 0x20 ADD DUP3 DUP1 SLOAD PUSH2 0x1BD9 SWAP1 PUSH2 0x6E2F JUMP JUMPDEST DUP1 ISZERO PUSH2 0x1C24 JUMPI DUP1 PUSH1 0x1F LT PUSH2 0x1BFB JUMPI PUSH2 0x100 DUP1 DUP4 SLOAD DIV MUL DUP4 MSTORE SWAP2 PUSH1 0x20 ADD SWAP2 PUSH2 0x1C24 JUMP JUMPDEST DUP3 ADD SWAP2 SWAP1 PUSH0 MSTORE PUSH1 0x20 PUSH0 KECCAK256 SWAP1 JUMPDEST DUP2 SLOAD DUP2 MSTORE SWAP1 PUSH1 0x1 ADD SWAP1 PUSH1 0x20 ADD DUP1 DUP4 GT PUSH2 0x1C07 JUMPI DUP3 SWAP1 SUB PUSH1 0x1F AND DUP3 ADD SWAP2 JUMPDEST POP POP POP POP POP DUP3 PUSH2 0x44E0 SWAP1 SWAP2 SWAP1 PUSH4 0xFFFFFFFF AND JUMP JUMPDEST PUSH0 PUSH1 0x1 PUSH8 0xFFFFFFFFFFFFFFFF DUP2 GT ISZERO PUSH2 0x1C54 JUMPI PUSH2 0x1C53 PUSH2 0x610B JUMP JUMPDEST JUMPDEST PUSH1 0x40 MLOAD SWAP1 DUP1 DUP3 MSTORE DUP1 PUSH1 0x20 MUL PUSH1 0x20 ADD DUP3 ADD PUSH1 0x40 MSTORE DUP1 ISZERO PUSH2 0x1C87 JUMPI DUP2 PUSH1 0x20 ADD JUMPDEST PUSH1 0x60 DUP2 MSTORE PUSH1 0x20 ADD SWAP1 PUSH1 0x1 SWAP1 SUB SWAP1 DUP2 PUSH2 0x1C72 JUMPI SWAP1 POP JUMPDEST POP SWAP1 POP DUP5 DUP5 DUP1 DUP1 PUSH1 0x1F ADD PUSH1 0x20 DUP1 SWAP2 DIV MUL PUSH1 0x20 ADD PUSH1 0x40 MLOAD SWAP1 DUP2 ADD PUSH1 0x40 MSTORE DUP1 SWAP4 SWAP3 SWAP2 SWAP1 DUP2 DUP2 MSTORE PUSH1 0x20 ADD DUP4 DUP4 DUP1 DUP3 DUP5 CALLDATACOPY PUSH0 DUP2 DUP5 ADD MSTORE PUSH1 0x1F NOT PUSH1 0x1F DUP3 ADD AND SWAP1 POP DUP1 DUP4 ADD SWAP3 POP POP POP POP POP POP POP DUP2 PUSH0 DUP2 MLOAD DUP2 LT PUSH2 0x1CE1 JUMPI PUSH2 0x1CE0 PUSH2 0x71C1 JUMP JUMPDEST JUMPDEST PUSH1 0x20 MUL PUSH1 0x20 ADD ADD DUP2 SWAP1 MSTORE POP PUSH2 0x1CFF DUP2 DUP4 PUSH2 0x44F0 SWAP1 SWAP2 SWAP1 PUSH4 0xFFFFFFFF AND JUMP JUMPDEST DUP5 DUP5 PUSH1 0x8 SWAP2 DUP3 PUSH2 0x1D10 SWAP3 SWAP2 SWAP1 PUSH2 0x7386 JUMP JUMPDEST POP PUSH2 0x1D4A PUSH2 0x1D1D DUP4 PUSH2 0x4537 JUMP JUMPDEST DUP8 PUSH3 0x493E0 PUSH32 0x66756E2D657468657265756D2D7365706F6C69612D3100000000000000000000 PUSH0 SHL PUSH2 0x4942 JUMP JUMPDEST PUSH1 0x3 DUP2 SWAP1 SSTORE POP PUSH1 0x3 SLOAD SWAP3 POP POP POP SWAP4 SWAP3 POP POP POP JUMP JUMPDEST PUSH2 0x1D66 PUSH2 0x4A22 JUMP JUMPDEST PUSH20 0xFFFFFFFFFFFFFFFFFFFFFFFFFFFFFFFFFFFFFFFF AND DUP2 PUSH20 0xFFFFFFFFFFFFFFFFFFFFFFFFFFFFFFFFFFFFFFFF AND EQ PUSH2 0x1DCA JUMPI PUSH1 0x40 MLOAD PUSH32 0x6697B23200000000000000000000000000000000000000000000000000000000 DUP2 MSTORE PUSH1 0x4 ADD PUSH1 0x40 MLOAD DUP1 SWAP2 SUB SWAP1 REVERT JUMPDEST PUSH2 0x1DD4 DUP3 DUP3 PUSH2 0x4A29 JUMP JUMPDEST POP POP POP JUMP JUMPDEST PUSH1 0x4 DUP1 SLOAD PUSH2 0x1DE6 SWAP1 PUSH2 0x6E2F JUMP JUMPDEST DUP1 PUSH1 0x1F ADD PUSH1 0x20 DUP1 SWAP2 DIV MUL PUSH1 0x20 ADD PUSH1 0x40 MLOAD SWAP1 DUP2 ADD PUSH1 0x40 MSTORE DUP1 SWAP3 SWAP2 SWAP1 DUP2 DUP2 MSTORE PUSH1 0x20 ADD DUP3 DUP1 SLOAD PUSH2 0x1E12 SWAP1 PUSH2 0x6E2F JUMP JUMPDEST DUP1 ISZERO PUSH2 0x1E5D JUMPI DUP1 PUSH1 0x1F LT PUSH2 0x1E34 JUMPI PUSH2 0x100 DUP1 DUP4 SLOAD DIV MUL DUP4 MSTORE SWAP2 PUSH1 0x20 ADD SWAP2 PUSH2 0x1E5D JUMP JUMPDEST DUP3 ADD SWAP2 SWAP1 PUSH0 MSTORE PUSH1 0x20 PUSH0 KECCAK256 SWAP1 JUMPDEST DUP2 SLOAD DUP2 MSTORE SWAP1 PUSH1 0x1 ADD SWAP1 PUSH1 0x20 ADD DUP1 DUP4 GT PUSH2 0x1E40 JUMPI DUP3 SWAP1 SUB PUSH1 0x1F AND DUP3 ADD SWAP2 JUMPDEST POP POP POP POP POP DUP2 JUMP JUMPDEST PUSH32 0xAF290D8680820AAD922855F39B306097B20E28774D6C1AD35A20325630C3A02C PUSH0 SHL PUSH2 0x1E91 DUP2 PUSH2 0x4271 JUMP JUMPDEST PUSH2 0x1E99 PUSH2 0x4B21 JUMP JUMPDEST POP JUMP JUMPDEST PUSH1 0xF PUSH0 SWAP1 SLOAD SWAP1 PUSH2 0x100 EXP SWAP1 DIV PUSH20 0xFFFFFFFFFFFFFFFFFFFFFFFFFFFFFFFFFFFFFFFF AND DUP2 JUMP JUMPDEST PUSH1 0x5 DUP1 SLOAD PUSH2 0x1ECE SWAP1 PUSH2 0x6E2F JUMP JUMPDEST DUP1 PUSH1 0x1F ADD PUSH1 0x20 DUP1 SWAP2 DIV MUL PUSH1 0x20 ADD PUSH1 0x40 MLOAD SWAP1 DUP2 ADD PUSH1 0x40 MSTORE DUP1 SWAP3 SWAP2 SWAP1 DUP2 DUP2 MSTORE PUSH1 0x20 ADD DUP3 DUP1 SLOAD PUSH2 0x1EFA SWAP1 PUSH2 0x6E2F JUMP JUMPDEST DUP1 ISZERO PUSH2 0x1F45 JUMPI DUP1 PUSH1 0x1F LT PUSH2 0x1F1C JUMPI PUSH2 0x100 DUP1 DUP4 SLOAD DIV MUL DUP4 MSTORE SWAP2 PUSH1 0x20 ADD SWAP2 PUSH2 0x1F45 JUMP JUMPDEST DUP3 ADD SWAP2 SWAP1 PUSH0 MSTORE PUSH1 0x20 PUSH0 KECCAK256 SWAP1 JUMPDEST DUP2 SLOAD DUP2 MSTORE SWAP1 PUSH1 0x1 ADD SWAP1 PUSH1 0x20 ADD DUP1 DUP4 GT PUSH2 0x1F28 JUMPI DUP3 SWAP1 SUB PUSH1 0x1F AND DUP3 ADD SWAP2 JUMPDEST POP POP POP POP POP DUP2 JUMP JUMPDEST PUSH2 0x1F55 PUSH2 0x4285 JUMP JUMPDEST PUSH2 0x1F5D PUSH2 0x42C6 JUMP JUMPDEST PUSH0 DUP5 SUB PUSH2 0x1F95 JUMPI PUSH1 0x40 MLOAD PUSH31 0xBFC92100000000000000000000000000000000000000000000000000000000 DUP2 MSTORE PUSH1 0x4 ADD PUSH1 0x40 MLOAD DUP1 SWAP2 SUB SWAP1 REVERT JUMPDEST PUSH1 0x10 SLOAD DUP4 LT DUP1 PUSH2 0x1FA6 JUMPI POP PUSH1 0x11 SLOAD DUP4 GT JUMPDEST ISZERO PUSH2 0x1FDD JUMPI PUSH1 0x40 MLOAD PUSH32 0x7616640100000000000000000000000000000000000000000000000000000000 DUP2 MSTORE PUSH1 0x4 ADD PUSH1 0x40 MLOAD DUP1 SWAP2 SUB SWAP1 REVERT JUMPDEST PUSH1 0x15 PUSH0 DUP8 PUSH20 0xFFFFFFFFFFFFFFFFFFFFFFFFFFFFFFFFFFFFFFFF AND PUSH20 0xFFFFFFFFFFFFFFFFFFFFFFFFFFFFFFFFFFFFFFFF AND DUP2 MSTORE PUSH1 0x20 ADD SWAP1 DUP2 MSTORE PUSH1 0x20 ADD PUSH0 KECCAK256 PUSH0 SWAP1 SLOAD SWAP1 PUSH2 0x100 EXP SWAP1 DIV PUSH1 0xFF AND PUSH2 0x205D JUMPI PUSH1 0x40 MLOAD PUSH32 0x12F140A300000000000000000000000000000000000000000000000000000000 DUP2 MSTORE PUSH1 0x4 ADD PUSH1 0x40 MLOAD DUP1 SWAP2 SUB SWAP1 REVERT JUMPDEST PUSH0 PUSH1 0x14 PUSH0 DUP9 PUSH20 0xFFFFFFFFFFFFFFFFFFFFFFFFFFFFFFFFFFFFFFFF AND PUSH20 0xFFFFFFFFFFFFFFFFFFFFFFFFFFFFFFFFFFFFFFFF AND DUP2 MSTORE PUSH1 0x20 ADD SWAP1 DUP2 MSTORE PUSH1 0x20 ADD PUSH0 KECCAK256 PUSH0 DUP8 DUP2 MSTORE PUSH1 0x20 ADD SWAP1 DUP2 MSTORE PUSH1 0x20 ADD PUSH0 KECCAK256 SLOAD EQ PUSH2 0x20E2 JUMPI PUSH1 0x40 MLOAD PUSH32 0xDEAABDC200000000000000000000000000000000000000000000000000000000 DUP2 MSTORE PUSH1 0x4 ADD PUSH1 0x40 MLOAD DUP1 SWAP2 SUB SWAP1 REVERT JUMPDEST PUSH0 DUP3 DUP3 SWAP1 POP GT ISZERO PUSH2 0x21EC JUMPI PUSH0 PUSH1 0x17 DUP4 DUP4 PUSH1 0x40 MLOAD PUSH2 0x2100 SWAP3 SWAP2 SWAP1 PUSH2 0x7477 JUMP JUMPDEST SWAP1 DUP2 MSTORE PUSH1 0x20 ADD PUSH1 0x40 MLOAD DUP1 SWAP2 SUB SWAP1 KECCAK256 PUSH0 SWAP1 SLOAD SWAP1 PUSH2 0x100 EXP SWAP1 DIV PUSH1 0xFF AND SWAP1 POP PUSH0 PUSH1 0x4 DUP2 GT ISZERO PUSH2 0x2130 JUMPI PUSH2 0x212F PUSH2 0x6A1D JUMP JUMPDEST JUMPDEST DUP2 PUSH1 0x4 DUP2 GT ISZERO PUSH2 0x2143 JUMPI PUSH2 0x2142 PUSH2 0x6A1D JUMP JUMPDEST JUMPDEST EQ ISZERO DUP1 ISZERO PUSH2 0x2175 JUMPI POP PUSH1 0x4 DUP1 DUP2 GT ISZERO PUSH2 0x215F JUMPI PUSH2 0x215E PUSH2 0x6A1D JUMP JUMPDEST JUMPDEST DUP2 PUSH1 0x4 DUP2 GT ISZERO PUSH2 0x2172 JUMPI PUSH2 0x2171 PUSH2 0x6A1D JUMP JUMPDEST JUMPDEST EQ ISZERO JUMPDEST DUP1 ISZERO PUSH2 0x21A6 JUMPI POP PUSH1 0x3 PUSH1 0x4 DUP2 GT ISZERO PUSH2 0x2190 JUMPI PUSH2 0x218F PUSH2 0x6A1D JUMP JUMPDEST JUMPDEST DUP2 PUSH1 0x4 DUP2 GT ISZERO PUSH2 0x21A3 JUMPI PUSH2 0x21A2 PUSH2 0x6A1D JUMP JUMPDEST JUMPDEST EQ ISZERO JUMPDEST ISZERO PUSH2 0x21EA JUMPI DUP3 DUP3 PUSH1 0x40 MLOAD PUSH32 0xDB1FAAAF00000000000000000000000000000000000000000000000000000000 DUP2 MSTORE PUSH1 0x4 ADD PUSH2 0x21E1 SWAP3 SWAP2 SWAP1 PUSH2 0x719F JUMP JUMPDEST PUSH1 0x40 MLOAD DUP1 SWAP2 SUB SWAP1 REVERT JUMPDEST POP JUMPDEST PUSH0 DUP7 SWAP1 POP CALLER PUSH20 0xFFFFFFFFFFFFFFFFFFFFFFFFFFFFFFFFFFFFFFFF AND DUP2 PUSH20 0xFFFFFFFFFFFFFFFFFFFFFFFFFFFFFFFFFFFFFFFF AND PUSH4 0x6352211E DUP9 PUSH1 0x40 MLOAD DUP3 PUSH4 0xFFFFFFFF AND PUSH1 0xE0 SHL DUP2 MSTORE PUSH1 0x4 ADD PUSH2 0x2240 SWAP2 SWAP1 PUSH2 0x690A JUMP JUMPDEST PUSH1 0x20 PUSH1 0x40 MLOAD DUP1 DUP4 SUB DUP2 DUP7 GAS STATICCALL ISZERO DUP1 ISZERO PUSH2 0x225B JUMPI RETURNDATASIZE PUSH0 PUSH0 RETURNDATACOPY RETURNDATASIZE PUSH0 REVERT JUMPDEST POP POP POP POP PUSH1 0x40 MLOAD RETURNDATASIZE PUSH1 0x1F NOT PUSH1 0x1F DUP3 ADD AND DUP3 ADD DUP1 PUSH1 0x40 MSTORE POP DUP2 ADD SWAP1 PUSH2 0x227F SWAP2 SWAP1 PUSH2 0x74A3 JUMP JUMPDEST PUSH20 0xFFFFFFFFFFFFFFFFFFFFFFFFFFFFFFFFFFFFFFFF AND EQ PUSH2 0x22CC JUMPI PUSH1 0x40 MLOAD PUSH32 0x59DC379F00000000000000000000000000000000000000000000000000000000 DUP2 MSTORE PUSH1 0x4 ADD PUSH1 0x40 MLOAD DUP1 SWAP2 SUB SWAP1 REVERT JUMPDEST DUP1 PUSH20 0xFFFFFFFFFFFFFFFFFFFFFFFFFFFFFFFFFFFFFFFF AND PUSH4 0xE985E9C5 CALLER ADDRESS PUSH1 0x40 MLOAD DUP4 PUSH4 0xFFFFFFFF AND PUSH1 0xE0 SHL DUP2 MSTORE PUSH1 0x4 ADD PUSH2 0x2307 SWAP3 SWAP2 SWAP1 PUSH2 0x74CE JUMP JUMPDEST PUSH1 0x20 PUSH1 0x40 MLOAD DUP1 DUP4 SUB DUP2 DUP7 GAS STATICCALL ISZERO DUP1 ISZERO PUSH2 0x2322 JUMPI RETURNDATASIZE PUSH0 PUSH0 RETURNDATACOPY RETURNDATASIZE PUSH0 REVERT JUMPDEST POP POP POP POP PUSH1 0x40 MLOAD RETURNDATASIZE PUSH1 0x1F NOT PUSH1 0x1F DUP3 ADD AND DUP3 ADD DUP1 PUSH1 0x40 MSTORE POP DUP2 ADD SWAP1 PUSH2 0x2346 SWAP2 SWAP1 PUSH2 0x7509 JUMP JUMPDEST ISZERO DUP1 ISZERO PUSH2 0x23F6 JUMPI POP ADDRESS PUSH20 0xFFFFFFFFFFFFFFFFFFFFFFFFFFFFFFFFFFFFFFFF AND DUP2 PUSH20 0xFFFFFFFFFFFFFFFFFFFFFFFFFFFFFFFFFFFFFFFF AND PUSH4 0x81812FC DUP9 PUSH1 0x40 MLOAD DUP3 PUSH4 0xFFFFFFFF AND PUSH1 0xE0 SHL DUP2 MSTORE PUSH1 0x4 ADD PUSH2 0x239E SWAP2 SWAP1 PUSH2 0x690A JUMP JUMPDEST PUSH1 0x20 PUSH1 0x40 MLOAD DUP1 DUP4 SUB DUP2 DUP7 GAS STATICCALL ISZERO DUP1 ISZERO PUSH2 0x23B9 JUMPI RETURNDATASIZE PUSH0 PUSH0 RETURNDATACOPY RETURNDATASIZE PUSH0 REVERT JUMPDEST POP POP POP POP PUSH1 0x40 MLOAD RETURNDATASIZE PUSH1 0x1F NOT PUSH1 0x1F DUP3 ADD AND DUP3 ADD DUP1 PUSH1 0x40 MSTORE POP DUP2 ADD SWAP1 PUSH2 0x23DD SWAP2 SWAP1 PUSH2 0x74A3 JUMP JUMPDEST PUSH20 0xFFFFFFFFFFFFFFFFFFFFFFFFFFFFFFFFFFFFFFFF AND EQ ISZERO JUMPDEST ISZERO PUSH2 0x242D JUMPI PUSH1 0x40 MLOAD PUSH32 0x32DA96A300000000000000000000000000000000000000000000000000000000 DUP2 MSTORE PUSH1 0x4 ADD PUSH1 0x40 MLOAD DUP1 SWAP2 SUB SWAP1 REVERT JUMPDEST PUSH0 DUP4 DUP4 SWAP1 POP GT ISZERO PUSH2 0x24F3 JUMPI PUSH0 DUP8 SWAP1 POP PUSH0 DUP2 PUSH20 0xFFFFFFFFFFFFFFFFFFFFFFFFFFFFFFFFFFFFFFFF AND PUSH4 0x3197CBB6 PUSH1 0x40 MLOAD DUP2 PUSH4 0xFFFFFFFF AND PUSH1 0xE0 SHL DUP2 MSTORE PUSH1 0x4 ADD PUSH1 0x20 PUSH1 0x40 MLOAD DUP1 DUP4 SUB DUP2 DUP7 GAS STATICCALL ISZERO DUP1 ISZERO PUSH2 0x2486 JUMPI RETURNDATASIZE PUSH0 PUSH0 RETURNDATACOPY RETURNDATASIZE PUSH0 REVERT JUMPDEST POP POP POP POP PUSH1 0x40 MLOAD RETURNDATASIZE PUSH1 0x1F NOT PUSH1 0x1F DUP3 ADD AND DUP3 ADD DUP1 PUSH1 0x40 MSTORE POP DUP2 ADD SWAP1 PUSH2 0x24AA SWAP2 SWAP1 PUSH2 0x6E73 JUMP JUMPDEST SWAP1 POP DUP1 PUSH8 0xFFFFFFFFFFFFFFFF AND TIMESTAMP GT ISZERO PUSH2 0x24F0 JUMPI PUSH1 0x40 MLOAD PUSH32 0x1963C37D00000000000000000000000000000000000000000000000000000000 DUP2 MSTORE PUSH1 0x4 ADD PUSH1 0x40 MLOAD DUP1 SWAP2 SUB SWAP1 REVERT JUMPDEST POP POP JUMPDEST PUSH2 0x24FD PUSH1 0xD PUSH2 0x4B8F JUMP JUMPDEST PUSH0 PUSH2 0x2508 PUSH1 0xD PUSH2 0x4BA3 JUMP JUMPDEST SWAP1 POP PUSH0 TIMESTAMP SWAP1 POP PUSH0 DUP7 DUP3 PUSH2 0x251B SWAP2 SWAP1 PUSH2 0x7534 JUMP JUMPDEST SWAP1 POP PUSH0 PUSH0 SWAP1 POP PUSH0 PUSH1 0x1 SWAP1 POP PUSH1 0x40 MLOAD DUP1 PUSH2 0x140 ADD PUSH1 0x40 MSTORE DUP1 DUP7 DUP2 MSTORE PUSH1 0x20 ADD DUP14 PUSH20 0xFFFFFFFFFFFFFFFFFFFFFFFFFFFFFFFFFFFFFFFF AND DUP2 MSTORE PUSH1 0x20 ADD DUP13 DUP2 MSTORE PUSH1 0x20 ADD CALLER PUSH20 0xFFFFFFFFFFFFFFFFFFFFFFFFFFFFFFFFFFFFFFFF AND DUP2 MSTORE PUSH1 0x20 ADD DUP12 DUP2 MSTORE PUSH1 0x20 ADD DUP6 DUP2 MSTORE PUSH1 0x20 ADD DUP5 DUP2 MSTORE PUSH1 0x20 ADD DUP4 ISZERO ISZERO DUP2 MSTORE PUSH1 0x20 ADD DUP10 DUP10 DUP1 DUP1 PUSH1 0x1F ADD PUSH1 0x20 DUP1 SWAP2 DIV MUL PUSH1 0x20 ADD PUSH1 0x40 MLOAD SWAP1 DUP2 ADD PUSH1 0x40 MSTORE DUP1 SWAP4 SWAP3 SWAP2 SWAP1 DUP2 DUP2 MSTORE PUSH1 0x20 ADD DUP4 DUP4 DUP1 DUP3 DUP5 CALLDATACOPY PUSH0 DUP2 DUP5 ADD MSTORE PUSH1 0x1F NOT PUSH1 0x1F DUP3 ADD AND SWAP1 POP DUP1 DUP4 ADD SWAP3 POP POP POP POP POP POP POP DUP2 MSTORE PUSH1 0x20 ADD DUP3 ISZERO ISZERO DUP2 MSTORE POP PUSH1 0x13 PUSH0 DUP8 DUP2 MSTORE PUSH1 0x20 ADD SWAP1 DUP2 MSTORE PUSH1 0x20 ADD PUSH0 KECCAK256 PUSH0 DUP3 ADD MLOAD DUP2 PUSH0 ADD SSTORE PUSH1 0x20 DUP3 ADD MLOAD DUP2 PUSH1 0x1 ADD PUSH0 PUSH2 0x100 EXP DUP2 SLOAD DUP2 PUSH20 0xFFFFFFFFFFFFFFFFFFFFFFFFFFFFFFFFFFFFFFFF MUL NOT AND SWAP1 DUP4 PUSH20 0xFFFFFFFFFFFFFFFFFFFFFFFFFFFFFFFFFFFFFFFF AND MUL OR SWAP1 SSTORE POP PUSH1 0x40 DUP3 ADD MLOAD DUP2 PUSH1 0x2 ADD SSTORE PUSH1 0x60 DUP3 ADD MLOAD DUP2 PUSH1 0x3 ADD PUSH0 PUSH2 0x100 EXP DUP2 SLOAD DUP2 PUSH20 0xFFFFFFFFFFFFFFFFFFFFFFFFFFFFFFFFFFFFFFFF MUL NOT AND SWAP1 DUP4 PUSH20 0xFFFFFFFFFFFFFFFFFFFFFFFFFFFFFFFFFFFFFFFF AND MUL OR SWAP1 SSTORE POP PUSH1 0x80 DUP3 ADD MLOAD DUP2 PUSH1 0x4 ADD SSTORE PUSH1 0xA0 DUP3 ADD MLOAD DUP2 PUSH1 0x5 ADD SSTORE PUSH1 0xC0 DUP3 ADD MLOAD DUP2 PUSH1 0x6 ADD SSTORE PUSH1 0xE0 DUP3 ADD MLOAD DUP2 PUSH1 0x7 ADD PUSH0 PUSH2 0x100 EXP DUP2 SLOAD DUP2 PUSH1 0xFF MUL NOT AND SWAP1 DUP4 ISZERO ISZERO MUL OR SWAP1 SSTORE POP PUSH2 0x100 DUP3 ADD MLOAD DUP2 PUSH1 0x8 ADD SWAP1 DUP2 PUSH2 0x26E1 SWAP2 SWAP1 PUSH2 0x7567 JUMP JUMPDEST POP PUSH2 0x120 DUP3 ADD MLOAD DUP2 PUSH1 0x9 ADD PUSH0 PUSH2 0x100 EXP DUP2 SLOAD DUP2 PUSH1 0xFF MUL NOT AND SWAP1 DUP4 ISZERO ISZERO MUL OR SWAP1 SSTORE POP SWAP1 POP POP DUP5 PUSH1 0x14 PUSH0 DUP15 PUSH20 0xFFFFFFFFFFFFFFFFFFFFFFFFFFFFFFFFFFFFFFFF AND PUSH20 0xFFFFFFFFFFFFFFFFFFFFFFFFFFFFFFFFFFFFFFFF AND DUP2 MSTORE PUSH1 0x20 ADD SWAP1 DUP2 MSTORE PUSH1 0x20 ADD PUSH0 KECCAK256 PUSH0 DUP14 DUP2 MSTORE PUSH1 0x20 ADD SWAP1 DUP2 MSTORE PUSH1 0x20 ADD PUSH0 KECCAK256 DUP2 SWAP1 SSTORE POP PUSH0 DUP9 DUP9 SWAP1 POP GT ISZERO PUSH2 0x2881 JUMPI DUP8 DUP8 PUSH1 0x16 PUSH0 DUP9 DUP2 MSTORE PUSH1 0x20 ADD SWAP1 DUP2 MSTORE PUSH1 0x20 ADD PUSH0 KECCAK256 SWAP2 DUP3 PUSH2 0x2781 SWAP3 SWAP2 SWAP1 PUSH2 0x7386 JUMP JUMPDEST POP PUSH1 0x1 PUSH1 0x17 DUP10 DUP10 PUSH1 0x40 MLOAD PUSH2 0x2796 SWAP3 SWAP2 SWAP1 PUSH2 0x7477 JUMP JUMPDEST SWAP1 DUP2 MSTORE PUSH1 0x20 ADD PUSH1 0x40 MLOAD DUP1 SWAP2 SUB SWAP1 KECCAK256 PUSH0 PUSH2 0x100 EXP DUP2 SLOAD DUP2 PUSH1 0xFF MUL NOT AND SWAP1 DUP4 PUSH1 0x4 DUP2 GT ISZERO PUSH2 0x27C5 JUMPI PUSH2 0x27C4 PUSH2 0x6A1D JUMP JUMPDEST JUMPDEST MUL OR SWAP1 SSTORE POP PUSH32 0x384A7354A96A31098438152E3BE618FCAFB335084CA123FBC6168A866F508241 DUP9 DUP9 PUSH1 0x1 PUSH1 0x40 MLOAD PUSH2 0x27FE SWAP4 SWAP3 SWAP2 SWAP1 PUSH2 0x7636 JUMP JUMPDEST PUSH1 0x40 MLOAD DUP1 SWAP2 SUB SWAP1 LOG1 PUSH0 PUSH2 0x2827 PUSH1 0x12 PUSH0 SWAP1 SLOAD SWAP1 PUSH2 0x100 EXP SWAP1 DIV PUSH8 0xFFFFFFFFFFFFFFFF AND DUP11 DUP11 PUSH2 0x1B43 JUMP JUMPDEST SWAP1 POP DUP6 PUSH1 0x18 PUSH0 DUP4 DUP2 MSTORE PUSH1 0x20 ADD SWAP1 DUP2 MSTORE PUSH1 0x20 ADD PUSH0 KECCAK256 DUP2 SWAP1 SSTORE POP DUP6 PUSH32 0xCD78C6782F8DF7053DAB6D63BAEE24AE10FB919661AFDC7FD6D25F33F05A9CB7 DUP11 DUP11 DUP5 PUSH1 0x40 MLOAD PUSH2 0x2873 SWAP4 SWAP3 SWAP2 SWAP1 PUSH2 0x7666 JUMP JUMPDEST PUSH1 0x40 MLOAD DUP1 SWAP2 SUB SWAP1 LOG2 POP PUSH2 0x28D9 JUMP JUMPDEST PUSH1 0x1 PUSH1 0x13 PUSH0 DUP8 DUP2 MSTORE PUSH1 0x20 ADD SWAP1 DUP2 MSTORE PUSH1 0x20 ADD PUSH0 KECCAK256 PUSH1 0x7 ADD PUSH0 PUSH2 0x100 EXP DUP2 SLOAD DUP2 PUSH1 0xFF MUL NOT AND SWAP1 DUP4 ISZERO ISZERO MUL OR SWAP1 SSTORE POP PUSH0 PUSH1 0x13 PUSH0 DUP8 DUP2 MSTORE PUSH1 0x20 ADD SWAP1 DUP2 MSTORE PUSH1 0x20 ADD PUSH0 KECCAK256 PUSH1 0x9 ADD PUSH0 PUSH2 0x100 EXP DUP2 SLOAD DUP2 PUSH1 0xFF MUL NOT AND SWAP1 DUP4 ISZERO ISZERO MUL OR SWAP1 SSTORE POP JUMPDEST DUP11 DUP13 PUSH20 0xFFFFFFFFFFFFFFFFFFFFFFFFFFFFFFFFFFFFFFFF AND DUP7 PUSH32 0xA37311F4098F313D5CD60CBD3D848E0674622CD802B858A6F78467BE78C69539 CALLER DUP15 DUP10 DUP10 DUP16 DUP16 PUSH1 0x40 MLOAD PUSH2 0x292B SWAP7 SWAP6 SWAP5 SWAP4 SWAP3 SWAP2 SWAP1 PUSH2 0x7696 JUMP JUMPDEST PUSH1 0x40 MLOAD DUP1 SWAP2 SUB SWAP1 LOG4 POP POP POP POP POP POP PUSH2 0x2941 PUSH2 0x431A JUMP JUMPDEST POP POP POP POP POP POP JUMP JUMPDEST PUSH32 0xAF290D8680820AAD922855F39B306097B20E28774D6C1AD35A20325630C3A02C PUSH0 SHL PUSH2 0x2975 DUP2 PUSH2 0x4271 JUMP JUMPDEST DUP2 PUSH1 0x17 DUP6 DUP6 PUSH1 0x40 MLOAD PUSH2 0x2988 SWAP3 SWAP2 SWAP1 PUSH2 0x7477 JUMP JUMPDEST SWAP1 DUP2 MSTORE PUSH1 0x20 ADD PUSH1 0x40 MLOAD DUP1 SWAP2 SUB SWAP1 KECCAK256 PUSH0 PUSH2 0x100 EXP DUP2 SLOAD DUP2 PUSH1 0xFF MUL NOT AND SWAP1 DUP4 PUSH1 0x4 DUP2 GT ISZERO PUSH2 0x29B7 JUMPI PUSH2 0x29B6 PUSH2 0x6A1D JUMP JUMPDEST JUMPDEST MUL OR SWAP1 SSTORE POP PUSH32 0x384A7354A96A31098438152E3BE618FCAFB335084CA123FBC6168A866F508241 DUP5 DUP5 DUP5 PUSH1 0x40 MLOAD PUSH2 0x29EF SWAP4 SWAP3 SWAP2 SWAP1 PUSH2 0x7636 JUMP JUMPDEST PUSH1 0x40 MLOAD DUP1 SWAP2 SUB SWAP1 LOG1 POP POP POP POP JUMP JUMPDEST PUSH2 0x2A05 PUSH2 0x4BAF JUMP JUMPDEST PUSH2 0x2A0E DUP3 PUSH2 0x4C95 JUMP JUMPDEST PUSH2 0x2A18 DUP3 DUP3 PUSH2 0x4CC5 JUMP JUMPDEST POP POP JUMP JUMPDEST PUSH0 PUSH2 0x2A25 PUSH2 0x4DE3 JUMP JUMPDEST PUSH32 0x360894A13BA1A3210667C828492DB98DCA3E2076CC3735A920A3CA505D382BBC PUSH0 SHL SWAP1 POP SWAP1 JUMP JUMPDEST PUSH0 PUSH0 PUSH1 0x14 PUSH0 DUP6 PUSH20 0xFFFFFFFFFFFFFFFFFFFFFFFFFFFFFFFFFFFFFFFF AND PUSH20 0xFFFFFFFFFFFFFFFFFFFFFFFFFFFFFFFFFFFFFFFF AND DUP2 MSTORE PUSH1 0x20 ADD SWAP1 DUP2 MSTORE PUSH1 0x20 ADD PUSH0 KECCAK256 PUSH0 DUP5 DUP2 MSTORE PUSH1 0x20 ADD SWAP1 DUP2 MSTORE PUSH1 0x20 ADD PUSH0 KECCAK256 SLOAD SWAP1 POP PUSH0 DUP2 SUB PUSH2 0x2AAE JUMPI PUSH0 SWAP2 POP POP PUSH2 0x2C87 JUMP JUMPDEST PUSH0 PUSH1 0x13 PUSH0 DUP4 DUP2 MSTORE PUSH1 0x20 ADD SWAP1 DUP2 MSTORE PUSH1 0x20 ADD PUSH0 KECCAK256 PUSH1 0x40 MLOAD DUP1 PUSH2 0x140 ADD PUSH1 0x40 MSTORE SWAP1 DUP2 PUSH0 DUP3 ADD SLOAD DUP2 MSTORE PUSH1 0x20 ADD PUSH1 0x1 DUP3 ADD PUSH0 SWAP1 SLOAD SWAP1 PUSH2 0x100 EXP SWAP1 DIV PUSH20 0xFFFFFFFFFFFFFFFFFFFFFFFFFFFFFFFFFFFFFFFF AND PUSH20 0xFFFFFFFFFFFFFFFFFFFFFFFFFFFFFFFFFFFFFFFF AND PUSH20 0xFFFFFFFFFFFFFFFFFFFFFFFFFFFFFFFFFFFFFFFF AND DUP2 MSTORE PUSH1 0x20 ADD PUSH1 0x2 DUP3 ADD SLOAD DUP2 MSTORE PUSH1 0x20 ADD PUSH1 0x3 DUP3 ADD PUSH0 SWAP1 SLOAD SWAP1 PUSH2 0x100 EXP SWAP1 DIV PUSH20 0xFFFFFFFFFFFFFFFFFFFFFFFFFFFFFFFFFFFFFFFF AND PUSH20 0xFFFFFFFFFFFFFFFFFFFFFFFFFFFFFFFFFFFFFFFF AND PUSH20 0xFFFFFFFFFFFFFFFFFFFFFFFFFFFFFFFFFFFFFFFF AND DUP2 MSTORE PUSH1 0x20 ADD PUSH1 0x4 DUP3 ADD SLOAD DUP2 MSTORE PUSH1 0x20 ADD PUSH1 0x5 DUP3 ADD SLOAD DUP2 MSTORE PUSH1 0x20 ADD PUSH1 0x6 DUP3 ADD SLOAD DUP2 MSTORE PUSH1 0x20 ADD PUSH1 0x7 DUP3 ADD PUSH0 SWAP1 SLOAD SWAP1 PUSH2 0x100 EXP SWAP1 DIV PUSH1 0xFF AND ISZERO ISZERO ISZERO ISZERO DUP2 MSTORE PUSH1 0x20 ADD PUSH1 0x8 DUP3 ADD DUP1 SLOAD PUSH2 0x2BD1 SWAP1 PUSH2 0x6E2F JUMP JUMPDEST DUP1 PUSH1 0x1F ADD PUSH1 0x20 DUP1 SWAP2 DIV MUL PUSH1 0x20 ADD PUSH1 0x40 MLOAD SWAP1 DUP2 ADD PUSH1 0x40 MSTORE DUP1 SWAP3 SWAP2 SWAP1 DUP2 DUP2 MSTORE PUSH1 0x20 ADD DUP3 DUP1 SLOAD PUSH2 0x2BFD SWAP1 PUSH2 0x6E2F JUMP JUMPDEST DUP1 ISZERO PUSH2 0x2C48 JUMPI DUP1 PUSH1 0x1F LT PUSH2 0x2C1F JUMPI PUSH2 0x100 DUP1 DUP4 SLOAD DIV MUL DUP4 MSTORE SWAP2 PUSH1 0x20 ADD SWAP2 PUSH2 0x2C48 JUMP JUMPDEST DUP3 ADD SWAP2 SWAP1 PUSH0 MSTORE PUSH1 0x20 PUSH0 KECCAK256 SWAP1 JUMPDEST DUP2 SLOAD DUP2 MSTORE SWAP1 PUSH1 0x1 ADD SWAP1 PUSH1 0x20 ADD DUP1 DUP4 GT PUSH2 0x2C2B JUMPI DUP3 SWAP1 SUB PUSH1 0x1F AND DUP3 ADD SWAP2 JUMPDEST POP POP POP POP POP DUP2 MSTORE PUSH1 0x20 ADD PUSH1 0x9 DUP3 ADD PUSH0 SWAP1 SLOAD SWAP1 PUSH2 0x100 EXP SWAP1 DIV PUSH1 0xFF AND ISZERO ISZERO ISZERO ISZERO DUP2 MSTORE POP POP SWAP1 POP DUP1 PUSH1 0xE0 ADD MLOAD DUP1 ISZERO PUSH2 0x2C82 JUMPI POP DUP1 PUSH1 0xC0 ADD MLOAD TIMESTAMP GT ISZERO JUMPDEST SWAP3 POP POP POP JUMPDEST SWAP3 SWAP2 POP POP JUMP JUMPDEST PUSH0 PUSH1 0x7 DUP4 DUP4 PUSH1 0x40 MLOAD PUSH2 0x2CA0 SWAP3 SWAP2 SWAP1 PUSH2 0x7477 JUMP JUMPDEST SWAP1 DUP2 MSTORE PUSH1 0x20 ADD PUSH1 0x40 MLOAD DUP1 SWAP2 SUB SWAP1 KECCAK256 PUSH0 SWAP1 SLOAD SWAP1 PUSH2 0x100 EXP SWAP1 DIV PUSH1 0xFF AND SWAP1 POP SWAP3 SWAP2 POP POP JUMP JUMPDEST PUSH0 PUSH0 PUSH2 0x2CCD PUSH2 0x4E6A JUMP JUMPDEST SWAP1 POP DUP1 PUSH0 ADD PUSH0 SWAP1 SLOAD SWAP1 PUSH2 0x100 EXP SWAP1 DIV PUSH1 0xFF AND SWAP2 POP POP SWAP1 JUMP JUMPDEST PUSH1 0x6 SLOAD DUP2 JUMP JUMPDEST PUSH1 0x14 PUSH1 0x20 MSTORE DUP2 PUSH0 MSTORE PUSH1 0x40 PUSH0 KECCAK256 PUSH1 0x20 MSTORE DUP1 PUSH0 MSTORE PUSH1 0x40 PUSH0 KECCAK256 PUSH0 SWAP2 POP SWAP2 POP POP SLOAD DUP2 JUMP JUMPDEST PUSH0 PUSH2 0x2D14 PUSH2 0x4450 JUMP JUMPDEST PUSH2 0x2D1C PUSH2 0x5F1A JUMP JUMPDEST PUSH2 0x2DB7 PUSH1 0xB DUP1 SLOAD PUSH2 0x2D2C SWAP1 PUSH2 0x6E2F JUMP JUMPDEST DUP1 PUSH1 0x1F ADD PUSH1 0x20 DUP1 SWAP2 DIV MUL PUSH1 0x20 ADD PUSH1 0x40 MLOAD SWAP1 DUP2 ADD PUSH1 0x40 MSTORE DUP1 SWAP3 SWAP2 SWAP1 DUP2 DUP2 MSTORE PUSH1 0x20 ADD DUP3 DUP1 SLOAD PUSH2 0x2D58 SWAP1 PUSH2 0x6E2F JUMP JUMPDEST DUP1 ISZERO PUSH2 0x2DA3 JUMPI DUP1 PUSH1 0x1F LT PUSH2 0x2D7A JUMPI PUSH2 0x100 DUP1 DUP4 SLOAD DIV MUL DUP4 MSTORE SWAP2 PUSH1 0x20 ADD SWAP2 PUSH2 0x2DA3 JUMP JUMPDEST DUP3 ADD SWAP2 SWAP1 PUSH0 MSTORE PUSH1 0x20 PUSH0 KECCAK256 SWAP1 JUMPDEST DUP2 SLOAD DUP2 MSTORE SWAP1 PUSH1 0x1 ADD SWAP1 PUSH1 0x20 ADD DUP1 DUP4 GT PUSH2 0x2D86 JUMPI DUP3 SWAP1 SUB PUSH1 0x1F AND DUP3 ADD SWAP2 JUMPDEST POP POP POP POP POP DUP3 PUSH2 0x44E0 SWAP1 SWAP2 SWAP1 PUSH4 0xFFFFFFFF AND JUMP JUMPDEST PUSH0 DUP5 DUP5 SWAP1 POP GT ISZERO PUSH2 0x2DE2 JUMPI PUSH2 0x2DE1 DUP5 DUP5 SWAP1 PUSH2 0x2DD2 SWAP2 SWAP1 PUSH2 0x77A1 JUMP JUMPDEST DUP3 PUSH2 0x44F0 SWAP1 SWAP2 SWAP1 PUSH4 0xFFFFFFFF AND JUMP JUMPDEST JUMPDEST PUSH2 0x2E1B PUSH2 0x2DEE DUP3 PUSH2 0x4537 JUMP JUMPDEST DUP7 PUSH3 0x493E0 PUSH32 0x66756E2D657468657265756D2D7365706F6C69612D3100000000000000000000 PUSH0 SHL PUSH2 0x4942 JUMP JUMPDEST PUSH1 0x3 DUP2 SWAP1 SSTORE POP PUSH1 0x3 SLOAD SWAP2 POP POP SWAP4 SWAP3 POP POP POP JUMP JUMPDEST PUSH1 0x1 PUSH0 SWAP1 SLOAD SWAP1 PUSH2 0x100 EXP SWAP1 DIV PUSH20 0xFFFFFFFFFFFFFFFFFFFFFFFFFFFFFFFFFFFFFFFF AND PUSH20 0xFFFFFFFFFFFFFFFFFFFFFFFFFFFFFFFFFFFFFFFF AND CALLER PUSH20 0xFFFFFFFFFFFFFFFFFFFFFFFFFFFFFFFFFFFFFFFF AND EQ PUSH2 0x2EBD JUMPI PUSH1 0x40 MLOAD PUSH32 0x8C379A000000000000000000000000000000000000000000000000000000000 DUP2 MSTORE PUSH1 0x4 ADD PUSH2 0x2EB4 SWAP1 PUSH2 0x77FF JUMP JUMPDEST PUSH1 0x40 MLOAD DUP1 SWAP2 SUB SWAP1 REVERT JUMPDEST PUSH0 PUSH0 PUSH0 SWAP1 SLOAD SWAP1 PUSH2 0x100 EXP SWAP1 DIV PUSH20 0xFFFFFFFFFFFFFFFFFFFFFFFFFFFFFFFFFFFFFFFF AND SWAP1 POP CALLER PUSH0 PUSH0 PUSH2 0x100 EXP DUP2 SLOAD DUP2 PUSH20 0xFFFFFFFFFFFFFFFFFFFFFFFFFFFFFFFFFFFFFFFF MUL NOT AND SWAP1 DUP4 PUSH20 0xFFFFFFFFFFFFFFFFFFFFFFFFFFFFFFFFFFFFFFFF AND MUL OR SWAP1 SSTORE POP PUSH0 PUSH1 0x1 PUSH0 PUSH2 0x100 EXP DUP2 SLOAD DUP2 PUSH20 0xFFFFFFFFFFFFFFFFFFFFFFFFFFFFFFFFFFFFFFFF MUL NOT AND SWAP1 DUP4 PUSH20 0xFFFFFFFFFFFFFFFFFFFFFFFFFFFFFFFFFFFFFFFF AND MUL OR SWAP1 SSTORE POP CALLER PUSH20 0xFFFFFFFFFFFFFFFFFFFFFFFFFFFFFFFFFFFFFFFF AND DUP2 PUSH20 0xFFFFFFFFFFFFFFFFFFFFFFFFFFFFFFFFFFFFFFFF AND PUSH32 0x8BE0079C531659141344CD1FD0A4F28419497F9722A3DAAFE3B4186F6B6457E0 PUSH1 0x40 MLOAD PUSH1 0x40 MLOAD DUP1 SWAP2 SUB SWAP1 LOG3 POP JUMP JUMPDEST PUSH32 0xAF290D8680820AAD922855F39B306097B20E28774D6C1AD35A20325630C3A02C PUSH0 SHL PUSH2 0x2FE9 DUP2 PUSH2 0x4271 JUMP JUMPDEST PUSH2 0x2FF1 PUSH2 0x4E91 JUMP JUMPDEST POP JUMP JUMPDEST PUSH1 0xE SLOAD DUP2 JUMP JUMPDEST PUSH0 PUSH0 PUSH0 SWAP1 SLOAD SWAP1 PUSH2 0x100 EXP SWAP1 DIV PUSH20 0xFFFFFFFFFFFFFFFFFFFFFFFFFFFFFFFFFFFFFFFF AND SWAP1 POP SWAP1 JUMP JUMPDEST PUSH1 0x60 PUSH0 PUSH0 PUSH1 0x13 PUSH0 DUP6 DUP2 MSTORE PUSH1 0x20 ADD SWAP1 DUP2 MSTORE PUSH1 0x20 ADD PUSH0 KECCAK256 PUSH1 0x40 MLOAD DUP1 PUSH2 0x140 ADD PUSH1 0x40 MSTORE SWAP1 DUP2 PUSH0 DUP3 ADD SLOAD DUP2 MSTORE PUSH1 0x20 ADD PUSH1 0x1 DUP3 ADD PUSH0 SWAP1 SLOAD SWAP1 PUSH2 0x100 EXP SWAP1 DIV PUSH20 0xFFFFFFFFFFFFFFFFFFFFFFFFFFFFFFFFFFFFFFFF AND PUSH20 0xFFFFFFFFFFFFFFFFFFFFFFFFFFFFFFFFFFFFFFFF AND PUSH20 0xFFFFFFFFFFFFFFFFFFFFFFFFFFFFFFFFFFFFFFFF AND DUP2 MSTORE PUSH1 0x20 ADD PUSH1 0x2 DUP3 ADD SLOAD DUP2 MSTORE PUSH1 0x20 ADD PUSH1 0x3 DUP3 ADD PUSH0 SWAP1 SLOAD SWAP1 PUSH2 0x100 EXP SWAP1 DIV PUSH20 0xFFFFFFFFFFFFFFFFFFFFFFFFFFFFFFFFFFFFFFFF AND PUSH20 0xFFFFFFFFFFFFFFFFFFFFFFFFFFFFFFFFFFFFFFFF AND PUSH20 0xFFFFFFFFFFFFFFFFFFFFFFFFFFFFFFFFFFFFFFFF AND DUP2 MSTORE PUSH1 0x20 ADD PUSH1 0x4 DUP3 ADD SLOAD DUP2 MSTORE PUSH1 0x20 ADD PUSH1 0x5 DUP3 ADD SLOAD DUP2 MSTORE PUSH1 0x20 ADD PUSH1 0x6 DUP3 ADD SLOAD DUP2 MSTORE PUSH1 0x20 ADD PUSH1 0x7 DUP3 ADD PUSH0 SWAP1 SLOAD SWAP1 PUSH2 0x100 EXP SWAP1 DIV PUSH1 0xFF AND ISZERO ISZERO ISZERO ISZERO DUP2 MSTORE PUSH1 0x20 ADD PUSH1 0x8 DUP3 ADD DUP1 SLOAD PUSH2 0x3147 SWAP1 PUSH2 0x6E2F JUMP JUMPDEST DUP1 PUSH1 0x1F ADD PUSH1 0x20 DUP1 SWAP2 DIV MUL PUSH1 0x20 ADD PUSH1 0x40 MLOAD SWAP1 DUP2 ADD PUSH1 0x40 MSTORE DUP1 SWAP3 SWAP2 SWAP1 DUP2 DUP2 MSTORE PUSH1 0x20 ADD DUP3 DUP1 SLOAD PUSH2 0x3173 SWAP1 PUSH2 0x6E2F JUMP JUMPDEST DUP1 ISZERO PUSH2 0x31BE JUMPI DUP1 PUSH1 0x1F LT PUSH2 0x3195 JUMPI PUSH2 0x100 DUP1 DUP4 SLOAD DIV MUL DUP4 MSTORE SWAP2 PUSH1 0x20 ADD SWAP2 PUSH2 0x31BE JUMP JUMPDEST DUP3 ADD SWAP2 SWAP1 PUSH0 MSTORE PUSH1 0x20 PUSH0 KECCAK256 SWAP1 JUMPDEST DUP2 SLOAD DUP2 MSTORE SWAP1 PUSH1 0x1 ADD SWAP1 PUSH1 0x20 ADD DUP1 DUP4 GT PUSH2 0x31A1 JUMPI DUP3 SWAP1 SUB PUSH1 0x1F AND DUP3 ADD SWAP2 JUMPDEST POP POP POP POP POP DUP2 MSTORE PUSH1 0x20 ADD PUSH1 0x9 DUP3 ADD PUSH0 SWAP1 SLOAD SWAP1 PUSH2 0x100 EXP SWAP1 DIV PUSH1 0xFF AND ISZERO ISZERO ISZERO ISZERO DUP2 MSTORE POP POP SWAP1 POP DUP1 PUSH2 0x100 ADD MLOAD SWAP3 POP PUSH0 DUP4 MLOAD GT ISZERO PUSH2 0x3222 JUMPI PUSH1 0x17 DUP4 PUSH1 0x40 MLOAD PUSH2 0x3204 SWAP2 SWAP1 PUSH2 0x784D JUMP JUMPDEST SWAP1 DUP2 MSTORE PUSH1 0x20 ADD PUSH1 0x40 MLOAD DUP1 SWAP2 SUB SWAP1 KECCAK256 PUSH0 SWAP1 SLOAD SWAP1 PUSH2 0x100 EXP SWAP1 DIV PUSH1 0xFF AND SWAP2 POP JUMPDEST POP SWAP2 POP SWAP2 JUMP JUMPDEST PUSH0 PUSH0 PUSH2 0x3232 PUSH2 0x4331 JUMP JUMPDEST SWAP1 POP DUP1 PUSH0 ADD PUSH0 DUP6 DUP2 MSTORE PUSH1 0x20 ADD SWAP1 DUP2 MSTORE PUSH1 0x20 ADD PUSH0 KECCAK256 PUSH0 ADD PUSH0 DUP5 PUSH20 0xFFFFFFFFFFFFFFFFFFFFFFFFFFFFFFFFFFFFFFFF AND PUSH20 0xFFFFFFFFFFFFFFFFFFFFFFFFFFFFFFFFFFFFFFFF AND DUP2 MSTORE PUSH1 0x20 ADD SWAP1 DUP2 MSTORE PUSH1 0x20 ADD PUSH0 KECCAK256 PUSH0 SWAP1 SLOAD SWAP1 PUSH2 0x100 EXP SWAP1 DIV PUSH1 0xFF AND SWAP2 POP POP SWAP3 SWAP2 POP POP JUMP JUMPDEST PUSH1 0x10 SLOAD DUP2 JUMP JUMPDEST PUSH1 0x17 DUP2 DUP1 MLOAD PUSH1 0x20 DUP2 ADD DUP3 ADD DUP1 MLOAD DUP5 DUP3 MSTORE PUSH1 0x20 DUP4 ADD PUSH1 0x20 DUP6 ADD KECCAK256 DUP2 DUP4 MSTORE DUP1 SWAP6 POP POP POP POP POP POP PUSH0 SWAP2 POP SLOAD SWAP1 PUSH2 0x100 EXP SWAP1 DIV PUSH1 0xFF AND DUP2 JUMP JUMPDEST PUSH0 PUSH0 SHL DUP2 JUMP JUMPDEST PUSH0 PUSH2 0x32E3 PUSH2 0x4F00 JUMP JUMPDEST SWAP1 POP PUSH0 DUP2 PUSH0 ADD PUSH1 0x8 SWAP1 SLOAD SWAP1 PUSH2 0x100 EXP SWAP1 DIV PUSH1 0xFF AND ISZERO SWAP1 POP PUSH0 DUP3 PUSH0 ADD PUSH0 SWAP1 SLOAD SWAP1 PUSH2 0x100 EXP SWAP1 DIV PUSH8 0xFFFFFFFFFFFFFFFF AND SWAP1 POP PUSH0 PUSH0 DUP3 PUSH8 0xFFFFFFFFFFFFFFFF AND EQ DUP1 ISZERO PUSH2 0x332B JUMPI POP DUP3 JUMPDEST SWAP1 POP PUSH0 PUSH1 0x1 DUP4 PUSH8 0xFFFFFFFFFFFFFFFF AND EQ DUP1 ISZERO PUSH2 0x335E JUMPI POP PUSH0 ADDRESS PUSH20 0xFFFFFFFFFFFFFFFFFFFFFFFFFFFFFFFFFFFFFFFF AND EXTCODESIZE EQ JUMPDEST SWAP1 POP DUP2 ISZERO DUP1 ISZERO PUSH2 0x336C JUMPI POP DUP1 ISZERO JUMPDEST ISZERO PUSH2 0x33A3 JUMPI PUSH1 0x40 MLOAD PUSH32 0xF92EE8A900000000000000000000000000000000000000000000000000000000 DUP2 MSTORE PUSH1 0x4 ADD PUSH1 0x40 MLOAD DUP1 SWAP2 SUB SWAP1 REVERT JUMPDEST PUSH1 0x1 DUP6 PUSH0 ADD PUSH0 PUSH2 0x100 EXP DUP2 SLOAD DUP2 PUSH8 0xFFFFFFFFFFFFFFFF MUL NOT AND SWAP1 DUP4 PUSH8 0xFFFFFFFFFFFFFFFF AND MUL OR SWAP1 SSTORE POP DUP4 ISZERO PUSH2 0x33F0 JUMPI PUSH1 0x1 DUP6 PUSH0 ADD PUSH1 0x8 PUSH2 0x100 EXP DUP2 SLOAD DUP2 PUSH1 0xFF MUL NOT AND SWAP1 DUP4 ISZERO ISZERO MUL OR SWAP1 SSTORE POP JUMPDEST PUSH0 PUSH20 0xFFFFFFFFFFFFFFFFFFFFFFFFFFFFFFFFFFFFFFFF AND DUP12 PUSH20 0xFFFFFFFFFFFFFFFFFFFFFFFFFFFFFFFFFFFFFFFF AND SUB PUSH2 0x3455 JUMPI PUSH1 0x40 MLOAD PUSH32 0xD92E233D00000000000000000000000000000000000000000000000000000000 DUP2 MSTORE PUSH1 0x4 ADD PUSH1 0x40 MLOAD DUP1 SWAP2 SUB SWAP1 REVERT JUMPDEST PUSH2 0x3E8 DUP11 GT ISZERO PUSH2 0x3491 JUMPI PUSH1 0x40 MLOAD PUSH32 0x8A81D3B300000000000000000000000000000000000000000000000000000000 DUP2 MSTORE PUSH1 0x4 ADD PUSH1 0x40 MLOAD DUP1 SWAP2 SUB SWAP1 REVERT JUMPDEST PUSH0 DUP10 EQ DUP1 PUSH2 0x349F JUMPI POP DUP9 DUP9 GT ISZERO JUMPDEST ISZERO PUSH2 0x34D6 JUMPI PUSH1 0x40 MLOAD PUSH32 0x7616640100000000000000000000000000000000000000000000000000000000 DUP2 MSTORE PUSH1 0x4 ADD PUSH1 0x40 MLOAD DUP1 SWAP2 SUB SWAP1 REVERT JUMPDEST PUSH2 0x34DE PUSH2 0x4F13 JUMP JUMPDEST PUSH2 0x34E6 PUSH2 0x4F94 JUMP JUMPDEST PUSH2 0x34EE PUSH2 0x4FA6 JUMP JUMPDEST PUSH2 0x34F7 DUP8 PUSH2 0x4FB0 JUMP JUMPDEST PUSH2 0x3500 CALLER PUSH2 0x4FF3 JUMP JUMPDEST DUP11 PUSH1 0xF PUSH0 PUSH2 0x100 EXP DUP2 SLOAD DUP2 PUSH20 0xFFFFFFFFFFFFFFFFFFFFFFFFFFFFFFFFFFFFFFFF MUL NOT AND SWAP1 DUP4 PUSH20 0xFFFFFFFFFFFFFFFFFFFFFFFFFFFFFFFFFFFFFFFF AND MUL OR SWAP1 SSTORE POP DUP10 PUSH1 0xE DUP2 SWAP1 SSTORE POP DUP9 PUSH1 0x10 DUP2 SWAP1 SSTORE POP DUP8 PUSH1 0x11 DUP2 SWAP1 SSTORE POP DUP6 PUSH1 0x12 PUSH0 PUSH2 0x100 EXP DUP2 SLOAD DUP2 PUSH8 0xFFFFFFFFFFFFFFFF MUL NOT AND SWAP1 DUP4 PUSH8 0xFFFFFFFFFFFFFFFF AND MUL OR SWAP1 SSTORE POP DUP4 ISZERO PUSH2 0x35D7 JUMPI PUSH0 DUP6 PUSH0 ADD PUSH1 0x8 PUSH2 0x100 EXP DUP2 SLOAD DUP2 PUSH1 0xFF MUL NOT AND SWAP1 DUP4 ISZERO ISZERO MUL OR SWAP1 SSTORE POP PUSH32 0xC7F505B2F371AE2175EE4913F4499E1F2633A7B5936321EED1CDAEB6115181D2 PUSH1 0x1 PUSH1 0x40 MLOAD PUSH2 0x35CE SWAP2 SWAP1 PUSH2 0x789C JUMP JUMPDEST PUSH1 0x40 MLOAD DUP1 SWAP2 SUB SWAP1 LOG1 JUMPDEST POP POP POP POP POP POP POP POP POP POP POP JUMP JUMPDEST PUSH0 PUSH2 0x35ED PUSH2 0x50A3 JUMP JUMPDEST SWAP1 POP SWAP1 JUMP JUMPDEST PUSH1 0x40 MLOAD DUP1 PUSH1 0x40 ADD PUSH1 0x40 MSTORE DUP1 PUSH1 0x5 DUP2 MSTORE PUSH1 0x20 ADD PUSH32 0x352E302E30000000000000000000000000000000000000000000000000000000 DUP2 MSTORE POP DUP2 JUMP JUMPDEST PUSH1 0x7 DUP2 DUP1 MLOAD PUSH1 0x20 DUP2 ADD DUP3 ADD DUP1 MLOAD DUP5 DUP3 MSTORE PUSH1 0x20 DUP4 ADD PUSH1 0x20 DUP6 ADD KECCAK256 DUP2 DUP4 MSTORE DUP1 SWAP6 POP POP POP POP POP POP PUSH0 SWAP2 POP SLOAD SWAP1 PUSH2 0x100 EXP SWAP1 DIV PUSH1 0xFF AND DUP2 JUMP JUMPDEST PUSH1 0x3 SLOAD DUP2 JUMP JUMPDEST PUSH32 0xAF290D8680820AAD922855F39B306097B20E28774D6C1AD35A20325630C3A02C PUSH0 SHL PUSH2 0x3692 DUP2 PUSH2 0x4271 JUMP JUMPDEST PUSH0 DUP4 EQ DUP1 PUSH2 0x36A0 JUMPI POP DUP3 DUP3 GT ISZERO JUMPDEST ISZERO PUSH2 0x36D7 JUMPI PUSH1 0x40 MLOAD PUSH32 0x7616640100000000000000000000000000000000000000000000000000000000 DUP2 MSTORE PUSH1 0x4 ADD PUSH1 0x40 MLOAD DUP1 SWAP2 SUB SWAP1 REVERT JUMPDEST DUP3 PUSH1 0x10 DUP2 SWAP1 SSTORE POP DUP2 PUSH1 0x11 DUP2 SWAP1 SSTORE POP POP POP POP JUMP JUMPDEST PUSH1 0x15 PUSH1 0x20 MSTORE DUP1 PUSH0 MSTORE PUSH1 0x40 PUSH0 KECCAK256 PUSH0 SWAP2 POP SLOAD SWAP1 PUSH2 0x100 EXP SWAP1 DIV PUSH1 0xFF AND DUP2 JUMP JUMPDEST PUSH0 PUSH2 0x3712 PUSH1 0xD PUSH2 0x4BA3 JUMP JUMPDEST SWAP1 POP SWAP1 JUMP JUMPDEST PUSH32 0xAF290D8680820AAD922855F39B306097B20E28774D6C1AD35A20325630C3A02C PUSH0 SHL PUSH2 0x3743 DUP2 PUSH2 0x4271 JUMP JUMPDEST PUSH0 PUSH1 0x13 PUSH0 DUP5 DUP2 MSTORE PUSH1 0x20 ADD SWAP1 DUP2 MSTORE PUSH1 0x20 ADD PUSH0 KECCAK256 SWAP1 POP PUSH0 DUP2 PUSH0 ADD SLOAD SUB PUSH2 0x3793 JUMPI PUSH1 0x40 MLOAD PUSH32 0x7E43E63800000000000000000000000000000000000000000000000000000000 DUP2 MSTORE PUSH1 0x4 ADD PUSH1 0x40 MLOAD DUP1 SWAP2 SUB SWAP1 REVERT JUMPDEST PUSH0 DUP2 PUSH1 0x7 ADD PUSH0 PUSH2 0x100 EXP DUP2 SLOAD DUP2 PUSH1 0xFF MUL NOT AND SWAP1 DUP4 ISZERO ISZERO MUL OR SWAP1 SSTORE POP PUSH0 PUSH1 0x14 PUSH0 DUP4 PUSH1 0x1 ADD PUSH0 SWAP1 SLOAD SWAP1 PUSH2 0x100 EXP SWAP1 DIV PUSH20 0xFFFFFFFFFFFFFFFFFFFFFFFFFFFFFFFFFFFFFFFF AND PUSH20 0xFFFFFFFFFFFFFFFFFFFFFFFFFFFFFFFFFFFFFFFF AND PUSH20 0xFFFFFFFFFFFFFFFFFFFFFFFFFFFFFFFFFFFFFFFF AND DUP2 MSTORE PUSH1 0x20 ADD SWAP1 DUP2 MSTORE PUSH1 0x20 ADD PUSH0 KECCAK256 PUSH0 DUP4 PUSH1 0x2 ADD SLOAD DUP2 MSTORE PUSH1 0x20 ADD SWAP1 DUP2 MSTORE PUSH1 0x20 ADD PUSH0 KECCAK256 DUP2 SWAP1 SSTORE POP PUSH0 DUP2 PUSH1 0x8 ADD DUP1 SLOAD PUSH2 0x3836 SWAP1 PUSH2 0x6E2F JUMP JUMPDEST SWAP1 POP GT ISZERO PUSH2 0x38C5 JUMPI PUSH1 0x4 PUSH1 0x17 DUP3 PUSH1 0x8 ADD PUSH1 0x40 MLOAD PUSH2 0x3853 SWAP2 SWAP1 PUSH2 0x6F3A JUMP JUMPDEST SWAP1 DUP2 MSTORE PUSH1 0x20 ADD PUSH1 0x40 MLOAD DUP1 SWAP2 SUB SWAP1 KECCAK256 PUSH0 PUSH2 0x100 EXP DUP2 SLOAD DUP2 PUSH1 0xFF MUL NOT AND SWAP1 DUP4 PUSH1 0x4 DUP2 GT ISZERO PUSH2 0x3882 JUMPI PUSH2 0x3881 PUSH2 0x6A1D JUMP JUMPDEST JUMPDEST MUL OR SWAP1 SSTORE POP PUSH32 0x384A7354A96A31098438152E3BE618FCAFB335084CA123FBC6168A866F508241 DUP2 PUSH1 0x8 ADD PUSH1 0x4 PUSH1 0x40 MLOAD PUSH2 0x38BC SWAP3 SWAP2 SWAP1 PUSH2 0x6FD1 JUMP JUMPDEST PUSH1 0x40 MLOAD DUP1 SWAP2 SUB SWAP1 LOG1 JUMPDEST DUP1 PUSH1 0x3 ADD PUSH0 SWAP1 SLOAD SWAP1 PUSH2 0x100 EXP SWAP1 DIV PUSH20 0xFFFFFFFFFFFFFFFFFFFFFFFFFFFFFFFFFFFFFFFF AND PUSH20 0xFFFFFFFFFFFFFFFFFFFFFFFFFFFFFFFFFFFFFFFF AND DUP4 PUSH32 0x8E25282255AB31897DF2B0456BB993AC7F84D376861AEFD84901D2D63A7428A2 PUSH1 0x40 MLOAD PUSH1 0x40 MLOAD DUP1 SWAP2 SUB SWAP1 LOG3 POP POP POP JUMP JUMPDEST PUSH2 0x393A DUP3 PUSH2 0x1846 JUMP JUMPDEST PUSH2 0x3943 DUP2 PUSH2 0x4271 JUMP JUMPDEST PUSH2 0x394D DUP4 DUP4 PUSH2 0x4A29 JUMP JUMPDEST POP POP POP POP JUMP JUMPDEST PUSH1 0x13 PUSH1 0x20 MSTORE DUP1 PUSH0 MSTORE PUSH1 0x40 PUSH0 KECCAK256 PUSH0 SWAP2 POP SWAP1 POP DUP1 PUSH0 ADD SLOAD SWAP1 DUP1 PUSH1 0x1 ADD PUSH0 SWAP1 SLOAD SWAP1 PUSH2 0x100 EXP SWAP1 DIV PUSH20 0xFFFFFFFFFFFFFFFFFFFFFFFFFFFFFFFFFFFFFFFF AND SWAP1 DUP1 PUSH1 0x2 ADD SLOAD SWAP1 DUP1 PUSH1 0x3 ADD PUSH0 SWAP1 SLOAD SWAP1 PUSH2 0x100 EXP SWAP1 DIV PUSH20 0xFFFFFFFFFFFFFFFFFFFFFFFFFFFFFFFFFFFFFFFF AND SWAP1 DUP1 PUSH1 0x4 ADD SLOAD SWAP1 DUP1 PUSH1 0x5 ADD SLOAD SWAP1 DUP1 PUSH1 0x6 ADD SLOAD SWAP1 DUP1 PUSH1 0x7 ADD PUSH0 SWAP1 SLOAD SWAP1 PUSH2 0x100 EXP SWAP1 DIV PUSH1 0xFF AND SWAP1 DUP1 PUSH1 0x8 ADD DUP1 SLOAD PUSH2 0x39EC SWAP1 PUSH2 0x6E2F JUMP JUMPDEST DUP1 PUSH1 0x1F ADD PUSH1 0x20 DUP1 SWAP2 DIV MUL PUSH1 0x20 ADD PUSH1 0x40 MLOAD SWAP1 DUP2 ADD PUSH1 0x40 MSTORE DUP1 SWAP3 SWAP2 SWAP1 DUP2 DUP2 MSTORE PUSH1 0x20 ADD DUP3 DUP1 SLOAD PUSH2 0x3A18 SWAP1 PUSH2 0x6E2F JUMP JUMPDEST DUP1 ISZERO PUSH2 0x3A63 JUMPI DUP1 PUSH1 0x1F LT PUSH2 0x3A3A JUMPI PUSH2 0x100 DUP1 DUP4 SLOAD DIV MUL DUP4 MSTORE SWAP2 PUSH1 0x20 ADD SWAP2 PUSH2 0x3A63 JUMP JUMPDEST DUP3 ADD SWAP2 SWAP1 PUSH0 MSTORE PUSH1 0x20 PUSH0 KECCAK256 SWAP1 JUMPDEST DUP2 SLOAD DUP2 MSTORE SWAP1 PUSH1 0x1 ADD SWAP1 PUSH1 0x20 ADD DUP1 DUP4 GT PUSH2 0x3A46 JUMPI DUP3 SWAP1 SUB PUSH1 0x1F AND DUP3 ADD SWAP2 JUMPDEST POP POP POP POP POP SWAP1 DUP1 PUSH1 0x9 ADD PUSH0 SWAP1 SLOAD SWAP1 PUSH2 0x100 EXP SWAP1 DIV PUSH1 0xFF AND SWAP1 POP DUP11 JUMP JUMPDEST PUSH1 0x11 SLOAD DUP2 JUMP JUMPDEST PUSH32 0xAF290D8680820AAD922855F39B306097B20E28774D6C1AD35A20325630C3A02C PUSH0 SHL PUSH2 0x3AB1 DUP2 PUSH2 0x4271 JUMP JUMPDEST PUSH0 PUSH20 0xFFFFFFFFFFFFFFFFFFFFFFFFFFFFFFFFFFFFFFFF AND DUP3 PUSH20 0xFFFFFFFFFFFFFFFFFFFFFFFFFFFFFFFFFFFFFFFF AND SUB PUSH2 0x3B16 JUMPI PUSH1 0x40 MLOAD PUSH32 0xD92E233D00000000000000000000000000000000000000000000000000000000 DUP2 MSTORE PUSH1 0x4 ADD PUSH1 0x40 MLOAD DUP1 SWAP2 SUB SWAP1 REVERT JUMPDEST DUP2 PUSH1 0xF PUSH0 PUSH2 0x100 EXP DUP2 SLOAD DUP2 PUSH20 0xFFFFFFFFFFFFFFFFFFFFFFFFFFFFFFFFFFFFFFFF MUL NOT AND SWAP1 DUP4 PUSH20 0xFFFFFFFFFFFFFFFFFFFFFFFFFFFFFFFFFFFFFFFF AND MUL OR SWAP1 SSTORE POP PUSH32 0x7A7B5A0A132F9E0581EB8527F66EAE9EE89C2A3E79D4AC7E41A1F1F4D48A7FC2 DUP3 PUSH1 0x40 MLOAD PUSH2 0x3B85 SWAP2 SWAP1 PUSH2 0x66E9 JUMP JUMPDEST PUSH1 0x40 MLOAD DUP1 SWAP2 SUB SWAP1 LOG1 POP POP JUMP JUMPDEST PUSH32 0xAF290D8680820AAD922855F39B306097B20E28774D6C1AD35A20325630C3A02C PUSH0 SHL PUSH2 0x3BBD DUP2 PUSH2 0x4271 JUMP JUMPDEST DUP2 PUSH1 0x12 PUSH0 PUSH2 0x100 EXP DUP2 SLOAD DUP2 PUSH8 0xFFFFFFFFFFFFFFFF MUL NOT AND SWAP1 DUP4 PUSH8 0xFFFFFFFFFFFFFFFF AND MUL OR SWAP1 SSTORE POP POP POP JUMP JUMPDEST PUSH1 0x18 PUSH1 0x20 MSTORE DUP1 PUSH0 MSTORE PUSH1 0x40 PUSH0 KECCAK256 PUSH0 SWAP2 POP SWAP1 POP SLOAD DUP2 JUMP JUMPDEST PUSH2 0x3C06 PUSH2 0x4450 JUMP JUMPDEST PUSH2 0x3C0F DUP2 PUSH2 0x50F6 JUMP JUMPDEST POP JUMP JUMPDEST PUSH32 0xAF290D8680820AAD922855F39B306097B20E28774D6C1AD35A20325630C3A02C PUSH0 SHL PUSH2 0x3C3E DUP2 PUSH2 0x4271 JUMP JUMPDEST DUP2 PUSH1 0x15 PUSH0 DUP6 PUSH20 0xFFFFFFFFFFFFFFFFFFFFFFFFFFFFFFFFFFFFFFFF AND PUSH20 0xFFFFFFFFFFFFFFFFFFFFFFFFFFFFFFFFFFFFFFFF AND DUP2 MSTORE PUSH1 0x20 ADD SWAP1 DUP2 MSTORE PUSH1 0x20 ADD PUSH0 KECCAK256 PUSH0 PUSH2 0x100 EXP DUP2 SLOAD DUP2 PUSH1 0xFF MUL NOT AND SWAP1 DUP4 ISZERO ISZERO MUL OR SWAP1 SSTORE POP PUSH32 0xC02821A0733520ED1FF655355F8788CF0DEC3EE597DD68C29A5E03FCD2519C70 DUP4 DUP4 PUSH1 0x40 MLOAD PUSH2 0x3CC3 SWAP3 SWAP2 SWAP1 PUSH2 0x78B5 JUMP JUMPDEST PUSH1 0x40 MLOAD DUP1 SWAP2 SUB SWAP1 LOG1 POP POP POP JUMP JUMPDEST PUSH1 0x8 DUP1 SLOAD PUSH2 0x3CDD SWAP1 PUSH2 0x6E2F JUMP JUMPDEST DUP1 PUSH1 0x1F ADD PUSH1 0x20 DUP1 SWAP2 DIV MUL PUSH1 0x20 ADD PUSH1 0x40 MLOAD SWAP1 DUP2 ADD PUSH1 0x40 MSTORE DUP1 SWAP3 SWAP2 SWAP1 DUP2 DUP2 MSTORE PUSH1 0x20 ADD DUP3 DUP1 SLOAD PUSH2 0x3D09 SWAP1 PUSH2 0x6E2F JUMP JUMPDEST DUP1 ISZERO PUSH2 0x3D54 JUMPI DUP1 PUSH1 0x1F LT PUSH2 0x3D2B JUMPI PUSH2 0x100 DUP1 DUP4 SLOAD DIV MUL DUP4 MSTORE SWAP2 PUSH1 0x20 ADD SWAP2 PUSH2 0x3D54 JUMP JUMPDEST DUP3 ADD SWAP2 SWAP1 PUSH0 MSTORE PUSH1 0x20 PUSH0 KECCAK256 SWAP1 JUMPDEST DUP2 SLOAD DUP2 MSTORE SWAP1 PUSH1 0x1 ADD SWAP1 PUSH1 0x20 ADD DUP1 DUP4 GT PUSH2 0x3D37 JUMPI DUP3 SWAP1 SUB PUSH1 0x1F AND DUP3 ADD SWAP2 JUMPDEST POP POP POP POP POP DUP2 JUMP JUMPDEST PUSH1 0x16 PUSH1 0x20 MSTORE DUP1 PUSH0 MSTORE PUSH1 0x40 PUSH0 KECCAK256 PUSH0 SWAP2 POP SWAP1 POP DUP1 SLOAD PUSH2 0x3D78 SWAP1 PUSH2 0x6E2F JUMP JUMPDEST DUP1 PUSH1 0x1F ADD PUSH1 0x20 DUP1 SWAP2 DIV MUL PUSH1 0x20 ADD PUSH1 0x40 MLOAD SWAP1 DUP2 ADD PUSH1 0x40 MSTORE DUP1 SWAP3 SWAP2 SWAP1 DUP2 DUP2 MSTORE PUSH1 0x20 ADD DUP3 DUP1 SLOAD PUSH2 0x3DA4 SWAP1 PUSH2 0x6E2F JUMP JUMPDEST DUP1 ISZERO PUSH2 0x3DEF JUMPI DUP1 PUSH1 0x1F LT PUSH2 0x3DC6 JUMPI PUSH2 0x100 DUP1 DUP4 SLOAD DIV MUL DUP4 MSTORE SWAP2 PUSH1 0x20 ADD SWAP2 PUSH2 0x3DEF JUMP JUMPDEST DUP3 ADD SWAP2 SWAP1 PUSH0 MSTORE PUSH1 0x20 PUSH0 KECCAK256 SWAP1 JUMPDEST DUP2 SLOAD DUP2 MSTORE SWAP1 PUSH1 0x1 ADD SWAP1 PUSH1 0x20 ADD DUP1 DUP4 GT PUSH2 0x3DD2 JUMPI DUP3 SWAP1 SUB PUSH1 0x1F AND DUP3 ADD SWAP2 JUMPDEST POP POP POP POP POP DUP2 JUMP JUMPDEST PUSH0 PUSH32 0x1FFC9A700000000000000000000000000000000000000000000000000000000 PUSH28 0xFFFFFFFFFFFFFFFFFFFFFFFFFFFFFFFFFFFFFFFFFFFFFFFFFFFFFFFF NOT AND DUP3 PUSH28 0xFFFFFFFFFFFFFFFFFFFFFFFFFFFFFFFFFFFFFFFFFFFFFFFFFFFFFFFF NOT AND EQ SWAP1 POP SWAP2 SWAP1 POP JUMP JUMPDEST PUSH2 0x3E6B DUP4 DUP4 DUP4 PUSH2 0x5221 JUMP JUMPDEST PUSH0 PUSH1 0x18 PUSH0 DUP6 DUP2 MSTORE PUSH1 0x20 ADD SWAP1 DUP2 MSTORE PUSH1 0x20 ADD PUSH0 KECCAK256 SLOAD SWAP1 POP PUSH0 DUP2 GT ISZERO PUSH2 0x426B JUMPI PUSH0 PUSH1 0x13 PUSH0 DUP4 DUP2 MSTORE PUSH1 0x20 ADD SWAP1 DUP2 MSTORE PUSH1 0x20 ADD PUSH0 KECCAK256 SWAP1 POP PUSH0 DUP2 PUSH0 ADD SLOAD EQ ISZERO DUP1 ISZERO PUSH2 0x3EBC JUMPI POP DUP1 PUSH1 0x9 ADD PUSH0 SWAP1 SLOAD SWAP1 PUSH2 0x100 EXP SWAP1 DIV PUSH1 0xFF AND JUMPDEST ISZERO PUSH2 0x4269 JUMPI PUSH0 DUP2 PUSH1 0x8 ADD DUP1 SLOAD PUSH2 0x3ED1 SWAP1 PUSH2 0x6E2F JUMP JUMPDEST DUP1 PUSH1 0x1F ADD PUSH1 0x20 DUP1 SWAP2 DIV MUL PUSH1 0x20 ADD PUSH1 0x40 MLOAD SWAP1 DUP2 ADD PUSH1 0x40 MSTORE DUP1 SWAP3 SWAP2 SWAP1 DUP2 DUP2 MSTORE PUSH1 0x20 ADD DUP3 DUP1 SLOAD PUSH2 0x3EFD SWAP1 PUSH2 0x6E2F JUMP JUMPDEST DUP1 ISZERO PUSH2 0x3F48 JUMPI DUP1 PUSH1 0x1F LT PUSH2 0x3F1F JUMPI PUSH2 0x100 DUP1 DUP4 SLOAD DIV MUL DUP4 MSTORE SWAP2 PUSH1 0x20 ADD SWAP2 PUSH2 0x3F48 JUMP JUMPDEST DUP3 ADD SWAP2 SWAP1 PUSH0 MSTORE PUSH1 0x20 PUSH0 KECCAK256 SWAP1 JUMPDEST DUP2 SLOAD DUP2 MSTORE SWAP1 PUSH1 0x1 ADD SWAP1 PUSH1 0x20 ADD DUP1 DUP4 GT PUSH2 0x3F2B JUMPI DUP3 SWAP1 SUB PUSH1 0x1F AND DUP3 ADD SWAP2 JUMPDEST POP POP POP POP POP SWAP1 POP PUSH0 DUP5 MLOAD EQ DUP1 ISZERO PUSH2 0x3F87 JUMPI POP PUSH1 0x7 DUP2 PUSH1 0x40 MLOAD PUSH2 0x3F6A SWAP2 SWAP1 PUSH2 0x784D JUMP JUMPDEST SWAP1 DUP2 MSTORE PUSH1 0x20 ADD PUSH1 0x40 MLOAD DUP1 SWAP2 SUB SWAP1 KECCAK256 PUSH0 SWAP1 SLOAD SWAP1 PUSH2 0x100 EXP SWAP1 DIV PUSH1 0xFF AND ISZERO JUMPDEST ISZERO PUSH2 0x4083 JUMPI PUSH1 0x1 DUP3 PUSH1 0x7 ADD PUSH0 PUSH2 0x100 EXP DUP2 SLOAD DUP2 PUSH1 0xFF MUL NOT AND SWAP1 DUP4 ISZERO ISZERO MUL OR SWAP1 SSTORE POP PUSH0 DUP3 PUSH1 0x9 ADD PUSH0 PUSH2 0x100 EXP DUP2 SLOAD DUP2 PUSH1 0xFF MUL NOT AND SWAP1 DUP4 ISZERO ISZERO MUL OR SWAP1 SSTORE POP PUSH1 0x2 PUSH1 0x17 DUP3 PUSH1 0x40 MLOAD PUSH2 0x3FD5 SWAP2 SWAP1 PUSH2 0x784D JUMP JUMPDEST SWAP1 DUP2 MSTORE PUSH1 0x20 ADD PUSH1 0x40 MLOAD DUP1 SWAP2 SUB SWAP1 KECCAK256 PUSH0 PUSH2 0x100 EXP DUP2 SLOAD DUP2 PUSH1 0xFF MUL NOT AND SWAP1 DUP4 PUSH1 0x4 DUP2 GT ISZERO PUSH2 0x4004 JUMPI PUSH2 0x4003 PUSH2 0x6A1D JUMP JUMPDEST JUMPDEST MUL OR SWAP1 SSTORE POP PUSH32 0x384A7354A96A31098438152E3BE618FCAFB335084CA123FBC6168A866F508241 DUP2 PUSH1 0x2 PUSH1 0x40 MLOAD PUSH2 0x403B SWAP3 SWAP2 SWAP1 PUSH2 0x6A90 JUMP JUMPDEST PUSH1 0x40 MLOAD DUP1 SWAP2 SUB SWAP1 LOG1 DUP3 PUSH32 0xED511385FB4BAFD7DB18D9508E9269E349929BD4D28772A691A66A01DC552A26 DUP3 PUSH1 0x1 PUSH1 0x40 MLOAD PUSH2 0x4076 SWAP3 SWAP2 SWAP1 PUSH2 0x78DC JUMP JUMPDEST PUSH1 0x40 MLOAD DUP1 SWAP2 SUB SWAP1 LOG2 PUSH2 0x4253 JUMP JUMPDEST PUSH0 DUP3 PUSH1 0x7 ADD PUSH0 PUSH2 0x100 EXP DUP2 SLOAD DUP2 PUSH1 0xFF MUL NOT AND SWAP1 DUP4 ISZERO ISZERO MUL OR SWAP1 SSTORE POP PUSH0 DUP3 PUSH1 0x9 ADD PUSH0 PUSH2 0x100 EXP DUP2 SLOAD DUP2 PUSH1 0xFF MUL NOT AND SWAP1 DUP4 ISZERO ISZERO MUL OR SWAP1 SSTORE POP PUSH0 PUSH1 0x14 PUSH0 DUP5 PUSH1 0x1 ADD PUSH0 SWAP1 SLOAD SWAP1 PUSH2 0x100 EXP SWAP1 DIV PUSH20 0xFFFFFFFFFFFFFFFFFFFFFFFFFFFFFFFFFFFFFFFF AND PUSH20 0xFFFFFFFFFFFFFFFFFFFFFFFFFFFFFFFFFFFFFFFF AND PUSH20 0xFFFFFFFFFFFFFFFFFFFFFFFFFFFFFFFFFFFFFFFF AND DUP2 MSTORE PUSH1 0x20 ADD SWAP1 DUP2 MSTORE PUSH1 0x20 ADD PUSH0 KECCAK256 PUSH0 DUP5 PUSH1 0x2 ADD SLOAD DUP2 MSTORE PUSH1 0x20 ADD SWAP1 DUP2 MSTORE PUSH1 0x20 ADD PUSH0 KECCAK256 DUP2 SWAP1 SSTORE POP PUSH1 0x4 PUSH1 0x17 DUP3 PUSH1 0x40 MLOAD PUSH2 0x4143 SWAP2 SWAP1 PUSH2 0x784D JUMP JUMPDEST SWAP1 DUP2 MSTORE PUSH1 0x20 ADD PUSH1 0x40 MLOAD DUP1 SWAP2 SUB SWAP1 KECCAK256 PUSH0 PUSH2 0x100 EXP DUP2 SLOAD DUP2 PUSH1 0xFF MUL NOT AND SWAP1 DUP4 PUSH1 0x4 DUP2 GT ISZERO PUSH2 0x4172 JUMPI PUSH2 0x4171 PUSH2 0x6A1D JUMP JUMPDEST JUMPDEST MUL OR SWAP1 SSTORE POP PUSH32 0x384A7354A96A31098438152E3BE618FCAFB335084CA123FBC6168A866F508241 DUP2 PUSH1 0x4 PUSH1 0x40 MLOAD PUSH2 0x41A9 SWAP3 SWAP2 SWAP1 PUSH2 0x6A90 JUMP JUMPDEST PUSH1 0x40 MLOAD DUP1 SWAP2 SUB SWAP1 LOG1 DUP3 PUSH32 0xED511385FB4BAFD7DB18D9508E9269E349929BD4D28772A691A66A01DC552A26 DUP3 PUSH0 PUSH1 0x40 MLOAD PUSH2 0x41E3 SWAP3 SWAP2 SWAP1 PUSH2 0x78DC JUMP JUMPDEST PUSH1 0x40 MLOAD DUP1 SWAP2 SUB SWAP1 LOG2 DUP2 PUSH1 0x3 ADD PUSH0 SWAP1 SLOAD SWAP1 PUSH2 0x100 EXP SWAP1 DIV PUSH20 0xFFFFFFFFFFFFFFFFFFFFFFFFFFFFFFFFFFFFFFFF AND PUSH20 0xFFFFFFFFFFFFFFFFFFFFFFFFFFFFFFFFFFFFFFFF AND DUP4 PUSH32 0x8E25282255AB31897DF2B0456BB993AC7F84D376861AEFD84901D2D63A7428A2 PUSH1 0x40 MLOAD PUSH1 0x40 MLOAD DUP1 SWAP2 SUB SWAP1 LOG3 JUMPDEST PUSH1 0x18 PUSH0 DUP8 DUP2 MSTORE PUSH1 0x20 ADD SWAP1 DUP2 MSTORE PUSH1 0x20 ADD PUSH0 KECCAK256 PUSH0 SWAP1 SSTORE POP JUMPDEST POP JUMPDEST POP POP POP POP JUMP JUMPDEST PUSH2 0x4282 DUP2 PUSH2 0x427D PUSH2 0x4A22 JUMP JUMPDEST PUSH2 0x545D JUMP JUMPDEST POP JUMP JUMPDEST PUSH2 0x428D PUSH2 0x2CC3 JUMP JUMPDEST ISZERO PUSH2 0x42C4 JUMPI PUSH1 0x40 MLOAD PUSH32 0xD93C066500000000000000000000000000000000000000000000000000000000 DUP2 MSTORE PUSH1 0x4 ADD PUSH1 0x40 MLOAD DUP1 SWAP2 SUB SWAP1 REVERT JUMPDEST JUMP JUMPDEST PUSH0 PUSH2 0x42CF PUSH2 0x54AE JUMP JUMPDEST SWAP1 POP PUSH1 0x2 DUP2 PUSH0 ADD SLOAD SUB PUSH2 0x430E JUMPI PUSH1 0x40 MLOAD PUSH32 0x3EE5AEB500000000000000000000000000000000000000000000000000000000 DUP2 MSTORE PUSH1 0x4 ADD PUSH1 0x40 MLOAD DUP1 SWAP2 SUB SWAP1 REVERT JUMPDEST PUSH1 0x2 DUP2 PUSH0 ADD DUP2 SWAP1 SSTORE POP POP JUMP JUMPDEST PUSH0 PUSH2 0x4323 PUSH2 0x54AE JUMP JUMPDEST SWAP1 POP PUSH1 0x1 DUP2 PUSH0 ADD DUP2 SWAP1 SSTORE POP POP JUMP JUMPDEST PUSH0 PUSH32 0x2DD7BC7DEC4DCEEDDA775E58DD541E08A116C6C53815C0BD028192F7B626800 SWAP1 POP SWAP1 JUMP JUMPDEST PUSH0 PUSH0 PUSH2 0x4362 PUSH2 0x4331 JUMP JUMPDEST SWAP1 POP PUSH2 0x436E DUP5 DUP5 PUSH2 0x3228 JUMP JUMPDEST PUSH2 0x4445 JUMPI PUSH1 0x1 DUP2 PUSH0 ADD PUSH0 DUP7 DUP2 MSTORE PUSH1 0x20 ADD SWAP1 DUP2 MSTORE PUSH1 0x20 ADD PUSH0 KECCAK256 PUSH0 ADD PUSH0 DUP6 PUSH20 0xFFFFFFFFFFFFFFFFFFFFFFFFFFFFFFFFFFFFFFFF AND PUSH20 0xFFFFFFFFFFFFFFFFFFFFFFFFFFFFFFFFFFFFFFFF AND DUP2 MSTORE PUSH1 0x20 ADD SWAP1 DUP2 MSTORE PUSH1 0x20 ADD PUSH0 KECCAK256 PUSH0 PUSH2 0x100 EXP DUP2 SLOAD DUP2 PUSH1 0xFF MUL NOT AND SWAP1 DUP4 ISZERO ISZERO MUL OR SWAP1 SSTORE POP PUSH2 0x43E1 PUSH2 0x4A22 JUMP JUMPDEST PUSH20 0xFFFFFFFFFFFFFFFFFFFFFFFFFFFFFFFFFFFFFFFF AND DUP4 PUSH20 0xFFFFFFFFFFFFFFFFFFFFFFFFFFFFFFFFFFFFFFFF AND DUP6 PUSH32 0x2F8788117E7EFF1D82E926EC794901D17C78024A50270940304540A733656F0D PUSH1 0x40 MLOAD PUSH1 0x40 MLOAD DUP1 SWAP2 SUB SWAP1 LOG4 PUSH1 0x1 SWAP2 POP POP PUSH2 0x444A JUMP JUMPDEST PUSH0 SWAP2 POP POP JUMPDEST SWAP3 SWAP2 POP POP JUMP JUMPDEST PUSH0 PUSH0 SWAP1 SLOAD SWAP1 PUSH2 0x100 EXP SWAP1 DIV PUSH20 0xFFFFFFFFFFFFFFFFFFFFFFFFFFFFFFFFFFFFFFFF AND PUSH20 0xFFFFFFFFFFFFFFFFFFFFFFFFFFFFFFFFFFFFFFFF AND CALLER PUSH20 0xFFFFFFFFFFFFFFFFFFFFFFFFFFFFFFFFFFFFFFFF AND EQ PUSH2 0x44DE JUMPI PUSH1 0x40 MLOAD PUSH32 0x8C379A000000000000000000000000000000000000000000000000000000000 DUP2 MSTORE PUSH1 0x4 ADD PUSH2 0x44D5 SWAP1 PUSH2 0x7954 JUMP JUMPDEST PUSH1 0x40 MLOAD DUP1 SWAP2 SUB SWAP1 REVERT JUMPDEST JUMP JUMPDEST PUSH2 0x44EC DUP3 PUSH0 PUSH0 DUP5 PUSH2 0x54D5 JUMP JUMPDEST POP POP JUMP JUMPDEST PUSH0 DUP2 MLOAD SUB PUSH2 0x452A JUMPI PUSH1 0x40 MLOAD PUSH32 0xFE936CB700000000000000000000000000000000000000000000000000000000 DUP2 MSTORE PUSH1 0x4 ADD PUSH1 0x40 MLOAD DUP1 SWAP2 SUB SWAP1 REVERT JUMPDEST DUP1 DUP3 PUSH1 0xA0 ADD DUP2 SWAP1 MSTORE POP POP POP JUMP JUMPDEST PUSH1 0x60 PUSH0 PUSH2 0x4545 PUSH2 0x100 PUSH2 0x557B JUMP JUMPDEST SWAP1 POP PUSH2 0x458F PUSH1 0x40 MLOAD DUP1 PUSH1 0x40 ADD PUSH1 0x40 MSTORE DUP1 PUSH1 0xC DUP2 MSTORE PUSH1 0x20 ADD PUSH32 0x636F64654C6F636174696F6E0000000000000000000000000000000000000000 DUP2 MSTORE POP DUP3 PUSH2 0x55A0 SWAP1 SWAP2 SWAP1 PUSH4 0xFFFFFFFF AND JUMP JUMPDEST PUSH2 0x45B7 DUP4 PUSH0 ADD MLOAD PUSH1 0x2 DUP2 GT ISZERO PUSH2 0x45A8 JUMPI PUSH2 0x45A7 PUSH2 0x6A1D JUMP JUMPDEST JUMPDEST DUP3 PUSH2 0x55C8 SWAP1 SWAP2 SWAP1 PUSH4 0xFFFFFFFF AND JUMP JUMPDEST PUSH2 0x45FF PUSH1 0x40 MLOAD DUP1 PUSH1 0x40 ADD PUSH1 0x40 MSTORE DUP1 PUSH1 0x8 DUP2 MSTORE PUSH1 0x20 ADD PUSH32 0x6C616E6775616765000000000000000000000000000000000000000000000000 DUP2 MSTORE POP DUP3 PUSH2 0x55A0 SWAP1 SWAP2 SWAP1 PUSH4 0xFFFFFFFF AND JUMP JUMPDEST PUSH2 0x4627 DUP4 PUSH1 0x40 ADD MLOAD PUSH0 DUP2 GT ISZERO PUSH2 0x4618 JUMPI PUSH2 0x4617 PUSH2 0x6A1D JUMP JUMPDEST JUMPDEST DUP3 PUSH2 0x55C8 SWAP1 SWAP2 SWAP1 PUSH4 0xFFFFFFFF AND JUMP JUMPDEST PUSH2 0x466F PUSH1 0x40 MLOAD DUP1 PUSH1 0x40 ADD PUSH1 0x40 MSTORE DUP1 PUSH1 0x6 DUP2 MSTORE PUSH1 0x20 ADD PUSH32 0x736F757263650000000000000000000000000000000000000000000000000000 DUP2 MSTORE POP DUP3 PUSH2 0x55A0 SWAP1 SWAP2 SWAP1 PUSH4 0xFFFFFFFF AND JUMP JUMPDEST PUSH2 0x4686 DUP4 PUSH1 0x60 ADD MLOAD DUP3 PUSH2 0x55A0 SWAP1 SWAP2 SWAP1 PUSH4 0xFFFFFFFF AND JUMP JUMPDEST PUSH0 DUP4 PUSH1 0xA0 ADD MLOAD MLOAD GT ISZERO PUSH2 0x473D JUMPI PUSH2 0x46DB PUSH1 0x40 MLOAD DUP1 PUSH1 0x40 ADD PUSH1 0x40 MSTORE DUP1 PUSH1 0x4 DUP2 MSTORE PUSH1 0x20 ADD PUSH32 0x6172677300000000000000000000000000000000000000000000000000000000 DUP2 MSTORE POP DUP3 PUSH2 0x55A0 SWAP1 SWAP2 SWAP1 PUSH4 0xFFFFFFFF AND JUMP JUMPDEST PUSH2 0x46E4 DUP2 PUSH2 0x5617 JUMP JUMPDEST PUSH0 PUSH0 SWAP1 POP JUMPDEST DUP4 PUSH1 0xA0 ADD MLOAD MLOAD DUP2 LT ISZERO PUSH2 0x4732 JUMPI PUSH2 0x4727 DUP5 PUSH1 0xA0 ADD MLOAD DUP3 DUP2 MLOAD DUP2 LT PUSH2 0x4710 JUMPI PUSH2 0x470F PUSH2 0x71C1 JUMP JUMPDEST JUMPDEST PUSH1 0x20 MUL PUSH1 0x20 ADD ADD MLOAD DUP4 PUSH2 0x55A0 SWAP1 SWAP2 SWAP1 PUSH4 0xFFFFFFFF AND JUMP JUMPDEST DUP1 PUSH1 0x1 ADD SWAP1 POP PUSH2 0x46E9 JUMP JUMPDEST POP PUSH2 0x473C DUP2 PUSH2 0x563F JUMP JUMPDEST JUMPDEST PUSH0 DUP4 PUSH1 0x80 ADD MLOAD MLOAD GT ISZERO PUSH2 0x487C JUMPI PUSH0 PUSH1 0x2 DUP2 GT ISZERO PUSH2 0x475D JUMPI PUSH2 0x475C PUSH2 0x6A1D JUMP JUMPDEST JUMPDEST DUP4 PUSH1 0x20 ADD MLOAD PUSH1 0x2 DUP2 GT ISZERO PUSH2 0x4774 JUMPI PUSH2 0x4773 PUSH2 0x6A1D JUMP JUMPDEST JUMPDEST SUB PUSH2 0x47AB JUMPI PUSH1 0x40 MLOAD PUSH32 0xA80D31F700000000000000000000000000000000000000000000000000000000 DUP2 MSTORE PUSH1 0x4 ADD PUSH1 0x40 MLOAD DUP1 SWAP2 SUB SWAP1 REVERT JUMPDEST PUSH2 0x47F3 PUSH1 0x40 MLOAD DUP1 PUSH1 0x40 ADD PUSH1 0x40 MSTORE DUP1 PUSH1 0xF DUP2 MSTORE PUSH1 0x20 ADD PUSH32 0x736563726574734C6F636174696F6E0000000000000000000000000000000000 DUP2 MSTORE POP DUP3 PUSH2 0x55A0 SWAP1 SWAP2 SWAP1 PUSH4 0xFFFFFFFF AND JUMP JUMPDEST PUSH2 0x481C DUP4 PUSH1 0x20 ADD MLOAD PUSH1 0x2 DUP2 GT ISZERO PUSH2 0x480D JUMPI PUSH2 0x480C PUSH2 0x6A1D JUMP JUMPDEST JUMPDEST DUP3 PUSH2 0x55C8 SWAP1 SWAP2 SWAP1 PUSH4 0xFFFFFFFF AND JUMP JUMPDEST PUSH2 0x4864 PUSH1 0x40 MLOAD DUP1 PUSH1 0x40 ADD PUSH1 0x40 MSTORE DUP1 PUSH1 0x7 DUP2 MSTORE PUSH1 0x20 ADD PUSH32 0x7365637265747300000000000000000000000000000000000000000000000000 DUP2 MSTORE POP DUP3 PUSH2 0x55A0 SWAP1 SWAP2 SWAP1 PUSH4 0xFFFFFFFF AND JUMP JUMPDEST PUSH2 0x487B DUP4 PUSH1 0x80 ADD MLOAD DUP3 PUSH2 0x5667 SWAP1 SWAP2 SWAP1 PUSH4 0xFFFFFFFF AND JUMP JUMPDEST JUMPDEST PUSH0 DUP4 PUSH1 0xC0 ADD MLOAD MLOAD GT ISZERO PUSH2 0x4933 JUMPI PUSH2 0x48D1 PUSH1 0x40 MLOAD DUP1 PUSH1 0x40 ADD PUSH1 0x40 MSTORE DUP1 PUSH1 0x9 DUP2 MSTORE PUSH1 0x20 ADD PUSH32 0x6279746573417267730000000000000000000000000000000000000000000000 DUP2 MSTORE POP DUP3 PUSH2 0x55A0 SWAP1 SWAP2 SWAP1 PUSH4 0xFFFFFFFF AND JUMP JUMPDEST PUSH2 0x48DA DUP2 PUSH2 0x5617 JUMP JUMPDEST PUSH0 PUSH0 SWAP1 POP JUMPDEST DUP4 PUSH1 0xC0 ADD MLOAD MLOAD DUP2 LT ISZERO PUSH2 0x4928 JUMPI PUSH2 0x491D DUP5 PUSH1 0xC0 ADD MLOAD DUP3 DUP2 MLOAD DUP2 LT PUSH2 0x4906 JUMPI PUSH2 0x4905 PUSH2 0x71C1 JUMP JUMPDEST JUMPDEST PUSH1 0x20 MUL PUSH1 0x20 ADD ADD MLOAD DUP4 PUSH2 0x5667 SWAP1 SWAP2 SWAP1 PUSH4 0xFFFFFFFF AND JUMP JUMPDEST DUP1 PUSH1 0x1 ADD SWAP1 POP PUSH2 0x48DF JUMP JUMPDEST POP PUSH2 0x4932 DUP2 PUSH2 0x563F JUMP JUMPDEST JUMPDEST DUP1 PUSH0 ADD MLOAD PUSH0 ADD MLOAD SWAP2 POP POP SWAP2 SWAP1 POP JUMP JUMPDEST PUSH0 PUSH0 PUSH1 0x2 PUSH0 SWAP1 SLOAD SWAP1 PUSH2 0x100 EXP SWAP1 DIV PUSH20 0xFFFFFFFFFFFFFFFFFFFFFFFFFFFFFFFFFFFFFFFF AND PUSH20 0xFFFFFFFFFFFFFFFFFFFFFFFFFFFFFFFFFFFFFFFF AND PUSH4 0x461D2762 DUP7 DUP9 PUSH1 0x1 DUP9 DUP9 PUSH1 0x40 MLOAD DUP7 PUSH4 0xFFFFFFFF AND PUSH1 0xE0 SHL DUP2 MSTORE PUSH1 0x4 ADD PUSH2 0x49A7 SWAP6 SWAP5 SWAP4 SWAP3 SWAP2 SWAP1 PUSH2 0x79AC JUMP JUMPDEST PUSH1 0x20 PUSH1 0x40 MLOAD DUP1 DUP4 SUB DUP2 PUSH0 DUP8 GAS CALL ISZERO DUP1 ISZERO PUSH2 0x49C3 JUMPI RETURNDATASIZE PUSH0 PUSH0 RETURNDATACOPY RETURNDATASIZE PUSH0 REVERT JUMPDEST POP POP POP POP PUSH1 0x40 MLOAD RETURNDATASIZE PUSH1 0x1F NOT PUSH1 0x1F DUP3 ADD AND DUP3 ADD DUP1 PUSH1 0x40 MSTORE POP DUP2 ADD SWAP1 PUSH2 0x49E7 SWAP2 SWAP1 PUSH2 0x7A18 JUMP JUMPDEST SWAP1 POP DUP1 PUSH32 0x1131472297A800FEE664D1D89CFA8F7676FF07189ECC53F80BBB5F4969099DB8 PUSH1 0x40 MLOAD PUSH1 0x40 MLOAD DUP1 SWAP2 SUB SWAP1 LOG2 DUP1 SWAP2 POP POP SWAP5 SWAP4 POP POP POP POP JUMP JUMPDEST PUSH0 CALLER SWAP1 POP SWAP1 JUMP JUMPDEST PUSH0 PUSH0 PUSH2 0x4A33 PUSH2 0x4331 JUMP JUMPDEST SWAP1 POP PUSH2 0x4A3F DUP5 DUP5 PUSH2 0x3228 JUMP JUMPDEST ISZERO PUSH2 0x4B16 JUMPI PUSH0 DUP2 PUSH0 ADD PUSH0 DUP7 DUP2 MSTORE PUSH1 0x20 ADD SWAP1 DUP2 MSTORE PUSH1 0x20 ADD PUSH0 KECCAK256 PUSH0 ADD PUSH0 DUP6 PUSH20 0xFFFFFFFFFFFFFFFFFFFFFFFFFFFFFFFFFFFFFFFF AND PUSH20 0xFFFFFFFFFFFFFFFFFFFFFFFFFFFFFFFFFFFFFFFF AND DUP2 MSTORE PUSH1 0x20 ADD SWAP1 DUP2 MSTORE PUSH1 0x20 ADD PUSH0 KECCAK256 PUSH0 PUSH2 0x100 EXP DUP2 SLOAD DUP2 PUSH1 0xFF MUL NOT AND SWAP1 DUP4 ISZERO ISZERO MUL OR SWAP1 SSTORE POP PUSH2 0x4AB2 PUSH2 0x4A22 JUMP JUMPDEST PUSH20 0xFFFFFFFFFFFFFFFFFFFFFFFFFFFFFFFFFFFFFFFF AND DUP4 PUSH20 0xFFFFFFFFFFFFFFFFFFFFFFFFFFFFFFFFFFFFFFFF AND DUP6 PUSH32 0xF6391F5C32D9C69D2A47EA670B442974B53935D1EDC7FD64EB21E047A839171B PUSH1 0x40 MLOAD PUSH1 0x40 MLOAD DUP1 SWAP2 SUB SWAP1 LOG4 PUSH1 0x1 SWAP2 POP POP PUSH2 0x4B1B JUMP JUMPDEST PUSH0 SWAP2 POP POP JUMPDEST SWAP3 SWAP2 POP POP JUMP JUMPDEST PUSH2 0x4B29 PUSH2 0x568F JUMP JUMPDEST PUSH0 PUSH2 0x4B32 PUSH2 0x4E6A JUMP JUMPDEST SWAP1 POP PUSH0 DUP2 PUSH0 ADD PUSH0 PUSH2 0x100 EXP DUP2 SLOAD DUP2 PUSH1 0xFF MUL NOT AND SWAP1 DUP4 ISZERO ISZERO MUL OR SWAP1 SSTORE POP PUSH32 0x5DB9EE0A495BF2E6FF9C91A7834C1BA4FDD244A5E8AA4E537BD38AEAE4B073AA PUSH2 0x4B77 PUSH2 0x4A22 JUMP JUMPDEST PUSH1 0x40 MLOAD PUSH2 0x4B84 SWAP2 SWAP1 PUSH2 0x66E9 JUMP JUMPDEST PUSH1 0x40 MLOAD DUP1 SWAP2 SUB SWAP1 LOG1 POP JUMP JUMPDEST PUSH1 0x1 DUP2 PUSH0 ADD PUSH0 DUP3 DUP3 SLOAD ADD SWAP3 POP POP DUP2 SWAP1 SSTORE POP POP JUMP JUMPDEST PUSH0 DUP2 PUSH0 ADD SLOAD SWAP1 POP SWAP2 SWAP1 POP JUMP JUMPDEST PUSH32 0x0 PUSH20 0xFFFFFFFFFFFFFFFFFFFFFFFFFFFFFFFFFFFFFFFF AND ADDRESS PUSH20 0xFFFFFFFFFFFFFFFFFFFFFFFFFFFFFFFFFFFFFFFF AND EQ DUP1 PUSH2 0x4C5C JUMPI POP PUSH32 0x0 PUSH20 0xFFFFFFFFFFFFFFFFFFFFFFFFFFFFFFFFFFFFFFFF AND PUSH2 0x4C43 PUSH2 0x50A3 JUMP JUMPDEST PUSH20 0xFFFFFFFFFFFFFFFFFFFFFFFFFFFFFFFFFFFFFFFF AND EQ ISZERO JUMPDEST ISZERO PUSH2 0x4C93 JUMPI PUSH1 0x40 MLOAD PUSH32 0xE07C8DBA00000000000000000000000000000000000000000000000000000000 DUP2 MSTORE PUSH1 0x4 ADD PUSH1 0x40 MLOAD DUP1 SWAP2 SUB SWAP1 REVERT JUMPDEST JUMP JUMPDEST PUSH32 0xA615A8AFB6FFFCB8C6809AC0997B5C9C12B8CC97651150F14C8F6203168CFF4C PUSH0 SHL PUSH2 0x4CC1 DUP2 PUSH2 0x4271 JUMP JUMPDEST POP POP JUMP JUMPDEST DUP2 PUSH20 0xFFFFFFFFFFFFFFFFFFFFFFFFFFFFFFFFFFFFFFFF AND PUSH4 0x52D1902D PUSH1 0x40 MLOAD DUP2 PUSH4 0xFFFFFFFF AND PUSH1 0xE0 SHL DUP2 MSTORE PUSH1 0x4 ADD PUSH1 0x20 PUSH1 0x40 MLOAD DUP1 DUP4 SUB DUP2 DUP7 GAS STATICCALL SWAP3 POP POP POP DUP1 ISZERO PUSH2 0x4D2D JUMPI POP PUSH1 0x40 MLOAD RETURNDATASIZE PUSH1 0x1F NOT PUSH1 0x1F DUP3 ADD AND DUP3 ADD DUP1 PUSH1 0x40 MSTORE POP DUP2 ADD SWAP1 PUSH2 0x4D2A SWAP2 SWAP1 PUSH2 0x7A18 JUMP JUMPDEST PUSH1 0x1 JUMPDEST PUSH2 0x4D6E JUMPI DUP2 PUSH1 0x40 MLOAD PUSH32 0x4C9C8CE300000000000000000000000000000000000000000000000000000000 DUP2 MSTORE PUSH1 0x4 ADD PUSH2 0x4D65 SWAP2 SWAP1 PUSH2 0x66E9 JUMP JUMPDEST PUSH1 0x40 MLOAD DUP1 SWAP2 SUB SWAP1 REVERT JUMPDEST PUSH32 0x360894A13BA1A3210667C828492DB98DCA3E2076CC3735A920A3CA505D382BBC PUSH0 SHL DUP2 EQ PUSH2 0x4DD4 JUMPI DUP1 PUSH1 0x40 MLOAD PUSH32 0xAA1D49A400000000000000000000000000000000000000000000000000000000 DUP2 MSTORE PUSH1 0x4 ADD PUSH2 0x4DCB SWAP2 SWAP1 PUSH2 0x6503 JUMP JUMPDEST PUSH1 0x40 MLOAD DUP1 SWAP2 SUB SWAP1 REVERT JUMPDEST PUSH2 0x4DDE DUP4 DUP4 PUSH2 0x56CF JUMP JUMPDEST POP POP POP JUMP JUMPDEST PUSH32 0x0 PUSH20 0xFFFFFFFFFFFFFFFFFFFFFFFFFFFFFFFFFFFFFFFF AND ADDRESS PUSH20 0xFFFFFFFFFFFFFFFFFFFFFFFFFFFFFFFFFFFFFFFF AND EQ PUSH2 0x4E68 JUMPI PUSH1 0x40 MLOAD PUSH32 0xE07C8DBA00000000000000000000000000000000000000000000000000000000 DUP2 MSTORE PUSH1 0x4 ADD PUSH1 0x40 MLOAD DUP1 SWAP2 SUB SWAP1 REVERT JUMPDEST JUMP JUMPDEST PUSH0 PUSH32 0xCD5ED15C6E187E77E9AEE88184C21F4F2182AB5827CB3B7E07FBEDCD63F03300 SWAP1 POP SWAP1 JUMP JUMPDEST PUSH2 0x4E99 PUSH2 0x4285 JUMP JUMPDEST PUSH0 PUSH2 0x4EA2 PUSH2 0x4E6A JUMP JUMPDEST SWAP1 POP PUSH1 0x1 DUP2 PUSH0 ADD PUSH0 PUSH2 0x100 EXP DUP2 SLOAD DUP2 PUSH1 0xFF MUL NOT AND SWAP1 DUP4 ISZERO ISZERO MUL OR SWAP1 SSTORE POP PUSH32 0x62E78CEA01BEE320CD4E420270B5EA74000D11B0C9F74754EBDBFC544B05A258 PUSH2 0x4EE8 PUSH2 0x4A22 JUMP JUMPDEST PUSH1 0x40 MLOAD PUSH2 0x4EF5 SWAP2 SWAP1 PUSH2 0x66E9 JUMP JUMPDEST PUSH1 0x40 MLOAD DUP1 SWAP2 SUB SWAP1 LOG1 POP JUMP JUMPDEST PUSH0 PUSH0 PUSH2 0x4F0A PUSH2 0x5741 JUMP JUMPDEST SWAP1 POP DUP1 SWAP2 POP POP SWAP1 JUMP JUMPDEST PUSH2 0x4F1B PUSH2 0x576A JUMP JUMPDEST PUSH2 0x4F23 PUSH2 0x57AA JUMP JUMPDEST PUSH2 0x4F2B PUSH2 0x57B4 JUMP JUMPDEST PUSH2 0x4F37 PUSH0 PUSH0 SHL CALLER PUSH2 0x4358 JUMP JUMPDEST POP PUSH2 0x4F64 PUSH32 0xA615A8AFB6FFFCB8C6809AC0997B5C9C12B8CC97651150F14C8F6203168CFF4C PUSH0 SHL CALLER PUSH2 0x4358 JUMP JUMPDEST POP PUSH2 0x4F91 PUSH32 0xAF290D8680820AAD922855F39B306097B20E28774D6C1AD35A20325630C3A02C PUSH0 SHL CALLER PUSH2 0x4358 JUMP JUMPDEST POP JUMP JUMPDEST PUSH2 0x4F9C PUSH2 0x576A JUMP JUMPDEST PUSH2 0x4FA4 PUSH2 0x57BE JUMP JUMPDEST JUMP JUMPDEST PUSH2 0x4FAE PUSH2 0x576A JUMP JUMPDEST JUMP JUMPDEST DUP1 PUSH1 0x2 PUSH0 PUSH2 0x100 EXP DUP2 SLOAD DUP2 PUSH20 0xFFFFFFFFFFFFFFFFFFFFFFFFFFFFFFFFFFFFFFFF MUL NOT AND SWAP1 DUP4 PUSH20 0xFFFFFFFFFFFFFFFFFFFFFFFFFFFFFFFFFFFFFFFF AND MUL OR SWAP1 SSTORE POP POP JUMP JUMPDEST PUSH0 PUSH20 0xFFFFFFFFFFFFFFFFFFFFFFFFFFFFFFFFFFFFFFFF AND DUP2 PUSH20 0xFFFFFFFFFFFFFFFFFFFFFFFFFFFFFFFFFFFFFFFF AND SUB PUSH2 0x5061 JUMPI PUSH1 0x40 MLOAD PUSH32 0x8C379A000000000000000000000000000000000000000000000000000000000 DUP2 MSTORE PUSH1 0x4 ADD PUSH2 0x5058 SWAP1 PUSH2 0x7A8D JUMP JUMPDEST PUSH1 0x40 MLOAD DUP1 SWAP2 SUB SWAP1 REVERT JUMPDEST DUP1 PUSH0 PUSH0 PUSH2 0x100 EXP DUP2 SLOAD DUP2 PUSH20 0xFFFFFFFFFFFFFFFFFFFFFFFFFFFFFFFFFFFFFFFF MUL NOT AND SWAP1 DUP4 PUSH20 0xFFFFFFFFFFFFFFFFFFFFFFFFFFFFFFFFFFFFFFFF AND MUL OR SWAP1 SSTORE POP POP JUMP JUMPDEST PUSH0 PUSH2 0x50CF PUSH32 0x360894A13BA1A3210667C828492DB98DCA3E2076CC3735A920A3CA505D382BBC PUSH0 SHL PUSH2 0x57DD JUMP JUMPDEST PUSH0 ADD PUSH0 SWAP1 SLOAD SWAP1 PUSH2 0x100 EXP SWAP1 DIV PUSH20 0xFFFFFFFFFFFFFFFFFFFFFFFFFFFFFFFFFFFFFFFF AND SWAP1 POP SWAP1 JUMP JUMPDEST CALLER PUSH20 0xFFFFFFFFFFFFFFFFFFFFFFFFFFFFFFFFFFFFFFFF AND DUP2 PUSH20 0xFFFFFFFFFFFFFFFFFFFFFFFFFFFFFFFFFFFFFFFF AND SUB PUSH2 0x5164 JUMPI PUSH1 0x40 MLOAD PUSH32 0x8C379A000000000000000000000000000000000000000000000000000000000 DUP2 MSTORE PUSH1 0x4 ADD PUSH2 0x515B SWAP1 PUSH2 0x7AF5 JUMP JUMPDEST PUSH1 0x40 MLOAD DUP1 SWAP2 SUB SWAP1 REVERT JUMPDEST DUP1 PUSH1 0x1 PUSH0 PUSH2 0x100 EXP DUP2 SLOAD DUP2 PUSH20 0xFFFFFFFFFFFFFFFFFFFFFFFFFFFFFFFFFFFFFFFF MUL NOT AND SWAP1 DUP4 PUSH20 0xFFFFFFFFFFFFFFFFFFFFFFFFFFFFFFFFFFFFFFFF AND MUL OR SWAP1 SSTORE POP DUP1 PUSH20 0xFFFFFFFFFFFFFFFFFFFFFFFFFFFFFFFFFFFFFFFF AND PUSH0 PUSH0 SWAP1 SLOAD SWAP1 PUSH2 0x100 EXP SWAP1 DIV PUSH20 0xFFFFFFFFFFFFFFFFFFFFFFFFFFFFFFFFFFFFFFFF AND PUSH20 0xFFFFFFFFFFFFFFFFFFFFFFFFFFFFFFFFFFFFFFFF AND PUSH32 0xED8889F560326EB138920D842192F0EB3DD22B4F139C87A2C57538E05BAE1278 PUSH1 0x40 MLOAD PUSH1 0x40 MLOAD DUP1 SWAP2 SUB SWAP1 LOG3 POP JUMP JUMPDEST PUSH1 0x3 SLOAD DUP4 EQ PUSH2 0x5267 JUMPI DUP3 PUSH1 0x40 MLOAD PUSH32 0xD068BF5B00000000000000000000000000000000000000000000000000000000 DUP2 MSTORE PUSH1 0x4 ADD PUSH2 0x525E SWAP2 SWAP1 PUSH2 0x6503 JUMP JUMPDEST PUSH1 0x40 MLOAD DUP1 SWAP2 SUB SWAP1 REVERT JUMPDEST DUP2 PUSH1 0x4 SWAP1 DUP2 PUSH2 0x5276 SWAP2 SWAP1 PUSH2 0x7B6B JUMP JUMPDEST POP DUP1 PUSH1 0x5 SWAP1 DUP2 PUSH2 0x5286 SWAP2 SWAP1 PUSH2 0x7B6B JUMP JUMPDEST POP PUSH0 PUSH1 0x8 DUP1 SLOAD PUSH2 0x5295 SWAP1 PUSH2 0x6E2F JUMP JUMPDEST SWAP1 POP GT ISZERO PUSH2 0x53E7 JUMPI PUSH0 DUP2 MLOAD EQ DUP1 ISZERO PUSH2 0x52AF JUMPI POP PUSH1 0x20 DUP3 MLOAD LT ISZERO JUMPDEST ISZERO PUSH2 0x5384 JUMPI PUSH0 DUP3 DUP1 PUSH1 0x20 ADD SWAP1 MLOAD DUP2 ADD SWAP1 PUSH2 0x52C9 SWAP2 SWAP1 PUSH2 0x7C4E JUMP JUMPDEST SWAP1 POP PUSH0 PUSH0 DUP3 GT SWAP1 POP DUP1 PUSH1 0x7 PUSH1 0x8 PUSH1 0x40 MLOAD PUSH2 0x52E3 SWAP2 SWAP1 PUSH2 0x6F3A JUMP JUMPDEST SWAP1 DUP2 MSTORE PUSH1 0x20 ADD PUSH1 0x40 MLOAD DUP1 SWAP2 SUB SWAP1 KECCAK256 PUSH0 PUSH2 0x100 EXP DUP2 SLOAD DUP2 PUSH1 0xFF MUL NOT AND SWAP1 DUP4 ISZERO ISZERO MUL OR SWAP1 SSTORE POP DUP1 PUSH1 0x9 PUSH0 PUSH2 0x100 EXP DUP2 SLOAD DUP2 PUSH1 0xFF MUL NOT AND SWAP1 DUP4 ISZERO ISZERO MUL OR SWAP1 SSTORE POP DUP5 PUSH32 0x99F873583FDE66FFFEE5947D1FA2F03D1CF170FC1C8E52E588CF428476733867 PUSH1 0x8 DUP4 DUP8 DUP8 PUSH1 0x40 MLOAD PUSH2 0x5357 SWAP5 SWAP4 SWAP3 SWAP2 SWAP1 PUSH2 0x7C79 JUMP JUMPDEST PUSH1 0x40 MLOAD DUP1 SWAP2 SUB SWAP1 LOG2 PUSH1 0x40 MLOAD DUP1 PUSH1 0x20 ADD PUSH1 0x40 MSTORE DUP1 PUSH0 DUP2 MSTORE POP PUSH1 0x8 SWAP1 DUP2 PUSH2 0x537C SWAP2 SWAP1 PUSH2 0x7567 JUMP JUMPDEST POP POP POP PUSH2 0x53E2 JUMP JUMPDEST DUP3 PUSH32 0x99F873583FDE66FFFEE5947D1FA2F03D1CF170FC1C8E52E588CF428476733867 PUSH1 0x8 PUSH0 DUP6 DUP6 PUSH1 0x40 MLOAD PUSH2 0x53BB SWAP5 SWAP4 SWAP3 SWAP2 SWAP1 PUSH2 0x7C79 JUMP JUMPDEST PUSH1 0x40 MLOAD DUP1 SWAP2 SUB SWAP1 LOG2 PUSH1 0x40 MLOAD DUP1 PUSH1 0x20 ADD PUSH1 0x40 MSTORE DUP1 PUSH0 DUP2 MSTORE POP PUSH1 0x8 SWAP1 DUP2 PUSH2 0x53E0 SWAP2 SWAP1 PUSH2 0x7567 JUMP JUMPDEST POP JUMPDEST PUSH2 0x5458 JUMP JUMPDEST PUSH0 DUP2 MLOAD EQ DUP1 ISZERO PUSH2 0x53F9 JUMPI POP PUSH1 0x20 DUP3 MLOAD LT ISZERO JUMPDEST ISZERO PUSH2 0x5419 JUMPI DUP2 DUP1 PUSH1 0x20 ADD SWAP1 MLOAD DUP2 ADD SWAP1 PUSH2 0x5412 SWAP2 SWAP1 PUSH2 0x7C4E JUMP JUMPDEST PUSH1 0x6 DUP2 SWAP1 SSTORE POP JUMPDEST DUP3 PUSH32 0xFC03B1503ACD478FAF9C08107596F6D5C04B4591FEA84F8D6F21BDF613B5370E PUSH1 0x6 SLOAD DUP5 DUP5 PUSH1 0x40 MLOAD PUSH2 0x544F SWAP4 SWAP3 SWAP2 SWAP1 PUSH2 0x7CD1 JUMP JUMPDEST PUSH1 0x40 MLOAD DUP1 SWAP2 SUB SWAP1 LOG2 JUMPDEST POP POP POP JUMP JUMPDEST PUSH2 0x5467 DUP3 DUP3 PUSH2 0x3228 JUMP JUMPDEST PUSH2 0x54AA JUMPI DUP1 DUP3 PUSH1 0x40 MLOAD PUSH32 0xE2517D3F00000000000000000000000000000000000000000000000000000000 DUP2 MSTORE PUSH1 0x4 ADD PUSH2 0x54A1 SWAP3 SWAP2 SWAP1 PUSH2 0x7D14 JUMP JUMPDEST PUSH1 0x40 MLOAD DUP1 SWAP2 SUB SWAP1 REVERT JUMPDEST POP POP JUMP JUMPDEST PUSH0 PUSH32 0x9B779B17422D0DF92223018B32B4D1FA46E071723D6817E2486D003BECC55F00 SWAP1 POP SWAP1 JUMP JUMPDEST PUSH0 DUP2 MLOAD SUB PUSH2 0x550F JUMPI PUSH1 0x40 MLOAD PUSH32 0x22CE3EDD00000000000000000000000000000000000000000000000000000000 DUP2 MSTORE PUSH1 0x4 ADD PUSH1 0x40 MLOAD DUP1 SWAP2 SUB SWAP1 REVERT JUMPDEST DUP3 DUP5 PUSH0 ADD SWAP1 PUSH1 0x2 DUP2 GT ISZERO PUSH2 0x5526 JUMPI PUSH2 0x5525 PUSH2 0x6A1D JUMP JUMPDEST JUMPDEST SWAP1 DUP2 PUSH1 0x2 DUP2 GT ISZERO PUSH2 0x553A JUMPI PUSH2 0x5539 PUSH2 0x6A1D JUMP JUMPDEST JUMPDEST DUP2 MSTORE POP POP DUP2 DUP5 PUSH1 0x40 ADD SWAP1 PUSH0 DUP2 GT ISZERO PUSH2 0x5555 JUMPI PUSH2 0x5554 PUSH2 0x6A1D JUMP JUMPDEST JUMPDEST SWAP1 DUP2 PUSH0 DUP2 GT ISZERO PUSH2 0x5568 JUMPI PUSH2 0x5567 PUSH2 0x6A1D JUMP JUMPDEST JUMPDEST DUP2 MSTORE POP POP DUP1 DUP5 PUSH1 0x60 ADD DUP2 SWAP1 MSTORE POP POP POP POP POP JUMP JUMPDEST PUSH2 0x5583 PUSH2 0x5F89 JUMP JUMPDEST PUSH2 0x5590 DUP2 PUSH0 ADD MLOAD DUP4 PUSH2 0x57E6 JUMP JUMPDEST POP PUSH0 DUP2 PUSH1 0x20 ADD DUP2 DUP2 MSTORE POP POP SWAP2 SWAP1 POP JUMP JUMPDEST PUSH2 0x55AD DUP3 PUSH1 0x3 DUP4 MLOAD PUSH2 0x585C JUMP JUMPDEST PUSH2 0x55C3 DUP2 DUP4 PUSH0 ADD MLOAD PUSH2 0x59FC SWAP1 SWAP2 SWAP1 PUSH4 0xFFFFFFFF AND JUMP JUMPDEST POP POP POP JUMP JUMPDEST PUSH2 0x55E9 PUSH1 0x2 PUSH1 0x5 PUSH1 0x6 PUSH1 0xFF AND SWAP1 SHL OR DUP4 PUSH0 ADD MLOAD PUSH2 0x5A18 SWAP1 SWAP2 SWAP1 PUSH4 0xFFFFFFFF AND JUMP JUMPDEST POP PUSH2 0x5613 DUP3 DUP3 PUSH1 0x40 MLOAD PUSH1 0x20 ADD PUSH2 0x55FF SWAP2 SWAP1 PUSH2 0x690A JUMP JUMPDEST PUSH1 0x40 MLOAD PUSH1 0x20 DUP2 DUP4 SUB SUB DUP2 MSTORE SWAP1 PUSH1 0x40 MSTORE PUSH2 0x5667 JUMP JUMPDEST POP POP JUMP JUMPDEST PUSH2 0x5622 DUP2 PUSH1 0x4 PUSH2 0x5A7F JUMP JUMPDEST PUSH1 0x1 DUP2 PUSH1 0x20 ADD DUP2 DUP2 MLOAD PUSH2 0x5635 SWAP2 SWAP1 PUSH2 0x7534 JUMP JUMPDEST SWAP2 POP DUP2 DUP2 MSTORE POP POP POP JUMP JUMPDEST PUSH2 0x564A DUP2 PUSH1 0x7 PUSH2 0x5A7F JUMP JUMPDEST PUSH1 0x1 DUP2 PUSH1 0x20 ADD DUP2 DUP2 MLOAD PUSH2 0x565D SWAP2 SWAP1 PUSH2 0x70CA JUMP JUMPDEST SWAP2 POP DUP2 DUP2 MSTORE POP POP POP JUMP JUMPDEST PUSH2 0x5674 DUP3 PUSH1 0x2 DUP4 MLOAD PUSH2 0x585C JUMP JUMPDEST PUSH2 0x568A DUP2 DUP4 PUSH0 ADD MLOAD PUSH2 0x59FC SWAP1 SWAP2 SWAP1 PUSH4 0xFFFFFFFF AND JUMP JUMPDEST POP POP POP JUMP JUMPDEST PUSH2 0x5697 PUSH2 0x2CC3 JUMP JUMPDEST PUSH2 0x56CD JUMPI PUSH1 0x40 MLOAD PUSH32 0x8DFC202B00000000000000000000000000000000000000000000000000000000 DUP2 MSTORE PUSH1 0x4 ADD PUSH1 0x40 MLOAD DUP1 SWAP2 SUB SWAP1 REVERT JUMPDEST JUMP JUMPDEST PUSH2 0x56D8 DUP3 PUSH2 0x5AA4 JUMP JUMPDEST DUP2 PUSH20 0xFFFFFFFFFFFFFFFFFFFFFFFFFFFFFFFFFFFFFFFF AND PUSH32 0xBC7CD75A20EE27FD9ADEBAB32041F755214DBC6BFFA90CC0225B39DA2E5C2D3B PUSH1 0x40 MLOAD PUSH1 0x40 MLOAD DUP1 SWAP2 SUB SWAP1 LOG2 PUSH0 DUP2 MLOAD GT ISZERO PUSH2 0x5734 JUMPI PUSH2 0x572E DUP3 DUP3 PUSH2 0x5B6D JUMP JUMPDEST POP PUSH2 0x573D JUMP JUMPDEST PUSH2 0x573C PUSH2 0x5BED JUMP JUMPDEST JUMPDEST POP POP JUMP JUMPDEST PUSH0 PUSH32 0xF0C57E16840DF040F15088DC2F81FE391C3923BEC73E23A9662EFC9C229C6A00 PUSH0 SHL SWAP1 POP SWAP1 JUMP JUMPDEST PUSH2 0x5772 PUSH2 0x5C29 JUMP JUMPDEST PUSH2 0x57A8 JUMPI PUSH1 0x40 MLOAD PUSH32 0xD7E6BCF800000000000000000000000000000000000000000000000000000000 DUP2 MSTORE PUSH1 0x4 ADD PUSH1 0x40 MLOAD DUP1 SWAP2 SUB SWAP1 REVERT JUMPDEST JUMP JUMPDEST PUSH2 0x57B2 PUSH2 0x576A JUMP JUMPDEST JUMP JUMPDEST PUSH2 0x57BC PUSH2 0x576A JUMP JUMPDEST JUMP JUMPDEST PUSH2 0x57C6 PUSH2 0x576A JUMP JUMPDEST PUSH0 PUSH2 0x57CF PUSH2 0x54AE JUMP JUMPDEST SWAP1 POP PUSH1 0x1 DUP2 PUSH0 ADD DUP2 SWAP1 SSTORE POP POP JUMP JUMPDEST PUSH0 DUP2 SWAP1 POP SWAP2 SWAP1 POP JUMP JUMPDEST PUSH2 0x57EE PUSH2 0x5FA8 JUMP JUMPDEST PUSH0 PUSH1 0x20 DUP4 PUSH2 0x57FC SWAP2 SWAP1 PUSH2 0x7D3B JUMP JUMPDEST EQ PUSH2 0x5828 JUMPI PUSH1 0x20 DUP3 PUSH2 0x580E SWAP2 SWAP1 PUSH2 0x7D3B JUMP JUMPDEST PUSH1 0x20 PUSH2 0x581A SWAP2 SWAP1 PUSH2 0x70CA JUMP JUMPDEST DUP3 PUSH2 0x5825 SWAP2 SWAP1 PUSH2 0x7534 JUMP JUMPDEST SWAP2 POP JUMPDEST DUP2 DUP4 PUSH1 0x20 ADD DUP2 DUP2 MSTORE POP POP PUSH1 0x40 MLOAD DUP1 DUP5 MSTORE PUSH0 DUP2 MSTORE DUP3 DUP2 ADD PUSH1 0x20 ADD DUP2 DUP2 LT ISZERO PUSH2 0x584D JUMPI PUSH0 PUSH0 REVERT JUMPDEST DUP1 PUSH1 0x40 MSTORE POP POP DUP3 SWAP1 POP SWAP3 SWAP2 POP POP JUMP JUMPDEST PUSH1 0x17 DUP2 PUSH8 0xFFFFFFFFFFFFFFFF AND GT PUSH2 0x5896 JUMPI PUSH2 0x5890 DUP2 PUSH1 0x5 DUP5 PUSH1 0xFF AND SWAP1 SHL PUSH1 0xFF AND OR DUP5 PUSH0 ADD MLOAD PUSH2 0x5A18 SWAP1 SWAP2 SWAP1 PUSH4 0xFFFFFFFF AND JUMP JUMPDEST POP PUSH2 0x59F7 JUMP JUMPDEST PUSH1 0xFF DUP2 PUSH8 0xFFFFFFFFFFFFFFFF AND GT PUSH2 0x58F2 JUMPI PUSH2 0x58C8 PUSH1 0x18 PUSH1 0x5 DUP5 PUSH1 0xFF AND SWAP1 SHL OR DUP5 PUSH0 ADD MLOAD PUSH2 0x5A18 SWAP1 SWAP2 SWAP1 PUSH4 0xFFFFFFFF AND JUMP JUMPDEST POP PUSH2 0x58EC DUP2 PUSH8 0xFFFFFFFFFFFFFFFF AND PUSH1 0x1 DUP6 PUSH0 ADD MLOAD PUSH2 0x5C47 SWAP1 SWAP3 SWAP2 SWAP1 PUSH4 0xFFFFFFFF AND JUMP JUMPDEST POP PUSH2 0x59F6 JUMP JUMPDEST PUSH2 0xFFFF DUP2 PUSH8 0xFFFFFFFFFFFFFFFF AND GT PUSH2 0x594F JUMPI PUSH2 0x5925 PUSH1 0x19 PUSH1 0x5 DUP5 PUSH1 0xFF AND SWAP1 SHL OR DUP5 PUSH0 ADD MLOAD PUSH2 0x5A18 SWAP1 SWAP2 SWAP1 PUSH4 0xFFFFFFFF AND JUMP JUMPDEST POP PUSH2 0x5949 DUP2 PUSH8 0xFFFFFFFFFFFFFFFF AND PUSH1 0x2 DUP6 PUSH0 ADD MLOAD PUSH2 0x5C47 SWAP1 SWAP3 SWAP2 SWAP1 PUSH4 0xFFFFFFFF AND JUMP JUMPDEST POP PUSH2 0x59F5 JUMP JUMPDEST PUSH4 0xFFFFFFFF DUP2 PUSH8 0xFFFFFFFFFFFFFFFF AND GT PUSH2 0x59AE JUMPI PUSH2 0x5984 PUSH1 0x1A PUSH1 0x5 DUP5 PUSH1 0xFF AND SWAP1 SHL OR DUP5 PUSH0 ADD MLOAD PUSH2 0x5A18 SWAP1 SWAP2 SWAP1 PUSH4 0xFFFFFFFF AND JUMP JUMPDEST POP PUSH2 0x59A8 DUP2 PUSH8 0xFFFFFFFFFFFFFFFF AND PUSH1 0x4 DUP6 PUSH0 ADD MLOAD PUSH2 0x5C47 SWAP1 SWAP3 SWAP2 SWAP1 PUSH4 0xFFFFFFFF AND JUMP JUMPDEST POP PUSH2 0x59F4 JUMP JUMPDEST PUSH2 0x59CE PUSH1 0x1B PUSH1 0x5 DUP5 PUSH1 0xFF AND SWAP1 SHL OR DUP5 PUSH0 ADD MLOAD PUSH2 0x5A18 SWAP1 SWAP2 SWAP1 PUSH4 0xFFFFFFFF AND JUMP JUMPDEST POP PUSH2 0x59F2 DUP2 PUSH8 0xFFFFFFFFFFFFFFFF AND PUSH1 0x8 DUP6 PUSH0 ADD MLOAD PUSH2 0x5C47 SWAP1 SWAP3 SWAP2 SWAP1 PUSH4 0xFFFFFFFF AND JUMP JUMPDEST POP JUMPDEST JUMPDEST JUMPDEST JUMPDEST POP POP POP JUMP JUMPDEST PUSH2 0x5A04 PUSH2 0x5FA8 JUMP JUMPDEST PUSH2 0x5A10 DUP4 DUP4 DUP5 MLOAD PUSH2 0x5CD0 JUMP JUMPDEST SWAP1 POP SWAP3 SWAP2 POP POP JUMP JUMPDEST PUSH2 0x5A20 PUSH2 0x5FA8 JUMP JUMPDEST PUSH0 DUP4 PUSH0 ADD MLOAD MLOAD SWAP1 POP PUSH0 PUSH1 0x1 DUP3 PUSH2 0x5A36 SWAP2 SWAP1 PUSH2 0x7534 JUMP JUMPDEST SWAP1 POP DUP5 PUSH1 0x20 ADD MLOAD DUP3 LT PUSH2 0x5A5A JUMPI PUSH2 0x5A59 DUP6 PUSH1 0x2 DUP4 PUSH2 0x5A54 SWAP2 SWAP1 PUSH2 0x702C JUMP JUMPDEST PUSH2 0x5DAD JUMP JUMPDEST JUMPDEST DUP5 MLOAD PUSH1 0x20 DUP4 DUP3 ADD ADD DUP6 DUP2 MSTORE8 DUP2 MLOAD DUP4 GT ISZERO PUSH2 0x5A72 JUMPI DUP3 DUP3 MSTORE JUMPDEST POP POP DUP5 SWAP3 POP POP POP SWAP3 SWAP2 POP POP JUMP JUMPDEST PUSH2 0x5A9F PUSH1 0x1F PUSH1 0x5 DUP4 PUSH1 0xFF AND SWAP1 SHL OR DUP4 PUSH0 ADD MLOAD PUSH2 0x5A18 SWAP1 SWAP2 SWAP1 PUSH4 0xFFFFFFFF AND JUMP JUMPDEST POP POP POP JUMP JUMPDEST PUSH0 DUP2 PUSH20 0xFFFFFFFFFFFFFFFFFFFFFFFFFFFFFFFFFFFFFFFF AND EXTCODESIZE SUB PUSH2 0x5AFF JUMPI DUP1 PUSH1 0x40 MLOAD PUSH32 0x4C9C8CE300000000000000000000000000000000000000000000000000000000 DUP2 MSTORE PUSH1 0x4 ADD PUSH2 0x5AF6 SWAP2 SWAP1 PUSH2 0x66E9 JUMP JUMPDEST PUSH1 0x40 MLOAD DUP1 SWAP2 SUB SWAP1 REVERT JUMPDEST DUP1 PUSH2 0x5B2B PUSH32 0x360894A13BA1A3210667C828492DB98DCA3E2076CC3735A920A3CA505D382BBC PUSH0 SHL PUSH2 0x57DD JUMP JUMPDEST PUSH0 ADD PUSH0 PUSH2 0x100 EXP DUP2 SLOAD DUP2 PUSH20 0xFFFFFFFFFFFFFFFFFFFFFFFFFFFFFFFFFFFFFFFF MUL NOT AND SWAP1 DUP4 PUSH20 0xFFFFFFFFFFFFFFFFFFFFFFFFFFFFFFFFFFFFFFFF AND MUL OR SWAP1 SSTORE POP POP JUMP JUMPDEST PUSH1 0x60 PUSH0 PUSH0 DUP5 PUSH20 0xFFFFFFFFFFFFFFFFFFFFFFFFFFFFFFFFFFFFFFFF AND DUP5 PUSH1 0x40 MLOAD PUSH2 0x5B96 SWAP2 SWAP1 PUSH2 0x7D9B JUMP JUMPDEST PUSH0 PUSH1 0x40 MLOAD DUP1 DUP4 SUB DUP2 DUP6 GAS DELEGATECALL SWAP2 POP POP RETURNDATASIZE DUP1 PUSH0 DUP2 EQ PUSH2 0x5BCE JUMPI PUSH1 0x40 MLOAD SWAP2 POP PUSH1 0x1F NOT PUSH1 0x3F RETURNDATASIZE ADD AND DUP3 ADD PUSH1 0x40 MSTORE RETURNDATASIZE DUP3 MSTORE RETURNDATASIZE PUSH0 PUSH1 0x20 DUP5 ADD RETURNDATACOPY PUSH2 0x5BD3 JUMP JUMPDEST PUSH1 0x60 SWAP2 POP JUMPDEST POP SWAP2 POP SWAP2 POP PUSH2 0x5BE3 DUP6 DUP4 DUP4 PUSH2 0x5DCF JUMP JUMPDEST SWAP3 POP POP POP SWAP3 SWAP2 POP POP JUMP JUMPDEST PUSH0 CALLVALUE GT ISZERO PUSH2 0x5C27 JUMPI PUSH1 0x40 MLOAD PUSH32 0xB398979F00000000000000000000000000000000000000000000000000000000 DUP2 MSTORE PUSH1 0x4 ADD PUSH1 0x40 MLOAD DUP1 SWAP2 SUB SWAP1 REVERT JUMPDEST JUMP JUMPDEST PUSH0 PUSH2 0x5C32 PUSH2 0x4F00 JUMP JUMPDEST PUSH0 ADD PUSH1 0x8 SWAP1 SLOAD SWAP1 PUSH2 0x100 EXP SWAP1 DIV PUSH1 0xFF AND SWAP1 POP SWAP1 JUMP JUMPDEST PUSH2 0x5C4F PUSH2 0x5FA8 JUMP JUMPDEST PUSH0 DUP5 PUSH0 ADD MLOAD MLOAD SWAP1 POP PUSH0 DUP2 DUP5 PUSH2 0x5C64 SWAP2 SWAP1 PUSH2 0x7534 JUMP JUMPDEST SWAP1 POP DUP6 PUSH1 0x20 ADD MLOAD DUP2 GT ISZERO PUSH2 0x5C89 JUMPI PUSH2 0x5C88 DUP7 PUSH1 0x2 DUP4 PUSH2 0x5C83 SWAP2 SWAP1 PUSH2 0x702C JUMP JUMPDEST PUSH2 0x5DAD JUMP JUMPDEST JUMPDEST PUSH0 PUSH1 0x1 DUP6 PUSH2 0x100 PUSH2 0x5C9A SWAP2 SWAP1 PUSH2 0x7EE0 JUMP JUMPDEST PUSH2 0x5CA4 SWAP2 SWAP1 PUSH2 0x70CA JUMP JUMPDEST SWAP1 POP DUP7 MLOAD DUP3 DUP2 ADD DUP8 DUP4 NOT DUP3 MLOAD AND OR DUP2 MSTORE DUP2 MLOAD DUP5 GT ISZERO PUSH2 0x5CC1 JUMPI DUP4 DUP3 MSTORE JUMPDEST POP POP DUP7 SWAP4 POP POP POP POP SWAP4 SWAP3 POP POP POP JUMP JUMPDEST PUSH2 0x5CD8 PUSH2 0x5FA8 JUMP JUMPDEST DUP3 MLOAD DUP3 GT ISZERO PUSH2 0x5CE5 JUMPI PUSH0 PUSH0 REVERT JUMPDEST PUSH0 DUP5 PUSH0 ADD MLOAD MLOAD SWAP1 POP PUSH0 DUP4 DUP3 PUSH2 0x5CFA SWAP2 SWAP1 PUSH2 0x7534 JUMP JUMPDEST SWAP1 POP DUP6 PUSH1 0x20 ADD MLOAD DUP2 GT ISZERO PUSH2 0x5D1F JUMPI PUSH2 0x5D1E DUP7 PUSH1 0x2 DUP4 PUSH2 0x5D19 SWAP2 SWAP1 PUSH2 0x702C JUMP JUMPDEST PUSH2 0x5DAD JUMP JUMPDEST JUMPDEST PUSH0 PUSH0 DUP8 MLOAD DUP1 MLOAD DUP6 PUSH1 0x20 DUP4 ADD ADD SWAP4 POP DUP1 DUP6 GT ISZERO PUSH2 0x5D39 JUMPI DUP5 DUP3 MSTORE JUMPDEST PUSH1 0x20 DUP10 ADD SWAP3 POP POP POP JUMPDEST PUSH1 0x20 DUP7 LT PUSH2 0x5D80 JUMPI DUP1 MLOAD DUP3 MSTORE PUSH1 0x20 DUP3 PUSH2 0x5D5B SWAP2 SWAP1 PUSH2 0x7534 JUMP JUMPDEST SWAP2 POP PUSH1 0x20 DUP2 PUSH2 0x5D6A SWAP2 SWAP1 PUSH2 0x7534 JUMP JUMPDEST SWAP1 POP PUSH1 0x20 DUP7 PUSH2 0x5D79 SWAP2 SWAP1 PUSH2 0x70CA JUMP JUMPDEST SWAP6 POP PUSH2 0x5D42 JUMP JUMPDEST PUSH0 PUSH1 0x1 DUP8 PUSH1 0x20 SUB PUSH2 0x100 EXP SUB SWAP1 POP DUP1 NOT DUP3 MLOAD AND DUP2 DUP5 MLOAD AND DUP2 DUP2 OR DUP6 MSTORE POP POP POP DUP8 SWAP5 POP POP POP POP POP SWAP4 SWAP3 POP POP POP JUMP JUMPDEST PUSH0 DUP3 PUSH0 ADD MLOAD SWAP1 POP PUSH2 0x5DBE DUP4 DUP4 PUSH2 0x57E6 JUMP JUMPDEST POP PUSH2 0x5DC9 DUP4 DUP3 PUSH2 0x59FC JUMP JUMPDEST POP POP POP POP JUMP JUMPDEST PUSH1 0x60 DUP3 PUSH2 0x5DE4 JUMPI PUSH2 0x5DDF DUP3 PUSH2 0x5E5C JUMP JUMPDEST PUSH2 0x5E54 JUMP JUMPDEST PUSH0 DUP3 MLOAD EQ DUP1 ISZERO PUSH2 0x5E0A JUMPI POP PUSH0 DUP5 PUSH20 0xFFFFFFFFFFFFFFFFFFFFFFFFFFFFFFFFFFFFFFFF AND EXTCODESIZE EQ JUMPDEST ISZERO PUSH2 0x5E4C JUMPI DUP4 PUSH1 0x40 MLOAD PUSH32 0x9996B31500000000000000000000000000000000000000000000000000000000 DUP2 MSTORE PUSH1 0x4 ADD PUSH2 0x5E43 SWAP2 SWAP1 PUSH2 0x66E9 JUMP JUMPDEST PUSH1 0x40 MLOAD DUP1 SWAP2 SUB SWAP1 REVERT JUMPDEST DUP2 SWAP1 POP PUSH2 0x5E55 JUMP JUMPDEST JUMPDEST SWAP4 SWAP3 POP POP POP JUMP JUMPDEST PUSH0 DUP2 MLOAD GT ISZERO PUSH2 0x5E6E JUMPI DUP1 MLOAD DUP1 DUP3 PUSH1 0x20 ADD REVERT JUMPDEST PUSH1 0x40 MLOAD PUSH32 0xD6BDA27500000000000000000000000000000000000000000000000000000000 DUP2 MSTORE PUSH1 0x4 ADD PUSH1 0x40 MLOAD DUP1 SWAP2 SUB SWAP1 REVERT JUMPDEST PUSH1 0x40 MLOAD DUP1 PUSH2 0x140 ADD PUSH1 0x40 MSTORE DUP1 PUSH0 DUP2 MSTORE PUSH1 0x20 ADD PUSH0 PUSH20 0xFFFFFFFFFFFFFFFFFFFFFFFFFFFFFFFFFFFFFFFF AND DUP2 MSTORE PUSH1 0x20 ADD PUSH0 DUP2 MSTORE PUSH1 0x20 ADD PUSH0 PUSH20 0xFFFFFFFFFFFFFFFFFFFFFFFFFFFFFFFFFFFFFFFF AND DUP2 MSTORE PUSH1 0x20 ADD PUSH0 DUP2 MSTORE PUSH1 0x20 ADD PUSH0 DUP2 MSTORE PUSH1 0x20 ADD PUSH0 DUP2 MSTORE PUSH1 0x20 ADD PUSH0 ISZERO ISZERO DUP2 MSTORE PUSH1 0x20 ADD PUSH1 0x60 DUP2 MSTORE PUSH1 0x20 ADD PUSH0 ISZERO ISZERO DUP2 MSTORE POP SWAP1 JUMP JUMPDEST PUSH1 0x40 MLOAD DUP1 PUSH1 0xE0 ADD PUSH1 0x40 MSTORE DUP1 PUSH0 PUSH1 0x2 DUP2 GT ISZERO PUSH2 0x5F38 JUMPI PUSH2 0x5F37 PUSH2 0x6A1D JUMP JUMPDEST JUMPDEST DUP2 MSTORE PUSH1 0x20 ADD PUSH0 PUSH1 0x2 DUP2 GT ISZERO PUSH2 0x5F50 JUMPI PUSH2 0x5F4F PUSH2 0x6A1D JUMP JUMPDEST JUMPDEST DUP2 MSTORE PUSH1 0x20 ADD PUSH0 PUSH0 DUP2 GT ISZERO PUSH2 0x5F67 JUMPI PUSH2 0x5F66 PUSH2 0x6A1D JUMP JUMPDEST JUMPDEST DUP2 MSTORE PUSH1 0x20 ADD PUSH1 0x60 DUP2 MSTORE PUSH1 0x20 ADD PUSH1 0x60 DUP2 MSTORE PUSH1 0x20 ADD PUSH1 0x60 DUP2 MSTORE PUSH1 0x20 ADD PUSH1 0x60 DUP2 MSTORE POP SWAP1 JUMP JUMPDEST PUSH1 0x40 MLOAD DUP1 PUSH1 0x40 ADD PUSH1 0x40 MSTORE DUP1 PUSH2 0x5F9C PUSH2 0x5FA8 JUMP JUMPDEST DUP2 MSTORE PUSH1 0x20 ADD PUSH0 DUP2 MSTORE POP SWAP1 JUMP JUMPDEST PUSH1 0x40 MLOAD DUP1 PUSH1 0x40 ADD PUSH1 0x40 MSTORE DUP1 PUSH1 0x60 DUP2 MSTORE PUSH1 0x20 ADD PUSH0 DUP2 MSTORE POP SWAP1 JUMP JUMPDEST PUSH0 DUP2 ISZERO ISZERO SWAP1 POP SWAP2 SWAP1 POP JUMP JUMPDEST PUSH2 0x5FD5 DUP2 PUSH2 0x5FC1 JUMP JUMPDEST DUP3 MSTORE POP POP JUMP JUMPDEST PUSH0 PUSH1 0x20 DUP3 ADD SWAP1 POP PUSH2 0x5FEE PUSH0 DUP4 ADD DUP5 PUSH2 0x5FCC JUMP JUMPDEST SWAP3 SWAP2 POP POP JUMP JUMPDEST PUSH0 PUSH1 0x40 MLOAD SWAP1 POP SWAP1 JUMP JUMPDEST PUSH0 PUSH0 REVERT JUMPDEST PUSH0 PUSH0 REVERT JUMPDEST PUSH0 PUSH32 0xFFFFFFFF00000000000000000000000000000000000000000000000000000000 DUP3 AND SWAP1 POP SWAP2 SWAP1 POP JUMP JUMPDEST PUSH2 0x6039 DUP2 PUSH2 0x6005 JUMP JUMPDEST DUP2 EQ PUSH2 0x6043 JUMPI PUSH0 PUSH0 REVERT JUMPDEST POP JUMP JUMPDEST PUSH0 DUP2 CALLDATALOAD SWAP1 POP PUSH2 0x6054 DUP2 PUSH2 0x6030 JUMP JUMPDEST SWAP3 SWAP2 POP POP JUMP JUMPDEST PUSH0 PUSH1 0x20 DUP3 DUP5 SUB SLT ISZERO PUSH2 0x606F JUMPI PUSH2 0x606E PUSH2 0x5FFD JUMP JUMPDEST JUMPDEST PUSH0 PUSH2 0x607C DUP5 DUP3 DUP6 ADD PUSH2 0x6046 JUMP JUMPDEST SWAP2 POP POP SWAP3 SWAP2 POP POP JUMP JUMPDEST PUSH0 PUSH8 0xFFFFFFFFFFFFFFFF DUP3 AND SWAP1 POP SWAP2 SWAP1 POP JUMP JUMPDEST PUSH2 0x60A1 DUP2 PUSH2 0x6085 JUMP JUMPDEST DUP3 MSTORE POP POP JUMP JUMPDEST PUSH0 PUSH1 0x20 DUP3 ADD SWAP1 POP PUSH2 0x60BA PUSH0 DUP4 ADD DUP5 PUSH2 0x6098 JUMP JUMPDEST SWAP3 SWAP2 POP POP JUMP JUMPDEST PUSH0 DUP2 SWAP1 POP SWAP2 SWAP1 POP JUMP JUMPDEST PUSH2 0x60D2 DUP2 PUSH2 0x60C0 JUMP JUMPDEST DUP2 EQ PUSH2 0x60DC JUMPI PUSH0 PUSH0 REVERT JUMPDEST POP JUMP JUMPDEST PUSH0 DUP2 CALLDATALOAD SWAP1 POP PUSH2 0x60ED DUP2 PUSH2 0x60C9 JUMP JUMPDEST SWAP3 SWAP2 POP POP JUMP JUMPDEST PUSH0 PUSH0 REVERT JUMPDEST PUSH0 PUSH0 REVERT JUMPDEST PUSH0 PUSH1 0x1F NOT PUSH1 0x1F DUP4 ADD AND SWAP1 POP SWAP2 SWAP1 POP JUMP JUMPDEST PUSH32 0x4E487B7100000000000000000000000000000000000000000000000000000000 PUSH0 MSTORE PUSH1 0x41 PUSH1 0x4 MSTORE PUSH1 0x24 PUSH0 REVERT JUMPDEST PUSH2 0x6141 DUP3 PUSH2 0x60FB JUMP JUMPDEST DUP2 ADD DUP2 DUP2 LT PUSH8 0xFFFFFFFFFFFFFFFF DUP3 GT OR ISZERO PUSH2 0x6160 JUMPI PUSH2 0x615F PUSH2 0x610B JUMP JUMPDEST JUMPDEST DUP1 PUSH1 0x40 MSTORE POP POP POP JUMP JUMPDEST PUSH0 PUSH2 0x6172 PUSH2 0x5FF4 JUMP JUMPDEST SWAP1 POP PUSH2 0x617E DUP3 DUP3 PUSH2 0x6138 JUMP JUMPDEST SWAP2 SWAP1 POP JUMP JUMPDEST PUSH0 PUSH8 0xFFFFFFFFFFFFFFFF DUP3 GT ISZERO PUSH2 0x619D JUMPI PUSH2 0x619C PUSH2 0x610B JUMP JUMPDEST JUMPDEST PUSH2 0x61A6 DUP3 PUSH2 0x60FB JUMP JUMPDEST SWAP1 POP PUSH1 0x20 DUP2 ADD SWAP1 POP SWAP2 SWAP1 POP JUMP JUMPDEST DUP3 DUP2 DUP4 CALLDATACOPY PUSH0 DUP4 DUP4 ADD MSTORE POP POP POP JUMP JUMPDEST PUSH0 PUSH2 0x61D3 PUSH2 0x61CE DUP5 PUSH2 0x6183 JUMP JUMPDEST PUSH2 0x6169 JUMP JUMPDEST SWAP1 POP DUP3 DUP2 MSTORE PUSH1 0x20 DUP2 ADD DUP5 DUP5 DUP5 ADD GT ISZERO PUSH2 0x61EF JUMPI PUSH2 0x61EE PUSH2 0x60F7 JUMP JUMPDEST JUMPDEST PUSH2 0x61FA DUP5 DUP3 DUP6 PUSH2 0x61B3 JUMP JUMPDEST POP SWAP4 SWAP3 POP POP POP JUMP JUMPDEST PUSH0 DUP3 PUSH1 0x1F DUP4 ADD SLT PUSH2 0x6216 JUMPI PUSH2 0x6215 PUSH2 0x60F3 JUMP JUMPDEST JUMPDEST DUP2 CALLDATALOAD PUSH2 0x6226 DUP5 DUP3 PUSH1 0x20 DUP7 ADD PUSH2 0x61C1 JUMP JUMPDEST SWAP2 POP POP SWAP3 SWAP2 POP POP JUMP JUMPDEST PUSH0 PUSH0 PUSH0 PUSH1 0x60 DUP5 DUP7 SUB SLT ISZERO PUSH2 0x6246 JUMPI PUSH2 0x6245 PUSH2 0x5FFD JUMP JUMPDEST JUMPDEST PUSH0 PUSH2 0x6253 DUP7 DUP3 DUP8 ADD PUSH2 0x60DF JUMP JUMPDEST SWAP4 POP POP PUSH1 0x20 DUP5 ADD CALLDATALOAD PUSH8 0xFFFFFFFFFFFFFFFF DUP2 GT ISZERO PUSH2 0x6274 JUMPI PUSH2 0x6273 PUSH2 0x6001 JUMP JUMPDEST JUMPDEST PUSH2 0x6280 DUP7 DUP3 DUP8 ADD PUSH2 0x6202 JUMP JUMPDEST SWAP3 POP POP PUSH1 0x40 DUP5 ADD CALLDATALOAD PUSH8 0xFFFFFFFFFFFFFFFF DUP2 GT ISZERO PUSH2 0x62A1 JUMPI PUSH2 0x62A0 PUSH2 0x6001 JUMP JUMPDEST JUMPDEST PUSH2 0x62AD DUP7 DUP3 DUP8 ADD PUSH2 0x6202 JUMP JUMPDEST SWAP2 POP POP SWAP3 POP SWAP3 POP SWAP3 JUMP JUMPDEST PUSH0 DUP2 SWAP1 POP SWAP2 SWAP1 POP JUMP JUMPDEST PUSH2 0x62C9 DUP2 PUSH2 0x62B7 JUMP JUMPDEST DUP2 EQ PUSH2 0x62D3 JUMPI PUSH0 PUSH0 REVERT JUMPDEST POP JUMP JUMPDEST PUSH0 DUP2 CALLDATALOAD SWAP1 POP PUSH2 0x62E4 DUP2 PUSH2 0x62C0 JUMP JUMPDEST SWAP3 SWAP2 POP POP JUMP JUMPDEST PUSH0 PUSH1 0x20 DUP3 DUP5 SUB SLT ISZERO PUSH2 0x62FF JUMPI PUSH2 0x62FE PUSH2 0x5FFD JUMP JUMPDEST JUMPDEST PUSH0 PUSH2 0x630C DUP5 DUP3 DUP6 ADD PUSH2 0x62D6 JUMP JUMPDEST SWAP2 POP POP SWAP3 SWAP2 POP POP JUMP JUMPDEST PUSH2 0x631E DUP2 PUSH2 0x62B7 JUMP JUMPDEST DUP3 MSTORE POP POP JUMP JUMPDEST PUSH0 PUSH20 0xFFFFFFFFFFFFFFFFFFFFFFFFFFFFFFFFFFFFFFFF DUP3 AND SWAP1 POP SWAP2 SWAP1 POP JUMP JUMPDEST PUSH0 PUSH2 0x634D DUP3 PUSH2 0x6324 JUMP JUMPDEST SWAP1 POP SWAP2 SWAP1 POP JUMP JUMPDEST PUSH2 0x635D DUP2 PUSH2 0x6343 JUMP JUMPDEST DUP3 MSTORE POP POP JUMP JUMPDEST PUSH2 0x636C DUP2 PUSH2 0x5FC1 JUMP JUMPDEST DUP3 MSTORE POP POP JUMP JUMPDEST PUSH0 DUP2 MLOAD SWAP1 POP SWAP2 SWAP1 POP JUMP JUMPDEST PUSH0 DUP3 DUP3 MSTORE PUSH1 0x20 DUP3 ADD SWAP1 POP SWAP3 SWAP2 POP POP JUMP JUMPDEST DUP3 DUP2 DUP4 MCOPY PUSH0 DUP4 DUP4 ADD MSTORE POP POP POP JUMP JUMPDEST PUSH0 PUSH2 0x63A4 DUP3 PUSH2 0x6372 JUMP JUMPDEST PUSH2 0x63AE DUP2 DUP6 PUSH2 0x637C JUMP JUMPDEST SWAP4 POP PUSH2 0x63BE DUP2 DUP6 PUSH1 0x20 DUP7 ADD PUSH2 0x638C JUMP JUMPDEST PUSH2 0x63C7 DUP2 PUSH2 0x60FB JUMP JUMPDEST DUP5 ADD SWAP2 POP POP SWAP3 SWAP2 POP POP JUMP JUMPDEST PUSH0 PUSH2 0x140 DUP4 ADD PUSH0 DUP4 ADD MLOAD PUSH2 0x63E8 PUSH0 DUP7 ADD DUP3 PUSH2 0x6315 JUMP JUMPDEST POP PUSH1 0x20 DUP4 ADD MLOAD PUSH2 0x63FB PUSH1 0x20 DUP7 ADD DUP3 PUSH2 0x6354 JUMP JUMPDEST POP PUSH1 0x40 DUP4 ADD MLOAD PUSH2 0x640E PUSH1 0x40 DUP7 ADD DUP3 PUSH2 0x6315 JUMP JUMPDEST POP PUSH1 0x60 DUP4 ADD MLOAD PUSH2 0x6421 PUSH1 0x60 DUP7 ADD DUP3 PUSH2 0x6354 JUMP JUMPDEST POP PUSH1 0x80 DUP4 ADD MLOAD PUSH2 0x6434 PUSH1 0x80 DUP7 ADD DUP3 PUSH2 0x6315 JUMP JUMPDEST POP PUSH1 0xA0 DUP4 ADD MLOAD PUSH2 0x6447 PUSH1 0xA0 DUP7 ADD DUP3 PUSH2 0x6315 JUMP JUMPDEST POP PUSH1 0xC0 DUP4 ADD MLOAD PUSH2 0x645A PUSH1 0xC0 DUP7 ADD DUP3 PUSH2 0x6315 JUMP JUMPDEST POP PUSH1 0xE0 DUP4 ADD MLOAD PUSH2 0x646D PUSH1 0xE0 DUP7 ADD DUP3 PUSH2 0x6363 JUMP JUMPDEST POP PUSH2 0x100 DUP4 ADD MLOAD DUP5 DUP3 SUB PUSH2 0x100 DUP7 ADD MSTORE PUSH2 0x6487 DUP3 DUP3 PUSH2 0x639A JUMP JUMPDEST SWAP2 POP POP PUSH2 0x120 DUP4 ADD MLOAD PUSH2 0x649E PUSH2 0x120 DUP7 ADD DUP3 PUSH2 0x6363 JUMP JUMPDEST POP DUP1 SWAP2 POP POP SWAP3 SWAP2 POP POP JUMP JUMPDEST PUSH0 PUSH1 0x20 DUP3 ADD SWAP1 POP DUP2 DUP2 SUB PUSH0 DUP4 ADD MSTORE PUSH2 0x64C1 DUP2 DUP5 PUSH2 0x63D2 JUMP JUMPDEST SWAP1 POP SWAP3 SWAP2 POP POP JUMP JUMPDEST PUSH0 PUSH1 0x20 DUP3 DUP5 SUB SLT ISZERO PUSH2 0x64DE JUMPI PUSH2 0x64DD PUSH2 0x5FFD JUMP JUMPDEST JUMPDEST PUSH0 PUSH2 0x64EB DUP5 DUP3 DUP6 ADD PUSH2 0x60DF JUMP JUMPDEST SWAP2 POP POP SWAP3 SWAP2 POP POP JUMP JUMPDEST PUSH2 0x64FD DUP2 PUSH2 0x60C0 JUMP JUMPDEST DUP3 MSTORE POP POP JUMP JUMPDEST PUSH0 PUSH1 0x20 DUP3 ADD SWAP1 POP PUSH2 0x6516 PUSH0 DUP4 ADD DUP5 PUSH2 0x64F4 JUMP JUMPDEST SWAP3 SWAP2 POP POP JUMP JUMPDEST PUSH2 0x6525 DUP2 PUSH2 0x6343 JUMP JUMPDEST DUP2 EQ PUSH2 0x652F JUMPI PUSH0 PUSH0 REVERT JUMPDEST POP JUMP JUMPDEST PUSH0 DUP2 CALLDATALOAD SWAP1 POP PUSH2 0x6540 DUP2 PUSH2 0x651C JUMP JUMPDEST SWAP3 SWAP2 POP POP JUMP JUMPDEST PUSH0 PUSH0 PUSH1 0x40 DUP4 DUP6 SUB SLT ISZERO PUSH2 0x655C JUMPI PUSH2 0x655B PUSH2 0x5FFD JUMP JUMPDEST JUMPDEST PUSH0 PUSH2 0x6569 DUP6 DUP3 DUP7 ADD PUSH2 0x60DF JUMP JUMPDEST SWAP3 POP POP PUSH1 0x20 PUSH2 0x657A DUP6 DUP3 DUP7 ADD PUSH2 0x6532 JUMP JUMPDEST SWAP2 POP POP SWAP3 POP SWAP3 SWAP1 POP JUMP JUMPDEST PUSH2 0x658D DUP2 PUSH2 0x6085 JUMP JUMPDEST DUP2 EQ PUSH2 0x6597 JUMPI PUSH0 PUSH0 REVERT JUMPDEST POP JUMP JUMPDEST PUSH0 DUP2 CALLDATALOAD SWAP1 POP PUSH2 0x65A8 DUP2 PUSH2 0x6584 JUMP JUMPDEST SWAP3 SWAP2 POP POP JUMP JUMPDEST PUSH0 PUSH0 REVERT JUMPDEST PUSH0 PUSH0 REVERT JUMPDEST PUSH0 PUSH0 DUP4 PUSH1 0x1F DUP5 ADD SLT PUSH2 0x65CB JUMPI PUSH2 0x65CA PUSH2 0x60F3 JUMP JUMPDEST JUMPDEST DUP3 CALLDATALOAD SWAP1 POP PUSH8 0xFFFFFFFFFFFFFFFF DUP2 GT ISZERO PUSH2 0x65E8 JUMPI PUSH2 0x65E7 PUSH2 0x65AE JUMP JUMPDEST JUMPDEST PUSH1 0x20 DUP4 ADD SWAP2 POP DUP4 PUSH1 0x1 DUP3 MUL DUP4 ADD GT ISZERO PUSH2 0x6604 JUMPI PUSH2 0x6603 PUSH2 0x65B2 JUMP JUMPDEST JUMPDEST SWAP3 POP SWAP3 SWAP1 POP JUMP JUMPDEST PUSH0 PUSH0 PUSH0 PUSH1 0x40 DUP5 DUP7 SUB SLT ISZERO PUSH2 0x6622 JUMPI PUSH2 0x6621 PUSH2 0x5FFD JUMP JUMPDEST JUMPDEST PUSH0 PUSH2 0x662F DUP7 DUP3 DUP8 ADD PUSH2 0x659A JUMP JUMPDEST SWAP4 POP POP PUSH1 0x20 DUP5 ADD CALLDATALOAD PUSH8 0xFFFFFFFFFFFFFFFF DUP2 GT ISZERO PUSH2 0x6650 JUMPI PUSH2 0x664F PUSH2 0x6001 JUMP JUMPDEST JUMPDEST PUSH2 0x665C DUP7 DUP3 DUP8 ADD PUSH2 0x65B6 JUMP JUMPDEST SWAP3 POP SWAP3 POP POP SWAP3 POP SWAP3 POP SWAP3 JUMP JUMPDEST PUSH0 DUP2 MLOAD SWAP1 POP SWAP2 SWAP1 POP JUMP JUMPDEST PUSH0 DUP3 DUP3 MSTORE PUSH1 0x20 DUP3 ADD SWAP1 POP SWAP3 SWAP2 POP POP JUMP JUMPDEST PUSH0 PUSH2 0x668C DUP3 PUSH2 0x6668 JUMP JUMPDEST PUSH2 0x6696 DUP2 DUP6 PUSH2 0x6672 JUMP JUMPDEST SWAP4 POP PUSH2 0x66A6 DUP2 DUP6 PUSH1 0x20 DUP7 ADD PUSH2 0x638C JUMP JUMPDEST PUSH2 0x66AF DUP2 PUSH2 0x60FB JUMP JUMPDEST DUP5 ADD SWAP2 POP POP SWAP3 SWAP2 POP POP JUMP JUMPDEST PUSH0 PUSH1 0x20 DUP3 ADD SWAP1 POP DUP2 DUP2 SUB PUSH0 DUP4 ADD MSTORE PUSH2 0x66D2 DUP2 DUP5 PUSH2 0x6682 JUMP JUMPDEST SWAP1 POP SWAP3 SWAP2 POP POP JUMP JUMPDEST PUSH2 0x66E3 DUP2 PUSH2 0x6343 JUMP JUMPDEST DUP3 MSTORE POP POP JUMP JUMPDEST PUSH0 PUSH1 0x20 DUP3 ADD SWAP1 POP PUSH2 0x66FC PUSH0 DUP4 ADD DUP5 PUSH2 0x66DA JUMP JUMPDEST SWAP3 SWAP2 POP POP JUMP JUMPDEST PUSH0 PUSH0 PUSH0 PUSH0 PUSH0 PUSH0 PUSH1 0xA0 DUP8 DUP10 SUB SLT ISZERO PUSH2 0x671C JUMPI PUSH2 0x671B PUSH2 0x5FFD JUMP JUMPDEST JUMPDEST PUSH0 PUSH2 0x6729 DUP10 DUP3 DUP11 ADD PUSH2 0x6532 JUMP JUMPDEST SWAP7 POP POP PUSH1 0x20 PUSH2 0x673A DUP10 DUP3 DUP11 ADD PUSH2 0x62D6 JUMP JUMPDEST SWAP6 POP POP PUSH1 0x40 PUSH2 0x674B DUP10 DUP3 DUP11 ADD PUSH2 0x62D6 JUMP JUMPDEST SWAP5 POP POP PUSH1 0x60 PUSH2 0x675C DUP10 DUP3 DUP11 ADD PUSH2 0x62D6 JUMP JUMPDEST SWAP4 POP POP PUSH1 0x80 DUP8 ADD CALLDATALOAD PUSH8 0xFFFFFFFFFFFFFFFF DUP2 GT ISZERO PUSH2 0x677D JUMPI PUSH2 0x677C PUSH2 0x6001 JUMP JUMPDEST JUMPDEST PUSH2 0x6789 DUP10 DUP3 DUP11 ADD PUSH2 0x65B6 JUMP JUMPDEST SWAP3 POP SWAP3 POP POP SWAP3 SWAP6 POP SWAP3 SWAP6 POP SWAP3 SWAP6 JUMP JUMPDEST PUSH1 0x5 DUP2 LT PUSH2 0x67A4 JUMPI PUSH0 PUSH0 REVERT JUMPDEST POP JUMP JUMPDEST PUSH0 DUP2 CALLDATALOAD SWAP1 POP PUSH2 0x67B5 DUP2 PUSH2 0x6798 JUMP JUMPDEST SWAP3 SWAP2 POP POP JUMP JUMPDEST PUSH0 PUSH0 PUSH0 PUSH1 0x40 DUP5 DUP7 SUB SLT ISZERO PUSH2 0x67D2 JUMPI PUSH2 0x67D1 PUSH2 0x5FFD JUMP JUMPDEST JUMPDEST PUSH0 DUP5 ADD CALLDATALOAD PUSH8 0xFFFFFFFFFFFFFFFF DUP2 GT ISZERO PUSH2 0x67EF JUMPI PUSH2 0x67EE PUSH2 0x6001 JUMP JUMPDEST JUMPDEST PUSH2 0x67FB DUP7 DUP3 DUP8 ADD PUSH2 0x65B6 JUMP JUMPDEST SWAP4 POP SWAP4 POP POP PUSH1 0x20 PUSH2 0x680E DUP7 DUP3 DUP8 ADD PUSH2 0x67A7 JUMP JUMPDEST SWAP2 POP POP SWAP3 POP SWAP3 POP SWAP3 JUMP JUMPDEST PUSH0 PUSH0 PUSH1 0x40 DUP4 DUP6 SUB SLT ISZERO PUSH2 0x682E JUMPI PUSH2 0x682D PUSH2 0x5FFD JUMP JUMPDEST JUMPDEST PUSH0 PUSH2 0x683B DUP6 DUP3 DUP7 ADD PUSH2 0x6532 JUMP JUMPDEST SWAP3 POP POP PUSH1 0x20 DUP4 ADD CALLDATALOAD PUSH8 0xFFFFFFFFFFFFFFFF DUP2 GT ISZERO PUSH2 0x685C JUMPI PUSH2 0x685B PUSH2 0x6001 JUMP JUMPDEST JUMPDEST PUSH2 0x6868 DUP6 DUP3 DUP7 ADD PUSH2 0x6202 JUMP JUMPDEST SWAP2 POP POP SWAP3 POP SWAP3 SWAP1 POP JUMP JUMPDEST PUSH0 PUSH0 PUSH1 0x40 DUP4 DUP6 SUB SLT ISZERO PUSH2 0x6888 JUMPI PUSH2 0x6887 PUSH2 0x5FFD JUMP JUMPDEST JUMPDEST PUSH0 PUSH2 0x6895 DUP6 DUP3 DUP7 ADD PUSH2 0x6532 JUMP JUMPDEST SWAP3 POP POP PUSH1 0x20 PUSH2 0x68A6 DUP6 DUP3 DUP7 ADD PUSH2 0x62D6 JUMP JUMPDEST SWAP2 POP POP SWAP3 POP SWAP3 SWAP1 POP JUMP JUMPDEST PUSH0 PUSH0 PUSH1 0x20 DUP4 DUP6 SUB SLT ISZERO PUSH2 0x68C6 JUMPI PUSH2 0x68C5 PUSH2 0x5FFD JUMP JUMPDEST JUMPDEST PUSH0 DUP4 ADD CALLDATALOAD PUSH8 0xFFFFFFFFFFFFFFFF DUP2 GT ISZERO PUSH2 0x68E3 JUMPI PUSH2 0x68E2 PUSH2 0x6001 JUMP JUMPDEST JUMPDEST PUSH2 0x68EF DUP6 DUP3 DUP7 ADD PUSH2 0x65B6 JUMP JUMPDEST SWAP3 POP SWAP3 POP POP SWAP3 POP SWAP3 SWAP1 POP JUMP JUMPDEST PUSH2 0x6904 DUP2 PUSH2 0x62B7 JUMP JUMPDEST DUP3 MSTORE POP POP JUMP JUMPDEST PUSH0 PUSH1 0x20 DUP3 ADD SWAP1 POP PUSH2 0x691D PUSH0 DUP4 ADD DUP5 PUSH2 0x68FB JUMP JUMPDEST SWAP3 SWAP2 POP POP JUMP JUMPDEST PUSH0 PUSH0 DUP4 PUSH1 0x1F DUP5 ADD SLT PUSH2 0x6938 JUMPI PUSH2 0x6937 PUSH2 0x60F3 JUMP JUMPDEST JUMPDEST DUP3 CALLDATALOAD SWAP1 POP PUSH8 0xFFFFFFFFFFFFFFFF DUP2 GT ISZERO PUSH2 0x6955 JUMPI PUSH2 0x6954 PUSH2 0x65AE JUMP JUMPDEST JUMPDEST PUSH1 0x20 DUP4 ADD SWAP2 POP DUP4 PUSH1 0x20 DUP3 MUL DUP4 ADD GT ISZERO PUSH2 0x6971 JUMPI PUSH2 0x6970 PUSH2 0x65B2 JUMP JUMPDEST JUMPDEST SWAP3 POP SWAP3 SWAP1 POP JUMP JUMPDEST PUSH0 PUSH0 PUSH0 PUSH1 0x40 DUP5 DUP7 SUB SLT ISZERO PUSH2 0x698F JUMPI PUSH2 0x698E PUSH2 0x5FFD JUMP JUMPDEST JUMPDEST PUSH0 PUSH2 0x699C DUP7 DUP3 DUP8 ADD PUSH2 0x659A JUMP JUMPDEST SWAP4 POP POP PUSH1 0x20 DUP5 ADD CALLDATALOAD PUSH8 0xFFFFFFFFFFFFFFFF DUP2 GT ISZERO PUSH2 0x69BD JUMPI PUSH2 0x69BC PUSH2 0x6001 JUMP JUMPDEST JUMPDEST PUSH2 0x69C9 DUP7 DUP3 DUP8 ADD PUSH2 0x6923 JUMP JUMPDEST SWAP3 POP SWAP3 POP POP SWAP3 POP SWAP3 POP SWAP3 JUMP JUMPDEST PUSH0 DUP3 DUP3 MSTORE PUSH1 0x20 DUP3 ADD SWAP1 POP SWAP3 SWAP2 POP POP JUMP JUMPDEST PUSH0 PUSH2 0x69EF DUP3 PUSH2 0x6372 JUMP JUMPDEST PUSH2 0x69F9 DUP2 DUP6 PUSH2 0x69D5 JUMP JUMPDEST SWAP4 POP PUSH2 0x6A09 DUP2 DUP6 PUSH1 0x20 DUP7 ADD PUSH2 0x638C JUMP JUMPDEST PUSH2 0x6A12 DUP2 PUSH2 0x60FB JUMP JUMPDEST DUP5 ADD SWAP2 POP POP SWAP3 SWAP2 POP POP JUMP JUMPDEST PUSH32 0x4E487B7100000000000000000000000000000000000000000000000000000000 PUSH0 MSTORE PUSH1 0x21 PUSH1 0x4 MSTORE PUSH1 0x24 PUSH0 REVERT JUMPDEST PUSH1 0x5 DUP2 LT PUSH2 0x6A5B JUMPI PUSH2 0x6A5A PUSH2 0x6A1D JUMP JUMPDEST JUMPDEST POP JUMP JUMPDEST PUSH0 DUP2 SWAP1 POP PUSH2 0x6A6B DUP3 PUSH2 0x6A4A JUMP JUMPDEST SWAP2 SWAP1 POP JUMP JUMPDEST PUSH0 PUSH2 0x6A7A DUP3 PUSH2 0x6A5E JUMP JUMPDEST SWAP1 POP SWAP2 SWAP1 POP JUMP JUMPDEST PUSH2 0x6A8A DUP2 PUSH2 0x6A70 JUMP JUMPDEST DUP3 MSTORE POP POP JUMP JUMPDEST PUSH0 PUSH1 0x40 DUP3 ADD SWAP1 POP DUP2 DUP2 SUB PUSH0 DUP4 ADD MSTORE PUSH2 0x6AA8 DUP2 DUP6 PUSH2 0x69E5 JUMP JUMPDEST SWAP1 POP PUSH2 0x6AB7 PUSH1 0x20 DUP4 ADD DUP5 PUSH2 0x6A81 JUMP JUMPDEST SWAP4 SWAP3 POP POP POP JUMP JUMPDEST PUSH0 PUSH8 0xFFFFFFFFFFFFFFFF DUP3 GT ISZERO PUSH2 0x6AD8 JUMPI PUSH2 0x6AD7 PUSH2 0x610B JUMP JUMPDEST JUMPDEST PUSH2 0x6AE1 DUP3 PUSH2 0x60FB JUMP JUMPDEST SWAP1 POP PUSH1 0x20 DUP2 ADD SWAP1 POP SWAP2 SWAP1 POP JUMP JUMPDEST PUSH0 PUSH2 0x6B00 PUSH2 0x6AFB DUP5 PUSH2 0x6ABE JUMP JUMPDEST PUSH2 0x6169 JUMP JUMPDEST SWAP1 POP DUP3 DUP2 MSTORE PUSH1 0x20 DUP2 ADD DUP5 DUP5 DUP5 ADD GT ISZERO PUSH2 0x6B1C JUMPI PUSH2 0x6B1B PUSH2 0x60F7 JUMP JUMPDEST JUMPDEST PUSH2 0x6B27 DUP5 DUP3 DUP6 PUSH2 0x61B3 JUMP JUMPDEST POP SWAP4 SWAP3 POP POP POP JUMP JUMPDEST PUSH0 DUP3 PUSH1 0x1F DUP4 ADD SLT PUSH2 0x6B43 JUMPI PUSH2 0x6B42 PUSH2 0x60F3 JUMP JUMPDEST JUMPDEST DUP2 CALLDATALOAD PUSH2 0x6B53 DUP5 DUP3 PUSH1 0x20 DUP7 ADD PUSH2 0x6AEE JUMP JUMPDEST SWAP2 POP POP SWAP3 SWAP2 POP POP JUMP JUMPDEST PUSH0 PUSH1 0x20 DUP3 DUP5 SUB SLT ISZERO PUSH2 0x6B71 JUMPI PUSH2 0x6B70 PUSH2 0x5FFD JUMP JUMPDEST JUMPDEST PUSH0 DUP3 ADD CALLDATALOAD PUSH8 0xFFFFFFFFFFFFFFFF DUP2 GT ISZERO PUSH2 0x6B8E JUMPI PUSH2 0x6B8D PUSH2 0x6001 JUMP JUMPDEST JUMPDEST PUSH2 0x6B9A DUP5 DUP3 DUP6 ADD PUSH2 0x6B2F JUMP JUMPDEST SWAP2 POP POP SWAP3 SWAP2 POP POP JUMP JUMPDEST PUSH0 PUSH1 0x20 DUP3 ADD SWAP1 POP PUSH2 0x6BB6 PUSH0 DUP4 ADD DUP5 PUSH2 0x6A81 JUMP JUMPDEST SWAP3 SWAP2 POP POP JUMP JUMPDEST PUSH0 PUSH0 PUSH0 PUSH0 PUSH0 PUSH0 PUSH1 0xC0 DUP8 DUP10 SUB SLT ISZERO PUSH2 0x6BD6 JUMPI PUSH2 0x6BD5 PUSH2 0x5FFD JUMP JUMPDEST JUMPDEST PUSH0 PUSH2 0x6BE3 DUP10 DUP3 DUP11 ADD PUSH2 0x6532 JUMP JUMPDEST SWAP7 POP POP PUSH1 0x20 PUSH2 0x6BF4 DUP10 DUP3 DUP11 ADD PUSH2 0x62D6 JUMP JUMPDEST SWAP6 POP POP PUSH1 0x40 PUSH2 0x6C05 DUP10 DUP3 DUP11 ADD PUSH2 0x62D6 JUMP JUMPDEST SWAP5 POP POP PUSH1 0x60 PUSH2 0x6C16 DUP10 DUP3 DUP11 ADD PUSH2 0x62D6 JUMP JUMPDEST SWAP4 POP POP PUSH1 0x80 PUSH2 0x6C27 DUP10 DUP3 DUP11 ADD PUSH2 0x6532 JUMP JUMPDEST SWAP3 POP POP PUSH1 0xA0 PUSH2 0x6C38 DUP10 DUP3 DUP11 ADD PUSH2 0x659A JUMP JUMPDEST SWAP2 POP POP SWAP3 SWAP6 POP SWAP3 SWAP6 POP SWAP3 SWAP6 JUMP JUMPDEST PUSH0 PUSH1 0x20 DUP3 ADD SWAP1 POP DUP2 DUP2 SUB PUSH0 DUP4 ADD MSTORE PUSH2 0x6C5D DUP2 DUP5 PUSH2 0x69E5 JUMP JUMPDEST SWAP1 POP SWAP3 SWAP2 POP POP JUMP JUMPDEST PUSH0 PUSH0 PUSH1 0x40 DUP4 DUP6 SUB SLT ISZERO PUSH2 0x6C7B JUMPI PUSH2 0x6C7A PUSH2 0x5FFD JUMP JUMPDEST JUMPDEST PUSH0 PUSH2 0x6C88 DUP6 DUP3 DUP7 ADD PUSH2 0x62D6 JUMP JUMPDEST SWAP3 POP POP PUSH1 0x20 PUSH2 0x6C99 DUP6 DUP3 DUP7 ADD PUSH2 0x62D6 JUMP JUMPDEST SWAP2 POP POP SWAP3 POP SWAP3 SWAP1 POP JUMP JUMPDEST PUSH0 PUSH1 0x20 DUP3 DUP5 SUB SLT ISZERO PUSH2 0x6CB8 JUMPI PUSH2 0x6CB7 PUSH2 0x5FFD JUMP JUMPDEST JUMPDEST PUSH0 PUSH2 0x6CC5 DUP5 DUP3 DUP6 ADD PUSH2 0x6532 JUMP JUMPDEST SWAP2 POP POP SWAP3 SWAP2 POP POP JUMP JUMPDEST PUSH0 PUSH2 0x140 DUP3 ADD SWAP1 POP PUSH2 0x6CE2 PUSH0 DUP4 ADD DUP14 PUSH2 0x68FB JUMP JUMPDEST PUSH2 0x6CEF PUSH1 0x20 DUP4 ADD DUP13 PUSH2 0x66DA JUMP JUMPDEST PUSH2 0x6CFC PUSH1 0x40 DUP4 ADD DUP12 PUSH2 0x68FB JUMP JUMPDEST PUSH2 0x6D09 PUSH1 0x60 DUP4 ADD DUP11 PUSH2 0x66DA JUMP JUMPDEST PUSH2 0x6D16 PUSH1 0x80 DUP4 ADD DUP10 PUSH2 0x68FB JUMP JUMPDEST PUSH2 0x6D23 PUSH1 0xA0 DUP4 ADD DUP9 PUSH2 0x68FB JUMP JUMPDEST PUSH2 0x6D30 PUSH1 0xC0 DUP4 ADD DUP8 PUSH2 0x68FB JUMP JUMPDEST PUSH2 0x6D3D PUSH1 0xE0 DUP4 ADD DUP7 PUSH2 0x5FCC JUMP JUMPDEST DUP2 DUP2 SUB PUSH2 0x100 DUP4 ADD MSTORE PUSH2 0x6D50 DUP2 DUP6 PUSH2 0x69E5 JUMP JUMPDEST SWAP1 POP PUSH2 0x6D60 PUSH2 0x120 DUP4 ADD DUP5 PUSH2 0x5FCC JUMP JUMPDEST SWAP12 SWAP11 POP POP POP POP POP POP POP POP POP POP POP JUMP JUMPDEST PUSH0 PUSH1 0x20 DUP3 DUP5 SUB SLT ISZERO PUSH2 0x6D84 JUMPI PUSH2 0x6D83 PUSH2 0x5FFD JUMP JUMPDEST JUMPDEST PUSH0 PUSH2 0x6D91 DUP5 DUP3 DUP6 ADD PUSH2 0x659A JUMP JUMPDEST SWAP2 POP POP SWAP3 SWAP2 POP POP JUMP JUMPDEST PUSH2 0x6DA3 DUP2 PUSH2 0x5FC1 JUMP JUMPDEST DUP2 EQ PUSH2 0x6DAD JUMPI PUSH0 PUSH0 REVERT JUMPDEST POP JUMP JUMPDEST PUSH0 DUP2 CALLDATALOAD SWAP1 POP PUSH2 0x6DBE DUP2 PUSH2 0x6D9A JUMP JUMPDEST SWAP3 SWAP2 POP POP JUMP JUMPDEST PUSH0 PUSH0 PUSH1 0x40 DUP4 DUP6 SUB SLT ISZERO PUSH2 0x6DDA JUMPI PUSH2 0x6DD9 PUSH2 0x5FFD JUMP JUMPDEST JUMPDEST PUSH0 PUSH2 0x6DE7 DUP6 DUP3 DUP7 ADD PUSH2 0x6532 JUMP JUMPDEST SWAP3 POP POP PUSH1 0x20 PUSH2 0x6DF8 DUP6 DUP3 DUP7 ADD PUSH2 0x6DB0 JUMP JUMPDEST SWAP2 POP POP SWAP3 POP SWAP3 SWAP1 POP JUMP JUMPDEST PUSH32 0x4E487B7100000000000000000000000000000000000000000000000000000000 PUSH0 MSTORE PUSH1 0x22 PUSH1 0x4 MSTORE PUSH1 0x24 PUSH0 REVERT JUMPDEST PUSH0 PUSH1 0x2 DUP3 DIV SWAP1 POP PUSH1 0x1 DUP3 AND DUP1 PUSH2 0x6E46 JUMPI PUSH1 0x7F DUP3 AND SWAP2 POP JUMPDEST PUSH1 0x20 DUP3 LT DUP2 SUB PUSH2 0x6E59 JUMPI PUSH2 0x6E58 PUSH2 0x6E02 JUMP JUMPDEST JUMPDEST POP SWAP2 SWAP1 POP JUMP JUMPDEST PUSH0 DUP2 MLOAD SWAP1 POP PUSH2 0x6E6D DUP2 PUSH2 0x6584 JUMP JUMPDEST SWAP3 SWAP2 POP POP JUMP JUMPDEST PUSH0 PUSH1 0x20 DUP3 DUP5 SUB SLT ISZERO PUSH2 0x6E88 JUMPI PUSH2 0x6E87 PUSH2 0x5FFD JUMP JUMPDEST JUMPDEST PUSH0 PUSH2 0x6E95 DUP5 DUP3 DUP6 ADD PUSH2 0x6E5F JUMP JUMPDEST SWAP2 POP POP SWAP3 SWAP2 POP POP JUMP JUMPDEST PUSH0 DUP2 SWAP1 POP SWAP3 SWAP2 POP POP JUMP JUMPDEST PUSH0 DUP2 SWAP1 POP DUP2 PUSH0 MSTORE PUSH1 0x20 PUSH0 KECCAK256 SWAP1 POP SWAP2 SWAP1 POP JUMP JUMPDEST PUSH0 DUP2 SLOAD PUSH2 0x6EC6 DUP2 PUSH2 0x6E2F JUMP JUMPDEST PUSH2 0x6ED0 DUP2 DUP7 PUSH2 0x6E9E JUMP JUMPDEST SWAP5 POP PUSH1 0x1 DUP3 AND PUSH0 DUP2 EQ PUSH2 0x6EEA JUMPI PUSH1 0x1 DUP2 EQ PUSH2 0x6EFF JUMPI PUSH2 0x6F31 JUMP JUMPDEST PUSH1 0xFF NOT DUP4 AND DUP7 MSTORE DUP2 ISZERO ISZERO DUP3 MUL DUP7 ADD SWAP4 POP PUSH2 0x6F31 JUMP JUMPDEST PUSH2 0x6F08 DUP6 PUSH2 0x6EA8 JUMP JUMPDEST PUSH0 JUMPDEST DUP4 DUP2 LT ISZERO PUSH2 0x6F29 JUMPI DUP2 SLOAD DUP2 DUP10 ADD MSTORE PUSH1 0x1 DUP3 ADD SWAP2 POP PUSH1 0x20 DUP2 ADD SWAP1 POP PUSH2 0x6F0A JUMP JUMPDEST DUP4 DUP9 ADD SWAP6 POP POP POP JUMPDEST POP POP POP SWAP3 SWAP2 POP POP JUMP JUMPDEST PUSH0 PUSH2 0x6F45 DUP3 DUP5 PUSH2 0x6EBA JUMP JUMPDEST SWAP2 POP DUP2 SWAP1 POP SWAP3 SWAP2 POP POP JUMP JUMPDEST PUSH0 DUP2 SLOAD PUSH2 0x6F5C DUP2 PUSH2 0x6E2F JUMP JUMPDEST PUSH2 0x6F66 DUP2 DUP7 PUSH2 0x69D5 JUMP JUMPDEST SWAP5 POP PUSH1 0x1 DUP3 AND PUSH0 DUP2 EQ PUSH2 0x6F80 JUMPI PUSH1 0x1 DUP2 EQ PUSH2 0x6F96 JUMPI PUSH2 0x6FC8 JUMP JUMPDEST PUSH1 0xFF NOT DUP4 AND DUP7 MSTORE DUP2 ISZERO ISZERO PUSH1 0x20 MUL DUP7 ADD SWAP4 POP PUSH2 0x6FC8 JUMP JUMPDEST PUSH2 0x6F9F DUP6 PUSH2 0x6EA8 JUMP JUMPDEST PUSH0 JUMPDEST DUP4 DUP2 LT ISZERO PUSH2 0x6FC0 JUMPI DUP2 SLOAD DUP2 DUP10 ADD MSTORE PUSH1 0x1 DUP3 ADD SWAP2 POP PUSH1 0x20 DUP2 ADD SWAP1 POP PUSH2 0x6FA1 JUMP JUMPDEST DUP1 DUP9 ADD SWAP6 POP POP POP JUMPDEST POP POP POP SWAP3 SWAP2 POP POP JUMP JUMPDEST PUSH0 PUSH1 0x40 DUP3 ADD SWAP1 POP DUP2 DUP2 SUB PUSH0 DUP4 ADD MSTORE PUSH2 0x6FE9 DUP2 DUP6 PUSH2 0x6F50 JUMP JUMPDEST SWAP1 POP PUSH2 0x6FF8 PUSH1 0x20 DUP4 ADD DUP5 PUSH2 0x6A81 JUMP JUMPDEST SWAP4 SWAP3 POP POP POP JUMP JUMPDEST PUSH32 0x4E487B7100000000000000000000000000000000000000000000000000000000 PUSH0 MSTORE PUSH1 0x11 PUSH1 0x4 MSTORE PUSH1 0x24 PUSH0 REVERT JUMPDEST PUSH0 PUSH2 0x7036 DUP3 PUSH2 0x62B7 JUMP JUMPDEST SWAP2 POP PUSH2 0x7041 DUP4 PUSH2 0x62B7 JUMP JUMPDEST SWAP3 POP DUP3 DUP3 MUL PUSH2 0x704F DUP2 PUSH2 0x62B7 JUMP JUMPDEST SWAP2 POP DUP3 DUP3 DIV DUP5 EQ DUP4 ISZERO OR PUSH2 0x7066 JUMPI PUSH2 0x7065 PUSH2 0x6FFF JUMP JUMPDEST JUMPDEST POP SWAP3 SWAP2 POP POP JUMP JUMPDEST PUSH32 0x4E487B7100000000000000000000000000000000000000000000000000000000 PUSH0 MSTORE PUSH1 0x12 PUSH1 0x4 MSTORE PUSH1 0x24 PUSH0 REVERT JUMPDEST PUSH0 PUSH2 0x70A4 DUP3 PUSH2 0x62B7 JUMP JUMPDEST SWAP2 POP PUSH2 0x70AF DUP4 PUSH2 0x62B7 JUMP JUMPDEST SWAP3 POP DUP3 PUSH2 0x70BF JUMPI PUSH2 0x70BE PUSH2 0x706D JUMP JUMPDEST JUMPDEST DUP3 DUP3 DIV SWAP1 POP SWAP3 SWAP2 POP POP JUMP JUMPDEST PUSH0 PUSH2 0x70D4 DUP3 PUSH2 0x62B7 JUMP JUMPDEST SWAP2 POP PUSH2 0x70DF DUP4 PUSH2 0x62B7 JUMP JUMPDEST SWAP3 POP DUP3 DUP3 SUB SWAP1 POP DUP2 DUP2 GT ISZERO PUSH2 0x70F7 JUMPI PUSH2 0x70F6 PUSH2 0x6FFF JUMP JUMPDEST JUMPDEST SWAP3 SWAP2 POP POP JUMP JUMPDEST PUSH0 PUSH1 0x60 DUP3 ADD SWAP1 POP PUSH2 0x7110 PUSH0 DUP4 ADD DUP7 PUSH2 0x66DA JUMP JUMPDEST PUSH2 0x711D PUSH1 0x20 DUP4 ADD DUP6 PUSH2 0x66DA JUMP JUMPDEST PUSH2 0x712A PUSH1 0x40 DUP4 ADD DUP5 PUSH2 0x68FB JUMP JUMPDEST SWAP5 SWAP4 POP POP POP POP JUMP JUMPDEST PUSH0 DUP2 SWAP1 POP SWAP3 SWAP2 POP POP JUMP JUMPDEST POP JUMP JUMPDEST PUSH0 PUSH2 0x714A PUSH0 DUP4 PUSH2 0x7132 JUMP JUMPDEST SWAP2 POP PUSH2 0x7155 DUP3 PUSH2 0x713C JUMP JUMPDEST PUSH0 DUP3 ADD SWAP1 POP SWAP2 SWAP1 POP JUMP JUMPDEST PUSH0 PUSH2 0x7169 DUP3 PUSH2 0x713F JUMP JUMPDEST SWAP2 POP DUP2 SWAP1 POP SWAP2 SWAP1 POP JUMP JUMPDEST PUSH0 PUSH2 0x717E DUP4 DUP6 PUSH2 0x69D5 JUMP JUMPDEST SWAP4 POP PUSH2 0x718B DUP4 DUP6 DUP5 PUSH2 0x61B3 JUMP JUMPDEST PUSH2 0x7194 DUP4 PUSH2 0x60FB JUMP JUMPDEST DUP5 ADD SWAP1 POP SWAP4 SWAP3 POP POP POP JUMP JUMPDEST PUSH0 PUSH1 0x20 DUP3 ADD SWAP1 POP DUP2 DUP2 SUB PUSH0 DUP4 ADD MSTORE PUSH2 0x71B8 DUP2 DUP5 DUP7 PUSH2 0x7173 JUMP JUMPDEST SWAP1 POP SWAP4 SWAP3 POP POP POP JUMP JUMPDEST PUSH32 0x4E487B7100000000000000000000000000000000000000000000000000000000 PUSH0 MSTORE PUSH1 0x32 PUSH1 0x4 MSTORE PUSH1 0x24 PUSH0 REVERT JUMPDEST PUSH0 DUP3 SWAP1 POP SWAP3 SWAP2 POP POP JUMP JUMPDEST PUSH0 PUSH1 0x20 PUSH1 0x1F DUP4 ADD DIV SWAP1 POP SWAP2 SWAP1 POP JUMP JUMPDEST PUSH0 DUP3 DUP3 SHL SWAP1 POP SWAP3 SWAP2 POP POP JUMP JUMPDEST PUSH0 PUSH1 0x8 DUP4 MUL PUSH2 0x7242 PUSH32 0xFFFFFFFFFFFFFFFFFFFFFFFFFFFFFFFFFFFFFFFFFFFFFFFFFFFFFFFFFFFFFFFF DUP3 PUSH2 0x7207 JUMP JUMPDEST PUSH2 0x724C DUP7 DUP4 PUSH2 0x7207 JUMP JUMPDEST SWAP6 POP DUP1 NOT DUP5 AND SWAP4 POP DUP1 DUP7 AND DUP5 OR SWAP3 POP POP POP SWAP4 SWAP3 POP POP POP JUMP JUMPDEST PUSH0 DUP2 SWAP1 POP SWAP2 SWAP1 POP JUMP JUMPDEST PUSH0 PUSH2 0x7287 PUSH2 0x7282 PUSH2 0x727D DUP5 PUSH2 0x62B7 JUMP JUMPDEST PUSH2 0x7264 JUMP JUMPDEST PUSH2 0x62B7 JUMP JUMPDEST SWAP1 POP SWAP2 SWAP1 POP JUMP JUMPDEST PUSH0 DUP2 SWAP1 POP SWAP2 SWAP1 POP JUMP JUMPDEST PUSH2 0x72A0 DUP4 PUSH2 0x726D JUMP JUMPDEST PUSH2 0x72B4 PUSH2 0x72AC DUP3 PUSH2 0x728E JUMP JUMPDEST DUP5 DUP5 SLOAD PUSH2 0x7213 JUMP JUMPDEST DUP3 SSTORE POP POP POP POP JUMP JUMPDEST PUSH0 PUSH0 SWAP1 POP SWAP1 JUMP JUMPDEST PUSH2 0x72CB PUSH2 0x72BC JUMP JUMPDEST PUSH2 0x72D6 DUP2 DUP5 DUP5 PUSH2 0x7297 JUMP JUMPDEST POP POP POP JUMP JUMPDEST JUMPDEST DUP2 DUP2 LT ISZERO PUSH2 0x72F9 JUMPI PUSH2 0x72EE PUSH0 DUP3 PUSH2 0x72C3 JUMP JUMPDEST PUSH1 0x1 DUP2 ADD SWAP1 POP PUSH2 0x72DC JUMP JUMPDEST POP POP JUMP JUMPDEST PUSH1 0x1F DUP3 GT ISZERO PUSH2 0x733E JUMPI PUSH2 0x730F DUP2 PUSH2 0x6EA8 JUMP JUMPDEST PUSH2 0x7318 DUP5 PUSH2 0x71F8 JUMP JUMPDEST DUP2 ADD PUSH1 0x20 DUP6 LT ISZERO PUSH2 0x7327 JUMPI DUP2 SWAP1 POP JUMPDEST PUSH2 0x733B PUSH2 0x7333 DUP6 PUSH2 0x71F8 JUMP JUMPDEST DUP4 ADD DUP3 PUSH2 0x72DB JUMP JUMPDEST POP POP JUMPDEST POP POP POP JUMP JUMPDEST PUSH0 DUP3 DUP3 SHR SWAP1 POP SWAP3 SWAP2 POP POP JUMP JUMPDEST PUSH0 PUSH2 0x735E PUSH0 NOT DUP5 PUSH1 0x8 MUL PUSH2 0x7343 JUMP JUMPDEST NOT DUP1 DUP4 AND SWAP2 POP POP SWAP3 SWAP2 POP POP JUMP JUMPDEST PUSH0 PUSH2 0x7376 DUP4 DUP4 PUSH2 0x734F JUMP JUMPDEST SWAP2 POP DUP3 PUSH1 0x2 MUL DUP3 OR SWAP1 POP SWAP3 SWAP2 POP POP JUMP JUMPDEST PUSH2 0x7390 DUP4 DUP4 PUSH2 0x71EE JUMP JUMPDEST PUSH8 0xFFFFFFFFFFFFFFFF DUP2 GT ISZERO PUSH2 0x73A9 JUMPI PUSH2 0x73A8 PUSH2 0x610B JUMP JUMPDEST JUMPDEST PUSH2 0x73B3 DUP3 SLOAD PUSH2 0x6E2F JUMP JUMPDEST PUSH2 0x73BE DUP3 DUP3 DUP6 PUSH2 0x72FD JUMP JUMPDEST PUSH0 PUSH1 0x1F DUP4 GT PUSH1 0x1 DUP2 EQ PUSH2 0x73EB JUMPI PUSH0 DUP5 ISZERO PUSH2 0x73D9 JUMPI DUP3 DUP8 ADD CALLDATALOAD SWAP1 POP JUMPDEST PUSH2 0x73E3 DUP6 DUP3 PUSH2 0x736B JUMP JUMPDEST DUP7 SSTORE POP PUSH2 0x744A JUMP JUMPDEST PUSH1 0x1F NOT DUP5 AND PUSH2 0x73F9 DUP7 PUSH2 0x6EA8 JUMP JUMPDEST PUSH0 JUMPDEST DUP3 DUP2 LT ISZERO PUSH2 0x7420 JUMPI DUP5 DUP10 ADD CALLDATALOAD DUP3 SSTORE PUSH1 0x1 DUP3 ADD SWAP2 POP PUSH1 0x20 DUP6 ADD SWAP5 POP PUSH1 0x20 DUP2 ADD SWAP1 POP PUSH2 0x73FB JUMP JUMPDEST DUP7 DUP4 LT ISZERO PUSH2 0x743D JUMPI DUP5 DUP10 ADD CALLDATALOAD PUSH2 0x7439 PUSH1 0x1F DUP10 AND DUP3 PUSH2 0x734F JUMP JUMPDEST DUP4 SSTORE POP JUMPDEST PUSH1 0x1 PUSH1 0x2 DUP9 MUL ADD DUP9 SSTORE POP POP POP JUMPDEST POP POP POP POP POP POP POP JUMP JUMPDEST PUSH0 PUSH2 0x745E DUP4 DUP6 PUSH2 0x6E9E JUMP JUMPDEST SWAP4 POP PUSH2 0x746B DUP4 DUP6 DUP5 PUSH2 0x61B3 JUMP JUMPDEST DUP3 DUP5 ADD SWAP1 POP SWAP4 SWAP3 POP POP POP JUMP JUMPDEST PUSH0 PUSH2 0x7483 DUP3 DUP5 DUP7 PUSH2 0x7453 JUMP JUMPDEST SWAP2 POP DUP2 SWAP1 POP SWAP4 SWAP3 POP POP POP JUMP JUMPDEST PUSH0 DUP2 MLOAD SWAP1 POP PUSH2 0x749D DUP2 PUSH2 0x651C JUMP JUMPDEST SWAP3 SWAP2 POP POP JUMP JUMPDEST PUSH0 PUSH1 0x20 DUP3 DUP5 SUB SLT ISZERO PUSH2 0x74B8 JUMPI PUSH2 0x74B7 PUSH2 0x5FFD JUMP JUMPDEST JUMPDEST PUSH0 PUSH2 0x74C5 DUP5 DUP3 DUP6 ADD PUSH2 0x748F JUMP JUMPDEST SWAP2 POP POP SWAP3 SWAP2 POP POP JUMP JUMPDEST PUSH0 PUSH1 0x40 DUP3 ADD SWAP1 POP PUSH2 0x74E1 PUSH0 DUP4 ADD DUP6 PUSH2 0x66DA JUMP JUMPDEST PUSH2 0x74EE PUSH1 0x20 DUP4 ADD DUP5 PUSH2 0x66DA JUMP JUMPDEST SWAP4 SWAP3 POP POP POP JUMP JUMPDEST PUSH0 DUP2 MLOAD SWAP1 POP PUSH2 0x7503 DUP2 PUSH2 0x6D9A JUMP JUMPDEST SWAP3 SWAP2 POP POP JUMP JUMPDEST PUSH0 PUSH1 0x20 DUP3 DUP5 SUB SLT ISZERO PUSH2 0x751E JUMPI PUSH2 0x751D PUSH2 0x5FFD JUMP JUMPDEST JUMPDEST PUSH0 PUSH2 0x752B DUP5 DUP3 DUP6 ADD PUSH2 0x74F5 JUMP JUMPDEST SWAP2 POP POP SWAP3 SWAP2 POP POP JUMP JUMPDEST PUSH0 PUSH2 0x753E DUP3 PUSH2 0x62B7 JUMP JUMPDEST SWAP2 POP PUSH2 0x7549 DUP4 PUSH2 0x62B7 JUMP JUMPDEST SWAP3 POP DUP3 DUP3 ADD SWAP1 POP DUP1 DUP3 GT ISZERO PUSH2 0x7561 JUMPI PUSH2 0x7560 PUSH2 0x6FFF JUMP JUMPDEST JUMPDEST SWAP3 SWAP2 POP POP JUMP JUMPDEST PUSH2 0x7570 DUP3 PUSH2 0x6372 JUMP JUMPDEST PUSH8 0xFFFFFFFFFFFFFFFF DUP2 GT ISZERO PUSH2 0x7589 JUMPI PUSH2 0x7588 PUSH2 0x610B JUMP JUMPDEST JUMPDEST PUSH2 0x7593 DUP3 SLOAD PUSH2 0x6E2F JUMP JUMPDEST PUSH2 0x759E DUP3 DUP3 DUP6 PUSH2 0x72FD JUMP JUMPDEST PUSH0 PUSH1 0x20 SWAP1 POP PUSH1 0x1F DUP4 GT PUSH1 0x1 DUP2 EQ PUSH2 0x75CF JUMPI PUSH0 DUP5 ISZERO PUSH2 0x75BD JUMPI DUP3 DUP8 ADD MLOAD SWAP1 POP JUMPDEST PUSH2 0x75C7 DUP6 DUP3 PUSH2 0x736B JUMP JUMPDEST DUP7 SSTORE POP PUSH2 0x762E JUMP JUMPDEST PUSH1 0x1F NOT DUP5 AND PUSH2 0x75DD DUP7 PUSH2 0x6EA8 JUMP JUMPDEST PUSH0 JUMPDEST DUP3 DUP2 LT ISZERO PUSH2 0x7604 JUMPI DUP5 DUP10 ADD MLOAD DUP3 SSTORE PUSH1 0x1 DUP3 ADD SWAP2 POP PUSH1 0x20 DUP6 ADD SWAP5 POP PUSH1 0x20 DUP2 ADD SWAP1 POP PUSH2 0x75DF JUMP JUMPDEST DUP7 DUP4 LT ISZERO PUSH2 0x7621 JUMPI DUP5 DUP10 ADD MLOAD PUSH2 0x761D PUSH1 0x1F DUP10 AND DUP3 PUSH2 0x734F JUMP JUMPDEST DUP4 SSTORE POP JUMPDEST PUSH1 0x1 PUSH1 0x2 DUP9 MUL ADD DUP9 SSTORE POP POP POP JUMPDEST POP POP POP POP POP POP JUMP JUMPDEST PUSH0 PUSH1 0x40 DUP3 ADD SWAP1 POP DUP2 DUP2 SUB PUSH0 DUP4 ADD MSTORE PUSH2 0x764F DUP2 DUP6 DUP8 PUSH2 0x7173 JUMP JUMPDEST SWAP1 POP PUSH2 0x765E PUSH1 0x20 DUP4 ADD DUP5 PUSH2 0x6A81 JUMP JUMPDEST SWAP5 SWAP4 POP POP POP POP JUMP JUMPDEST PUSH0 PUSH1 0x40 DUP3 ADD SWAP1 POP DUP2 DUP2 SUB PUSH0 DUP4 ADD MSTORE PUSH2 0x767F DUP2 DUP6 DUP8 PUSH2 0x7173 JUMP JUMPDEST SWAP1 POP PUSH2 0x768E PUSH1 0x20 DUP4 ADD DUP5 PUSH2 0x64F4 JUMP JUMPDEST SWAP5 SWAP4 POP POP POP POP JUMP JUMPDEST PUSH0 PUSH1 0xA0 DUP3 ADD SWAP1 POP PUSH2 0x76A9 PUSH0 DUP4 ADD DUP10 PUSH2 0x66DA JUMP JUMPDEST PUSH2 0x76B6 PUSH1 0x20 DUP4 ADD DUP9 PUSH2 0x68FB JUMP JUMPDEST PUSH2 0x76C3 PUSH1 0x40 DUP4 ADD DUP8 PUSH2 0x68FB JUMP JUMPDEST PUSH2 0x76D0 PUSH1 0x60 DUP4 ADD DUP7 PUSH2 0x68FB JUMP JUMPDEST DUP2 DUP2 SUB PUSH1 0x80 DUP4 ADD MSTORE PUSH2 0x76E3 DUP2 DUP5 DUP7 PUSH2 0x7173 JUMP JUMPDEST SWAP1 POP SWAP8 SWAP7 POP POP POP POP POP POP POP JUMP JUMPDEST PUSH0 PUSH8 0xFFFFFFFFFFFFFFFF DUP3 GT ISZERO PUSH2 0x770A JUMPI PUSH2 0x7709 PUSH2 0x610B JUMP JUMPDEST JUMPDEST PUSH1 0x20 DUP3 MUL SWAP1 POP PUSH1 0x20 DUP2 ADD SWAP1 POP SWAP2 SWAP1 POP JUMP JUMPDEST PUSH0 PUSH2 0x772D PUSH2 0x7728 DUP5 PUSH2 0x76F0 JUMP JUMPDEST PUSH2 0x6169 JUMP JUMPDEST SWAP1 POP DUP1 DUP4 DUP3 MSTORE PUSH1 0x20 DUP3 ADD SWAP1 POP PUSH1 0x20 DUP5 MUL DUP4 ADD DUP6 DUP2 GT ISZERO PUSH2 0x7750 JUMPI PUSH2 0x774F PUSH2 0x65B2 JUMP JUMPDEST JUMPDEST DUP4 JUMPDEST DUP2 DUP2 LT ISZERO PUSH2 0x7797 JUMPI DUP1 CALLDATALOAD PUSH8 0xFFFFFFFFFFFFFFFF DUP2 GT ISZERO PUSH2 0x7775 JUMPI PUSH2 0x7774 PUSH2 0x60F3 JUMP JUMPDEST JUMPDEST DUP1 DUP7 ADD PUSH2 0x7782 DUP10 DUP3 PUSH2 0x6B2F JUMP JUMPDEST DUP6 MSTORE PUSH1 0x20 DUP6 ADD SWAP5 POP POP POP PUSH1 0x20 DUP2 ADD SWAP1 POP PUSH2 0x7752 JUMP JUMPDEST POP POP POP SWAP4 SWAP3 POP POP POP JUMP JUMPDEST PUSH0 PUSH2 0x77AD CALLDATASIZE DUP5 DUP5 PUSH2 0x771B JUMP JUMPDEST SWAP1 POP SWAP3 SWAP2 POP POP JUMP JUMPDEST PUSH32 0x4D7573742062652070726F706F736564206F776E657200000000000000000000 PUSH0 DUP3 ADD MSTORE POP JUMP JUMPDEST PUSH0 PUSH2 0x77E9 PUSH1 0x16 DUP4 PUSH2 0x69D5 JUMP JUMPDEST SWAP2 POP PUSH2 0x77F4 DUP3 PUSH2 0x77B5 JUMP JUMPDEST PUSH1 0x20 DUP3 ADD SWAP1 POP SWAP2 SWAP1 POP JUMP JUMPDEST PUSH0 PUSH1 0x20 DUP3 ADD SWAP1 POP DUP2 DUP2 SUB PUSH0 DUP4 ADD MSTORE PUSH2 0x7816 DUP2 PUSH2 0x77DD JUMP JUMPDEST SWAP1 POP SWAP2 SWAP1 POP JUMP JUMPDEST PUSH0 PUSH2 0x7827 DUP3 PUSH2 0x6372 JUMP JUMPDEST PUSH2 0x7831 DUP2 DUP6 PUSH2 0x6E9E JUMP JUMPDEST SWAP4 POP PUSH2 0x7841 DUP2 DUP6 PUSH1 0x20 DUP7 ADD PUSH2 0x638C JUMP JUMPDEST DUP1 DUP5 ADD SWAP2 POP POP SWAP3 SWAP2 POP POP JUMP JUMPDEST PUSH0 PUSH2 0x7858 DUP3 DUP5 PUSH2 0x781D JUMP JUMPDEST SWAP2 POP DUP2 SWAP1 POP SWAP3 SWAP2 POP POP JUMP JUMPDEST PUSH0 DUP2 SWAP1 POP SWAP2 SWAP1 POP JUMP JUMPDEST PUSH0 PUSH2 0x7886 PUSH2 0x7881 PUSH2 0x787C DUP5 PUSH2 0x7863 JUMP JUMPDEST PUSH2 0x7264 JUMP JUMPDEST PUSH2 0x6085 JUMP JUMPDEST SWAP1 POP SWAP2 SWAP1 POP JUMP JUMPDEST PUSH2 0x7896 DUP2 PUSH2 0x786C JUMP JUMPDEST DUP3 MSTORE POP POP JUMP JUMPDEST PUSH0 PUSH1 0x20 DUP3 ADD SWAP1 POP PUSH2 0x78AF PUSH0 DUP4 ADD DUP5 PUSH2 0x788D JUMP JUMPDEST SWAP3 SWAP2 POP POP JUMP JUMPDEST PUSH0 PUSH1 0x40 DUP3 ADD SWAP1 POP PUSH2 0x78C8 PUSH0 DUP4 ADD DUP6 PUSH2 0x66DA JUMP JUMPDEST PUSH2 0x78D5 PUSH1 0x20 DUP4 ADD DUP5 PUSH2 0x5FCC JUMP JUMPDEST SWAP4 SWAP3 POP POP POP JUMP JUMPDEST PUSH0 PUSH1 0x40 DUP3 ADD SWAP1 POP DUP2 DUP2 SUB PUSH0 DUP4 ADD MSTORE PUSH2 0x78F4 DUP2 DUP6 PUSH2 0x69E5 JUMP JUMPDEST SWAP1 POP PUSH2 0x7903 PUSH1 0x20 DUP4 ADD DUP5 PUSH2 0x5FCC JUMP JUMPDEST SWAP4 SWAP3 POP POP POP JUMP JUMPDEST PUSH32 0x4F6E6C792063616C6C61626C65206279206F776E657200000000000000000000 PUSH0 DUP3 ADD MSTORE POP JUMP JUMPDEST PUSH0 PUSH2 0x793E PUSH1 0x16 DUP4 PUSH2 0x69D5 JUMP JUMPDEST SWAP2 POP PUSH2 0x7949 DUP3 PUSH2 0x790A JUMP JUMPDEST PUSH1 0x20 DUP3 ADD SWAP1 POP SWAP2 SWAP1 POP JUMP JUMPDEST PUSH0 PUSH1 0x20 DUP3 ADD SWAP1 POP DUP2 DUP2 SUB PUSH0 DUP4 ADD MSTORE PUSH2 0x796B DUP2 PUSH2 0x7932 JUMP JUMPDEST SWAP1 POP SWAP2 SWAP1 POP JUMP JUMPDEST PUSH0 PUSH2 0xFFFF DUP3 AND SWAP1 POP SWAP2 SWAP1 POP JUMP JUMPDEST PUSH2 0x7988 DUP2 PUSH2 0x7972 JUMP JUMPDEST DUP3 MSTORE POP POP JUMP JUMPDEST PUSH0 PUSH4 0xFFFFFFFF DUP3 AND SWAP1 POP SWAP2 SWAP1 POP JUMP JUMPDEST PUSH2 0x79A6 DUP2 PUSH2 0x798E JUMP JUMPDEST DUP3 MSTORE POP POP JUMP JUMPDEST PUSH0 PUSH1 0xA0 DUP3 ADD SWAP1 POP PUSH2 0x79BF PUSH0 DUP4 ADD DUP9 PUSH2 0x6098 JUMP JUMPDEST DUP2 DUP2 SUB PUSH1 0x20 DUP4 ADD MSTORE PUSH2 0x79D1 DUP2 DUP8 PUSH2 0x6682 JUMP JUMPDEST SWAP1 POP PUSH2 0x79E0 PUSH1 0x40 DUP4 ADD DUP7 PUSH2 0x797F JUMP JUMPDEST PUSH2 0x79ED PUSH1 0x60 DUP4 ADD DUP6 PUSH2 0x799D JUMP JUMPDEST PUSH2 0x79FA PUSH1 0x80 DUP4 ADD DUP5 PUSH2 0x64F4 JUMP JUMPDEST SWAP7 SWAP6 POP POP POP POP POP POP JUMP JUMPDEST PUSH0 DUP2 MLOAD SWAP1 POP PUSH2 0x7A12 DUP2 PUSH2 0x60C9 JUMP JUMPDEST SWAP3 SWAP2 POP POP JUMP JUMPDEST PUSH0 PUSH1 0x20 DUP3 DUP5 SUB SLT ISZERO PUSH2 0x7A2D JUMPI PUSH2 0x7A2C PUSH2 0x5FFD JUMP JUMPDEST JUMPDEST PUSH0 PUSH2 0x7A3A DUP5 DUP3 DUP6 ADD PUSH2 0x7A04 JUMP JUMPDEST SWAP2 POP POP SWAP3 SWAP2 POP POP JUMP JUMPDEST PUSH32 0x43616E6E6F7420736574206F776E657220746F207A65726F0000000000000000 PUSH0 DUP3 ADD MSTORE POP JUMP JUMPDEST PUSH0 PUSH2 0x7A77 PUSH1 0x18 DUP4 PUSH2 0x69D5 JUMP JUMPDEST SWAP2 POP PUSH2 0x7A82 DUP3 PUSH2 0x7A43 JUMP JUMPDEST PUSH1 0x20 DUP3 ADD SWAP1 POP SWAP2 SWAP1 POP JUMP JUMPDEST PUSH0 PUSH1 0x20 DUP3 ADD SWAP1 POP DUP2 DUP2 SUB PUSH0 DUP4 ADD MSTORE PUSH2 0x7AA4 DUP2 PUSH2 0x7A6B JUMP JUMPDEST SWAP1 POP SWAP2 SWAP1 POP JUMP JUMPDEST PUSH32 0x43616E6E6F74207472616E7366657220746F2073656C66000000000000000000 PUSH0 DUP3 ADD MSTORE POP JUMP JUMPDEST PUSH0 PUSH2 0x7ADF PUSH1 0x17 DUP4 PUSH2 0x69D5 JUMP JUMPDEST SWAP2 POP PUSH2 0x7AEA DUP3 PUSH2 0x7AAB JUMP JUMPDEST PUSH1 0x20 DUP3 ADD SWAP1 POP SWAP2 SWAP1 POP JUMP JUMPDEST PUSH0 PUSH1 0x20 DUP3 ADD SWAP1 POP DUP2 DUP2 SUB PUSH0 DUP4 ADD MSTORE PUSH2 0x7B0C DUP2 PUSH2 0x7AD3 JUMP JUMPDEST SWAP1 POP SWAP2 SWAP1 POP JUMP JUMPDEST PUSH0 DUP2 SWAP1 POP DUP2 PUSH0 MSTORE PUSH1 0x20 PUSH0 KECCAK256 SWAP1 POP SWAP2 SWAP1 POP JUMP JUMPDEST PUSH1 0x1F DUP3 GT ISZERO PUSH2 0x7B66 JUMPI PUSH2 0x7B37 DUP2 PUSH2 0x7B13 JUMP JUMPDEST PUSH2 0x7B40 DUP5 PUSH2 0x71F8 JUMP JUMPDEST DUP2 ADD PUSH1 0x20 DUP6 LT ISZERO PUSH2 0x7B4F JUMPI DUP2 SWAP1 POP JUMPDEST PUSH2 0x7B63 PUSH2 0x7B5B DUP6 PUSH2 0x71F8 JUMP JUMPDEST DUP4 ADD DUP3 PUSH2 0x72DB JUMP JUMPDEST POP POP JUMPDEST POP POP POP JUMP JUMPDEST PUSH2 0x7B74 DUP3 PUSH2 0x6668 JUMP JUMPDEST PUSH8 0xFFFFFFFFFFFFFFFF DUP2 GT ISZERO PUSH2 0x7B8D JUMPI PUSH2 0x7B8C PUSH2 0x610B JUMP JUMPDEST JUMPDEST PUSH2 0x7B97 DUP3 SLOAD PUSH2 0x6E2F JUMP JUMPDEST PUSH2 0x7BA2 DUP3 DUP3 DUP6 PUSH2 0x7B25 JUMP JUMPDEST PUSH0 PUSH1 0x20 SWAP1 POP PUSH1 0x1F DUP4 GT PUSH1 0x1 DUP2 EQ PUSH2 0x7BD3 JUMPI PUSH0 DUP5 ISZERO PUSH2 0x7BC1 JUMPI DUP3 DUP8 ADD MLOAD SWAP1 POP JUMPDEST PUSH2 0x7BCB DUP6 DUP3 PUSH2 0x736B JUMP JUMPDEST DUP7 SSTORE POP PUSH2 0x7C32 JUMP JUMPDEST PUSH1 0x1F NOT DUP5 AND PUSH2 0x7BE1 DUP7 PUSH2 0x7B13 JUMP JUMPDEST PUSH0 JUMPDEST DUP3 DUP2 LT ISZERO PUSH2 0x7C08 JUMPI DUP5 DUP10 ADD MLOAD DUP3 SSTORE PUSH1 0x1 DUP3 ADD SWAP2 POP PUSH1 0x20 DUP6 ADD SWAP5 POP PUSH1 0x20 DUP2 ADD SWAP1 POP PUSH2 0x7BE3 JUMP JUMPDEST DUP7 DUP4 LT ISZERO PUSH2 0x7C25 JUMPI DUP5 DUP10 ADD MLOAD PUSH2 0x7C21 PUSH1 0x1F DUP10 AND DUP3 PUSH2 0x734F JUMP JUMPDEST DUP4 SSTORE POP JUMPDEST PUSH1 0x1 PUSH1 0x2 DUP9 MUL ADD DUP9 SSTORE POP POP POP JUMPDEST POP POP POP POP POP POP JUMP JUMPDEST PUSH0 DUP2 MLOAD SWAP1 POP PUSH2 0x7C48 DUP2 PUSH2 0x62C0 JUMP JUMPDEST SWAP3 SWAP2 POP POP JUMP JUMPDEST PUSH0 PUSH1 0x20 DUP3 DUP5 SUB SLT ISZERO PUSH2 0x7C63 JUMPI PUSH2 0x7C62 PUSH2 0x5FFD JUMP JUMPDEST JUMPDEST PUSH0 PUSH2 0x7C70 DUP5 DUP3 DUP6 ADD PUSH2 0x7C3A JUMP JUMPDEST SWAP2 POP POP SWAP3 SWAP2 POP POP JUMP JUMPDEST PUSH0 PUSH1 0x80 DUP3 ADD SWAP1 POP DUP2 DUP2 SUB PUSH0 DUP4 ADD MSTORE PUSH2 0x7C91 DUP2 DUP8 PUSH2 0x6F50 JUMP JUMPDEST SWAP1 POP PUSH2 0x7CA0 PUSH1 0x20 DUP4 ADD DUP7 PUSH2 0x5FCC JUMP JUMPDEST DUP2 DUP2 SUB PUSH1 0x40 DUP4 ADD MSTORE PUSH2 0x7CB2 DUP2 DUP6 PUSH2 0x6682 JUMP JUMPDEST SWAP1 POP DUP2 DUP2 SUB PUSH1 0x60 DUP4 ADD MSTORE PUSH2 0x7CC6 DUP2 DUP5 PUSH2 0x6682 JUMP JUMPDEST SWAP1 POP SWAP6 SWAP5 POP POP POP POP POP JUMP JUMPDEST PUSH0 PUSH1 0x60 DUP3 ADD SWAP1 POP PUSH2 0x7CE4 PUSH0 DUP4 ADD DUP7 PUSH2 0x68FB JUMP JUMPDEST DUP2 DUP2 SUB PUSH1 0x20 DUP4 ADD MSTORE PUSH2 0x7CF6 DUP2 DUP6 PUSH2 0x6682 JUMP JUMPDEST SWAP1 POP DUP2 DUP2 SUB PUSH1 0x40 DUP4 ADD MSTORE PUSH2 0x7D0A DUP2 DUP5 PUSH2 0x6682 JUMP JUMPDEST SWAP1 POP SWAP5 SWAP4 POP POP POP POP JUMP JUMPDEST PUSH0 PUSH1 0x40 DUP3 ADD SWAP1 POP PUSH2 0x7D27 PUSH0 DUP4 ADD DUP6 PUSH2 0x66DA JUMP JUMPDEST PUSH2 0x7D34 PUSH1 0x20 DUP4 ADD DUP5 PUSH2 0x64F4 JUMP JUMPDEST SWAP4 SWAP3 POP POP POP JUMP JUMPDEST PUSH0 PUSH2 0x7D45 DUP3 PUSH2 0x62B7 JUMP JUMPDEST SWAP2 POP PUSH2 0x7D50 DUP4 PUSH2 0x62B7 JUMP JUMPDEST SWAP3 POP DUP3 PUSH2 0x7D60 JUMPI PUSH2 0x7D5F PUSH2 0x706D JUMP JUMPDEST JUMPDEST DUP3 DUP3 MOD SWAP1 POP SWAP3 SWAP2 POP POP JUMP JUMPDEST PUSH0 PUSH2 0x7D75 DUP3 PUSH2 0x6668 JUMP JUMPDEST PUSH2 0x7D7F DUP2 DUP6 PUSH2 0x7132 JUMP JUMPDEST SWAP4 POP PUSH2 0x7D8F DUP2 DUP6 PUSH1 0x20 DUP7 ADD PUSH2 0x638C JUMP JUMPDEST DUP1 DUP5 ADD SWAP2 POP POP SWAP3 SWAP2 POP POP JUMP JUMPDEST PUSH0 PUSH2 0x7DA6 DUP3 DUP5 PUSH2 0x7D6B JUMP JUMPDEST SWAP2 POP DUP2 SWAP1 POP SWAP3 SWAP2 POP POP JUMP JUMPDEST PUSH0 DUP2 PUSH1 0x1 SHR SWAP1 POP SWAP2 SWAP1 POP JUMP JUMPDEST PUSH0 PUSH0 DUP3 SWAP2 POP DUP4 SWAP1 POP JUMPDEST PUSH1 0x1 DUP6 GT ISZERO PUSH2 0x7E06 JUMPI DUP1 DUP7 DIV DUP2 GT ISZERO PUSH2 0x7DE2 JUMPI PUSH2 0x7DE1 PUSH2 0x6FFF JUMP JUMPDEST JUMPDEST PUSH1 0x1 DUP6 AND ISZERO PUSH2 0x7DF1 JUMPI DUP1 DUP3 MUL SWAP2 POP JUMPDEST DUP1 DUP2 MUL SWAP1 POP PUSH2 0x7DFF DUP6 PUSH2 0x7DB1 JUMP JUMPDEST SWAP5 POP PUSH2 0x7DC6 JUMP JUMPDEST SWAP5 POP SWAP5 SWAP3 POP POP POP JUMP JUMPDEST PUSH0 DUP3 PUSH2 0x7E1E JUMPI PUSH1 0x1 SWAP1 POP PUSH2 0x7ED9 JUMP JUMPDEST DUP2 PUSH2 0x7E2B JUMPI PUSH0 SWAP1 POP PUSH2 0x7ED9 JUMP JUMPDEST DUP2 PUSH1 0x1 DUP2 EQ PUSH2 0x7E41 JUMPI PUSH1 0x2 DUP2 EQ PUSH2 0x7E4B JUMPI PUSH2 0x7E7A JUMP JUMPDEST PUSH1 0x1 SWAP2 POP POP PUSH2 0x7ED9 JUMP JUMPDEST PUSH1 0xFF DUP5 GT ISZERO PUSH2 0x7E5D JUMPI PUSH2 0x7E5C PUSH2 0x6FFF JUMP JUMPDEST JUMPDEST DUP4 PUSH1 0x2 EXP SWAP2 POP DUP5 DUP3 GT ISZERO PUSH2 0x7E74 JUMPI PUSH2 0x7E73 PUSH2 0x6FFF JUMP JUMPDEST JUMPDEST POP PUSH2 0x7ED9 JUMP JUMPDEST POP PUSH1 0x20 DUP4 LT PUSH2 0x133 DUP4 LT AND PUSH1 0x4E DUP5 LT PUSH1 0xB DUP5 LT AND OR ISZERO PUSH2 0x7EAF JUMPI DUP3 DUP3 EXP SWAP1 POP DUP4 DUP2 GT ISZERO PUSH2 0x7EAA JUMPI PUSH2 0x7EA9 PUSH2 0x6FFF JUMP JUMPDEST JUMPDEST PUSH2 0x7ED9 JUMP JUMPDEST PUSH2 0x7EBC DUP5 DUP5 DUP5 PUSH1 0x1 PUSH2 0x7DBD JUMP JUMPDEST SWAP3 POP SWAP1 POP DUP2 DUP5 DIV DUP2 GT ISZERO PUSH2 0x7ED3 JUMPI PUSH2 0x7ED2 PUSH2 0x6FFF JUMP JUMPDEST JUMPDEST DUP2 DUP2 MUL SWAP1 POP JUMPDEST SWAP4 SWAP3 POP POP POP JUMP JUMPDEST PUSH0 PUSH2 0x7EEA DUP3 PUSH2 0x62B7 JUMP JUMPDEST SWAP2 POP PUSH2 0x7EF5 DUP4 PUSH2 0x62B7 JUMP JUMPDEST SWAP3 POP PUSH2 0x7F22 PUSH32 0xFFFFFFFFFFFFFFFFFFFFFFFFFFFFFFFFFFFFFFFFFFFFFFFFFFFFFFFFFFFFFFFF DUP5 DUP5 PUSH2 0x7E0F JUMP JUMPDEST SWAP1 POP SWAP3 SWAP2 POP POP JUMP INVALID LOG2 PUSH5 0x6970667358 0x22 SLT KECCAK256 0xDF 0xDC 0xC1 PUSH14 0xEEAE3D0E88B250C1E0FC5294696D CALLDATALOAD CALLDATASIZE 0x4D EXTCODEHASH BASEFEE 0xDB CALLDATASIZE 0x4B DUPN 0x7D NOT PUSH0 DUP13 0xEB PUSH5 0x736F6C6343 STOP ADDMOD 0x1E STOP CALLER PUSH4 0x6F6E7374 KECCAK256 PUSH21 0x69636B65744964203D20617267735B305D3B636F6E PUSH20 0x742075726C203D202768747470733A2F2F363834 BALANCE PUSH4 0x66336164 CALLVALUE CODESIZE CALLDATALOAD BALANCE CALLDATASIZE PUSH5 0x3164333563 PUSH7 0x3731632E6D6F63 PUSH12 0x6170692E696F2F7665726966 PUSH26 0x7469636B6574732F27202B207469636B657449643B636F6E7374 KECCAK256 PUSH19 0x6573706F6E7365203D2061776169742046756E PUSH4 0x74696F6E PUSH20 0x2E6D616B654874747052657175657374287B2075 PUSH19 0x6C207D293B69662028726573706F6E73652E65 PUSH19 0x726F7229207B207468726F77204572726F7228 0x27 MSTORE PUSH6 0x717565737420 PUSH7 0x61696C65642729 EXTCODESIZE KECCAK256 PUSH30 0x636F6E73742064617461203D20726573706F6E73652E646174613B696620 0x28 0x21 PUSH5 0x617461207C PUSH29 0x20747970656F66206461746120213D3D20276F626A6563742729207468 PUSH19 0x6F77204572726F7228605469636B6574204944 KECCAK256 0x24 PUSH28 0x7469636B657449647D206E6F7420666F756E64206F7220696E76616C PUSH10 0x6460293B636F6E737420 PUSH10 0x7355736564203D206461 PUSH21 0x612E75736564203D3D3D20747275653B7265747572 PUSH15 0x2046756E6374696F6E732E656E636F PUSH5 0x6555696E74 ORIGIN CALLDATALOAD CALLDATASIZE 0x28 PUSH10 0x7355736564203F203120 GASPRICE KECCAK256 ADDRESS 0x29 EXTCODESIZE PUSH4 0x6F6E7374 KECCAK256 PUSH6 0x76656E744964 KECCAK256 RETURNDATASIZE KECCAK256 PUSH2 0x7267 PUSH20 0x5B305D3B636F6E73742075726C203D2027687474 PUSH17 0x733A2F2F36383431636633616434383531 CALLDATASIZE PUSH5 0x3164333563 PUSH7 0x3731632E6D6F63 PUSH12 0x6170692E696F2F7469636B65 PUSH21 0x732F27202B206576656E7449643B636F6E73742072 PUSH6 0x73706F6E7365 KECCAK256 RETURNDATASIZE KECCAK256 PUSH2 0x7761 PUSH10 0x742046756E6374696F6E PUSH20 0x2E6D616B654874747052657175657374287B2075 PUSH19 0x6C207D293B69662028726573706F6E73652E65 PUSH19 0x726F7229207B207468726F77204572726F7228 0x27 MSTORE PUSH6 0x717565737420 PUSH7 0x61696C65642729 EXTCODESIZE KECCAK256 PUSH30 0x636F6E73742064617461203D20726573706F6E73652E646174613B696620 0x28 0x21 PUSH5 0x617461207C PUSH29 0x20747970656F66206461746120213D3D20276F626A6563742729207468 PUSH19 0x6F77204572726F722860496E76616C69642072 PUSH6 0x73706F6E7365 PUSH1 0x29 EXTCODESIZE PUSH4 0x6F6E7374 KECCAK256 PUSH19 0x617752656D61696E696E67203D20646174612E PUSH19 0x656D61696E696E673B636F6E73742061766169 PUSH13 0x61626C65203D204E756D626572 0x28 PUSH19 0x617752656D61696E696E67293B69662028214E PUSH22 0x6D6265722E697346696E69746528617661696C61626C PUSH6 0x292920746872 PUSH16 0x77204572726F722860496E76616C6964 KECCAK256 PUSH21 0x69636B657420636F756E743A20247B72617752656D PUSH2 0x696E PUSH10 0x6E677D60293B72657475 PUSH19 0x6E2046756E6374696F6E732E656E636F646555 PUSH10 0x6E743235362861766169 PUSH13 0x61626C65293B00000000000000 "
		},
		"gasEstimates": {
			"creation": {
				"codeDepositCost": "6521600",
				"executionCost": "infinite",
				"totalCost": "infinite"
			},
			"external": {
				"DEFAULT_ADMIN_ROLE()": "419",
				"UPGRADE_INTERFACE_VERSION()": "infinite",
				"acceptOwnership()": "54664",
				"cancelListing(uint256)": "infinite",
				"createListing(address,uint256,uint256,uint256,string)": "infinite",
				"emergencyCancelListing(uint256)": "infinite",
				"feeRecipient()": "2599",
				"getCurrentListingId()": "2591",
				"getImplementation()": "2668",
				"getListing(uint256)": "infinite",
				"getListingTicketStatus(uint256)": "infinite",
				"getRoleAdmin(bytes32)": "infinite",
				"grantRole(bytes32,address)": "infinite",
				"handleOracleFulfillment(bytes32,bytes,bytes)": "infinite",
				"hasRole(bytes32,address)": "3306",
				"initialize(address,uint256,uint256,uint256,address,uint64)": "infinite",
				"isTicketUsed(string)": "infinite",
				"isTokenListed(address,uint256)": "infinite",
				"listingToTicketId(uint256)": "infinite",
				"listings(uint256)": "infinite",
				"maxListingDuration()": "2558",
				"minListingDuration()": "2581",
				"owner()": "2604",
				"pause()": "infinite",
				"paused()": "2636",
				"platformFeePercent()": "2493",
				"proxiableUUID()": "infinite",
				"purchaseListing(uint256)": "infinite",
				"remainingTickets()": "2492",
				"renounceRole(bytes32,address)": "infinite",
				"requestRemainingTickets(uint64,string[])": "infinite",
				"requestToListing(bytes32)": "2865",
				"revokeRole(bytes32,address)": "infinite",
				"s_lastCheckedTicketId()": "infinite",
				"s_lastError()": "infinite",
				"s_lastRequestId()": "2558",
				"s_lastResponse()": "infinite",
				"s_lastTicketUsed()": "2513",
				"setFeeRecipient(address)": "infinite",
				"setListingDurationLimits(uint256,uint256)": "infinite",
				"setPlatformFee(uint256)": "infinite",
				"setSubscriptionId(uint64)": "27287",
				"setSupportedContract(address,bool)": "infinite",
				"setTicketStatus(string,uint8)": "infinite",
				"subscriptionId()": "2557",
				"supportedContracts(address)": "2923",
				"supportsInterface(bytes4)": "786",
				"ticketStatus(string)": "infinite",
				"ticketUsageStatus(string)": "infinite",
				"tokenToListing(address,uint256)": "infinite",
				"transferOwnership(address)": "30715",
				"unpause()": "infinite",
				"upgradeToAndCall(address,bytes)": "infinite",
				"verifyTicketUsage(uint64,string)": "infinite"
			},
			"internal": {
				"_authorizeUpgrade(address)": "infinite",
				"fulfillRequest(bytes32,bytes memory,bytes memory)": "infinite"
			}
		},
		"methodIdentifiers": {
			"DEFAULT_ADMIN_ROLE()": "a217fddf",
			"UPGRADE_INTERFACE_VERSION()": "ad3cb1cc",
			"acceptOwnership()": "79ba5097",
			"cancelListing(uint256)": "305a67a8",
			"createListing(address,uint256,uint256,uint256,string)": "4d38bb39",
			"emergencyCancelListing(uint256)": "c56370e9",
			"feeRecipient()": "46904840",
			"getCurrentListingId()": "be9ad61e",
			"getImplementation()": "aaf10f42",
			"getListing(uint256)": "107a274a",
			"getListingTicketStatus(uint256)": "8db23f27",
			"getRoleAdmin(bytes32)": "248a9ca3",
			"grantRole(bytes32,address)": "2f2ff15d",
			"handleOracleFulfillment(bytes32,bytes,bytes)": "0ca76175",
			"hasRole(bytes32,address)": "91d14854",
			"initialize(address,uint256,uint256,uint256,address,uint64)": "a92f67ac",
			"isTicketUsed(string)": "5a3d7263",
			"isTokenListed(address,uint256)": "5471b47a",
			"listingToTicketId(uint256)": "fd12597f",
			"listings(uint256)": "de74e57b",
			"maxListingDuration()": "def050c5",
			"minListingDuration()": "957d90d4",
			"owner()": "8da5cb5b",
			"pause()": "8456cb59",
			"paused()": "5c975abb",
			"platformFeePercent()": "8c639a85",
			"proxiableUUID()": "52d1902d",
			"purchaseListing(uint256)": "169d5a7d",
			"remainingTickets()": "5d504832",
			"renounceRole(bytes32,address)": "36568abe",
			"requestRemainingTickets(uint64,string[])": "731cbea8",
			"requestToListing(bytes32)": "f165a337",
			"revokeRole(bytes32,address)": "d547741f",
			"s_lastCheckedTicketId()": "f9aff1e8",
			"s_lastError()": "4b0795a8",
			"s_lastRequestId()": "b1e21749",
			"s_lastResponse()": "3944ea3a",
			"s_lastTicketUsed()": "01c47c8b",
			"setFeeRecipient(address)": "e74b981b",
			"setListingDurationLimits(uint256,uint256)": "b6ef573e",
			"setPlatformFee(uint256)": "12e8e2c3",
			"setSubscriptionId(uint64)": "ea7b4f77",
			"setSupportedContract(address,bool)": "f559ec10",
			"setTicketStatus(string,uint8)": "4f1c0eeb",
			"subscriptionId()": "09c1ba2e",
			"supportedContracts(address)": "b7ff920e",
			"supportsInterface(bytes4)": "01ffc9a7",
			"ticketStatus(string)": "9e95fe71",
			"ticketUsageStatus(string)": "b106b39d",
			"tokenToListing(address,uint256)": "6f7b4352",
			"transferOwnership(address)": "f2fde38b",
			"unpause()": "3f4ba83a",
			"upgradeToAndCall(address,bytes)": "4f1ef286",
			"verifyTicketUsage(uint64,string)": "34a9620c"
		}
	},
	"abi": [
		{
			"inputs": [],
			"name": "AccessControlBadConfirmation",
			"type": "error"
		},
		{
			"inputs": [
				{
					"internalType": "address",
					"name": "account",
					"type": "address"
				},
				{
					"internalType": "bytes32",
					"name": "neededRole",
					"type": "bytes32"
				}
			],
			"name": "AccessControlUnauthorizedAccount",
			"type": "error"
		},
		{
			"inputs": [
				{
					"internalType": "address",
					"name": "target",
					"type": "address"
				}
			],
			"name": "AddressEmptyCode",
			"type": "error"
		},
		{
			"inputs": [
				{
					"internalType": "address",
					"name": "implementation",
					"type": "address"
				}
			],
			"name": "ERC1967InvalidImplementation",
			"type": "error"
		},
		{
			"inputs": [],
			"name": "ERC1967NonPayable",
			"type": "error"
		},
		{
			"inputs": [],
			"name": "EmptyArgs",
			"type": "error"
		},
		{
			"inputs": [],
			"name": "EmptySource",
			"type": "error"
		},
		{
			"inputs": [],
			"name": "EnforcedPause",
			"type": "error"
		},
		{
			"inputs": [],
			"name": "EventEnded",
			"type": "error"
		},
		{
			"inputs": [],
			"name": "ExpectedPause",
			"type": "error"
		},
		{
			"inputs": [],
			"name": "FailedCall",
			"type": "error"
		},
		{
			"inputs": [],
			"name": "InsufficientPayment",
			"type": "error"
		},
		{
			"inputs": [],
			"name": "InvalidDuration",
			"type": "error"
		},
		{
			"inputs": [],
			"name": "InvalidFeePercent",
			"type": "error"
		},
		{
			"inputs": [],
			"name": "InvalidInitialization",
			"type": "error"
		},
		{
			"inputs": [],
			"name": "InvalidPrice",
			"type": "error"
		},
		{
			"inputs": [
				{
					"internalType": "string",
					"name": "ticketId",
					"type": "string"
				}
			],
			"name": "InvalidTicketID",
			"type": "error"
		},
		{
			"inputs": [],
			"name": "ListingExpired",
			"type": "error"
		},
		{
			"inputs": [],
			"name": "ListingNotActive",
			"type": "error"
		},
		{
			"inputs": [],
			"name": "ListingNotFound",
			"type": "error"
		},
		{
			"inputs": [],
			"name": "NoInlineSecrets",
			"type": "error"
		},
		{
			"inputs": [],
			"name": "NotInitializing",
			"type": "error"
		},
		{
			"inputs": [],
			"name": "NotSeller",
			"type": "error"
		},
		{
			"inputs": [],
			"name": "NotTokenOwner",
			"type": "error"
		},
		{
			"inputs": [],
			"name": "OnlyRouterCanFulfill",
			"type": "error"
		},
		{
			"inputs": [],
			"name": "ReentrancyGuardReentrantCall",
			"type": "error"
		},
		{
			"inputs": [
				{
					"internalType": "string",
					"name": "ticketId",
					"type": "string"
				}
			],
			"name": "TicketAlreadyUsed",
			"type": "error"
		},
		{
			"inputs": [
				{
					"internalType": "string",
					"name": "ticketId",
					"type": "string"
				}
			],
			"name": "TicketNotFresh",
			"type": "error"
		},
		{
			"inputs": [],
			"name": "TokenAlreadyListed",
			"type": "error"
		},
		{
			"inputs": [],
			"name": "TokenNotApproved",
			"type": "error"
		},
		{
			"inputs": [],
			"name": "TransferFailed",
			"type": "error"
		},
		{
			"inputs": [],
			"name": "UUPSUnauthorizedCallContext",
			"type": "error"
		},
		{
			"inputs": [
				{
					"internalType": "bytes32",
					"name": "slot",
					"type": "bytes32"
				}
			],
			"name": "UUPSUnsupportedProxiableUUID",
			"type": "error"
		},
		{
			"inputs": [
				{
					"internalType": "bytes32",
					"name": "requestId",
					"type": "bytes32"
				}
			],
			"name": "UnexpectedRequestID",
			"type": "error"
		},
		{
			"inputs": [],
			"name": "UnsupportedContract",
			"type": "error"
		},
		{
			"inputs": [],
			"name": "ZeroAddress",
			"type": "error"
		},
		{
			"anonymous": false,
			"inputs": [
				{
					"indexed": false,
					"internalType": "address",
					"name": "nftContract",
					"type": "address"
				},
				{
					"indexed": false,
					"internalType": "bool",
					"name": "supported",
					"type": "bool"
				}
			],
			"name": "ContractSupportUpdated",
			"type": "event"
		},
		{
			"anonymous": false,
			"inputs": [
				{
					"indexed": false,
					"internalType": "address",
					"name": "newFeeRecipient",
					"type": "address"
				}
			],
			"name": "FeeRecipientUpdated",
			"type": "event"
		},
		{
			"anonymous": false,
			"inputs": [
				{
					"indexed": false,
					"internalType": "uint64",
					"name": "version",
					"type": "uint64"
				}
			],
			"name": "Initialized",
			"type": "event"
		},
		{
			"anonymous": false,
			"inputs": [
				{
					"indexed": true,
					"internalType": "uint256",
					"name": "listingId",
					"type": "uint256"
				},
				{
					"indexed": true,
					"internalType": "address",
					"name": "seller",
					"type": "address"
				}
			],
			"name": "ListingCancelled",
			"type": "event"
		},
		{
			"anonymous": false,
			"inputs": [
				{
					"indexed": true,
					"internalType": "uint256",
					"name": "listingId",
					"type": "uint256"
				},
				{
					"indexed": true,
					"internalType": "address",
					"name": "nftContract",
					"type": "address"
				},
				{
					"indexed": true,
					"internalType": "uint256",
					"name": "tokenId",
					"type": "uint256"
				},
				{
					"indexed": false,
					"internalType": "address",
					"name": "seller",
					"type": "address"
				},
				{
					"indexed": false,
					"internalType": "uint256",
					"name": "price",
					"type": "uint256"
				},
				{
					"indexed": false,
					"internalType": "uint256",
					"name": "startTime",
					"type": "uint256"
				},
				{
					"indexed": false,
					"internalType": "uint256",
					"name": "endTime",
					"type": "uint256"
				},
				{
					"indexed": false,
					"internalType": "string",
					"name": "ticketId",
					"type": "string"
				}
			],
			"name": "ListingCreated",
			"type": "event"
		},
		{
			"anonymous": false,
			"inputs": [
				{
					"indexed": true,
					"internalType": "uint256",
					"name": "listingId",
					"type": "uint256"
				},
				{
					"indexed": true,
					"internalType": "address",
					"name": "buyer",
					"type": "address"
				},
				{
					"indexed": true,
					"internalType": "address",
					"name": "seller",
					"type": "address"
				},
				{
					"indexed": false,
					"internalType": "uint256",
					"name": "price",
					"type": "uint256"
				}
			],
			"name": "ListingPurchased",
			"type": "event"
		},
		{
			"anonymous": false,
			"inputs": [
				{
					"indexed": true,
					"internalType": "uint256",
					"name": "listingId",
					"type": "uint256"
				},
				{
					"indexed": false,
					"internalType": "string",
					"name": "ticketId",
					"type": "string"
				},
				{
					"indexed": false,
					"internalType": "bool",
					"name": "verified",
					"type": "bool"
				}
			],
			"name": "ListingVerified",
			"type": "event"
		},
		{
			"anonymous": false,
			"inputs": [
				{
					"indexed": true,
					"internalType": "address",
					"name": "from",
					"type": "address"
				},
				{
					"indexed": true,
					"internalType": "address",
					"name": "to",
					"type": "address"
				}
			],
			"name": "OwnershipTransferRequested",
			"type": "event"
		},
		{
			"anonymous": false,
			"inputs": [
				{
					"indexed": true,
					"internalType": "address",
					"name": "from",
					"type": "address"
				},
				{
					"indexed": true,
					"internalType": "address",
					"name": "to",
					"type": "address"
				}
			],
			"name": "OwnershipTransferred",
			"type": "event"
		},
		{
			"anonymous": false,
			"inputs": [
				{
					"indexed": false,
					"internalType": "address",
					"name": "account",
					"type": "address"
				}
			],
			"name": "Paused",
			"type": "event"
		},
		{
			"anonymous": false,
			"inputs": [
				{
					"indexed": false,
					"internalType": "uint256",
					"name": "newFeePercent",
					"type": "uint256"
				}
			],
			"name": "PlatformFeeUpdated",
			"type": "event"
		},
		{
			"anonymous": false,
			"inputs": [
				{
					"indexed": true,
					"internalType": "bytes32",
					"name": "id",
					"type": "bytes32"
				}
			],
			"name": "RequestFulfilled",
			"type": "event"
		},
		{
			"anonymous": false,
			"inputs": [
				{
					"indexed": true,
					"internalType": "bytes32",
					"name": "id",
					"type": "bytes32"
				}
			],
			"name": "RequestSent",
			"type": "event"
		},
		{
			"anonymous": false,
			"inputs": [
				{
					"indexed": true,
					"internalType": "bytes32",
					"name": "requestId",
					"type": "bytes32"
				},
				{
					"indexed": false,
					"internalType": "uint256",
					"name": "remainingTickets",
					"type": "uint256"
				},
				{
					"indexed": false,
					"internalType": "bytes",
					"name": "rawResponse",
					"type": "bytes"
				},
				{
					"indexed": false,
					"internalType": "bytes",
					"name": "error",
					"type": "bytes"
				}
			],
			"name": "Response",
			"type": "event"
		},
		{
			"anonymous": false,
			"inputs": [
				{
					"indexed": true,
					"internalType": "bytes32",
					"name": "role",
					"type": "bytes32"
				},
				{
					"indexed": true,
					"internalType": "bytes32",
					"name": "previousAdminRole",
					"type": "bytes32"
				},
				{
					"indexed": true,
					"internalType": "bytes32",
					"name": "newAdminRole",
					"type": "bytes32"
				}
			],
			"name": "RoleAdminChanged",
			"type": "event"
		},
		{
			"anonymous": false,
			"inputs": [
				{
					"indexed": true,
					"internalType": "bytes32",
					"name": "role",
					"type": "bytes32"
				},
				{
					"indexed": true,
					"internalType": "address",
					"name": "account",
					"type": "address"
				},
				{
					"indexed": true,
					"internalType": "address",
					"name": "sender",
					"type": "address"
				}
			],
			"name": "RoleGranted",
			"type": "event"
		},
		{
			"anonymous": false,
			"inputs": [
				{
					"indexed": true,
					"internalType": "bytes32",
					"name": "role",
					"type": "bytes32"
				},
				{
					"indexed": true,
					"internalType": "address",
					"name": "account",
					"type": "address"
				},
				{
					"indexed": true,
					"internalType": "address",
					"name": "sender",
					"type": "address"
				}
			],
			"name": "RoleRevoked",
			"type": "event"
		},
		{
			"anonymous": false,
			"inputs": [
				{
					"indexed": false,
					"internalType": "string",
					"name": "ticketId",
					"type": "string"
				},
				{
					"indexed": false,
					"internalType": "enum SecondaryMarket.TicketStatus",
					"name": "status",
					"type": "uint8"
				}
			],
			"name": "TicketStatusUpdated",
			"type": "event"
		},
		{
			"anonymous": false,
			"inputs": [
				{
					"indexed": true,
					"internalType": "uint256",
					"name": "listingId",
					"type": "uint256"
				},
				{
					"indexed": false,
					"internalType": "string",
					"name": "ticketId",
					"type": "string"
				},
				{
					"indexed": false,
					"internalType": "bytes32",
					"name": "requestId",
					"type": "bytes32"
				}
			],
			"name": "TicketVerificationRequested",
			"type": "event"
		},
		{
			"anonymous": false,
			"inputs": [
				{
					"indexed": true,
					"internalType": "bytes32",
					"name": "requestId",
					"type": "bytes32"
				},
				{
					"indexed": false,
					"internalType": "string",
					"name": "ticketId",
					"type": "string"
				},
				{
					"indexed": false,
					"internalType": "bool",
					"name": "isUsed",
					"type": "bool"
				},
				{
					"indexed": false,
					"internalType": "bytes",
					"name": "rawResponse",
					"type": "bytes"
				},
				{
					"indexed": false,
					"internalType": "bytes",
					"name": "error",
					"type": "bytes"
				}
			],
			"name": "TicketVerified",
			"type": "event"
		},
		{
			"anonymous": false,
			"inputs": [
				{
					"indexed": false,
					"internalType": "address",
					"name": "account",
					"type": "address"
				}
			],
			"name": "Unpaused",
			"type": "event"
		},
		{
			"anonymous": false,
			"inputs": [
				{
					"indexed": true,
					"internalType": "address",
					"name": "implementation",
					"type": "address"
				}
			],
			"name": "Upgraded",
			"type": "event"
		},
		{
			"inputs": [],
			"name": "DEFAULT_ADMIN_ROLE",
			"outputs": [
				{
					"internalType": "bytes32",
					"name": "",
					"type": "bytes32"
				}
			],
			"stateMutability": "view",
			"type": "function"
		},
		{
			"inputs": [],
			"name": "UPGRADE_INTERFACE_VERSION",
			"outputs": [
				{
					"internalType": "string",
					"name": "",
					"type": "string"
				}
			],
			"stateMutability": "view",
			"type": "function"
		},
		{
			"inputs": [],
			"name": "acceptOwnership",
			"outputs": [],
			"stateMutability": "nonpayable",
			"type": "function"
		},
		{
			"inputs": [
				{
					"internalType": "uint256",
					"name": "listingId",
					"type": "uint256"
				}
			],
			"name": "cancelListing",
			"outputs": [],
			"stateMutability": "nonpayable",
			"type": "function"
		},
		{
			"inputs": [
				{
					"internalType": "address",
					"name": "nftContract",
					"type": "address"
				},
				{
					"internalType": "uint256",
					"name": "tokenId",
					"type": "uint256"
				},
				{
					"internalType": "uint256",
					"name": "price",
					"type": "uint256"
				},
				{
					"internalType": "uint256",
					"name": "duration",
					"type": "uint256"
				},
				{
					"internalType": "string",
					"name": "ticketId",
					"type": "string"
				}
			],
			"name": "createListing",
			"outputs": [],
			"stateMutability": "nonpayable",
			"type": "function"
		},
		{
			"inputs": [
				{
					"internalType": "uint256",
					"name": "listingId",
					"type": "uint256"
				}
			],
			"name": "emergencyCancelListing",
			"outputs": [],
			"stateMutability": "nonpayable",
			"type": "function"
		},
		{
			"inputs": [],
			"name": "feeRecipient",
			"outputs": [
				{
					"internalType": "address",
					"name": "",
					"type": "address"
				}
			],
			"stateMutability": "view",
			"type": "function"
		},
		{
			"inputs": [],
			"name": "getCurrentListingId",
			"outputs": [
				{
					"internalType": "uint256",
					"name": "",
					"type": "uint256"
				}
			],
			"stateMutability": "view",
			"type": "function"
		},
		{
			"inputs": [],
			"name": "getImplementation",
			"outputs": [
				{
					"internalType": "address",
					"name": "",
					"type": "address"
				}
			],
			"stateMutability": "view",
			"type": "function"
		},
		{
			"inputs": [
				{
					"internalType": "uint256",
					"name": "listingId",
					"type": "uint256"
				}
			],
			"name": "getListing",
			"outputs": [
				{
					"components": [
						{
							"internalType": "uint256",
							"name": "listingId",
							"type": "uint256"
						},
						{
							"internalType": "address",
							"name": "nftContract",
							"type": "address"
						},
						{
							"internalType": "uint256",
							"name": "tokenId",
							"type": "uint256"
						},
						{
							"internalType": "address",
							"name": "seller",
							"type": "address"
						},
						{
							"internalType": "uint256",
							"name": "price",
							"type": "uint256"
						},
						{
							"internalType": "uint256",
							"name": "startTime",
							"type": "uint256"
						},
						{
							"internalType": "uint256",
							"name": "endTime",
							"type": "uint256"
						},
						{
							"internalType": "bool",
							"name": "active",
							"type": "bool"
						},
						{
							"internalType": "string",
							"name": "ticketId",
							"type": "string"
						},
						{
							"internalType": "bool",
							"name": "pendingVerification",
							"type": "bool"
						}
					],
					"internalType": "struct SecondaryMarket.Listing",
					"name": "",
					"type": "tuple"
				}
			],
			"stateMutability": "view",
			"type": "function"
		},
		{
			"inputs": [
				{
					"internalType": "uint256",
					"name": "listingId",
					"type": "uint256"
				}
			],
			"name": "getListingTicketStatus",
			"outputs": [
				{
					"internalType": "string",
					"name": "ticketId",
					"type": "string"
				},
				{
					"internalType": "enum SecondaryMarket.TicketStatus",
					"name": "status",
					"type": "uint8"
				}
			],
			"stateMutability": "view",
			"type": "function"
		},
		{
			"inputs": [
				{
					"internalType": "bytes32",
					"name": "role",
					"type": "bytes32"
				}
			],
			"name": "getRoleAdmin",
			"outputs": [
				{
					"internalType": "bytes32",
					"name": "",
					"type": "bytes32"
				}
			],
			"stateMutability": "view",
			"type": "function"
		},
		{
			"inputs": [
				{
					"internalType": "bytes32",
					"name": "role",
					"type": "bytes32"
				},
				{
					"internalType": "address",
					"name": "account",
					"type": "address"
				}
			],
			"name": "grantRole",
			"outputs": [],
			"stateMutability": "nonpayable",
			"type": "function"
		},
		{
			"inputs": [
				{
					"internalType": "bytes32",
					"name": "requestId",
					"type": "bytes32"
				},
				{
					"internalType": "bytes",
					"name": "response",
					"type": "bytes"
				},
				{
					"internalType": "bytes",
					"name": "err",
					"type": "bytes"
				}
			],
			"name": "handleOracleFulfillment",
			"outputs": [],
			"stateMutability": "nonpayable",
			"type": "function"
		},
		{
			"inputs": [
				{
					"internalType": "bytes32",
					"name": "role",
					"type": "bytes32"
				},
				{
					"internalType": "address",
					"name": "account",
					"type": "address"
				}
			],
			"name": "hasRole",
			"outputs": [
				{
					"internalType": "bool",
					"name": "",
					"type": "bool"
				}
			],
			"stateMutability": "view",
			"type": "function"
		},
		{
			"inputs": [
				{
					"internalType": "address",
					"name": "_feeRecipient",
					"type": "address"
				},
				{
					"internalType": "uint256",
					"name": "_platformFeePercent",
					"type": "uint256"
				},
				{
					"internalType": "uint256",
					"name": "_minListingDuration",
					"type": "uint256"
				},
				{
					"internalType": "uint256",
					"name": "_maxListingDuration",
					"type": "uint256"
				},
				{
					"internalType": "address",
					"name": "_router",
					"type": "address"
				},
				{
					"internalType": "uint64",
					"name": "_subscriptionId",
					"type": "uint64"
				}
			],
			"name": "initialize",
			"outputs": [],
			"stateMutability": "nonpayable",
			"type": "function"
		},
		{
			"inputs": [
				{
					"internalType": "string",
					"name": "ticketId",
					"type": "string"
				}
			],
			"name": "isTicketUsed",
			"outputs": [
				{
					"internalType": "bool",
					"name": "",
					"type": "bool"
				}
			],
			"stateMutability": "view",
			"type": "function"
		},
		{
			"inputs": [
				{
					"internalType": "address",
					"name": "nftContract",
					"type": "address"
				},
				{
					"internalType": "uint256",
					"name": "tokenId",
					"type": "uint256"
				}
			],
			"name": "isTokenListed",
			"outputs": [
				{
					"internalType": "bool",
					"name": "",
					"type": "bool"
				}
			],
			"stateMutability": "view",
			"type": "function"
		},
		{
			"inputs": [
				{
					"internalType": "uint256",
					"name": "",
					"type": "uint256"
				}
			],
			"name": "listingToTicketId",
			"outputs": [
				{
					"internalType": "string",
					"name": "",
					"type": "string"
				}
			],
			"stateMutability": "view",
			"type": "function"
		},
		{
			"inputs": [
				{
					"internalType": "uint256",
					"name": "",
					"type": "uint256"
				}
			],
			"name": "listings",
			"outputs": [
				{
					"internalType": "uint256",
					"name": "listingId",
					"type": "uint256"
				},
				{
					"internalType": "address",
					"name": "nftContract",
					"type": "address"
				},
				{
					"internalType": "uint256",
					"name": "tokenId",
					"type": "uint256"
				},
				{
					"internalType": "address",
					"name": "seller",
					"type": "address"
				},
				{
					"internalType": "uint256",
					"name": "price",
					"type": "uint256"
				},
				{
					"internalType": "uint256",
					"name": "startTime",
					"type": "uint256"
				},
				{
					"internalType": "uint256",
					"name": "endTime",
					"type": "uint256"
				},
				{
					"internalType": "bool",
					"name": "active",
					"type": "bool"
				},
				{
					"internalType": "string",
					"name": "ticketId",
					"type": "string"
				},
				{
					"internalType": "bool",
					"name": "pendingVerification",
					"type": "bool"
				}
			],
			"stateMutability": "view",
			"type": "function"
		},
		{
			"inputs": [],
			"name": "maxListingDuration",
			"outputs": [
				{
					"internalType": "uint256",
					"name": "",
					"type": "uint256"
				}
			],
			"stateMutability": "view",
			"type": "function"
		},
		{
			"inputs": [],
			"name": "minListingDuration",
			"outputs": [
				{
					"internalType": "uint256",
					"name": "",
					"type": "uint256"
				}
			],
			"stateMutability": "view",
			"type": "function"
		},
		{
			"inputs": [],
			"name": "owner",
			"outputs": [
				{
					"internalType": "address",
					"name": "",
					"type": "address"
				}
			],
			"stateMutability": "view",
			"type": "function"
		},
		{
			"inputs": [],
			"name": "pause",
			"outputs": [],
			"stateMutability": "nonpayable",
			"type": "function"
		},
		{
			"inputs": [],
			"name": "paused",
			"outputs": [
				{
					"internalType": "bool",
					"name": "",
					"type": "bool"
				}
			],
			"stateMutability": "view",
			"type": "function"
		},
		{
			"inputs": [],
			"name": "platformFeePercent",
			"outputs": [
				{
					"internalType": "uint256",
					"name": "",
					"type": "uint256"
				}
			],
			"stateMutability": "view",
			"type": "function"
		},
		{
			"inputs": [],
			"name": "proxiableUUID",
			"outputs": [
				{
					"internalType": "bytes32",
					"name": "",
					"type": "bytes32"
				}
			],
			"stateMutability": "view",
			"type": "function"
		},
		{
			"inputs": [
				{
					"internalType": "uint256",
					"name": "listingId",
					"type": "uint256"
				}
			],
			"name": "purchaseListing",
			"outputs": [],
			"stateMutability": "payable",
			"type": "function"
		},
		{
			"inputs": [],
			"name": "remainingTickets",
			"outputs": [
				{
					"internalType": "uint256",
					"name": "",
					"type": "uint256"
				}
			],
			"stateMutability": "view",
			"type": "function"
		},
		{
			"inputs": [
				{
					"internalType": "bytes32",
					"name": "role",
					"type": "bytes32"
				},
				{
					"internalType": "address",
					"name": "callerConfirmation",
					"type": "address"
				}
			],
			"name": "renounceRole",
			"outputs": [],
			"stateMutability": "nonpayable",
			"type": "function"
		},
		{
			"inputs": [
				{
					"internalType": "uint64",
					"name": "subscriptionId",
					"type": "uint64"
				},
				{
					"internalType": "string[]",
					"name": "args",
					"type": "string[]"
				}
			],
			"name": "requestRemainingTickets",
			"outputs": [
				{
					"internalType": "bytes32",
					"name": "requestId",
					"type": "bytes32"
				}
			],
			"stateMutability": "nonpayable",
			"type": "function"
		},
		{
			"inputs": [
				{
					"internalType": "bytes32",
					"name": "",
					"type": "bytes32"
				}
			],
			"name": "requestToListing",
			"outputs": [
				{
					"internalType": "uint256",
					"name": "",
					"type": "uint256"
				}
			],
			"stateMutability": "view",
			"type": "function"
		},
		{
			"inputs": [
				{
					"internalType": "bytes32",
					"name": "role",
					"type": "bytes32"
				},
				{
					"internalType": "address",
					"name": "account",
					"type": "address"
				}
			],
			"name": "revokeRole",
			"outputs": [],
			"stateMutability": "nonpayable",
			"type": "function"
		},
		{
			"inputs": [],
			"name": "s_lastCheckedTicketId",
			"outputs": [
				{
					"internalType": "string",
					"name": "",
					"type": "string"
				}
			],
			"stateMutability": "view",
			"type": "function"
		},
		{
			"inputs": [],
			"name": "s_lastError",
			"outputs": [
				{
					"internalType": "bytes",
					"name": "",
					"type": "bytes"
				}
			],
			"stateMutability": "view",
			"type": "function"
		},
		{
			"inputs": [],
			"name": "s_lastRequestId",
			"outputs": [
				{
					"internalType": "bytes32",
					"name": "",
					"type": "bytes32"
				}
			],
			"stateMutability": "view",
			"type": "function"
		},
		{
			"inputs": [],
			"name": "s_lastResponse",
			"outputs": [
				{
					"internalType": "bytes",
					"name": "",
					"type": "bytes"
				}
			],
			"stateMutability": "view",
			"type": "function"
		},
		{
			"inputs": [],
			"name": "s_lastTicketUsed",
			"outputs": [
				{
					"internalType": "bool",
					"name": "",
					"type": "bool"
				}
			],
			"stateMutability": "view",
			"type": "function"
		},
		{
			"inputs": [
				{
					"internalType": "address",
					"name": "newFeeRecipient",
					"type": "address"
				}
			],
			"name": "setFeeRecipient",
			"outputs": [],
			"stateMutability": "nonpayable",
			"type": "function"
		},
		{
			"inputs": [
				{
					"internalType": "uint256",
					"name": "newMinDuration",
					"type": "uint256"
				},
				{
					"internalType": "uint256",
					"name": "newMaxDuration",
					"type": "uint256"
				}
			],
			"name": "setListingDurationLimits",
			"outputs": [],
			"stateMutability": "nonpayable",
			"type": "function"
		},
		{
			"inputs": [
				{
					"internalType": "uint256",
					"name": "newFeePercent",
					"type": "uint256"
				}
			],
			"name": "setPlatformFee",
			"outputs": [],
			"stateMutability": "nonpayable",
			"type": "function"
		},
		{
			"inputs": [
				{
					"internalType": "uint64",
					"name": "newSubscriptionId",
					"type": "uint64"
				}
			],
			"name": "setSubscriptionId",
			"outputs": [],
			"stateMutability": "nonpayable",
			"type": "function"
		},
		{
			"inputs": [
				{
					"internalType": "address",
					"name": "nftContract",
					"type": "address"
				},
				{
					"internalType": "bool",
					"name": "supported",
					"type": "bool"
				}
			],
			"name": "setSupportedContract",
			"outputs": [],
			"stateMutability": "nonpayable",
			"type": "function"
		},
		{
			"inputs": [
				{
					"internalType": "string",
					"name": "ticketId",
					"type": "string"
				},
				{
					"internalType": "enum SecondaryMarket.TicketStatus",
					"name": "status",
					"type": "uint8"
				}
			],
			"name": "setTicketStatus",
			"outputs": [],
			"stateMutability": "nonpayable",
			"type": "function"
		},
		{
			"inputs": [],
			"name": "subscriptionId",
			"outputs": [
				{
					"internalType": "uint64",
					"name": "",
					"type": "uint64"
				}
			],
			"stateMutability": "view",
			"type": "function"
		},
		{
			"inputs": [
				{
					"internalType": "address",
					"name": "",
					"type": "address"
				}
			],
			"name": "supportedContracts",
			"outputs": [
				{
					"internalType": "bool",
					"name": "",
					"type": "bool"
				}
			],
			"stateMutability": "view",
			"type": "function"
		},
		{
			"inputs": [
				{
					"internalType": "bytes4",
					"name": "interfaceId",
					"type": "bytes4"
				}
			],
			"name": "supportsInterface",
			"outputs": [
				{
					"internalType": "bool",
					"name": "",
					"type": "bool"
				}
			],
			"stateMutability": "view",
			"type": "function"
		},
		{
			"inputs": [
				{
					"internalType": "string",
					"name": "",
					"type": "string"
				}
			],
			"name": "ticketStatus",
			"outputs": [
				{
					"internalType": "enum SecondaryMarket.TicketStatus",
					"name": "",
					"type": "uint8"
				}
			],
			"stateMutability": "view",
			"type": "function"
		},
		{
			"inputs": [
				{
					"internalType": "string",
					"name": "",
					"type": "string"
				}
			],
			"name": "ticketUsageStatus",
			"outputs": [
				{
					"internalType": "bool",
					"name": "",
					"type": "bool"
				}
			],
			"stateMutability": "view",
			"type": "function"
		},
		{
			"inputs": [
				{
					"internalType": "address",
					"name": "",
					"type": "address"
				},
				{
					"internalType": "uint256",
					"name": "",
					"type": "uint256"
				}
			],
			"name": "tokenToListing",
			"outputs": [
				{
					"internalType": "uint256",
					"name": "",
					"type": "uint256"
				}
			],
			"stateMutability": "view",
			"type": "function"
		},
		{
			"inputs": [
				{
					"internalType": "address",
					"name": "to",
					"type": "address"
				}
			],
			"name": "transferOwnership",
			"outputs": [],
			"stateMutability": "nonpayable",
			"type": "function"
		},
		{
			"inputs": [],
			"name": "unpause",
			"outputs": [],
			"stateMutability": "nonpayable",
			"type": "function"
		},
		{
			"inputs": [
				{
					"internalType": "address",
					"name": "newImplementation",
					"type": "address"
				},
				{
					"internalType": "bytes",
					"name": "data",
					"type": "bytes"
				}
			],
			"name": "upgradeToAndCall",
			"outputs": [],
			"stateMutability": "payable",
			"type": "function"
		},
		{
			"inputs": [
				{
					"internalType": "uint64",
					"name": "subscriptionId",
					"type": "uint64"
				},
				{
					"internalType": "string",
					"name": "ticketId",
					"type": "string"
				}
			],
			"name": "verifyTicketUsage",
			"outputs": [
				{
					"internalType": "bytes32",
					"name": "requestId",
					"type": "bytes32"
				}
			],
			"stateMutability": "nonpayable",
			"type": "function"
		}
	]
}