{
	"data": {
		"bytecode": {
			"linkReferences": {},
			"object": "60a06040523073ffffffffffffffffffffffffffffffffffffffff1660809073ffffffffffffffffffffffffffffffffffffffff168152506040518061024001604052806102028152602001616a566102029139600b90816100619190610429565b50604051806101e001604052806101aa81526020016168ac6101aa9139600c908161008c9190610429565b50348015610098575f5ffd5b506100a76100ac60201b60201c565b610533565b5f6100bb6101aa60201b60201c565b9050805f0160089054906101000a900460ff1615610105576040517ff92ee8a900000000000000000000000000000000000000000000000000000000815260040160405180910390fd5b67ffffffffffffffff8016815f015f9054906101000a900467ffffffffffffffff1667ffffffffffffffff16146101a75767ffffffffffffffff815f015f6101000a81548167ffffffffffffffff021916908367ffffffffffffffff1602179055507fc7f505b2f371ae2175ee4913f4499e1f2633a7b5936321eed1cdaeb6115181d267ffffffffffffffff60405161019e919061051a565b60405180910390a15b50565b5f5f6101ba6101c360201b60201c565b90508091505090565b5f7ff0c57e16840df040f15088dc2f81fe391c3923bec73e23a9662efc9c229c6a005f1b905090565b5f81519050919050565b7f4e487b71000000000000000000000000000000000000000000000000000000005f52604160045260245ffd5b7f4e487b71000000000000000000000000000000000000000000000000000000005f52602260045260245ffd5b5f600282049050600182168061026757607f821691505b60208210810361027a57610279610223565b5b50919050565b5f819050815f5260205f209050919050565b5f6020601f8301049050919050565b5f82821b905092915050565b5f600883026102dc7fffffffffffffffffffffffffffffffffffffffffffffffffffffffffffffffff826102a1565b6102e686836102a1565b95508019841693508086168417925050509392505050565b5f819050919050565b5f819050919050565b5f61032a610325610320846102fe565b610307565b6102fe565b9050919050565b5f819050919050565b61034383610310565b61035761034f82610331565b8484546102ad565b825550505050565b5f5f905090565b61036e61035f565b61037981848461033a565b505050565b5b8181101561039c576103915f82610366565b60018101905061037f565b5050565b601f8211156103e1576103b281610280565b6103bb84610292565b810160208510156103ca578190505b6103de6103d685610292565b83018261037e565b50505b505050565b5f82821c905092915050565b5f6104015f19846008026103e6565b1980831691505092915050565b5f61041983836103f2565b9150826002028217905092915050565b610432826101ec565b67ffffffffffffffff81111561044b5761044a6101f6565b5b6104558254610250565b6104608282856103a0565b5f60209050601f831160018114610491575f841561047f578287015190505b610489858261040e565b8655506104f0565b601f19841661049f86610280565b5f5b828110156104c6578489015182556001820191506020850194506020810190506104a1565b868310156104e357848901516104df601f8916826103f2565b8355505b6001600288020188555050505b505050505050565b5f67ffffffffffffffff82169050919050565b610514816104f8565b82525050565b5f60208201905061052d5f83018461050b565b92915050565b6080516163536105595f395f8181613575015281816135ca01526137a901526163535ff3fe60806040526004361061022f575f3560e01c80635d5048321161012d578063aaf10f42116100aa578063be9ad61e1161006e578063be9ad61e14610860578063d547741f1461088a578063def050c5146108b2578063f2fde38b146108dc578063f9aff1e8146109045761022f565b8063aaf10f421461076a578063ad3cb1cc14610794578063b106b39d146107be578063b1e21749146107fa578063b7ff920e146108245761022f565b80638db23f27116100f15780638db23f271461067557806391d14854146106b2578063957d90d4146106ee578063a217fddf14610718578063a92f67ac146107425761022f565b80635d504832146105a5578063731cbea8146105cf57806379ba50971461060b5780638c639a85146106215780638da5cb5b1461064b5761022f565b806336568abe116101bb5780634f1ef2861161017f5780634f1ef286146104bd57806352d1902d146104d95780635471b47a146105035780635a3d72631461053f5780635c975abb1461057b5761022f565b806336568abe146103ef5780633944ea3a1461041757806346904840146104415780634b0795a81461046b5780634d38bb39146104955761022f565b8063107a274a11610202578063107a274a146102eb578063248a9ca3146103275780632f2ff15d14610363578063305a67a81461038b57806334a9620c146103b35761022f565b806301c47c8b1461023357806301ffc9a71461025d57806309c1ba2e146102995780630ca76175146102c3575b5f5ffd5b34801561023e575f5ffd5b5061024761092e565b60405161025491906146b4565b60405180910390f35b348015610268575f5ffd5b50610283600480360381019061027e9190614733565b610940565b60405161029091906146b4565b60405180910390f35b3480156102a4575f5ffd5b506102ad6109b9565b6040516102ba9190614780565b60405180910390f35b3480156102ce575f5ffd5b506102e960048036038101906102e49190614908565b6109d2565b005b3480156102f6575f5ffd5b50610311600480360381019061030c91906149c3565b610a95565b60405161031e9190614b82565b60405180910390f35b348015610332575f5ffd5b5061034d60048036038101906103489190614ba2565b610c60565b60405161035a9190614bdc565b60405180910390f35b34801561036e575f5ffd5b5061038960048036038101906103849190614c1f565b610c8a565b005b348015610396575f5ffd5b506103b160048036038101906103ac91906149c3565b610cac565b005b3480156103be575f5ffd5b506103d960048036038101906103d49190614ce4565b610f5d565b6040516103e69190614bdc565b60405180910390f35b3480156103fa575f5ffd5b5061041560048036038101906104109190614c1f565b611178565b005b348015610422575f5ffd5b5061042b6111f3565b6040516104389190614d93565b60405180910390f35b34801561044c575f5ffd5b5061045561127f565b6040516104629190614dc2565b60405180910390f35b348015610476575f5ffd5b5061047f6112a4565b60405161048c9190614d93565b60405180910390f35b3480156104a0575f5ffd5b506104bb60048036038101906104b69190614ddb565b611330565b005b6104d760048036038101906104d29190614e71565b611d2c565b005b3480156104e4575f5ffd5b506104ed611d4b565b6040516104fa9190614bdc565b60405180910390f35b34801561050e575f5ffd5b5061052960048036038101906105249190614ecb565b611d7c565b60405161053691906146b4565b60405180910390f35b34801561054a575f5ffd5b5061056560048036038101906105609190614f09565b611fbc565b60405161057291906146b4565b60405180910390f35b348015610586575f5ffd5b5061058f611ff2565b60405161059c91906146b4565b60405180910390f35b3480156105b0575f5ffd5b506105b9612014565b6040516105c69190614f63565b60405180910390f35b3480156105da575f5ffd5b506105f560048036038101906105f09190614fd1565b61201a565b6040516106029190614bdc565b60405180910390f35b348015610616575f5ffd5b5061061f61213d565b005b34801561062c575f5ffd5b506106356122cc565b6040516106429190614f63565b60405180910390f35b348015610656575f5ffd5b5061065f6122d2565b60405161066c9190614dc2565b60405180910390f35b348015610680575f5ffd5b5061069b600480360381019061069691906149c3565b6122f9565b6040516106a99291906150e9565b60405180910390f35b3480156106bd575f5ffd5b506106d860048036038101906106d39190614c1f565b612500565b6040516106e591906146b4565b60405180910390f35b3480156106f9575f5ffd5b50610702612571565b60405161070f9190614f63565b60405180910390f35b348015610723575f5ffd5b5061072c612577565b6040516107399190614bdc565b60405180910390f35b34801561074d575f5ffd5b5061076860048036038101906107639190615117565b61257d565b005b348015610775575f5ffd5b5061077e612887565b60405161078b9190614dc2565b60405180910390f35b34801561079f575f5ffd5b506107a8612895565b6040516107b591906151a0565b60405180910390f35b3480156107c9575f5ffd5b506107e460048036038101906107df919061525e565b6128ce565b6040516107f191906146b4565b60405180910390f35b348015610805575f5ffd5b5061080e612903565b60405161081b9190614bdc565b60405180910390f35b34801561082f575f5ffd5b5061084a600480360381019061084591906152a5565b612909565b60405161085791906146b4565b60405180910390f35b34801561086b575f5ffd5b50610874612926565b6040516108819190614f63565b60405180910390f35b348015610895575f5ffd5b506108b060048036038101906108ab9190614c1f565b612936565b005b3480156108bd575f5ffd5b506108c6612958565b6040516108d39190614f63565b60405180910390f35b3480156108e7575f5ffd5b5061090260048036038101906108fd91906152a5565b61295e565b005b34801561090f575f5ffd5b50610918612972565b60405161092591906151a0565b60405180910390f35b60095f9054906101000a900460ff1681565b5f7f7965db0b000000000000000000000000000000000000000000000000000000007bffffffffffffffffffffffffffffffffffffffffffffffffffffffff1916827bffffffffffffffffffffffffffffffffffffffffffffffffffffffff191614806109b257506109b1826129fe565b5b9050919050565b60125f9054906101000a900467ffffffffffffffff1681565b60025f9054906101000a900473ffffffffffffffffffffffffffffffffffffffff1673ffffffffffffffffffffffffffffffffffffffff163373ffffffffffffffffffffffffffffffffffffffff1614610a58576040517fc6829f8300000000000000000000000000000000000000000000000000000000815260040160405180910390fd5b610a63838383612a67565b827f85e1543bf2f84fe80c6badbce3648c8539ad1df4d2b3d822938ca0538be727e660405160405180910390a2505050565b610a9d614579565b60135f8381526020019081526020015f20604051806101400160405290815f8201548152602001600182015f9054906101000a900473ffffffffffffffffffffffffffffffffffffffff1673ffffffffffffffffffffffffffffffffffffffff1673ffffffffffffffffffffffffffffffffffffffff16815260200160028201548152602001600382015f9054906101000a900473ffffffffffffffffffffffffffffffffffffffff1673ffffffffffffffffffffffffffffffffffffffff1673ffffffffffffffffffffffffffffffffffffffff168152602001600482015481526020016005820154815260200160068201548152602001600782015f9054906101000a900460ff16151515158152602001600882018054610bbf906152fd565b80601f0160208091040260200160405190810160405280929190818152602001828054610beb906152fd565b8015610c365780601f10610c0d57610100808354040283529160200191610c36565b820191905f5260205f20905b815481529060010190602001808311610c1957829003601f168201915b50505050508152602001600982015f9054906101000a900460ff1615151515815250509050919050565b5f5f610c6a612ca3565b9050805f015f8481526020019081526020015f2060010154915050919050565b610c9382610c60565b610c9c81612cca565b610ca68383612cde565b50505050565b610cb4612dd6565b610cbc612e17565b5f60135f8381526020019081526020015f2090505f815f015403610d0c576040517f7e43e63800000000000000000000000000000000000000000000000000000000815260040160405180910390fd5b806007015f9054906101000a900460ff16610d53576040517f66cb03e900000000000000000000000000000000000000000000000000000000815260040160405180910390fd5b3373ffffffffffffffffffffffffffffffffffffffff16816003015f9054906101000a900473ffffffffffffffffffffffffffffffffffffffff1673ffffffffffffffffffffffffffffffffffffffff1614610ddb576040517f5ec8235100000000000000000000000000000000000000000000000000000000815260040160405180910390fd5b5f816007015f6101000a81548160ff0219169083151502179055505f60145f836001015f9054906101000a900473ffffffffffffffffffffffffffffffffffffffff1673ffffffffffffffffffffffffffffffffffffffff1673ffffffffffffffffffffffffffffffffffffffff1681526020019081526020015f205f836002015481526020019081526020015f20819055505f816008018054610e7e906152fd565b90501115610f0d576004601782600801604051610e9b91906153c9565b90815260200160405180910390205f6101000a81548160ff02191690836004811115610eca57610ec9615076565b5b02179055507f384a7354a96a31098438152e3be618fcafb335084ca123fbc6168a866f508241816008016004604051610f04929190615460565b60405180910390a15b3373ffffffffffffffffffffffffffffffffffffffff16827f8e25282255ab31897df2b0456bb993ac7f84d376861aefd84901d2d63a7428a260405160405180910390a350610f5a612e6b565b50565b5f610f66612e82565b5f8383905003610faf5782826040517f5597dd23000000000000000000000000000000000000000000000000000000008152600401610fa69291906154ba565b60405180910390fd5b610fb76145f3565b611052600c8054610fc7906152fd565b80601f0160208091040260200160405190810160405280929190818152602001828054610ff3906152fd565b801561103e5780601f106110155761010080835404028352916020019161103e565b820191905f5260205f20905b81548152906001019060200180831161102157829003601f168201915b505050505082612f1290919063ffffffff16565b5f600167ffffffffffffffff81111561106e5761106d6147e4565b5b6040519080825280602002602001820160405280156110a157816020015b606081526020019060019003908161108c5790505b50905084848080601f0160208091040260200160405190810160405280939291908181526020018383808284375f81840152601f19601f82011690508083019250505050505050815f815181106110fb576110fa6154dc565b5b60200260200101819052506111198183612f2290919063ffffffff16565b84846008918261112a9291906156a1565b5061116461113783612f69565b87620493e07f66756e2d657468657265756d2d7365706f6c69612d31000000000000000000005f1b613374565b600381905550600354925050509392505050565b611180613454565b73ffffffffffffffffffffffffffffffffffffffff168173ffffffffffffffffffffffffffffffffffffffff16146111e4576040517f6697b23200000000000000000000000000000000000000000000000000000000815260040160405180910390fd5b6111ee828261345b565b505050565b60048054611200906152fd565b80601f016020809104026020016040519081016040528092919081815260200182805461122c906152fd565b80156112775780601f1061124e57610100808354040283529160200191611277565b820191905f5260205f20905b81548152906001019060200180831161125a57829003601f168201915b505050505081565b600f5f9054906101000a900473ffffffffffffffffffffffffffffffffffffffff1681565b600580546112b1906152fd565b80601f01602080910402602001604051908101604052809291908181526020018280546112dd906152fd565b80156113285780601f106112ff57610100808354040283529160200191611328565b820191905f5260205f20905b81548152906001019060200180831161130b57829003601f168201915b505050505081565b611338612dd6565b611340612e17565b5f8403611378576040517ebfc92100000000000000000000000000000000000000000000000000000000815260040160405180910390fd5b601054831080611389575060115483115b156113c0576040517f7616640100000000000000000000000000000000000000000000000000000000815260040160405180910390fd5b60155f8773ffffffffffffffffffffffffffffffffffffffff1673ffffffffffffffffffffffffffffffffffffffff1681526020019081526020015f205f9054906101000a900460ff16611440576040517f12f140a300000000000000000000000000000000000000000000000000000000815260040160405180910390fd5b5f60145f8873ffffffffffffffffffffffffffffffffffffffff1673ffffffffffffffffffffffffffffffffffffffff1681526020019081526020015f205f8781526020019081526020015f2054146114c5576040517fdeaabdc200000000000000000000000000000000000000000000000000000000815260040160405180910390fd5b5f8282905011156115cf575f601783836040516114e3929190615792565b90815260200160405180910390205f9054906101000a900460ff1690505f600481111561151357611512615076565b5b81600481111561152657611525615076565b5b14158015611558575060048081111561154257611541615076565b5b81600481111561155557611554615076565b5b14155b801561158957506003600481111561157357611572615076565b5b81600481111561158657611585615076565b5b14155b156115cd5782826040517fdb1faaaf0000000000000000000000000000000000000000000000000000000081526004016115c49291906154ba565b60405180910390fd5b505b5f8690503373ffffffffffffffffffffffffffffffffffffffff168173ffffffffffffffffffffffffffffffffffffffff16636352211e886040518263ffffffff1660e01b81526004016116239190614f63565b602060405180830381865afa15801561163e573d5f5f3e3d5ffd5b505050506040513d601f19601f8201168201806040525081019061166291906157be565b73ffffffffffffffffffffffffffffffffffffffff16146116af576040517f59dc379f00000000000000000000000000000000000000000000000000000000815260040160405180910390fd5b8073ffffffffffffffffffffffffffffffffffffffff1663e985e9c533306040518363ffffffff1660e01b81526004016116ea9291906157e9565b602060405180830381865afa158015611705573d5f5f3e3d5ffd5b505050506040513d601f19601f82011682018060405250810190611729919061583a565b1580156117d957503073ffffffffffffffffffffffffffffffffffffffff168173ffffffffffffffffffffffffffffffffffffffff1663081812fc886040518263ffffffff1660e01b81526004016117819190614f63565b602060405180830381865afa15801561179c573d5f5f3e3d5ffd5b505050506040513d601f19601f820116820180604052508101906117c091906157be565b73ffffffffffffffffffffffffffffffffffffffff1614155b15611810576040517f32da96a300000000000000000000000000000000000000000000000000000000815260040160405180910390fd5b5f8383905011156118d6575f8790505f8173ffffffffffffffffffffffffffffffffffffffff16633197cbb66040518163ffffffff1660e01b8152600401602060405180830381865afa158015611869573d5f5f3e3d5ffd5b505050506040513d601f19601f8201168201806040525081019061188d9190615879565b90508067ffffffffffffffff164211156118d3576040517f1963c37d00000000000000000000000000000000000000000000000000000000815260040160405180910390fd5b50505b6118e0600d613553565b5f6118eb600d613567565b90505f4290505f86826118fe91906158d1565b90505f5f90505f600190506040518061014001604052808681526020018d73ffffffffffffffffffffffffffffffffffffffff1681526020018c81526020013373ffffffffffffffffffffffffffffffffffffffff1681526020018b8152602001858152602001848152602001831515815260200189898080601f0160208091040260200160405190810160405280939291908181526020018383808284375f81840152601f19601f82011690508083019250505050505050815260200182151581525060135f8781526020019081526020015f205f820151815f01556020820151816001015f6101000a81548173ffffffffffffffffffffffffffffffffffffffff021916908373ffffffffffffffffffffffffffffffffffffffff160217905550604082015181600201556060820151816003015f6101000a81548173ffffffffffffffffffffffffffffffffffffffff021916908373ffffffffffffffffffffffffffffffffffffffff1602179055506080820151816004015560a0820151816005015560c0820151816006015560e0820151816007015f6101000a81548160ff021916908315150217905550610100820151816008019081611ac49190615904565b50610120820151816009015f6101000a81548160ff0219169083151502179055509050508460145f8e73ffffffffffffffffffffffffffffffffffffffff1673ffffffffffffffffffffffffffffffffffffffff1681526020019081526020015f205f8d81526020019081526020015f20819055505f888890501115611c6457878760165f8881526020019081526020015f209182611b649291906156a1565b50600160178989604051611b79929190615792565b90815260200160405180910390205f6101000a81548160ff02191690836004811115611ba857611ba7615076565b5b02179055507f384a7354a96a31098438152e3be618fcafb335084ca123fbc6168a866f50824188886001604051611be1939291906159d3565b60405180910390a15f611c0a60125f9054906101000a900467ffffffffffffffff168a8a610f5d565b90508560185f8381526020019081526020015f2081905550857fcd78c6782f8df7053dab6d63baee24ae10fb919661afdc7fd6d25f33f05a9cb78a8a84604051611c5693929190615a03565b60405180910390a250611cbc565b600160135f8781526020019081526020015f206007015f6101000a81548160ff0219169083151502179055505f60135f8781526020019081526020015f206009015f6101000a81548160ff0219169083151502179055505b8a8c73ffffffffffffffffffffffffffffffffffffffff16867fa37311f4098f313d5cd60cbd3d848e0674622cd802b858a6f78467be78c69539338e89898f8f604051611d0e96959493929190615a33565b60405180910390a4505050505050611d24612e6b565b505050505050565b611d34613573565b611d3d82613659565b611d478282613689565b5050565b5f611d546137a7565b7f360894a13ba1a3210667c828492db98dca3e2076cc3735a920a3ca505d382bbc5f1b905090565b5f5f60145f8573ffffffffffffffffffffffffffffffffffffffff1673ffffffffffffffffffffffffffffffffffffffff1681526020019081526020015f205f8481526020019081526020015f205490505f8103611ddd575f915050611fb6565b5f60135f8381526020019081526020015f20604051806101400160405290815f8201548152602001600182015f9054906101000a900473ffffffffffffffffffffffffffffffffffffffff1673ffffffffffffffffffffffffffffffffffffffff1673ffffffffffffffffffffffffffffffffffffffff16815260200160028201548152602001600382015f9054906101000a900473ffffffffffffffffffffffffffffffffffffffff1673ffffffffffffffffffffffffffffffffffffffff1673ffffffffffffffffffffffffffffffffffffffff168152602001600482015481526020016005820154815260200160068201548152602001600782015f9054906101000a900460ff16151515158152602001600882018054611f00906152fd565b80601f0160208091040260200160405190810160405280929190818152602001828054611f2c906152fd565b8015611f775780601f10611f4e57610100808354040283529160200191611f77565b820191905f5260205f20905b815481529060010190602001808311611f5a57829003601f168201915b50505050508152602001600982015f9054906101000a900460ff16151515158152505090508060e001518015611fb157508060c001514211155b925050505b92915050565b5f60078383604051611fcf929190615792565b90815260200160405180910390205f9054906101000a900460ff16905092915050565b5f5f611ffc61382e565b9050805f015f9054906101000a900460ff1691505090565b60065481565b5f612023612e82565b61202b6145f3565b6120c6600b805461203b906152fd565b80601f0160208091040260200160405190810160405280929190818152602001828054612067906152fd565b80156120b25780601f10612089576101008083540402835291602001916120b2565b820191905f5260205f20905b81548152906001019060200180831161209557829003601f168201915b505050505082612f1290919063ffffffff16565b5f8484905011156120f1576120f08484906120e19190615b3e565b82612f2290919063ffffffff16565b5b61212a6120fd82612f69565b86620493e07f66756e2d657468657265756d2d7365706f6c69612d31000000000000000000005f1b613374565b6003819055506003549150509392505050565b60015f9054906101000a900473ffffffffffffffffffffffffffffffffffffffff1673ffffffffffffffffffffffffffffffffffffffff163373ffffffffffffffffffffffffffffffffffffffff16146121cc576040517f08c379a00000000000000000000000000000000000000000000000000000000081526004016121c390615b9c565b60405180910390fd5b5f5f5f9054906101000a900473ffffffffffffffffffffffffffffffffffffffff169050335f5f6101000a81548173ffffffffffffffffffffffffffffffffffffffff021916908373ffffffffffffffffffffffffffffffffffffffff1602179055505f60015f6101000a81548173ffffffffffffffffffffffffffffffffffffffff021916908373ffffffffffffffffffffffffffffffffffffffff1602179055503373ffffffffffffffffffffffffffffffffffffffff168173ffffffffffffffffffffffffffffffffffffffff167f8be0079c531659141344cd1fd0a4f28419497f9722a3daafe3b4186f6b6457e060405160405180910390a350565b600e5481565b5f5f5f9054906101000a900473ffffffffffffffffffffffffffffffffffffffff16905090565b60605f5f60135f8581526020019081526020015f20604051806101400160405290815f8201548152602001600182015f9054906101000a900473ffffffffffffffffffffffffffffffffffffffff1673ffffffffffffffffffffffffffffffffffffffff1673ffffffffffffffffffffffffffffffffffffffff16815260200160028201548152602001600382015f9054906101000a900473ffffffffffffffffffffffffffffffffffffffff1673ffffffffffffffffffffffffffffffffffffffff1673ffffffffffffffffffffffffffffffffffffffff168152602001600482015481526020016005820154815260200160068201548152602001600782015f9054906101000a900460ff1615151515815260200160088201805461241f906152fd565b80601f016020809104026020016040519081016040528092919081815260200182805461244b906152fd565b80156124965780601f1061246d57610100808354040283529160200191612496565b820191905f5260205f20905b81548152906001019060200180831161247957829003601f168201915b50505050508152602001600982015f9054906101000a900460ff161515151581525050905080610100015192505f835111156124fa576017836040516124dc9190615bea565b90815260200160405180910390205f9054906101000a900460ff1691505b50915091565b5f5f61250a612ca3565b9050805f015f8581526020019081526020015f205f015f8473ffffffffffffffffffffffffffffffffffffffff1673ffffffffffffffffffffffffffffffffffffffff1681526020019081526020015f205f9054906101000a900460ff1691505092915050565b60105481565b5f5f1b81565b5f612586613855565b90505f815f0160089054906101000a900460ff161590505f825f015f9054906101000a900467ffffffffffffffff1690505f5f8267ffffffffffffffff161480156125ce5750825b90505f60018367ffffffffffffffff1614801561260157505f3073ffffffffffffffffffffffffffffffffffffffff163b145b90508115801561260f575080155b15612646576040517ff92ee8a900000000000000000000000000000000000000000000000000000000815260040160405180910390fd5b6001855f015f6101000a81548167ffffffffffffffff021916908367ffffffffffffffff1602179055508315612693576001855f0160086101000a81548160ff0219169083151502179055505b5f73ffffffffffffffffffffffffffffffffffffffff168b73ffffffffffffffffffffffffffffffffffffffff16036126f8576040517fd92e233d00000000000000000000000000000000000000000000000000000000815260040160405180910390fd5b6103e88a1115612734576040517f8a81d3b300000000000000000000000000000000000000000000000000000000815260040160405180910390fd5b5f8914806127425750888811155b15612779576040517f7616640100000000000000000000000000000000000000000000000000000000815260040160405180910390fd5b612781613868565b6127896138e9565b6127916138fb565b61279a87613905565b6127a333613948565b8a600f5f6101000a81548173ffffffffffffffffffffffffffffffffffffffff021916908373ffffffffffffffffffffffffffffffffffffffff16021790555089600e8190555088601081905550876011819055508560125f6101000a81548167ffffffffffffffff021916908367ffffffffffffffff160217905550831561287a575f855f0160086101000a81548160ff0219169083151502179055507fc7f505b2f371ae2175ee4913f4499e1f2633a7b5936321eed1cdaeb6115181d260016040516128719190615c39565b60405180910390a15b5050505050505050505050565b5f6128906139f8565b905090565b6040518060400160405280600581526020017f352e302e3000000000000000000000000000000000000000000000000000000081525081565b6007818051602081018201805184825260208301602085012081835280955050505050505f915054906101000a900460ff1681565b60035481565b6015602052805f5260405f205f915054906101000a900460ff1681565b5f612931600d613567565b905090565b61293f82610c60565b61294881612cca565b612952838361345b565b50505050565b60115481565b612966612e82565b61296f81613a4b565b50565b6008805461297f906152fd565b80601f01602080910402602001604051908101604052809291908181526020018280546129ab906152fd565b80156129f65780601f106129cd576101008083540402835291602001916129f6565b820191905f5260205f20905b8154815290600101906020018083116129d957829003601f168201915b505050505081565b5f7f01ffc9a7000000000000000000000000000000000000000000000000000000007bffffffffffffffffffffffffffffffffffffffffffffffffffffffff1916827bffffffffffffffffffffffffffffffffffffffffffffffffffffffff1916149050919050565b6003548314612aad57826040517fd068bf5b000000000000000000000000000000000000000000000000000000008152600401612aa49190614bdc565b60405180910390fd5b8160049081612abc9190615caa565b508060059081612acc9190615caa565b505f60088054612adb906152fd565b90501115612c2d575f8151148015612af557506020825110155b15612bca575f82806020019051810190612b0f9190615d8d565b90505f5f821190508060076008604051612b2991906153c9565b90815260200160405180910390205f6101000a81548160ff0219169083151502179055508060095f6101000a81548160ff021916908315150217905550847f99f873583fde66fffee5947d1fa2f03d1cf170fc1c8e52e588cf4284767338676008838787604051612b9d9493929190615db8565b60405180910390a260405180602001604052805f81525060089081612bc29190615904565b505050612c28565b827f99f873583fde66fffee5947d1fa2f03d1cf170fc1c8e52e588cf42847673386760085f8585604051612c019493929190615db8565b60405180910390a260405180602001604052805f81525060089081612c269190615904565b505b612c9e565b5f8151148015612c3f57506020825110155b15612c5f5781806020019051810190612c589190615d8d565b6006819055505b827ffc03b1503acd478faf9c08107596f6d5c04b4591fea84f8d6f21bdf613b5370e6006548484604051612c9593929190615e10565b60405180910390a25b505050565b5f7f02dd7bc7dec4dceedda775e58dd541e08a116c6c53815c0bd028192f7b626800905090565b612cdb81612cd6613454565b613b76565b50565b5f5f612ce8612ca3565b9050612cf48484612500565b612dcb576001815f015f8681526020019081526020015f205f015f8573ffffffffffffffffffffffffffffffffffffffff1673ffffffffffffffffffffffffffffffffffffffff1681526020019081526020015f205f6101000a81548160ff021916908315150217905550612d67613454565b73ffffffffffffffffffffffffffffffffffffffff168373ffffffffffffffffffffffffffffffffffffffff16857f2f8788117e7eff1d82e926ec794901d17c78024a50270940304540a733656f0d60405160405180910390a46001915050612dd0565b5f9150505b92915050565b612dde611ff2565b15612e15576040517fd93c066500000000000000000000000000000000000000000000000000000000815260040160405180910390fd5b565b5f612e20613bc7565b90506002815f015403612e5f576040517f3ee5aeb500000000000000000000000000000000000000000000000000000000815260040160405180910390fd5b6002815f018190555050565b5f612e74613bc7565b90506001815f018190555050565b5f5f9054906101000a900473ffffffffffffffffffffffffffffffffffffffff1673ffffffffffffffffffffffffffffffffffffffff163373ffffffffffffffffffffffffffffffffffffffff1614612f10576040517f08c379a0000000000000000000000000000000000000000000000000000000008152600401612f0790615e9d565b60405180910390fd5b565b612f1e825f5f84613bee565b5050565b5f815103612f5c576040517ffe936cb700000000000000000000000000000000000000000000000000000000815260040160405180910390fd5b808260a001819052505050565b60605f612f77610100613c94565b9050612fc16040518060400160405280600c81526020017f636f64654c6f636174696f6e000000000000000000000000000000000000000081525082613cb990919063ffffffff16565b612fe9835f01516002811115612fda57612fd9615076565b5b82613ce190919063ffffffff16565b6130316040518060400160405280600881526020017f6c616e677561676500000000000000000000000000000000000000000000000081525082613cb990919063ffffffff16565b61305983604001515f81111561304a57613049615076565b5b82613ce190919063ffffffff16565b6130a16040518060400160405280600681526020017f736f75726365000000000000000000000000000000000000000000000000000081525082613cb990919063ffffffff16565b6130b8836060015182613cb990919063ffffffff16565b5f8360a0015151111561316f5761310d6040518060400160405280600481526020017f617267730000000000000000000000000000000000000000000000000000000081525082613cb990919063ffffffff16565b61311681613d30565b5f5f90505b8360a0015151811015613164576131598460a001518281518110613142576131416154dc565b5b602002602001015183613cb990919063ffffffff16565b80600101905061311b565b5061316e81613d58565b5b5f83608001515111156132ae575f600281111561318f5761318e615076565b5b836020015160028111156131a6576131a5615076565b5b036131dd576040517fa80d31f700000000000000000000000000000000000000000000000000000000815260040160405180910390fd5b6132256040518060400160405280600f81526020017f736563726574734c6f636174696f6e000000000000000000000000000000000081525082613cb990919063ffffffff16565b61324e8360200151600281111561323f5761323e615076565b5b82613ce190919063ffffffff16565b6132966040518060400160405280600781526020017f736563726574730000000000000000000000000000000000000000000000000081525082613cb990919063ffffffff16565b6132ad836080015182613d8090919063ffffffff16565b5b5f8360c00151511115613365576133036040518060400160405280600981526020017f627974657341726773000000000000000000000000000000000000000000000081525082613cb990919063ffffffff16565b61330c81613d30565b5f5f90505b8360c001515181101561335a5761334f8460c001518281518110613338576133376154dc565b5b602002602001015183613d8090919063ffffffff16565b806001019050613311565b5061336481613d58565b5b805f01515f0151915050919050565b5f5f60025f9054906101000a900473ffffffffffffffffffffffffffffffffffffffff1673ffffffffffffffffffffffffffffffffffffffff1663461d27628688600188886040518663ffffffff1660e01b81526004016133d9959493929190615ef5565b6020604051808303815f875af11580156133f5573d5f5f3e3d5ffd5b505050506040513d601f19601f820116820180604052508101906134199190615f61565b9050807f1131472297a800fee664d1d89cfa8f7676ff07189ecc53f80bbb5f4969099db860405160405180910390a280915050949350505050565b5f33905090565b5f5f613465612ca3565b90506134718484612500565b15613548575f815f015f8681526020019081526020015f205f015f8573ffffffffffffffffffffffffffffffffffffffff1673ffffffffffffffffffffffffffffffffffffffff1681526020019081526020015f205f6101000a81548160ff0219169083151502179055506134e4613454565b73ffffffffffffffffffffffffffffffffffffffff168373ffffffffffffffffffffffffffffffffffffffff16857ff6391f5c32d9c69d2a47ea670b442974b53935d1edc7fd64eb21e047a839171b60405160405180910390a4600191505061354d565b5f9150505b92915050565b6001815f015f828254019250508190555050565b5f815f01549050919050565b7f000000000000000000000000000000000000000000000000000000000000000073ffffffffffffffffffffffffffffffffffffffff163073ffffffffffffffffffffffffffffffffffffffff16148061362057507f000000000000000000000000000000000000000000000000000000000000000073ffffffffffffffffffffffffffffffffffffffff166136076139f8565b73ffffffffffffffffffffffffffffffffffffffff1614155b15613657576040517fe07c8dba00000000000000000000000000000000000000000000000000000000815260040160405180910390fd5b565b7fa615a8afb6fffcb8c6809ac0997b5c9c12b8cc97651150f14c8f6203168cff4c5f1b61368581612cca565b5050565b8173ffffffffffffffffffffffffffffffffffffffff166352d1902d6040518163ffffffff1660e01b8152600401602060405180830381865afa9250505080156136f157506040513d601f19601f820116820180604052508101906136ee9190615f61565b60015b61373257816040517f4c9c8ce30000000000000000000000000000000000000000000000000000000081526004016137299190614dc2565b60405180910390fd5b7f360894a13ba1a3210667c828492db98dca3e2076cc3735a920a3ca505d382bbc5f1b811461379857806040517faa1d49a400000000000000000000000000000000000000000000000000000000815260040161378f9190614bdc565b60405180910390fd5b6137a28383613da8565b505050565b7f000000000000000000000000000000000000000000000000000000000000000073ffffffffffffffffffffffffffffffffffffffff163073ffffffffffffffffffffffffffffffffffffffff161461382c576040517fe07c8dba00000000000000000000000000000000000000000000000000000000815260040160405180910390fd5b565b5f7fcd5ed15c6e187e77e9aee88184c21f4f2182ab5827cb3b7e07fbedcd63f03300905090565b5f5f61385f613e1a565b90508091505090565b613870613e43565b613878613e83565b613880613e8d565b61388c5f5f1b33612cde565b506138b97fa615a8afb6fffcb8c6809ac0997b5c9c12b8cc97651150f14c8f6203168cff4c5f1b33612cde565b506138e67faf290d8680820aad922855f39b306097b20e28774d6c1ad35a20325630c3a02c5f1b33612cde565b50565b6138f1613e43565b6138f9613e97565b565b613903613e43565b565b8060025f6101000a81548173ffffffffffffffffffffffffffffffffffffffff021916908373ffffffffffffffffffffffffffffffffffffffff16021790555050565b5f73ffffffffffffffffffffffffffffffffffffffff168173ffffffffffffffffffffffffffffffffffffffff16036139b6576040517f08c379a00000000000000000000000000000000000000000000000000000000081526004016139ad90615fd6565b60405180910390fd5b805f5f6101000a81548173ffffffffffffffffffffffffffffffffffffffff021916908373ffffffffffffffffffffffffffffffffffffffff16021790555050565b5f613a247f360894a13ba1a3210667c828492db98dca3e2076cc3735a920a3ca505d382bbc5f1b613eb6565b5f015f9054906101000a900473ffffffffffffffffffffffffffffffffffffffff16905090565b3373ffffffffffffffffffffffffffffffffffffffff168173ffffffffffffffffffffffffffffffffffffffff1603613ab9576040517f08c379a0000000000000000000000000000000000000000000000000000000008152600401613ab09061603e565b60405180910390fd5b8060015f6101000a81548173ffffffffffffffffffffffffffffffffffffffff021916908373ffffffffffffffffffffffffffffffffffffffff1602179055508073ffffffffffffffffffffffffffffffffffffffff165f5f9054906101000a900473ffffffffffffffffffffffffffffffffffffffff1673ffffffffffffffffffffffffffffffffffffffff167fed8889f560326eb138920d842192f0eb3dd22b4f139c87a2c57538e05bae127860405160405180910390a350565b613b808282612500565b613bc35780826040517fe2517d3f000000000000000000000000000000000000000000000000000000008152600401613bba92919061605c565b60405180910390fd5b5050565b5f7f9b779b17422d0df92223018b32b4d1fa46e071723d6817e2486d003becc55f00905090565b5f815103613c28576040517f22ce3edd00000000000000000000000000000000000000000000000000000000815260040160405180910390fd5b82845f01906002811115613c3f57613c3e615076565b5b90816002811115613c5357613c52615076565b5b815250508184604001905f811115613c6e57613c6d615076565b5b90815f811115613c8157613c80615076565b5b8152505080846060018190525050505050565b613c9c614662565b613ca9815f015183613ebf565b505f816020018181525050919050565b613cc68260038351613f35565b613cdc81835f01516140d590919063ffffffff16565b505050565b613d0260026005600660ff16901b17835f01516140f190919063ffffffff16565b50613d2c8282604051602001613d189190614f63565b604051602081830303815290604052613d80565b5050565b613d3b816004614158565b600181602001818151613d4e91906158d1565b9150818152505050565b613d63816007614158565b600181602001818151613d769190616083565b9150818152505050565b613d8d8260028351613f35565b613da381835f01516140d590919063ffffffff16565b505050565b613db18261417d565b8173ffffffffffffffffffffffffffffffffffffffff167fbc7cd75a20ee27fd9adebab32041f755214dbc6bffa90cc0225b39da2e5c2d3b60405160405180910390a25f81511115613e0d57613e078282614246565b50613e16565b613e156142c6565b5b5050565b5f7ff0c57e16840df040f15088dc2f81fe391c3923bec73e23a9662efc9c229c6a005f1b905090565b613e4b614302565b613e81576040517fd7e6bcf800000000000000000000000000000000000000000000000000000000815260040160405180910390fd5b565b613e8b613e43565b565b613e95613e43565b565b613e9f613e43565b5f613ea8613bc7565b90506001815f018190555050565b5f819050919050565b613ec7614681565b5f602083613ed591906160e3565b14613f0157602082613ee791906160e3565b6020613ef39190616083565b82613efe91906158d1565b91505b818360200181815250506040518084525f815282810160200181811015613f26575f5ffd5b80604052505082905092915050565b60178167ffffffffffffffff1611613f6f57613f698160058460ff16901b60ff1617845f01516140f190919063ffffffff16565b506140d0565b60ff8167ffffffffffffffff1611613fcb57613fa1601860058460ff16901b17845f01516140f190919063ffffffff16565b50613fc58167ffffffffffffffff166001855f01516143209092919063ffffffff16565b506140cf565b61ffff8167ffffffffffffffff161161402857613ffe601960058460ff16901b17845f01516140f190919063ffffffff16565b506140228167ffffffffffffffff166002855f01516143209092919063ffffffff16565b506140ce565b63ffffffff8167ffffffffffffffff16116140875761405d601a60058460ff16901b17845f01516140f190919063ffffffff16565b506140818167ffffffffffffffff166004855f01516143209092919063ffffffff16565b506140cd565b6140a7601b60058460ff16901b17845f01516140f190919063ffffffff16565b506140cb8167ffffffffffffffff166008855f01516143209092919063ffffffff16565b505b5b5b5b505050565b6140dd614681565b6140e9838384516143a9565b905092915050565b6140f9614681565b5f835f01515190505f60018261410f91906158d1565b905084602001518210614133576141328560028361412d9190616113565b614486565b5b8451602083820101858153815183111561414b578282525b5050849250505092915050565b614178601f60058360ff16901b17835f01516140f190919063ffffffff16565b505050565b5f8173ffffffffffffffffffffffffffffffffffffffff163b036141d857806040517f4c9c8ce30000000000000000000000000000000000000000000000000000000081526004016141cf9190614dc2565b60405180910390fd5b806142047f360894a13ba1a3210667c828492db98dca3e2076cc3735a920a3ca505d382bbc5f1b613eb6565b5f015f6101000a81548173ffffffffffffffffffffffffffffffffffffffff021916908373ffffffffffffffffffffffffffffffffffffffff16021790555050565b60605f5f8473ffffffffffffffffffffffffffffffffffffffff168460405161426f919061618e565b5f60405180830381855af49150503d805f81146142a7576040519150601f19603f3d011682016040523d82523d5f602084013e6142ac565b606091505b50915091506142bc8583836144a8565b9250505092915050565b5f341115614300576040517fb398979f00000000000000000000000000000000000000000000000000000000815260040160405180910390fd5b565b5f61430b613855565b5f0160089054906101000a900460ff16905090565b614328614681565b5f845f01515190505f818461433d91906158d1565b90508560200151811115614362576143618660028361435c9190616113565b614486565b5b5f60018561010061437391906162d3565b61437d9190616083565b90508651828101878319825116178152815184111561439a578382525b50508693505050509392505050565b6143b1614681565b82518211156143be575f5ffd5b5f845f01515190505f83826143d391906158d1565b905085602001518111156143f8576143f7866002836143f29190616113565b614486565b5b5f5f87518051856020830101935080851115614412578482525b60208901925050505b60208610614459578051825260208261443491906158d1565b915060208161444391906158d1565b90506020866144529190616083565b955061441b565b5f6001876020036101000a0390508019825116818451168181178552505050879450505050509392505050565b5f825f015190506144978383613ebf565b506144a283826140d5565b50505050565b6060826144bd576144b882614535565b61452d565b5f82511480156144e357505f8473ffffffffffffffffffffffffffffffffffffffff163b145b1561452557836040517f9996b31500000000000000000000000000000000000000000000000000000000815260040161451c9190614dc2565b60405180910390fd5b81905061452e565b5b9392505050565b5f815111156145475780518082602001fd5b6040517fd6bda27500000000000000000000000000000000000000000000000000000000815260040160405180910390fd5b6040518061014001604052805f81526020015f73ffffffffffffffffffffffffffffffffffffffff1681526020015f81526020015f73ffffffffffffffffffffffffffffffffffffffff1681526020015f81526020015f81526020015f81526020015f15158152602001606081526020015f151581525090565b6040518060e001604052805f600281111561461157614610615076565b5b81526020015f600281111561462957614628615076565b5b81526020015f5f8111156146405761463f615076565b5b8152602001606081526020016060815260200160608152602001606081525090565b6040518060400160405280614675614681565b81526020015f81525090565b6040518060400160405280606081526020015f81525090565b5f8115159050919050565b6146ae8161469a565b82525050565b5f6020820190506146c75f8301846146a5565b92915050565b5f604051905090565b5f5ffd5b5f5ffd5b5f7fffffffff0000000000000000000000000000000000000000000000000000000082169050919050565b614712816146de565b811461471c575f5ffd5b50565b5f8135905061472d81614709565b92915050565b5f60208284031215614748576147476146d6565b5b5f6147558482850161471f565b91505092915050565b5f67ffffffffffffffff82169050919050565b61477a8161475e565b82525050565b5f6020820190506147935f830184614771565b92915050565b5f819050919050565b6147ab81614799565b81146147b5575f5ffd5b50565b5f813590506147c6816147a2565b92915050565b5f5ffd5b5f5ffd5b5f601f19601f8301169050919050565b7f4e487b71000000000000000000000000000000000000000000000000000000005f52604160045260245ffd5b61481a826147d4565b810181811067ffffffffffffffff82111715614839576148386147e4565b5b80604052505050565b5f61484b6146cd565b90506148578282614811565b919050565b5f67ffffffffffffffff821115614876576148756147e4565b5b61487f826147d4565b9050602081019050919050565b828183375f83830152505050565b5f6148ac6148a78461485c565b614842565b9050828152602081018484840111156148c8576148c76147d0565b5b6148d384828561488c565b509392505050565b5f82601f8301126148ef576148ee6147cc565b5b81356148ff84826020860161489a565b91505092915050565b5f5f5f6060848603121561491f5761491e6146d6565b5b5f61492c868287016147b8565b935050602084013567ffffffffffffffff81111561494d5761494c6146da565b5b614959868287016148db565b925050604084013567ffffffffffffffff81111561497a576149796146da565b5b614986868287016148db565b9150509250925092565b5f819050919050565b6149a281614990565b81146149ac575f5ffd5b50565b5f813590506149bd81614999565b92915050565b5f602082840312156149d8576149d76146d6565b5b5f6149e5848285016149af565b91505092915050565b6149f781614990565b82525050565b5f73ffffffffffffffffffffffffffffffffffffffff82169050919050565b5f614a26826149fd565b9050919050565b614a3681614a1c565b82525050565b614a458161469a565b82525050565b5f81519050919050565b5f82825260208201905092915050565b8281835e5f83830152505050565b5f614a7d82614a4b565b614a878185614a55565b9350614a97818560208601614a65565b614aa0816147d4565b840191505092915050565b5f61014083015f830151614ac15f8601826149ee565b506020830151614ad46020860182614a2d565b506040830151614ae760408601826149ee565b506060830151614afa6060860182614a2d565b506080830151614b0d60808601826149ee565b5060a0830151614b2060a08601826149ee565b5060c0830151614b3360c08601826149ee565b5060e0830151614b4660e0860182614a3c565b50610100830151848203610100860152614b608282614a73565b915050610120830151614b77610120860182614a3c565b508091505092915050565b5f6020820190508181035f830152614b9a8184614aab565b905092915050565b5f60208284031215614bb757614bb66146d6565b5b5f614bc4848285016147b8565b91505092915050565b614bd681614799565b82525050565b5f602082019050614bef5f830184614bcd565b92915050565b614bfe81614a1c565b8114614c08575f5ffd5b50565b5f81359050614c1981614bf5565b92915050565b5f5f60408385031215614c3557614c346146d6565b5b5f614c42858286016147b8565b9250506020614c5385828601614c0b565b9150509250929050565b614c668161475e565b8114614c70575f5ffd5b50565b5f81359050614c8181614c5d565b92915050565b5f5ffd5b5f5ffd5b5f5f83601f840112614ca457614ca36147cc565b5b8235905067ffffffffffffffff811115614cc157614cc0614c87565b5b602083019150836001820283011115614cdd57614cdc614c8b565b5b9250929050565b5f5f5f60408486031215614cfb57614cfa6146d6565b5b5f614d0886828701614c73565b935050602084013567ffffffffffffffff811115614d2957614d286146da565b5b614d3586828701614c8f565b92509250509250925092565b5f81519050919050565b5f82825260208201905092915050565b5f614d6582614d41565b614d6f8185614d4b565b9350614d7f818560208601614a65565b614d88816147d4565b840191505092915050565b5f6020820190508181035f830152614dab8184614d5b565b905092915050565b614dbc81614a1c565b82525050565b5f602082019050614dd55f830184614db3565b92915050565b5f5f5f5f5f5f60a08789031215614df557614df46146d6565b5b5f614e0289828a01614c0b565b9650506020614e1389828a016149af565b9550506040614e2489828a016149af565b9450506060614e3589828a016149af565b935050608087013567ffffffffffffffff811115614e5657614e556146da565b5b614e6289828a01614c8f565b92509250509295509295509295565b5f5f60408385031215614e8757614e866146d6565b5b5f614e9485828601614c0b565b925050602083013567ffffffffffffffff811115614eb557614eb46146da565b5b614ec1858286016148db565b9150509250929050565b5f5f60408385031215614ee157614ee06146d6565b5b5f614eee85828601614c0b565b9250506020614eff858286016149af565b9150509250929050565b5f5f60208385031215614f1f57614f1e6146d6565b5b5f83013567ffffffffffffffff811115614f3c57614f3b6146da565b5b614f4885828601614c8f565b92509250509250929050565b614f5d81614990565b82525050565b5f602082019050614f765f830184614f54565b92915050565b5f5f83601f840112614f9157614f906147cc565b5b8235905067ffffffffffffffff811115614fae57614fad614c87565b5b602083019150836020820283011115614fca57614fc9614c8b565b5b9250929050565b5f5f5f60408486031215614fe857614fe76146d6565b5b5f614ff586828701614c73565b935050602084013567ffffffffffffffff811115615016576150156146da565b5b61502286828701614f7c565b92509250509250925092565b5f82825260208201905092915050565b5f61504882614a4b565b615052818561502e565b9350615062818560208601614a65565b61506b816147d4565b840191505092915050565b7f4e487b71000000000000000000000000000000000000000000000000000000005f52602160045260245ffd5b600581106150b4576150b3615076565b5b50565b5f8190506150c4826150a3565b919050565b5f6150d3826150b7565b9050919050565b6150e3816150c9565b82525050565b5f6040820190508181035f830152615101818561503e565b905061511060208301846150da565b9392505050565b5f5f5f5f5f5f60c08789031215615131576151306146d6565b5b5f61513e89828a01614c0b565b965050602061514f89828a016149af565b955050604061516089828a016149af565b945050606061517189828a016149af565b935050608061518289828a01614c0b565b92505060a061519389828a01614c73565b9150509295509295509295565b5f6020820190508181035f8301526151b8818461503e565b905092915050565b5f67ffffffffffffffff8211156151da576151d96147e4565b5b6151e3826147d4565b9050602081019050919050565b5f6152026151fd846151c0565b614842565b90508281526020810184848401111561521e5761521d6147d0565b5b61522984828561488c565b509392505050565b5f82601f830112615245576152446147cc565b5b81356152558482602086016151f0565b91505092915050565b5f60208284031215615273576152726146d6565b5b5f82013567ffffffffffffffff8111156152905761528f6146da565b5b61529c84828501615231565b91505092915050565b5f602082840312156152ba576152b96146d6565b5b5f6152c784828501614c0b565b91505092915050565b7f4e487b71000000000000000000000000000000000000000000000000000000005f52602260045260245ffd5b5f600282049050600182168061531457607f821691505b602082108103615327576153266152d0565b5b50919050565b5f81905092915050565b5f819050815f5260205f209050919050565b5f8154615355816152fd565b61535f818661532d565b9450600182165f8114615379576001811461538e576153c0565b60ff19831686528115158202860193506153c0565b61539785615337565b5f5b838110156153b857815481890152600182019150602081019050615399565b838801955050505b50505092915050565b5f6153d48284615349565b915081905092915050565b5f81546153eb816152fd565b6153f5818661502e565b9450600182165f811461540f576001811461542557615457565b60ff198316865281151560200286019350615457565b61542e85615337565b5f5b8381101561544f57815481890152600182019150602081019050615430565b808801955050505b50505092915050565b5f6040820190508181035f83015261547881856153df565b905061548760208301846150da565b9392505050565b5f615499838561502e565b93506154a683858461488c565b6154af836147d4565b840190509392505050565b5f6020820190508181035f8301526154d381848661548e565b90509392505050565b7f4e487b71000000000000000000000000000000000000000000000000000000005f52603260045260245ffd5b5f82905092915050565b5f6020601f8301049050919050565b5f82821b905092915050565b5f6008830261555d7fffffffffffffffffffffffffffffffffffffffffffffffffffffffffffffffff82615522565b6155678683615522565b95508019841693508086168417925050509392505050565b5f819050919050565b5f6155a261559d61559884614990565b61557f565b614990565b9050919050565b5f819050919050565b6155bb83615588565b6155cf6155c7826155a9565b84845461552e565b825550505050565b5f5f905090565b6155e66155d7565b6155f18184846155b2565b505050565b5b81811015615614576156095f826155de565b6001810190506155f7565b5050565b601f8211156156595761562a81615337565b61563384615513565b81016020851015615642578190505b61565661564e85615513565b8301826155f6565b50505b505050565b5f82821c905092915050565b5f6156795f198460080261565e565b1980831691505092915050565b5f615691838361566a565b9150826002028217905092915050565b6156ab8383615509565b67ffffffffffffffff8111156156c4576156c36147e4565b5b6156ce82546152fd565b6156d9828285615618565b5f601f831160018114615706575f84156156f4578287013590505b6156fe8582615686565b865550615765565b601f19841661571486615337565b5f5b8281101561573b57848901358255600182019150602085019450602081019050615716565b868310156157585784890135615754601f89168261566a565b8355505b6001600288020188555050505b50505050505050565b5f615779838561532d565b935061578683858461488c565b82840190509392505050565b5f61579e82848661576e565b91508190509392505050565b5f815190506157b881614bf5565b92915050565b5f602082840312156157d3576157d26146d6565b5b5f6157e0848285016157aa565b91505092915050565b5f6040820190506157fc5f830185614db3565b6158096020830184614db3565b9392505050565b6158198161469a565b8114615823575f5ffd5b50565b5f8151905061583481615810565b92915050565b5f6020828403121561584f5761584e6146d6565b5b5f61585c84828501615826565b91505092915050565b5f8151905061587381614c5d565b92915050565b5f6020828403121561588e5761588d6146d6565b5b5f61589b84828501615865565b91505092915050565b7f4e487b71000000000000000000000000000000000000000000000000000000005f52601160045260245ffd5b5f6158db82614990565b91506158e683614990565b92508282019050808211156158fe576158fd6158a4565b5b92915050565b61590d82614a4b565b67ffffffffffffffff811115615926576159256147e4565b5b61593082546152fd565b61593b828285615618565b5f60209050601f83116001811461596c575f841561595a578287015190505b6159648582615686565b8655506159cb565b601f19841661597a86615337565b5f5b828110156159a15784890151825560018201915060208501945060208101905061597c565b868310156159be57848901516159ba601f89168261566a565b8355505b6001600288020188555050505b505050505050565b5f6040820190508181035f8301526159ec81858761548e565b90506159fb60208301846150da565b949350505050565b5f6040820190508181035f830152615a1c81858761548e565b9050615a2b6020830184614bcd565b949350505050565b5f60a082019050615a465f830189614db3565b615a536020830188614f54565b615a606040830187614f54565b615a6d6060830186614f54565b8181036080830152615a8081848661548e565b9050979650505050505050565b5f67ffffffffffffffff821115615aa757615aa66147e4565b5b602082029050602081019050919050565b5f615aca615ac584615a8d565b614842565b90508083825260208201905060208402830185811115615aed57615aec614c8b565b5b835b81811015615b3457803567ffffffffffffffff811115615b1257615b116147cc565b5b808601615b1f8982615231565b85526020850194505050602081019050615aef565b5050509392505050565b5f615b4a368484615ab8565b905092915050565b7f4d7573742062652070726f706f736564206f776e6572000000000000000000005f82015250565b5f615b8660168361502e565b9150615b9182615b52565b602082019050919050565b5f6020820190508181035f830152615bb381615b7a565b9050919050565b5f615bc482614a4b565b615bce818561532d565b9350615bde818560208601614a65565b80840191505092915050565b5f615bf58284615bba565b915081905092915050565b5f819050919050565b5f615c23615c1e615c1984615c00565b61557f565b61475e565b9050919050565b615c3381615c09565b82525050565b5f602082019050615c4c5f830184615c2a565b92915050565b5f819050815f5260205f209050919050565b601f821115615ca557615c7681615c52565b615c7f84615513565b81016020851015615c8e578190505b615ca2615c9a85615513565b8301826155f6565b50505b505050565b615cb382614d41565b67ffffffffffffffff811115615ccc57615ccb6147e4565b5b615cd682546152fd565b615ce1828285615c64565b5f60209050601f831160018114615d12575f8415615d00578287015190505b615d0a8582615686565b865550615d71565b601f198416615d2086615c52565b5f5b82811015615d4757848901518255600182019150602085019450602081019050615d22565b86831015615d645784890151615d60601f89168261566a565b8355505b6001600288020188555050505b505050505050565b5f81519050615d8781614999565b92915050565b5f60208284031215615da257615da16146d6565b5b5f615daf84828501615d79565b91505092915050565b5f6080820190508181035f830152615dd081876153df565b9050615ddf60208301866146a5565b8181036040830152615df18185614d5b565b90508181036060830152615e058184614d5b565b905095945050505050565b5f606082019050615e235f830186614f54565b8181036020830152615e358185614d5b565b90508181036040830152615e498184614d5b565b9050949350505050565b7f4f6e6c792063616c6c61626c65206279206f776e6572000000000000000000005f82015250565b5f615e8760168361502e565b9150615e9282615e53565b602082019050919050565b5f6020820190508181035f830152615eb481615e7b565b9050919050565b5f61ffff82169050919050565b615ed181615ebb565b82525050565b5f63ffffffff82169050919050565b615eef81615ed7565b82525050565b5f60a082019050615f085f830188614771565b8181036020830152615f1a8187614d5b565b9050615f296040830186615ec8565b615f366060830185615ee6565b615f436080830184614bcd565b9695505050505050565b5f81519050615f5b816147a2565b92915050565b5f60208284031215615f7657615f756146d6565b5b5f615f8384828501615f4d565b91505092915050565b7f43616e6e6f7420736574206f776e657220746f207a65726f00000000000000005f82015250565b5f615fc060188361502e565b9150615fcb82615f8c565b602082019050919050565b5f6020820190508181035f830152615fed81615fb4565b9050919050565b7f43616e6e6f74207472616e7366657220746f2073656c660000000000000000005f82015250565b5f61602860178361502e565b915061603382615ff4565b602082019050919050565b5f6020820190508181035f8301526160558161601c565b9050919050565b5f60408201905061606f5f830185614db3565b61607c6020830184614bcd565b9392505050565b5f61608d82614990565b915061609883614990565b92508282039050818111156160b0576160af6158a4565b5b92915050565b7f4e487b71000000000000000000000000000000000000000000000000000000005f52601260045260245ffd5b5f6160ed82614990565b91506160f883614990565b925082616108576161076160b6565b5b828206905092915050565b5f61611d82614990565b915061612883614990565b925082820261613681614990565b9150828204841483151761614d5761614c6158a4565b5b5092915050565b5f81905092915050565b5f61616882614d41565b6161728185616154565b9350616182818560208601614a65565b80840191505092915050565b5f616199828461615e565b915081905092915050565b5f8160011c9050919050565b5f5f8291508390505b60018511156161f9578086048111156161d5576161d46158a4565b5b60018516156161e45780820291505b80810290506161f2856161a4565b94506161b9565b94509492505050565b5f8261621157600190506162cc565b8161621e575f90506162cc565b8160018114616234576002811461623e5761626d565b60019150506162cc565b60ff8411156162505761624f6158a4565b5b8360020a915084821115616267576162666158a4565b5b506162cc565b5060208310610133831016604e8410600b84101617156162a25782820a90508381111561629d5761629c6158a4565b5b6162cc565b6162af84848460016161b0565b925090508184048111156162c6576162c56158a4565b5b81810290505b9392505050565b5f6162dd82614990565b91506162e883614990565b92506163157fffffffffffffffffffffffffffffffffffffffffffffffffffffffffffffffff8484616202565b90509291505056fea2646970667358221220b28e80f154dacec2e22b05fe644c2a0144b3e70de0f070d3d51c43012f7d4ebf64736f6c634300081e0033636f6e7374207469636b65744964203d20617267735b305d3b636f6e73742075726c203d202768747470733a2f2f3638343163663361643438353136643164333563663731632e6d6f636b6170692e696f2f7665726966797469636b6574732f27202b207469636b657449643b636f6e737420726573706f6e7365203d2061776169742046756e6374696f6e732e6d616b654874747052657175657374287b2075726c207d293b69662028726573706f6e73652e6572726f7229207b207468726f77204572726f72282752657175657374206661696c656427293b207d636f6e73742064617461203d20726573706f6e73652e646174613b696620282164617461207c7c20747970656f66206461746120213d3d20276f626a6563742729207468726f77204572726f7228605469636b657420494420247b7469636b657449647d206e6f7420666f756e64206f7220696e76616c696460293b636f6e737420697355736564203d20646174612e75736564203d3d3d20747275653b72657475726e2046756e6374696f6e732e656e636f646555696e7432353628697355736564203f2031203a2030293b636f6e7374206576656e744964203d20617267735b305d3b636f6e73742075726c203d202768747470733a2f2f3638343163663361643438353136643164333563663731632e6d6f636b6170692e696f2f7469636b6574732f27202b206576656e7449643b636f6e737420726573706f6e7365203d2061776169742046756e6374696f6e732e6d616b654874747052657175657374287b2075726c207d293b69662028726573706f6e73652e6572726f7229207b207468726f77204572726f72282752657175657374206661696c656427293b207d636f6e73742064617461203d20726573706f6e73652e646174613b696620282164617461207c7c20747970656f66206461746120213d3d20276f626a6563742729207468726f77204572726f722860496e76616c696420726573706f6e736560293b636f6e73742072617752656d61696e696e67203d20646174612e72656d61696e696e673b636f6e737420617661696c61626c65203d204e756d6265722872617752656d61696e696e67293b69662028214e756d6265722e697346696e69746528617661696c61626c652929207468726f77204572726f722860496e76616c6964207469636b657420636f756e743a20247b72617752656d61696e696e677d60293b72657475726e2046756e6374696f6e732e656e636f646555696e7432353628617661696c61626c65293b",
			"opcodes": "PUSH1 0xA0 PUSH1 0x40 MSTORE ADDRESS PUSH20 0xFFFFFFFFFFFFFFFFFFFFFFFFFFFFFFFFFFFFFFFF AND PUSH1 0x80 SWAP1 PUSH20 0xFFFFFFFFFFFFFFFFFFFFFFFFFFFFFFFFFFFFFFFF AND DUP2 MSTORE POP PUSH1 0x40 MLOAD DUP1 PUSH2 0x240 ADD PUSH1 0x40 MSTORE DUP1 PUSH2 0x202 DUP2 MSTORE PUSH1 0x20 ADD PUSH2 0x6A56 PUSH2 0x202 SWAP2 CODECOPY PUSH1 0xB SWAP1 DUP2 PUSH2 0x61 SWAP2 SWAP1 PUSH2 0x429 JUMP JUMPDEST POP PUSH1 0x40 MLOAD DUP1 PUSH2 0x1E0 ADD PUSH1 0x40 MSTORE DUP1 PUSH2 0x1AA DUP2 MSTORE PUSH1 0x20 ADD PUSH2 0x68AC PUSH2 0x1AA SWAP2 CODECOPY PUSH1 0xC SWAP1 DUP2 PUSH2 0x8C SWAP2 SWAP1 PUSH2 0x429 JUMP JUMPDEST POP CALLVALUE DUP1 ISZERO PUSH2 0x98 JUMPI PUSH0 PUSH0 REVERT JUMPDEST POP PUSH2 0xA7 PUSH2 0xAC PUSH1 0x20 SHL PUSH1 0x20 SHR JUMP JUMPDEST PUSH2 0x533 JUMP JUMPDEST PUSH0 PUSH2 0xBB PUSH2 0x1AA PUSH1 0x20 SHL PUSH1 0x20 SHR JUMP JUMPDEST SWAP1 POP DUP1 PUSH0 ADD PUSH1 0x8 SWAP1 SLOAD SWAP1 PUSH2 0x100 EXP SWAP1 DIV PUSH1 0xFF AND ISZERO PUSH2 0x105 JUMPI PUSH1 0x40 MLOAD PUSH32 0xF92EE8A900000000000000000000000000000000000000000000000000000000 DUP2 MSTORE PUSH1 0x4 ADD PUSH1 0x40 MLOAD DUP1 SWAP2 SUB SWAP1 REVERT JUMPDEST PUSH8 0xFFFFFFFFFFFFFFFF DUP1 AND DUP2 PUSH0 ADD PUSH0 SWAP1 SLOAD SWAP1 PUSH2 0x100 EXP SWAP1 DIV PUSH8 0xFFFFFFFFFFFFFFFF AND PUSH8 0xFFFFFFFFFFFFFFFF AND EQ PUSH2 0x1A7 JUMPI PUSH8 0xFFFFFFFFFFFFFFFF DUP2 PUSH0 ADD PUSH0 PUSH2 0x100 EXP DUP2 SLOAD DUP2 PUSH8 0xFFFFFFFFFFFFFFFF MUL NOT AND SWAP1 DUP4 PUSH8 0xFFFFFFFFFFFFFFFF AND MUL OR SWAP1 SSTORE POP PUSH32 0xC7F505B2F371AE2175EE4913F4499E1F2633A7B5936321EED1CDAEB6115181D2 PUSH8 0xFFFFFFFFFFFFFFFF PUSH1 0x40 MLOAD PUSH2 0x19E SWAP2 SWAP1 PUSH2 0x51A JUMP JUMPDEST PUSH1 0x40 MLOAD DUP1 SWAP2 SUB SWAP1 LOG1 JUMPDEST POP JUMP JUMPDEST PUSH0 PUSH0 PUSH2 0x1BA PUSH2 0x1C3 PUSH1 0x20 SHL PUSH1 0x20 SHR JUMP JUMPDEST SWAP1 POP DUP1 SWAP2 POP POP SWAP1 JUMP JUMPDEST PUSH0 PUSH32 0xF0C57E16840DF040F15088DC2F81FE391C3923BEC73E23A9662EFC9C229C6A00 PUSH0 SHL SWAP1 POP SWAP1 JUMP JUMPDEST PUSH0 DUP2 MLOAD SWAP1 POP SWAP2 SWAP1 POP JUMP JUMPDEST PUSH32 0x4E487B7100000000000000000000000000000000000000000000000000000000 PUSH0 MSTORE PUSH1 0x41 PUSH1 0x4 MSTORE PUSH1 0x24 PUSH0 REVERT JUMPDEST PUSH32 0x4E487B7100000000000000000000000000000000000000000000000000000000 PUSH0 MSTORE PUSH1 0x22 PUSH1 0x4 MSTORE PUSH1 0x24 PUSH0 REVERT JUMPDEST PUSH0 PUSH1 0x2 DUP3 DIV SWAP1 POP PUSH1 0x1 DUP3 AND DUP1 PUSH2 0x267 JUMPI PUSH1 0x7F DUP3 AND SWAP2 POP JUMPDEST PUSH1 0x20 DUP3 LT DUP2 SUB PUSH2 0x27A JUMPI PUSH2 0x279 PUSH2 0x223 JUMP JUMPDEST JUMPDEST POP SWAP2 SWAP1 POP JUMP JUMPDEST PUSH0 DUP2 SWAP1 POP DUP2 PUSH0 MSTORE PUSH1 0x20 PUSH0 KECCAK256 SWAP1 POP SWAP2 SWAP1 POP JUMP JUMPDEST PUSH0 PUSH1 0x20 PUSH1 0x1F DUP4 ADD DIV SWAP1 POP SWAP2 SWAP1 POP JUMP JUMPDEST PUSH0 DUP3 DUP3 SHL SWAP1 POP SWAP3 SWAP2 POP POP JUMP JUMPDEST PUSH0 PUSH1 0x8 DUP4 MUL PUSH2 0x2DC PUSH32 0xFFFFFFFFFFFFFFFFFFFFFFFFFFFFFFFFFFFFFFFFFFFFFFFFFFFFFFFFFFFFFFFF DUP3 PUSH2 0x2A1 JUMP JUMPDEST PUSH2 0x2E6 DUP7 DUP4 PUSH2 0x2A1 JUMP JUMPDEST SWAP6 POP DUP1 NOT DUP5 AND SWAP4 POP DUP1 DUP7 AND DUP5 OR SWAP3 POP POP POP SWAP4 SWAP3 POP POP POP JUMP JUMPDEST PUSH0 DUP2 SWAP1 POP SWAP2 SWAP1 POP JUMP JUMPDEST PUSH0 DUP2 SWAP1 POP SWAP2 SWAP1 POP JUMP JUMPDEST PUSH0 PUSH2 0x32A PUSH2 0x325 PUSH2 0x320 DUP5 PUSH2 0x2FE JUMP JUMPDEST PUSH2 0x307 JUMP JUMPDEST PUSH2 0x2FE JUMP JUMPDEST SWAP1 POP SWAP2 SWAP1 POP JUMP JUMPDEST PUSH0 DUP2 SWAP1 POP SWAP2 SWAP1 POP JUMP JUMPDEST PUSH2 0x343 DUP4 PUSH2 0x310 JUMP JUMPDEST PUSH2 0x357 PUSH2 0x34F DUP3 PUSH2 0x331 JUMP JUMPDEST DUP5 DUP5 SLOAD PUSH2 0x2AD JUMP JUMPDEST DUP3 SSTORE POP POP POP POP JUMP JUMPDEST PUSH0 PUSH0 SWAP1 POP SWAP1 JUMP JUMPDEST PUSH2 0x36E PUSH2 0x35F JUMP JUMPDEST PUSH2 0x379 DUP2 DUP5 DUP5 PUSH2 0x33A JUMP JUMPDEST POP POP POP JUMP JUMPDEST JUMPDEST DUP2 DUP2 LT ISZERO PUSH2 0x39C JUMPI PUSH2 0x391 PUSH0 DUP3 PUSH2 0x366 JUMP JUMPDEST PUSH1 0x1 DUP2 ADD SWAP1 POP PUSH2 0x37F JUMP JUMPDEST POP POP JUMP JUMPDEST PUSH1 0x1F DUP3 GT ISZERO PUSH2 0x3E1 JUMPI PUSH2 0x3B2 DUP2 PUSH2 0x280 JUMP JUMPDEST PUSH2 0x3BB DUP5 PUSH2 0x292 JUMP JUMPDEST DUP2 ADD PUSH1 0x20 DUP6 LT ISZERO PUSH2 0x3CA JUMPI DUP2 SWAP1 POP JUMPDEST PUSH2 0x3DE PUSH2 0x3D6 DUP6 PUSH2 0x292 JUMP JUMPDEST DUP4 ADD DUP3 PUSH2 0x37E JUMP JUMPDEST POP POP JUMPDEST POP POP POP JUMP JUMPDEST PUSH0 DUP3 DUP3 SHR SWAP1 POP SWAP3 SWAP2 POP POP JUMP JUMPDEST PUSH0 PUSH2 0x401 PUSH0 NOT DUP5 PUSH1 0x8 MUL PUSH2 0x3E6 JUMP JUMPDEST NOT DUP1 DUP4 AND SWAP2 POP POP SWAP3 SWAP2 POP POP JUMP JUMPDEST PUSH0 PUSH2 0x419 DUP4 DUP4 PUSH2 0x3F2 JUMP JUMPDEST SWAP2 POP DUP3 PUSH1 0x2 MUL DUP3 OR SWAP1 POP SWAP3 SWAP2 POP POP JUMP JUMPDEST PUSH2 0x432 DUP3 PUSH2 0x1EC JUMP JUMPDEST PUSH8 0xFFFFFFFFFFFFFFFF DUP2 GT ISZERO PUSH2 0x44B JUMPI PUSH2 0x44A PUSH2 0x1F6 JUMP JUMPDEST JUMPDEST PUSH2 0x455 DUP3 SLOAD PUSH2 0x250 JUMP JUMPDEST PUSH2 0x460 DUP3 DUP3 DUP6 PUSH2 0x3A0 JUMP JUMPDEST PUSH0 PUSH1 0x20 SWAP1 POP PUSH1 0x1F DUP4 GT PUSH1 0x1 DUP2 EQ PUSH2 0x491 JUMPI PUSH0 DUP5 ISZERO PUSH2 0x47F JUMPI DUP3 DUP8 ADD MLOAD SWAP1 POP JUMPDEST PUSH2 0x489 DUP6 DUP3 PUSH2 0x40E JUMP JUMPDEST DUP7 SSTORE POP PUSH2 0x4F0 JUMP JUMPDEST PUSH1 0x1F NOT DUP5 AND PUSH2 0x49F DUP7 PUSH2 0x280 JUMP JUMPDEST PUSH0 JUMPDEST DUP3 DUP2 LT ISZERO PUSH2 0x4C6 JUMPI DUP5 DUP10 ADD MLOAD DUP3 SSTORE PUSH1 0x1 DUP3 ADD SWAP2 POP PUSH1 0x20 DUP6 ADD SWAP5 POP PUSH1 0x20 DUP2 ADD SWAP1 POP PUSH2 0x4A1 JUMP JUMPDEST DUP7 DUP4 LT ISZERO PUSH2 0x4E3 JUMPI DUP5 DUP10 ADD MLOAD PUSH2 0x4DF PUSH1 0x1F DUP10 AND DUP3 PUSH2 0x3F2 JUMP JUMPDEST DUP4 SSTORE POP JUMPDEST PUSH1 0x1 PUSH1 0x2 DUP9 MUL ADD DUP9 SSTORE POP POP POP JUMPDEST POP POP POP POP POP POP JUMP JUMPDEST PUSH0 PUSH8 0xFFFFFFFFFFFFFFFF DUP3 AND SWAP1 POP SWAP2 SWAP1 POP JUMP JUMPDEST PUSH2 0x514 DUP2 PUSH2 0x4F8 JUMP JUMPDEST DUP3 MSTORE POP POP JUMP JUMPDEST PUSH0 PUSH1 0x20 DUP3 ADD SWAP1 POP PUSH2 0x52D PUSH0 DUP4 ADD DUP5 PUSH2 0x50B JUMP JUMPDEST SWAP3 SWAP2 POP POP JUMP JUMPDEST PUSH1 0x80 MLOAD PUSH2 0x6353 PUSH2 0x559 PUSH0 CODECOPY PUSH0 DUP2 DUP2 PUSH2 0x3575 ADD MSTORE DUP2 DUP2 PUSH2 0x35CA ADD MSTORE PUSH2 0x37A9 ADD MSTORE PUSH2 0x6353 PUSH0 RETURN INVALID PUSH1 0x80 PUSH1 0x40 MSTORE PUSH1 0x4 CALLDATASIZE LT PUSH2 0x22F JUMPI PUSH0 CALLDATALOAD PUSH1 0xE0 SHR DUP1 PUSH4 0x5D504832 GT PUSH2 0x12D JUMPI DUP1 PUSH4 0xAAF10F42 GT PUSH2 0xAA JUMPI DUP1 PUSH4 0xBE9AD61E GT PUSH2 0x6E JUMPI DUP1 PUSH4 0xBE9AD61E EQ PUSH2 0x860 JUMPI DUP1 PUSH4 0xD547741F EQ PUSH2 0x88A JUMPI DUP1 PUSH4 0xDEF050C5 EQ PUSH2 0x8B2 JUMPI DUP1 PUSH4 0xF2FDE38B EQ PUSH2 0x8DC JUMPI DUP1 PUSH4 0xF9AFF1E8 EQ PUSH2 0x904 JUMPI PUSH2 0x22F JUMP JUMPDEST DUP1 PUSH4 0xAAF10F42 EQ PUSH2 0x76A JUMPI DUP1 PUSH4 0xAD3CB1CC EQ PUSH2 0x794 JUMPI DUP1 PUSH4 0xB106B39D EQ PUSH2 0x7BE JUMPI DUP1 PUSH4 0xB1E21749 EQ PUSH2 0x7FA JUMPI DUP1 PUSH4 0xB7FF920E EQ PUSH2 0x824 JUMPI PUSH2 0x22F JUMP JUMPDEST DUP1 PUSH4 0x8DB23F27 GT PUSH2 0xF1 JUMPI DUP1 PUSH4 0x8DB23F27 EQ PUSH2 0x675 JUMPI DUP1 PUSH4 0x91D14854 EQ PUSH2 0x6B2 JUMPI DUP1 PUSH4 0x957D90D4 EQ PUSH2 0x6EE JUMPI DUP1 PUSH4 0xA217FDDF EQ PUSH2 0x718 JUMPI DUP1 PUSH4 0xA92F67AC EQ PUSH2 0x742 JUMPI PUSH2 0x22F JUMP JUMPDEST DUP1 PUSH4 0x5D504832 EQ PUSH2 0x5A5 JUMPI DUP1 PUSH4 0x731CBEA8 EQ PUSH2 0x5CF JUMPI DUP1 PUSH4 0x79BA5097 EQ PUSH2 0x60B JUMPI DUP1 PUSH4 0x8C639A85 EQ PUSH2 0x621 JUMPI DUP1 PUSH4 0x8DA5CB5B EQ PUSH2 0x64B JUMPI PUSH2 0x22F JUMP JUMPDEST DUP1 PUSH4 0x36568ABE GT PUSH2 0x1BB JUMPI DUP1 PUSH4 0x4F1EF286 GT PUSH2 0x17F JUMPI DUP1 PUSH4 0x4F1EF286 EQ PUSH2 0x4BD JUMPI DUP1 PUSH4 0x52D1902D EQ PUSH2 0x4D9 JUMPI DUP1 PUSH4 0x5471B47A EQ PUSH2 0x503 JUMPI DUP1 PUSH4 0x5A3D7263 EQ PUSH2 0x53F JUMPI DUP1 PUSH4 0x5C975ABB EQ PUSH2 0x57B JUMPI PUSH2 0x22F JUMP JUMPDEST DUP1 PUSH4 0x36568ABE EQ PUSH2 0x3EF JUMPI DUP1 PUSH4 0x3944EA3A EQ PUSH2 0x417 JUMPI DUP1 PUSH4 0x46904840 EQ PUSH2 0x441 JUMPI DUP1 PUSH4 0x4B0795A8 EQ PUSH2 0x46B JUMPI DUP1 PUSH4 0x4D38BB39 EQ PUSH2 0x495 JUMPI PUSH2 0x22F JUMP JUMPDEST DUP1 PUSH4 0x107A274A GT PUSH2 0x202 JUMPI DUP1 PUSH4 0x107A274A EQ PUSH2 0x2EB JUMPI DUP1 PUSH4 0x248A9CA3 EQ PUSH2 0x327 JUMPI DUP1 PUSH4 0x2F2FF15D EQ PUSH2 0x363 JUMPI DUP1 PUSH4 0x305A67A8 EQ PUSH2 0x38B JUMPI DUP1 PUSH4 0x34A9620C EQ PUSH2 0x3B3 JUMPI PUSH2 0x22F JUMP JUMPDEST DUP1 PUSH4 0x1C47C8B EQ PUSH2 0x233 JUMPI DUP1 PUSH4 0x1FFC9A7 EQ PUSH2 0x25D JUMPI DUP1 PUSH4 0x9C1BA2E EQ PUSH2 0x299 JUMPI DUP1 PUSH4 0xCA76175 EQ PUSH2 0x2C3 JUMPI JUMPDEST PUSH0 PUSH0 REVERT JUMPDEST CALLVALUE DUP1 ISZERO PUSH2 0x23E JUMPI PUSH0 PUSH0 REVERT JUMPDEST POP PUSH2 0x247 PUSH2 0x92E JUMP JUMPDEST PUSH1 0x40 MLOAD PUSH2 0x254 SWAP2 SWAP1 PUSH2 0x46B4 JUMP JUMPDEST PUSH1 0x40 MLOAD DUP1 SWAP2 SUB SWAP1 RETURN JUMPDEST CALLVALUE DUP1 ISZERO PUSH2 0x268 JUMPI PUSH0 PUSH0 REVERT JUMPDEST POP PUSH2 0x283 PUSH1 0x4 DUP1 CALLDATASIZE SUB DUP2 ADD SWAP1 PUSH2 0x27E SWAP2 SWAP1 PUSH2 0x4733 JUMP JUMPDEST PUSH2 0x940 JUMP JUMPDEST PUSH1 0x40 MLOAD PUSH2 0x290 SWAP2 SWAP1 PUSH2 0x46B4 JUMP JUMPDEST PUSH1 0x40 MLOAD DUP1 SWAP2 SUB SWAP1 RETURN JUMPDEST CALLVALUE DUP1 ISZERO PUSH2 0x2A4 JUMPI PUSH0 PUSH0 REVERT JUMPDEST POP PUSH2 0x2AD PUSH2 0x9B9 JUMP JUMPDEST PUSH1 0x40 MLOAD PUSH2 0x2BA SWAP2 SWAP1 PUSH2 0x4780 JUMP JUMPDEST PUSH1 0x40 MLOAD DUP1 SWAP2 SUB SWAP1 RETURN JUMPDEST CALLVALUE DUP1 ISZERO PUSH2 0x2CE JUMPI PUSH0 PUSH0 REVERT JUMPDEST POP PUSH2 0x2E9 PUSH1 0x4 DUP1 CALLDATASIZE SUB DUP2 ADD SWAP1 PUSH2 0x2E4 SWAP2 SWAP1 PUSH2 0x4908 JUMP JUMPDEST PUSH2 0x9D2 JUMP JUMPDEST STOP JUMPDEST CALLVALUE DUP1 ISZERO PUSH2 0x2F6 JUMPI PUSH0 PUSH0 REVERT JUMPDEST POP PUSH2 0x311 PUSH1 0x4 DUP1 CALLDATASIZE SUB DUP2 ADD SWAP1 PUSH2 0x30C SWAP2 SWAP1 PUSH2 0x49C3 JUMP JUMPDEST PUSH2 0xA95 JUMP JUMPDEST PUSH1 0x40 MLOAD PUSH2 0x31E SWAP2 SWAP1 PUSH2 0x4B82 JUMP JUMPDEST PUSH1 0x40 MLOAD DUP1 SWAP2 SUB SWAP1 RETURN JUMPDEST CALLVALUE DUP1 ISZERO PUSH2 0x332 JUMPI PUSH0 PUSH0 REVERT JUMPDEST POP PUSH2 0x34D PUSH1 0x4 DUP1 CALLDATASIZE SUB DUP2 ADD SWAP1 PUSH2 0x348 SWAP2 SWAP1 PUSH2 0x4BA2 JUMP JUMPDEST PUSH2 0xC60 JUMP JUMPDEST PUSH1 0x40 MLOAD PUSH2 0x35A SWAP2 SWAP1 PUSH2 0x4BDC JUMP JUMPDEST PUSH1 0x40 MLOAD DUP1 SWAP2 SUB SWAP1 RETURN JUMPDEST CALLVALUE DUP1 ISZERO PUSH2 0x36E JUMPI PUSH0 PUSH0 REVERT JUMPDEST POP PUSH2 0x389 PUSH1 0x4 DUP1 CALLDATASIZE SUB DUP2 ADD SWAP1 PUSH2 0x384 SWAP2 SWAP1 PUSH2 0x4C1F JUMP JUMPDEST PUSH2 0xC8A JUMP JUMPDEST STOP JUMPDEST CALLVALUE DUP1 ISZERO PUSH2 0x396 JUMPI PUSH0 PUSH0 REVERT JUMPDEST POP PUSH2 0x3B1 PUSH1 0x4 DUP1 CALLDATASIZE SUB DUP2 ADD SWAP1 PUSH2 0x3AC SWAP2 SWAP1 PUSH2 0x49C3 JUMP JUMPDEST PUSH2 0xCAC JUMP JUMPDEST STOP JUMPDEST CALLVALUE DUP1 ISZERO PUSH2 0x3BE JUMPI PUSH0 PUSH0 REVERT JUMPDEST POP PUSH2 0x3D9 PUSH1 0x4 DUP1 CALLDATASIZE SUB DUP2 ADD SWAP1 PUSH2 0x3D4 SWAP2 SWAP1 PUSH2 0x4CE4 JUMP JUMPDEST PUSH2 0xF5D JUMP JUMPDEST PUSH1 0x40 MLOAD PUSH2 0x3E6 SWAP2 SWAP1 PUSH2 0x4BDC JUMP JUMPDEST PUSH1 0x40 MLOAD DUP1 SWAP2 SUB SWAP1 RETURN JUMPDEST CALLVALUE DUP1 ISZERO PUSH2 0x3FA JUMPI PUSH0 PUSH0 REVERT JUMPDEST POP PUSH2 0x415 PUSH1 0x4 DUP1 CALLDATASIZE SUB DUP2 ADD SWAP1 PUSH2 0x410 SWAP2 SWAP1 PUSH2 0x4C1F JUMP JUMPDEST PUSH2 0x1178 JUMP JUMPDEST STOP JUMPDEST CALLVALUE DUP1 ISZERO PUSH2 0x422 JUMPI PUSH0 PUSH0 REVERT JUMPDEST POP PUSH2 0x42B PUSH2 0x11F3 JUMP JUMPDEST PUSH1 0x40 MLOAD PUSH2 0x438 SWAP2 SWAP1 PUSH2 0x4D93 JUMP JUMPDEST PUSH1 0x40 MLOAD DUP1 SWAP2 SUB SWAP1 RETURN JUMPDEST CALLVALUE DUP1 ISZERO PUSH2 0x44C JUMPI PUSH0 PUSH0 REVERT JUMPDEST POP PUSH2 0x455 PUSH2 0x127F JUMP JUMPDEST PUSH1 0x40 MLOAD PUSH2 0x462 SWAP2 SWAP1 PUSH2 0x4DC2 JUMP JUMPDEST PUSH1 0x40 MLOAD DUP1 SWAP2 SUB SWAP1 RETURN JUMPDEST CALLVALUE DUP1 ISZERO PUSH2 0x476 JUMPI PUSH0 PUSH0 REVERT JUMPDEST POP PUSH2 0x47F PUSH2 0x12A4 JUMP JUMPDEST PUSH1 0x40 MLOAD PUSH2 0x48C SWAP2 SWAP1 PUSH2 0x4D93 JUMP JUMPDEST PUSH1 0x40 MLOAD DUP1 SWAP2 SUB SWAP1 RETURN JUMPDEST CALLVALUE DUP1 ISZERO PUSH2 0x4A0 JUMPI PUSH0 PUSH0 REVERT JUMPDEST POP PUSH2 0x4BB PUSH1 0x4 DUP1 CALLDATASIZE SUB DUP2 ADD SWAP1 PUSH2 0x4B6 SWAP2 SWAP1 PUSH2 0x4DDB JUMP JUMPDEST PUSH2 0x1330 JUMP JUMPDEST STOP JUMPDEST PUSH2 0x4D7 PUSH1 0x4 DUP1 CALLDATASIZE SUB DUP2 ADD SWAP1 PUSH2 0x4D2 SWAP2 SWAP1 PUSH2 0x4E71 JUMP JUMPDEST PUSH2 0x1D2C JUMP JUMPDEST STOP JUMPDEST CALLVALUE DUP1 ISZERO PUSH2 0x4E4 JUMPI PUSH0 PUSH0 REVERT JUMPDEST POP PUSH2 0x4ED PUSH2 0x1D4B JUMP JUMPDEST PUSH1 0x40 MLOAD PUSH2 0x4FA SWAP2 SWAP1 PUSH2 0x4BDC JUMP JUMPDEST PUSH1 0x40 MLOAD DUP1 SWAP2 SUB SWAP1 RETURN JUMPDEST CALLVALUE DUP1 ISZERO PUSH2 0x50E JUMPI PUSH0 PUSH0 REVERT JUMPDEST POP PUSH2 0x529 PUSH1 0x4 DUP1 CALLDATASIZE SUB DUP2 ADD SWAP1 PUSH2 0x524 SWAP2 SWAP1 PUSH2 0x4ECB JUMP JUMPDEST PUSH2 0x1D7C JUMP JUMPDEST PUSH1 0x40 MLOAD PUSH2 0x536 SWAP2 SWAP1 PUSH2 0x46B4 JUMP JUMPDEST PUSH1 0x40 MLOAD DUP1 SWAP2 SUB SWAP1 RETURN JUMPDEST CALLVALUE DUP1 ISZERO PUSH2 0x54A JUMPI PUSH0 PUSH0 REVERT JUMPDEST POP PUSH2 0x565 PUSH1 0x4 DUP1 CALLDATASIZE SUB DUP2 ADD SWAP1 PUSH2 0x560 SWAP2 SWAP1 PUSH2 0x4F09 JUMP JUMPDEST PUSH2 0x1FBC JUMP JUMPDEST PUSH1 0x40 MLOAD PUSH2 0x572 SWAP2 SWAP1 PUSH2 0x46B4 JUMP JUMPDEST PUSH1 0x40 MLOAD DUP1 SWAP2 SUB SWAP1 RETURN JUMPDEST CALLVALUE DUP1 ISZERO PUSH2 0x586 JUMPI PUSH0 PUSH0 REVERT JUMPDEST POP PUSH2 0x58F PUSH2 0x1FF2 JUMP JUMPDEST PUSH1 0x40 MLOAD PUSH2 0x59C SWAP2 SWAP1 PUSH2 0x46B4 JUMP JUMPDEST PUSH1 0x40 MLOAD DUP1 SWAP2 SUB SWAP1 RETURN JUMPDEST CALLVALUE DUP1 ISZERO PUSH2 0x5B0 JUMPI PUSH0 PUSH0 REVERT JUMPDEST POP PUSH2 0x5B9 PUSH2 0x2014 JUMP JUMPDEST PUSH1 0x40 MLOAD PUSH2 0x5C6 SWAP2 SWAP1 PUSH2 0x4F63 JUMP JUMPDEST PUSH1 0x40 MLOAD DUP1 SWAP2 SUB SWAP1 RETURN JUMPDEST CALLVALUE DUP1 ISZERO PUSH2 0x5DA JUMPI PUSH0 PUSH0 REVERT JUMPDEST POP PUSH2 0x5F5 PUSH1 0x4 DUP1 CALLDATASIZE SUB DUP2 ADD SWAP1 PUSH2 0x5F0 SWAP2 SWAP1 PUSH2 0x4FD1 JUMP JUMPDEST PUSH2 0x201A JUMP JUMPDEST PUSH1 0x40 MLOAD PUSH2 0x602 SWAP2 SWAP1 PUSH2 0x4BDC JUMP JUMPDEST PUSH1 0x40 MLOAD DUP1 SWAP2 SUB SWAP1 RETURN JUMPDEST CALLVALUE DUP1 ISZERO PUSH2 0x616 JUMPI PUSH0 PUSH0 REVERT JUMPDEST POP PUSH2 0x61F PUSH2 0x213D JUMP JUMPDEST STOP JUMPDEST CALLVALUE DUP1 ISZERO PUSH2 0x62C JUMPI PUSH0 PUSH0 REVERT JUMPDEST POP PUSH2 0x635 PUSH2 0x22CC JUMP JUMPDEST PUSH1 0x40 MLOAD PUSH2 0x642 SWAP2 SWAP1 PUSH2 0x4F63 JUMP JUMPDEST PUSH1 0x40 MLOAD DUP1 SWAP2 SUB SWAP1 RETURN JUMPDEST CALLVALUE DUP1 ISZERO PUSH2 0x656 JUMPI PUSH0 PUSH0 REVERT JUMPDEST POP PUSH2 0x65F PUSH2 0x22D2 JUMP JUMPDEST PUSH1 0x40 MLOAD PUSH2 0x66C SWAP2 SWAP1 PUSH2 0x4DC2 JUMP JUMPDEST PUSH1 0x40 MLOAD DUP1 SWAP2 SUB SWAP1 RETURN JUMPDEST CALLVALUE DUP1 ISZERO PUSH2 0x680 JUMPI PUSH0 PUSH0 REVERT JUMPDEST POP PUSH2 0x69B PUSH1 0x4 DUP1 CALLDATASIZE SUB DUP2 ADD SWAP1 PUSH2 0x696 SWAP2 SWAP1 PUSH2 0x49C3 JUMP JUMPDEST PUSH2 0x22F9 JUMP JUMPDEST PUSH1 0x40 MLOAD PUSH2 0x6A9 SWAP3 SWAP2 SWAP1 PUSH2 0x50E9 JUMP JUMPDEST PUSH1 0x40 MLOAD DUP1 SWAP2 SUB SWAP1 RETURN JUMPDEST CALLVALUE DUP1 ISZERO PUSH2 0x6BD JUMPI PUSH0 PUSH0 REVERT JUMPDEST POP PUSH2 0x6D8 PUSH1 0x4 DUP1 CALLDATASIZE SUB DUP2 ADD SWAP1 PUSH2 0x6D3 SWAP2 SWAP1 PUSH2 0x4C1F JUMP JUMPDEST PUSH2 0x2500 JUMP JUMPDEST PUSH1 0x40 MLOAD PUSH2 0x6E5 SWAP2 SWAP1 PUSH2 0x46B4 JUMP JUMPDEST PUSH1 0x40 MLOAD DUP1 SWAP2 SUB SWAP1 RETURN JUMPDEST CALLVALUE DUP1 ISZERO PUSH2 0x6F9 JUMPI PUSH0 PUSH0 REVERT JUMPDEST POP PUSH2 0x702 PUSH2 0x2571 JUMP JUMPDEST PUSH1 0x40 MLOAD PUSH2 0x70F SWAP2 SWAP1 PUSH2 0x4F63 JUMP JUMPDEST PUSH1 0x40 MLOAD DUP1 SWAP2 SUB SWAP1 RETURN JUMPDEST CALLVALUE DUP1 ISZERO PUSH2 0x723 JUMPI PUSH0 PUSH0 REVERT JUMPDEST POP PUSH2 0x72C PUSH2 0x2577 JUMP JUMPDEST PUSH1 0x40 MLOAD PUSH2 0x739 SWAP2 SWAP1 PUSH2 0x4BDC JUMP JUMPDEST PUSH1 0x40 MLOAD DUP1 SWAP2 SUB SWAP1 RETURN JUMPDEST CALLVALUE DUP1 ISZERO PUSH2 0x74D JUMPI PUSH0 PUSH0 REVERT JUMPDEST POP PUSH2 0x768 PUSH1 0x4 DUP1 CALLDATASIZE SUB DUP2 ADD SWAP1 PUSH2 0x763 SWAP2 SWAP1 PUSH2 0x5117 JUMP JUMPDEST PUSH2 0x257D JUMP JUMPDEST STOP JUMPDEST CALLVALUE DUP1 ISZERO PUSH2 0x775 JUMPI PUSH0 PUSH0 REVERT JUMPDEST POP PUSH2 0x77E PUSH2 0x2887 JUMP JUMPDEST PUSH1 0x40 MLOAD PUSH2 0x78B SWAP2 SWAP1 PUSH2 0x4DC2 JUMP JUMPDEST PUSH1 0x40 MLOAD DUP1 SWAP2 SUB SWAP1 RETURN JUMPDEST CALLVALUE DUP1 ISZERO PUSH2 0x79F JUMPI PUSH0 PUSH0 REVERT JUMPDEST POP PUSH2 0x7A8 PUSH2 0x2895 JUMP JUMPDEST PUSH1 0x40 MLOAD PUSH2 0x7B5 SWAP2 SWAP1 PUSH2 0x51A0 JUMP JUMPDEST PUSH1 0x40 MLOAD DUP1 SWAP2 SUB SWAP1 RETURN JUMPDEST CALLVALUE DUP1 ISZERO PUSH2 0x7C9 JUMPI PUSH0 PUSH0 REVERT JUMPDEST POP PUSH2 0x7E4 PUSH1 0x4 DUP1 CALLDATASIZE SUB DUP2 ADD SWAP1 PUSH2 0x7DF SWAP2 SWAP1 PUSH2 0x525E JUMP JUMPDEST PUSH2 0x28CE JUMP JUMPDEST PUSH1 0x40 MLOAD PUSH2 0x7F1 SWAP2 SWAP1 PUSH2 0x46B4 JUMP JUMPDEST PUSH1 0x40 MLOAD DUP1 SWAP2 SUB SWAP1 RETURN JUMPDEST CALLVALUE DUP1 ISZERO PUSH2 0x805 JUMPI PUSH0 PUSH0 REVERT JUMPDEST POP PUSH2 0x80E PUSH2 0x2903 JUMP JUMPDEST PUSH1 0x40 MLOAD PUSH2 0x81B SWAP2 SWAP1 PUSH2 0x4BDC JUMP JUMPDEST PUSH1 0x40 MLOAD DUP1 SWAP2 SUB SWAP1 RETURN JUMPDEST CALLVALUE DUP1 ISZERO PUSH2 0x82F JUMPI PUSH0 PUSH0 REVERT JUMPDEST POP PUSH2 0x84A PUSH1 0x4 DUP1 CALLDATASIZE SUB DUP2 ADD SWAP1 PUSH2 0x845 SWAP2 SWAP1 PUSH2 0x52A5 JUMP JUMPDEST PUSH2 0x2909 JUMP JUMPDEST PUSH1 0x40 MLOAD PUSH2 0x857 SWAP2 SWAP1 PUSH2 0x46B4 JUMP JUMPDEST PUSH1 0x40 MLOAD DUP1 SWAP2 SUB SWAP1 RETURN JUMPDEST CALLVALUE DUP1 ISZERO PUSH2 0x86B JUMPI PUSH0 PUSH0 REVERT JUMPDEST POP PUSH2 0x874 PUSH2 0x2926 JUMP JUMPDEST PUSH1 0x40 MLOAD PUSH2 0x881 SWAP2 SWAP1 PUSH2 0x4F63 JUMP JUMPDEST PUSH1 0x40 MLOAD DUP1 SWAP2 SUB SWAP1 RETURN JUMPDEST CALLVALUE DUP1 ISZERO PUSH2 0x895 JUMPI PUSH0 PUSH0 REVERT JUMPDEST POP PUSH2 0x8B0 PUSH1 0x4 DUP1 CALLDATASIZE SUB DUP2 ADD SWAP1 PUSH2 0x8AB SWAP2 SWAP1 PUSH2 0x4C1F JUMP JUMPDEST PUSH2 0x2936 JUMP JUMPDEST STOP JUMPDEST CALLVALUE DUP1 ISZERO PUSH2 0x8BD JUMPI PUSH0 PUSH0 REVERT JUMPDEST POP PUSH2 0x8C6 PUSH2 0x2958 JUMP JUMPDEST PUSH1 0x40 MLOAD PUSH2 0x8D3 SWAP2 SWAP1 PUSH2 0x4F63 JUMP JUMPDEST PUSH1 0x40 MLOAD DUP1 SWAP2 SUB SWAP1 RETURN JUMPDEST CALLVALUE DUP1 ISZERO PUSH2 0x8E7 JUMPI PUSH0 PUSH0 REVERT JUMPDEST POP PUSH2 0x902 PUSH1 0x4 DUP1 CALLDATASIZE SUB DUP2 ADD SWAP1 PUSH2 0x8FD SWAP2 SWAP1 PUSH2 0x52A5 JUMP JUMPDEST PUSH2 0x295E JUMP JUMPDEST STOP JUMPDEST CALLVALUE DUP1 ISZERO PUSH2 0x90F JUMPI PUSH0 PUSH0 REVERT JUMPDEST POP PUSH2 0x918 PUSH2 0x2972 JUMP JUMPDEST PUSH1 0x40 MLOAD PUSH2 0x925 SWAP2 SWAP1 PUSH2 0x51A0 JUMP JUMPDEST PUSH1 0x40 MLOAD DUP1 SWAP2 SUB SWAP1 RETURN JUMPDEST PUSH1 0x9 PUSH0 SWAP1 SLOAD SWAP1 PUSH2 0x100 EXP SWAP1 DIV PUSH1 0xFF AND DUP2 JUMP JUMPDEST PUSH0 PUSH32 0x7965DB0B00000000000000000000000000000000000000000000000000000000 PUSH28 0xFFFFFFFFFFFFFFFFFFFFFFFFFFFFFFFFFFFFFFFFFFFFFFFFFFFFFFFF NOT AND DUP3 PUSH28 0xFFFFFFFFFFFFFFFFFFFFFFFFFFFFFFFFFFFFFFFFFFFFFFFFFFFFFFFF NOT AND EQ DUP1 PUSH2 0x9B2 JUMPI POP PUSH2 0x9B1 DUP3 PUSH2 0x29FE JUMP JUMPDEST JUMPDEST SWAP1 POP SWAP2 SWAP1 POP JUMP JUMPDEST PUSH1 0x12 PUSH0 SWAP1 SLOAD SWAP1 PUSH2 0x100 EXP SWAP1 DIV PUSH8 0xFFFFFFFFFFFFFFFF AND DUP2 JUMP JUMPDEST PUSH1 0x2 PUSH0 SWAP1 SLOAD SWAP1 PUSH2 0x100 EXP SWAP1 DIV PUSH20 0xFFFFFFFFFFFFFFFFFFFFFFFFFFFFFFFFFFFFFFFF AND PUSH20 0xFFFFFFFFFFFFFFFFFFFFFFFFFFFFFFFFFFFFFFFF AND CALLER PUSH20 0xFFFFFFFFFFFFFFFFFFFFFFFFFFFFFFFFFFFFFFFF AND EQ PUSH2 0xA58 JUMPI PUSH1 0x40 MLOAD PUSH32 0xC6829F8300000000000000000000000000000000000000000000000000000000 DUP2 MSTORE PUSH1 0x4 ADD PUSH1 0x40 MLOAD DUP1 SWAP2 SUB SWAP1 REVERT JUMPDEST PUSH2 0xA63 DUP4 DUP4 DUP4 PUSH2 0x2A67 JUMP JUMPDEST DUP3 PUSH32 0x85E1543BF2F84FE80C6BADBCE3648C8539AD1DF4D2B3D822938CA0538BE727E6 PUSH1 0x40 MLOAD PUSH1 0x40 MLOAD DUP1 SWAP2 SUB SWAP1 LOG2 POP POP POP JUMP JUMPDEST PUSH2 0xA9D PUSH2 0x4579 JUMP JUMPDEST PUSH1 0x13 PUSH0 DUP4 DUP2 MSTORE PUSH1 0x20 ADD SWAP1 DUP2 MSTORE PUSH1 0x20 ADD PUSH0 KECCAK256 PUSH1 0x40 MLOAD DUP1 PUSH2 0x140 ADD PUSH1 0x40 MSTORE SWAP1 DUP2 PUSH0 DUP3 ADD SLOAD DUP2 MSTORE PUSH1 0x20 ADD PUSH1 0x1 DUP3 ADD PUSH0 SWAP1 SLOAD SWAP1 PUSH2 0x100 EXP SWAP1 DIV PUSH20 0xFFFFFFFFFFFFFFFFFFFFFFFFFFFFFFFFFFFFFFFF AND PUSH20 0xFFFFFFFFFFFFFFFFFFFFFFFFFFFFFFFFFFFFFFFF AND PUSH20 0xFFFFFFFFFFFFFFFFFFFFFFFFFFFFFFFFFFFFFFFF AND DUP2 MSTORE PUSH1 0x20 ADD PUSH1 0x2 DUP3 ADD SLOAD DUP2 MSTORE PUSH1 0x20 ADD PUSH1 0x3 DUP3 ADD PUSH0 SWAP1 SLOAD SWAP1 PUSH2 0x100 EXP SWAP1 DIV PUSH20 0xFFFFFFFFFFFFFFFFFFFFFFFFFFFFFFFFFFFFFFFF AND PUSH20 0xFFFFFFFFFFFFFFFFFFFFFFFFFFFFFFFFFFFFFFFF AND PUSH20 0xFFFFFFFFFFFFFFFFFFFFFFFFFFFFFFFFFFFFFFFF AND DUP2 MSTORE PUSH1 0x20 ADD PUSH1 0x4 DUP3 ADD SLOAD DUP2 MSTORE PUSH1 0x20 ADD PUSH1 0x5 DUP3 ADD SLOAD DUP2 MSTORE PUSH1 0x20 ADD PUSH1 0x6 DUP3 ADD SLOAD DUP2 MSTORE PUSH1 0x20 ADD PUSH1 0x7 DUP3 ADD PUSH0 SWAP1 SLOAD SWAP1 PUSH2 0x100 EXP SWAP1 DIV PUSH1 0xFF AND ISZERO ISZERO ISZERO ISZERO DUP2 MSTORE PUSH1 0x20 ADD PUSH1 0x8 DUP3 ADD DUP1 SLOAD PUSH2 0xBBF SWAP1 PUSH2 0x52FD JUMP JUMPDEST DUP1 PUSH1 0x1F ADD PUSH1 0x20 DUP1 SWAP2 DIV MUL PUSH1 0x20 ADD PUSH1 0x40 MLOAD SWAP1 DUP2 ADD PUSH1 0x40 MSTORE DUP1 SWAP3 SWAP2 SWAP1 DUP2 DUP2 MSTORE PUSH1 0x20 ADD DUP3 DUP1 SLOAD PUSH2 0xBEB SWAP1 PUSH2 0x52FD JUMP JUMPDEST DUP1 ISZERO PUSH2 0xC36 JUMPI DUP1 PUSH1 0x1F LT PUSH2 0xC0D JUMPI PUSH2 0x100 DUP1 DUP4 SLOAD DIV MUL DUP4 MSTORE SWAP2 PUSH1 0x20 ADD SWAP2 PUSH2 0xC36 JUMP JUMPDEST DUP3 ADD SWAP2 SWAP1 PUSH0 MSTORE PUSH1 0x20 PUSH0 KECCAK256 SWAP1 JUMPDEST DUP2 SLOAD DUP2 MSTORE SWAP1 PUSH1 0x1 ADD SWAP1 PUSH1 0x20 ADD DUP1 DUP4 GT PUSH2 0xC19 JUMPI DUP3 SWAP1 SUB PUSH1 0x1F AND DUP3 ADD SWAP2 JUMPDEST POP POP POP POP POP DUP2 MSTORE PUSH1 0x20 ADD PUSH1 0x9 DUP3 ADD PUSH0 SWAP1 SLOAD SWAP1 PUSH2 0x100 EXP SWAP1 DIV PUSH1 0xFF AND ISZERO ISZERO ISZERO ISZERO DUP2 MSTORE POP POP SWAP1 POP SWAP2 SWAP1 POP JUMP JUMPDEST PUSH0 PUSH0 PUSH2 0xC6A PUSH2 0x2CA3 JUMP JUMPDEST SWAP1 POP DUP1 PUSH0 ADD PUSH0 DUP5 DUP2 MSTORE PUSH1 0x20 ADD SWAP1 DUP2 MSTORE PUSH1 0x20 ADD PUSH0 KECCAK256 PUSH1 0x1 ADD SLOAD SWAP2 POP POP SWAP2 SWAP1 POP JUMP JUMPDEST PUSH2 0xC93 DUP3 PUSH2 0xC60 JUMP JUMPDEST PUSH2 0xC9C DUP2 PUSH2 0x2CCA JUMP JUMPDEST PUSH2 0xCA6 DUP4 DUP4 PUSH2 0x2CDE JUMP JUMPDEST POP POP POP POP JUMP JUMPDEST PUSH2 0xCB4 PUSH2 0x2DD6 JUMP JUMPDEST PUSH2 0xCBC PUSH2 0x2E17 JUMP JUMPDEST PUSH0 PUSH1 0x13 PUSH0 DUP4 DUP2 MSTORE PUSH1 0x20 ADD SWAP1 DUP2 MSTORE PUSH1 0x20 ADD PUSH0 KECCAK256 SWAP1 POP PUSH0 DUP2 PUSH0 ADD SLOAD SUB PUSH2 0xD0C JUMPI PUSH1 0x40 MLOAD PUSH32 0x7E43E63800000000000000000000000000000000000000000000000000000000 DUP2 MSTORE PUSH1 0x4 ADD PUSH1 0x40 MLOAD DUP1 SWAP2 SUB SWAP1 REVERT JUMPDEST DUP1 PUSH1 0x7 ADD PUSH0 SWAP1 SLOAD SWAP1 PUSH2 0x100 EXP SWAP1 DIV PUSH1 0xFF AND PUSH2 0xD53 JUMPI PUSH1 0x40 MLOAD PUSH32 0x66CB03E900000000000000000000000000000000000000000000000000000000 DUP2 MSTORE PUSH1 0x4 ADD PUSH1 0x40 MLOAD DUP1 SWAP2 SUB SWAP1 REVERT JUMPDEST CALLER PUSH20 0xFFFFFFFFFFFFFFFFFFFFFFFFFFFFFFFFFFFFFFFF AND DUP2 PUSH1 0x3 ADD PUSH0 SWAP1 SLOAD SWAP1 PUSH2 0x100 EXP SWAP1 DIV PUSH20 0xFFFFFFFFFFFFFFFFFFFFFFFFFFFFFFFFFFFFFFFF AND PUSH20 0xFFFFFFFFFFFFFFFFFFFFFFFFFFFFFFFFFFFFFFFF AND EQ PUSH2 0xDDB JUMPI PUSH1 0x40 MLOAD PUSH32 0x5EC8235100000000000000000000000000000000000000000000000000000000 DUP2 MSTORE PUSH1 0x4 ADD PUSH1 0x40 MLOAD DUP1 SWAP2 SUB SWAP1 REVERT JUMPDEST PUSH0 DUP2 PUSH1 0x7 ADD PUSH0 PUSH2 0x100 EXP DUP2 SLOAD DUP2 PUSH1 0xFF MUL NOT AND SWAP1 DUP4 ISZERO ISZERO MUL OR SWAP1 SSTORE POP PUSH0 PUSH1 0x14 PUSH0 DUP4 PUSH1 0x1 ADD PUSH0 SWAP1 SLOAD SWAP1 PUSH2 0x100 EXP SWAP1 DIV PUSH20 0xFFFFFFFFFFFFFFFFFFFFFFFFFFFFFFFFFFFFFFFF AND PUSH20 0xFFFFFFFFFFFFFFFFFFFFFFFFFFFFFFFFFFFFFFFF AND PUSH20 0xFFFFFFFFFFFFFFFFFFFFFFFFFFFFFFFFFFFFFFFF AND DUP2 MSTORE PUSH1 0x20 ADD SWAP1 DUP2 MSTORE PUSH1 0x20 ADD PUSH0 KECCAK256 PUSH0 DUP4 PUSH1 0x2 ADD SLOAD DUP2 MSTORE PUSH1 0x20 ADD SWAP1 DUP2 MSTORE PUSH1 0x20 ADD PUSH0 KECCAK256 DUP2 SWAP1 SSTORE POP PUSH0 DUP2 PUSH1 0x8 ADD DUP1 SLOAD PUSH2 0xE7E SWAP1 PUSH2 0x52FD JUMP JUMPDEST SWAP1 POP GT ISZERO PUSH2 0xF0D JUMPI PUSH1 0x4 PUSH1 0x17 DUP3 PUSH1 0x8 ADD PUSH1 0x40 MLOAD PUSH2 0xE9B SWAP2 SWAP1 PUSH2 0x53C9 JUMP JUMPDEST SWAP1 DUP2 MSTORE PUSH1 0x20 ADD PUSH1 0x40 MLOAD DUP1 SWAP2 SUB SWAP1 KECCAK256 PUSH0 PUSH2 0x100 EXP DUP2 SLOAD DUP2 PUSH1 0xFF MUL NOT AND SWAP1 DUP4 PUSH1 0x4 DUP2 GT ISZERO PUSH2 0xECA JUMPI PUSH2 0xEC9 PUSH2 0x5076 JUMP JUMPDEST JUMPDEST MUL OR SWAP1 SSTORE POP PUSH32 0x384A7354A96A31098438152E3BE618FCAFB335084CA123FBC6168A866F508241 DUP2 PUSH1 0x8 ADD PUSH1 0x4 PUSH1 0x40 MLOAD PUSH2 0xF04 SWAP3 SWAP2 SWAP1 PUSH2 0x5460 JUMP JUMPDEST PUSH1 0x40 MLOAD DUP1 SWAP2 SUB SWAP1 LOG1 JUMPDEST CALLER PUSH20 0xFFFFFFFFFFFFFFFFFFFFFFFFFFFFFFFFFFFFFFFF AND DUP3 PUSH32 0x8E25282255AB31897DF2B0456BB993AC7F84D376861AEFD84901D2D63A7428A2 PUSH1 0x40 MLOAD PUSH1 0x40 MLOAD DUP1 SWAP2 SUB SWAP1 LOG3 POP PUSH2 0xF5A PUSH2 0x2E6B JUMP JUMPDEST POP JUMP JUMPDEST PUSH0 PUSH2 0xF66 PUSH2 0x2E82 JUMP JUMPDEST PUSH0 DUP4 DUP4 SWAP1 POP SUB PUSH2 0xFAF JUMPI DUP3 DUP3 PUSH1 0x40 MLOAD PUSH32 0x5597DD2300000000000000000000000000000000000000000000000000000000 DUP2 MSTORE PUSH1 0x4 ADD PUSH2 0xFA6 SWAP3 SWAP2 SWAP1 PUSH2 0x54BA JUMP JUMPDEST PUSH1 0x40 MLOAD DUP1 SWAP2 SUB SWAP1 REVERT JUMPDEST PUSH2 0xFB7 PUSH2 0x45F3 JUMP JUMPDEST PUSH2 0x1052 PUSH1 0xC DUP1 SLOAD PUSH2 0xFC7 SWAP1 PUSH2 0x52FD JUMP JUMPDEST DUP1 PUSH1 0x1F ADD PUSH1 0x20 DUP1 SWAP2 DIV MUL PUSH1 0x20 ADD PUSH1 0x40 MLOAD SWAP1 DUP2 ADD PUSH1 0x40 MSTORE DUP1 SWAP3 SWAP2 SWAP1 DUP2 DUP2 MSTORE PUSH1 0x20 ADD DUP3 DUP1 SLOAD PUSH2 0xFF3 SWAP1 PUSH2 0x52FD JUMP JUMPDEST DUP1 ISZERO PUSH2 0x103E JUMPI DUP1 PUSH1 0x1F LT PUSH2 0x1015 JUMPI PUSH2 0x100 DUP1 DUP4 SLOAD DIV MUL DUP4 MSTORE SWAP2 PUSH1 0x20 ADD SWAP2 PUSH2 0x103E JUMP JUMPDEST DUP3 ADD SWAP2 SWAP1 PUSH0 MSTORE PUSH1 0x20 PUSH0 KECCAK256 SWAP1 JUMPDEST DUP2 SLOAD DUP2 MSTORE SWAP1 PUSH1 0x1 ADD SWAP1 PUSH1 0x20 ADD DUP1 DUP4 GT PUSH2 0x1021 JUMPI DUP3 SWAP1 SUB PUSH1 0x1F AND DUP3 ADD SWAP2 JUMPDEST POP POP POP POP POP DUP3 PUSH2 0x2F12 SWAP1 SWAP2 SWAP1 PUSH4 0xFFFFFFFF AND JUMP JUMPDEST PUSH0 PUSH1 0x1 PUSH8 0xFFFFFFFFFFFFFFFF DUP2 GT ISZERO PUSH2 0x106E JUMPI PUSH2 0x106D PUSH2 0x47E4 JUMP JUMPDEST JUMPDEST PUSH1 0x40 MLOAD SWAP1 DUP1 DUP3 MSTORE DUP1 PUSH1 0x20 MUL PUSH1 0x20 ADD DUP3 ADD PUSH1 0x40 MSTORE DUP1 ISZERO PUSH2 0x10A1 JUMPI DUP2 PUSH1 0x20 ADD JUMPDEST PUSH1 0x60 DUP2 MSTORE PUSH1 0x20 ADD SWAP1 PUSH1 0x1 SWAP1 SUB SWAP1 DUP2 PUSH2 0x108C JUMPI SWAP1 POP JUMPDEST POP SWAP1 POP DUP5 DUP5 DUP1 DUP1 PUSH1 0x1F ADD PUSH1 0x20 DUP1 SWAP2 DIV MUL PUSH1 0x20 ADD PUSH1 0x40 MLOAD SWAP1 DUP2 ADD PUSH1 0x40 MSTORE DUP1 SWAP4 SWAP3 SWAP2 SWAP1 DUP2 DUP2 MSTORE PUSH1 0x20 ADD DUP4 DUP4 DUP1 DUP3 DUP5 CALLDATACOPY PUSH0 DUP2 DUP5 ADD MSTORE PUSH1 0x1F NOT PUSH1 0x1F DUP3 ADD AND SWAP1 POP DUP1 DUP4 ADD SWAP3 POP POP POP POP POP POP POP DUP2 PUSH0 DUP2 MLOAD DUP2 LT PUSH2 0x10FB JUMPI PUSH2 0x10FA PUSH2 0x54DC JUMP JUMPDEST JUMPDEST PUSH1 0x20 MUL PUSH1 0x20 ADD ADD DUP2 SWAP1 MSTORE POP PUSH2 0x1119 DUP2 DUP4 PUSH2 0x2F22 SWAP1 SWAP2 SWAP1 PUSH4 0xFFFFFFFF AND JUMP JUMPDEST DUP5 DUP5 PUSH1 0x8 SWAP2 DUP3 PUSH2 0x112A SWAP3 SWAP2 SWAP1 PUSH2 0x56A1 JUMP JUMPDEST POP PUSH2 0x1164 PUSH2 0x1137 DUP4 PUSH2 0x2F69 JUMP JUMPDEST DUP8 PUSH3 0x493E0 PUSH32 0x66756E2D657468657265756D2D7365706F6C69612D3100000000000000000000 PUSH0 SHL PUSH2 0x3374 JUMP JUMPDEST PUSH1 0x3 DUP2 SWAP1 SSTORE POP PUSH1 0x3 SLOAD SWAP3 POP POP POP SWAP4 SWAP3 POP POP POP JUMP JUMPDEST PUSH2 0x1180 PUSH2 0x3454 JUMP JUMPDEST PUSH20 0xFFFFFFFFFFFFFFFFFFFFFFFFFFFFFFFFFFFFFFFF AND DUP2 PUSH20 0xFFFFFFFFFFFFFFFFFFFFFFFFFFFFFFFFFFFFFFFF AND EQ PUSH2 0x11E4 JUMPI PUSH1 0x40 MLOAD PUSH32 0x6697B23200000000000000000000000000000000000000000000000000000000 DUP2 MSTORE PUSH1 0x4 ADD PUSH1 0x40 MLOAD DUP1 SWAP2 SUB SWAP1 REVERT JUMPDEST PUSH2 0x11EE DUP3 DUP3 PUSH2 0x345B JUMP JUMPDEST POP POP POP JUMP JUMPDEST PUSH1 0x4 DUP1 SLOAD PUSH2 0x1200 SWAP1 PUSH2 0x52FD JUMP JUMPDEST DUP1 PUSH1 0x1F ADD PUSH1 0x20 DUP1 SWAP2 DIV MUL PUSH1 0x20 ADD PUSH1 0x40 MLOAD SWAP1 DUP2 ADD PUSH1 0x40 MSTORE DUP1 SWAP3 SWAP2 SWAP1 DUP2 DUP2 MSTORE PUSH1 0x20 ADD DUP3 DUP1 SLOAD PUSH2 0x122C SWAP1 PUSH2 0x52FD JUMP JUMPDEST DUP1 ISZERO PUSH2 0x1277 JUMPI DUP1 PUSH1 0x1F LT PUSH2 0x124E JUMPI PUSH2 0x100 DUP1 DUP4 SLOAD DIV MUL DUP4 MSTORE SWAP2 PUSH1 0x20 ADD SWAP2 PUSH2 0x1277 JUMP JUMPDEST DUP3 ADD SWAP2 SWAP1 PUSH0 MSTORE PUSH1 0x20 PUSH0 KECCAK256 SWAP1 JUMPDEST DUP2 SLOAD DUP2 MSTORE SWAP1 PUSH1 0x1 ADD SWAP1 PUSH1 0x20 ADD DUP1 DUP4 GT PUSH2 0x125A JUMPI DUP3 SWAP1 SUB PUSH1 0x1F AND DUP3 ADD SWAP2 JUMPDEST POP POP POP POP POP DUP2 JUMP JUMPDEST PUSH1 0xF PUSH0 SWAP1 SLOAD SWAP1 PUSH2 0x100 EXP SWAP1 DIV PUSH20 0xFFFFFFFFFFFFFFFFFFFFFFFFFFFFFFFFFFFFFFFF AND DUP2 JUMP JUMPDEST PUSH1 0x5 DUP1 SLOAD PUSH2 0x12B1 SWAP1 PUSH2 0x52FD JUMP JUMPDEST DUP1 PUSH1 0x1F ADD PUSH1 0x20 DUP1 SWAP2 DIV MUL PUSH1 0x20 ADD PUSH1 0x40 MLOAD SWAP1 DUP2 ADD PUSH1 0x40 MSTORE DUP1 SWAP3 SWAP2 SWAP1 DUP2 DUP2 MSTORE PUSH1 0x20 ADD DUP3 DUP1 SLOAD PUSH2 0x12DD SWAP1 PUSH2 0x52FD JUMP JUMPDEST DUP1 ISZERO PUSH2 0x1328 JUMPI DUP1 PUSH1 0x1F LT PUSH2 0x12FF JUMPI PUSH2 0x100 DUP1 DUP4 SLOAD DIV MUL DUP4 MSTORE SWAP2 PUSH1 0x20 ADD SWAP2 PUSH2 0x1328 JUMP JUMPDEST DUP3 ADD SWAP2 SWAP1 PUSH0 MSTORE PUSH1 0x20 PUSH0 KECCAK256 SWAP1 JUMPDEST DUP2 SLOAD DUP2 MSTORE SWAP1 PUSH1 0x1 ADD SWAP1 PUSH1 0x20 ADD DUP1 DUP4 GT PUSH2 0x130B JUMPI DUP3 SWAP1 SUB PUSH1 0x1F AND DUP3 ADD SWAP2 JUMPDEST POP POP POP POP POP DUP2 JUMP JUMPDEST PUSH2 0x1338 PUSH2 0x2DD6 JUMP JUMPDEST PUSH2 0x1340 PUSH2 0x2E17 JUMP JUMPDEST PUSH0 DUP5 SUB PUSH2 0x1378 JUMPI PUSH1 0x40 MLOAD PUSH31 0xBFC92100000000000000000000000000000000000000000000000000000000 DUP2 MSTORE PUSH1 0x4 ADD PUSH1 0x40 MLOAD DUP1 SWAP2 SUB SWAP1 REVERT JUMPDEST PUSH1 0x10 SLOAD DUP4 LT DUP1 PUSH2 0x1389 JUMPI POP PUSH1 0x11 SLOAD DUP4 GT JUMPDEST ISZERO PUSH2 0x13C0 JUMPI PUSH1 0x40 MLOAD PUSH32 0x7616640100000000000000000000000000000000000000000000000000000000 DUP2 MSTORE PUSH1 0x4 ADD PUSH1 0x40 MLOAD DUP1 SWAP2 SUB SWAP1 REVERT JUMPDEST PUSH1 0x15 PUSH0 DUP8 PUSH20 0xFFFFFFFFFFFFFFFFFFFFFFFFFFFFFFFFFFFFFFFF AND PUSH20 0xFFFFFFFFFFFFFFFFFFFFFFFFFFFFFFFFFFFFFFFF AND DUP2 MSTORE PUSH1 0x20 ADD SWAP1 DUP2 MSTORE PUSH1 0x20 ADD PUSH0 KECCAK256 PUSH0 SWAP1 SLOAD SWAP1 PUSH2 0x100 EXP SWAP1 DIV PUSH1 0xFF AND PUSH2 0x1440 JUMPI PUSH1 0x40 MLOAD PUSH32 0x12F140A300000000000000000000000000000000000000000000000000000000 DUP2 MSTORE PUSH1 0x4 ADD PUSH1 0x40 MLOAD DUP1 SWAP2 SUB SWAP1 REVERT JUMPDEST PUSH0 PUSH1 0x14 PUSH0 DUP9 PUSH20 0xFFFFFFFFFFFFFFFFFFFFFFFFFFFFFFFFFFFFFFFF AND PUSH20 0xFFFFFFFFFFFFFFFFFFFFFFFFFFFFFFFFFFFFFFFF AND DUP2 MSTORE PUSH1 0x20 ADD SWAP1 DUP2 MSTORE PUSH1 0x20 ADD PUSH0 KECCAK256 PUSH0 DUP8 DUP2 MSTORE PUSH1 0x20 ADD SWAP1 DUP2 MSTORE PUSH1 0x20 ADD PUSH0 KECCAK256 SLOAD EQ PUSH2 0x14C5 JUMPI PUSH1 0x40 MLOAD PUSH32 0xDEAABDC200000000000000000000000000000000000000000000000000000000 DUP2 MSTORE PUSH1 0x4 ADD PUSH1 0x40 MLOAD DUP1 SWAP2 SUB SWAP1 REVERT JUMPDEST PUSH0 DUP3 DUP3 SWAP1 POP GT ISZERO PUSH2 0x15CF JUMPI PUSH0 PUSH1 0x17 DUP4 DUP4 PUSH1 0x40 MLOAD PUSH2 0x14E3 SWAP3 SWAP2 SWAP1 PUSH2 0x5792 JUMP JUMPDEST SWAP1 DUP2 MSTORE PUSH1 0x20 ADD PUSH1 0x40 MLOAD DUP1 SWAP2 SUB SWAP1 KECCAK256 PUSH0 SWAP1 SLOAD SWAP1 PUSH2 0x100 EXP SWAP1 DIV PUSH1 0xFF AND SWAP1 POP PUSH0 PUSH1 0x4 DUP2 GT ISZERO PUSH2 0x1513 JUMPI PUSH2 0x1512 PUSH2 0x5076 JUMP JUMPDEST JUMPDEST DUP2 PUSH1 0x4 DUP2 GT ISZERO PUSH2 0x1526 JUMPI PUSH2 0x1525 PUSH2 0x5076 JUMP JUMPDEST JUMPDEST EQ ISZERO DUP1 ISZERO PUSH2 0x1558 JUMPI POP PUSH1 0x4 DUP1 DUP2 GT ISZERO PUSH2 0x1542 JUMPI PUSH2 0x1541 PUSH2 0x5076 JUMP JUMPDEST JUMPDEST DUP2 PUSH1 0x4 DUP2 GT ISZERO PUSH2 0x1555 JUMPI PUSH2 0x1554 PUSH2 0x5076 JUMP JUMPDEST JUMPDEST EQ ISZERO JUMPDEST DUP1 ISZERO PUSH2 0x1589 JUMPI POP PUSH1 0x3 PUSH1 0x4 DUP2 GT ISZERO PUSH2 0x1573 JUMPI PUSH2 0x1572 PUSH2 0x5076 JUMP JUMPDEST JUMPDEST DUP2 PUSH1 0x4 DUP2 GT ISZERO PUSH2 0x1586 JUMPI PUSH2 0x1585 PUSH2 0x5076 JUMP JUMPDEST JUMPDEST EQ ISZERO JUMPDEST ISZERO PUSH2 0x15CD JUMPI DUP3 DUP3 PUSH1 0x40 MLOAD PUSH32 0xDB1FAAAF00000000000000000000000000000000000000000000000000000000 DUP2 MSTORE PUSH1 0x4 ADD PUSH2 0x15C4 SWAP3 SWAP2 SWAP1 PUSH2 0x54BA JUMP JUMPDEST PUSH1 0x40 MLOAD DUP1 SWAP2 SUB SWAP1 REVERT JUMPDEST POP JUMPDEST PUSH0 DUP7 SWAP1 POP CALLER PUSH20 0xFFFFFFFFFFFFFFFFFFFFFFFFFFFFFFFFFFFFFFFF AND DUP2 PUSH20 0xFFFFFFFFFFFFFFFFFFFFFFFFFFFFFFFFFFFFFFFF AND PUSH4 0x6352211E DUP9 PUSH1 0x40 MLOAD DUP3 PUSH4 0xFFFFFFFF AND PUSH1 0xE0 SHL DUP2 MSTORE PUSH1 0x4 ADD PUSH2 0x1623 SWAP2 SWAP1 PUSH2 0x4F63 JUMP JUMPDEST PUSH1 0x20 PUSH1 0x40 MLOAD DUP1 DUP4 SUB DUP2 DUP7 GAS STATICCALL ISZERO DUP1 ISZERO PUSH2 0x163E JUMPI RETURNDATASIZE PUSH0 PUSH0 RETURNDATACOPY RETURNDATASIZE PUSH0 REVERT JUMPDEST POP POP POP POP PUSH1 0x40 MLOAD RETURNDATASIZE PUSH1 0x1F NOT PUSH1 0x1F DUP3 ADD AND DUP3 ADD DUP1 PUSH1 0x40 MSTORE POP DUP2 ADD SWAP1 PUSH2 0x1662 SWAP2 SWAP1 PUSH2 0x57BE JUMP JUMPDEST PUSH20 0xFFFFFFFFFFFFFFFFFFFFFFFFFFFFFFFFFFFFFFFF AND EQ PUSH2 0x16AF JUMPI PUSH1 0x40 MLOAD PUSH32 0x59DC379F00000000000000000000000000000000000000000000000000000000 DUP2 MSTORE PUSH1 0x4 ADD PUSH1 0x40 MLOAD DUP1 SWAP2 SUB SWAP1 REVERT JUMPDEST DUP1 PUSH20 0xFFFFFFFFFFFFFFFFFFFFFFFFFFFFFFFFFFFFFFFF AND PUSH4 0xE985E9C5 CALLER ADDRESS PUSH1 0x40 MLOAD DUP4 PUSH4 0xFFFFFFFF AND PUSH1 0xE0 SHL DUP2 MSTORE PUSH1 0x4 ADD PUSH2 0x16EA SWAP3 SWAP2 SWAP1 PUSH2 0x57E9 JUMP JUMPDEST PUSH1 0x20 PUSH1 0x40 MLOAD DUP1 DUP4 SUB DUP2 DUP7 GAS STATICCALL ISZERO DUP1 ISZERO PUSH2 0x1705 JUMPI RETURNDATASIZE PUSH0 PUSH0 RETURNDATACOPY RETURNDATASIZE PUSH0 REVERT JUMPDEST POP POP POP POP PUSH1 0x40 MLOAD RETURNDATASIZE PUSH1 0x1F NOT PUSH1 0x1F DUP3 ADD AND DUP3 ADD DUP1 PUSH1 0x40 MSTORE POP DUP2 ADD SWAP1 PUSH2 0x1729 SWAP2 SWAP1 PUSH2 0x583A JUMP JUMPDEST ISZERO DUP1 ISZERO PUSH2 0x17D9 JUMPI POP ADDRESS PUSH20 0xFFFFFFFFFFFFFFFFFFFFFFFFFFFFFFFFFFFFFFFF AND DUP2 PUSH20 0xFFFFFFFFFFFFFFFFFFFFFFFFFFFFFFFFFFFFFFFF AND PUSH4 0x81812FC DUP9 PUSH1 0x40 MLOAD DUP3 PUSH4 0xFFFFFFFF AND PUSH1 0xE0 SHL DUP2 MSTORE PUSH1 0x4 ADD PUSH2 0x1781 SWAP2 SWAP1 PUSH2 0x4F63 JUMP JUMPDEST PUSH1 0x20 PUSH1 0x40 MLOAD DUP1 DUP4 SUB DUP2 DUP7 GAS STATICCALL ISZERO DUP1 ISZERO PUSH2 0x179C JUMPI RETURNDATASIZE PUSH0 PUSH0 RETURNDATACOPY RETURNDATASIZE PUSH0 REVERT JUMPDEST POP POP POP POP PUSH1 0x40 MLOAD RETURNDATASIZE PUSH1 0x1F NOT PUSH1 0x1F DUP3 ADD AND DUP3 ADD DUP1 PUSH1 0x40 MSTORE POP DUP2 ADD SWAP1 PUSH2 0x17C0 SWAP2 SWAP1 PUSH2 0x57BE JUMP JUMPDEST PUSH20 0xFFFFFFFFFFFFFFFFFFFFFFFFFFFFFFFFFFFFFFFF AND EQ ISZERO JUMPDEST ISZERO PUSH2 0x1810 JUMPI PUSH1 0x40 MLOAD PUSH32 0x32DA96A300000000000000000000000000000000000000000000000000000000 DUP2 MSTORE PUSH1 0x4 ADD PUSH1 0x40 MLOAD DUP1 SWAP2 SUB SWAP1 REVERT JUMPDEST PUSH0 DUP4 DUP4 SWAP1 POP GT ISZERO PUSH2 0x18D6 JUMPI PUSH0 DUP8 SWAP1 POP PUSH0 DUP2 PUSH20 0xFFFFFFFFFFFFFFFFFFFFFFFFFFFFFFFFFFFFFFFF AND PUSH4 0x3197CBB6 PUSH1 0x40 MLOAD DUP2 PUSH4 0xFFFFFFFF AND PUSH1 0xE0 SHL DUP2 MSTORE PUSH1 0x4 ADD PUSH1 0x20 PUSH1 0x40 MLOAD DUP1 DUP4 SUB DUP2 DUP7 GAS STATICCALL ISZERO DUP1 ISZERO PUSH2 0x1869 JUMPI RETURNDATASIZE PUSH0 PUSH0 RETURNDATACOPY RETURNDATASIZE PUSH0 REVERT JUMPDEST POP POP POP POP PUSH1 0x40 MLOAD RETURNDATASIZE PUSH1 0x1F NOT PUSH1 0x1F DUP3 ADD AND DUP3 ADD DUP1 PUSH1 0x40 MSTORE POP DUP2 ADD SWAP1 PUSH2 0x188D SWAP2 SWAP1 PUSH2 0x5879 JUMP JUMPDEST SWAP1 POP DUP1 PUSH8 0xFFFFFFFFFFFFFFFF AND TIMESTAMP GT ISZERO PUSH2 0x18D3 JUMPI PUSH1 0x40 MLOAD PUSH32 0x1963C37D00000000000000000000000000000000000000000000000000000000 DUP2 MSTORE PUSH1 0x4 ADD PUSH1 0x40 MLOAD DUP1 SWAP2 SUB SWAP1 REVERT JUMPDEST POP POP JUMPDEST PUSH2 0x18E0 PUSH1 0xD PUSH2 0x3553 JUMP JUMPDEST PUSH0 PUSH2 0x18EB PUSH1 0xD PUSH2 0x3567 JUMP JUMPDEST SWAP1 POP PUSH0 TIMESTAMP SWAP1 POP PUSH0 DUP7 DUP3 PUSH2 0x18FE SWAP2 SWAP1 PUSH2 0x58D1 JUMP JUMPDEST SWAP1 POP PUSH0 PUSH0 SWAP1 POP PUSH0 PUSH1 0x1 SWAP1 POP PUSH1 0x40 MLOAD DUP1 PUSH2 0x140 ADD PUSH1 0x40 MSTORE DUP1 DUP7 DUP2 MSTORE PUSH1 0x20 ADD DUP14 PUSH20 0xFFFFFFFFFFFFFFFFFFFFFFFFFFFFFFFFFFFFFFFF AND DUP2 MSTORE PUSH1 0x20 ADD DUP13 DUP2 MSTORE PUSH1 0x20 ADD CALLER PUSH20 0xFFFFFFFFFFFFFFFFFFFFFFFFFFFFFFFFFFFFFFFF AND DUP2 MSTORE PUSH1 0x20 ADD DUP12 DUP2 MSTORE PUSH1 0x20 ADD DUP6 DUP2 MSTORE PUSH1 0x20 ADD DUP5 DUP2 MSTORE PUSH1 0x20 ADD DUP4 ISZERO ISZERO DUP2 MSTORE PUSH1 0x20 ADD DUP10 DUP10 DUP1 DUP1 PUSH1 0x1F ADD PUSH1 0x20 DUP1 SWAP2 DIV MUL PUSH1 0x20 ADD PUSH1 0x40 MLOAD SWAP1 DUP2 ADD PUSH1 0x40 MSTORE DUP1 SWAP4 SWAP3 SWAP2 SWAP1 DUP2 DUP2 MSTORE PUSH1 0x20 ADD DUP4 DUP4 DUP1 DUP3 DUP5 CALLDATACOPY PUSH0 DUP2 DUP5 ADD MSTORE PUSH1 0x1F NOT PUSH1 0x1F DUP3 ADD AND SWAP1 POP DUP1 DUP4 ADD SWAP3 POP POP POP POP POP POP POP DUP2 MSTORE PUSH1 0x20 ADD DUP3 ISZERO ISZERO DUP2 MSTORE POP PUSH1 0x13 PUSH0 DUP8 DUP2 MSTORE PUSH1 0x20 ADD SWAP1 DUP2 MSTORE PUSH1 0x20 ADD PUSH0 KECCAK256 PUSH0 DUP3 ADD MLOAD DUP2 PUSH0 ADD SSTORE PUSH1 0x20 DUP3 ADD MLOAD DUP2 PUSH1 0x1 ADD PUSH0 PUSH2 0x100 EXP DUP2 SLOAD DUP2 PUSH20 0xFFFFFFFFFFFFFFFFFFFFFFFFFFFFFFFFFFFFFFFF MUL NOT AND SWAP1 DUP4 PUSH20 0xFFFFFFFFFFFFFFFFFFFFFFFFFFFFFFFFFFFFFFFF AND MUL OR SWAP1 SSTORE POP PUSH1 0x40 DUP3 ADD MLOAD DUP2 PUSH1 0x2 ADD SSTORE PUSH1 0x60 DUP3 ADD MLOAD DUP2 PUSH1 0x3 ADD PUSH0 PUSH2 0x100 EXP DUP2 SLOAD DUP2 PUSH20 0xFFFFFFFFFFFFFFFFFFFFFFFFFFFFFFFFFFFFFFFF MUL NOT AND SWAP1 DUP4 PUSH20 0xFFFFFFFFFFFFFFFFFFFFFFFFFFFFFFFFFFFFFFFF AND MUL OR SWAP1 SSTORE POP PUSH1 0x80 DUP3 ADD MLOAD DUP2 PUSH1 0x4 ADD SSTORE PUSH1 0xA0 DUP3 ADD MLOAD DUP2 PUSH1 0x5 ADD SSTORE PUSH1 0xC0 DUP3 ADD MLOAD DUP2 PUSH1 0x6 ADD SSTORE PUSH1 0xE0 DUP3 ADD MLOAD DUP2 PUSH1 0x7 ADD PUSH0 PUSH2 0x100 EXP DUP2 SLOAD DUP2 PUSH1 0xFF MUL NOT AND SWAP1 DUP4 ISZERO ISZERO MUL OR SWAP1 SSTORE POP PUSH2 0x100 DUP3 ADD MLOAD DUP2 PUSH1 0x8 ADD SWAP1 DUP2 PUSH2 0x1AC4 SWAP2 SWAP1 PUSH2 0x5904 JUMP JUMPDEST POP PUSH2 0x120 DUP3 ADD MLOAD DUP2 PUSH1 0x9 ADD PUSH0 PUSH2 0x100 EXP DUP2 SLOAD DUP2 PUSH1 0xFF MUL NOT AND SWAP1 DUP4 ISZERO ISZERO MUL OR SWAP1 SSTORE POP SWAP1 POP POP DUP5 PUSH1 0x14 PUSH0 DUP15 PUSH20 0xFFFFFFFFFFFFFFFFFFFFFFFFFFFFFFFFFFFFFFFF AND PUSH20 0xFFFFFFFFFFFFFFFFFFFFFFFFFFFFFFFFFFFFFFFF AND DUP2 MSTORE PUSH1 0x20 ADD SWAP1 DUP2 MSTORE PUSH1 0x20 ADD PUSH0 KECCAK256 PUSH0 DUP14 DUP2 MSTORE PUSH1 0x20 ADD SWAP1 DUP2 MSTORE PUSH1 0x20 ADD PUSH0 KECCAK256 DUP2 SWAP1 SSTORE POP PUSH0 DUP9 DUP9 SWAP1 POP GT ISZERO PUSH2 0x1C64 JUMPI DUP8 DUP8 PUSH1 0x16 PUSH0 DUP9 DUP2 MSTORE PUSH1 0x20 ADD SWAP1 DUP2 MSTORE PUSH1 0x20 ADD PUSH0 KECCAK256 SWAP2 DUP3 PUSH2 0x1B64 SWAP3 SWAP2 SWAP1 PUSH2 0x56A1 JUMP JUMPDEST POP PUSH1 0x1 PUSH1 0x17 DUP10 DUP10 PUSH1 0x40 MLOAD PUSH2 0x1B79 SWAP3 SWAP2 SWAP1 PUSH2 0x5792 JUMP JUMPDEST SWAP1 DUP2 MSTORE PUSH1 0x20 ADD PUSH1 0x40 MLOAD DUP1 SWAP2 SUB SWAP1 KECCAK256 PUSH0 PUSH2 0x100 EXP DUP2 SLOAD DUP2 PUSH1 0xFF MUL NOT AND SWAP1 DUP4 PUSH1 0x4 DUP2 GT ISZERO PUSH2 0x1BA8 JUMPI PUSH2 0x1BA7 PUSH2 0x5076 JUMP JUMPDEST JUMPDEST MUL OR SWAP1 SSTORE POP PUSH32 0x384A7354A96A31098438152E3BE618FCAFB335084CA123FBC6168A866F508241 DUP9 DUP9 PUSH1 0x1 PUSH1 0x40 MLOAD PUSH2 0x1BE1 SWAP4 SWAP3 SWAP2 SWAP1 PUSH2 0x59D3 JUMP JUMPDEST PUSH1 0x40 MLOAD DUP1 SWAP2 SUB SWAP1 LOG1 PUSH0 PUSH2 0x1C0A PUSH1 0x12 PUSH0 SWAP1 SLOAD SWAP1 PUSH2 0x100 EXP SWAP1 DIV PUSH8 0xFFFFFFFFFFFFFFFF AND DUP11 DUP11 PUSH2 0xF5D JUMP JUMPDEST SWAP1 POP DUP6 PUSH1 0x18 PUSH0 DUP4 DUP2 MSTORE PUSH1 0x20 ADD SWAP1 DUP2 MSTORE PUSH1 0x20 ADD PUSH0 KECCAK256 DUP2 SWAP1 SSTORE POP DUP6 PUSH32 0xCD78C6782F8DF7053DAB6D63BAEE24AE10FB919661AFDC7FD6D25F33F05A9CB7 DUP11 DUP11 DUP5 PUSH1 0x40 MLOAD PUSH2 0x1C56 SWAP4 SWAP3 SWAP2 SWAP1 PUSH2 0x5A03 JUMP JUMPDEST PUSH1 0x40 MLOAD DUP1 SWAP2 SUB SWAP1 LOG2 POP PUSH2 0x1CBC JUMP JUMPDEST PUSH1 0x1 PUSH1 0x13 PUSH0 DUP8 DUP2 MSTORE PUSH1 0x20 ADD SWAP1 DUP2 MSTORE PUSH1 0x20 ADD PUSH0 KECCAK256 PUSH1 0x7 ADD PUSH0 PUSH2 0x100 EXP DUP2 SLOAD DUP2 PUSH1 0xFF MUL NOT AND SWAP1 DUP4 ISZERO ISZERO MUL OR SWAP1 SSTORE POP PUSH0 PUSH1 0x13 PUSH0 DUP8 DUP2 MSTORE PUSH1 0x20 ADD SWAP1 DUP2 MSTORE PUSH1 0x20 ADD PUSH0 KECCAK256 PUSH1 0x9 ADD PUSH0 PUSH2 0x100 EXP DUP2 SLOAD DUP2 PUSH1 0xFF MUL NOT AND SWAP1 DUP4 ISZERO ISZERO MUL OR SWAP1 SSTORE POP JUMPDEST DUP11 DUP13 PUSH20 0xFFFFFFFFFFFFFFFFFFFFFFFFFFFFFFFFFFFFFFFF AND DUP7 PUSH32 0xA37311F4098F313D5CD60CBD3D848E0674622CD802B858A6F78467BE78C69539 CALLER DUP15 DUP10 DUP10 DUP16 DUP16 PUSH1 0x40 MLOAD PUSH2 0x1D0E SWAP7 SWAP6 SWAP5 SWAP4 SWAP3 SWAP2 SWAP1 PUSH2 0x5A33 JUMP JUMPDEST PUSH1 0x40 MLOAD DUP1 SWAP2 SUB SWAP1 LOG4 POP POP POP POP POP POP PUSH2 0x1D24 PUSH2 0x2E6B JUMP JUMPDEST POP POP POP POP POP POP JUMP JUMPDEST PUSH2 0x1D34 PUSH2 0x3573 JUMP JUMPDEST PUSH2 0x1D3D DUP3 PUSH2 0x3659 JUMP JUMPDEST PUSH2 0x1D47 DUP3 DUP3 PUSH2 0x3689 JUMP JUMPDEST POP POP JUMP JUMPDEST PUSH0 PUSH2 0x1D54 PUSH2 0x37A7 JUMP JUMPDEST PUSH32 0x360894A13BA1A3210667C828492DB98DCA3E2076CC3735A920A3CA505D382BBC PUSH0 SHL SWAP1 POP SWAP1 JUMP JUMPDEST PUSH0 PUSH0 PUSH1 0x14 PUSH0 DUP6 PUSH20 0xFFFFFFFFFFFFFFFFFFFFFFFFFFFFFFFFFFFFFFFF AND PUSH20 0xFFFFFFFFFFFFFFFFFFFFFFFFFFFFFFFFFFFFFFFF AND DUP2 MSTORE PUSH1 0x20 ADD SWAP1 DUP2 MSTORE PUSH1 0x20 ADD PUSH0 KECCAK256 PUSH0 DUP5 DUP2 MSTORE PUSH1 0x20 ADD SWAP1 DUP2 MSTORE PUSH1 0x20 ADD PUSH0 KECCAK256 SLOAD SWAP1 POP PUSH0 DUP2 SUB PUSH2 0x1DDD JUMPI PUSH0 SWAP2 POP POP PUSH2 0x1FB6 JUMP JUMPDEST PUSH0 PUSH1 0x13 PUSH0 DUP4 DUP2 MSTORE PUSH1 0x20 ADD SWAP1 DUP2 MSTORE PUSH1 0x20 ADD PUSH0 KECCAK256 PUSH1 0x40 MLOAD DUP1 PUSH2 0x140 ADD PUSH1 0x40 MSTORE SWAP1 DUP2 PUSH0 DUP3 ADD SLOAD DUP2 MSTORE PUSH1 0x20 ADD PUSH1 0x1 DUP3 ADD PUSH0 SWAP1 SLOAD SWAP1 PUSH2 0x100 EXP SWAP1 DIV PUSH20 0xFFFFFFFFFFFFFFFFFFFFFFFFFFFFFFFFFFFFFFFF AND PUSH20 0xFFFFFFFFFFFFFFFFFFFFFFFFFFFFFFFFFFFFFFFF AND PUSH20 0xFFFFFFFFFFFFFFFFFFFFFFFFFFFFFFFFFFFFFFFF AND DUP2 MSTORE PUSH1 0x20 ADD PUSH1 0x2 DUP3 ADD SLOAD DUP2 MSTORE PUSH1 0x20 ADD PUSH1 0x3 DUP3 ADD PUSH0 SWAP1 SLOAD SWAP1 PUSH2 0x100 EXP SWAP1 DIV PUSH20 0xFFFFFFFFFFFFFFFFFFFFFFFFFFFFFFFFFFFFFFFF AND PUSH20 0xFFFFFFFFFFFFFFFFFFFFFFFFFFFFFFFFFFFFFFFF AND PUSH20 0xFFFFFFFFFFFFFFFFFFFFFFFFFFFFFFFFFFFFFFFF AND DUP2 MSTORE PUSH1 0x20 ADD PUSH1 0x4 DUP3 ADD SLOAD DUP2 MSTORE PUSH1 0x20 ADD PUSH1 0x5 DUP3 ADD SLOAD DUP2 MSTORE PUSH1 0x20 ADD PUSH1 0x6 DUP3 ADD SLOAD DUP2 MSTORE PUSH1 0x20 ADD PUSH1 0x7 DUP3 ADD PUSH0 SWAP1 SLOAD SWAP1 PUSH2 0x100 EXP SWAP1 DIV PUSH1 0xFF AND ISZERO ISZERO ISZERO ISZERO DUP2 MSTORE PUSH1 0x20 ADD PUSH1 0x8 DUP3 ADD DUP1 SLOAD PUSH2 0x1F00 SWAP1 PUSH2 0x52FD JUMP JUMPDEST DUP1 PUSH1 0x1F ADD PUSH1 0x20 DUP1 SWAP2 DIV MUL PUSH1 0x20 ADD PUSH1 0x40 MLOAD SWAP1 DUP2 ADD PUSH1 0x40 MSTORE DUP1 SWAP3 SWAP2 SWAP1 DUP2 DUP2 MSTORE PUSH1 0x20 ADD DUP3 DUP1 SLOAD PUSH2 0x1F2C SWAP1 PUSH2 0x52FD JUMP JUMPDEST DUP1 ISZERO PUSH2 0x1F77 JUMPI DUP1 PUSH1 0x1F LT PUSH2 0x1F4E JUMPI PUSH2 0x100 DUP1 DUP4 SLOAD DIV MUL DUP4 MSTORE SWAP2 PUSH1 0x20 ADD SWAP2 PUSH2 0x1F77 JUMP JUMPDEST DUP3 ADD SWAP2 SWAP1 PUSH0 MSTORE PUSH1 0x20 PUSH0 KECCAK256 SWAP1 JUMPDEST DUP2 SLOAD DUP2 MSTORE SWAP1 PUSH1 0x1 ADD SWAP1 PUSH1 0x20 ADD DUP1 DUP4 GT PUSH2 0x1F5A JUMPI DUP3 SWAP1 SUB PUSH1 0x1F AND DUP3 ADD SWAP2 JUMPDEST POP POP POP POP POP DUP2 MSTORE PUSH1 0x20 ADD PUSH1 0x9 DUP3 ADD PUSH0 SWAP1 SLOAD SWAP1 PUSH2 0x100 EXP SWAP1 DIV PUSH1 0xFF AND ISZERO ISZERO ISZERO ISZERO DUP2 MSTORE POP POP SWAP1 POP DUP1 PUSH1 0xE0 ADD MLOAD DUP1 ISZERO PUSH2 0x1FB1 JUMPI POP DUP1 PUSH1 0xC0 ADD MLOAD TIMESTAMP GT ISZERO JUMPDEST SWAP3 POP POP POP JUMPDEST SWAP3 SWAP2 POP POP JUMP JUMPDEST PUSH0 PUSH1 0x7 DUP4 DUP4 PUSH1 0x40 MLOAD PUSH2 0x1FCF SWAP3 SWAP2 SWAP1 PUSH2 0x5792 JUMP JUMPDEST SWAP1 DUP2 MSTORE PUSH1 0x20 ADD PUSH1 0x40 MLOAD DUP1 SWAP2 SUB SWAP1 KECCAK256 PUSH0 SWAP1 SLOAD SWAP1 PUSH2 0x100 EXP SWAP1 DIV PUSH1 0xFF AND SWAP1 POP SWAP3 SWAP2 POP POP JUMP JUMPDEST PUSH0 PUSH0 PUSH2 0x1FFC PUSH2 0x382E JUMP JUMPDEST SWAP1 POP DUP1 PUSH0 ADD PUSH0 SWAP1 SLOAD SWAP1 PUSH2 0x100 EXP SWAP1 DIV PUSH1 0xFF AND SWAP2 POP POP SWAP1 JUMP JUMPDEST PUSH1 0x6 SLOAD DUP2 JUMP JUMPDEST PUSH0 PUSH2 0x2023 PUSH2 0x2E82 JUMP JUMPDEST PUSH2 0x202B PUSH2 0x45F3 JUMP JUMPDEST PUSH2 0x20C6 PUSH1 0xB DUP1 SLOAD PUSH2 0x203B SWAP1 PUSH2 0x52FD JUMP JUMPDEST DUP1 PUSH1 0x1F ADD PUSH1 0x20 DUP1 SWAP2 DIV MUL PUSH1 0x20 ADD PUSH1 0x40 MLOAD SWAP1 DUP2 ADD PUSH1 0x40 MSTORE DUP1 SWAP3 SWAP2 SWAP1 DUP2 DUP2 MSTORE PUSH1 0x20 ADD DUP3 DUP1 SLOAD PUSH2 0x2067 SWAP1 PUSH2 0x52FD JUMP JUMPDEST DUP1 ISZERO PUSH2 0x20B2 JUMPI DUP1 PUSH1 0x1F LT PUSH2 0x2089 JUMPI PUSH2 0x100 DUP1 DUP4 SLOAD DIV MUL DUP4 MSTORE SWAP2 PUSH1 0x20 ADD SWAP2 PUSH2 0x20B2 JUMP JUMPDEST DUP3 ADD SWAP2 SWAP1 PUSH0 MSTORE PUSH1 0x20 PUSH0 KECCAK256 SWAP1 JUMPDEST DUP2 SLOAD DUP2 MSTORE SWAP1 PUSH1 0x1 ADD SWAP1 PUSH1 0x20 ADD DUP1 DUP4 GT PUSH2 0x2095 JUMPI DUP3 SWAP1 SUB PUSH1 0x1F AND DUP3 ADD SWAP2 JUMPDEST POP POP POP POP POP DUP3 PUSH2 0x2F12 SWAP1 SWAP2 SWAP1 PUSH4 0xFFFFFFFF AND JUMP JUMPDEST PUSH0 DUP5 DUP5 SWAP1 POP GT ISZERO PUSH2 0x20F1 JUMPI PUSH2 0x20F0 DUP5 DUP5 SWAP1 PUSH2 0x20E1 SWAP2 SWAP1 PUSH2 0x5B3E JUMP JUMPDEST DUP3 PUSH2 0x2F22 SWAP1 SWAP2 SWAP1 PUSH4 0xFFFFFFFF AND JUMP JUMPDEST JUMPDEST PUSH2 0x212A PUSH2 0x20FD DUP3 PUSH2 0x2F69 JUMP JUMPDEST DUP7 PUSH3 0x493E0 PUSH32 0x66756E2D657468657265756D2D7365706F6C69612D3100000000000000000000 PUSH0 SHL PUSH2 0x3374 JUMP JUMPDEST PUSH1 0x3 DUP2 SWAP1 SSTORE POP PUSH1 0x3 SLOAD SWAP2 POP POP SWAP4 SWAP3 POP POP POP JUMP JUMPDEST PUSH1 0x1 PUSH0 SWAP1 SLOAD SWAP1 PUSH2 0x100 EXP SWAP1 DIV PUSH20 0xFFFFFFFFFFFFFFFFFFFFFFFFFFFFFFFFFFFFFFFF AND PUSH20 0xFFFFFFFFFFFFFFFFFFFFFFFFFFFFFFFFFFFFFFFF AND CALLER PUSH20 0xFFFFFFFFFFFFFFFFFFFFFFFFFFFFFFFFFFFFFFFF AND EQ PUSH2 0x21CC JUMPI PUSH1 0x40 MLOAD PUSH32 0x8C379A000000000000000000000000000000000000000000000000000000000 DUP2 MSTORE PUSH1 0x4 ADD PUSH2 0x21C3 SWAP1 PUSH2 0x5B9C JUMP JUMPDEST PUSH1 0x40 MLOAD DUP1 SWAP2 SUB SWAP1 REVERT JUMPDEST PUSH0 PUSH0 PUSH0 SWAP1 SLOAD SWAP1 PUSH2 0x100 EXP SWAP1 DIV PUSH20 0xFFFFFFFFFFFFFFFFFFFFFFFFFFFFFFFFFFFFFFFF AND SWAP1 POP CALLER PUSH0 PUSH0 PUSH2 0x100 EXP DUP2 SLOAD DUP2 PUSH20 0xFFFFFFFFFFFFFFFFFFFFFFFFFFFFFFFFFFFFFFFF MUL NOT AND SWAP1 DUP4 PUSH20 0xFFFFFFFFFFFFFFFFFFFFFFFFFFFFFFFFFFFFFFFF AND MUL OR SWAP1 SSTORE POP PUSH0 PUSH1 0x1 PUSH0 PUSH2 0x100 EXP DUP2 SLOAD DUP2 PUSH20 0xFFFFFFFFFFFFFFFFFFFFFFFFFFFFFFFFFFFFFFFF MUL NOT AND SWAP1 DUP4 PUSH20 0xFFFFFFFFFFFFFFFFFFFFFFFFFFFFFFFFFFFFFFFF AND MUL OR SWAP1 SSTORE POP CALLER PUSH20 0xFFFFFFFFFFFFFFFFFFFFFFFFFFFFFFFFFFFFFFFF AND DUP2 PUSH20 0xFFFFFFFFFFFFFFFFFFFFFFFFFFFFFFFFFFFFFFFF AND PUSH32 0x8BE0079C531659141344CD1FD0A4F28419497F9722A3DAAFE3B4186F6B6457E0 PUSH1 0x40 MLOAD PUSH1 0x40 MLOAD DUP1 SWAP2 SUB SWAP1 LOG3 POP JUMP JUMPDEST PUSH1 0xE SLOAD DUP2 JUMP JUMPDEST PUSH0 PUSH0 PUSH0 SWAP1 SLOAD SWAP1 PUSH2 0x100 EXP SWAP1 DIV PUSH20 0xFFFFFFFFFFFFFFFFFFFFFFFFFFFFFFFFFFFFFFFF AND SWAP1 POP SWAP1 JUMP JUMPDEST PUSH1 0x60 PUSH0 PUSH0 PUSH1 0x13 PUSH0 DUP6 DUP2 MSTORE PUSH1 0x20 ADD SWAP1 DUP2 MSTORE PUSH1 0x20 ADD PUSH0 KECCAK256 PUSH1 0x40 MLOAD DUP1 PUSH2 0x140 ADD PUSH1 0x40 MSTORE SWAP1 DUP2 PUSH0 DUP3 ADD SLOAD DUP2 MSTORE PUSH1 0x20 ADD PUSH1 0x1 DUP3 ADD PUSH0 SWAP1 SLOAD SWAP1 PUSH2 0x100 EXP SWAP1 DIV PUSH20 0xFFFFFFFFFFFFFFFFFFFFFFFFFFFFFFFFFFFFFFFF AND PUSH20 0xFFFFFFFFFFFFFFFFFFFFFFFFFFFFFFFFFFFFFFFF AND PUSH20 0xFFFFFFFFFFFFFFFFFFFFFFFFFFFFFFFFFFFFFFFF AND DUP2 MSTORE PUSH1 0x20 ADD PUSH1 0x2 DUP3 ADD SLOAD DUP2 MSTORE PUSH1 0x20 ADD PUSH1 0x3 DUP3 ADD PUSH0 SWAP1 SLOAD SWAP1 PUSH2 0x100 EXP SWAP1 DIV PUSH20 0xFFFFFFFFFFFFFFFFFFFFFFFFFFFFFFFFFFFFFFFF AND PUSH20 0xFFFFFFFFFFFFFFFFFFFFFFFFFFFFFFFFFFFFFFFF AND PUSH20 0xFFFFFFFFFFFFFFFFFFFFFFFFFFFFFFFFFFFFFFFF AND DUP2 MSTORE PUSH1 0x20 ADD PUSH1 0x4 DUP3 ADD SLOAD DUP2 MSTORE PUSH1 0x20 ADD PUSH1 0x5 DUP3 ADD SLOAD DUP2 MSTORE PUSH1 0x20 ADD PUSH1 0x6 DUP3 ADD SLOAD DUP2 MSTORE PUSH1 0x20 ADD PUSH1 0x7 DUP3 ADD PUSH0 SWAP1 SLOAD SWAP1 PUSH2 0x100 EXP SWAP1 DIV PUSH1 0xFF AND ISZERO ISZERO ISZERO ISZERO DUP2 MSTORE PUSH1 0x20 ADD PUSH1 0x8 DUP3 ADD DUP1 SLOAD PUSH2 0x241F SWAP1 PUSH2 0x52FD JUMP JUMPDEST DUP1 PUSH1 0x1F ADD PUSH1 0x20 DUP1 SWAP2 DIV MUL PUSH1 0x20 ADD PUSH1 0x40 MLOAD SWAP1 DUP2 ADD PUSH1 0x40 MSTORE DUP1 SWAP3 SWAP2 SWAP1 DUP2 DUP2 MSTORE PUSH1 0x20 ADD DUP3 DUP1 SLOAD PUSH2 0x244B SWAP1 PUSH2 0x52FD JUMP JUMPDEST DUP1 ISZERO PUSH2 0x2496 JUMPI DUP1 PUSH1 0x1F LT PUSH2 0x246D JUMPI PUSH2 0x100 DUP1 DUP4 SLOAD DIV MUL DUP4 MSTORE SWAP2 PUSH1 0x20 ADD SWAP2 PUSH2 0x2496 JUMP JUMPDEST DUP3 ADD SWAP2 SWAP1 PUSH0 MSTORE PUSH1 0x20 PUSH0 KECCAK256 SWAP1 JUMPDEST DUP2 SLOAD DUP2 MSTORE SWAP1 PUSH1 0x1 ADD SWAP1 PUSH1 0x20 ADD DUP1 DUP4 GT PUSH2 0x2479 JUMPI DUP3 SWAP1 SUB PUSH1 0x1F AND DUP3 ADD SWAP2 JUMPDEST POP POP POP POP POP DUP2 MSTORE PUSH1 0x20 ADD PUSH1 0x9 DUP3 ADD PUSH0 SWAP1 SLOAD SWAP1 PUSH2 0x100 EXP SWAP1 DIV PUSH1 0xFF AND ISZERO ISZERO ISZERO ISZERO DUP2 MSTORE POP POP SWAP1 POP DUP1 PUSH2 0x100 ADD MLOAD SWAP3 POP PUSH0 DUP4 MLOAD GT ISZERO PUSH2 0x24FA JUMPI PUSH1 0x17 DUP4 PUSH1 0x40 MLOAD PUSH2 0x24DC SWAP2 SWAP1 PUSH2 0x5BEA JUMP JUMPDEST SWAP1 DUP2 MSTORE PUSH1 0x20 ADD PUSH1 0x40 MLOAD DUP1 SWAP2 SUB SWAP1 KECCAK256 PUSH0 SWAP1 SLOAD SWAP1 PUSH2 0x100 EXP SWAP1 DIV PUSH1 0xFF AND SWAP2 POP JUMPDEST POP SWAP2 POP SWAP2 JUMP JUMPDEST PUSH0 PUSH0 PUSH2 0x250A PUSH2 0x2CA3 JUMP JUMPDEST SWAP1 POP DUP1 PUSH0 ADD PUSH0 DUP6 DUP2 MSTORE PUSH1 0x20 ADD SWAP1 DUP2 MSTORE PUSH1 0x20 ADD PUSH0 KECCAK256 PUSH0 ADD PUSH0 DUP5 PUSH20 0xFFFFFFFFFFFFFFFFFFFFFFFFFFFFFFFFFFFFFFFF AND PUSH20 0xFFFFFFFFFFFFFFFFFFFFFFFFFFFFFFFFFFFFFFFF AND DUP2 MSTORE PUSH1 0x20 ADD SWAP1 DUP2 MSTORE PUSH1 0x20 ADD PUSH0 KECCAK256 PUSH0 SWAP1 SLOAD SWAP1 PUSH2 0x100 EXP SWAP1 DIV PUSH1 0xFF AND SWAP2 POP POP SWAP3 SWAP2 POP POP JUMP JUMPDEST PUSH1 0x10 SLOAD DUP2 JUMP JUMPDEST PUSH0 PUSH0 SHL DUP2 JUMP JUMPDEST PUSH0 PUSH2 0x2586 PUSH2 0x3855 JUMP JUMPDEST SWAP1 POP PUSH0 DUP2 PUSH0 ADD PUSH1 0x8 SWAP1 SLOAD SWAP1 PUSH2 0x100 EXP SWAP1 DIV PUSH1 0xFF AND ISZERO SWAP1 POP PUSH0 DUP3 PUSH0 ADD PUSH0 SWAP1 SLOAD SWAP1 PUSH2 0x100 EXP SWAP1 DIV PUSH8 0xFFFFFFFFFFFFFFFF AND SWAP1 POP PUSH0 PUSH0 DUP3 PUSH8 0xFFFFFFFFFFFFFFFF AND EQ DUP1 ISZERO PUSH2 0x25CE JUMPI POP DUP3 JUMPDEST SWAP1 POP PUSH0 PUSH1 0x1 DUP4 PUSH8 0xFFFFFFFFFFFFFFFF AND EQ DUP1 ISZERO PUSH2 0x2601 JUMPI POP PUSH0 ADDRESS PUSH20 0xFFFFFFFFFFFFFFFFFFFFFFFFFFFFFFFFFFFFFFFF AND EXTCODESIZE EQ JUMPDEST SWAP1 POP DUP2 ISZERO DUP1 ISZERO PUSH2 0x260F JUMPI POP DUP1 ISZERO JUMPDEST ISZERO PUSH2 0x2646 JUMPI PUSH1 0x40 MLOAD PUSH32 0xF92EE8A900000000000000000000000000000000000000000000000000000000 DUP2 MSTORE PUSH1 0x4 ADD PUSH1 0x40 MLOAD DUP1 SWAP2 SUB SWAP1 REVERT JUMPDEST PUSH1 0x1 DUP6 PUSH0 ADD PUSH0 PUSH2 0x100 EXP DUP2 SLOAD DUP2 PUSH8 0xFFFFFFFFFFFFFFFF MUL NOT AND SWAP1 DUP4 PUSH8 0xFFFFFFFFFFFFFFFF AND MUL OR SWAP1 SSTORE POP DUP4 ISZERO PUSH2 0x2693 JUMPI PUSH1 0x1 DUP6 PUSH0 ADD PUSH1 0x8 PUSH2 0x100 EXP DUP2 SLOAD DUP2 PUSH1 0xFF MUL NOT AND SWAP1 DUP4 ISZERO ISZERO MUL OR SWAP1 SSTORE POP JUMPDEST PUSH0 PUSH20 0xFFFFFFFFFFFFFFFFFFFFFFFFFFFFFFFFFFFFFFFF AND DUP12 PUSH20 0xFFFFFFFFFFFFFFFFFFFFFFFFFFFFFFFFFFFFFFFF AND SUB PUSH2 0x26F8 JUMPI PUSH1 0x40 MLOAD PUSH32 0xD92E233D00000000000000000000000000000000000000000000000000000000 DUP2 MSTORE PUSH1 0x4 ADD PUSH1 0x40 MLOAD DUP1 SWAP2 SUB SWAP1 REVERT JUMPDEST PUSH2 0x3E8 DUP11 GT ISZERO PUSH2 0x2734 JUMPI PUSH1 0x40 MLOAD PUSH32 0x8A81D3B300000000000000000000000000000000000000000000000000000000 DUP2 MSTORE PUSH1 0x4 ADD PUSH1 0x40 MLOAD DUP1 SWAP2 SUB SWAP1 REVERT JUMPDEST PUSH0 DUP10 EQ DUP1 PUSH2 0x2742 JUMPI POP DUP9 DUP9 GT ISZERO JUMPDEST ISZERO PUSH2 0x2779 JUMPI PUSH1 0x40 MLOAD PUSH32 0x7616640100000000000000000000000000000000000000000000000000000000 DUP2 MSTORE PUSH1 0x4 ADD PUSH1 0x40 MLOAD DUP1 SWAP2 SUB SWAP1 REVERT JUMPDEST PUSH2 0x2781 PUSH2 0x3868 JUMP JUMPDEST PUSH2 0x2789 PUSH2 0x38E9 JUMP JUMPDEST PUSH2 0x2791 PUSH2 0x38FB JUMP JUMPDEST PUSH2 0x279A DUP8 PUSH2 0x3905 JUMP JUMPDEST PUSH2 0x27A3 CALLER PUSH2 0x3948 JUMP JUMPDEST DUP11 PUSH1 0xF PUSH0 PUSH2 0x100 EXP DUP2 SLOAD DUP2 PUSH20 0xFFFFFFFFFFFFFFFFFFFFFFFFFFFFFFFFFFFFFFFF MUL NOT AND SWAP1 DUP4 PUSH20 0xFFFFFFFFFFFFFFFFFFFFFFFFFFFFFFFFFFFFFFFF AND MUL OR SWAP1 SSTORE POP DUP10 PUSH1 0xE DUP2 SWAP1 SSTORE POP DUP9 PUSH1 0x10 DUP2 SWAP1 SSTORE POP DUP8 PUSH1 0x11 DUP2 SWAP1 SSTORE POP DUP6 PUSH1 0x12 PUSH0 PUSH2 0x100 EXP DUP2 SLOAD DUP2 PUSH8 0xFFFFFFFFFFFFFFFF MUL NOT AND SWAP1 DUP4 PUSH8 0xFFFFFFFFFFFFFFFF AND MUL OR SWAP1 SSTORE POP DUP4 ISZERO PUSH2 0x287A JUMPI PUSH0 DUP6 PUSH0 ADD PUSH1 0x8 PUSH2 0x100 EXP DUP2 SLOAD DUP2 PUSH1 0xFF MUL NOT AND SWAP1 DUP4 ISZERO ISZERO MUL OR SWAP1 SSTORE POP PUSH32 0xC7F505B2F371AE2175EE4913F4499E1F2633A7B5936321EED1CDAEB6115181D2 PUSH1 0x1 PUSH1 0x40 MLOAD PUSH2 0x2871 SWAP2 SWAP1 PUSH2 0x5C39 JUMP JUMPDEST PUSH1 0x40 MLOAD DUP1 SWAP2 SUB SWAP1 LOG1 JUMPDEST POP POP POP POP POP POP POP POP POP POP POP JUMP JUMPDEST PUSH0 PUSH2 0x2890 PUSH2 0x39F8 JUMP JUMPDEST SWAP1 POP SWAP1 JUMP JUMPDEST PUSH1 0x40 MLOAD DUP1 PUSH1 0x40 ADD PUSH1 0x40 MSTORE DUP1 PUSH1 0x5 DUP2 MSTORE PUSH1 0x20 ADD PUSH32 0x352E302E30000000000000000000000000000000000000000000000000000000 DUP2 MSTORE POP DUP2 JUMP JUMPDEST PUSH1 0x7 DUP2 DUP1 MLOAD PUSH1 0x20 DUP2 ADD DUP3 ADD DUP1 MLOAD DUP5 DUP3 MSTORE PUSH1 0x20 DUP4 ADD PUSH1 0x20 DUP6 ADD KECCAK256 DUP2 DUP4 MSTORE DUP1 SWAP6 POP POP POP POP POP POP PUSH0 SWAP2 POP SLOAD SWAP1 PUSH2 0x100 EXP SWAP1 DIV PUSH1 0xFF AND DUP2 JUMP JUMPDEST PUSH1 0x3 SLOAD DUP2 JUMP JUMPDEST PUSH1 0x15 PUSH1 0x20 MSTORE DUP1 PUSH0 MSTORE PUSH1 0x40 PUSH0 KECCAK256 PUSH0 SWAP2 POP SLOAD SWAP1 PUSH2 0x100 EXP SWAP1 DIV PUSH1 0xFF AND DUP2 JUMP JUMPDEST PUSH0 PUSH2 0x2931 PUSH1 0xD PUSH2 0x3567 JUMP JUMPDEST SWAP1 POP SWAP1 JUMP JUMPDEST PUSH2 0x293F DUP3 PUSH2 0xC60 JUMP JUMPDEST PUSH2 0x2948 DUP2 PUSH2 0x2CCA JUMP JUMPDEST PUSH2 0x2952 DUP4 DUP4 PUSH2 0x345B JUMP JUMPDEST POP POP POP POP JUMP JUMPDEST PUSH1 0x11 SLOAD DUP2 JUMP JUMPDEST PUSH2 0x2966 PUSH2 0x2E82 JUMP JUMPDEST PUSH2 0x296F DUP2 PUSH2 0x3A4B JUMP JUMPDEST POP JUMP JUMPDEST PUSH1 0x8 DUP1 SLOAD PUSH2 0x297F SWAP1 PUSH2 0x52FD JUMP JUMPDEST DUP1 PUSH1 0x1F ADD PUSH1 0x20 DUP1 SWAP2 DIV MUL PUSH1 0x20 ADD PUSH1 0x40 MLOAD SWAP1 DUP2 ADD PUSH1 0x40 MSTORE DUP1 SWAP3 SWAP2 SWAP1 DUP2 DUP2 MSTORE PUSH1 0x20 ADD DUP3 DUP1 SLOAD PUSH2 0x29AB SWAP1 PUSH2 0x52FD JUMP JUMPDEST DUP1 ISZERO PUSH2 0x29F6 JUMPI DUP1 PUSH1 0x1F LT PUSH2 0x29CD JUMPI PUSH2 0x100 DUP1 DUP4 SLOAD DIV MUL DUP4 MSTORE SWAP2 PUSH1 0x20 ADD SWAP2 PUSH2 0x29F6 JUMP JUMPDEST DUP3 ADD SWAP2 SWAP1 PUSH0 MSTORE PUSH1 0x20 PUSH0 KECCAK256 SWAP1 JUMPDEST DUP2 SLOAD DUP2 MSTORE SWAP1 PUSH1 0x1 ADD SWAP1 PUSH1 0x20 ADD DUP1 DUP4 GT PUSH2 0x29D9 JUMPI DUP3 SWAP1 SUB PUSH1 0x1F AND DUP3 ADD SWAP2 JUMPDEST POP POP POP POP POP DUP2 JUMP JUMPDEST PUSH0 PUSH32 0x1FFC9A700000000000000000000000000000000000000000000000000000000 PUSH28 0xFFFFFFFFFFFFFFFFFFFFFFFFFFFFFFFFFFFFFFFFFFFFFFFFFFFFFFFF NOT AND DUP3 PUSH28 0xFFFFFFFFFFFFFFFFFFFFFFFFFFFFFFFFFFFFFFFFFFFFFFFFFFFFFFFF NOT AND EQ SWAP1 POP SWAP2 SWAP1 POP JUMP JUMPDEST PUSH1 0x3 SLOAD DUP4 EQ PUSH2 0x2AAD JUMPI DUP3 PUSH1 0x40 MLOAD PUSH32 0xD068BF5B00000000000000000000000000000000000000000000000000000000 DUP2 MSTORE PUSH1 0x4 ADD PUSH2 0x2AA4 SWAP2 SWAP1 PUSH2 0x4BDC JUMP JUMPDEST PUSH1 0x40 MLOAD DUP1 SWAP2 SUB SWAP1 REVERT JUMPDEST DUP2 PUSH1 0x4 SWAP1 DUP2 PUSH2 0x2ABC SWAP2 SWAP1 PUSH2 0x5CAA JUMP JUMPDEST POP DUP1 PUSH1 0x5 SWAP1 DUP2 PUSH2 0x2ACC SWAP2 SWAP1 PUSH2 0x5CAA JUMP JUMPDEST POP PUSH0 PUSH1 0x8 DUP1 SLOAD PUSH2 0x2ADB SWAP1 PUSH2 0x52FD JUMP JUMPDEST SWAP1 POP GT ISZERO PUSH2 0x2C2D JUMPI PUSH0 DUP2 MLOAD EQ DUP1 ISZERO PUSH2 0x2AF5 JUMPI POP PUSH1 0x20 DUP3 MLOAD LT ISZERO JUMPDEST ISZERO PUSH2 0x2BCA JUMPI PUSH0 DUP3 DUP1 PUSH1 0x20 ADD SWAP1 MLOAD DUP2 ADD SWAP1 PUSH2 0x2B0F SWAP2 SWAP1 PUSH2 0x5D8D JUMP JUMPDEST SWAP1 POP PUSH0 PUSH0 DUP3 GT SWAP1 POP DUP1 PUSH1 0x7 PUSH1 0x8 PUSH1 0x40 MLOAD PUSH2 0x2B29 SWAP2 SWAP1 PUSH2 0x53C9 JUMP JUMPDEST SWAP1 DUP2 MSTORE PUSH1 0x20 ADD PUSH1 0x40 MLOAD DUP1 SWAP2 SUB SWAP1 KECCAK256 PUSH0 PUSH2 0x100 EXP DUP2 SLOAD DUP2 PUSH1 0xFF MUL NOT AND SWAP1 DUP4 ISZERO ISZERO MUL OR SWAP1 SSTORE POP DUP1 PUSH1 0x9 PUSH0 PUSH2 0x100 EXP DUP2 SLOAD DUP2 PUSH1 0xFF MUL NOT AND SWAP1 DUP4 ISZERO ISZERO MUL OR SWAP1 SSTORE POP DUP5 PUSH32 0x99F873583FDE66FFFEE5947D1FA2F03D1CF170FC1C8E52E588CF428476733867 PUSH1 0x8 DUP4 DUP8 DUP8 PUSH1 0x40 MLOAD PUSH2 0x2B9D SWAP5 SWAP4 SWAP3 SWAP2 SWAP1 PUSH2 0x5DB8 JUMP JUMPDEST PUSH1 0x40 MLOAD DUP1 SWAP2 SUB SWAP1 LOG2 PUSH1 0x40 MLOAD DUP1 PUSH1 0x20 ADD PUSH1 0x40 MSTORE DUP1 PUSH0 DUP2 MSTORE POP PUSH1 0x8 SWAP1 DUP2 PUSH2 0x2BC2 SWAP2 SWAP1 PUSH2 0x5904 JUMP JUMPDEST POP POP POP PUSH2 0x2C28 JUMP JUMPDEST DUP3 PUSH32 0x99F873583FDE66FFFEE5947D1FA2F03D1CF170FC1C8E52E588CF428476733867 PUSH1 0x8 PUSH0 DUP6 DUP6 PUSH1 0x40 MLOAD PUSH2 0x2C01 SWAP5 SWAP4 SWAP3 SWAP2 SWAP1 PUSH2 0x5DB8 JUMP JUMPDEST PUSH1 0x40 MLOAD DUP1 SWAP2 SUB SWAP1 LOG2 PUSH1 0x40 MLOAD DUP1 PUSH1 0x20 ADD PUSH1 0x40 MSTORE DUP1 PUSH0 DUP2 MSTORE POP PUSH1 0x8 SWAP1 DUP2 PUSH2 0x2C26 SWAP2 SWAP1 PUSH2 0x5904 JUMP JUMPDEST POP JUMPDEST PUSH2 0x2C9E JUMP JUMPDEST PUSH0 DUP2 MLOAD EQ DUP1 ISZERO PUSH2 0x2C3F JUMPI POP PUSH1 0x20 DUP3 MLOAD LT ISZERO JUMPDEST ISZERO PUSH2 0x2C5F JUMPI DUP2 DUP1 PUSH1 0x20 ADD SWAP1 MLOAD DUP2 ADD SWAP1 PUSH2 0x2C58 SWAP2 SWAP1 PUSH2 0x5D8D JUMP JUMPDEST PUSH1 0x6 DUP2 SWAP1 SSTORE POP JUMPDEST DUP3 PUSH32 0xFC03B1503ACD478FAF9C08107596F6D5C04B4591FEA84F8D6F21BDF613B5370E PUSH1 0x6 SLOAD DUP5 DUP5 PUSH1 0x40 MLOAD PUSH2 0x2C95 SWAP4 SWAP3 SWAP2 SWAP1 PUSH2 0x5E10 JUMP JUMPDEST PUSH1 0x40 MLOAD DUP1 SWAP2 SUB SWAP1 LOG2 JUMPDEST POP POP POP JUMP JUMPDEST PUSH0 PUSH32 0x2DD7BC7DEC4DCEEDDA775E58DD541E08A116C6C53815C0BD028192F7B626800 SWAP1 POP SWAP1 JUMP JUMPDEST PUSH2 0x2CDB DUP2 PUSH2 0x2CD6 PUSH2 0x3454 JUMP JUMPDEST PUSH2 0x3B76 JUMP JUMPDEST POP JUMP JUMPDEST PUSH0 PUSH0 PUSH2 0x2CE8 PUSH2 0x2CA3 JUMP JUMPDEST SWAP1 POP PUSH2 0x2CF4 DUP5 DUP5 PUSH2 0x2500 JUMP JUMPDEST PUSH2 0x2DCB JUMPI PUSH1 0x1 DUP2 PUSH0 ADD PUSH0 DUP7 DUP2 MSTORE PUSH1 0x20 ADD SWAP1 DUP2 MSTORE PUSH1 0x20 ADD PUSH0 KECCAK256 PUSH0 ADD PUSH0 DUP6 PUSH20 0xFFFFFFFFFFFFFFFFFFFFFFFFFFFFFFFFFFFFFFFF AND PUSH20 0xFFFFFFFFFFFFFFFFFFFFFFFFFFFFFFFFFFFFFFFF AND DUP2 MSTORE PUSH1 0x20 ADD SWAP1 DUP2 MSTORE PUSH1 0x20 ADD PUSH0 KECCAK256 PUSH0 PUSH2 0x100 EXP DUP2 SLOAD DUP2 PUSH1 0xFF MUL NOT AND SWAP1 DUP4 ISZERO ISZERO MUL OR SWAP1 SSTORE POP PUSH2 0x2D67 PUSH2 0x3454 JUMP JUMPDEST PUSH20 0xFFFFFFFFFFFFFFFFFFFFFFFFFFFFFFFFFFFFFFFF AND DUP4 PUSH20 0xFFFFFFFFFFFFFFFFFFFFFFFFFFFFFFFFFFFFFFFF AND DUP6 PUSH32 0x2F8788117E7EFF1D82E926EC794901D17C78024A50270940304540A733656F0D PUSH1 0x40 MLOAD PUSH1 0x40 MLOAD DUP1 SWAP2 SUB SWAP1 LOG4 PUSH1 0x1 SWAP2 POP POP PUSH2 0x2DD0 JUMP JUMPDEST PUSH0 SWAP2 POP POP JUMPDEST SWAP3 SWAP2 POP POP JUMP JUMPDEST PUSH2 0x2DDE PUSH2 0x1FF2 JUMP JUMPDEST ISZERO PUSH2 0x2E15 JUMPI PUSH1 0x40 MLOAD PUSH32 0xD93C066500000000000000000000000000000000000000000000000000000000 DUP2 MSTORE PUSH1 0x4 ADD PUSH1 0x40 MLOAD DUP1 SWAP2 SUB SWAP1 REVERT JUMPDEST JUMP JUMPDEST PUSH0 PUSH2 0x2E20 PUSH2 0x3BC7 JUMP JUMPDEST SWAP1 POP PUSH1 0x2 DUP2 PUSH0 ADD SLOAD SUB PUSH2 0x2E5F JUMPI PUSH1 0x40 MLOAD PUSH32 0x3EE5AEB500000000000000000000000000000000000000000000000000000000 DUP2 MSTORE PUSH1 0x4 ADD PUSH1 0x40 MLOAD DUP1 SWAP2 SUB SWAP1 REVERT JUMPDEST PUSH1 0x2 DUP2 PUSH0 ADD DUP2 SWAP1 SSTORE POP POP JUMP JUMPDEST PUSH0 PUSH2 0x2E74 PUSH2 0x3BC7 JUMP JUMPDEST SWAP1 POP PUSH1 0x1 DUP2 PUSH0 ADD DUP2 SWAP1 SSTORE POP POP JUMP JUMPDEST PUSH0 PUSH0 SWAP1 SLOAD SWAP1 PUSH2 0x100 EXP SWAP1 DIV PUSH20 0xFFFFFFFFFFFFFFFFFFFFFFFFFFFFFFFFFFFFFFFF AND PUSH20 0xFFFFFFFFFFFFFFFFFFFFFFFFFFFFFFFFFFFFFFFF AND CALLER PUSH20 0xFFFFFFFFFFFFFFFFFFFFFFFFFFFFFFFFFFFFFFFF AND EQ PUSH2 0x2F10 JUMPI PUSH1 0x40 MLOAD PUSH32 0x8C379A000000000000000000000000000000000000000000000000000000000 DUP2 MSTORE PUSH1 0x4 ADD PUSH2 0x2F07 SWAP1 PUSH2 0x5E9D JUMP JUMPDEST PUSH1 0x40 MLOAD DUP1 SWAP2 SUB SWAP1 REVERT JUMPDEST JUMP JUMPDEST PUSH2 0x2F1E DUP3 PUSH0 PUSH0 DUP5 PUSH2 0x3BEE JUMP JUMPDEST POP POP JUMP JUMPDEST PUSH0 DUP2 MLOAD SUB PUSH2 0x2F5C JUMPI PUSH1 0x40 MLOAD PUSH32 0xFE936CB700000000000000000000000000000000000000000000000000000000 DUP2 MSTORE PUSH1 0x4 ADD PUSH1 0x40 MLOAD DUP1 SWAP2 SUB SWAP1 REVERT JUMPDEST DUP1 DUP3 PUSH1 0xA0 ADD DUP2 SWAP1 MSTORE POP POP POP JUMP JUMPDEST PUSH1 0x60 PUSH0 PUSH2 0x2F77 PUSH2 0x100 PUSH2 0x3C94 JUMP JUMPDEST SWAP1 POP PUSH2 0x2FC1 PUSH1 0x40 MLOAD DUP1 PUSH1 0x40 ADD PUSH1 0x40 MSTORE DUP1 PUSH1 0xC DUP2 MSTORE PUSH1 0x20 ADD PUSH32 0x636F64654C6F636174696F6E0000000000000000000000000000000000000000 DUP2 MSTORE POP DUP3 PUSH2 0x3CB9 SWAP1 SWAP2 SWAP1 PUSH4 0xFFFFFFFF AND JUMP JUMPDEST PUSH2 0x2FE9 DUP4 PUSH0 ADD MLOAD PUSH1 0x2 DUP2 GT ISZERO PUSH2 0x2FDA JUMPI PUSH2 0x2FD9 PUSH2 0x5076 JUMP JUMPDEST JUMPDEST DUP3 PUSH2 0x3CE1 SWAP1 SWAP2 SWAP1 PUSH4 0xFFFFFFFF AND JUMP JUMPDEST PUSH2 0x3031 PUSH1 0x40 MLOAD DUP1 PUSH1 0x40 ADD PUSH1 0x40 MSTORE DUP1 PUSH1 0x8 DUP2 MSTORE PUSH1 0x20 ADD PUSH32 0x6C616E6775616765000000000000000000000000000000000000000000000000 DUP2 MSTORE POP DUP3 PUSH2 0x3CB9 SWAP1 SWAP2 SWAP1 PUSH4 0xFFFFFFFF AND JUMP JUMPDEST PUSH2 0x3059 DUP4 PUSH1 0x40 ADD MLOAD PUSH0 DUP2 GT ISZERO PUSH2 0x304A JUMPI PUSH2 0x3049 PUSH2 0x5076 JUMP JUMPDEST JUMPDEST DUP3 PUSH2 0x3CE1 SWAP1 SWAP2 SWAP1 PUSH4 0xFFFFFFFF AND JUMP JUMPDEST PUSH2 0x30A1 PUSH1 0x40 MLOAD DUP1 PUSH1 0x40 ADD PUSH1 0x40 MSTORE DUP1 PUSH1 0x6 DUP2 MSTORE PUSH1 0x20 ADD PUSH32 0x736F757263650000000000000000000000000000000000000000000000000000 DUP2 MSTORE POP DUP3 PUSH2 0x3CB9 SWAP1 SWAP2 SWAP1 PUSH4 0xFFFFFFFF AND JUMP JUMPDEST PUSH2 0x30B8 DUP4 PUSH1 0x60 ADD MLOAD DUP3 PUSH2 0x3CB9 SWAP1 SWAP2 SWAP1 PUSH4 0xFFFFFFFF AND JUMP JUMPDEST PUSH0 DUP4 PUSH1 0xA0 ADD MLOAD MLOAD GT ISZERO PUSH2 0x316F JUMPI PUSH2 0x310D PUSH1 0x40 MLOAD DUP1 PUSH1 0x40 ADD PUSH1 0x40 MSTORE DUP1 PUSH1 0x4 DUP2 MSTORE PUSH1 0x20 ADD PUSH32 0x6172677300000000000000000000000000000000000000000000000000000000 DUP2 MSTORE POP DUP3 PUSH2 0x3CB9 SWAP1 SWAP2 SWAP1 PUSH4 0xFFFFFFFF AND JUMP JUMPDEST PUSH2 0x3116 DUP2 PUSH2 0x3D30 JUMP JUMPDEST PUSH0 PUSH0 SWAP1 POP JUMPDEST DUP4 PUSH1 0xA0 ADD MLOAD MLOAD DUP2 LT ISZERO PUSH2 0x3164 JUMPI PUSH2 0x3159 DUP5 PUSH1 0xA0 ADD MLOAD DUP3 DUP2 MLOAD DUP2 LT PUSH2 0x3142 JUMPI PUSH2 0x3141 PUSH2 0x54DC JUMP JUMPDEST JUMPDEST PUSH1 0x20 MUL PUSH1 0x20 ADD ADD MLOAD DUP4 PUSH2 0x3CB9 SWAP1 SWAP2 SWAP1 PUSH4 0xFFFFFFFF AND JUMP JUMPDEST DUP1 PUSH1 0x1 ADD SWAP1 POP PUSH2 0x311B JUMP JUMPDEST POP PUSH2 0x316E DUP2 PUSH2 0x3D58 JUMP JUMPDEST JUMPDEST PUSH0 DUP4 PUSH1 0x80 ADD MLOAD MLOAD GT ISZERO PUSH2 0x32AE JUMPI PUSH0 PUSH1 0x2 DUP2 GT ISZERO PUSH2 0x318F JUMPI PUSH2 0x318E PUSH2 0x5076 JUMP JUMPDEST JUMPDEST DUP4 PUSH1 0x20 ADD MLOAD PUSH1 0x2 DUP2 GT ISZERO PUSH2 0x31A6 JUMPI PUSH2 0x31A5 PUSH2 0x5076 JUMP JUMPDEST JUMPDEST SUB PUSH2 0x31DD JUMPI PUSH1 0x40 MLOAD PUSH32 0xA80D31F700000000000000000000000000000000000000000000000000000000 DUP2 MSTORE PUSH1 0x4 ADD PUSH1 0x40 MLOAD DUP1 SWAP2 SUB SWAP1 REVERT JUMPDEST PUSH2 0x3225 PUSH1 0x40 MLOAD DUP1 PUSH1 0x40 ADD PUSH1 0x40 MSTORE DUP1 PUSH1 0xF DUP2 MSTORE PUSH1 0x20 ADD PUSH32 0x736563726574734C6F636174696F6E0000000000000000000000000000000000 DUP2 MSTORE POP DUP3 PUSH2 0x3CB9 SWAP1 SWAP2 SWAP1 PUSH4 0xFFFFFFFF AND JUMP JUMPDEST PUSH2 0x324E DUP4 PUSH1 0x20 ADD MLOAD PUSH1 0x2 DUP2 GT ISZERO PUSH2 0x323F JUMPI PUSH2 0x323E PUSH2 0x5076 JUMP JUMPDEST JUMPDEST DUP3 PUSH2 0x3CE1 SWAP1 SWAP2 SWAP1 PUSH4 0xFFFFFFFF AND JUMP JUMPDEST PUSH2 0x3296 PUSH1 0x40 MLOAD DUP1 PUSH1 0x40 ADD PUSH1 0x40 MSTORE DUP1 PUSH1 0x7 DUP2 MSTORE PUSH1 0x20 ADD PUSH32 0x7365637265747300000000000000000000000000000000000000000000000000 DUP2 MSTORE POP DUP3 PUSH2 0x3CB9 SWAP1 SWAP2 SWAP1 PUSH4 0xFFFFFFFF AND JUMP JUMPDEST PUSH2 0x32AD DUP4 PUSH1 0x80 ADD MLOAD DUP3 PUSH2 0x3D80 SWAP1 SWAP2 SWAP1 PUSH4 0xFFFFFFFF AND JUMP JUMPDEST JUMPDEST PUSH0 DUP4 PUSH1 0xC0 ADD MLOAD MLOAD GT ISZERO PUSH2 0x3365 JUMPI PUSH2 0x3303 PUSH1 0x40 MLOAD DUP1 PUSH1 0x40 ADD PUSH1 0x40 MSTORE DUP1 PUSH1 0x9 DUP2 MSTORE PUSH1 0x20 ADD PUSH32 0x6279746573417267730000000000000000000000000000000000000000000000 DUP2 MSTORE POP DUP3 PUSH2 0x3CB9 SWAP1 SWAP2 SWAP1 PUSH4 0xFFFFFFFF AND JUMP JUMPDEST PUSH2 0x330C DUP2 PUSH2 0x3D30 JUMP JUMPDEST PUSH0 PUSH0 SWAP1 POP JUMPDEST DUP4 PUSH1 0xC0 ADD MLOAD MLOAD DUP2 LT ISZERO PUSH2 0x335A JUMPI PUSH2 0x334F DUP5 PUSH1 0xC0 ADD MLOAD DUP3 DUP2 MLOAD DUP2 LT PUSH2 0x3338 JUMPI PUSH2 0x3337 PUSH2 0x54DC JUMP JUMPDEST JUMPDEST PUSH1 0x20 MUL PUSH1 0x20 ADD ADD MLOAD DUP4 PUSH2 0x3D80 SWAP1 SWAP2 SWAP1 PUSH4 0xFFFFFFFF AND JUMP JUMPDEST DUP1 PUSH1 0x1 ADD SWAP1 POP PUSH2 0x3311 JUMP JUMPDEST POP PUSH2 0x3364 DUP2 PUSH2 0x3D58 JUMP JUMPDEST JUMPDEST DUP1 PUSH0 ADD MLOAD PUSH0 ADD MLOAD SWAP2 POP POP SWAP2 SWAP1 POP JUMP JUMPDEST PUSH0 PUSH0 PUSH1 0x2 PUSH0 SWAP1 SLOAD SWAP1 PUSH2 0x100 EXP SWAP1 DIV PUSH20 0xFFFFFFFFFFFFFFFFFFFFFFFFFFFFFFFFFFFFFFFF AND PUSH20 0xFFFFFFFFFFFFFFFFFFFFFFFFFFFFFFFFFFFFFFFF AND PUSH4 0x461D2762 DUP7 DUP9 PUSH1 0x1 DUP9 DUP9 PUSH1 0x40 MLOAD DUP7 PUSH4 0xFFFFFFFF AND PUSH1 0xE0 SHL DUP2 MSTORE PUSH1 0x4 ADD PUSH2 0x33D9 SWAP6 SWAP5 SWAP4 SWAP3 SWAP2 SWAP1 PUSH2 0x5EF5 JUMP JUMPDEST PUSH1 0x20 PUSH1 0x40 MLOAD DUP1 DUP4 SUB DUP2 PUSH0 DUP8 GAS CALL ISZERO DUP1 ISZERO PUSH2 0x33F5 JUMPI RETURNDATASIZE PUSH0 PUSH0 RETURNDATACOPY RETURNDATASIZE PUSH0 REVERT JUMPDEST POP POP POP POP PUSH1 0x40 MLOAD RETURNDATASIZE PUSH1 0x1F NOT PUSH1 0x1F DUP3 ADD AND DUP3 ADD DUP1 PUSH1 0x40 MSTORE POP DUP2 ADD SWAP1 PUSH2 0x3419 SWAP2 SWAP1 PUSH2 0x5F61 JUMP JUMPDEST SWAP1 POP DUP1 PUSH32 0x1131472297A800FEE664D1D89CFA8F7676FF07189ECC53F80BBB5F4969099DB8 PUSH1 0x40 MLOAD PUSH1 0x40 MLOAD DUP1 SWAP2 SUB SWAP1 LOG2 DUP1 SWAP2 POP POP SWAP5 SWAP4 POP POP POP POP JUMP JUMPDEST PUSH0 CALLER SWAP1 POP SWAP1 JUMP JUMPDEST PUSH0 PUSH0 PUSH2 0x3465 PUSH2 0x2CA3 JUMP JUMPDEST SWAP1 POP PUSH2 0x3471 DUP5 DUP5 PUSH2 0x2500 JUMP JUMPDEST ISZERO PUSH2 0x3548 JUMPI PUSH0 DUP2 PUSH0 ADD PUSH0 DUP7 DUP2 MSTORE PUSH1 0x20 ADD SWAP1 DUP2 MSTORE PUSH1 0x20 ADD PUSH0 KECCAK256 PUSH0 ADD PUSH0 DUP6 PUSH20 0xFFFFFFFFFFFFFFFFFFFFFFFFFFFFFFFFFFFFFFFF AND PUSH20 0xFFFFFFFFFFFFFFFFFFFFFFFFFFFFFFFFFFFFFFFF AND DUP2 MSTORE PUSH1 0x20 ADD SWAP1 DUP2 MSTORE PUSH1 0x20 ADD PUSH0 KECCAK256 PUSH0 PUSH2 0x100 EXP DUP2 SLOAD DUP2 PUSH1 0xFF MUL NOT AND SWAP1 DUP4 ISZERO ISZERO MUL OR SWAP1 SSTORE POP PUSH2 0x34E4 PUSH2 0x3454 JUMP JUMPDEST PUSH20 0xFFFFFFFFFFFFFFFFFFFFFFFFFFFFFFFFFFFFFFFF AND DUP4 PUSH20 0xFFFFFFFFFFFFFFFFFFFFFFFFFFFFFFFFFFFFFFFF AND DUP6 PUSH32 0xF6391F5C32D9C69D2A47EA670B442974B53935D1EDC7FD64EB21E047A839171B PUSH1 0x40 MLOAD PUSH1 0x40 MLOAD DUP1 SWAP2 SUB SWAP1 LOG4 PUSH1 0x1 SWAP2 POP POP PUSH2 0x354D JUMP JUMPDEST PUSH0 SWAP2 POP POP JUMPDEST SWAP3 SWAP2 POP POP JUMP JUMPDEST PUSH1 0x1 DUP2 PUSH0 ADD PUSH0 DUP3 DUP3 SLOAD ADD SWAP3 POP POP DUP2 SWAP1 SSTORE POP POP JUMP JUMPDEST PUSH0 DUP2 PUSH0 ADD SLOAD SWAP1 POP SWAP2 SWAP1 POP JUMP JUMPDEST PUSH32 0x0 PUSH20 0xFFFFFFFFFFFFFFFFFFFFFFFFFFFFFFFFFFFFFFFF AND ADDRESS PUSH20 0xFFFFFFFFFFFFFFFFFFFFFFFFFFFFFFFFFFFFFFFF AND EQ DUP1 PUSH2 0x3620 JUMPI POP PUSH32 0x0 PUSH20 0xFFFFFFFFFFFFFFFFFFFFFFFFFFFFFFFFFFFFFFFF AND PUSH2 0x3607 PUSH2 0x39F8 JUMP JUMPDEST PUSH20 0xFFFFFFFFFFFFFFFFFFFFFFFFFFFFFFFFFFFFFFFF AND EQ ISZERO JUMPDEST ISZERO PUSH2 0x3657 JUMPI PUSH1 0x40 MLOAD PUSH32 0xE07C8DBA00000000000000000000000000000000000000000000000000000000 DUP2 MSTORE PUSH1 0x4 ADD PUSH1 0x40 MLOAD DUP1 SWAP2 SUB SWAP1 REVERT JUMPDEST JUMP JUMPDEST PUSH32 0xA615A8AFB6FFFCB8C6809AC0997B5C9C12B8CC97651150F14C8F6203168CFF4C PUSH0 SHL PUSH2 0x3685 DUP2 PUSH2 0x2CCA JUMP JUMPDEST POP POP JUMP JUMPDEST DUP2 PUSH20 0xFFFFFFFFFFFFFFFFFFFFFFFFFFFFFFFFFFFFFFFF AND PUSH4 0x52D1902D PUSH1 0x40 MLOAD DUP2 PUSH4 0xFFFFFFFF AND PUSH1 0xE0 SHL DUP2 MSTORE PUSH1 0x4 ADD PUSH1 0x20 PUSH1 0x40 MLOAD DUP1 DUP4 SUB DUP2 DUP7 GAS STATICCALL SWAP3 POP POP POP DUP1 ISZERO PUSH2 0x36F1 JUMPI POP PUSH1 0x40 MLOAD RETURNDATASIZE PUSH1 0x1F NOT PUSH1 0x1F DUP3 ADD AND DUP3 ADD DUP1 PUSH1 0x40 MSTORE POP DUP2 ADD SWAP1 PUSH2 0x36EE SWAP2 SWAP1 PUSH2 0x5F61 JUMP JUMPDEST PUSH1 0x1 JUMPDEST PUSH2 0x3732 JUMPI DUP2 PUSH1 0x40 MLOAD PUSH32 0x4C9C8CE300000000000000000000000000000000000000000000000000000000 DUP2 MSTORE PUSH1 0x4 ADD PUSH2 0x3729 SWAP2 SWAP1 PUSH2 0x4DC2 JUMP JUMPDEST PUSH1 0x40 MLOAD DUP1 SWAP2 SUB SWAP1 REVERT JUMPDEST PUSH32 0x360894A13BA1A3210667C828492DB98DCA3E2076CC3735A920A3CA505D382BBC PUSH0 SHL DUP2 EQ PUSH2 0x3798 JUMPI DUP1 PUSH1 0x40 MLOAD PUSH32 0xAA1D49A400000000000000000000000000000000000000000000000000000000 DUP2 MSTORE PUSH1 0x4 ADD PUSH2 0x378F SWAP2 SWAP1 PUSH2 0x4BDC JUMP JUMPDEST PUSH1 0x40 MLOAD DUP1 SWAP2 SUB SWAP1 REVERT JUMPDEST PUSH2 0x37A2 DUP4 DUP4 PUSH2 0x3DA8 JUMP JUMPDEST POP POP POP JUMP JUMPDEST PUSH32 0x0 PUSH20 0xFFFFFFFFFFFFFFFFFFFFFFFFFFFFFFFFFFFFFFFF AND ADDRESS PUSH20 0xFFFFFFFFFFFFFFFFFFFFFFFFFFFFFFFFFFFFFFFF AND EQ PUSH2 0x382C JUMPI PUSH1 0x40 MLOAD PUSH32 0xE07C8DBA00000000000000000000000000000000000000000000000000000000 DUP2 MSTORE PUSH1 0x4 ADD PUSH1 0x40 MLOAD DUP1 SWAP2 SUB SWAP1 REVERT JUMPDEST JUMP JUMPDEST PUSH0 PUSH32 0xCD5ED15C6E187E77E9AEE88184C21F4F2182AB5827CB3B7E07FBEDCD63F03300 SWAP1 POP SWAP1 JUMP JUMPDEST PUSH0 PUSH0 PUSH2 0x385F PUSH2 0x3E1A JUMP JUMPDEST SWAP1 POP DUP1 SWAP2 POP POP SWAP1 JUMP JUMPDEST PUSH2 0x3870 PUSH2 0x3E43 JUMP JUMPDEST PUSH2 0x3878 PUSH2 0x3E83 JUMP JUMPDEST PUSH2 0x3880 PUSH2 0x3E8D JUMP JUMPDEST PUSH2 0x388C PUSH0 PUSH0 SHL CALLER PUSH2 0x2CDE JUMP JUMPDEST POP PUSH2 0x38B9 PUSH32 0xA615A8AFB6FFFCB8C6809AC0997B5C9C12B8CC97651150F14C8F6203168CFF4C PUSH0 SHL CALLER PUSH2 0x2CDE JUMP JUMPDEST POP PUSH2 0x38E6 PUSH32 0xAF290D8680820AAD922855F39B306097B20E28774D6C1AD35A20325630C3A02C PUSH0 SHL CALLER PUSH2 0x2CDE JUMP JUMPDEST POP JUMP JUMPDEST PUSH2 0x38F1 PUSH2 0x3E43 JUMP JUMPDEST PUSH2 0x38F9 PUSH2 0x3E97 JUMP JUMPDEST JUMP JUMPDEST PUSH2 0x3903 PUSH2 0x3E43 JUMP JUMPDEST JUMP JUMPDEST DUP1 PUSH1 0x2 PUSH0 PUSH2 0x100 EXP DUP2 SLOAD DUP2 PUSH20 0xFFFFFFFFFFFFFFFFFFFFFFFFFFFFFFFFFFFFFFFF MUL NOT AND SWAP1 DUP4 PUSH20 0xFFFFFFFFFFFFFFFFFFFFFFFFFFFFFFFFFFFFFFFF AND MUL OR SWAP1 SSTORE POP POP JUMP JUMPDEST PUSH0 PUSH20 0xFFFFFFFFFFFFFFFFFFFFFFFFFFFFFFFFFFFFFFFF AND DUP2 PUSH20 0xFFFFFFFFFFFFFFFFFFFFFFFFFFFFFFFFFFFFFFFF AND SUB PUSH2 0x39B6 JUMPI PUSH1 0x40 MLOAD PUSH32 0x8C379A000000000000000000000000000000000000000000000000000000000 DUP2 MSTORE PUSH1 0x4 ADD PUSH2 0x39AD SWAP1 PUSH2 0x5FD6 JUMP JUMPDEST PUSH1 0x40 MLOAD DUP1 SWAP2 SUB SWAP1 REVERT JUMPDEST DUP1 PUSH0 PUSH0 PUSH2 0x100 EXP DUP2 SLOAD DUP2 PUSH20 0xFFFFFFFFFFFFFFFFFFFFFFFFFFFFFFFFFFFFFFFF MUL NOT AND SWAP1 DUP4 PUSH20 0xFFFFFFFFFFFFFFFFFFFFFFFFFFFFFFFFFFFFFFFF AND MUL OR SWAP1 SSTORE POP POP JUMP JUMPDEST PUSH0 PUSH2 0x3A24 PUSH32 0x360894A13BA1A3210667C828492DB98DCA3E2076CC3735A920A3CA505D382BBC PUSH0 SHL PUSH2 0x3EB6 JUMP JUMPDEST PUSH0 ADD PUSH0 SWAP1 SLOAD SWAP1 PUSH2 0x100 EXP SWAP1 DIV PUSH20 0xFFFFFFFFFFFFFFFFFFFFFFFFFFFFFFFFFFFFFFFF AND SWAP1 POP SWAP1 JUMP JUMPDEST CALLER PUSH20 0xFFFFFFFFFFFFFFFFFFFFFFFFFFFFFFFFFFFFFFFF AND DUP2 PUSH20 0xFFFFFFFFFFFFFFFFFFFFFFFFFFFFFFFFFFFFFFFF AND SUB PUSH2 0x3AB9 JUMPI PUSH1 0x40 MLOAD PUSH32 0x8C379A000000000000000000000000000000000000000000000000000000000 DUP2 MSTORE PUSH1 0x4 ADD PUSH2 0x3AB0 SWAP1 PUSH2 0x603E JUMP JUMPDEST PUSH1 0x40 MLOAD DUP1 SWAP2 SUB SWAP1 REVERT JUMPDEST DUP1 PUSH1 0x1 PUSH0 PUSH2 0x100 EXP DUP2 SLOAD DUP2 PUSH20 0xFFFFFFFFFFFFFFFFFFFFFFFFFFFFFFFFFFFFFFFF MUL NOT AND SWAP1 DUP4 PUSH20 0xFFFFFFFFFFFFFFFFFFFFFFFFFFFFFFFFFFFFFFFF AND MUL OR SWAP1 SSTORE POP DUP1 PUSH20 0xFFFFFFFFFFFFFFFFFFFFFFFFFFFFFFFFFFFFFFFF AND PUSH0 PUSH0 SWAP1 SLOAD SWAP1 PUSH2 0x100 EXP SWAP1 DIV PUSH20 0xFFFFFFFFFFFFFFFFFFFFFFFFFFFFFFFFFFFFFFFF AND PUSH20 0xFFFFFFFFFFFFFFFFFFFFFFFFFFFFFFFFFFFFFFFF AND PUSH32 0xED8889F560326EB138920D842192F0EB3DD22B4F139C87A2C57538E05BAE1278 PUSH1 0x40 MLOAD PUSH1 0x40 MLOAD DUP1 SWAP2 SUB SWAP1 LOG3 POP JUMP JUMPDEST PUSH2 0x3B80 DUP3 DUP3 PUSH2 0x2500 JUMP JUMPDEST PUSH2 0x3BC3 JUMPI DUP1 DUP3 PUSH1 0x40 MLOAD PUSH32 0xE2517D3F00000000000000000000000000000000000000000000000000000000 DUP2 MSTORE PUSH1 0x4 ADD PUSH2 0x3BBA SWAP3 SWAP2 SWAP1 PUSH2 0x605C JUMP JUMPDEST PUSH1 0x40 MLOAD DUP1 SWAP2 SUB SWAP1 REVERT JUMPDEST POP POP JUMP JUMPDEST PUSH0 PUSH32 0x9B779B17422D0DF92223018B32B4D1FA46E071723D6817E2486D003BECC55F00 SWAP1 POP SWAP1 JUMP JUMPDEST PUSH0 DUP2 MLOAD SUB PUSH2 0x3C28 JUMPI PUSH1 0x40 MLOAD PUSH32 0x22CE3EDD00000000000000000000000000000000000000000000000000000000 DUP2 MSTORE PUSH1 0x4 ADD PUSH1 0x40 MLOAD DUP1 SWAP2 SUB SWAP1 REVERT JUMPDEST DUP3 DUP5 PUSH0 ADD SWAP1 PUSH1 0x2 DUP2 GT ISZERO PUSH2 0x3C3F JUMPI PUSH2 0x3C3E PUSH2 0x5076 JUMP JUMPDEST JUMPDEST SWAP1 DUP2 PUSH1 0x2 DUP2 GT ISZERO PUSH2 0x3C53 JUMPI PUSH2 0x3C52 PUSH2 0x5076 JUMP JUMPDEST JUMPDEST DUP2 MSTORE POP POP DUP2 DUP5 PUSH1 0x40 ADD SWAP1 PUSH0 DUP2 GT ISZERO PUSH2 0x3C6E JUMPI PUSH2 0x3C6D PUSH2 0x5076 JUMP JUMPDEST JUMPDEST SWAP1 DUP2 PUSH0 DUP2 GT ISZERO PUSH2 0x3C81 JUMPI PUSH2 0x3C80 PUSH2 0x5076 JUMP JUMPDEST JUMPDEST DUP2 MSTORE POP POP DUP1 DUP5 PUSH1 0x60 ADD DUP2 SWAP1 MSTORE POP POP POP POP POP JUMP JUMPDEST PUSH2 0x3C9C PUSH2 0x4662 JUMP JUMPDEST PUSH2 0x3CA9 DUP2 PUSH0 ADD MLOAD DUP4 PUSH2 0x3EBF JUMP JUMPDEST POP PUSH0 DUP2 PUSH1 0x20 ADD DUP2 DUP2 MSTORE POP POP SWAP2 SWAP1 POP JUMP JUMPDEST PUSH2 0x3CC6 DUP3 PUSH1 0x3 DUP4 MLOAD PUSH2 0x3F35 JUMP JUMPDEST PUSH2 0x3CDC DUP2 DUP4 PUSH0 ADD MLOAD PUSH2 0x40D5 SWAP1 SWAP2 SWAP1 PUSH4 0xFFFFFFFF AND JUMP JUMPDEST POP POP POP JUMP JUMPDEST PUSH2 0x3D02 PUSH1 0x2 PUSH1 0x5 PUSH1 0x6 PUSH1 0xFF AND SWAP1 SHL OR DUP4 PUSH0 ADD MLOAD PUSH2 0x40F1 SWAP1 SWAP2 SWAP1 PUSH4 0xFFFFFFFF AND JUMP JUMPDEST POP PUSH2 0x3D2C DUP3 DUP3 PUSH1 0x40 MLOAD PUSH1 0x20 ADD PUSH2 0x3D18 SWAP2 SWAP1 PUSH2 0x4F63 JUMP JUMPDEST PUSH1 0x40 MLOAD PUSH1 0x20 DUP2 DUP4 SUB SUB DUP2 MSTORE SWAP1 PUSH1 0x40 MSTORE PUSH2 0x3D80 JUMP JUMPDEST POP POP JUMP JUMPDEST PUSH2 0x3D3B DUP2 PUSH1 0x4 PUSH2 0x4158 JUMP JUMPDEST PUSH1 0x1 DUP2 PUSH1 0x20 ADD DUP2 DUP2 MLOAD PUSH2 0x3D4E SWAP2 SWAP1 PUSH2 0x58D1 JUMP JUMPDEST SWAP2 POP DUP2 DUP2 MSTORE POP POP POP JUMP JUMPDEST PUSH2 0x3D63 DUP2 PUSH1 0x7 PUSH2 0x4158 JUMP JUMPDEST PUSH1 0x1 DUP2 PUSH1 0x20 ADD DUP2 DUP2 MLOAD PUSH2 0x3D76 SWAP2 SWAP1 PUSH2 0x6083 JUMP JUMPDEST SWAP2 POP DUP2 DUP2 MSTORE POP POP POP JUMP JUMPDEST PUSH2 0x3D8D DUP3 PUSH1 0x2 DUP4 MLOAD PUSH2 0x3F35 JUMP JUMPDEST PUSH2 0x3DA3 DUP2 DUP4 PUSH0 ADD MLOAD PUSH2 0x40D5 SWAP1 SWAP2 SWAP1 PUSH4 0xFFFFFFFF AND JUMP JUMPDEST POP POP POP JUMP JUMPDEST PUSH2 0x3DB1 DUP3 PUSH2 0x417D JUMP JUMPDEST DUP2 PUSH20 0xFFFFFFFFFFFFFFFFFFFFFFFFFFFFFFFFFFFFFFFF AND PUSH32 0xBC7CD75A20EE27FD9ADEBAB32041F755214DBC6BFFA90CC0225B39DA2E5C2D3B PUSH1 0x40 MLOAD PUSH1 0x40 MLOAD DUP1 SWAP2 SUB SWAP1 LOG2 PUSH0 DUP2 MLOAD GT ISZERO PUSH2 0x3E0D JUMPI PUSH2 0x3E07 DUP3 DUP3 PUSH2 0x4246 JUMP JUMPDEST POP PUSH2 0x3E16 JUMP JUMPDEST PUSH2 0x3E15 PUSH2 0x42C6 JUMP JUMPDEST JUMPDEST POP POP JUMP JUMPDEST PUSH0 PUSH32 0xF0C57E16840DF040F15088DC2F81FE391C3923BEC73E23A9662EFC9C229C6A00 PUSH0 SHL SWAP1 POP SWAP1 JUMP JUMPDEST PUSH2 0x3E4B PUSH2 0x4302 JUMP JUMPDEST PUSH2 0x3E81 JUMPI PUSH1 0x40 MLOAD PUSH32 0xD7E6BCF800000000000000000000000000000000000000000000000000000000 DUP2 MSTORE PUSH1 0x4 ADD PUSH1 0x40 MLOAD DUP1 SWAP2 SUB SWAP1 REVERT JUMPDEST JUMP JUMPDEST PUSH2 0x3E8B PUSH2 0x3E43 JUMP JUMPDEST JUMP JUMPDEST PUSH2 0x3E95 PUSH2 0x3E43 JUMP JUMPDEST JUMP JUMPDEST PUSH2 0x3E9F PUSH2 0x3E43 JUMP JUMPDEST PUSH0 PUSH2 0x3EA8 PUSH2 0x3BC7 JUMP JUMPDEST SWAP1 POP PUSH1 0x1 DUP2 PUSH0 ADD DUP2 SWAP1 SSTORE POP POP JUMP JUMPDEST PUSH0 DUP2 SWAP1 POP SWAP2 SWAP1 POP JUMP JUMPDEST PUSH2 0x3EC7 PUSH2 0x4681 JUMP JUMPDEST PUSH0 PUSH1 0x20 DUP4 PUSH2 0x3ED5 SWAP2 SWAP1 PUSH2 0x60E3 JUMP JUMPDEST EQ PUSH2 0x3F01 JUMPI PUSH1 0x20 DUP3 PUSH2 0x3EE7 SWAP2 SWAP1 PUSH2 0x60E3 JUMP JUMPDEST PUSH1 0x20 PUSH2 0x3EF3 SWAP2 SWAP1 PUSH2 0x6083 JUMP JUMPDEST DUP3 PUSH2 0x3EFE SWAP2 SWAP1 PUSH2 0x58D1 JUMP JUMPDEST SWAP2 POP JUMPDEST DUP2 DUP4 PUSH1 0x20 ADD DUP2 DUP2 MSTORE POP POP PUSH1 0x40 MLOAD DUP1 DUP5 MSTORE PUSH0 DUP2 MSTORE DUP3 DUP2 ADD PUSH1 0x20 ADD DUP2 DUP2 LT ISZERO PUSH2 0x3F26 JUMPI PUSH0 PUSH0 REVERT JUMPDEST DUP1 PUSH1 0x40 MSTORE POP POP DUP3 SWAP1 POP SWAP3 SWAP2 POP POP JUMP JUMPDEST PUSH1 0x17 DUP2 PUSH8 0xFFFFFFFFFFFFFFFF AND GT PUSH2 0x3F6F JUMPI PUSH2 0x3F69 DUP2 PUSH1 0x5 DUP5 PUSH1 0xFF AND SWAP1 SHL PUSH1 0xFF AND OR DUP5 PUSH0 ADD MLOAD PUSH2 0x40F1 SWAP1 SWAP2 SWAP1 PUSH4 0xFFFFFFFF AND JUMP JUMPDEST POP PUSH2 0x40D0 JUMP JUMPDEST PUSH1 0xFF DUP2 PUSH8 0xFFFFFFFFFFFFFFFF AND GT PUSH2 0x3FCB JUMPI PUSH2 0x3FA1 PUSH1 0x18 PUSH1 0x5 DUP5 PUSH1 0xFF AND SWAP1 SHL OR DUP5 PUSH0 ADD MLOAD PUSH2 0x40F1 SWAP1 SWAP2 SWAP1 PUSH4 0xFFFFFFFF AND JUMP JUMPDEST POP PUSH2 0x3FC5 DUP2 PUSH8 0xFFFFFFFFFFFFFFFF AND PUSH1 0x1 DUP6 PUSH0 ADD MLOAD PUSH2 0x4320 SWAP1 SWAP3 SWAP2 SWAP1 PUSH4 0xFFFFFFFF AND JUMP JUMPDEST POP PUSH2 0x40CF JUMP JUMPDEST PUSH2 0xFFFF DUP2 PUSH8 0xFFFFFFFFFFFFFFFF AND GT PUSH2 0x4028 JUMPI PUSH2 0x3FFE PUSH1 0x19 PUSH1 0x5 DUP5 PUSH1 0xFF AND SWAP1 SHL OR DUP5 PUSH0 ADD MLOAD PUSH2 0x40F1 SWAP1 SWAP2 SWAP1 PUSH4 0xFFFFFFFF AND JUMP JUMPDEST POP PUSH2 0x4022 DUP2 PUSH8 0xFFFFFFFFFFFFFFFF AND PUSH1 0x2 DUP6 PUSH0 ADD MLOAD PUSH2 0x4320 SWAP1 SWAP3 SWAP2 SWAP1 PUSH4 0xFFFFFFFF AND JUMP JUMPDEST POP PUSH2 0x40CE JUMP JUMPDEST PUSH4 0xFFFFFFFF DUP2 PUSH8 0xFFFFFFFFFFFFFFFF AND GT PUSH2 0x4087 JUMPI PUSH2 0x405D PUSH1 0x1A PUSH1 0x5 DUP5 PUSH1 0xFF AND SWAP1 SHL OR DUP5 PUSH0 ADD MLOAD PUSH2 0x40F1 SWAP1 SWAP2 SWAP1 PUSH4 0xFFFFFFFF AND JUMP JUMPDEST POP PUSH2 0x4081 DUP2 PUSH8 0xFFFFFFFFFFFFFFFF AND PUSH1 0x4 DUP6 PUSH0 ADD MLOAD PUSH2 0x4320 SWAP1 SWAP3 SWAP2 SWAP1 PUSH4 0xFFFFFFFF AND JUMP JUMPDEST POP PUSH2 0x40CD JUMP JUMPDEST PUSH2 0x40A7 PUSH1 0x1B PUSH1 0x5 DUP5 PUSH1 0xFF AND SWAP1 SHL OR DUP5 PUSH0 ADD MLOAD PUSH2 0x40F1 SWAP1 SWAP2 SWAP1 PUSH4 0xFFFFFFFF AND JUMP JUMPDEST POP PUSH2 0x40CB DUP2 PUSH8 0xFFFFFFFFFFFFFFFF AND PUSH1 0x8 DUP6 PUSH0 ADD MLOAD PUSH2 0x4320 SWAP1 SWAP3 SWAP2 SWAP1 PUSH4 0xFFFFFFFF AND JUMP JUMPDEST POP JUMPDEST JUMPDEST JUMPDEST JUMPDEST POP POP POP JUMP JUMPDEST PUSH2 0x40DD PUSH2 0x4681 JUMP JUMPDEST PUSH2 0x40E9 DUP4 DUP4 DUP5 MLOAD PUSH2 0x43A9 JUMP JUMPDEST SWAP1 POP SWAP3 SWAP2 POP POP JUMP JUMPDEST PUSH2 0x40F9 PUSH2 0x4681 JUMP JUMPDEST PUSH0 DUP4 PUSH0 ADD MLOAD MLOAD SWAP1 POP PUSH0 PUSH1 0x1 DUP3 PUSH2 0x410F SWAP2 SWAP1 PUSH2 0x58D1 JUMP JUMPDEST SWAP1 POP DUP5 PUSH1 0x20 ADD MLOAD DUP3 LT PUSH2 0x4133 JUMPI PUSH2 0x4132 DUP6 PUSH1 0x2 DUP4 PUSH2 0x412D SWAP2 SWAP1 PUSH2 0x6113 JUMP JUMPDEST PUSH2 0x4486 JUMP JUMPDEST JUMPDEST DUP5 MLOAD PUSH1 0x20 DUP4 DUP3 ADD ADD DUP6 DUP2 MSTORE8 DUP2 MLOAD DUP4 GT ISZERO PUSH2 0x414B JUMPI DUP3 DUP3 MSTORE JUMPDEST POP POP DUP5 SWAP3 POP POP POP SWAP3 SWAP2 POP POP JUMP JUMPDEST PUSH2 0x4178 PUSH1 0x1F PUSH1 0x5 DUP4 PUSH1 0xFF AND SWAP1 SHL OR DUP4 PUSH0 ADD MLOAD PUSH2 0x40F1 SWAP1 SWAP2 SWAP1 PUSH4 0xFFFFFFFF AND JUMP JUMPDEST POP POP POP JUMP JUMPDEST PUSH0 DUP2 PUSH20 0xFFFFFFFFFFFFFFFFFFFFFFFFFFFFFFFFFFFFFFFF AND EXTCODESIZE SUB PUSH2 0x41D8 JUMPI DUP1 PUSH1 0x40 MLOAD PUSH32 0x4C9C8CE300000000000000000000000000000000000000000000000000000000 DUP2 MSTORE PUSH1 0x4 ADD PUSH2 0x41CF SWAP2 SWAP1 PUSH2 0x4DC2 JUMP JUMPDEST PUSH1 0x40 MLOAD DUP1 SWAP2 SUB SWAP1 REVERT JUMPDEST DUP1 PUSH2 0x4204 PUSH32 0x360894A13BA1A3210667C828492DB98DCA3E2076CC3735A920A3CA505D382BBC PUSH0 SHL PUSH2 0x3EB6 JUMP JUMPDEST PUSH0 ADD PUSH0 PUSH2 0x100 EXP DUP2 SLOAD DUP2 PUSH20 0xFFFFFFFFFFFFFFFFFFFFFFFFFFFFFFFFFFFFFFFF MUL NOT AND SWAP1 DUP4 PUSH20 0xFFFFFFFFFFFFFFFFFFFFFFFFFFFFFFFFFFFFFFFF AND MUL OR SWAP1 SSTORE POP POP JUMP JUMPDEST PUSH1 0x60 PUSH0 PUSH0 DUP5 PUSH20 0xFFFFFFFFFFFFFFFFFFFFFFFFFFFFFFFFFFFFFFFF AND DUP5 PUSH1 0x40 MLOAD PUSH2 0x426F SWAP2 SWAP1 PUSH2 0x618E JUMP JUMPDEST PUSH0 PUSH1 0x40 MLOAD DUP1 DUP4 SUB DUP2 DUP6 GAS DELEGATECALL SWAP2 POP POP RETURNDATASIZE DUP1 PUSH0 DUP2 EQ PUSH2 0x42A7 JUMPI PUSH1 0x40 MLOAD SWAP2 POP PUSH1 0x1F NOT PUSH1 0x3F RETURNDATASIZE ADD AND DUP3 ADD PUSH1 0x40 MSTORE RETURNDATASIZE DUP3 MSTORE RETURNDATASIZE PUSH0 PUSH1 0x20 DUP5 ADD RETURNDATACOPY PUSH2 0x42AC JUMP JUMPDEST PUSH1 0x60 SWAP2 POP JUMPDEST POP SWAP2 POP SWAP2 POP PUSH2 0x42BC DUP6 DUP4 DUP4 PUSH2 0x44A8 JUMP JUMPDEST SWAP3 POP POP POP SWAP3 SWAP2 POP POP JUMP JUMPDEST PUSH0 CALLVALUE GT ISZERO PUSH2 0x4300 JUMPI PUSH1 0x40 MLOAD PUSH32 0xB398979F00000000000000000000000000000000000000000000000000000000 DUP2 MSTORE PUSH1 0x4 ADD PUSH1 0x40 MLOAD DUP1 SWAP2 SUB SWAP1 REVERT JUMPDEST JUMP JUMPDEST PUSH0 PUSH2 0x430B PUSH2 0x3855 JUMP JUMPDEST PUSH0 ADD PUSH1 0x8 SWAP1 SLOAD SWAP1 PUSH2 0x100 EXP SWAP1 DIV PUSH1 0xFF AND SWAP1 POP SWAP1 JUMP JUMPDEST PUSH2 0x4328 PUSH2 0x4681 JUMP JUMPDEST PUSH0 DUP5 PUSH0 ADD MLOAD MLOAD SWAP1 POP PUSH0 DUP2 DUP5 PUSH2 0x433D SWAP2 SWAP1 PUSH2 0x58D1 JUMP JUMPDEST SWAP1 POP DUP6 PUSH1 0x20 ADD MLOAD DUP2 GT ISZERO PUSH2 0x4362 JUMPI PUSH2 0x4361 DUP7 PUSH1 0x2 DUP4 PUSH2 0x435C SWAP2 SWAP1 PUSH2 0x6113 JUMP JUMPDEST PUSH2 0x4486 JUMP JUMPDEST JUMPDEST PUSH0 PUSH1 0x1 DUP6 PUSH2 0x100 PUSH2 0x4373 SWAP2 SWAP1 PUSH2 0x62D3 JUMP JUMPDEST PUSH2 0x437D SWAP2 SWAP1 PUSH2 0x6083 JUMP JUMPDEST SWAP1 POP DUP7 MLOAD DUP3 DUP2 ADD DUP8 DUP4 NOT DUP3 MLOAD AND OR DUP2 MSTORE DUP2 MLOAD DUP5 GT ISZERO PUSH2 0x439A JUMPI DUP4 DUP3 MSTORE JUMPDEST POP POP DUP7 SWAP4 POP POP POP POP SWAP4 SWAP3 POP POP POP JUMP JUMPDEST PUSH2 0x43B1 PUSH2 0x4681 JUMP JUMPDEST DUP3 MLOAD DUP3 GT ISZERO PUSH2 0x43BE JUMPI PUSH0 PUSH0 REVERT JUMPDEST PUSH0 DUP5 PUSH0 ADD MLOAD MLOAD SWAP1 POP PUSH0 DUP4 DUP3 PUSH2 0x43D3 SWAP2 SWAP1 PUSH2 0x58D1 JUMP JUMPDEST SWAP1 POP DUP6 PUSH1 0x20 ADD MLOAD DUP2 GT ISZERO PUSH2 0x43F8 JUMPI PUSH2 0x43F7 DUP7 PUSH1 0x2 DUP4 PUSH2 0x43F2 SWAP2 SWAP1 PUSH2 0x6113 JUMP JUMPDEST PUSH2 0x4486 JUMP JUMPDEST JUMPDEST PUSH0 PUSH0 DUP8 MLOAD DUP1 MLOAD DUP6 PUSH1 0x20 DUP4 ADD ADD SWAP4 POP DUP1 DUP6 GT ISZERO PUSH2 0x4412 JUMPI DUP5 DUP3 MSTORE JUMPDEST PUSH1 0x20 DUP10 ADD SWAP3 POP POP POP JUMPDEST PUSH1 0x20 DUP7 LT PUSH2 0x4459 JUMPI DUP1 MLOAD DUP3 MSTORE PUSH1 0x20 DUP3 PUSH2 0x4434 SWAP2 SWAP1 PUSH2 0x58D1 JUMP JUMPDEST SWAP2 POP PUSH1 0x20 DUP2 PUSH2 0x4443 SWAP2 SWAP1 PUSH2 0x58D1 JUMP JUMPDEST SWAP1 POP PUSH1 0x20 DUP7 PUSH2 0x4452 SWAP2 SWAP1 PUSH2 0x6083 JUMP JUMPDEST SWAP6 POP PUSH2 0x441B JUMP JUMPDEST PUSH0 PUSH1 0x1 DUP8 PUSH1 0x20 SUB PUSH2 0x100 EXP SUB SWAP1 POP DUP1 NOT DUP3 MLOAD AND DUP2 DUP5 MLOAD AND DUP2 DUP2 OR DUP6 MSTORE POP POP POP DUP8 SWAP5 POP POP POP POP POP SWAP4 SWAP3 POP POP POP JUMP JUMPDEST PUSH0 DUP3 PUSH0 ADD MLOAD SWAP1 POP PUSH2 0x4497 DUP4 DUP4 PUSH2 0x3EBF JUMP JUMPDEST POP PUSH2 0x44A2 DUP4 DUP3 PUSH2 0x40D5 JUMP JUMPDEST POP POP POP POP JUMP JUMPDEST PUSH1 0x60 DUP3 PUSH2 0x44BD JUMPI PUSH2 0x44B8 DUP3 PUSH2 0x4535 JUMP JUMPDEST PUSH2 0x452D JUMP JUMPDEST PUSH0 DUP3 MLOAD EQ DUP1 ISZERO PUSH2 0x44E3 JUMPI POP PUSH0 DUP5 PUSH20 0xFFFFFFFFFFFFFFFFFFFFFFFFFFFFFFFFFFFFFFFF AND EXTCODESIZE EQ JUMPDEST ISZERO PUSH2 0x4525 JUMPI DUP4 PUSH1 0x40 MLOAD PUSH32 0x9996B31500000000000000000000000000000000000000000000000000000000 DUP2 MSTORE PUSH1 0x4 ADD PUSH2 0x451C SWAP2 SWAP1 PUSH2 0x4DC2 JUMP JUMPDEST PUSH1 0x40 MLOAD DUP1 SWAP2 SUB SWAP1 REVERT JUMPDEST DUP2 SWAP1 POP PUSH2 0x452E JUMP JUMPDEST JUMPDEST SWAP4 SWAP3 POP POP POP JUMP JUMPDEST PUSH0 DUP2 MLOAD GT ISZERO PUSH2 0x4547 JUMPI DUP1 MLOAD DUP1 DUP3 PUSH1 0x20 ADD REVERT JUMPDEST PUSH1 0x40 MLOAD PUSH32 0xD6BDA27500000000000000000000000000000000000000000000000000000000 DUP2 MSTORE PUSH1 0x4 ADD PUSH1 0x40 MLOAD DUP1 SWAP2 SUB SWAP1 REVERT JUMPDEST PUSH1 0x40 MLOAD DUP1 PUSH2 0x140 ADD PUSH1 0x40 MSTORE DUP1 PUSH0 DUP2 MSTORE PUSH1 0x20 ADD PUSH0 PUSH20 0xFFFFFFFFFFFFFFFFFFFFFFFFFFFFFFFFFFFFFFFF AND DUP2 MSTORE PUSH1 0x20 ADD PUSH0 DUP2 MSTORE PUSH1 0x20 ADD PUSH0 PUSH20 0xFFFFFFFFFFFFFFFFFFFFFFFFFFFFFFFFFFFFFFFF AND DUP2 MSTORE PUSH1 0x20 ADD PUSH0 DUP2 MSTORE PUSH1 0x20 ADD PUSH0 DUP2 MSTORE PUSH1 0x20 ADD PUSH0 DUP2 MSTORE PUSH1 0x20 ADD PUSH0 ISZERO ISZERO DUP2 MSTORE PUSH1 0x20 ADD PUSH1 0x60 DUP2 MSTORE PUSH1 0x20 ADD PUSH0 ISZERO ISZERO DUP2 MSTORE POP SWAP1 JUMP JUMPDEST PUSH1 0x40 MLOAD DUP1 PUSH1 0xE0 ADD PUSH1 0x40 MSTORE DUP1 PUSH0 PUSH1 0x2 DUP2 GT ISZERO PUSH2 0x4611 JUMPI PUSH2 0x4610 PUSH2 0x5076 JUMP JUMPDEST JUMPDEST DUP2 MSTORE PUSH1 0x20 ADD PUSH0 PUSH1 0x2 DUP2 GT ISZERO PUSH2 0x4629 JUMPI PUSH2 0x4628 PUSH2 0x5076 JUMP JUMPDEST JUMPDEST DUP2 MSTORE PUSH1 0x20 ADD PUSH0 PUSH0 DUP2 GT ISZERO PUSH2 0x4640 JUMPI PUSH2 0x463F PUSH2 0x5076 JUMP JUMPDEST JUMPDEST DUP2 MSTORE PUSH1 0x20 ADD PUSH1 0x60 DUP2 MSTORE PUSH1 0x20 ADD PUSH1 0x60 DUP2 MSTORE PUSH1 0x20 ADD PUSH1 0x60 DUP2 MSTORE PUSH1 0x20 ADD PUSH1 0x60 DUP2 MSTORE POP SWAP1 JUMP JUMPDEST PUSH1 0x40 MLOAD DUP1 PUSH1 0x40 ADD PUSH1 0x40 MSTORE DUP1 PUSH2 0x4675 PUSH2 0x4681 JUMP JUMPDEST DUP2 MSTORE PUSH1 0x20 ADD PUSH0 DUP2 MSTORE POP SWAP1 JUMP JUMPDEST PUSH1 0x40 MLOAD DUP1 PUSH1 0x40 ADD PUSH1 0x40 MSTORE DUP1 PUSH1 0x60 DUP2 MSTORE PUSH1 0x20 ADD PUSH0 DUP2 MSTORE POP SWAP1 JUMP JUMPDEST PUSH0 DUP2 ISZERO ISZERO SWAP1 POP SWAP2 SWAP1 POP JUMP JUMPDEST PUSH2 0x46AE DUP2 PUSH2 0x469A JUMP JUMPDEST DUP3 MSTORE POP POP JUMP JUMPDEST PUSH0 PUSH1 0x20 DUP3 ADD SWAP1 POP PUSH2 0x46C7 PUSH0 DUP4 ADD DUP5 PUSH2 0x46A5 JUMP JUMPDEST SWAP3 SWAP2 POP POP JUMP JUMPDEST PUSH0 PUSH1 0x40 MLOAD SWAP1 POP SWAP1 JUMP JUMPDEST PUSH0 PUSH0 REVERT JUMPDEST PUSH0 PUSH0 REVERT JUMPDEST PUSH0 PUSH32 0xFFFFFFFF00000000000000000000000000000000000000000000000000000000 DUP3 AND SWAP1 POP SWAP2 SWAP1 POP JUMP JUMPDEST PUSH2 0x4712 DUP2 PUSH2 0x46DE JUMP JUMPDEST DUP2 EQ PUSH2 0x471C JUMPI PUSH0 PUSH0 REVERT JUMPDEST POP JUMP JUMPDEST PUSH0 DUP2 CALLDATALOAD SWAP1 POP PUSH2 0x472D DUP2 PUSH2 0x4709 JUMP JUMPDEST SWAP3 SWAP2 POP POP JUMP JUMPDEST PUSH0 PUSH1 0x20 DUP3 DUP5 SUB SLT ISZERO PUSH2 0x4748 JUMPI PUSH2 0x4747 PUSH2 0x46D6 JUMP JUMPDEST JUMPDEST PUSH0 PUSH2 0x4755 DUP5 DUP3 DUP6 ADD PUSH2 0x471F JUMP JUMPDEST SWAP2 POP POP SWAP3 SWAP2 POP POP JUMP JUMPDEST PUSH0 PUSH8 0xFFFFFFFFFFFFFFFF DUP3 AND SWAP1 POP SWAP2 SWAP1 POP JUMP JUMPDEST PUSH2 0x477A DUP2 PUSH2 0x475E JUMP JUMPDEST DUP3 MSTORE POP POP JUMP JUMPDEST PUSH0 PUSH1 0x20 DUP3 ADD SWAP1 POP PUSH2 0x4793 PUSH0 DUP4 ADD DUP5 PUSH2 0x4771 JUMP JUMPDEST SWAP3 SWAP2 POP POP JUMP JUMPDEST PUSH0 DUP2 SWAP1 POP SWAP2 SWAP1 POP JUMP JUMPDEST PUSH2 0x47AB DUP2 PUSH2 0x4799 JUMP JUMPDEST DUP2 EQ PUSH2 0x47B5 JUMPI PUSH0 PUSH0 REVERT JUMPDEST POP JUMP JUMPDEST PUSH0 DUP2 CALLDATALOAD SWAP1 POP PUSH2 0x47C6 DUP2 PUSH2 0x47A2 JUMP JUMPDEST SWAP3 SWAP2 POP POP JUMP JUMPDEST PUSH0 PUSH0 REVERT JUMPDEST PUSH0 PUSH0 REVERT JUMPDEST PUSH0 PUSH1 0x1F NOT PUSH1 0x1F DUP4 ADD AND SWAP1 POP SWAP2 SWAP1 POP JUMP JUMPDEST PUSH32 0x4E487B7100000000000000000000000000000000000000000000000000000000 PUSH0 MSTORE PUSH1 0x41 PUSH1 0x4 MSTORE PUSH1 0x24 PUSH0 REVERT JUMPDEST PUSH2 0x481A DUP3 PUSH2 0x47D4 JUMP JUMPDEST DUP2 ADD DUP2 DUP2 LT PUSH8 0xFFFFFFFFFFFFFFFF DUP3 GT OR ISZERO PUSH2 0x4839 JUMPI PUSH2 0x4838 PUSH2 0x47E4 JUMP JUMPDEST JUMPDEST DUP1 PUSH1 0x40 MSTORE POP POP POP JUMP JUMPDEST PUSH0 PUSH2 0x484B PUSH2 0x46CD JUMP JUMPDEST SWAP1 POP PUSH2 0x4857 DUP3 DUP3 PUSH2 0x4811 JUMP JUMPDEST SWAP2 SWAP1 POP JUMP JUMPDEST PUSH0 PUSH8 0xFFFFFFFFFFFFFFFF DUP3 GT ISZERO PUSH2 0x4876 JUMPI PUSH2 0x4875 PUSH2 0x47E4 JUMP JUMPDEST JUMPDEST PUSH2 0x487F DUP3 PUSH2 0x47D4 JUMP JUMPDEST SWAP1 POP PUSH1 0x20 DUP2 ADD SWAP1 POP SWAP2 SWAP1 POP JUMP JUMPDEST DUP3 DUP2 DUP4 CALLDATACOPY PUSH0 DUP4 DUP4 ADD MSTORE POP POP POP JUMP JUMPDEST PUSH0 PUSH2 0x48AC PUSH2 0x48A7 DUP5 PUSH2 0x485C JUMP JUMPDEST PUSH2 0x4842 JUMP JUMPDEST SWAP1 POP DUP3 DUP2 MSTORE PUSH1 0x20 DUP2 ADD DUP5 DUP5 DUP5 ADD GT ISZERO PUSH2 0x48C8 JUMPI PUSH2 0x48C7 PUSH2 0x47D0 JUMP JUMPDEST JUMPDEST PUSH2 0x48D3 DUP5 DUP3 DUP6 PUSH2 0x488C JUMP JUMPDEST POP SWAP4 SWAP3 POP POP POP JUMP JUMPDEST PUSH0 DUP3 PUSH1 0x1F DUP4 ADD SLT PUSH2 0x48EF JUMPI PUSH2 0x48EE PUSH2 0x47CC JUMP JUMPDEST JUMPDEST DUP2 CALLDATALOAD PUSH2 0x48FF DUP5 DUP3 PUSH1 0x20 DUP7 ADD PUSH2 0x489A JUMP JUMPDEST SWAP2 POP POP SWAP3 SWAP2 POP POP JUMP JUMPDEST PUSH0 PUSH0 PUSH0 PUSH1 0x60 DUP5 DUP7 SUB SLT ISZERO PUSH2 0x491F JUMPI PUSH2 0x491E PUSH2 0x46D6 JUMP JUMPDEST JUMPDEST PUSH0 PUSH2 0x492C DUP7 DUP3 DUP8 ADD PUSH2 0x47B8 JUMP JUMPDEST SWAP4 POP POP PUSH1 0x20 DUP5 ADD CALLDATALOAD PUSH8 0xFFFFFFFFFFFFFFFF DUP2 GT ISZERO PUSH2 0x494D JUMPI PUSH2 0x494C PUSH2 0x46DA JUMP JUMPDEST JUMPDEST PUSH2 0x4959 DUP7 DUP3 DUP8 ADD PUSH2 0x48DB JUMP JUMPDEST SWAP3 POP POP PUSH1 0x40 DUP5 ADD CALLDATALOAD PUSH8 0xFFFFFFFFFFFFFFFF DUP2 GT ISZERO PUSH2 0x497A JUMPI PUSH2 0x4979 PUSH2 0x46DA JUMP JUMPDEST JUMPDEST PUSH2 0x4986 DUP7 DUP3 DUP8 ADD PUSH2 0x48DB JUMP JUMPDEST SWAP2 POP POP SWAP3 POP SWAP3 POP SWAP3 JUMP JUMPDEST PUSH0 DUP2 SWAP1 POP SWAP2 SWAP1 POP JUMP JUMPDEST PUSH2 0x49A2 DUP2 PUSH2 0x4990 JUMP JUMPDEST DUP2 EQ PUSH2 0x49AC JUMPI PUSH0 PUSH0 REVERT JUMPDEST POP JUMP JUMPDEST PUSH0 DUP2 CALLDATALOAD SWAP1 POP PUSH2 0x49BD DUP2 PUSH2 0x4999 JUMP JUMPDEST SWAP3 SWAP2 POP POP JUMP JUMPDEST PUSH0 PUSH1 0x20 DUP3 DUP5 SUB SLT ISZERO PUSH2 0x49D8 JUMPI PUSH2 0x49D7 PUSH2 0x46D6 JUMP JUMPDEST JUMPDEST PUSH0 PUSH2 0x49E5 DUP5 DUP3 DUP6 ADD PUSH2 0x49AF JUMP JUMPDEST SWAP2 POP POP SWAP3 SWAP2 POP POP JUMP JUMPDEST PUSH2 0x49F7 DUP2 PUSH2 0x4990 JUMP JUMPDEST DUP3 MSTORE POP POP JUMP JUMPDEST PUSH0 PUSH20 0xFFFFFFFFFFFFFFFFFFFFFFFFFFFFFFFFFFFFFFFF DUP3 AND SWAP1 POP SWAP2 SWAP1 POP JUMP JUMPDEST PUSH0 PUSH2 0x4A26 DUP3 PUSH2 0x49FD JUMP JUMPDEST SWAP1 POP SWAP2 SWAP1 POP JUMP JUMPDEST PUSH2 0x4A36 DUP2 PUSH2 0x4A1C JUMP JUMPDEST DUP3 MSTORE POP POP JUMP JUMPDEST PUSH2 0x4A45 DUP2 PUSH2 0x469A JUMP JUMPDEST DUP3 MSTORE POP POP JUMP JUMPDEST PUSH0 DUP2 MLOAD SWAP1 POP SWAP2 SWAP1 POP JUMP JUMPDEST PUSH0 DUP3 DUP3 MSTORE PUSH1 0x20 DUP3 ADD SWAP1 POP SWAP3 SWAP2 POP POP JUMP JUMPDEST DUP3 DUP2 DUP4 MCOPY PUSH0 DUP4 DUP4 ADD MSTORE POP POP POP JUMP JUMPDEST PUSH0 PUSH2 0x4A7D DUP3 PUSH2 0x4A4B JUMP JUMPDEST PUSH2 0x4A87 DUP2 DUP6 PUSH2 0x4A55 JUMP JUMPDEST SWAP4 POP PUSH2 0x4A97 DUP2 DUP6 PUSH1 0x20 DUP7 ADD PUSH2 0x4A65 JUMP JUMPDEST PUSH2 0x4AA0 DUP2 PUSH2 0x47D4 JUMP JUMPDEST DUP5 ADD SWAP2 POP POP SWAP3 SWAP2 POP POP JUMP JUMPDEST PUSH0 PUSH2 0x140 DUP4 ADD PUSH0 DUP4 ADD MLOAD PUSH2 0x4AC1 PUSH0 DUP7 ADD DUP3 PUSH2 0x49EE JUMP JUMPDEST POP PUSH1 0x20 DUP4 ADD MLOAD PUSH2 0x4AD4 PUSH1 0x20 DUP7 ADD DUP3 PUSH2 0x4A2D JUMP JUMPDEST POP PUSH1 0x40 DUP4 ADD MLOAD PUSH2 0x4AE7 PUSH1 0x40 DUP7 ADD DUP3 PUSH2 0x49EE JUMP JUMPDEST POP PUSH1 0x60 DUP4 ADD MLOAD PUSH2 0x4AFA PUSH1 0x60 DUP7 ADD DUP3 PUSH2 0x4A2D JUMP JUMPDEST POP PUSH1 0x80 DUP4 ADD MLOAD PUSH2 0x4B0D PUSH1 0x80 DUP7 ADD DUP3 PUSH2 0x49EE JUMP JUMPDEST POP PUSH1 0xA0 DUP4 ADD MLOAD PUSH2 0x4B20 PUSH1 0xA0 DUP7 ADD DUP3 PUSH2 0x49EE JUMP JUMPDEST POP PUSH1 0xC0 DUP4 ADD MLOAD PUSH2 0x4B33 PUSH1 0xC0 DUP7 ADD DUP3 PUSH2 0x49EE JUMP JUMPDEST POP PUSH1 0xE0 DUP4 ADD MLOAD PUSH2 0x4B46 PUSH1 0xE0 DUP7 ADD DUP3 PUSH2 0x4A3C JUMP JUMPDEST POP PUSH2 0x100 DUP4 ADD MLOAD DUP5 DUP3 SUB PUSH2 0x100 DUP7 ADD MSTORE PUSH2 0x4B60 DUP3 DUP3 PUSH2 0x4A73 JUMP JUMPDEST SWAP2 POP POP PUSH2 0x120 DUP4 ADD MLOAD PUSH2 0x4B77 PUSH2 0x120 DUP7 ADD DUP3 PUSH2 0x4A3C JUMP JUMPDEST POP DUP1 SWAP2 POP POP SWAP3 SWAP2 POP POP JUMP JUMPDEST PUSH0 PUSH1 0x20 DUP3 ADD SWAP1 POP DUP2 DUP2 SUB PUSH0 DUP4 ADD MSTORE PUSH2 0x4B9A DUP2 DUP5 PUSH2 0x4AAB JUMP JUMPDEST SWAP1 POP SWAP3 SWAP2 POP POP JUMP JUMPDEST PUSH0 PUSH1 0x20 DUP3 DUP5 SUB SLT ISZERO PUSH2 0x4BB7 JUMPI PUSH2 0x4BB6 PUSH2 0x46D6 JUMP JUMPDEST JUMPDEST PUSH0 PUSH2 0x4BC4 DUP5 DUP3 DUP6 ADD PUSH2 0x47B8 JUMP JUMPDEST SWAP2 POP POP SWAP3 SWAP2 POP POP JUMP JUMPDEST PUSH2 0x4BD6 DUP2 PUSH2 0x4799 JUMP JUMPDEST DUP3 MSTORE POP POP JUMP JUMPDEST PUSH0 PUSH1 0x20 DUP3 ADD SWAP1 POP PUSH2 0x4BEF PUSH0 DUP4 ADD DUP5 PUSH2 0x4BCD JUMP JUMPDEST SWAP3 SWAP2 POP POP JUMP JUMPDEST PUSH2 0x4BFE DUP2 PUSH2 0x4A1C JUMP JUMPDEST DUP2 EQ PUSH2 0x4C08 JUMPI PUSH0 PUSH0 REVERT JUMPDEST POP JUMP JUMPDEST PUSH0 DUP2 CALLDATALOAD SWAP1 POP PUSH2 0x4C19 DUP2 PUSH2 0x4BF5 JUMP JUMPDEST SWAP3 SWAP2 POP POP JUMP JUMPDEST PUSH0 PUSH0 PUSH1 0x40 DUP4 DUP6 SUB SLT ISZERO PUSH2 0x4C35 JUMPI PUSH2 0x4C34 PUSH2 0x46D6 JUMP JUMPDEST JUMPDEST PUSH0 PUSH2 0x4C42 DUP6 DUP3 DUP7 ADD PUSH2 0x47B8 JUMP JUMPDEST SWAP3 POP POP PUSH1 0x20 PUSH2 0x4C53 DUP6 DUP3 DUP7 ADD PUSH2 0x4C0B JUMP JUMPDEST SWAP2 POP POP SWAP3 POP SWAP3 SWAP1 POP JUMP JUMPDEST PUSH2 0x4C66 DUP2 PUSH2 0x475E JUMP JUMPDEST DUP2 EQ PUSH2 0x4C70 JUMPI PUSH0 PUSH0 REVERT JUMPDEST POP JUMP JUMPDEST PUSH0 DUP2 CALLDATALOAD SWAP1 POP PUSH2 0x4C81 DUP2 PUSH2 0x4C5D JUMP JUMPDEST SWAP3 SWAP2 POP POP JUMP JUMPDEST PUSH0 PUSH0 REVERT JUMPDEST PUSH0 PUSH0 REVERT JUMPDEST PUSH0 PUSH0 DUP4 PUSH1 0x1F DUP5 ADD SLT PUSH2 0x4CA4 JUMPI PUSH2 0x4CA3 PUSH2 0x47CC JUMP JUMPDEST JUMPDEST DUP3 CALLDATALOAD SWAP1 POP PUSH8 0xFFFFFFFFFFFFFFFF DUP2 GT ISZERO PUSH2 0x4CC1 JUMPI PUSH2 0x4CC0 PUSH2 0x4C87 JUMP JUMPDEST JUMPDEST PUSH1 0x20 DUP4 ADD SWAP2 POP DUP4 PUSH1 0x1 DUP3 MUL DUP4 ADD GT ISZERO PUSH2 0x4CDD JUMPI PUSH2 0x4CDC PUSH2 0x4C8B JUMP JUMPDEST JUMPDEST SWAP3 POP SWAP3 SWAP1 POP JUMP JUMPDEST PUSH0 PUSH0 PUSH0 PUSH1 0x40 DUP5 DUP7 SUB SLT ISZERO PUSH2 0x4CFB JUMPI PUSH2 0x4CFA PUSH2 0x46D6 JUMP JUMPDEST JUMPDEST PUSH0 PUSH2 0x4D08 DUP7 DUP3 DUP8 ADD PUSH2 0x4C73 JUMP JUMPDEST SWAP4 POP POP PUSH1 0x20 DUP5 ADD CALLDATALOAD PUSH8 0xFFFFFFFFFFFFFFFF DUP2 GT ISZERO PUSH2 0x4D29 JUMPI PUSH2 0x4D28 PUSH2 0x46DA JUMP JUMPDEST JUMPDEST PUSH2 0x4D35 DUP7 DUP3 DUP8 ADD PUSH2 0x4C8F JUMP JUMPDEST SWAP3 POP SWAP3 POP POP SWAP3 POP SWAP3 POP SWAP3 JUMP JUMPDEST PUSH0 DUP2 MLOAD SWAP1 POP SWAP2 SWAP1 POP JUMP JUMPDEST PUSH0 DUP3 DUP3 MSTORE PUSH1 0x20 DUP3 ADD SWAP1 POP SWAP3 SWAP2 POP POP JUMP JUMPDEST PUSH0 PUSH2 0x4D65 DUP3 PUSH2 0x4D41 JUMP JUMPDEST PUSH2 0x4D6F DUP2 DUP6 PUSH2 0x4D4B JUMP JUMPDEST SWAP4 POP PUSH2 0x4D7F DUP2 DUP6 PUSH1 0x20 DUP7 ADD PUSH2 0x4A65 JUMP JUMPDEST PUSH2 0x4D88 DUP2 PUSH2 0x47D4 JUMP JUMPDEST DUP5 ADD SWAP2 POP POP SWAP3 SWAP2 POP POP JUMP JUMPDEST PUSH0 PUSH1 0x20 DUP3 ADD SWAP1 POP DUP2 DUP2 SUB PUSH0 DUP4 ADD MSTORE PUSH2 0x4DAB DUP2 DUP5 PUSH2 0x4D5B JUMP JUMPDEST SWAP1 POP SWAP3 SWAP2 POP POP JUMP JUMPDEST PUSH2 0x4DBC DUP2 PUSH2 0x4A1C JUMP JUMPDEST DUP3 MSTORE POP POP JUMP JUMPDEST PUSH0 PUSH1 0x20 DUP3 ADD SWAP1 POP PUSH2 0x4DD5 PUSH0 DUP4 ADD DUP5 PUSH2 0x4DB3 JUMP JUMPDEST SWAP3 SWAP2 POP POP JUMP JUMPDEST PUSH0 PUSH0 PUSH0 PUSH0 PUSH0 PUSH0 PUSH1 0xA0 DUP8 DUP10 SUB SLT ISZERO PUSH2 0x4DF5 JUMPI PUSH2 0x4DF4 PUSH2 0x46D6 JUMP JUMPDEST JUMPDEST PUSH0 PUSH2 0x4E02 DUP10 DUP3 DUP11 ADD PUSH2 0x4C0B JUMP JUMPDEST SWAP7 POP POP PUSH1 0x20 PUSH2 0x4E13 DUP10 DUP3 DUP11 ADD PUSH2 0x49AF JUMP JUMPDEST SWAP6 POP POP PUSH1 0x40 PUSH2 0x4E24 DUP10 DUP3 DUP11 ADD PUSH2 0x49AF JUMP JUMPDEST SWAP5 POP POP PUSH1 0x60 PUSH2 0x4E35 DUP10 DUP3 DUP11 ADD PUSH2 0x49AF JUMP JUMPDEST SWAP4 POP POP PUSH1 0x80 DUP8 ADD CALLDATALOAD PUSH8 0xFFFFFFFFFFFFFFFF DUP2 GT ISZERO PUSH2 0x4E56 JUMPI PUSH2 0x4E55 PUSH2 0x46DA JUMP JUMPDEST JUMPDEST PUSH2 0x4E62 DUP10 DUP3 DUP11 ADD PUSH2 0x4C8F JUMP JUMPDEST SWAP3 POP SWAP3 POP POP SWAP3 SWAP6 POP SWAP3 SWAP6 POP SWAP3 SWAP6 JUMP JUMPDEST PUSH0 PUSH0 PUSH1 0x40 DUP4 DUP6 SUB SLT ISZERO PUSH2 0x4E87 JUMPI PUSH2 0x4E86 PUSH2 0x46D6 JUMP JUMPDEST JUMPDEST PUSH0 PUSH2 0x4E94 DUP6 DUP3 DUP7 ADD PUSH2 0x4C0B JUMP JUMPDEST SWAP3 POP POP PUSH1 0x20 DUP4 ADD CALLDATALOAD PUSH8 0xFFFFFFFFFFFFFFFF DUP2 GT ISZERO PUSH2 0x4EB5 JUMPI PUSH2 0x4EB4 PUSH2 0x46DA JUMP JUMPDEST JUMPDEST PUSH2 0x4EC1 DUP6 DUP3 DUP7 ADD PUSH2 0x48DB JUMP JUMPDEST SWAP2 POP POP SWAP3 POP SWAP3 SWAP1 POP JUMP JUMPDEST PUSH0 PUSH0 PUSH1 0x40 DUP4 DUP6 SUB SLT ISZERO PUSH2 0x4EE1 JUMPI PUSH2 0x4EE0 PUSH2 0x46D6 JUMP JUMPDEST JUMPDEST PUSH0 PUSH2 0x4EEE DUP6 DUP3 DUP7 ADD PUSH2 0x4C0B JUMP JUMPDEST SWAP3 POP POP PUSH1 0x20 PUSH2 0x4EFF DUP6 DUP3 DUP7 ADD PUSH2 0x49AF JUMP JUMPDEST SWAP2 POP POP SWAP3 POP SWAP3 SWAP1 POP JUMP JUMPDEST PUSH0 PUSH0 PUSH1 0x20 DUP4 DUP6 SUB SLT ISZERO PUSH2 0x4F1F JUMPI PUSH2 0x4F1E PUSH2 0x46D6 JUMP JUMPDEST JUMPDEST PUSH0 DUP4 ADD CALLDATALOAD PUSH8 0xFFFFFFFFFFFFFFFF DUP2 GT ISZERO PUSH2 0x4F3C JUMPI PUSH2 0x4F3B PUSH2 0x46DA JUMP JUMPDEST JUMPDEST PUSH2 0x4F48 DUP6 DUP3 DUP7 ADD PUSH2 0x4C8F JUMP JUMPDEST SWAP3 POP SWAP3 POP POP SWAP3 POP SWAP3 SWAP1 POP JUMP JUMPDEST PUSH2 0x4F5D DUP2 PUSH2 0x4990 JUMP JUMPDEST DUP3 MSTORE POP POP JUMP JUMPDEST PUSH0 PUSH1 0x20 DUP3 ADD SWAP1 POP PUSH2 0x4F76 PUSH0 DUP4 ADD DUP5 PUSH2 0x4F54 JUMP JUMPDEST SWAP3 SWAP2 POP POP JUMP JUMPDEST PUSH0 PUSH0 DUP4 PUSH1 0x1F DUP5 ADD SLT PUSH2 0x4F91 JUMPI PUSH2 0x4F90 PUSH2 0x47CC JUMP JUMPDEST JUMPDEST DUP3 CALLDATALOAD SWAP1 POP PUSH8 0xFFFFFFFFFFFFFFFF DUP2 GT ISZERO PUSH2 0x4FAE JUMPI PUSH2 0x4FAD PUSH2 0x4C87 JUMP JUMPDEST JUMPDEST PUSH1 0x20 DUP4 ADD SWAP2 POP DUP4 PUSH1 0x20 DUP3 MUL DUP4 ADD GT ISZERO PUSH2 0x4FCA JUMPI PUSH2 0x4FC9 PUSH2 0x4C8B JUMP JUMPDEST JUMPDEST SWAP3 POP SWAP3 SWAP1 POP JUMP JUMPDEST PUSH0 PUSH0 PUSH0 PUSH1 0x40 DUP5 DUP7 SUB SLT ISZERO PUSH2 0x4FE8 JUMPI PUSH2 0x4FE7 PUSH2 0x46D6 JUMP JUMPDEST JUMPDEST PUSH0 PUSH2 0x4FF5 DUP7 DUP3 DUP8 ADD PUSH2 0x4C73 JUMP JUMPDEST SWAP4 POP POP PUSH1 0x20 DUP5 ADD CALLDATALOAD PUSH8 0xFFFFFFFFFFFFFFFF DUP2 GT ISZERO PUSH2 0x5016 JUMPI PUSH2 0x5015 PUSH2 0x46DA JUMP JUMPDEST JUMPDEST PUSH2 0x5022 DUP7 DUP3 DUP8 ADD PUSH2 0x4F7C JUMP JUMPDEST SWAP3 POP SWAP3 POP POP SWAP3 POP SWAP3 POP SWAP3 JUMP JUMPDEST PUSH0 DUP3 DUP3 MSTORE PUSH1 0x20 DUP3 ADD SWAP1 POP SWAP3 SWAP2 POP POP JUMP JUMPDEST PUSH0 PUSH2 0x5048 DUP3 PUSH2 0x4A4B JUMP JUMPDEST PUSH2 0x5052 DUP2 DUP6 PUSH2 0x502E JUMP JUMPDEST SWAP4 POP PUSH2 0x5062 DUP2 DUP6 PUSH1 0x20 DUP7 ADD PUSH2 0x4A65 JUMP JUMPDEST PUSH2 0x506B DUP2 PUSH2 0x47D4 JUMP JUMPDEST DUP5 ADD SWAP2 POP POP SWAP3 SWAP2 POP POP JUMP JUMPDEST PUSH32 0x4E487B7100000000000000000000000000000000000000000000000000000000 PUSH0 MSTORE PUSH1 0x21 PUSH1 0x4 MSTORE PUSH1 0x24 PUSH0 REVERT JUMPDEST PUSH1 0x5 DUP2 LT PUSH2 0x50B4 JUMPI PUSH2 0x50B3 PUSH2 0x5076 JUMP JUMPDEST JUMPDEST POP JUMP JUMPDEST PUSH0 DUP2 SWAP1 POP PUSH2 0x50C4 DUP3 PUSH2 0x50A3 JUMP JUMPDEST SWAP2 SWAP1 POP JUMP JUMPDEST PUSH0 PUSH2 0x50D3 DUP3 PUSH2 0x50B7 JUMP JUMPDEST SWAP1 POP SWAP2 SWAP1 POP JUMP JUMPDEST PUSH2 0x50E3 DUP2 PUSH2 0x50C9 JUMP JUMPDEST DUP3 MSTORE POP POP JUMP JUMPDEST PUSH0 PUSH1 0x40 DUP3 ADD SWAP1 POP DUP2 DUP2 SUB PUSH0 DUP4 ADD MSTORE PUSH2 0x5101 DUP2 DUP6 PUSH2 0x503E JUMP JUMPDEST SWAP1 POP PUSH2 0x5110 PUSH1 0x20 DUP4 ADD DUP5 PUSH2 0x50DA JUMP JUMPDEST SWAP4 SWAP3 POP POP POP JUMP JUMPDEST PUSH0 PUSH0 PUSH0 PUSH0 PUSH0 PUSH0 PUSH1 0xC0 DUP8 DUP10 SUB SLT ISZERO PUSH2 0x5131 JUMPI PUSH2 0x5130 PUSH2 0x46D6 JUMP JUMPDEST JUMPDEST PUSH0 PUSH2 0x513E DUP10 DUP3 DUP11 ADD PUSH2 0x4C0B JUMP JUMPDEST SWAP7 POP POP PUSH1 0x20 PUSH2 0x514F DUP10 DUP3 DUP11 ADD PUSH2 0x49AF JUMP JUMPDEST SWAP6 POP POP PUSH1 0x40 PUSH2 0x5160 DUP10 DUP3 DUP11 ADD PUSH2 0x49AF JUMP JUMPDEST SWAP5 POP POP PUSH1 0x60 PUSH2 0x5171 DUP10 DUP3 DUP11 ADD PUSH2 0x49AF JUMP JUMPDEST SWAP4 POP POP PUSH1 0x80 PUSH2 0x5182 DUP10 DUP3 DUP11 ADD PUSH2 0x4C0B JUMP JUMPDEST SWAP3 POP POP PUSH1 0xA0 PUSH2 0x5193 DUP10 DUP3 DUP11 ADD PUSH2 0x4C73 JUMP JUMPDEST SWAP2 POP POP SWAP3 SWAP6 POP SWAP3 SWAP6 POP SWAP3 SWAP6 JUMP JUMPDEST PUSH0 PUSH1 0x20 DUP3 ADD SWAP1 POP DUP2 DUP2 SUB PUSH0 DUP4 ADD MSTORE PUSH2 0x51B8 DUP2 DUP5 PUSH2 0x503E JUMP JUMPDEST SWAP1 POP SWAP3 SWAP2 POP POP JUMP JUMPDEST PUSH0 PUSH8 0xFFFFFFFFFFFFFFFF DUP3 GT ISZERO PUSH2 0x51DA JUMPI PUSH2 0x51D9 PUSH2 0x47E4 JUMP JUMPDEST JUMPDEST PUSH2 0x51E3 DUP3 PUSH2 0x47D4 JUMP JUMPDEST SWAP1 POP PUSH1 0x20 DUP2 ADD SWAP1 POP SWAP2 SWAP1 POP JUMP JUMPDEST PUSH0 PUSH2 0x5202 PUSH2 0x51FD DUP5 PUSH2 0x51C0 JUMP JUMPDEST PUSH2 0x4842 JUMP JUMPDEST SWAP1 POP DUP3 DUP2 MSTORE PUSH1 0x20 DUP2 ADD DUP5 DUP5 DUP5 ADD GT ISZERO PUSH2 0x521E JUMPI PUSH2 0x521D PUSH2 0x47D0 JUMP JUMPDEST JUMPDEST PUSH2 0x5229 DUP5 DUP3 DUP6 PUSH2 0x488C JUMP JUMPDEST POP SWAP4 SWAP3 POP POP POP JUMP JUMPDEST PUSH0 DUP3 PUSH1 0x1F DUP4 ADD SLT PUSH2 0x5245 JUMPI PUSH2 0x5244 PUSH2 0x47CC JUMP JUMPDEST JUMPDEST DUP2 CALLDATALOAD PUSH2 0x5255 DUP5 DUP3 PUSH1 0x20 DUP7 ADD PUSH2 0x51F0 JUMP JUMPDEST SWAP2 POP POP SWAP3 SWAP2 POP POP JUMP JUMPDEST PUSH0 PUSH1 0x20 DUP3 DUP5 SUB SLT ISZERO PUSH2 0x5273 JUMPI PUSH2 0x5272 PUSH2 0x46D6 JUMP JUMPDEST JUMPDEST PUSH0 DUP3 ADD CALLDATALOAD PUSH8 0xFFFFFFFFFFFFFFFF DUP2 GT ISZERO PUSH2 0x5290 JUMPI PUSH2 0x528F PUSH2 0x46DA JUMP JUMPDEST JUMPDEST PUSH2 0x529C DUP5 DUP3 DUP6 ADD PUSH2 0x5231 JUMP JUMPDEST SWAP2 POP POP SWAP3 SWAP2 POP POP JUMP JUMPDEST PUSH0 PUSH1 0x20 DUP3 DUP5 SUB SLT ISZERO PUSH2 0x52BA JUMPI PUSH2 0x52B9 PUSH2 0x46D6 JUMP JUMPDEST JUMPDEST PUSH0 PUSH2 0x52C7 DUP5 DUP3 DUP6 ADD PUSH2 0x4C0B JUMP JUMPDEST SWAP2 POP POP SWAP3 SWAP2 POP POP JUMP JUMPDEST PUSH32 0x4E487B7100000000000000000000000000000000000000000000000000000000 PUSH0 MSTORE PUSH1 0x22 PUSH1 0x4 MSTORE PUSH1 0x24 PUSH0 REVERT JUMPDEST PUSH0 PUSH1 0x2 DUP3 DIV SWAP1 POP PUSH1 0x1 DUP3 AND DUP1 PUSH2 0x5314 JUMPI PUSH1 0x7F DUP3 AND SWAP2 POP JUMPDEST PUSH1 0x20 DUP3 LT DUP2 SUB PUSH2 0x5327 JUMPI PUSH2 0x5326 PUSH2 0x52D0 JUMP JUMPDEST JUMPDEST POP SWAP2 SWAP1 POP JUMP JUMPDEST PUSH0 DUP2 SWAP1 POP SWAP3 SWAP2 POP POP JUMP JUMPDEST PUSH0 DUP2 SWAP1 POP DUP2 PUSH0 MSTORE PUSH1 0x20 PUSH0 KECCAK256 SWAP1 POP SWAP2 SWAP1 POP JUMP JUMPDEST PUSH0 DUP2 SLOAD PUSH2 0x5355 DUP2 PUSH2 0x52FD JUMP JUMPDEST PUSH2 0x535F DUP2 DUP7 PUSH2 0x532D JUMP JUMPDEST SWAP5 POP PUSH1 0x1 DUP3 AND PUSH0 DUP2 EQ PUSH2 0x5379 JUMPI PUSH1 0x1 DUP2 EQ PUSH2 0x538E JUMPI PUSH2 0x53C0 JUMP JUMPDEST PUSH1 0xFF NOT DUP4 AND DUP7 MSTORE DUP2 ISZERO ISZERO DUP3 MUL DUP7 ADD SWAP4 POP PUSH2 0x53C0 JUMP JUMPDEST PUSH2 0x5397 DUP6 PUSH2 0x5337 JUMP JUMPDEST PUSH0 JUMPDEST DUP4 DUP2 LT ISZERO PUSH2 0x53B8 JUMPI DUP2 SLOAD DUP2 DUP10 ADD MSTORE PUSH1 0x1 DUP3 ADD SWAP2 POP PUSH1 0x20 DUP2 ADD SWAP1 POP PUSH2 0x5399 JUMP JUMPDEST DUP4 DUP9 ADD SWAP6 POP POP POP JUMPDEST POP POP POP SWAP3 SWAP2 POP POP JUMP JUMPDEST PUSH0 PUSH2 0x53D4 DUP3 DUP5 PUSH2 0x5349 JUMP JUMPDEST SWAP2 POP DUP2 SWAP1 POP SWAP3 SWAP2 POP POP JUMP JUMPDEST PUSH0 DUP2 SLOAD PUSH2 0x53EB DUP2 PUSH2 0x52FD JUMP JUMPDEST PUSH2 0x53F5 DUP2 DUP7 PUSH2 0x502E JUMP JUMPDEST SWAP5 POP PUSH1 0x1 DUP3 AND PUSH0 DUP2 EQ PUSH2 0x540F JUMPI PUSH1 0x1 DUP2 EQ PUSH2 0x5425 JUMPI PUSH2 0x5457 JUMP JUMPDEST PUSH1 0xFF NOT DUP4 AND DUP7 MSTORE DUP2 ISZERO ISZERO PUSH1 0x20 MUL DUP7 ADD SWAP4 POP PUSH2 0x5457 JUMP JUMPDEST PUSH2 0x542E DUP6 PUSH2 0x5337 JUMP JUMPDEST PUSH0 JUMPDEST DUP4 DUP2 LT ISZERO PUSH2 0x544F JUMPI DUP2 SLOAD DUP2 DUP10 ADD MSTORE PUSH1 0x1 DUP3 ADD SWAP2 POP PUSH1 0x20 DUP2 ADD SWAP1 POP PUSH2 0x5430 JUMP JUMPDEST DUP1 DUP9 ADD SWAP6 POP POP POP JUMPDEST POP POP POP SWAP3 SWAP2 POP POP JUMP JUMPDEST PUSH0 PUSH1 0x40 DUP3 ADD SWAP1 POP DUP2 DUP2 SUB PUSH0 DUP4 ADD MSTORE PUSH2 0x5478 DUP2 DUP6 PUSH2 0x53DF JUMP JUMPDEST SWAP1 POP PUSH2 0x5487 PUSH1 0x20 DUP4 ADD DUP5 PUSH2 0x50DA JUMP JUMPDEST SWAP4 SWAP3 POP POP POP JUMP JUMPDEST PUSH0 PUSH2 0x5499 DUP4 DUP6 PUSH2 0x502E JUMP JUMPDEST SWAP4 POP PUSH2 0x54A6 DUP4 DUP6 DUP5 PUSH2 0x488C JUMP JUMPDEST PUSH2 0x54AF DUP4 PUSH2 0x47D4 JUMP JUMPDEST DUP5 ADD SWAP1 POP SWAP4 SWAP3 POP POP POP JUMP JUMPDEST PUSH0 PUSH1 0x20 DUP3 ADD SWAP1 POP DUP2 DUP2 SUB PUSH0 DUP4 ADD MSTORE PUSH2 0x54D3 DUP2 DUP5 DUP7 PUSH2 0x548E JUMP JUMPDEST SWAP1 POP SWAP4 SWAP3 POP POP POP JUMP JUMPDEST PUSH32 0x4E487B7100000000000000000000000000000000000000000000000000000000 PUSH0 MSTORE PUSH1 0x32 PUSH1 0x4 MSTORE PUSH1 0x24 PUSH0 REVERT JUMPDEST PUSH0 DUP3 SWAP1 POP SWAP3 SWAP2 POP POP JUMP JUMPDEST PUSH0 PUSH1 0x20 PUSH1 0x1F DUP4 ADD DIV SWAP1 POP SWAP2 SWAP1 POP JUMP JUMPDEST PUSH0 DUP3 DUP3 SHL SWAP1 POP SWAP3 SWAP2 POP POP JUMP JUMPDEST PUSH0 PUSH1 0x8 DUP4 MUL PUSH2 0x555D PUSH32 0xFFFFFFFFFFFFFFFFFFFFFFFFFFFFFFFFFFFFFFFFFFFFFFFFFFFFFFFFFFFFFFFF DUP3 PUSH2 0x5522 JUMP JUMPDEST PUSH2 0x5567 DUP7 DUP4 PUSH2 0x5522 JUMP JUMPDEST SWAP6 POP DUP1 NOT DUP5 AND SWAP4 POP DUP1 DUP7 AND DUP5 OR SWAP3 POP POP POP SWAP4 SWAP3 POP POP POP JUMP JUMPDEST PUSH0 DUP2 SWAP1 POP SWAP2 SWAP1 POP JUMP JUMPDEST PUSH0 PUSH2 0x55A2 PUSH2 0x559D PUSH2 0x5598 DUP5 PUSH2 0x4990 JUMP JUMPDEST PUSH2 0x557F JUMP JUMPDEST PUSH2 0x4990 JUMP JUMPDEST SWAP1 POP SWAP2 SWAP1 POP JUMP JUMPDEST PUSH0 DUP2 SWAP1 POP SWAP2 SWAP1 POP JUMP JUMPDEST PUSH2 0x55BB DUP4 PUSH2 0x5588 JUMP JUMPDEST PUSH2 0x55CF PUSH2 0x55C7 DUP3 PUSH2 0x55A9 JUMP JUMPDEST DUP5 DUP5 SLOAD PUSH2 0x552E JUMP JUMPDEST DUP3 SSTORE POP POP POP POP JUMP JUMPDEST PUSH0 PUSH0 SWAP1 POP SWAP1 JUMP JUMPDEST PUSH2 0x55E6 PUSH2 0x55D7 JUMP JUMPDEST PUSH2 0x55F1 DUP2 DUP5 DUP5 PUSH2 0x55B2 JUMP JUMPDEST POP POP POP JUMP JUMPDEST JUMPDEST DUP2 DUP2 LT ISZERO PUSH2 0x5614 JUMPI PUSH2 0x5609 PUSH0 DUP3 PUSH2 0x55DE JUMP JUMPDEST PUSH1 0x1 DUP2 ADD SWAP1 POP PUSH2 0x55F7 JUMP JUMPDEST POP POP JUMP JUMPDEST PUSH1 0x1F DUP3 GT ISZERO PUSH2 0x5659 JUMPI PUSH2 0x562A DUP2 PUSH2 0x5337 JUMP JUMPDEST PUSH2 0x5633 DUP5 PUSH2 0x5513 JUMP JUMPDEST DUP2 ADD PUSH1 0x20 DUP6 LT ISZERO PUSH2 0x5642 JUMPI DUP2 SWAP1 POP JUMPDEST PUSH2 0x5656 PUSH2 0x564E DUP6 PUSH2 0x5513 JUMP JUMPDEST DUP4 ADD DUP3 PUSH2 0x55F6 JUMP JUMPDEST POP POP JUMPDEST POP POP POP JUMP JUMPDEST PUSH0 DUP3 DUP3 SHR SWAP1 POP SWAP3 SWAP2 POP POP JUMP JUMPDEST PUSH0 PUSH2 0x5679 PUSH0 NOT DUP5 PUSH1 0x8 MUL PUSH2 0x565E JUMP JUMPDEST NOT DUP1 DUP4 AND SWAP2 POP POP SWAP3 SWAP2 POP POP JUMP JUMPDEST PUSH0 PUSH2 0x5691 DUP4 DUP4 PUSH2 0x566A JUMP JUMPDEST SWAP2 POP DUP3 PUSH1 0x2 MUL DUP3 OR SWAP1 POP SWAP3 SWAP2 POP POP JUMP JUMPDEST PUSH2 0x56AB DUP4 DUP4 PUSH2 0x5509 JUMP JUMPDEST PUSH8 0xFFFFFFFFFFFFFFFF DUP2 GT ISZERO PUSH2 0x56C4 JUMPI PUSH2 0x56C3 PUSH2 0x47E4 JUMP JUMPDEST JUMPDEST PUSH2 0x56CE DUP3 SLOAD PUSH2 0x52FD JUMP JUMPDEST PUSH2 0x56D9 DUP3 DUP3 DUP6 PUSH2 0x5618 JUMP JUMPDEST PUSH0 PUSH1 0x1F DUP4 GT PUSH1 0x1 DUP2 EQ PUSH2 0x5706 JUMPI PUSH0 DUP5 ISZERO PUSH2 0x56F4 JUMPI DUP3 DUP8 ADD CALLDATALOAD SWAP1 POP JUMPDEST PUSH2 0x56FE DUP6 DUP3 PUSH2 0x5686 JUMP JUMPDEST DUP7 SSTORE POP PUSH2 0x5765 JUMP JUMPDEST PUSH1 0x1F NOT DUP5 AND PUSH2 0x5714 DUP7 PUSH2 0x5337 JUMP JUMPDEST PUSH0 JUMPDEST DUP3 DUP2 LT ISZERO PUSH2 0x573B JUMPI DUP5 DUP10 ADD CALLDATALOAD DUP3 SSTORE PUSH1 0x1 DUP3 ADD SWAP2 POP PUSH1 0x20 DUP6 ADD SWAP5 POP PUSH1 0x20 DUP2 ADD SWAP1 POP PUSH2 0x5716 JUMP JUMPDEST DUP7 DUP4 LT ISZERO PUSH2 0x5758 JUMPI DUP5 DUP10 ADD CALLDATALOAD PUSH2 0x5754 PUSH1 0x1F DUP10 AND DUP3 PUSH2 0x566A JUMP JUMPDEST DUP4 SSTORE POP JUMPDEST PUSH1 0x1 PUSH1 0x2 DUP9 MUL ADD DUP9 SSTORE POP POP POP JUMPDEST POP POP POP POP POP POP POP JUMP JUMPDEST PUSH0 PUSH2 0x5779 DUP4 DUP6 PUSH2 0x532D JUMP JUMPDEST SWAP4 POP PUSH2 0x5786 DUP4 DUP6 DUP5 PUSH2 0x488C JUMP JUMPDEST DUP3 DUP5 ADD SWAP1 POP SWAP4 SWAP3 POP POP POP JUMP JUMPDEST PUSH0 PUSH2 0x579E DUP3 DUP5 DUP7 PUSH2 0x576E JUMP JUMPDEST SWAP2 POP DUP2 SWAP1 POP SWAP4 SWAP3 POP POP POP JUMP JUMPDEST PUSH0 DUP2 MLOAD SWAP1 POP PUSH2 0x57B8 DUP2 PUSH2 0x4BF5 JUMP JUMPDEST SWAP3 SWAP2 POP POP JUMP JUMPDEST PUSH0 PUSH1 0x20 DUP3 DUP5 SUB SLT ISZERO PUSH2 0x57D3 JUMPI PUSH2 0x57D2 PUSH2 0x46D6 JUMP JUMPDEST JUMPDEST PUSH0 PUSH2 0x57E0 DUP5 DUP3 DUP6 ADD PUSH2 0x57AA JUMP JUMPDEST SWAP2 POP POP SWAP3 SWAP2 POP POP JUMP JUMPDEST PUSH0 PUSH1 0x40 DUP3 ADD SWAP1 POP PUSH2 0x57FC PUSH0 DUP4 ADD DUP6 PUSH2 0x4DB3 JUMP JUMPDEST PUSH2 0x5809 PUSH1 0x20 DUP4 ADD DUP5 PUSH2 0x4DB3 JUMP JUMPDEST SWAP4 SWAP3 POP POP POP JUMP JUMPDEST PUSH2 0x5819 DUP2 PUSH2 0x469A JUMP JUMPDEST DUP2 EQ PUSH2 0x5823 JUMPI PUSH0 PUSH0 REVERT JUMPDEST POP JUMP JUMPDEST PUSH0 DUP2 MLOAD SWAP1 POP PUSH2 0x5834 DUP2 PUSH2 0x5810 JUMP JUMPDEST SWAP3 SWAP2 POP POP JUMP JUMPDEST PUSH0 PUSH1 0x20 DUP3 DUP5 SUB SLT ISZERO PUSH2 0x584F JUMPI PUSH2 0x584E PUSH2 0x46D6 JUMP JUMPDEST JUMPDEST PUSH0 PUSH2 0x585C DUP5 DUP3 DUP6 ADD PUSH2 0x5826 JUMP JUMPDEST SWAP2 POP POP SWAP3 SWAP2 POP POP JUMP JUMPDEST PUSH0 DUP2 MLOAD SWAP1 POP PUSH2 0x5873 DUP2 PUSH2 0x4C5D JUMP JUMPDEST SWAP3 SWAP2 POP POP JUMP JUMPDEST PUSH0 PUSH1 0x20 DUP3 DUP5 SUB SLT ISZERO PUSH2 0x588E JUMPI PUSH2 0x588D PUSH2 0x46D6 JUMP JUMPDEST JUMPDEST PUSH0 PUSH2 0x589B DUP5 DUP3 DUP6 ADD PUSH2 0x5865 JUMP JUMPDEST SWAP2 POP POP SWAP3 SWAP2 POP POP JUMP JUMPDEST PUSH32 0x4E487B7100000000000000000000000000000000000000000000000000000000 PUSH0 MSTORE PUSH1 0x11 PUSH1 0x4 MSTORE PUSH1 0x24 PUSH0 REVERT JUMPDEST PUSH0 PUSH2 0x58DB DUP3 PUSH2 0x4990 JUMP JUMPDEST SWAP2 POP PUSH2 0x58E6 DUP4 PUSH2 0x4990 JUMP JUMPDEST SWAP3 POP DUP3 DUP3 ADD SWAP1 POP DUP1 DUP3 GT ISZERO PUSH2 0x58FE JUMPI PUSH2 0x58FD PUSH2 0x58A4 JUMP JUMPDEST JUMPDEST SWAP3 SWAP2 POP POP JUMP JUMPDEST PUSH2 0x590D DUP3 PUSH2 0x4A4B JUMP JUMPDEST PUSH8 0xFFFFFFFFFFFFFFFF DUP2 GT ISZERO PUSH2 0x5926 JUMPI PUSH2 0x5925 PUSH2 0x47E4 JUMP JUMPDEST JUMPDEST PUSH2 0x5930 DUP3 SLOAD PUSH2 0x52FD JUMP JUMPDEST PUSH2 0x593B DUP3 DUP3 DUP6 PUSH2 0x5618 JUMP JUMPDEST PUSH0 PUSH1 0x20 SWAP1 POP PUSH1 0x1F DUP4 GT PUSH1 0x1 DUP2 EQ PUSH2 0x596C JUMPI PUSH0 DUP5 ISZERO PUSH2 0x595A JUMPI DUP3 DUP8 ADD MLOAD SWAP1 POP JUMPDEST PUSH2 0x5964 DUP6 DUP3 PUSH2 0x5686 JUMP JUMPDEST DUP7 SSTORE POP PUSH2 0x59CB JUMP JUMPDEST PUSH1 0x1F NOT DUP5 AND PUSH2 0x597A DUP7 PUSH2 0x5337 JUMP JUMPDEST PUSH0 JUMPDEST DUP3 DUP2 LT ISZERO PUSH2 0x59A1 JUMPI DUP5 DUP10 ADD MLOAD DUP3 SSTORE PUSH1 0x1 DUP3 ADD SWAP2 POP PUSH1 0x20 DUP6 ADD SWAP5 POP PUSH1 0x20 DUP2 ADD SWAP1 POP PUSH2 0x597C JUMP JUMPDEST DUP7 DUP4 LT ISZERO PUSH2 0x59BE JUMPI DUP5 DUP10 ADD MLOAD PUSH2 0x59BA PUSH1 0x1F DUP10 AND DUP3 PUSH2 0x566A JUMP JUMPDEST DUP4 SSTORE POP JUMPDEST PUSH1 0x1 PUSH1 0x2 DUP9 MUL ADD DUP9 SSTORE POP POP POP JUMPDEST POP POP POP POP POP POP JUMP JUMPDEST PUSH0 PUSH1 0x40 DUP3 ADD SWAP1 POP DUP2 DUP2 SUB PUSH0 DUP4 ADD MSTORE PUSH2 0x59EC DUP2 DUP6 DUP8 PUSH2 0x548E JUMP JUMPDEST SWAP1 POP PUSH2 0x59FB PUSH1 0x20 DUP4 ADD DUP5 PUSH2 0x50DA JUMP JUMPDEST SWAP5 SWAP4 POP POP POP POP JUMP JUMPDEST PUSH0 PUSH1 0x40 DUP3 ADD SWAP1 POP DUP2 DUP2 SUB PUSH0 DUP4 ADD MSTORE PUSH2 0x5A1C DUP2 DUP6 DUP8 PUSH2 0x548E JUMP JUMPDEST SWAP1 POP PUSH2 0x5A2B PUSH1 0x20 DUP4 ADD DUP5 PUSH2 0x4BCD JUMP JUMPDEST SWAP5 SWAP4 POP POP POP POP JUMP JUMPDEST PUSH0 PUSH1 0xA0 DUP3 ADD SWAP1 POP PUSH2 0x5A46 PUSH0 DUP4 ADD DUP10 PUSH2 0x4DB3 JUMP JUMPDEST PUSH2 0x5A53 PUSH1 0x20 DUP4 ADD DUP9 PUSH2 0x4F54 JUMP JUMPDEST PUSH2 0x5A60 PUSH1 0x40 DUP4 ADD DUP8 PUSH2 0x4F54 JUMP JUMPDEST PUSH2 0x5A6D PUSH1 0x60 DUP4 ADD DUP7 PUSH2 0x4F54 JUMP JUMPDEST DUP2 DUP2 SUB PUSH1 0x80 DUP4 ADD MSTORE PUSH2 0x5A80 DUP2 DUP5 DUP7 PUSH2 0x548E JUMP JUMPDEST SWAP1 POP SWAP8 SWAP7 POP POP POP POP POP POP POP JUMP JUMPDEST PUSH0 PUSH8 0xFFFFFFFFFFFFFFFF DUP3 GT ISZERO PUSH2 0x5AA7 JUMPI PUSH2 0x5AA6 PUSH2 0x47E4 JUMP JUMPDEST JUMPDEST PUSH1 0x20 DUP3 MUL SWAP1 POP PUSH1 0x20 DUP2 ADD SWAP1 POP SWAP2 SWAP1 POP JUMP JUMPDEST PUSH0 PUSH2 0x5ACA PUSH2 0x5AC5 DUP5 PUSH2 0x5A8D JUMP JUMPDEST PUSH2 0x4842 JUMP JUMPDEST SWAP1 POP DUP1 DUP4 DUP3 MSTORE PUSH1 0x20 DUP3 ADD SWAP1 POP PUSH1 0x20 DUP5 MUL DUP4 ADD DUP6 DUP2 GT ISZERO PUSH2 0x5AED JUMPI PUSH2 0x5AEC PUSH2 0x4C8B JUMP JUMPDEST JUMPDEST DUP4 JUMPDEST DUP2 DUP2 LT ISZERO PUSH2 0x5B34 JUMPI DUP1 CALLDATALOAD PUSH8 0xFFFFFFFFFFFFFFFF DUP2 GT ISZERO PUSH2 0x5B12 JUMPI PUSH2 0x5B11 PUSH2 0x47CC JUMP JUMPDEST JUMPDEST DUP1 DUP7 ADD PUSH2 0x5B1F DUP10 DUP3 PUSH2 0x5231 JUMP JUMPDEST DUP6 MSTORE PUSH1 0x20 DUP6 ADD SWAP5 POP POP POP PUSH1 0x20 DUP2 ADD SWAP1 POP PUSH2 0x5AEF JUMP JUMPDEST POP POP POP SWAP4 SWAP3 POP POP POP JUMP JUMPDEST PUSH0 PUSH2 0x5B4A CALLDATASIZE DUP5 DUP5 PUSH2 0x5AB8 JUMP JUMPDEST SWAP1 POP SWAP3 SWAP2 POP POP JUMP JUMPDEST PUSH32 0x4D7573742062652070726F706F736564206F776E657200000000000000000000 PUSH0 DUP3 ADD MSTORE POP JUMP JUMPDEST PUSH0 PUSH2 0x5B86 PUSH1 0x16 DUP4 PUSH2 0x502E JUMP JUMPDEST SWAP2 POP PUSH2 0x5B91 DUP3 PUSH2 0x5B52 JUMP JUMPDEST PUSH1 0x20 DUP3 ADD SWAP1 POP SWAP2 SWAP1 POP JUMP JUMPDEST PUSH0 PUSH1 0x20 DUP3 ADD SWAP1 POP DUP2 DUP2 SUB PUSH0 DUP4 ADD MSTORE PUSH2 0x5BB3 DUP2 PUSH2 0x5B7A JUMP JUMPDEST SWAP1 POP SWAP2 SWAP1 POP JUMP JUMPDEST PUSH0 PUSH2 0x5BC4 DUP3 PUSH2 0x4A4B JUMP JUMPDEST PUSH2 0x5BCE DUP2 DUP6 PUSH2 0x532D JUMP JUMPDEST SWAP4 POP PUSH2 0x5BDE DUP2 DUP6 PUSH1 0x20 DUP7 ADD PUSH2 0x4A65 JUMP JUMPDEST DUP1 DUP5 ADD SWAP2 POP POP SWAP3 SWAP2 POP POP JUMP JUMPDEST PUSH0 PUSH2 0x5BF5 DUP3 DUP5 PUSH2 0x5BBA JUMP JUMPDEST SWAP2 POP DUP2 SWAP1 POP SWAP3 SWAP2 POP POP JUMP JUMPDEST PUSH0 DUP2 SWAP1 POP SWAP2 SWAP1 POP JUMP JUMPDEST PUSH0 PUSH2 0x5C23 PUSH2 0x5C1E PUSH2 0x5C19 DUP5 PUSH2 0x5C00 JUMP JUMPDEST PUSH2 0x557F JUMP JUMPDEST PUSH2 0x475E JUMP JUMPDEST SWAP1 POP SWAP2 SWAP1 POP JUMP JUMPDEST PUSH2 0x5C33 DUP2 PUSH2 0x5C09 JUMP JUMPDEST DUP3 MSTORE POP POP JUMP JUMPDEST PUSH0 PUSH1 0x20 DUP3 ADD SWAP1 POP PUSH2 0x5C4C PUSH0 DUP4 ADD DUP5 PUSH2 0x5C2A JUMP JUMPDEST SWAP3 SWAP2 POP POP JUMP JUMPDEST PUSH0 DUP2 SWAP1 POP DUP2 PUSH0 MSTORE PUSH1 0x20 PUSH0 KECCAK256 SWAP1 POP SWAP2 SWAP1 POP JUMP JUMPDEST PUSH1 0x1F DUP3 GT ISZERO PUSH2 0x5CA5 JUMPI PUSH2 0x5C76 DUP2 PUSH2 0x5C52 JUMP JUMPDEST PUSH2 0x5C7F DUP5 PUSH2 0x5513 JUMP JUMPDEST DUP2 ADD PUSH1 0x20 DUP6 LT ISZERO PUSH2 0x5C8E JUMPI DUP2 SWAP1 POP JUMPDEST PUSH2 0x5CA2 PUSH2 0x5C9A DUP6 PUSH2 0x5513 JUMP JUMPDEST DUP4 ADD DUP3 PUSH2 0x55F6 JUMP JUMPDEST POP POP JUMPDEST POP POP POP JUMP JUMPDEST PUSH2 0x5CB3 DUP3 PUSH2 0x4D41 JUMP JUMPDEST PUSH8 0xFFFFFFFFFFFFFFFF DUP2 GT ISZERO PUSH2 0x5CCC JUMPI PUSH2 0x5CCB PUSH2 0x47E4 JUMP JUMPDEST JUMPDEST PUSH2 0x5CD6 DUP3 SLOAD PUSH2 0x52FD JUMP JUMPDEST PUSH2 0x5CE1 DUP3 DUP3 DUP6 PUSH2 0x5C64 JUMP JUMPDEST PUSH0 PUSH1 0x20 SWAP1 POP PUSH1 0x1F DUP4 GT PUSH1 0x1 DUP2 EQ PUSH2 0x5D12 JUMPI PUSH0 DUP5 ISZERO PUSH2 0x5D00 JUMPI DUP3 DUP8 ADD MLOAD SWAP1 POP JUMPDEST PUSH2 0x5D0A DUP6 DUP3 PUSH2 0x5686 JUMP JUMPDEST DUP7 SSTORE POP PUSH2 0x5D71 JUMP JUMPDEST PUSH1 0x1F NOT DUP5 AND PUSH2 0x5D20 DUP7 PUSH2 0x5C52 JUMP JUMPDEST PUSH0 JUMPDEST DUP3 DUP2 LT ISZERO PUSH2 0x5D47 JUMPI DUP5 DUP10 ADD MLOAD DUP3 SSTORE PUSH1 0x1 DUP3 ADD SWAP2 POP PUSH1 0x20 DUP6 ADD SWAP5 POP PUSH1 0x20 DUP2 ADD SWAP1 POP PUSH2 0x5D22 JUMP JUMPDEST DUP7 DUP4 LT ISZERO PUSH2 0x5D64 JUMPI DUP5 DUP10 ADD MLOAD PUSH2 0x5D60 PUSH1 0x1F DUP10 AND DUP3 PUSH2 0x566A JUMP JUMPDEST DUP4 SSTORE POP JUMPDEST PUSH1 0x1 PUSH1 0x2 DUP9 MUL ADD DUP9 SSTORE POP POP POP JUMPDEST POP POP POP POP POP POP JUMP JUMPDEST PUSH0 DUP2 MLOAD SWAP1 POP PUSH2 0x5D87 DUP2 PUSH2 0x4999 JUMP JUMPDEST SWAP3 SWAP2 POP POP JUMP JUMPDEST PUSH0 PUSH1 0x20 DUP3 DUP5 SUB SLT ISZERO PUSH2 0x5DA2 JUMPI PUSH2 0x5DA1 PUSH2 0x46D6 JUMP JUMPDEST JUMPDEST PUSH0 PUSH2 0x5DAF DUP5 DUP3 DUP6 ADD PUSH2 0x5D79 JUMP JUMPDEST SWAP2 POP POP SWAP3 SWAP2 POP POP JUMP JUMPDEST PUSH0 PUSH1 0x80 DUP3 ADD SWAP1 POP DUP2 DUP2 SUB PUSH0 DUP4 ADD MSTORE PUSH2 0x5DD0 DUP2 DUP8 PUSH2 0x53DF JUMP JUMPDEST SWAP1 POP PUSH2 0x5DDF PUSH1 0x20 DUP4 ADD DUP7 PUSH2 0x46A5 JUMP JUMPDEST DUP2 DUP2 SUB PUSH1 0x40 DUP4 ADD MSTORE PUSH2 0x5DF1 DUP2 DUP6 PUSH2 0x4D5B JUMP JUMPDEST SWAP1 POP DUP2 DUP2 SUB PUSH1 0x60 DUP4 ADD MSTORE PUSH2 0x5E05 DUP2 DUP5 PUSH2 0x4D5B JUMP JUMPDEST SWAP1 POP SWAP6 SWAP5 POP POP POP POP POP JUMP JUMPDEST PUSH0 PUSH1 0x60 DUP3 ADD SWAP1 POP PUSH2 0x5E23 PUSH0 DUP4 ADD DUP7 PUSH2 0x4F54 JUMP JUMPDEST DUP2 DUP2 SUB PUSH1 0x20 DUP4 ADD MSTORE PUSH2 0x5E35 DUP2 DUP6 PUSH2 0x4D5B JUMP JUMPDEST SWAP1 POP DUP2 DUP2 SUB PUSH1 0x40 DUP4 ADD MSTORE PUSH2 0x5E49 DUP2 DUP5 PUSH2 0x4D5B JUMP JUMPDEST SWAP1 POP SWAP5 SWAP4 POP POP POP POP JUMP JUMPDEST PUSH32 0x4F6E6C792063616C6C61626C65206279206F776E657200000000000000000000 PUSH0 DUP3 ADD MSTORE POP JUMP JUMPDEST PUSH0 PUSH2 0x5E87 PUSH1 0x16 DUP4 PUSH2 0x502E JUMP JUMPDEST SWAP2 POP PUSH2 0x5E92 DUP3 PUSH2 0x5E53 JUMP JUMPDEST PUSH1 0x20 DUP3 ADD SWAP1 POP SWAP2 SWAP1 POP JUMP JUMPDEST PUSH0 PUSH1 0x20 DUP3 ADD SWAP1 POP DUP2 DUP2 SUB PUSH0 DUP4 ADD MSTORE PUSH2 0x5EB4 DUP2 PUSH2 0x5E7B JUMP JUMPDEST SWAP1 POP SWAP2 SWAP1 POP JUMP JUMPDEST PUSH0 PUSH2 0xFFFF DUP3 AND SWAP1 POP SWAP2 SWAP1 POP JUMP JUMPDEST PUSH2 0x5ED1 DUP2 PUSH2 0x5EBB JUMP JUMPDEST DUP3 MSTORE POP POP JUMP JUMPDEST PUSH0 PUSH4 0xFFFFFFFF DUP3 AND SWAP1 POP SWAP2 SWAP1 POP JUMP JUMPDEST PUSH2 0x5EEF DUP2 PUSH2 0x5ED7 JUMP JUMPDEST DUP3 MSTORE POP POP JUMP JUMPDEST PUSH0 PUSH1 0xA0 DUP3 ADD SWAP1 POP PUSH2 0x5F08 PUSH0 DUP4 ADD DUP9 PUSH2 0x4771 JUMP JUMPDEST DUP2 DUP2 SUB PUSH1 0x20 DUP4 ADD MSTORE PUSH2 0x5F1A DUP2 DUP8 PUSH2 0x4D5B JUMP JUMPDEST SWAP1 POP PUSH2 0x5F29 PUSH1 0x40 DUP4 ADD DUP7 PUSH2 0x5EC8 JUMP JUMPDEST PUSH2 0x5F36 PUSH1 0x60 DUP4 ADD DUP6 PUSH2 0x5EE6 JUMP JUMPDEST PUSH2 0x5F43 PUSH1 0x80 DUP4 ADD DUP5 PUSH2 0x4BCD JUMP JUMPDEST SWAP7 SWAP6 POP POP POP POP POP POP JUMP JUMPDEST PUSH0 DUP2 MLOAD SWAP1 POP PUSH2 0x5F5B DUP2 PUSH2 0x47A2 JUMP JUMPDEST SWAP3 SWAP2 POP POP JUMP JUMPDEST PUSH0 PUSH1 0x20 DUP3 DUP5 SUB SLT ISZERO PUSH2 0x5F76 JUMPI PUSH2 0x5F75 PUSH2 0x46D6 JUMP JUMPDEST JUMPDEST PUSH0 PUSH2 0x5F83 DUP5 DUP3 DUP6 ADD PUSH2 0x5F4D JUMP JUMPDEST SWAP2 POP POP SWAP3 SWAP2 POP POP JUMP JUMPDEST PUSH32 0x43616E6E6F7420736574206F776E657220746F207A65726F0000000000000000 PUSH0 DUP3 ADD MSTORE POP JUMP JUMPDEST PUSH0 PUSH2 0x5FC0 PUSH1 0x18 DUP4 PUSH2 0x502E JUMP JUMPDEST SWAP2 POP PUSH2 0x5FCB DUP3 PUSH2 0x5F8C JUMP JUMPDEST PUSH1 0x20 DUP3 ADD SWAP1 POP SWAP2 SWAP1 POP JUMP JUMPDEST PUSH0 PUSH1 0x20 DUP3 ADD SWAP1 POP DUP2 DUP2 SUB PUSH0 DUP4 ADD MSTORE PUSH2 0x5FED DUP2 PUSH2 0x5FB4 JUMP JUMPDEST SWAP1 POP SWAP2 SWAP1 POP JUMP JUMPDEST PUSH32 0x43616E6E6F74207472616E7366657220746F2073656C66000000000000000000 PUSH0 DUP3 ADD MSTORE POP JUMP JUMPDEST PUSH0 PUSH2 0x6028 PUSH1 0x17 DUP4 PUSH2 0x502E JUMP JUMPDEST SWAP2 POP PUSH2 0x6033 DUP3 PUSH2 0x5FF4 JUMP JUMPDEST PUSH1 0x20 DUP3 ADD SWAP1 POP SWAP2 SWAP1 POP JUMP JUMPDEST PUSH0 PUSH1 0x20 DUP3 ADD SWAP1 POP DUP2 DUP2 SUB PUSH0 DUP4 ADD MSTORE PUSH2 0x6055 DUP2 PUSH2 0x601C JUMP JUMPDEST SWAP1 POP SWAP2 SWAP1 POP JUMP JUMPDEST PUSH0 PUSH1 0x40 DUP3 ADD SWAP1 POP PUSH2 0x606F PUSH0 DUP4 ADD DUP6 PUSH2 0x4DB3 JUMP JUMPDEST PUSH2 0x607C PUSH1 0x20 DUP4 ADD DUP5 PUSH2 0x4BCD JUMP JUMPDEST SWAP4 SWAP3 POP POP POP JUMP JUMPDEST PUSH0 PUSH2 0x608D DUP3 PUSH2 0x4990 JUMP JUMPDEST SWAP2 POP PUSH2 0x6098 DUP4 PUSH2 0x4990 JUMP JUMPDEST SWAP3 POP DUP3 DUP3 SUB SWAP1 POP DUP2 DUP2 GT ISZERO PUSH2 0x60B0 JUMPI PUSH2 0x60AF PUSH2 0x58A4 JUMP JUMPDEST JUMPDEST SWAP3 SWAP2 POP POP JUMP JUMPDEST PUSH32 0x4E487B7100000000000000000000000000000000000000000000000000000000 PUSH0 MSTORE PUSH1 0x12 PUSH1 0x4 MSTORE PUSH1 0x24 PUSH0 REVERT JUMPDEST PUSH0 PUSH2 0x60ED DUP3 PUSH2 0x4990 JUMP JUMPDEST SWAP2 POP PUSH2 0x60F8 DUP4 PUSH2 0x4990 JUMP JUMPDEST SWAP3 POP DUP3 PUSH2 0x6108 JUMPI PUSH2 0x6107 PUSH2 0x60B6 JUMP JUMPDEST JUMPDEST DUP3 DUP3 MOD SWAP1 POP SWAP3 SWAP2 POP POP JUMP JUMPDEST PUSH0 PUSH2 0x611D DUP3 PUSH2 0x4990 JUMP JUMPDEST SWAP2 POP PUSH2 0x6128 DUP4 PUSH2 0x4990 JUMP JUMPDEST SWAP3 POP DUP3 DUP3 MUL PUSH2 0x6136 DUP2 PUSH2 0x4990 JUMP JUMPDEST SWAP2 POP DUP3 DUP3 DIV DUP5 EQ DUP4 ISZERO OR PUSH2 0x614D JUMPI PUSH2 0x614C PUSH2 0x58A4 JUMP JUMPDEST JUMPDEST POP SWAP3 SWAP2 POP POP JUMP JUMPDEST PUSH0 DUP2 SWAP1 POP SWAP3 SWAP2 POP POP JUMP JUMPDEST PUSH0 PUSH2 0x6168 DUP3 PUSH2 0x4D41 JUMP JUMPDEST PUSH2 0x6172 DUP2 DUP6 PUSH2 0x6154 JUMP JUMPDEST SWAP4 POP PUSH2 0x6182 DUP2 DUP6 PUSH1 0x20 DUP7 ADD PUSH2 0x4A65 JUMP JUMPDEST DUP1 DUP5 ADD SWAP2 POP POP SWAP3 SWAP2 POP POP JUMP JUMPDEST PUSH0 PUSH2 0x6199 DUP3 DUP5 PUSH2 0x615E JUMP JUMPDEST SWAP2 POP DUP2 SWAP1 POP SWAP3 SWAP2 POP POP JUMP JUMPDEST PUSH0 DUP2 PUSH1 0x1 SHR SWAP1 POP SWAP2 SWAP1 POP JUMP JUMPDEST PUSH0 PUSH0 DUP3 SWAP2 POP DUP4 SWAP1 POP JUMPDEST PUSH1 0x1 DUP6 GT ISZERO PUSH2 0x61F9 JUMPI DUP1 DUP7 DIV DUP2 GT ISZERO PUSH2 0x61D5 JUMPI PUSH2 0x61D4 PUSH2 0x58A4 JUMP JUMPDEST JUMPDEST PUSH1 0x1 DUP6 AND ISZERO PUSH2 0x61E4 JUMPI DUP1 DUP3 MUL SWAP2 POP JUMPDEST DUP1 DUP2 MUL SWAP1 POP PUSH2 0x61F2 DUP6 PUSH2 0x61A4 JUMP JUMPDEST SWAP5 POP PUSH2 0x61B9 JUMP JUMPDEST SWAP5 POP SWAP5 SWAP3 POP POP POP JUMP JUMPDEST PUSH0 DUP3 PUSH2 0x6211 JUMPI PUSH1 0x1 SWAP1 POP PUSH2 0x62CC JUMP JUMPDEST DUP2 PUSH2 0x621E JUMPI PUSH0 SWAP1 POP PUSH2 0x62CC JUMP JUMPDEST DUP2 PUSH1 0x1 DUP2 EQ PUSH2 0x6234 JUMPI PUSH1 0x2 DUP2 EQ PUSH2 0x623E JUMPI PUSH2 0x626D JUMP JUMPDEST PUSH1 0x1 SWAP2 POP POP PUSH2 0x62CC JUMP JUMPDEST PUSH1 0xFF DUP5 GT ISZERO PUSH2 0x6250 JUMPI PUSH2 0x624F PUSH2 0x58A4 JUMP JUMPDEST JUMPDEST DUP4 PUSH1 0x2 EXP SWAP2 POP DUP5 DUP3 GT ISZERO PUSH2 0x6267 JUMPI PUSH2 0x6266 PUSH2 0x58A4 JUMP JUMPDEST JUMPDEST POP PUSH2 0x62CC JUMP JUMPDEST POP PUSH1 0x20 DUP4 LT PUSH2 0x133 DUP4 LT AND PUSH1 0x4E DUP5 LT PUSH1 0xB DUP5 LT AND OR ISZERO PUSH2 0x62A2 JUMPI DUP3 DUP3 EXP SWAP1 POP DUP4 DUP2 GT ISZERO PUSH2 0x629D JUMPI PUSH2 0x629C PUSH2 0x58A4 JUMP JUMPDEST JUMPDEST PUSH2 0x62CC JUMP JUMPDEST PUSH2 0x62AF DUP5 DUP5 DUP5 PUSH1 0x1 PUSH2 0x61B0 JUMP JUMPDEST SWAP3 POP SWAP1 POP DUP2 DUP5 DIV DUP2 GT ISZERO PUSH2 0x62C6 JUMPI PUSH2 0x62C5 PUSH2 0x58A4 JUMP JUMPDEST JUMPDEST DUP2 DUP2 MUL SWAP1 POP JUMPDEST SWAP4 SWAP3 POP POP POP JUMP JUMPDEST PUSH0 PUSH2 0x62DD DUP3 PUSH2 0x4990 JUMP JUMPDEST SWAP2 POP PUSH2 0x62E8 DUP4 PUSH2 0x4990 JUMP JUMPDEST SWAP3 POP PUSH2 0x6315 PUSH32 0xFFFFFFFFFFFFFFFFFFFFFFFFFFFFFFFFFFFFFFFFFFFFFFFFFFFFFFFFFFFFFFFF DUP5 DUP5 PUSH2 0x6202 JUMP JUMPDEST SWAP1 POP SWAP3 SWAP2 POP POP JUMP INVALID LOG2 PUSH5 0x6970667358 0x22 SLT KECCAK256 0xB2 DUP15 DUP1 CALL SLOAD 0xDA 0xCE 0xC2 0xE2 0x2B SDIV INVALID PUSH5 0x4C2A0144B3 SWAPN 0xD RJUMP 0xF070 0xD3 0xD5 SHR NUMBER ADD 0x2F PUSH30 0x4EBF64736F6C634300081E0033636F6E7374207469636B65744964203D20 PUSH2 0x7267 PUSH20 0x5B305D3B636F6E73742075726C203D2027687474 PUSH17 0x733A2F2F36383431636633616434383531 CALLDATASIZE PUSH5 0x3164333563 PUSH7 0x3731632E6D6F63 PUSH12 0x6170692E696F2F7665726966 PUSH26 0x7469636B6574732F27202B207469636B657449643B636F6E7374 KECCAK256 PUSH19 0x6573706F6E7365203D2061776169742046756E PUSH4 0x74696F6E PUSH20 0x2E6D616B654874747052657175657374287B2075 PUSH19 0x6C207D293B69662028726573706F6E73652E65 PUSH19 0x726F7229207B207468726F77204572726F7228 0x27 MSTORE PUSH6 0x717565737420 PUSH7 0x61696C65642729 EXTCODESIZE KECCAK256 PUSH30 0x636F6E73742064617461203D20726573706F6E73652E646174613B696620 0x28 0x21 PUSH5 0x617461207C PUSH29 0x20747970656F66206461746120213D3D20276F626A6563742729207468 PUSH19 0x6F77204572726F7228605469636B6574204944 KECCAK256 0x24 PUSH28 0x7469636B657449647D206E6F7420666F756E64206F7220696E76616C PUSH10 0x6460293B636F6E737420 PUSH10 0x7355736564203D206461 PUSH21 0x612E75736564203D3D3D20747275653B7265747572 PUSH15 0x2046756E6374696F6E732E656E636F PUSH5 0x6555696E74 ORIGIN CALLDATALOAD CALLDATASIZE 0x28 PUSH10 0x7355736564203F203120 GASPRICE KECCAK256 ADDRESS 0x29 EXTCODESIZE PUSH4 0x6F6E7374 KECCAK256 PUSH6 0x76656E744964 KECCAK256 RETURNDATASIZE KECCAK256 PUSH2 0x7267 PUSH20 0x5B305D3B636F6E73742075726C203D2027687474 PUSH17 0x733A2F2F36383431636633616434383531 CALLDATASIZE PUSH5 0x3164333563 PUSH7 0x3731632E6D6F63 PUSH12 0x6170692E696F2F7469636B65 PUSH21 0x732F27202B206576656E7449643B636F6E73742072 PUSH6 0x73706F6E7365 KECCAK256 RETURNDATASIZE KECCAK256 PUSH2 0x7761 PUSH10 0x742046756E6374696F6E PUSH20 0x2E6D616B654874747052657175657374287B2075 PUSH19 0x6C207D293B69662028726573706F6E73652E65 PUSH19 0x726F7229207B207468726F77204572726F7228 0x27 MSTORE PUSH6 0x717565737420 PUSH7 0x61696C65642729 EXTCODESIZE KECCAK256 PUSH30 0x636F6E73742064617461203D20726573706F6E73652E646174613B696620 0x28 0x21 PUSH5 0x617461207C PUSH29 0x20747970656F66206461746120213D3D20276F626A6563742729207468 PUSH19 0x6F77204572726F722860496E76616C69642072 PUSH6 0x73706F6E7365 PUSH1 0x29 EXTCODESIZE PUSH4 0x6F6E7374 KECCAK256 PUSH19 0x617752656D61696E696E67203D20646174612E PUSH19 0x656D61696E696E673B636F6E73742061766169 PUSH13 0x61626C65203D204E756D626572 0x28 PUSH19 0x617752656D61696E696E67293B69662028214E PUSH22 0x6D6265722E697346696E69746528617661696C61626C PUSH6 0x292920746872 PUSH16 0x77204572726F722860496E76616C6964 KECCAK256 PUSH21 0x69636B657420636F756E743A20247B72617752656D PUSH2 0x696E PUSH10 0x6E677D60293B72657475 PUSH19 0x6E2046756E6374696F6E732E656E636F646555 PUSH10 0x6E743235362861766169 PUSH13 0x61626C65293B00000000000000 "
		},
		"gasEstimates": {
			"creation": {
				"codeDepositCost": "5085400",
				"executionCost": "infinite",
				"totalCost": "infinite"
			},
			"external": {
				"DEFAULT_ADMIN_ROLE()": "440",
				"UPGRADE_INTERFACE_VERSION()": "infinite",
				"acceptOwnership()": "54621",
				"cancelListing(uint256)": "infinite",
				"createListing(address,uint256,uint256,uint256,string)": "infinite",
				"feeRecipient()": "2598",
				"getCurrentListingId()": "2523",
				"getImplementation()": "2646",
				"getListing(uint256)": "infinite",
				"getListingTicketStatus(uint256)": "infinite",
				"getRoleAdmin(bytes32)": "infinite",
				"grantRole(bytes32,address)": "infinite",
				"handleOracleFulfillment(bytes32,bytes,bytes)": "infinite",
				"hasRole(bytes32,address)": "3239",
				"initialize(address,uint256,uint256,uint256,address,uint64)": "infinite",
				"isTicketUsed(string)": "infinite",
				"isTokenListed(address,uint256)": "infinite",
				"maxListingDuration()": "2513",
				"minListingDuration()": "2514",
				"owner()": "2648",
				"paused()": "2657",
				"platformFeePercent()": "2537",
				"proxiableUUID()": "infinite",
				"remainingTickets()": "2471",
				"renounceRole(bytes32,address)": "infinite",
				"requestRemainingTickets(uint64,string[])": "infinite",
				"revokeRole(bytes32,address)": "infinite",
				"s_lastCheckedTicketId()": "infinite",
				"s_lastError()": "infinite",
				"s_lastRequestId()": "2536",
				"s_lastResponse()": "infinite",
				"s_lastTicketUsed()": "2513",
				"subscriptionId()": "2557",
				"supportedContracts(address)": "2966",
				"supportsInterface(bytes4)": "786",
				"ticketUsageStatus(string)": "infinite",
				"transferOwnership(address)": "30759",
				"upgradeToAndCall(address,bytes)": "infinite",
				"verifyTicketUsage(uint64,string)": "infinite"
			}
		},
		"methodIdentifiers": {
			"DEFAULT_ADMIN_ROLE()": "a217fddf",
			"UPGRADE_INTERFACE_VERSION()": "ad3cb1cc",
			"acceptOwnership()": "79ba5097",
			"cancelListing(uint256)": "305a67a8",
			"createListing(address,uint256,uint256,uint256,string)": "4d38bb39",
			"feeRecipient()": "46904840",
			"getCurrentListingId()": "be9ad61e",
			"getImplementation()": "aaf10f42",
			"getListing(uint256)": "107a274a",
			"getListingTicketStatus(uint256)": "8db23f27",
			"getRoleAdmin(bytes32)": "248a9ca3",
			"grantRole(bytes32,address)": "2f2ff15d",
			"handleOracleFulfillment(bytes32,bytes,bytes)": "0ca76175",
			"hasRole(bytes32,address)": "91d14854",
			"initialize(address,uint256,uint256,uint256,address,uint64)": "a92f67ac",
			"isTicketUsed(string)": "5a3d7263",
			"isTokenListed(address,uint256)": "5471b47a",
			"maxListingDuration()": "def050c5",
			"minListingDuration()": "957d90d4",
			"owner()": "8da5cb5b",
			"paused()": "5c975abb",
			"platformFeePercent()": "8c639a85",
			"proxiableUUID()": "52d1902d",
			"remainingTickets()": "5d504832",
			"renounceRole(bytes32,address)": "36568abe",
			"requestRemainingTickets(uint64,string[])": "731cbea8",
			"revokeRole(bytes32,address)": "d547741f",
			"s_lastCheckedTicketId()": "f9aff1e8",
			"s_lastError()": "4b0795a8",
			"s_lastRequestId()": "b1e21749",
			"s_lastResponse()": "3944ea3a",
			"s_lastTicketUsed()": "01c47c8b",
			"subscriptionId()": "09c1ba2e",
			"supportedContracts(address)": "b7ff920e",
			"supportsInterface(bytes4)": "01ffc9a7",
			"ticketUsageStatus(string)": "b106b39d",
			"transferOwnership(address)": "f2fde38b",
			"upgradeToAndCall(address,bytes)": "4f1ef286",
			"verifyTicketUsage(uint64,string)": "34a9620c"
		}
	},
	"abi": [
		{
			"inputs": [],
			"name": "AccessControlBadConfirmation",
			"type": "error"
		},
		{
			"inputs": [
				{
					"internalType": "address",
					"name": "account",
					"type": "address"
				},
				{
					"internalType": "bytes32",
					"name": "neededRole",
					"type": "bytes32"
				}
			],
			"name": "AccessControlUnauthorizedAccount",
			"type": "error"
		},
		{
			"inputs": [
				{
					"internalType": "address",
					"name": "target",
					"type": "address"
				}
			],
			"name": "AddressEmptyCode",
			"type": "error"
		},
		{
			"inputs": [
				{
					"internalType": "address",
					"name": "implementation",
					"type": "address"
				}
			],
			"name": "ERC1967InvalidImplementation",
			"type": "error"
		},
		{
			"inputs": [],
			"name": "ERC1967NonPayable",
			"type": "error"
		},
		{
			"inputs": [],
			"name": "EmptyArgs",
			"type": "error"
		},
		{
			"inputs": [],
			"name": "EmptySource",
			"type": "error"
		},
		{
			"inputs": [],
			"name": "EnforcedPause",
			"type": "error"
		},
		{
			"inputs": [],
			"name": "EventEnded",
			"type": "error"
		},
		{
			"inputs": [],
			"name": "ExpectedPause",
			"type": "error"
		},
		{
			"inputs": [],
			"name": "FailedCall",
			"type": "error"
		},
		{
			"inputs": [],
			"name": "InsufficientPayment",
			"type": "error"
		},
		{
			"inputs": [],
			"name": "InvalidDuration",
			"type": "error"
		},
		{
			"inputs": [],
			"name": "InvalidFeePercent",
			"type": "error"
		},
		{
			"inputs": [],
			"name": "InvalidInitialization",
			"type": "error"
		},
		{
			"inputs": [],
			"name": "InvalidPrice",
			"type": "error"
		},
		{
			"inputs": [
				{
					"internalType": "string",
					"name": "ticketId",
					"type": "string"
				}
			],
			"name": "InvalidTicketID",
			"type": "error"
		},
		{
			"inputs": [],
			"name": "ListingExpired",
			"type": "error"
		},
		{
			"inputs": [],
			"name": "ListingNotActive",
			"type": "error"
		},
		{
			"inputs": [],
			"name": "ListingNotFound",
			"type": "error"
		},
		{
			"inputs": [],
			"name": "NoInlineSecrets",
			"type": "error"
		},
		{
			"inputs": [],
			"name": "NotInitializing",
			"type": "error"
		},
		{
			"inputs": [],
			"name": "NotSeller",
			"type": "error"
		},
		{
			"inputs": [],
			"name": "NotTokenOwner",
			"type": "error"
		},
		{
			"inputs": [],
			"name": "OnlyRouterCanFulfill",
			"type": "error"
		},
		{
			"inputs": [],
			"name": "ReentrancyGuardReentrantCall",
			"type": "error"
		},
		{
			"inputs": [
				{
					"internalType": "string",
					"name": "ticketId",
					"type": "string"
				}
			],
			"name": "TicketAlreadyUsed",
			"type": "error"
		},
		{
			"inputs": [
				{
					"internalType": "string",
					"name": "ticketId",
					"type": "string"
				}
			],
			"name": "TicketNotFresh",
			"type": "error"
		},
		{
			"inputs": [],
			"name": "TokenAlreadyListed",
			"type": "error"
		},
		{
			"inputs": [],
			"name": "TokenNotApproved",
			"type": "error"
		},
		{
			"inputs": [],
			"name": "TransferFailed",
			"type": "error"
		},
		{
			"inputs": [],
			"name": "UUPSUnauthorizedCallContext",
			"type": "error"
		},
		{
			"inputs": [
				{
					"internalType": "bytes32",
					"name": "slot",
					"type": "bytes32"
				}
			],
			"name": "UUPSUnsupportedProxiableUUID",
			"type": "error"
		},
		{
			"inputs": [
				{
					"internalType": "bytes32",
					"name": "requestId",
					"type": "bytes32"
				}
			],
			"name": "UnexpectedRequestID",
			"type": "error"
		},
		{
			"inputs": [],
			"name": "UnsupportedContract",
			"type": "error"
		},
		{
			"inputs": [],
			"name": "ZeroAddress",
			"type": "error"
		},
		{
			"anonymous": false,
			"inputs": [
				{
					"indexed": false,
					"internalType": "address",
					"name": "nftContract",
					"type": "address"
				},
				{
					"indexed": false,
					"internalType": "bool",
					"name": "supported",
					"type": "bool"
				}
			],
			"name": "ContractSupportUpdated",
			"type": "event"
		},
		{
			"anonymous": false,
			"inputs": [
				{
					"indexed": false,
					"internalType": "address",
					"name": "newFeeRecipient",
					"type": "address"
				}
			],
			"name": "FeeRecipientUpdated",
			"type": "event"
		},
		{
			"anonymous": false,
			"inputs": [
				{
					"indexed": false,
					"internalType": "uint64",
					"name": "version",
					"type": "uint64"
				}
			],
			"name": "Initialized",
			"type": "event"
		},
		{
			"anonymous": false,
			"inputs": [
				{
					"indexed": true,
					"internalType": "uint256",
					"name": "listingId",
					"type": "uint256"
				},
				{
					"indexed": true,
					"internalType": "address",
					"name": "seller",
					"type": "address"
				}
			],
			"name": "ListingCancelled",
			"type": "event"
		},
		{
			"anonymous": false,
			"inputs": [
				{
					"indexed": true,
					"internalType": "uint256",
					"name": "listingId",
					"type": "uint256"
				},
				{
					"indexed": true,
					"internalType": "address",
					"name": "nftContract",
					"type": "address"
				},
				{
					"indexed": true,
					"internalType": "uint256",
					"name": "tokenId",
					"type": "uint256"
				},
				{
					"indexed": false,
					"internalType": "address",
					"name": "seller",
					"type": "address"
				},
				{
					"indexed": false,
					"internalType": "uint256",
					"name": "price",
					"type": "uint256"
				},
				{
					"indexed": false,
					"internalType": "uint256",
					"name": "startTime",
					"type": "uint256"
				},
				{
					"indexed": false,
					"internalType": "uint256",
					"name": "endTime",
					"type": "uint256"
				},
				{
					"indexed": false,
					"internalType": "string",
					"name": "ticketId",
					"type": "string"
				}
			],
			"name": "ListingCreated",
			"type": "event"
		},
		{
			"anonymous": false,
			"inputs": [
				{
					"indexed": true,
					"internalType": "uint256",
					"name": "listingId",
					"type": "uint256"
				},
				{
					"indexed": true,
					"internalType": "address",
					"name": "buyer",
					"type": "address"
				},
				{
					"indexed": true,
					"internalType": "address",
					"name": "seller",
					"type": "address"
				},
				{
					"indexed": false,
					"internalType": "uint256",
					"name": "price",
					"type": "uint256"
				}
			],
			"name": "ListingPurchased",
			"type": "event"
		},
		{
			"anonymous": false,
			"inputs": [
				{
					"indexed": true,
					"internalType": "uint256",
					"name": "listingId",
					"type": "uint256"
				},
				{
					"indexed": false,
					"internalType": "string",
					"name": "ticketId",
					"type": "string"
				},
				{
					"indexed": false,
					"internalType": "bool",
					"name": "verified",
					"type": "bool"
				}
			],
			"name": "ListingVerified",
			"type": "event"
		},
		{
			"anonymous": false,
			"inputs": [
				{
					"indexed": true,
					"internalType": "address",
					"name": "from",
					"type": "address"
				},
				{
					"indexed": true,
					"internalType": "address",
					"name": "to",
					"type": "address"
				}
			],
			"name": "OwnershipTransferRequested",
			"type": "event"
		},
		{
			"anonymous": false,
			"inputs": [
				{
					"indexed": true,
					"internalType": "address",
					"name": "from",
					"type": "address"
				},
				{
					"indexed": true,
					"internalType": "address",
					"name": "to",
					"type": "address"
				}
			],
			"name": "OwnershipTransferred",
			"type": "event"
		},
		{
			"anonymous": false,
			"inputs": [
				{
					"indexed": false,
					"internalType": "address",
					"name": "account",
					"type": "address"
				}
			],
			"name": "Paused",
			"type": "event"
		},
		{
			"anonymous": false,
			"inputs": [
				{
					"indexed": false,
					"internalType": "uint256",
					"name": "newFeePercent",
					"type": "uint256"
				}
			],
			"name": "PlatformFeeUpdated",
			"type": "event"
		},
		{
			"anonymous": false,
			"inputs": [
				{
					"indexed": true,
					"internalType": "bytes32",
					"name": "id",
					"type": "bytes32"
				}
			],
			"name": "RequestFulfilled",
			"type": "event"
		},
		{
			"anonymous": false,
			"inputs": [
				{
					"indexed": true,
					"internalType": "bytes32",
					"name": "id",
					"type": "bytes32"
				}
			],
			"name": "RequestSent",
			"type": "event"
		},
		{
			"anonymous": false,
			"inputs": [
				{
					"indexed": true,
					"internalType": "bytes32",
					"name": "requestId",
					"type": "bytes32"
				},
				{
					"indexed": false,
					"internalType": "uint256",
					"name": "remainingTickets",
					"type": "uint256"
				},
				{
					"indexed": false,
					"internalType": "bytes",
					"name": "rawResponse",
					"type": "bytes"
				},
				{
					"indexed": false,
					"internalType": "bytes",
					"name": "error",
					"type": "bytes"
				}
			],
			"name": "Response",
			"type": "event"
		},
		{
			"anonymous": false,
			"inputs": [
				{
					"indexed": true,
					"internalType": "bytes32",
					"name": "role",
					"type": "bytes32"
				},
				{
					"indexed": true,
					"internalType": "bytes32",
					"name": "previousAdminRole",
					"type": "bytes32"
				},
				{
					"indexed": true,
					"internalType": "bytes32",
					"name": "newAdminRole",
					"type": "bytes32"
				}
			],
			"name": "RoleAdminChanged",
			"type": "event"
		},
		{
			"anonymous": false,
			"inputs": [
				{
					"indexed": true,
					"internalType": "bytes32",
					"name": "role",
					"type": "bytes32"
				},
				{
					"indexed": true,
					"internalType": "address",
					"name": "account",
					"type": "address"
				},
				{
					"indexed": true,
					"internalType": "address",
					"name": "sender",
					"type": "address"
				}
			],
			"name": "RoleGranted",
			"type": "event"
		},
		{
			"anonymous": false,
			"inputs": [
				{
					"indexed": true,
					"internalType": "bytes32",
					"name": "role",
					"type": "bytes32"
				},
				{
					"indexed": true,
					"internalType": "address",
					"name": "account",
					"type": "address"
				},
				{
					"indexed": true,
					"internalType": "address",
					"name": "sender",
					"type": "address"
				}
			],
			"name": "RoleRevoked",
			"type": "event"
		},
		{
			"anonymous": false,
			"inputs": [
				{
					"indexed": false,
					"internalType": "string",
					"name": "ticketId",
					"type": "string"
				},
				{
					"indexed": false,
					"internalType": "enum SecondaryMarketStorage.TicketStatus",
					"name": "status",
					"type": "uint8"
				}
			],
			"name": "TicketStatusUpdated",
			"type": "event"
		},
		{
			"anonymous": false,
			"inputs": [
				{
					"indexed": true,
					"internalType": "uint256",
					"name": "listingId",
					"type": "uint256"
				},
				{
					"indexed": false,
					"internalType": "string",
					"name": "ticketId",
					"type": "string"
				},
				{
					"indexed": false,
					"internalType": "bytes32",
					"name": "requestId",
					"type": "bytes32"
				}
			],
			"name": "TicketVerificationRequested",
			"type": "event"
		},
		{
			"anonymous": false,
			"inputs": [
				{
					"indexed": true,
					"internalType": "bytes32",
					"name": "requestId",
					"type": "bytes32"
				},
				{
					"indexed": false,
					"internalType": "string",
					"name": "ticketId",
					"type": "string"
				},
				{
					"indexed": false,
					"internalType": "bool",
					"name": "isUsed",
					"type": "bool"
				},
				{
					"indexed": false,
					"internalType": "bytes",
					"name": "rawResponse",
					"type": "bytes"
				},
				{
					"indexed": false,
					"internalType": "bytes",
					"name": "error",
					"type": "bytes"
				}
			],
			"name": "TicketVerified",
			"type": "event"
		},
		{
			"anonymous": false,
			"inputs": [
				{
					"indexed": false,
					"internalType": "address",
					"name": "account",
					"type": "address"
				}
			],
			"name": "Unpaused",
			"type": "event"
		},
		{
			"anonymous": false,
			"inputs": [
				{
					"indexed": true,
					"internalType": "address",
					"name": "implementation",
					"type": "address"
				}
			],
			"name": "Upgraded",
			"type": "event"
		},
		{
			"inputs": [],
			"name": "DEFAULT_ADMIN_ROLE",
			"outputs": [
				{
					"internalType": "bytes32",
					"name": "",
					"type": "bytes32"
				}
			],
			"stateMutability": "view",
			"type": "function"
		},
		{
			"inputs": [],
			"name": "UPGRADE_INTERFACE_VERSION",
			"outputs": [
				{
					"internalType": "string",
					"name": "",
					"type": "string"
				}
			],
			"stateMutability": "view",
			"type": "function"
		},
		{
			"inputs": [],
			"name": "acceptOwnership",
			"outputs": [],
			"stateMutability": "nonpayable",
			"type": "function"
		},
		{
			"inputs": [
				{
					"internalType": "uint256",
					"name": "listingId",
					"type": "uint256"
				}
			],
			"name": "cancelListing",
			"outputs": [],
			"stateMutability": "nonpayable",
			"type": "function"
		},
		{
			"inputs": [
				{
					"internalType": "address",
					"name": "nftContract",
					"type": "address"
				},
				{
					"internalType": "uint256",
					"name": "tokenId",
					"type": "uint256"
				},
				{
					"internalType": "uint256",
					"name": "price",
					"type": "uint256"
				},
				{
					"internalType": "uint256",
					"name": "duration",
					"type": "uint256"
				},
				{
					"internalType": "string",
					"name": "ticketId",
					"type": "string"
				}
			],
			"name": "createListing",
			"outputs": [],
			"stateMutability": "nonpayable",
			"type": "function"
		},
		{
			"inputs": [],
			"name": "feeRecipient",
			"outputs": [
				{
					"internalType": "address",
					"name": "",
					"type": "address"
				}
			],
			"stateMutability": "view",
			"type": "function"
		},
		{
			"inputs": [],
			"name": "getCurrentListingId",
			"outputs": [
				{
					"internalType": "uint256",
					"name": "",
					"type": "uint256"
				}
			],
			"stateMutability": "view",
			"type": "function"
		},
		{
			"inputs": [],
			"name": "getImplementation",
			"outputs": [
				{
					"internalType": "address",
					"name": "",
					"type": "address"
				}
			],
			"stateMutability": "view",
			"type": "function"
		},
		{
			"inputs": [
				{
					"internalType": "uint256",
					"name": "listingId",
					"type": "uint256"
				}
			],
			"name": "getListing",
			"outputs": [
				{
					"components": [
						{
							"internalType": "uint256",
							"name": "listingId",
							"type": "uint256"
						},
						{
							"internalType": "address",
							"name": "nftContract",
							"type": "address"
						},
						{
							"internalType": "uint256",
							"name": "tokenId",
							"type": "uint256"
						},
						{
							"internalType": "address",
							"name": "seller",
							"type": "address"
						},
						{
							"internalType": "uint256",
							"name": "price",
							"type": "uint256"
						},
						{
							"internalType": "uint256",
							"name": "startTime",
							"type": "uint256"
						},
						{
							"internalType": "uint256",
							"name": "endTime",
							"type": "uint256"
						},
						{
							"internalType": "bool",
							"name": "active",
							"type": "bool"
						},
						{
							"internalType": "string",
							"name": "ticketId",
							"type": "string"
						},
						{
							"internalType": "bool",
							"name": "pendingVerification",
							"type": "bool"
						}
					],
					"internalType": "struct SecondaryMarketStorage.Listing",
					"name": "",
					"type": "tuple"
				}
			],
			"stateMutability": "view",
			"type": "function"
		},
		{
			"inputs": [
				{
					"internalType": "uint256",
					"name": "listingId",
					"type": "uint256"
				}
			],
			"name": "getListingTicketStatus",
			"outputs": [
				{
					"internalType": "string",
					"name": "ticketId",
					"type": "string"
				},
				{
					"internalType": "enum SecondaryMarketStorage.TicketStatus",
					"name": "status",
					"type": "uint8"
				}
			],
			"stateMutability": "view",
			"type": "function"
		},
		{
			"inputs": [
				{
					"internalType": "bytes32",
					"name": "role",
					"type": "bytes32"
				}
			],
			"name": "getRoleAdmin",
			"outputs": [
				{
					"internalType": "bytes32",
					"name": "",
					"type": "bytes32"
				}
			],
			"stateMutability": "view",
			"type": "function"
		},
		{
			"inputs": [
				{
					"internalType": "bytes32",
					"name": "role",
					"type": "bytes32"
				},
				{
					"internalType": "address",
					"name": "account",
					"type": "address"
				}
			],
			"name": "grantRole",
			"outputs": [],
			"stateMutability": "nonpayable",
			"type": "function"
		},
		{
			"inputs": [
				{
					"internalType": "bytes32",
					"name": "requestId",
					"type": "bytes32"
				},
				{
					"internalType": "bytes",
					"name": "response",
					"type": "bytes"
				},
				{
					"internalType": "bytes",
					"name": "err",
					"type": "bytes"
				}
			],
			"name": "handleOracleFulfillment",
			"outputs": [],
			"stateMutability": "nonpayable",
			"type": "function"
		},
		{
			"inputs": [
				{
					"internalType": "bytes32",
					"name": "role",
					"type": "bytes32"
				},
				{
					"internalType": "address",
					"name": "account",
					"type": "address"
				}
			],
			"name": "hasRole",
			"outputs": [
				{
					"internalType": "bool",
					"name": "",
					"type": "bool"
				}
			],
			"stateMutability": "view",
			"type": "function"
		},
		{
			"inputs": [
				{
					"internalType": "address",
					"name": "_feeRecipient",
					"type": "address"
				},
				{
					"internalType": "uint256",
					"name": "_platformFeePercent",
					"type": "uint256"
				},
				{
					"internalType": "uint256",
					"name": "_minListingDuration",
					"type": "uint256"
				},
				{
					"internalType": "uint256",
					"name": "_maxListingDuration",
					"type": "uint256"
				},
				{
					"internalType": "address",
					"name": "_router",
					"type": "address"
				},
				{
					"internalType": "uint64",
					"name": "_subscriptionId",
					"type": "uint64"
				}
			],
			"name": "initialize",
			"outputs": [],
			"stateMutability": "nonpayable",
			"type": "function"
		},
		{
			"inputs": [
				{
					"internalType": "string",
					"name": "ticketId",
					"type": "string"
				}
			],
			"name": "isTicketUsed",
			"outputs": [
				{
					"internalType": "bool",
					"name": "",
					"type": "bool"
				}
			],
			"stateMutability": "view",
			"type": "function"
		},
		{
			"inputs": [
				{
					"internalType": "address",
					"name": "nftContract",
					"type": "address"
				},
				{
					"internalType": "uint256",
					"name": "tokenId",
					"type": "uint256"
				}
			],
			"name": "isTokenListed",
			"outputs": [
				{
					"internalType": "bool",
					"name": "",
					"type": "bool"
				}
			],
			"stateMutability": "view",
			"type": "function"
		},
		{
			"inputs": [],
			"name": "maxListingDuration",
			"outputs": [
				{
					"internalType": "uint256",
					"name": "",
					"type": "uint256"
				}
			],
			"stateMutability": "view",
			"type": "function"
		},
		{
			"inputs": [],
			"name": "minListingDuration",
			"outputs": [
				{
					"internalType": "uint256",
					"name": "",
					"type": "uint256"
				}
			],
			"stateMutability": "view",
			"type": "function"
		},
		{
			"inputs": [],
			"name": "owner",
			"outputs": [
				{
					"internalType": "address",
					"name": "",
					"type": "address"
				}
			],
			"stateMutability": "view",
			"type": "function"
		},
		{
			"inputs": [],
			"name": "paused",
			"outputs": [
				{
					"internalType": "bool",
					"name": "",
					"type": "bool"
				}
			],
			"stateMutability": "view",
			"type": "function"
		},
		{
			"inputs": [],
			"name": "platformFeePercent",
			"outputs": [
				{
					"internalType": "uint256",
					"name": "",
					"type": "uint256"
				}
			],
			"stateMutability": "view",
			"type": "function"
		},
		{
			"inputs": [],
			"name": "proxiableUUID",
			"outputs": [
				{
					"internalType": "bytes32",
					"name": "",
					"type": "bytes32"
				}
			],
			"stateMutability": "view",
			"type": "function"
		},
		{
			"inputs": [],
			"name": "remainingTickets",
			"outputs": [
				{
					"internalType": "uint256",
					"name": "",
					"type": "uint256"
				}
			],
			"stateMutability": "view",
			"type": "function"
		},
		{
			"inputs": [
				{
					"internalType": "bytes32",
					"name": "role",
					"type": "bytes32"
				},
				{
					"internalType": "address",
					"name": "callerConfirmation",
					"type": "address"
				}
			],
			"name": "renounceRole",
			"outputs": [],
			"stateMutability": "nonpayable",
			"type": "function"
		},
		{
			"inputs": [
				{
					"internalType": "uint64",
					"name": "subscriptionId",
					"type": "uint64"
				},
				{
					"internalType": "string[]",
					"name": "args",
					"type": "string[]"
				}
			],
			"name": "requestRemainingTickets",
			"outputs": [
				{
					"internalType": "bytes32",
					"name": "requestId",
					"type": "bytes32"
				}
			],
			"stateMutability": "nonpayable",
			"type": "function"
		},
		{
			"inputs": [
				{
					"internalType": "bytes32",
					"name": "role",
					"type": "bytes32"
				},
				{
					"internalType": "address",
					"name": "account",
					"type": "address"
				}
			],
			"name": "revokeRole",
			"outputs": [],
			"stateMutability": "nonpayable",
			"type": "function"
		},
		{
			"inputs": [],
			"name": "s_lastCheckedTicketId",
			"outputs": [
				{
					"internalType": "string",
					"name": "",
					"type": "string"
				}
			],
			"stateMutability": "view",
			"type": "function"
		},
		{
			"inputs": [],
			"name": "s_lastError",
			"outputs": [
				{
					"internalType": "bytes",
					"name": "",
					"type": "bytes"
				}
			],
			"stateMutability": "view",
			"type": "function"
		},
		{
			"inputs": [],
			"name": "s_lastRequestId",
			"outputs": [
				{
					"internalType": "bytes32",
					"name": "",
					"type": "bytes32"
				}
			],
			"stateMutability": "view",
			"type": "function"
		},
		{
			"inputs": [],
			"name": "s_lastResponse",
			"outputs": [
				{
					"internalType": "bytes",
					"name": "",
					"type": "bytes"
				}
			],
			"stateMutability": "view",
			"type": "function"
		},
		{
			"inputs": [],
			"name": "s_lastTicketUsed",
			"outputs": [
				{
					"internalType": "bool",
					"name": "",
					"type": "bool"
				}
			],
			"stateMutability": "view",
			"type": "function"
		},
		{
			"inputs": [],
			"name": "subscriptionId",
			"outputs": [
				{
					"internalType": "uint64",
					"name": "",
					"type": "uint64"
				}
			],
			"stateMutability": "view",
			"type": "function"
		},
		{
			"inputs": [
				{
					"internalType": "address",
					"name": "",
					"type": "address"
				}
			],
			"name": "supportedContracts",
			"outputs": [
				{
					"internalType": "bool",
					"name": "",
					"type": "bool"
				}
			],
			"stateMutability": "view",
			"type": "function"
		},
		{
			"inputs": [
				{
					"internalType": "bytes4",
					"name": "interfaceId",
					"type": "bytes4"
				}
			],
			"name": "supportsInterface",
			"outputs": [
				{
					"internalType": "bool",
					"name": "",
					"type": "bool"
				}
			],
			"stateMutability": "view",
			"type": "function"
		},
		{
			"inputs": [
				{
					"internalType": "string",
					"name": "",
					"type": "string"
				}
			],
			"name": "ticketUsageStatus",
			"outputs": [
				{
					"internalType": "bool",
					"name": "",
					"type": "bool"
				}
			],
			"stateMutability": "view",
			"type": "function"
		},
		{
			"inputs": [
				{
					"internalType": "address",
					"name": "to",
					"type": "address"
				}
			],
			"name": "transferOwnership",
			"outputs": [],
			"stateMutability": "nonpayable",
			"type": "function"
		},
		{
			"inputs": [
				{
					"internalType": "address",
					"name": "newImplementation",
					"type": "address"
				},
				{
					"internalType": "bytes",
					"name": "data",
					"type": "bytes"
				}
			],
			"name": "upgradeToAndCall",
			"outputs": [],
			"stateMutability": "payable",
			"type": "function"
		},
		{
			"inputs": [
				{
					"internalType": "uint64",
					"name": "subscriptionId",
					"type": "uint64"
				},
				{
					"internalType": "string",
					"name": "ticketId",
					"type": "string"
				}
			],
			"name": "verifyTicketUsage",
			"outputs": [
				{
					"internalType": "bytes32",
					"name": "requestId",
					"type": "bytes32"
				}
			],
			"stateMutability": "nonpayable",
			"type": "function"
		}
	]
}