{
  "_format": "hh-sol-artifact-1",
  "contractName": "FeeManager",
  "sourceName": "contracts/platform/FeeManager.sol",
  "abi": [
    {
      "inputs": [],
      "name": "AccessControlBadConfirmation",
      "type": "error"
    },
    {
      "inputs": [
        {
          "internalType": "address",
          "name": "account",
          "type": "address"
        },
        {
          "internalType": "bytes32",
          "name": "neededRole",
          "type": "bytes32"
        }
      ],
      "name": "AccessControlUnauthorizedAccount",
      "type": "error"
    },
    {
      "inputs": [
        {
          "internalType": "address",
          "name": "target",
          "type": "address"
        }
      ],
      "name": "AddressEmptyCode",
      "type": "error"
    },
    {
      "inputs": [
        {
          "internalType": "address",
          "name": "implementation",
          "type": "address"
        }
      ],
      "name": "ERC1967InvalidImplementation",
      "type": "error"
    },
    {
      "inputs": [],
      "name": "ERC1967NonPayable",
      "type": "error"
    },
    {
      "inputs": [],
      "name": "FailedCall",
      "type": "error"
    },
    {
      "inputs": [],
      "name": "InvalidInitialization",
      "type": "error"
    },
    {
      "inputs": [],
      "name": "NotInitializing",
      "type": "error"
    },
    {
      "inputs": [],
      "name": "UUPSUnauthorizedCallContext",
      "type": "error"
    },
    {
      "inputs": [
        {
          "internalType": "bytes32",
          "name": "slot",
          "type": "bytes32"
        }
      ],
      "name": "UUPSUnsupportedProxiableUUID",
      "type": "error"
    },
    {
      "anonymous": false,
      "inputs": [
        {
          "indexed": false,
          "internalType": "uint64",
          "name": "version",
          "type": "uint64"
        }
      ],
      "name": "Initialized",
      "type": "event"
    },
    {
      "anonymous": false,
      "inputs": [
        {
          "indexed": true,
          "internalType": "bytes32",
          "name": "role",
          "type": "bytes32"
        },
        {
          "indexed": true,
          "internalType": "bytes32",
          "name": "previousAdminRole",
          "type": "bytes32"
        },
        {
          "indexed": true,
          "internalType": "bytes32",
          "name": "newAdminRole",
          "type": "bytes32"
        }
      ],
      "name": "RoleAdminChanged",
      "type": "event"
    },
    {
      "anonymous": false,
      "inputs": [
        {
          "indexed": true,
          "internalType": "bytes32",
          "name": "role",
          "type": "bytes32"
        },
        {
          "indexed": true,
          "internalType": "address",
          "name": "account",
          "type": "address"
        },
        {
          "indexed": true,
          "internalType": "address",
          "name": "sender",
          "type": "address"
        }
      ],
      "name": "RoleGranted",
      "type": "event"
    },
    {
      "anonymous": false,
      "inputs": [
        {
          "indexed": true,
          "internalType": "bytes32",
          "name": "role",
          "type": "bytes32"
        },
        {
          "indexed": true,
          "internalType": "address",
          "name": "account",
          "type": "address"
        },
        {
          "indexed": true,
          "internalType": "address",
          "name": "sender",
          "type": "address"
        }
      ],
      "name": "RoleRevoked",
      "type": "event"
    },
    {
      "anonymous": false,
      "inputs": [
        {
          "indexed": true,
          "internalType": "address",
          "name": "implementation",
          "type": "address"
        }
      ],
      "name": "Upgraded",
      "type": "event"
    },
    {
      "inputs": [],
      "name": "DEFAULT_ADMIN_ROLE",
      "outputs": [
        {
          "internalType": "bytes32",
          "name": "",
          "type": "bytes32"
        }
      ],
      "stateMutability": "view",
      "type": "function"
    },
    {
      "inputs": [],
      "name": "UPGRADE_INTERFACE_VERSION",
      "outputs": [
        {
          "internalType": "string",
          "name": "",
          "type": "string"
        }
      ],
      "stateMutability": "view",
      "type": "function"
    },
    {
      "inputs": [
        {
          "internalType": "uint256",
          "name": "amount",
          "type": "uint256"
        }
      ],
      "name": "calculateFee",
      "outputs": [
        {
          "internalType": "uint256",
          "name": "",
          "type": "uint256"
        }
      ],
      "stateMutability": "view",
      "type": "function"
    },
    {
      "inputs": [],
      "name": "getFeeRate",
      "outputs": [
        {
          "internalType": "uint256",
          "name": "",
          "type": "uint256"
        }
      ],
      "stateMutability": "view",
      "type": "function"
    },
    {
      "inputs": [],
      "name": "getImplementation",
      "outputs": [
        {
          "internalType": "address",
          "name": "",
          "type": "address"
        }
      ],
      "stateMutability": "view",
      "type": "function"
    },
    {
      "inputs": [
        {
          "internalType": "bytes32",
          "name": "role",
          "type": "bytes32"
        }
      ],
      "name": "getRoleAdmin",
      "outputs": [
        {
          "internalType": "bytes32",
          "name": "",
          "type": "bytes32"
        }
      ],
      "stateMutability": "view",
      "type": "function"
    },
    {
      "inputs": [
        {
          "internalType": "bytes32",
          "name": "role",
          "type": "bytes32"
        },
        {
          "internalType": "address",
          "name": "account",
          "type": "address"
        }
      ],
      "name": "grantRole",
      "outputs": [],
      "stateMutability": "nonpayable",
      "type": "function"
    },
    {
      "inputs": [
        {
          "internalType": "bytes32",
          "name": "role",
          "type": "bytes32"
        },
        {
          "internalType": "address",
          "name": "account",
          "type": "address"
        }
      ],
      "name": "hasRole",
      "outputs": [
        {
          "internalType": "bool",
          "name": "",
          "type": "bool"
        }
      ],
      "stateMutability": "view",
      "type": "function"
    },
    {
      "inputs": [
        {
          "internalType": "uint256",
          "name": "feeRate",
          "type": "uint256"
        }
      ],
      "name": "initialize",
      "outputs": [],
      "stateMutability": "nonpayable",
      "type": "function"
    },
    {
      "inputs": [],
      "name": "proxiableUUID",
      "outputs": [
        {
          "internalType": "bytes32",
          "name": "",
          "type": "bytes32"
        }
      ],
      "stateMutability": "view",
      "type": "function"
    },
    {
      "inputs": [
        {
          "internalType": "bytes32",
          "name": "role",
          "type": "bytes32"
        },
        {
          "internalType": "address",
          "name": "callerConfirmation",
          "type": "address"
        }
      ],
      "name": "renounceRole",
      "outputs": [],
      "stateMutability": "nonpayable",
      "type": "function"
    },
    {
      "inputs": [
        {
          "internalType": "bytes32",
          "name": "role",
          "type": "bytes32"
        },
        {
          "internalType": "address",
          "name": "account",
          "type": "address"
        }
      ],
      "name": "revokeRole",
      "outputs": [],
      "stateMutability": "nonpayable",
      "type": "function"
    },
    {
      "inputs": [
        {
          "internalType": "uint256",
          "name": "rate",
          "type": "uint256"
        }
      ],
      "name": "setFeeRate",
      "outputs": [],
      "stateMutability": "nonpayable",
      "type": "function"
    },
    {
      "inputs": [
        {
          "internalType": "bytes4",
          "name": "interfaceId",
          "type": "bytes4"
        }
      ],
      "name": "supportsInterface",
      "outputs": [
        {
          "internalType": "bool",
          "name": "",
          "type": "bool"
        }
      ],
      "stateMutability": "view",
      "type": "function"
    },
    {
      "inputs": [
        {
          "internalType": "address",
          "name": "newImplementation",
          "type": "address"
        },
        {
          "internalType": "bytes",
          "name": "data",
          "type": "bytes"
        }
      ],
      "name": "upgradeToAndCall",
      "outputs": [],
      "stateMutability": "payable",
      "type": "function"
    }
  ],
  "bytecode": "0x60a06040523461003257610011610037565b60405161151b6101fd8239608051818181610e6d01526110dd015261151b90f35b600080fd5b61003f610041565b565b610049610051565b61003f61011e565b61003f61003f61003f61003f61003f61009a565b6100799061007c906001600160a01b031682565b90565b6001600160a01b031690565b61007990610065565b61007990610088565b6100a330610091565b608052565b6100799060401c60ff1690565b61007990546100a8565b610079905b6001600160401b031690565b61007990546100bf565b610079906100c4906001600160401b031682565b906100fe61007961011a926100da565b82546001600160401b0319166001600160401b03919091161790565b9055565b60006101286101b6565b01610132816100b5565b6101a45761013f816100d0565b6001600160401b0391908290811603610156575050565b816101857fc7f505b2f371ae2175ee4913f4499e1f2633a7b5936321eed1cdaeb6115181d29361019f936100ee565b604051918291826001600160401b03909116815260200190565b0390a1565b63f92ee8a960e01b6000908152600490fd5b6100796101f4565b6100796100796100799290565b6100797ff0c57e16840df040f15088dc2f81fe391c3923bec73e23a9662efc9c229c6a006101be565b6100796101cb56fe6080604052600436101561001257600080fd5b60003560e01c806301ffc9a714610102578063248a9ca3146100fd5780632f2ff15d146100f857806336568abe146100f357806345596e2e146100ee5780634f1ef286146100e957806352d1902d146100e457806384e5eed0146100df57806391d14854146100da57806399a5d747146100d5578063a217fddf146100d0578063aaf10f42146100cb578063ad3cb1cc146100c6578063d547741f146100c15763fe4b84df0361013257610616565b6105fd565b6105d6565b6104b1565b610496565b61045c565b610440565b610425565b61040a565b6103eb565b610280565b610267565b610249565b6101b9565b610161565b7fffffffff0000000000000000000000000000000000000000000000000000000081165b0361013257565b600080fd5b9050359061014482610107565b565b906020828203126101325761015a91610137565b90565b9052565b346101325761018e61017c610177366004610146565b61062e565b60405191829182901515815260200190565b0390f35b8061012b565b9050359061014482610192565b906020828203126101325761015a91610198565b346101325761018e6101d46101cf3660046101a5565b6106eb565b6040519182918290815260200190565b73ffffffffffffffffffffffffffffffffffffffff1690565b73ffffffffffffffffffffffffffffffffffffffff811661012b565b90503590610144826101fd565b91906040838203126101325761015a9060206102428286610198565b9401610219565b346101325761026261025c366004610226565b90610750565b604051005b346101325761026261027a366004610226565b9061075a565b34610132576102626102933660046101a5565b61086b565b7f4e487b7100000000000000000000000000000000000000000000000000000000600052604160045260246000fd5b90601f017fffffffffffffffffffffffffffffffffffffffffffffffffffffffffffffffe016810190811067ffffffffffffffff82111761030757604052565b610298565b9061014461031960405190565b92836102c7565b67ffffffffffffffff811161030757602090601f017fffffffffffffffffffffffffffffffffffffffffffffffffffffffffffffffe0160190565b0190565b90826000939282370152565b9092919261038061037b82610320565b61030c565b93818552818301116101325761014491602085019061035f565b9080601f830112156101325781602061015a9335910161036b565b919091604081840312610132576103cc8382610219565b92602082013567ffffffffffffffff81116101325761015a920161039a565b6102626103f93660046103b5565b90610894565b600091031261013257565b346101325761041a3660046103ff565b61018e6101d46108e1565b34610132576104353660046103ff565b61018e6101d46108eb565b346101325761018e61017c610456366004610226565b9061096a565b346101325761018e6101d46104723660046101a5565b610a4d565b61015a61015a61015a9290565b61015a6000610477565b61015a610484565b34610132576104a63660046103ff565b61018e6101d461048e565b34610132576104c13660046103ff565b61018e6104cc610a9c565b6040519182918273ffffffffffffffffffffffffffffffffffffffff909116815260200190565b9061050061037b83610320565b918252565b61050f60056104f3565b7f352e302e30000000000000000000000000000000000000000000000000000000602082015290565b61015a610505565b61015a610538565b61015a610540565b60005b8381106105635750506000910152565b8181015183820152602001610553565b61059461059d60209361035b93610588815190565b80835293849260200190565b95869101610550565b601f017fffffffffffffffffffffffffffffffffffffffffffffffffffffffffffffffe01690565b602080825261015a92910190610573565b34610132576105e63660046103ff565b61018e6105f1610548565b604051918291826105c5565b3461013257610262610610366004610226565b90610abf565b34610132576102626106293660046101a5565b610d0a565b7f7965db0b000000000000000000000000000000000000000000000000000000007fffffffff0000000000000000000000000000000000000000000000000000000082161490811561067e575090565b61015a91507fffffffff00000000000000000000000000000000000000000000000000000000167f01ffc9a7000000000000000000000000000000000000000000000000000000001490565b905b600052602052604060002090565b61015a9081565b61015a90546106da565b600161072761015a926106fc600090565b5060007f02dd7bc7dec4dceedda775e58dd541e08a116c6c53815c0bd028192f7b6268005b016106ca565b016106e1565b906101449161074361073e826106eb565b610d13565b9061074d91610d3e565b50565b906101449161072d565b90610764336101e4565b73ffffffffffffffffffffffffffffffffffffffff8216036107895761074d91610de3565b7f6697b23200000000000000000000000000000000000000000000000000000000600090815260045b036000fd5b61015a7faf290d8680820aad922855f39b306097b20e28774d6c1ad35a20325630c3a02c610477565b610144906107ef61073e6107b7565b61083d565b907fffffffffffffffffffffffffffffffffffffffffffffffffffffffffffffffff905b9181191691161790565b9061083261015a61083992610477565b82546107f4565b9055565b6101449060007f0883a0a917fea80562573e6afe782216fbb17a54ede6c467a2e8aaeadf791bda5b01610822565b610144906107e0565b9061014491610881610e62565b906101449161088f81610f64565b610f8e565b9061014491610874565b61015a906108aa6110ba565b6108d8565b61015a7f360894a13ba1a3210667c828492db98dca3e2076cc3735a920a3ca505d382bbc610477565b5061015a6108af565b61015a600061089e565b61015a60007f0883a0a917fea80562573e6afe782216fbb17a54ede6c467a2e8aaeadf791bda610727565b6101e461015a61015a9273ffffffffffffffffffffffffffffffffffffffff1690565b61015a90610916565b61015a90610939565b906106cc90610942565b61015a905b60ff1690565b61015a9054610955565b61015a9160006109a76109ad9361097f600090565b50827f02dd7bc7dec4dceedda775e58dd541e08a116c6c53815c0bd028192f7b626800610721565b0161094b565b610960565b7f4e487b7100000000000000000000000000000000000000000000000000000000600052601160045260246000fd5b818102929181159184041417156109f457565b6109b2565b61015a612710610477565b7f4e487b7100000000000000000000000000000000000000000000000000000000600052601260045260246000fd5b90610a3d565b9190565b908115610a48570490565b610a04565b610a8e61015a91610a5c600090565b50610a8860007f0883a0a917fea80562573e6afe782216fbb17a54ede6c467a2e8aaeadf791bda610727565b906109e1565b610a966109f9565b90610a33565b61015a61111c565b9061014491610ab561073e826106eb565b9061074d91610de3565b9061014491610aa4565b61015a9060401c61095a565b61015a9054610ac9565b61015a905b67ffffffffffffffff1690565b61015a9054610adf565b610ae461015a61015a9290565b9067ffffffffffffffff90610818565b610ae461015a61015a9267ffffffffffffffff1690565b90610b3f61015a61083992610b18565b8254610b08565b9068ff00000000000000009060401b610818565b90610b6a61015a61083992151590565b8254610b46565b61015d90610afb565b6020810192916101449190610b71565b610b92611132565b9081610bad610ba7610ba383610ad5565b1590565b91610af1565b90600092610bba84610afb565b67ffffffffffffffff84161480610ccf575b600193610be9610bdb86610afb565b9167ffffffffffffffff1690565b149081610cab575b155b9081610ca2575b50610c7a57610c239082610c1a86610c1187610afb565b98019788610b2f565b610c6b57610cd6565b610c2c57505050565b610c5a610c66927fc7f505b2f371ae2175ee4913f4499e1f2633a7b5936321eed1cdaeb6115181d294610b5a565b60405191829182610b7a565b0390a1565b610c758487610b5a565b610cd6565b7ff92ee8a9000000000000000000000000000000000000000000000000000000008452600484fd5b15905038610bfa565b9050610bf3610cb930610942565b3b610cc6610a3988610477565b14919050610bf1565b5081610bcc565b61014490610ce261117f565b60007f0883a0a917fea80562573e6afe782216fbb17a54ede6c467a2e8aaeadf791bda610865565b61014490610b8a565b6101449033906111b1565b9060ff90610818565b90610d3761015a61083992151590565b8254610d1e565b7f02dd7bc7dec4dceedda775e58dd541e08a116c6c53815c0bd028192f7b626800610d6c610ba3848461096a565b15610ddb576001610d888460006109a78682610d8d97016106ca565b610d27565b610da7610da1610d9b339390565b93610942565b91610942565b917f2f8788117e7eff1d82e926ec794901d17c78024a50270940304540a733656f0d610dd260405190565b600090a4600190565b505050600090565b7f02dd7bc7dec4dceedda775e58dd541e08a116c6c53815c0bd028192f7b626800610e0e838361096a565b15610ddb576000610d8884826109a78682610e2997016106ca565b610e37610da1610d9b339390565b917ff6391f5c32d9c69d2a47ea670b442974b53935d1edc7fd64eb21e047a839171b610dd260405190565b610e6b30610942565b7f000000000000000000000000000000000000000000000000000000000000000090610ec273ffffffffffffffffffffffffffffffffffffffff83165b9173ffffffffffffffffffffffffffffffffffffffff1690565b14908115610efd575b50610ed257565b7fe07c8dba000000000000000000000000000000000000000000000000000000006000908152600490fd5b9050610f27610ea8610f0d61111c565b9273ffffffffffffffffffffffffffffffffffffffff1690565b141538610ecb565b61015a7fa615a8afb6fffcb8c6809ac0997b5c9c12b8cc97651150f14c8f6203168cff4c610477565b5061014461073e610f2f565b61014490610f58565b9050519061014482610192565b906020828203126101325761015a91610f6d565b90610fa0610f9b83610942565b610942565b906020610fac60405190565b7f52d1902d00000000000000000000000000000000000000000000000000000000815292839060049082905afa60009281611089575b5061103a5750506001610ff25750565b7f4c9c8ce300000000000000000000000000000000000000000000000000000000600090815273ffffffffffffffffffffffffffffffffffffffff9091166004526024036000fd5b90929161104861015a6108af565b8403611059576101449293506111f9565b7faa1d49a40000000000000000000000000000000000000000000000000000000060009081526004859052602490fd5b6110ac91935060203d6020116110b3575b6110a481836102c7565b810190610f7a565b9138610fe2565b503d61109a565b6110c330610942565b61110273ffffffffffffffffffffffffffffffffffffffff7f000000000000000000000000000000000000000000000000000000000000000016610ea8565b03610ed257565b61015a906101e4565b61015a9054611109565b61015a600061112c61015a6108af565b01611112565b61015a61128b565b611142611293565b61014461114d6112d7565b6111556112d7565b611167611160610484565b3390610d3e565b50611173611160610f2f565b5061074d6111606107b7565b61014461113a565b73ffffffffffffffffffffffffffffffffffffffff90911681526040810192916101449160200152565b906111bf610ba3828461096a565b6111c7575050565b7fe2517d3f000000000000000000000000000000000000000000000000000000006000908152916107b2916004611187565b9061120382611312565b61120c82610942565b7fbc7cd75a20ee27fd9adebab32041f755214dbc6bffa90cc0225b39da2e5c2d3b61123660405190565b600090a28051611249610a396000610477565b11156112585761074d916113de565b5050610144611383565b61015a7ff0c57e16840df040f15088dc2f81fe391c3923bec73e23a9662efc9c229c6a00610477565b61015a611262565b61129e610ba3611405565b6112a457565b7fd7e6bcf8000000000000000000000000000000000000000000000000000000006000908152600490fd5b610144611293565b6101446112cf565b9073ffffffffffffffffffffffffffffffffffffffff90610818565b9061130b61015a61083992610942565b82546112df565b6000813b611322610a3983610477565b1461133d57906101449161133761015a6108af565b016112fb565b7f4c9c8ce300000000000000000000000000000000000000000000000000000000815273ffffffffffffffffffffffffffffffffffffffff919091166004820152602490fd5b600061138e81610477565b34116113975750565b7fb398979f000000000000000000000000000000000000000000000000000000008152600490fd5b3d156113d9576113ce3d6104f3565b903d6000602084013e565b606090565b60008061015a936113ed606090565b50602081519101845af46113ff6113bf565b91611418565b61015a6000611412611132565b01610ad5565b90611423575061149d565b815190600091611435610a3984610477565b1480611488575b61144557505090565b7f9996b31500000000000000000000000000000000000000000000000000000000825273ffffffffffffffffffffffffffffffffffffffff166004820152602490fd5b50803b611497610a3984610477565b1461143c565b80516000906114ae610a3983610477565b11156114bd5750805190602001fd5b7fd6bda275000000000000000000000000000000000000000000000000000000008152600490fdfea26469706673582212209f460e00afcaf3b5a2d8cae609a2581d71e4e5239250eba7055fa3354b8381ae64736f6c634300081e0033",
  "linkReferences": {},
  "deployedLinkReferences": {},
  "address": "0x9aC014e69077b90007B163dDCF9304C182Cb910A"
}