{
  "_format": "hh-sol-artifact-1",
  "contractName": "OrganizerRegistry",
  "sourceName": "contracts/platform/OrganizerRegistry.sol",
  "abi": [
    {
      "inputs": [],
      "name": "AccessControlBadConfirmation",
      "type": "error"
    },
    {
      "inputs": [
        {
          "internalType": "address",
          "name": "account",
          "type": "address"
        },
        {
          "internalType": "bytes32",
          "name": "neededRole",
          "type": "bytes32"
        }
      ],
      "name": "AccessControlUnauthorizedAccount",
      "type": "error"
    },
    {
      "inputs": [
        {
          "internalType": "address",
          "name": "target",
          "type": "address"
        }
      ],
      "name": "AddressEmptyCode",
      "type": "error"
    },
    {
      "inputs": [
        {
          "internalType": "address",
          "name": "implementation",
          "type": "address"
        }
      ],
      "name": "ERC1967InvalidImplementation",
      "type": "error"
    },
    {
      "inputs": [],
      "name": "ERC1967NonPayable",
      "type": "error"
    },
    {
      "inputs": [],
      "name": "FailedCall",
      "type": "error"
    },
    {
      "inputs": [],
      "name": "InvalidInitialization",
      "type": "error"
    },
    {
      "inputs": [],
      "name": "NotInitializing",
      "type": "error"
    },
    {
      "inputs": [],
      "name": "UUPSUnauthorizedCallContext",
      "type": "error"
    },
    {
      "inputs": [
        {
          "internalType": "bytes32",
          "name": "slot",
          "type": "bytes32"
        }
      ],
      "name": "UUPSUnsupportedProxiableUUID",
      "type": "error"
    },
    {
      "anonymous": false,
      "inputs": [
        {
          "indexed": false,
          "internalType": "uint64",
          "name": "version",
          "type": "uint64"
        }
      ],
      "name": "Initialized",
      "type": "event"
    },
    {
      "anonymous": false,
      "inputs": [
        {
          "indexed": true,
          "internalType": "bytes32",
          "name": "role",
          "type": "bytes32"
        },
        {
          "indexed": true,
          "internalType": "bytes32",
          "name": "previousAdminRole",
          "type": "bytes32"
        },
        {
          "indexed": true,
          "internalType": "bytes32",
          "name": "newAdminRole",
          "type": "bytes32"
        }
      ],
      "name": "RoleAdminChanged",
      "type": "event"
    },
    {
      "anonymous": false,
      "inputs": [
        {
          "indexed": true,
          "internalType": "bytes32",
          "name": "role",
          "type": "bytes32"
        },
        {
          "indexed": true,
          "internalType": "address",
          "name": "account",
          "type": "address"
        },
        {
          "indexed": true,
          "internalType": "address",
          "name": "sender",
          "type": "address"
        }
      ],
      "name": "RoleGranted",
      "type": "event"
    },
    {
      "anonymous": false,
      "inputs": [
        {
          "indexed": true,
          "internalType": "bytes32",
          "name": "role",
          "type": "bytes32"
        },
        {
          "indexed": true,
          "internalType": "address",
          "name": "account",
          "type": "address"
        },
        {
          "indexed": true,
          "internalType": "address",
          "name": "sender",
          "type": "address"
        }
      ],
      "name": "RoleRevoked",
      "type": "event"
    },
    {
      "anonymous": false,
      "inputs": [
        {
          "indexed": true,
          "internalType": "address",
          "name": "implementation",
          "type": "address"
        }
      ],
      "name": "Upgraded",
      "type": "event"
    },
    {
      "inputs": [],
      "name": "DEFAULT_ADMIN_ROLE",
      "outputs": [
        {
          "internalType": "bytes32",
          "name": "",
          "type": "bytes32"
        }
      ],
      "stateMutability": "view",
      "type": "function"
    },
    {
      "inputs": [],
      "name": "UPGRADE_INTERFACE_VERSION",
      "outputs": [
        {
          "internalType": "string",
          "name": "",
          "type": "string"
        }
      ],
      "stateMutability": "view",
      "type": "function"
    },
    {
      "inputs": [
        {
          "internalType": "address",
          "name": "user",
          "type": "address"
        }
      ],
      "name": "checkOrganizer",
      "outputs": [
        {
          "internalType": "bool",
          "name": "",
          "type": "bool"
        }
      ],
      "stateMutability": "view",
      "type": "function"
    },
    {
      "inputs": [],
      "name": "getImplementation",
      "outputs": [
        {
          "internalType": "address",
          "name": "",
          "type": "address"
        }
      ],
      "stateMutability": "view",
      "type": "function"
    },
    {
      "inputs": [
        {
          "internalType": "bytes32",
          "name": "role",
          "type": "bytes32"
        }
      ],
      "name": "getRoleAdmin",
      "outputs": [
        {
          "internalType": "bytes32",
          "name": "",
          "type": "bytes32"
        }
      ],
      "stateMutability": "view",
      "type": "function"
    },
    {
      "inputs": [
        {
          "internalType": "bytes32",
          "name": "role",
          "type": "bytes32"
        },
        {
          "internalType": "address",
          "name": "account",
          "type": "address"
        }
      ],
      "name": "grantRole",
      "outputs": [],
      "stateMutability": "nonpayable",
      "type": "function"
    },
    {
      "inputs": [
        {
          "internalType": "bytes32",
          "name": "role",
          "type": "bytes32"
        },
        {
          "internalType": "address",
          "name": "account",
          "type": "address"
        }
      ],
      "name": "hasRole",
      "outputs": [
        {
          "internalType": "bool",
          "name": "",
          "type": "bool"
        }
      ],
      "stateMutability": "view",
      "type": "function"
    },
    {
      "inputs": [],
      "name": "initialize",
      "outputs": [],
      "stateMutability": "nonpayable",
      "type": "function"
    },
    {
      "inputs": [],
      "name": "proxiableUUID",
      "outputs": [
        {
          "internalType": "bytes32",
          "name": "",
          "type": "bytes32"
        }
      ],
      "stateMutability": "view",
      "type": "function"
    },
    {
      "inputs": [
        {
          "internalType": "bytes32",
          "name": "role",
          "type": "bytes32"
        },
        {
          "internalType": "address",
          "name": "callerConfirmation",
          "type": "address"
        }
      ],
      "name": "renounceRole",
      "outputs": [],
      "stateMutability": "nonpayable",
      "type": "function"
    },
    {
      "inputs": [
        {
          "internalType": "bytes32",
          "name": "role",
          "type": "bytes32"
        },
        {
          "internalType": "address",
          "name": "account",
          "type": "address"
        }
      ],
      "name": "revokeRole",
      "outputs": [],
      "stateMutability": "nonpayable",
      "type": "function"
    },
    {
      "inputs": [
        {
          "internalType": "address",
          "name": "organizer",
          "type": "address"
        },
        {
          "internalType": "bool",
          "name": "approved",
          "type": "bool"
        }
      ],
      "name": "setOrganizer",
      "outputs": [],
      "stateMutability": "nonpayable",
      "type": "function"
    },
    {
      "inputs": [
        {
          "internalType": "bytes4",
          "name": "interfaceId",
          "type": "bytes4"
        }
      ],
      "name": "supportsInterface",
      "outputs": [
        {
          "internalType": "bool",
          "name": "",
          "type": "bool"
        }
      ],
      "stateMutability": "view",
      "type": "function"
    },
    {
      "inputs": [
        {
          "internalType": "address",
          "name": "newImplementation",
          "type": "address"
        },
        {
          "internalType": "bytes",
          "name": "data",
          "type": "bytes"
        }
      ],
      "name": "upgradeToAndCall",
      "outputs": [],
      "stateMutability": "payable",
      "type": "function"
    }
  ],
  "bytecode": "0x60a06040523461003257610011610037565b6040516113fb6101fd8239608051818181610d4d0152610fbd01526113fb90f35b600080fd5b61003f610041565b565b610049610051565b61003f61011e565b61003f61003f61003f61003f61003f61009a565b6100799061007c906001600160a01b031682565b90565b6001600160a01b031690565b61007990610065565b61007990610088565b6100a330610091565b608052565b6100799060401c60ff1690565b61007990546100a8565b610079905b6001600160401b031690565b61007990546100bf565b610079906100c4906001600160401b031682565b906100fe61007961011a926100da565b82546001600160401b0319166001600160401b03919091161790565b9055565b60006101286101b6565b01610132816100b5565b6101a45761013f816100d0565b6001600160401b0391908290811603610156575050565b816101857fc7f505b2f371ae2175ee4913f4499e1f2633a7b5936321eed1cdaeb6115181d29361019f936100ee565b604051918291826001600160401b03909116815260200190565b0390a1565b63f92ee8a960e01b6000908152600490fd5b6100796101f4565b6100796100796100799290565b6100797ff0c57e16840df040f15088dc2f81fe391c3923bec73e23a9662efc9c229c6a006101be565b6100796101cb56fe6080604052600436101561001257600080fd5b60003560e01c806301ffc9a7146100f2578063248a9ca3146100ed5780632f2ff15d146100e857806336568abe146100e35780633a189674146100de5780634f1ef286146100d957806352d1902d146100d457806355a508b9146100cf5780638129fc1c146100ca57806391d14854146100c5578063a217fddf146100c0578063aaf10f42146100bb578063ad3cb1cc146100b65763d547741f0361012257610637565b610610565b6104eb565b6104d0565b610495565b61047d565b610462565b610433565b610414565b6102a8565b610257565b610239565b6101a9565b610151565b7fffffffff0000000000000000000000000000000000000000000000000000000081165b0361012257565b600080fd5b90503590610134826100f7565b565b906020828203126101225761014a91610127565b90565b9052565b346101225761017e61016c610167366004610136565b610650565b60405191829182901515815260200190565b0390f35b8061011b565b9050359061013482610182565b906020828203126101225761014a91610188565b346101225761017e6101c46101bf366004610195565b61070d565b6040519182918290815260200190565b73ffffffffffffffffffffffffffffffffffffffff1690565b73ffffffffffffffffffffffffffffffffffffffff811661011b565b90503590610134826101ed565b91906040838203126101225761014a9060206102328286610188565b9401610209565b346101225761025261024c366004610216565b90610772565b604051005b346101225761025261026a366004610216565b9061077c565b80151561011b565b9050359061013482610270565b91906040838203126101225761014a9060206102a18286610209565b9401610278565b34610122576102526102bb366004610285565b906108bc565b7f4e487b7100000000000000000000000000000000000000000000000000000000600052604160045260246000fd5b90601f017fffffffffffffffffffffffffffffffffffffffffffffffffffffffffffffffe016810190811067ffffffffffffffff82111761033057604052565b6102c1565b9061013461034260405190565b92836102f0565b67ffffffffffffffff811161033057602090601f017fffffffffffffffffffffffffffffffffffffffffffffffffffffffffffffffe0160190565b0190565b90826000939282370152565b909291926103a96103a482610349565b610335565b938185528183011161012257610134916020850190610388565b9080601f830112156101225781602061014a93359101610394565b919091604081840312610122576103f58382610209565b92602082013567ffffffffffffffff81116101225761014a92016103c3565b6102526104223660046103de565b906108e6565b600091031261012257565b3461012257610443366004610428565b61017e6101c4610933565b906020828203126101225761014a91610209565b346101225761017e61016c61047836600461044e565b610952565b346101225761048d366004610428565b610252610ba6565b346101225761017e61016c6104ab366004610216565b90610bae565b61014a61014a61014a9290565b61014a60006104b1565b61014a6104be565b34610122576104e0366004610428565b61017e6101c46104c8565b34610122576104fb366004610428565b61017e610506610beb565b6040519182918273ffffffffffffffffffffffffffffffffffffffff909116815260200190565b9061053a6103a483610349565b918252565b610549600561052d565b7f352e302e30000000000000000000000000000000000000000000000000000000602082015290565b61014a61053f565b61014a610572565b61014a61057a565b60005b83811061059d5750506000910152565b818101518382015260200161058d565b6105ce6105d7602093610384936105c2815190565b80835293849260200190565b9586910161058a565b601f017fffffffffffffffffffffffffffffffffffffffffffffffffffffffffffffffe01690565b602080825261014a929101906105ad565b3461012257610620366004610428565b61017e61062b610582565b604051918291826105ff565b346101225761025261064a366004610216565b90610c0e565b7f7965db0b000000000000000000000000000000000000000000000000000000007fffffffff000000000000000000000000000000000000000000000000000000008216149081156106a0575090565b61014a91507fffffffff00000000000000000000000000000000000000000000000000000000167f01ffc9a7000000000000000000000000000000000000000000000000000000001490565b905b600052602052604060002090565b61014a9081565b61014a90546106fc565b600161074961014a9261071e600090565b5060007f02dd7bc7dec4dceedda775e58dd541e08a116c6c53815c0bd028192f7b6268005b016106ec565b01610703565b90610134916107656107608261070d565b610c18565b9061076f91610c23565b50565b906101349161074f565b90610786336101d4565b73ffffffffffffffffffffffffffffffffffffffff8216036107ab5761076f91610cc3565b7f6697b23200000000000000000000000000000000000000000000000000000000600090815260045b036000fd5b61014a7faf290d8680820aad922855f39b306097b20e28774d6c1ad35a20325630c3a02c6104b1565b90610134916108126107606107d9565b610880565b6101d461014a61014a9273ffffffffffffffffffffffffffffffffffffffff1690565b61014a90610817565b61014a9061083a565b906106ee90610843565b9060ff905b9181191691161790565b9061087561014a61087c92151590565b8254610856565b9055565b906108b76101349260006108b17f0e34be40f780293d810dbdc2a3771f1f7831fadb0251836c9fa67a6d52f2f3e790565b0161084c565b610865565b9061013491610802565b90610134916108d3610d42565b90610134916108e181610e44565b610e6e565b90610134916108c6565b61014a906108fc610f9a565b61092a565b61014a7f360894a13ba1a3210667c828492db98dca3e2076cc3735a920a3ca505d382bbc6104b1565b5061014a610901565b61014a60006108f0565b61014a905b60ff1690565b61014a905461093d565b61098a61014a91610961600090565b5060007f0e34be40f780293d810dbdc2a3771f1f7831fadb0251836c9fa67a6d52f2f3e76108b1565b610948565b61014a9060401c610942565b61014a905461098f565b61014a905b67ffffffffffffffff1690565b61014a90546109a5565b6109aa61014a61014a9290565b9067ffffffffffffffff9061085b565b6109aa61014a61014a9267ffffffffffffffff1690565b90610a0561014a61087c926109de565b82546109ce565b9068ff00000000000000009060401b61085b565b90610a3061014a61087c92151590565b8254610a0c565b61014d906109c1565b6020810192916101349190610a37565b610a58610fe9565b80610a72610a6c610a688361099b565b1590565b916109b7565b600091610a7e836109c1565b67ffffffffffffffff83161480610b97575b600192610aad610a9f856109c1565b9167ffffffffffffffff1690565b149081610b6f575b155b9081610b66575b50610b3e5780610ada84610ad1856109c1565b960195866109f5565b610b2f575b610ae7610b9e565b610af057505050565b610b1e610b2a927fc7f505b2f371ae2175ee4913f4499e1f2633a7b5936321eed1cdaeb6115181d294610a20565b60405191829182610a40565b0390a1565b610b398285610a20565b610adf565b7ff92ee8a9000000000000000000000000000000000000000000000000000000008352600483fd5b15905038610abe565b9050610ab7610b7d30610843565b3b610b8e610b8a876104b1565b9190565b14919050610ab5565b5080610a90565b610134611036565b610134610a50565b61014a9160006108b161098a93610bc3600090565b50827f02dd7bc7dec4dceedda775e58dd541e08a116c6c53815c0bd028192f7b626800610743565b61014a611051565b9061013491610c046107608261070d565b9061076f91610cc3565b9061013491610bf3565b610134903390611091565b7f02dd7bc7dec4dceedda775e58dd541e08a116c6c53815c0bd028192f7b626800610c51610a688484610bae565b15610cbb5760016108b78460006108b18682610c6d97016106ec565b610c87610c81610c7b339390565b93610843565b91610843565b917f2f8788117e7eff1d82e926ec794901d17c78024a50270940304540a733656f0d610cb260405190565b600090a4600190565b505050600090565b7f02dd7bc7dec4dceedda775e58dd541e08a116c6c53815c0bd028192f7b626800610cee8383610bae565b15610cbb5760006108b784826108b18682610d0997016106ec565b610d17610c81610c7b339390565b917ff6391f5c32d9c69d2a47ea670b442974b53935d1edc7fd64eb21e047a839171b610cb260405190565b610d4b30610843565b7f000000000000000000000000000000000000000000000000000000000000000090610da273ffffffffffffffffffffffffffffffffffffffff83165b9173ffffffffffffffffffffffffffffffffffffffff1690565b14908115610ddd575b50610db257565b7fe07c8dba000000000000000000000000000000000000000000000000000000006000908152600490fd5b9050610e07610d88610ded611051565b9273ffffffffffffffffffffffffffffffffffffffff1690565b141538610dab565b61014a7fa615a8afb6fffcb8c6809ac0997b5c9c12b8cc97651150f14c8f6203168cff4c6104b1565b50610134610760610e0f565b61013490610e38565b9050519061013482610182565b906020828203126101225761014a91610e4d565b90610e80610e7b83610843565b610843565b906020610e8c60405190565b7f52d1902d00000000000000000000000000000000000000000000000000000000815292839060049082905afa60009281610f69575b50610f1a5750506001610ed25750565b7f4c9c8ce300000000000000000000000000000000000000000000000000000000600090815273ffffffffffffffffffffffffffffffffffffffff9091166004526024036000fd5b909291610f2861014a610901565b8403610f39576101349293506110d9565b7faa1d49a40000000000000000000000000000000000000000000000000000000060009081526004859052602490fd5b610f8c91935060203d602011610f93575b610f8481836102f0565b810190610e5a565b9138610ec2565b503d610f7a565b610fa330610843565b610fe273ffffffffffffffffffffffffffffffffffffffff7f000000000000000000000000000000000000000000000000000000000000000016610d88565b03610db257565b61014a61116b565b610ff9611173565b6101346110046111b7565b61100c6111b7565b61101e6110176104be565b3390610c23565b5061102a611017610e0f565b5061076f6110176107d9565b610134610ff1565b61014a906101d4565b61014a905461103e565b61014a600061106161014a610901565b01611047565b73ffffffffffffffffffffffffffffffffffffffff90911681526040810192916101349160200152565b9061109f610a688284610bae565b6110a7575050565b7fe2517d3f000000000000000000000000000000000000000000000000000000006000908152916107d4916004611067565b906110e3826111f2565b6110ec82610843565b7fbc7cd75a20ee27fd9adebab32041f755214dbc6bffa90cc0225b39da2e5c2d3b61111660405190565b600090a28051611129610b8a60006104b1565b11156111385761076f916112be565b5050610134611263565b61014a7ff0c57e16840df040f15088dc2f81fe391c3923bec73e23a9662efc9c229c6a006104b1565b61014a611142565b61117e610a686112e5565b61118457565b7fd7e6bcf8000000000000000000000000000000000000000000000000000000006000908152600490fd5b610134611173565b6101346111af565b9073ffffffffffffffffffffffffffffffffffffffff9061085b565b906111eb61014a61087c92610843565b82546111bf565b6000813b611202610b8a836104b1565b1461121d57906101349161121761014a610901565b016111db565b7f4c9c8ce300000000000000000000000000000000000000000000000000000000815273ffffffffffffffffffffffffffffffffffffffff919091166004820152602490fd5b600061126e816104b1565b34116112775750565b7fb398979f000000000000000000000000000000000000000000000000000000008152600490fd5b3d156112b9576112ae3d61052d565b903d6000602084013e565b606090565b60008061014a936112cd606090565b50602081519101845af46112df61129f565b916112f8565b61014a60006112f2610fe9565b0161099b565b90611303575061137d565b815190600091611315610b8a846104b1565b1480611368575b61132557505090565b7f9996b31500000000000000000000000000000000000000000000000000000000825273ffffffffffffffffffffffffffffffffffffffff166004820152602490fd5b50803b611377610b8a846104b1565b1461131c565b805160009061138e610b8a836104b1565b111561139d5750805190602001fd5b7fd6bda275000000000000000000000000000000000000000000000000000000008152600490fdfea2646970667358221220260c53f19dc46ff8dc1eb787b4d562170976cf76b4ed2422cec54ba0e6b8038564736f6c634300081e0033",
  "linkReferences": {},
  "deployedLinkReferences": {},
  "address": "0xFC6CaDb571f8F71cF1c6277B0b5fDE90555f2F8f"
}