{
  "_format": "hh-sol-artifact-1",
  "contractName": "Ticket",
  "sourceName": "contracts/tickets/Ticket.sol",
  "abi": [
    {
      "inputs": [],
      "stateMutability": "nonpayable",
      "type": "constructor"
    },
    {
      "inputs": [],
      "name": "ApprovalCallerNotOwnerNorApproved",
      "type": "error"
    },
    {
      "inputs": [],
      "name": "ApprovalQueryForNonexistentToken",
      "type": "error"
    },
    {
      "inputs": [],
      "name": "BalanceQueryForZeroAddress",
      "type": "error"
    },
    {
      "inputs": [],
      "name": "InvalidInitialization",
      "type": "error"
    },
    {
      "inputs": [],
      "name": "InvalidTime",
      "type": "error"
    },
    {
      "inputs": [],
      "name": "LengthMismatch",
      "type": "error"
    },
    {
      "inputs": [],
      "name": "MintERC2309QuantityExceedsLimit",
      "type": "error"
    },
    {
      "inputs": [],
      "name": "MintToZeroAddress",
      "type": "error"
    },
    {
      "inputs": [],
      "name": "MintZeroQuantity",
      "type": "error"
    },
    {
      "inputs": [],
      "name": "NotCompatibleWithSpotMints",
      "type": "error"
    },
    {
      "inputs": [],
      "name": "NotInitializing",
      "type": "error"
    },
    {
      "inputs": [],
      "name": "OnlyTicketLaunchpad",
      "type": "error"
    },
    {
      "inputs": [
        {
          "internalType": "address",
          "name": "owner",
          "type": "address"
        }
      ],
      "name": "OwnableInvalidOwner",
      "type": "error"
    },
    {
      "inputs": [
        {
          "internalType": "address",
          "name": "account",
          "type": "address"
        }
      ],
      "name": "OwnableUnauthorizedAccount",
      "type": "error"
    },
    {
      "inputs": [],
      "name": "OwnerQueryForNonexistentToken",
      "type": "error"
    },
    {
      "inputs": [],
      "name": "OwnershipNotInitializedForExtraData",
      "type": "error"
    },
    {
      "inputs": [],
      "name": "SequentialMintExceedsLimit",
      "type": "error"
    },
    {
      "inputs": [],
      "name": "SequentialUpToTooSmall",
      "type": "error"
    },
    {
      "inputs": [],
      "name": "SpotMintTokenIdTooSmall",
      "type": "error"
    },
    {
      "inputs": [],
      "name": "TokenAlreadyExists",
      "type": "error"
    },
    {
      "inputs": [],
      "name": "TransferCallerNotOwnerNorApproved",
      "type": "error"
    },
    {
      "inputs": [],
      "name": "TransferFromIncorrectOwner",
      "type": "error"
    },
    {
      "inputs": [],
      "name": "TransferToNonERC721ReceiverImplementer",
      "type": "error"
    },
    {
      "inputs": [],
      "name": "TransferToZeroAddress",
      "type": "error"
    },
    {
      "inputs": [],
      "name": "URIQueryForNonexistentToken",
      "type": "error"
    },
    {
      "anonymous": false,
      "inputs": [
        {
          "indexed": true,
          "internalType": "address",
          "name": "owner",
          "type": "address"
        },
        {
          "indexed": true,
          "internalType": "address",
          "name": "approved",
          "type": "address"
        },
        {
          "indexed": true,
          "internalType": "uint256",
          "name": "tokenId",
          "type": "uint256"
        }
      ],
      "name": "Approval",
      "type": "event"
    },
    {
      "anonymous": false,
      "inputs": [
        {
          "indexed": true,
          "internalType": "address",
          "name": "owner",
          "type": "address"
        },
        {
          "indexed": true,
          "internalType": "address",
          "name": "operator",
          "type": "address"
        },
        {
          "indexed": false,
          "internalType": "bool",
          "name": "approved",
          "type": "bool"
        }
      ],
      "name": "ApprovalForAll",
      "type": "event"
    },
    {
      "anonymous": false,
      "inputs": [
        {
          "indexed": true,
          "internalType": "uint256",
          "name": "fromTokenId",
          "type": "uint256"
        },
        {
          "indexed": false,
          "internalType": "uint256",
          "name": "toTokenId",
          "type": "uint256"
        },
        {
          "indexed": true,
          "internalType": "address",
          "name": "from",
          "type": "address"
        },
        {
          "indexed": true,
          "internalType": "address",
          "name": "to",
          "type": "address"
        }
      ],
      "name": "ConsecutiveTransfer",
      "type": "event"
    },
    {
      "anonymous": false,
      "inputs": [
        {
          "indexed": false,
          "internalType": "uint64",
          "name": "version",
          "type": "uint64"
        }
      ],
      "name": "Initialized",
      "type": "event"
    },
    {
      "anonymous": false,
      "inputs": [
        {
          "indexed": true,
          "internalType": "address",
          "name": "previousOwner",
          "type": "address"
        },
        {
          "indexed": true,
          "internalType": "address",
          "name": "newOwner",
          "type": "address"
        }
      ],
      "name": "OwnershipTransferred",
      "type": "event"
    },
    {
      "anonymous": false,
      "inputs": [
        {
          "indexed": true,
          "internalType": "address",
          "name": "from",
          "type": "address"
        },
        {
          "indexed": true,
          "internalType": "address",
          "name": "to",
          "type": "address"
        },
        {
          "indexed": true,
          "internalType": "uint256",
          "name": "tokenId",
          "type": "uint256"
        }
      ],
      "name": "Transfer",
      "type": "event"
    },
    {
      "inputs": [
        {
          "internalType": "address",
          "name": "to",
          "type": "address"
        },
        {
          "internalType": "uint256",
          "name": "tokenId",
          "type": "uint256"
        }
      ],
      "name": "approve",
      "outputs": [],
      "stateMutability": "payable",
      "type": "function"
    },
    {
      "inputs": [
        {
          "internalType": "address",
          "name": "owner",
          "type": "address"
        }
      ],
      "name": "balanceOf",
      "outputs": [
        {
          "internalType": "uint256",
          "name": "",
          "type": "uint256"
        }
      ],
      "stateMutability": "view",
      "type": "function"
    },
    {
      "inputs": [
        {
          "internalType": "address",
          "name": "to",
          "type": "address"
        },
        {
          "components": [
            {
              "internalType": "string",
              "name": "section",
              "type": "string"
            },
            {
              "internalType": "string",
              "name": "seatNumber",
              "type": "string"
            },
            {
              "internalType": "enum Tier",
              "name": "tier",
              "type": "uint8"
            }
          ],
          "internalType": "struct Seat[]",
          "name": "seat",
          "type": "tuple[]"
        }
      ],
      "name": "batchMint",
      "outputs": [],
      "stateMutability": "nonpayable",
      "type": "function"
    },
    {
      "inputs": [
        {
          "internalType": "uint256",
          "name": "tokenId",
          "type": "uint256"
        }
      ],
      "name": "burn",
      "outputs": [],
      "stateMutability": "nonpayable",
      "type": "function"
    },
    {
      "inputs": [],
      "name": "description",
      "outputs": [
        {
          "internalType": "string",
          "name": "",
          "type": "string"
        }
      ],
      "stateMutability": "view",
      "type": "function"
    },
    {
      "inputs": [],
      "name": "endTime",
      "outputs": [
        {
          "internalType": "uint64",
          "name": "",
          "type": "uint64"
        }
      ],
      "stateMutability": "view",
      "type": "function"
    },
    {
      "inputs": [
        {
          "internalType": "uint256",
          "name": "tokenId",
          "type": "uint256"
        }
      ],
      "name": "getApproved",
      "outputs": [
        {
          "internalType": "address",
          "name": "",
          "type": "address"
        }
      ],
      "stateMutability": "view",
      "type": "function"
    },
    {
      "inputs": [
        {
          "internalType": "enum Tier",
          "name": "tier",
          "type": "uint8"
        }
      ],
      "name": "imageURIByTier",
      "outputs": [
        {
          "internalType": "string",
          "name": "imageURI",
          "type": "string"
        }
      ],
      "stateMutability": "view",
      "type": "function"
    },
    {
      "inputs": [
        {
          "internalType": "address",
          "name": "owner_",
          "type": "address"
        },
        {
          "internalType": "address",
          "name": "ticketLaunchpad_",
          "type": "address"
        },
        {
          "components": [
            {
              "internalType": "string",
              "name": "name",
              "type": "string"
            },
            {
              "internalType": "string",
              "name": "symbol",
              "type": "string"
            },
            {
              "internalType": "string",
              "name": "coverImageURI",
              "type": "string"
            },
            {
              "internalType": "string",
              "name": "description",
              "type": "string"
            },
            {
              "internalType": "string",
              "name": "location",
              "type": "string"
            },
            {
              "internalType": "uint64",
              "name": "startTime",
              "type": "uint64"
            },
            {
              "internalType": "uint64",
              "name": "endTime",
              "type": "uint64"
            }
          ],
          "internalType": "struct EventDetails",
          "name": "eventDetails_",
          "type": "tuple"
        },
        {
          "internalType": "enum Tier[]",
          "name": "tierIds",
          "type": "uint8[]"
        },
        {
          "internalType": "string[]",
          "name": "imageURIs",
          "type": "string[]"
        }
      ],
      "name": "initialize",
      "outputs": [],
      "stateMutability": "nonpayable",
      "type": "function"
    },
    {
      "inputs": [
        {
          "internalType": "address",
          "name": "owner",
          "type": "address"
        },
        {
          "internalType": "address",
          "name": "operator",
          "type": "address"
        }
      ],
      "name": "isApprovedForAll",
      "outputs": [
        {
          "internalType": "bool",
          "name": "",
          "type": "bool"
        }
      ],
      "stateMutability": "view",
      "type": "function"
    },
    {
      "inputs": [],
      "name": "location",
      "outputs": [
        {
          "internalType": "string",
          "name": "",
          "type": "string"
        }
      ],
      "stateMutability": "view",
      "type": "function"
    },
    {
      "inputs": [
        {
          "internalType": "address",
          "name": "to",
          "type": "address"
        },
        {
          "components": [
            {
              "internalType": "string",
              "name": "section",
              "type": "string"
            },
            {
              "internalType": "string",
              "name": "seatNumber",
              "type": "string"
            },
            {
              "internalType": "enum Tier",
              "name": "tier",
              "type": "uint8"
            }
          ],
          "internalType": "struct Seat",
          "name": "seat",
          "type": "tuple"
        }
      ],
      "name": "mint",
      "outputs": [],
      "stateMutability": "nonpayable",
      "type": "function"
    },
    {
      "inputs": [],
      "name": "name",
      "outputs": [
        {
          "internalType": "string",
          "name": "",
          "type": "string"
        }
      ],
      "stateMutability": "view",
      "type": "function"
    },
    {
      "inputs": [],
      "name": "owner",
      "outputs": [
        {
          "internalType": "address",
          "name": "",
          "type": "address"
        }
      ],
      "stateMutability": "view",
      "type": "function"
    },
    {
      "inputs": [
        {
          "internalType": "uint256",
          "name": "tokenId",
          "type": "uint256"
        }
      ],
      "name": "ownerOf",
      "outputs": [
        {
          "internalType": "address",
          "name": "",
          "type": "address"
        }
      ],
      "stateMutability": "view",
      "type": "function"
    },
    {
      "inputs": [],
      "name": "renounceOwnership",
      "outputs": [],
      "stateMutability": "nonpayable",
      "type": "function"
    },
    {
      "inputs": [
        {
          "internalType": "address",
          "name": "from",
          "type": "address"
        },
        {
          "internalType": "address",
          "name": "to",
          "type": "address"
        },
        {
          "internalType": "uint256",
          "name": "tokenId",
          "type": "uint256"
        }
      ],
      "name": "safeTransferFrom",
      "outputs": [],
      "stateMutability": "payable",
      "type": "function"
    },
    {
      "inputs": [
        {
          "internalType": "address",
          "name": "from",
          "type": "address"
        },
        {
          "internalType": "address",
          "name": "to",
          "type": "address"
        },
        {
          "internalType": "uint256",
          "name": "tokenId",
          "type": "uint256"
        },
        {
          "internalType": "bytes",
          "name": "_data",
          "type": "bytes"
        }
      ],
      "name": "safeTransferFrom",
      "outputs": [],
      "stateMutability": "payable",
      "type": "function"
    },
    {
      "inputs": [
        {
          "internalType": "uint256",
          "name": "tokenId",
          "type": "uint256"
        }
      ],
      "name": "seatsTokenId",
      "outputs": [
        {
          "internalType": "string",
          "name": "section",
          "type": "string"
        },
        {
          "internalType": "string",
          "name": "seatNumber",
          "type": "string"
        },
        {
          "internalType": "enum Tier",
          "name": "tier",
          "type": "uint8"
        }
      ],
      "stateMutability": "view",
      "type": "function"
    },
    {
      "inputs": [
        {
          "internalType": "address",
          "name": "operator",
          "type": "address"
        },
        {
          "internalType": "bool",
          "name": "approved",
          "type": "bool"
        }
      ],
      "name": "setApprovalForAll",
      "outputs": [],
      "stateMutability": "nonpayable",
      "type": "function"
    },
    {
      "inputs": [
        {
          "components": [
            {
              "internalType": "string",
              "name": "name",
              "type": "string"
            },
            {
              "internalType": "string",
              "name": "symbol",
              "type": "string"
            },
            {
              "internalType": "string",
              "name": "coverImageURI",
              "type": "string"
            },
            {
              "internalType": "string",
              "name": "description",
              "type": "string"
            },
            {
              "internalType": "string",
              "name": "location",
              "type": "string"
            },
            {
              "internalType": "uint64",
              "name": "startTime",
              "type": "uint64"
            },
            {
              "internalType": "uint64",
              "name": "endTime",
              "type": "uint64"
            }
          ],
          "internalType": "struct EventDetails",
          "name": "eventDetails_",
          "type": "tuple"
        }
      ],
      "name": "setEventDetails",
      "outputs": [],
      "stateMutability": "nonpayable",
      "type": "function"
    },
    {
      "inputs": [
        {
          "internalType": "enum Tier[]",
          "name": "tierIds",
          "type": "uint8[]"
        },
        {
          "internalType": "string[]",
          "name": "imageURIs",
          "type": "string[]"
        }
      ],
      "name": "setImageURIsByTier",
      "outputs": [],
      "stateMutability": "nonpayable",
      "type": "function"
    },
    {
      "inputs": [],
      "name": "startTime",
      "outputs": [
        {
          "internalType": "uint64",
          "name": "",
          "type": "uint64"
        }
      ],
      "stateMutability": "view",
      "type": "function"
    },
    {
      "inputs": [
        {
          "internalType": "bytes4",
          "name": "interfaceId",
          "type": "bytes4"
        }
      ],
      "name": "supportsInterface",
      "outputs": [
        {
          "internalType": "bool",
          "name": "",
          "type": "bool"
        }
      ],
      "stateMutability": "view",
      "type": "function"
    },
    {
      "inputs": [],
      "name": "symbol",
      "outputs": [
        {
          "internalType": "string",
          "name": "",
          "type": "string"
        }
      ],
      "stateMutability": "view",
      "type": "function"
    },
    {
      "inputs": [],
      "name": "ticketLaunchpad",
      "outputs": [
        {
          "internalType": "address",
          "name": "",
          "type": "address"
        }
      ],
      "stateMutability": "view",
      "type": "function"
    },
    {
      "inputs": [
        {
          "internalType": "uint256",
          "name": "tokenId",
          "type": "uint256"
        }
      ],
      "name": "tokenURI",
      "outputs": [
        {
          "internalType": "string",
          "name": "",
          "type": "string"
        }
      ],
      "stateMutability": "view",
      "type": "function"
    },
    {
      "inputs": [],
      "name": "totalSupply",
      "outputs": [
        {
          "internalType": "uint256",
          "name": "result",
          "type": "uint256"
        }
      ],
      "stateMutability": "view",
      "type": "function"
    },
    {
      "inputs": [
        {
          "internalType": "address",
          "name": "from",
          "type": "address"
        },
        {
          "internalType": "address",
          "name": "to",
          "type": "address"
        },
        {
          "internalType": "uint256",
          "name": "tokenId",
          "type": "uint256"
        }
      ],
      "name": "transferFrom",
      "outputs": [],
      "stateMutability": "payable",
      "type": "function"
    },
    {
      "inputs": [
        {
          "internalType": "address",
          "name": "newOwner",
          "type": "address"
        }
      ],
      "name": "transferOwnership",
      "outputs": [],
      "stateMutability": "nonpayable",
      "type": "function"
    }
  ],
  "bytecode": "0x60806040523461002257610011610027565b604051613a176101898239613a1790f35b600080fd5b61002f6100aa565b565b61003e9060401c60ff1690565b90565b61003e9054610031565b61003e905b6001600160401b031690565b61003e905461004b565b61003e90610050906001600160401b031682565b9061008a61003e6100a692610066565b82546001600160401b0319166001600160401b03919091161790565b9055565b60006100b4610142565b016100be81610041565b610130576100cb8161005c565b6001600160401b03919082908116036100e2575050565b816101117fc7f505b2f371ae2175ee4913f4499e1f2633a7b5936321eed1cdaeb6115181d29361012b9361007a565b604051918291826001600160401b03909116815260200190565b0390a1565b63f92ee8a960e01b6000908152600490fd5b61003e610180565b61003e61003e61003e9290565b61003e7ff0c57e16840df040f15088dc2f81fe391c3923bec73e23a9662efc9c229c6a0061014a565b61003e61015756fe6080604052600436101561001257600080fd5b60003560e01c806264a5a6146101f157806301ffc9a7146101ec57806306fdde03146101e7578063081812fc146101e2578063095ea7b3146101dd57806318160ddd146101d85780631f4b12ab146101d357806323b872dd146101ce5780633197cbb6146101c957806342842e0e146101c457806342966c68146101bf578063516f279e146101ba5780636352211e146101b557806370a08231146101b0578063715018a6146101ab5780637284e416146101a657806378e97925146101a15780637bd0d6051461019c57806382e2fc471461019757806384b8f110146101925780638da5cb5b1461018d57806395d89b4114610188578063a22cb46514610183578063b88d4fde1461017e578063be35e3ea14610179578063c87b56dd14610174578063e45946501461016f578063e985e9c51461016a578063ebb43782146101655763f2fde38b0361020057610d62565b610d4a565b610d08565b610cc9565b610c64565b610c49565b610bfb565b610aed565b610a9a565b610a7f565b610a55565b6109a2565b610945565b6108f4565b6108d9565b6108c1565b6108a6565b610877565b61085c565b610844565b610830565b6107fa565b6107e6565b61079e565b6106aa565b610691565b610603565b6105a8565b61056f565b6104f4565b6003111561020057565b600080fd5b90503590610212826101f6565b565b906020828203126102005761022891610205565b90565b7f4e487b7100000000000000000000000000000000000000000000000000000000600052602160045260246000fd5b6003111561026457565b61022b565b906102128261025a565b61022890610269565b9061028690610273565b600052602052604060002090565b7f4e487b7100000000000000000000000000000000000000000000000000000000600052600060045260246000fd5b7f4e487b7100000000000000000000000000000000000000000000000000000000600052602260045260246000fd5b9060016002830492168015610312575b602083101461030d57565b6102c3565b91607f1691610302565b8054600093929161033961032f836102f2565b8085529360200190565b916001811690811561038b575060011461035257505050565b6103659192939450600052602060002090565b916000925b8184106103775750500190565b80548484015260209093019260010161036a565b92949550505060ff1916825215156020020190565b906102289161031c565b7f4e487b7100000000000000000000000000000000000000000000000000000000600052604160045260246000fd5b90601f017fffffffffffffffffffffffffffffffffffffffffffffffffffffffffffffffe016810190811067ffffffffffffffff82111761041957604052565b6103aa565b906102126104389261042f60405190565b938480926103a0565b03836103d9565b90600010610450576102289061041e565b610294565b600061046561022892600861027c565b61043f565b60005b83811061047d5750506000910152565b818101518382015260200161046d565b6104ae6104b76020936104df936104a2815190565b80835293849260200190565b9586910161046a565b601f017fffffffffffffffffffffffffffffffffffffffffffffffffffffffffffffffe01690565b0190565b60208082526102289291019061048d565b346102005761051b61050f61050a366004610214565b610455565b604051918291826104e3565b0390f35b7fffffffff0000000000000000000000000000000000000000000000000000000081165b0361020057565b905035906102128261051f565b90602082820312610200576102289161054a565b9052565b346102005761051b61058a610585366004610557565b610db2565b6040515b91829182901515815260200190565b600091031261020057565b34610200576105b836600461059d565b61051b61050f610e73565b80610543565b90503590610212826105c3565b9060208282031261020057610228916105c9565b73ffffffffffffffffffffffffffffffffffffffff1690565b346102005761051b61061e6106193660046105d6565b610e90565b6040519182918273ffffffffffffffffffffffffffffffffffffffff909116815260200190565b73ffffffffffffffffffffffffffffffffffffffff8116610543565b9050359061021282610645565b91906040838203126102005761022890602061068a8286610661565b94016105c9565b6106a561069f36600461066e565b90610f08565b604051005b34610200576106ba36600461059d565b61051b6106c5610f25565b6040519182918290815260200190565b908160e09103126102005790565b909182601f830112156102005781359167ffffffffffffffff831161020057602001926020830284011161020057565b909160a082840312610200576107298383610661565b926107378160208501610661565b92604081013567ffffffffffffffff811161020057826107589183016106d5565b92606082013567ffffffffffffffff811161020057836107799184016106e3565b929093608082013567ffffffffffffffff81116102005761079a92016106e3565b9091565b34610200576106a56107b1366004610713565b959490949391936117fd565b9091606082840312610200576102286107d68484610661565b93604061068a8260208701610661565b6106a56107f43660046107bd565b916118c8565b346102005761080a36600461059d565b61051b610815611bf0565b6040519182918267ffffffffffffffff909116815260200190565b6106a561083e3660046107bd565b91611c1e565b34610200576106a56108573660046105d6565b611c32565b346102005761086c36600461059d565b61051b61050f611c3d565b346102005761051b61061e61088d3660046105d6565b611c47565b906020828203126102005761022891610661565b346102005761051b6106c56108bc366004610892565b611c7e565b34610200576108d136600461059d565b6106a5611d2c565b34610200576108e936600461059d565b61051b61050f611d34565b346102005761090436600461059d565b61051b610815611d3e565b919091604081840312610200576109268382610661565b92602082013567ffffffffffffffff81116102005761079a92016106e3565b34610200576106a561095836600461090f565b91611d9c565b908160609103126102005790565b919091604081840312610200576109838382610661565b92602082013567ffffffffffffffff811161020057610228920161095e565b34610200576106a56109b536600461096c565b90611e5f565b6102286102286102289290565b90610286906109bb565b610228905b60ff1690565b61022890546109d2565b6109f29060076109c8565b6109fb8161041e565b916102286002610a0d6001850161041e565b93016109dd565b61056b90610273565b939290610a4d61021293610a3f604093606089019089820360008b015261048d565b90878203602089015261048d565b940190610a14565b346102005761051b610a70610a6b3660046105d6565b6109e7565b60405191939193849384610a1d565b3461020057610a8f36600461059d565b61051b61061e611e69565b3461020057610aaa36600461059d565b61051b61050f611e94565b801515610543565b9050359061021282610ab5565b919060408382031261020057610228906020610ae68286610661565b9401610abd565b34610200576106a5610b00366004610aca565b90611e9e565b90610212610b1360405190565b92836103d9565b67ffffffffffffffff811161041957602090601f017fffffffffffffffffffffffffffffffffffffffffffffffffffffffffffffffe0160190565b90826000939282370152565b90929192610b76610b7182610b1a565b610b06565b938185528183011161020057610212916020850190610b55565b9080601f830112156102005781602061022893359101610b61565b9060808282031261020057610bc08183610661565b92610bce8260208501610661565b92610bdc83604083016105c9565b92606082013567ffffffffffffffff8111610200576102289201610b90565b6106a5610c09366004610bab565b92919091611f15565b610228916008021c73ffffffffffffffffffffffffffffffffffffffff1690565b906102289154610c12565b610228600080610c33565b3461020057610c5936600461059d565b61051b61061e610c3e565b346102005761051b61050f610c7a3660046105d6565b612415565b909160408284031261020057813567ffffffffffffffff81116102005783610ca89184016106e3565b929093602082013567ffffffffffffffff81116102005761079a92016106e3565b34610200576106a5610cdc366004610c7f565b92919091612518565b919060408382031261020057610228906020610d018286610661565b9401610661565b346102005761051b61058a610d1e366004610ce5565b90612524565b9060208282031261020057813567ffffffffffffffff81116102005761022892016106d5565b34610200576106a5610d5d366004610d24565b6125a3565b34610200576106a5610d75366004610892565b612644565b610d8d610d876102289290565b60e01b90565b7fffffffff000000000000000000000000000000000000000000000000000000001690565b610dbf6301ffc9a7610d7a565b7fffffffff00000000000000000000000000000000000000000000000000000000821614908115610e31575b8115610df5575090565b9050610e2d610e07635b5e139f610d7a565b917fffffffff000000000000000000000000000000000000000000000000000000001690565b1490565b9050610e406380ac58cd610d7a565b7fffffffff0000000000000000000000000000000000000000000000000000000082161490610deb565b6102289061041e565b6102286001610e6a565b610228906105ea565b6102289054610e7d565b610ea0610e9c826126d2565b1590565b610ee2576000610edc610228926006610ed67f2569078dfb4b0305704d3008e7403993ae9601b85f7ae5e742de3de8f8011c4090565b016109c8565b01610e86565b7fcf4700e400000000000000000000000000000000000000000000000000000000612782565b6102129160019161278b565b6102289081565b6102289054610f14565b7f2569078dfb4b0305704d3008e7403993ae9601b85f7ae5e742de3de8f8011c4090610f6f610f67610f5684610f1b565b610f6260018601610f1b565b900390565b610f6261287b565b8092610f987fffffffffffffffffffffffffffffffffffffffffffffffffffffffffffffffff90565b7fffffffffffffffffffffffffffffffffffffffffffffffffffffffffffffffff90610fc3565b9190565b03610fcc575050565b61022892935060086104df9101610f1b565b6102289060401c6109d7565b6102289054610fde565b610228905b67ffffffffffffffff1690565b6102289054610ff4565b610ff96102286102289290565b6105ea6102286102289273ffffffffffffffffffffffffffffffffffffffff1690565b6102289061101d565b61022890611040565b9067ffffffffffffffff905b9181191691161790565b610ff96102286102289267ffffffffffffffff1690565b9061108f61022861109692611068565b8254611052565b9055565b9068ff00000000000000009060401b61105e565b906110be61022861109692151590565b825461109a565b61056b90611010565b60208101929161021291906110c5565b96959093949291926110ee612885565b958693611106611100610e9c87610fea565b95611006565b9560009761111389611010565b67ffffffffffffffff8916148061122d575b6001986111426111348b611010565b9167ffffffffffffffff1690565b149081611209575b155b9081611200575b506111d85788999a9b876111788a9b61116f6111819b9c611010565b9e019d8e61107f565b6111c95761131a565b61118a57505050565b6111b86111c4927fc7f505b2f371ae2175ee4913f4499e1f2633a7b5936321eed1cdaeb6115181d2946110ae565b604051918291826110ce565b0390a1565b6111d38a8d6110ae565b61131a565b7ff92ee8a9000000000000000000000000000000000000000000000000000000008952600489fd5b15905038611153565b905061114c61121730611049565b3b611224610fbf8d6109bb565b1491905061114a565b5086611125565b6102289060081c6109d7565b6102289054611234565b1561125157565b6040517f08c379a000000000000000000000000000000000000000000000000000000000815260206004820152603760248201527f455243373231415f5f496e697469616c697a61626c653a20636f6e747261637460448201527f20697320616c726561647920696e697469616c697a65640000000000000000006064820152608490fd5b9061ff009060081b61105e565b906112f361022861109692151590565b82546112d6565b9060ff9061105e565b9061131361022861109692151590565b82546112fa565b9491926113859491969361134b7fee151c8401928dc223602bb187aff91b9a56c7cae5476ef1b3287b085a16c85f90565b97889761135789611240565b156113b35761136c61136761288d565b61124a565b611378610e9c8a611240565b9889611398575b506113dc565b61138c5750565b610212906000906112e3565b6001816113a8826113ad946112e3565b611303565b3861137f565b61136c611367610e9c8c6109dd565b67ffffffffffffffff8116610543565b35610228816113c2565b9594939291906113ee60a083016113d2565b611400611134610ff960c086016113d2565b1161140e5761021296611790565b7f6f7eac26000000000000000000000000000000000000000000000000000000006000908152600490fd5b9035907fffffffffffffffffffffffffffffffffffffffffffffffffffffffffffffffe13682900301821215610200570180359067ffffffffffffffff8211610200576020019136829003831361020057565b610228913691610b61565b9073ffffffffffffffffffffffffffffffffffffffff9061105e565b906114c361022861109692611049565b8254611497565b9190600861105e9102916114fd7fffffffffffffffffffffffffffffffffffffffffffffffffffffffffffffffff841b90565b921b90565b9190611513610228611096936109bb565b9083546114ca565b61021291600091611502565b818110611532575050565b80611540600060019361151b565b01611527565b9190601f811161155557505050565b61156761021293600052602060002090565b906020601f840181900483019310611589575b6020601f909101040190611527565b909150819061157a565b919067ffffffffffffffff8211610419576115b8826115b285546102f2565b85611546565b600090601f831160011461161157611096929160009183611606575b50507fffffffffffffffffffffffffffffffffffffffffffffffffffffffffffffffff600883021c1916906002021790565b0135905038806115d4565b90601f1983169161162785600052602060002090565b92825b8181106116835750916002939185600196941061164b575b50505002019055565b01357fffffffffffffffffffffffffffffffffffffffffffffffffffffffffffffffff601f84166008021c19165b9055388080611642565b9293602060018192878601358155019501930161162a565b906102129291611593565b906fffffffffffffffff00000000000000009060401b61105e565b906116d161022861109692611068565b82546116a6565b9061178060c06005610212946116fb6116f46000870187611439565b908361169b565b61171561170b6020870187611439565b906001840161169b565b61172f6117256040870187611439565b906002840161169b565b61174961173f6060870187611439565b906003840161169b565b6117636117596080870187611439565b906004840161169b565b019261177a61177460a083016113d2565b8561107f565b016113d2565b906116c1565b90610212916116d8565b916117f16117f8926117ea61021299989796956117dd6117d76117b66000880188611439565b6117d16117c960208b959495018b611439565b92909461148c565b9261148c565b90612974565b6117e56129b7565b6129d4565b60006114b3565b6001611786565b612a38565b906102129695949392916110de565b6102286102286102289273ffffffffffffffffffffffffffffffffffffffff1690565b61022873ffffffffffffffffffffffffffffffffffffffff6109bb565b6105ea6102286102289290565b9061028690611049565b907fffffffffffffffffffffffffffffffffffffffffffffffffffffffffffffffff9061105e565b9061189b610228611096926109bb565b8254611863565b6102287c02000000000000000000000000000000000000000000000000000000006109bb565b9190916118e56118e06118da84612ad0565b92611040565b61180c565b916119016118fc6118f461182f565b80951661184c565b611040565b9361190e6118fc8461184c565b61194373ffffffffffffffffffffffffffffffffffffffff87165b9173ffffffffffffffffffffffffffffffffffffffff1690565b03611bb457849261195383612c50565b33611962610e9c828985612c8e565b611b6c575b50610fbf959493611ac59793611a99936118e093611b62575b507f2569078dfb4b0305704d3008e7403993ae9601b85f7ae5e742de3de8f8011c4090611a26611a14847f2569078dfb4b0305704d3008e7403993ae9601b85f7ae5e742de3de8f8011c45611a0f6119d88d83611859565b611a096119e482610f1b565b7fffffffffffffffffffffffffffffffffffffffffffffffffffffffffffffffff0190565b9061188b565b611859565b611a09611a2082610f1b565b60010190565b611a5f611a3c8285611a366118a2565b9b612d19565b89178473ffffffffffffffffffffffffffffffffffffffff16904260a01b171790565b611a766004840191611a718a846109c8565b61188b565b600098611a8b611a858b6109bb565b91841690565b14611af2575b505050611040565b1680957fddf252ad1be2c89b69c2b068fc378daa952ba7f163c4a11628f55a4df523b3ef8480a46109bb565b14611acc57565b7fea553b3400000000000000000000000000000000000000000000000000000000612782565b88611b05611b0060016109bb565b8a0190565b93611b18611b1386856109c8565b610f1b565b611b24610fbf846109bb565b14611b31575b5050611a91565b611b3f916102289101610f1b565b8303611b4d575b8881611b2a565b611b5a92611a71916109c8565b388080611b46565b6000905538611980565b610e9c90611b7e929894969597612524565b611b8e5786949293919538611967565b7f59c896be00000000000000000000000000000000000000000000000000000000612782565b7fa114810000000000000000000000000000000000000000000000000000000000612782565b6102289060401c610ff9565b6102289054611bda565b6102286006611be6565b90611c07610b7183610b1a565b918252565b6102286000611bfa565b610228611c0c565b909161021292611c2c611c16565b92611f15565b600161021291612d62565b6102286005610e6a565b6118fc611c5f61022892611c59600090565b50612ad0565b61184c565b6102289061184c565b61022867ffffffffffffffff6109bb565b611c8b6105ea6000611c64565b73ffffffffffffffffffffffffffffffffffffffff821614611ce957611b13611cdd916005611cd77f2569078dfb4b0305704d3008e7403993ae9601b85f7ae5e742de3de8f8011c4090565b01611859565b611ce5611c6d565b1690565b7f8f4eb60400000000000000000000000000000000000000000000000000000000612782565b611d17612f7b565b610212610212611d276000611c64565b612fde565b610212611d0f565b6102286004610e6a565b6102286006611006565b9190611d576105ea6000610e86565b3303611d665761021292611d91565b7f16d71238000000000000000000000000000000000000000000000000000000006000908152600490fd5b9061021292916130c8565b906102129291611d48565b90611db56105ea6000610e86565b3303611d665761021291611e31565b35610228816101f6565b9061131361022861109692610273565b6002611e20604061021294611e00611df96000830183611439565b908761169b565b611e1a611e106020830183611439565b906001880161169b565b01611dc4565b9101611dce565b9061021291611dde565b611e4f61021292611e4a611e43613122565b60076109c8565b611e27565b611e5960016109bb565b9061314b565b9061021291611da7565b61022860007f9016d09d72d40fdae2fd8ceac6b6234c7706214fd39c1cd1e609a0528c199300610edc565b6102286002610e6a565b7f17307eab39ab6107e8899845ad3d59bd9653f200f220920489ca2b5937696c31611f10611f06611f0033611efb876113a888611a0f857f2569078dfb4b0305704d3008e7403993ae9601b85f7ae5e742de3de8f8011c47611859565b611049565b93611049565b9361058e60405190565b0390a3565b91929092611f248185856118c8565b833b611f33610fbf60006109bb565b03611f3f575b50505050565b611f4c93610e9c936131ee565b611f595738808080611f39565b7fd1a57ed600000000000000000000000000000000000000000000000000000000612782565b6102286102286102289267ffffffffffffffff1690565b80546000939291611fad611fa9836102f2565b9390565b9160018116908115611ffe5750600114611fc657505050565b611fd99192939450600052602060002090565b6000905b838210611fea5750500190565b600181602092548486015201910190611fdd565b7fffffffffffffffffffffffffffffffffffffffffffffffffffffffffffffff001683525050811515909102019150565b6104df61204792602092612041815190565b94859290565b9384910161046a565b6123c3986120e46122ad61220c6102289e9b6121136123ec9f9961220c6121139e6120e46123749f61234b9f612235916121139f6122fc9f61220c9f61214261220c956120e461216b6121426122849e6120e46121196120e49a6121136120ea6121bd9c6120e46121949d7f7b226e616d65223a220000000000000000000000000000000000000000000000815260090190565b90611f96565b7f2300000000000000000000000000000000000000000000000000000000000000815260010190565b9061202f565b7f222c20226465736372697074696f6e223a220000000000000000000000000000815260120190565b7f222c200000000000000000000000000000000000000000000000000000000000815260030190565b7f22696d616765223a220000000000000000000000000000000000000000000000815260090190565b7f2261747472696275746573223a5b0000000000000000000000000000000000008152600e0190565b7f7b2274726169745f74797065223a2253656374696f6e222c2276616c7565223a81527f2200000000000000000000000000000000000000000000000000000000000000602082015260210190565b7f227d2c0000000000000000000000000000000000000000000000000000000000815260030190565b7f7b2274726169745f74797065223a2253656174204e756d626572222c2276616c81527f7565223a22000000000000000000000000000000000000000000000000000000602082015260250190565b7f7b2274726169745f74797065223a2254696572222c2276616c7565223a2200008152601e0190565b7f7b2274726169745f74797065223a224c6f636174696f6e222c2276616c75652281527f3a22000000000000000000000000000000000000000000000000000000000000602082015260220190565b7f7b2274726169745f74797065223a2253746172742054696d65222c226469737081527f6c61795f74797065223a2264617465222c2276616c7565223a00000000000000602082015260390190565b7f7d2c000000000000000000000000000000000000000000000000000000000000815260020190565b7f7b2274726169745f74797065223a22456e642054696d65222c22646973706c6181527f795f74797065223a2264617465222c2276616c7565223a000000000000000000602082015260370190565b7f7d00000000000000000000000000000000000000000000000000000000000000815260010190565b7f5d7d000000000000000000000000000000000000000000000000000000000000815260020190565b612421610e9c826126d2565b6124d7576102289081600161243a6102288460076109c8565b926124cb61244b60008401926132b8565b9260038101956002810191612469612462846109dd565b600861027c565b9260018301906124819061247c906109dd565b6133ae565b906005600484019301936124b36124a86124a36124ad6124a86124a38a611006565b611f7f565b6132b8565b97611be6565b956124bd60405190565b9b8c9a60208c019a8b612050565b908103825203826103d9565b7fa14c4b5000000000000000000000000000000000000000000000000000000000612782565b9061021293929161250c612f7b565b90610212939291612a38565b906102129392916124fd565b61022891611a0f61256092612537600090565b5060077f2569078dfb4b0305704d3008e7403993ae9601b85f7ae5e742de3de8f8011c40611cd7565b6109dd565b61021290612571612f7b565b61257d60a082016113d2565b61258f611134610ff960c085016113d2565b1161140e5761021290610212906001611786565b61021290612565565b610212906125b8612f7b565b60006125c381611c64565b73ffffffffffffffffffffffffffffffffffffffff811673ffffffffffffffffffffffffffffffffffffffff84161461260157505061021290612fde565b7f1e4fbdf700000000000000000000000000000000000000000000000000000000825273ffffffffffffffffffffffffffffffffffffffff166004820152602490fd5b610212906125ac565b7f4e487b7100000000000000000000000000000000000000000000000000000000600052601160045260246000fd5b80156126a7577fffffffffffffffffffffffffffffffffffffffffffffffffffffffffffffffff0190565b61264d565b6102287c01000000000000000000000000000000000000000000000000000000006109bb565b906000916126de61287b565b8110156126e85750565b7f2569078dfb4b0305704d3008e7403993ae9601b85f7ae5e742de3de8f8011c4061271561022882610f1b565b821061271f575050565b9192505b612733611b1382600485016109c8565b80612741610fbf60006109bb565b036127655750611b136004926127596127339361267c565b90935091506127239050565b915050610e2d6127736126ac565b61277d60006109bb565b921690565b60005260046000fd5b9161279582611c47565b9080612853575b61281b575b6127e4611f006127ea92611efb8660006127de886006610ed67f2569078dfb4b0305704d3008e7403993ae9601b85f7ae5e742de3de8f8011c4090565b016114b3565b916109bb565b917f8c5be1e5ebec7d5bd14f71427d1e84f3dd0314c0f7b2291e5b200ac8c7c3b92561281560405190565b600090a4565b612828610e9c3383612524565b156127a1577fcfb3b94200000000000000000000000000000000000000000000000000000000612782565b503361287473ffffffffffffffffffffffffffffffffffffffff8316611929565b141561279c565b61022860006109bb565b610228613441565b61289630611049565b3b610e2d610fbf60006109bb565b156128ab57565b6040517f08c379a000000000000000000000000000000000000000000000000000000000815260206004820152603460248201527f455243373231415f5f496e697469616c697a61626c653a20636f6e747261637460448201527f206973206e6f7420696e697469616c697a696e670000000000000000000000006064820152608490fd5b610212919061296a61296560007fee151c8401928dc223602bb187aff91b9a56c7cae5476ef1b3287b085a16c85f5b01611240565b6128a4565b9061021291613641565b9061021291612930565b6129ac61296560007fee151c8401928dc223602bb187aff91b9a56c7cae5476ef1b3287b085a16c85f61295f565b610212610212613679565b61021261297e565b610212906129cb613681565b610212906136c9565b610212906129bf565b7f4e487b7100000000000000000000000000000000000000000000000000000000600052603260045260246000fd5b90821015612a2357602061079a9202810190611439565b6129dd565b9190811015612a23576020020190565b90939290918493828503612aa557612a5060006109bb565b855b811015612a9c57612a9581611a20818a612a908a612a8a612a85612a7a612a529a8e8e612a0c565b969095600894612a28565b611dc4565b9061027c565b61169b565b9050612a50565b50945050505050565b7fff633a38000000000000000000000000000000000000000000000000000000006000908152600490fd5b612ad861287b565b811015612b06575b7fdf2d9b4200000000000000000000000000000000000000000000000000000000612782565b7f2569078dfb4b0305704d3008e7403993ae9601b85f7ae5e742de3de8f8011c407f2569078dfb4b0305704d3008e7403993ae9601b85f7ae5e742de3de8f8011c44612b55611b1384836109c8565b92600092612b62846109bb565b8514612b8d57505050612b85612b7f612b796126ac565b926109bb565b91831690565b03612ae05790565b83612ba092939495506102289101610f1b565b811015612ae0579091907fffffffffffffffffffffffffffffffffffffffffffffffffffffffffffffffff015b91612bdb611b1384836109c8565b92612be5836109bb565b8414612c26575050612bfb612b7f612b796126ac565b14610228577fdf2d9b4200000000000000000000000000000000000000000000000000000000612782565b9092507fffffffffffffffffffffffffffffffffffffffffffffffffffffffffffffffff01612bcd565b610228612c8891612c5f600090565b5060067f2569078dfb4b0305704d3008e7403993ae9601b85f7ae5e742de3de8f8011c40610ed6565b90815490565b919073ffffffffffffffffffffffffffffffffffffffff8091612caf600090565b5016911691821491141790565b61022860e86109bb565b61022890612cd7610fbf6102289490565b901c90565b612ce96102286102289290565b62ffffff1690565b6102286102286102289262ffffff1690565b61022890612d14610fbf6102289490565b901b90565b612d4e612d53916102289493612d2d600090565b50612d48612d43612d3c612cbc565b8097612cc6565b612cdc565b916136d2565b612cf1565b612d03565b61022860806109bb565b612d6b81612ad0565b91612d786118fc8461184c565b90612d8283612c50565b9091612f41575b92612eaa6127e4611f00612dc2956102129895600198612f37575b50612dc6612db0612d58565b612db98a6109bb565b98899182612d03565b0390565b7f2569078dfb4b0305704d3008e7403993ae9601b85f7ae5e742de3de8f8011c409790612e2490611a09612e1a857f2569078dfb4b0305704d3008e7403993ae9601b85f7ae5e742de3de8f8011c45611859565b916104df83610f1b565b612e2c6126ac565b96612e356118a2565b80981797600092612e76612e4885611c64565b9a612e54858d89612d19565b178673ffffffffffffffffffffffffffffffffffffffff16904260a01b171790565b91612e8960048d0193611a718c866109c8565b612e9b612e95866109bb565b91851690565b14612ee6575b50505050611049565b917fddf252ad1be2c89b69c2b068fc378daa952ba7f163c4a11628f55a4df523b3ef612ed560405190565b600090a401611a09611a2082610f1b565b880192612ef6611b1385846109c8565b612f02610fbf836109bb565b03612ea157610228612f15918c01610f1b565b8303612f22575b80612ea1565b612f2f92611a71916109c8565b388080612f1c565b6000905538612da4565b33612f50610e9c828685612c8e565b612f5b575b50612d89565b610e9c612f6d91859794969395612524565b611b8e579290939138612f55565b612f83611e69565b3390612f8e82611929565b03612f965750565b7f118cdaa700000000000000000000000000000000000000000000000000000000600090815273ffffffffffffffffffffffffffffffffffffffff9091166004526024036000fd5b61301e6130187f9016d09d72d40fdae2fd8ceac6b6234c7706214fd39c1cd1e609a0528c199300611efb8461301283610e86565b926114b3565b91611049565b907f8be0079c531659141344cd1fd0a4f28419497f9722a3daafe3b4186f6b6457e061304960405190565b8080611f10565b9035907fffffffffffffffffffffffffffffffffffffffffffffffffffffffffffffffa13682900301821215610200570190565b90821015612a235760206102289202810190613050565b7fffffffffffffffffffffffffffffffffffffffffffffffffffffffffffffffff81146126a75760010190565b919081936130d4613122565b946130df60006109bb565b818110156131135780611a206130f961310e938888613084565b611e4a60079a6131088161309b565b9b6109c8565b6130df565b5092509350506102129161314b565b6102287f2569078dfb4b0305704d3008e7403993ae9601b85f7ae5e742de3de8f8011c40610f1b565b61021291613157611c16565b916136dd565b905051906102128261051f565b90602082820312610200576102289161315d565b73ffffffffffffffffffffffffffffffffffffffff91821681529116602082015260408101919091526080606082018190526102289291019061048d565b610d8d610d876102289263ffffffff1690565b3d156131e9576131de3d611bfa565b903d6000602084013e565b606090565b90939291602090613203611efb600097611049565b63150b7a029360003361323461321860405190565b988996879586946132298c60e01b90565b86526004860161317e565b03925af160009281613287575b50613274575050600161325057565b6132586131cf565b8051613267610fbf60006109bb565b14611f5957805190602001fd5b610e2d91929350610d8d610e07916131bc565b6132aa91935060203d6020116132b1575b6132a281836103d9565b81019061316a565b9138613241565b503d613298565b90602060a06040510180604052039160008352600a60018492945b03938181066030018553049283156132ef576001600a916132d3565b809350602091039203918252565b6133076003611bfa565b7f5649500000000000000000000000000000000000000000000000000000000000602082015290565b6102286132fd565b6133426008611bfa565b7f5354414e44415244000000000000000000000000000000000000000000000000602082015290565b610228613338565b61337d6008611bfa565b7f5354414e44494e47000000000000000000000000000000000000000000000000602082015290565b610228613373565b6133b86000610269565b6133c182610269565b1461340f576133d06001610269565b6133d982610269565b14613406576133f16133eb6002610269565b91610269565b146133fe57610228611c16565b6102286133a6565b5061022861336b565b50610228613330565b6102287ff0c57e16840df040f15088dc2f81fe391c3923bec73e23a9662efc9c229c6a006109bb565b610228613418565b610212919061347c61296560007fee151c8401928dc223602bb187aff91b9a56c7cae5476ef1b3287b085a16c85f61295f565b61358d565b9061348a815190565b9067ffffffffffffffff8211610419576134a8826115b285546102f2565b602090601f8311600114613500576110969291600091836134f55750507fffffffffffffffffffffffffffffffffffffffffffffffffffffffffffffffff600883021c1916906002021790565b0151905038806115d4565b601f1983169161351585600052602060002090565b9260005b81811061356b575091600293918560019694106135395750505002019055565b01517fffffffffffffffffffffffffffffffffffffffffffffffffffffffffffffffff6008601f8516021c1916611679565b91936020600181928787015181550195019201613519565b9061021291613481565b6135e5906135d46000936135cb6135c17f2569078dfb4b0305704d3008e7403993ae9601b85f7ae5e742de3de8f8011c4090565b9360028501613583565b60038301613583565b6135dc61287b565b9283910161188b565b613614610fbf7fffffffffffffffffffffffffffffffffffffffffffffffffffffffffffffffff9290565b9290565b1061361b57565b7ffed8210f00000000000000000000000000000000000000000000000000000000612782565b9061021291613449565b61021261296560007fee151c8401928dc223602bb187aff91b9a56c7cae5476ef1b3287b085a16c85f61295f565b61021261364b565b61368c610e9c6137c2565b61369257565b7fd7e6bcf8000000000000000000000000000000000000000000000000000000006000908152600490fd5b610212906125b8613681565b610212906136bd565b505050610228600090565b6136e782826137df565b6000813b6136f7610fbf836109bb565b036137025750505050565b909192938161372e7f2569078dfb4b0305704d3008e7403993ae9601b85f7ae5e742de3de8f8011c4090565b019361374261373c86610f1b565b91820390565b9460015b15613794575b83613769610e9c8961375d88611c64565b9989600182019b6131ee565b15613746577fd1a57ed600000000000000000000000000000000000000000000000000000000612782565b81861061374c57610fbf9296506137b2939550613610919450610f1b565b036137bf57808080611f39565b80fd5b61022860006137cf612885565b01610fea565b61022860406109bb565b9091907f2569078dfb4b0305704d3008e7403993ae9601b85f7ae5e742de3de8f8011c409061380d82610f1b565b9160009161381a836109bb565b86146139bb5780866138846138776138386138ae9a60011460e11b90565b61385561384489611c64565b61384d8a6109bb565b978891612d19565b178473ffffffffffffffffffffffffffffffffffffffff16904260a01b171790565b611a7188600488016109c8565b6138c46118e06001936118fc6138b461389b6137d5565b6138a560016109bb565b9d8e9182612d03565b17860290565b611a09612e1a8460058c01611859565b6138cc61182f565b16928314613995576138e19086019597860390565b61390a7fffffffffffffffffffffffffffffffffffffffffffffffffffffffffffffffff610fbf565b1161396f576001815b613927575b5050506102129394500161188b565b1561395d575b83908783867fddf252ad1be2c89b69c2b068fc378daa952ba7f163c4a11628f55a4df523b3ef8180a49081613913565b956001019584870361392d5780613918565b7f81647e3a00000000000000000000000000000000000000000000000000000000612782565b7f2e07630000000000000000000000000000000000000000000000000000000000612782565b7fb562e8dd0000000000000000000000000000000000000000000000000000000061278256fea2646970667358221220ee56c0e5594f3362802566b2eaf10c5c62760322db14c5f6602b32369ee76b9d64736f6c634300081e0033",
  "linkReferences": {},
  "deployedLinkReferences": {}
}