{
  "_format": "hh-sol-artifact-1",
  "contractName": "TicketLaunchpad",
  "sourceName": "contracts/markets/TicketLaunchpad.sol",
  "abi": [
    {
      "inputs": [],
      "stateMutability": "nonpayable",
      "type": "constructor"
    },
    {
      "inputs": [],
      "name": "ECDSAInvalidSignature",
      "type": "error"
    },
    {
      "inputs": [
        {
          "internalType": "uint256",
          "name": "length",
          "type": "uint256"
        }
      ],
      "name": "ECDSAInvalidSignatureLength",
      "type": "error"
    },
    {
      "inputs": [
        {
          "internalType": "bytes32",
          "name": "s",
          "type": "bytes32"
        }
      ],
      "name": "ECDSAInvalidSignatureS",
      "type": "error"
    },
    {
      "inputs": [],
      "name": "ExceedsMaxSupply",
      "type": "error"
    },
    {
      "inputs": [],
      "name": "InsufficientAmount",
      "type": "error"
    },
    {
      "inputs": [],
      "name": "InvalidInitialization",
      "type": "error"
    },
    {
      "inputs": [],
      "name": "InvalidNonce",
      "type": "error"
    },
    {
      "inputs": [],
      "name": "InvalidSignature",
      "type": "error"
    },
    {
      "inputs": [],
      "name": "LaunchpadMismatch",
      "type": "error"
    },
    {
      "inputs": [],
      "name": "LengthMismatch",
      "type": "error"
    },
    {
      "inputs": [],
      "name": "NotInitializing",
      "type": "error"
    },
    {
      "inputs": [
        {
          "internalType": "address",
          "name": "owner",
          "type": "address"
        }
      ],
      "name": "OwnableInvalidOwner",
      "type": "error"
    },
    {
      "inputs": [
        {
          "internalType": "address",
          "name": "account",
          "type": "address"
        }
      ],
      "name": "OwnableUnauthorizedAccount",
      "type": "error"
    },
    {
      "inputs": [],
      "name": "ReentrancyGuardReentrantCall",
      "type": "error"
    },
    {
      "inputs": [],
      "name": "SeatAlreadyClaimed",
      "type": "error"
    },
    {
      "inputs": [],
      "name": "SignatureExpired",
      "type": "error"
    },
    {
      "inputs": [],
      "name": "TransactionFailed",
      "type": "error"
    },
    {
      "inputs": [],
      "name": "UnacceptablePayment",
      "type": "error"
    },
    {
      "inputs": [],
      "name": "ZeroAddressNotAllowed",
      "type": "error"
    },
    {
      "anonymous": false,
      "inputs": [
        {
          "indexed": false,
          "internalType": "uint64",
          "name": "version",
          "type": "uint64"
        }
      ],
      "name": "Initialized",
      "type": "event"
    },
    {
      "anonymous": false,
      "inputs": [
        {
          "indexed": true,
          "internalType": "address",
          "name": "previousOwner",
          "type": "address"
        },
        {
          "indexed": true,
          "internalType": "address",
          "name": "newOwner",
          "type": "address"
        }
      ],
      "name": "OwnershipTransferred",
      "type": "event"
    },
    {
      "inputs": [
        {
          "internalType": "address",
          "name": "to",
          "type": "address"
        },
        {
          "components": [
            {
              "internalType": "string",
              "name": "section",
              "type": "string"
            },
            {
              "internalType": "string",
              "name": "seatNumber",
              "type": "string"
            },
            {
              "internalType": "enum Tier",
              "name": "tier",
              "type": "uint8"
            }
          ],
          "internalType": "struct Seat[]",
          "name": "seats",
          "type": "tuple[]"
        }
      ],
      "name": "adminMint",
      "outputs": [],
      "stateMutability": "nonpayable",
      "type": "function"
    },
    {
      "inputs": [
        {
          "internalType": "string",
          "name": "seatNumber",
          "type": "string"
        }
      ],
      "name": "claimedSeatNumbers",
      "outputs": [
        {
          "internalType": "bool",
          "name": "used",
          "type": "bool"
        }
      ],
      "stateMutability": "view",
      "type": "function"
    },
    {
      "inputs": [],
      "name": "config",
      "outputs": [
        {
          "internalType": "contract IConfig",
          "name": "",
          "type": "address"
        }
      ],
      "stateMutability": "view",
      "type": "function"
    },
    {
      "inputs": [],
      "name": "ethUsdPriceFeed",
      "outputs": [
        {
          "internalType": "address",
          "name": "",
          "type": "address"
        }
      ],
      "stateMutability": "view",
      "type": "function"
    },
    {
      "inputs": [
        {
          "internalType": "enum Tier",
          "name": "tier",
          "type": "uint8"
        }
      ],
      "name": "getPriceInETH",
      "outputs": [
        {
          "internalType": "uint256",
          "name": "",
          "type": "uint256"
        }
      ],
      "stateMutability": "view",
      "type": "function"
    },
    {
      "inputs": [
        {
          "internalType": "enum Tier",
          "name": "tier",
          "type": "uint8"
        },
        {
          "internalType": "address",
          "name": "paymentToken",
          "type": "address"
        }
      ],
      "name": "getPriceInToken",
      "outputs": [
        {
          "internalType": "uint256",
          "name": "",
          "type": "uint256"
        }
      ],
      "stateMutability": "view",
      "type": "function"
    },
    {
      "inputs": [
        {
          "internalType": "address",
          "name": "owner",
          "type": "address"
        },
        {
          "internalType": "address",
          "name": "ethUsdPriceFeed_",
          "type": "address"
        },
        {
          "internalType": "address",
          "name": "config_",
          "type": "address"
        },
        {
          "internalType": "address",
          "name": "ticket_",
          "type": "address"
        },
        {
          "internalType": "address",
          "name": "authorizedSigner_",
          "type": "address"
        },
        {
          "internalType": "enum Tier[]",
          "name": "tierIds",
          "type": "uint8[]"
        },
        {
          "components": [
            {
              "internalType": "uint256",
              "name": "priceUSD",
              "type": "uint256"
            },
            {
              "internalType": "uint256",
              "name": "maxSupply",
              "type": "uint256"
            },
            {
              "internalType": "uint256",
              "name": "sold",
              "type": "uint256"
            },
            {
              "internalType": "bool",
              "name": "hasSeatNumbers",
              "type": "bool"
            }
          ],
          "internalType": "struct TierInfo[]",
          "name": "tierInfoList",
          "type": "tuple[]"
        },
        {
          "internalType": "address[]",
          "name": "paymentTokens",
          "type": "address[]"
        },
        {
          "internalType": "address[]",
          "name": "priceFeeds",
          "type": "address[]"
        }
      ],
      "name": "initialize",
      "outputs": [],
      "stateMutability": "nonpayable",
      "type": "function"
    },
    {
      "inputs": [
        {
          "internalType": "address",
          "name": "user",
          "type": "address"
        }
      ],
      "name": "nonces",
      "outputs": [
        {
          "internalType": "uint256",
          "name": "nonce",
          "type": "uint256"
        }
      ],
      "stateMutability": "view",
      "type": "function"
    },
    {
      "inputs": [],
      "name": "owner",
      "outputs": [
        {
          "internalType": "address",
          "name": "",
          "type": "address"
        }
      ],
      "stateMutability": "view",
      "type": "function"
    },
    {
      "inputs": [
        {
          "components": [
            {
              "internalType": "address",
              "name": "launchpad",
              "type": "address"
            },
            {
              "internalType": "address",
              "name": "to",
              "type": "address"
            },
            {
              "components": [
                {
                  "internalType": "string",
                  "name": "section",
                  "type": "string"
                },
                {
                  "internalType": "string",
                  "name": "seatNumber",
                  "type": "string"
                },
                {
                  "internalType": "enum Tier",
                  "name": "tier",
                  "type": "uint8"
                }
              ],
              "internalType": "struct Seat[]",
              "name": "seats",
              "type": "tuple[]"
            },
            {
              "internalType": "uint256",
              "name": "nonce",
              "type": "uint256"
            },
            {
              "internalType": "uint64",
              "name": "deadline",
              "type": "uint64"
            },
            {
              "internalType": "bytes",
              "name": "signature",
              "type": "bytes"
            }
          ],
          "internalType": "struct MintBatchSignatureParams",
          "name": "params",
          "type": "tuple"
        }
      ],
      "name": "payBatchWithETH",
      "outputs": [],
      "stateMutability": "payable",
      "type": "function"
    },
    {
      "inputs": [
        {
          "internalType": "address",
          "name": "paymentToken",
          "type": "address"
        },
        {
          "components": [
            {
              "internalType": "address",
              "name": "launchpad",
              "type": "address"
            },
            {
              "internalType": "address",
              "name": "to",
              "type": "address"
            },
            {
              "components": [
                {
                  "internalType": "string",
                  "name": "section",
                  "type": "string"
                },
                {
                  "internalType": "string",
                  "name": "seatNumber",
                  "type": "string"
                },
                {
                  "internalType": "enum Tier",
                  "name": "tier",
                  "type": "uint8"
                }
              ],
              "internalType": "struct Seat[]",
              "name": "seats",
              "type": "tuple[]"
            },
            {
              "internalType": "uint256",
              "name": "nonce",
              "type": "uint256"
            },
            {
              "internalType": "uint64",
              "name": "deadline",
              "type": "uint64"
            },
            {
              "internalType": "bytes",
              "name": "signature",
              "type": "bytes"
            }
          ],
          "internalType": "struct MintBatchSignatureParams",
          "name": "params",
          "type": "tuple"
        }
      ],
      "name": "payBatchWithToken",
      "outputs": [],
      "stateMutability": "nonpayable",
      "type": "function"
    },
    {
      "inputs": [
        {
          "components": [
            {
              "internalType": "address",
              "name": "launchpad",
              "type": "address"
            },
            {
              "internalType": "address",
              "name": "to",
              "type": "address"
            },
            {
              "components": [
                {
                  "internalType": "string",
                  "name": "section",
                  "type": "string"
                },
                {
                  "internalType": "string",
                  "name": "seatNumber",
                  "type": "string"
                },
                {
                  "internalType": "enum Tier",
                  "name": "tier",
                  "type": "uint8"
                }
              ],
              "internalType": "struct Seat",
              "name": "seat",
              "type": "tuple"
            },
            {
              "internalType": "uint256",
              "name": "nonce",
              "type": "uint256"
            },
            {
              "internalType": "uint64",
              "name": "deadline",
              "type": "uint64"
            },
            {
              "internalType": "bytes",
              "name": "signature",
              "type": "bytes"
            }
          ],
          "internalType": "struct MintSignatureParams",
          "name": "params",
          "type": "tuple"
        }
      ],
      "name": "payWithETH",
      "outputs": [],
      "stateMutability": "payable",
      "type": "function"
    },
    {
      "inputs": [
        {
          "internalType": "address",
          "name": "paymentToken",
          "type": "address"
        },
        {
          "components": [
            {
              "internalType": "address",
              "name": "launchpad",
              "type": "address"
            },
            {
              "internalType": "address",
              "name": "to",
              "type": "address"
            },
            {
              "components": [
                {
                  "internalType": "string",
                  "name": "section",
                  "type": "string"
                },
                {
                  "internalType": "string",
                  "name": "seatNumber",
                  "type": "string"
                },
                {
                  "internalType": "enum Tier",
                  "name": "tier",
                  "type": "uint8"
                }
              ],
              "internalType": "struct Seat",
              "name": "seat",
              "type": "tuple"
            },
            {
              "internalType": "uint256",
              "name": "nonce",
              "type": "uint256"
            },
            {
              "internalType": "uint64",
              "name": "deadline",
              "type": "uint64"
            },
            {
              "internalType": "bytes",
              "name": "signature",
              "type": "bytes"
            }
          ],
          "internalType": "struct MintSignatureParams",
          "name": "params",
          "type": "tuple"
        }
      ],
      "name": "payWithToken",
      "outputs": [],
      "stateMutability": "nonpayable",
      "type": "function"
    },
    {
      "inputs": [
        {
          "internalType": "address",
          "name": "paymentToken",
          "type": "address"
        }
      ],
      "name": "paymentTokenPriceFeeds",
      "outputs": [
        {
          "internalType": "address",
          "name": "priceFeed",
          "type": "address"
        }
      ],
      "stateMutability": "view",
      "type": "function"
    },
    {
      "inputs": [],
      "name": "renounceOwnership",
      "outputs": [],
      "stateMutability": "nonpayable",
      "type": "function"
    },
    {
      "inputs": [
        {
          "internalType": "address[]",
          "name": "paymentTokens",
          "type": "address[]"
        },
        {
          "internalType": "address[]",
          "name": "priceFeeds",
          "type": "address[]"
        }
      ],
      "name": "setPaymentTokens",
      "outputs": [],
      "stateMutability": "nonpayable",
      "type": "function"
    },
    {
      "inputs": [
        {
          "internalType": "enum Tier[]",
          "name": "tierIds",
          "type": "uint8[]"
        },
        {
          "internalType": "uint256[]",
          "name": "maxSupplies",
          "type": "uint256[]"
        }
      ],
      "name": "setTierMaxSupply",
      "outputs": [],
      "stateMutability": "nonpayable",
      "type": "function"
    },
    {
      "inputs": [
        {
          "internalType": "enum Tier[]",
          "name": "tierIds",
          "type": "uint8[]"
        },
        {
          "internalType": "uint256[]",
          "name": "tierPricesUSD",
          "type": "uint256[]"
        }
      ],
      "name": "setTierPrices",
      "outputs": [],
      "stateMutability": "nonpayable",
      "type": "function"
    },
    {
      "inputs": [],
      "name": "ticket",
      "outputs": [
        {
          "internalType": "contract ITicket",
          "name": "",
          "type": "address"
        }
      ],
      "stateMutability": "view",
      "type": "function"
    },
    {
      "inputs": [
        {
          "internalType": "enum Tier",
          "name": "tier",
          "type": "uint8"
        }
      ],
      "name": "tierInfo",
      "outputs": [
        {
          "internalType": "uint256",
          "name": "priceUSD",
          "type": "uint256"
        },
        {
          "internalType": "uint256",
          "name": "maxSupply",
          "type": "uint256"
        },
        {
          "internalType": "uint256",
          "name": "sold",
          "type": "uint256"
        },
        {
          "internalType": "bool",
          "name": "hasSeatNumbers",
          "type": "bool"
        }
      ],
      "stateMutability": "view",
      "type": "function"
    },
    {
      "inputs": [
        {
          "internalType": "address",
          "name": "newOwner",
          "type": "address"
        }
      ],
      "name": "transferOwnership",
      "outputs": [],
      "stateMutability": "nonpayable",
      "type": "function"
    },
    {
      "inputs": [
        {
          "internalType": "address",
          "name": "to",
          "type": "address"
        }
      ],
      "name": "withdrawETH",
      "outputs": [],
      "stateMutability": "nonpayable",
      "type": "function"
    },
    {
      "inputs": [
        {
          "internalType": "address",
          "name": "to",
          "type": "address"
        },
        {
          "internalType": "address",
          "name": "token",
          "type": "address"
        }
      ],
      "name": "withdrawToken",
      "outputs": [],
      "stateMutability": "nonpayable",
      "type": "function"
    }
  ],
  "bytecode": "0x60806040523461002257610011610027565b604051613816610189823961381690f35b600080fd5b61002f6100aa565b565b61003e9060401c60ff1690565b90565b61003e9054610031565b61003e905b6001600160401b031690565b61003e905461004b565b61003e90610050906001600160401b031682565b9061008a61003e6100a692610066565b82546001600160401b0319166001600160401b03919091161790565b9055565b60006100b4610142565b016100be81610041565b610130576100cb8161005c565b6001600160401b03919082908116036100e2575050565b816101117fc7f505b2f371ae2175ee4913f4499e1f2633a7b5936321eed1cdaeb6115181d29361012b9361007a565b604051918291826001600160401b03909116815260200190565b0390a1565b63f92ee8a960e01b6000908152600490fd5b61003e610180565b61003e61003e61003e9290565b61003e7ff0c57e16840df040f15088dc2f81fe391c3923bec73e23a9662efc9c229c6a0061014a565b61003e61015756fe6080604052600436101561001257600080fd5b60003560e01c8063111279ad1461018257806335766f4b1461017d5780633aeac4e1146101785780633e9ee0071461017357806342f6fb291461016e5780634bc6d1f914610169578063690d8320146101645780636cc25db71461015f578063715018a61461015a57806371e1ba121461015557806379502c55146101505780637ecebe001461014b578063858855b4146101465780638da5cb5b1461014157806390e8a1631461013c57806396277ea014610137578063995772fa14610132578063a630da8f1461012d578063b47527ab14610128578063c90b3ebe14610123578063cb0035cb1461011e578063e9a57d45146101195763f2fde38b0361019157610bf7565b610be4565b610bc9565b610b9b565b610b76565b610a59565b61099a565b610821565b6107f1565b61064c565b610639565b6105f8565b6105a8565b610583565b61056b565b610544565b6104d3565b6104a4565b610462565b610406565b6103a4565b610357565b610214565b6003111561019157565b600080fd5b905035906101a382610187565b565b73ffffffffffffffffffffffffffffffffffffffff1690565b90565b73ffffffffffffffffffffffffffffffffffffffff81165b0361019157565b905035906101a3826101c1565b9190604083820312610191576101be9060206102098286610196565b94016101e0565b9052565b346101915761024061023061022a3660046101ed565b90610cf9565b6040519182918290815260200190565b0390f35b90602082820312610191576101be91610196565b7f4e487b7100000000000000000000000000000000000000000000000000000000600052602160045260246000fd5b6003111561029157565b610258565b906101a382610287565b6101be90610296565b906102b3906102a0565b600052602052604060002090565b6101be9081565b6101be90546102c1565b6101be905b60ff1690565b6101be90546102d2565b6102f29060056102a9565b906102fc826102c8565b91610309600182016102c8565b916101be600361031b600285016102c8565b93016102dd565b61034f6101a394610348606094989795610341608086019a6000870152565b6020850152565b6040830152565b019015159052565b346101915761024061037261036d366004610244565b6102e7565b9061037f94929460405190565b94859485610322565b9190604083820312610191576101be90602061020982866101e0565b34610191576103bd6103b7366004610388565b90610f9a565b604051005b908160c09103126101915790565b919091604081840312610191576103e783826101e0565b92602082013567ffffffffffffffff8111610191576101be92016103c2565b34610191576103bd6104193660046103d0565b90611061565b600091031261019157565b6101be916008021c73ffffffffffffffffffffffffffffffffffffffff1690565b906101be915461042a565b6101be6000600361044b565b346101915761047236600461041f565b61024061047d610456565b6040519182918273ffffffffffffffffffffffffffffffffffffffff909116815260200190565b34610191576102406102306104ba366004610244565b61134a565b90602082820312610191576101be916101e0565b34610191576103bd6104e63660046104bf565b61141b565b6101be60008061044b565b6101a56101be6101be9273ffffffffffffffffffffffffffffffffffffffff1690565b6101be906104f6565b6101be90610519565b61021090610522565b6020810192916101a3919061052b565b346101915761055436600461041f565b61024061055f6104eb565b60405191829182610534565b346101915761057b36600461041f565b6103bd611441565b34610191576103bd6105963660046103d0565b90611487565b6101be6000600161044b565b34610191576105b836600461041f565b61024061055f61059c565b906102b390610522565b6101be916008021c81565b906101be91546105cd565b60006105f36101be9260046105c3565b6105d8565b346101915761024061023061060e3660046104bf565b6105e3565b9060208282031261019157813567ffffffffffffffff8111610191576101be92016103c2565b6103bd610647366004610613565b611919565b346101915761065c36600461041f565b61024061047d611922565b7f4e487b7100000000000000000000000000000000000000000000000000000000600052604160045260246000fd5b90601f017fffffffffffffffffffffffffffffffffffffffffffffffffffffffffffffffe016810190811067ffffffffffffffff8211176106d657604052565b610667565b906101a36106e860405190565b9283610696565b67ffffffffffffffff81116106d65760208091020190565b9092919261071c610717826106ef565b6106db565b938185526020808601920283019281841161019157915b8383106107405750505050565b6020809161074e8486610196565b815201920191610733565b9080601f83011215610191578160206101be93359101610707565b909182601f830112156101915781359167ffffffffffffffff831161019157602001926020830284011161019157565b91909160408184031261019157803567ffffffffffffffff811161019157836107ce918301610759565b92602082013567ffffffffffffffff8111610191576107ed9201610774565b9091565b34610191576103bd6108043660046107a4565b91611aba565b919091604081840312610191576107ce83826101e0565b34610191576103bd61083436600461080a565b91611d3e565b67ffffffffffffffff81116106d657602090601f017fffffffffffffffffffffffffffffffffffffffffffffffffffffffffffffffe0160190565b0190565b90826000939282370152565b909291926108956107178261083a565b9381855281830111610191576101a3916020850190610879565b9080601f83011215610191578160206101be93359101610885565b9060208282031261019157813567ffffffffffffffff8111610191576101be92016108af565b60005b8381106109035750506000910152565b81810151838201526020016108f3565b61087561092b92602092610925815190565b94859290565b938491016108f0565b6109446108759160209493610913565b918252565b61095e61095560405190565b92839283610934565b03902090565b6101be91610949565b6101be916008021c6102d7565b906101be915461096d565b60006109956101be926006610964565b61097a565b34610191576102406109b56109b03660046108ca565b610985565b60405191829182901515815260200190565b909291926109d7610717826106ef565b938185526020808601920283019281841161019157915b8383106109fb5750505050565b60208091610a0984866101e0565b8152019201916109ee565b9080601f83011215610191578160206101be933591016109c7565b91909160408184031261019157803567ffffffffffffffff811161019157836107ce918301610a14565b34610191576103bd610a6c366004610a2f565b91611d62565b909182601f830112156101915781359167ffffffffffffffff831161019157602001926080830284011161019157565b91906101208382031261019157610ab981846101e0565b92610ac782602083016101e0565b92610ad583604084016101e0565b92610ae381606085016101e0565b92610af182608083016101e0565b9260a082013567ffffffffffffffff81116101915783610b12918401610759565b9260c083013567ffffffffffffffff81116101915781610b33918501610a72565b92909360e081013567ffffffffffffffff81116101915783610b56918301610a14565b9261010082013567ffffffffffffffff8111610191576107ed9201610774565b34610191576103bd610b89366004610aa2565b9998909897919796929695939561210d565b34610191576103bd610bae3660046107a4565b91612180565b6000610bc46101be9260076105c3565b61044b565b346101915761024061047d610bdf3660046104bf565b610bb4565b6103bd610bf2366004610613565b612305565b34610191576103bd610c0a3660046104bf565b6123a6565b60ff81166101d9565b905051906101a382610c0f565b90602082820312610191576101be91610c18565b6040513d6000823e3d90fd5b6101be906101a5565b6101be9054610c45565b7f4e487b7100000000000000000000000000000000000000000000000000000000600052601160045260246000fd5b60ff16604d8111610c9857600a0a90565b610c58565b81810292918115918404141715610c9857565b7f4e487b7100000000000000000000000000000000000000000000000000000000600052601260045260246000fd5b90610ce9565b9190565b908115610cf4570490565b610cb0565b610d0a610d0583610522565b610522565b6020610d1560405190565b7f313ce56700000000000000000000000000000000000000000000000000000000815291829060049082905afa8015610dea576101be93610d9992600092610d9e575b50610d8d6000610d87610d7f610d7a610d75610d939660076105c3565b610c4e565b61241a565b9660056102a9565b016102c8565b91610c87565b90610c9d565b610cdf565b610d939192506000610d87610d7f610d7a610d75610dd6610d8d9660203d602011610de3575b610dce8183610696565b810190610c25565b9796505050505050610d58565b503d610dc4565b610c39565b906101a391610dfc6124ab565b610e7f565b806101d9565b905051906101a382610e01565b90602082820312610191576101be91610e07565b8015156101d9565b905051906101a382610e28565b90602082820312610191576101be91610e30565b73ffffffffffffffffffffffffffffffffffffffff90911681526040810192916101a39160200152565b0152565b90610e8f610d05610ee992610522565b6020610e9a30610522565b6040517f70a0823100000000000000000000000000000000000000000000000000000000815273ffffffffffffffffffffffffffffffffffffffff909116600482015292839081906024820190565b0381845afa908115610dea57610f2f93602093600093610f6b575b506000610f1060405190565b809681958294610f2463a9059cbb60e01b90565b845260048401610e51565b03925af18015610dea57610f405750565b610f619060203d602011610f64575b610f598183610696565b810190610e3d565b50565b503d610f4f565b610f8c919350843d8611610f93575b610f848183610696565b810190610e14565b9138610f04565b503d610f7a565b906101a391610def565b6101a56101be6101be9290565b6101be90610fa4565b9035907fffffffffffffffffffffffffffffffffffffffffffffffffffffffffffffffe13682900301821215610191570180359067ffffffffffffffff82116101915760200191602082023603831361019157565b905051906101a3826101c1565b90602082820312610191576101be9161100f565b73ffffffffffffffffffffffffffffffffffffffff9182168152911660208201526060810192916101a39160400152565b90611070610d758360076105c3565b916000926110806101a585610fb1565b73ffffffffffffffffffffffffffffffffffffffff82161461130f57816110b6916110ae6040860186610fba565b929091612532565b906110c4610d056001610c4e565b60206110cf60405190565b7ff2d6382600000000000000000000000000000000000000000000000000000000815291829060049082905afa908115610dea5761111991610d05916000916112f0575b50610522565b90602061112560405190565b7f99a5d7470000000000000000000000000000000000000000000000000000000081526004810185905292839060249082905afa918215610dea576000926112c2575b50602061117a610d056111b993610522565b9361118430610522565b60405193849283927f23b872dd0000000000000000000000000000000000000000000000000000000084523360048501611030565b038188875af18015610dea576112a5575b506111d8610d056001610c4e565b9160206111e460405190565b7f3b19e84a00000000000000000000000000000000000000000000000000000000815293849060049082905afa8015610dea5761123f95602094600092611276575b506040515b809781958294610f2463a9059cbb60e01b90565b03925af1918215610dea576101a392611259575b50612634565b6112719060203d602011610f6457610f598183610696565b611253565b611297919250853d871161129e575b61128f8183610696565b81019061101c565b9038611226565b503d611285565b6112bd9060203d602011610f6457610f598183610696565b6111ca565b6111b991925061117a610d056112e6602093843d8611610f9357610f848183610696565b9493505050611168565b611309915060203d60201161129e5761128f8183610696565b38611113565b7fbbcbb6f30000000000000000000000000000000000000000000000000000000084528380600481015b0390fd5b6101be6101be6101be9290565b6101be90610d9961136e6000610d87611366610d7a6003610c4e565b9460056102a9565b610d93670de0b6b3a764000061133d565b6101a39061138b6124ab565b6113bc565b906109446107178361083a565b3d156113b7576113ac3d611390565b903d6000602084013e565b606090565b6000806113ea926113cc30610522565b316113d660405190565b90818003925af16113e561139d565b501590565b6113f057565b7fbf961a28000000000000000000000000000000000000000000000000000000006000908152600490fd5b6101a39061137f565b61142c6124ab565b6101a36101a361143c6000610fb1565b612692565b6101a3611424565b9035907fffffffffffffffffffffffffffffffffffffffffffffffffffffffffffffffa13682900301821215610191570190565b356101be81610187565b90611496610d758360076105c3565b916000926114c36114a96101a586610fb1565b9173ffffffffffffffffffffffffffffffffffffffff1690565b146116a2576114e8816114e360406114dd81870187611449565b0161147d565b610cf9565b906114f6610d056001610c4e565b602061150160405190565b7ff2d6382600000000000000000000000000000000000000000000000000000000815291829060049082905afa908115610dea5761154a91610d05916000916112f05750610522565b90602061155660405190565b7f99a5d7470000000000000000000000000000000000000000000000000000000081526004810185905292839060249082905afa918215610dea57600092611674575b50602061117a610d056115ab93610522565b038188875af18015610dea57611657575b506115ca610d056001610c4e565b9160206115d660405190565b7f3b19e84a00000000000000000000000000000000000000000000000000000000815293849060049082905afa8015610dea5761162095602094600092611276575060405161122b565b03925af1918215610dea576101a39261163a575b50612816565b6116529060203d602011610f6457610f598183610696565b611634565b61166f9060203d602011610f6457610f598183610696565b6115bc565b6115ab91925061117a610d05611698602093843d8611610f9357610f848183610696565b9493505050611599565b7fbbcbb6f3000000000000000000000000000000000000000000000000000000008352600483fd5b6116db906116d66129de565b6116f0565b6101a3612a55565b91908203918211610c9857565b6117106117006040830183610fba565b9061170b6003610c4e565b612a8a565b8034106118ee5780341161189d575b61172c610d056001610c4e565b602061173760405190565b7ff2d6382600000000000000000000000000000000000000000000000000000000815291829060049082905afa918215610dea57611785610d056117bf946020946000916118865750610522565b604051938492839182917f99a5d7470000000000000000000000000000000000000000000000000000000083526004830190815260200190565b03915afa908115610dea57600091611867575b506117e0610d056001610c4e565b9060206117ec60405190565b7f3b19e84a00000000000000000000000000000000000000000000000000000000815292839060049082905afa918215610dea576118399260009283928392611846575b506040516113d6565b6113f0576101a390612634565b61186091925060203d60201161129e5761128f8183610696565b9038611830565b611880915060203d602011610f9357610f848183610696565b386117d2565b6113099150853d871161129e5761128f8183610696565b6118be6000806118ad84346116e3565b604051600091335af16113e561139d565b1561171f577fbf961a28000000000000000000000000000000000000000000000000000000006000908152600490fd5b7f5945ea56000000000000000000000000000000000000000000000000000000006000908152600490fd5b6101a3906116ca565b6101be7f9016d09d72d40fdae2fd8ceac6b6234c7706214fd39c1cd1e609a0528c199300610c4e565b906101a392916119596124ab565b611a19565b7f4e487b7100000000000000000000000000000000000000000000000000000000600052603260045260246000fd5b919081101561199d576020020190565b61195e565b356101be81610e01565b906119b5825190565b81101561199d576020809102010190565b6101be9051610296565b907fffffffffffffffffffffffffffffffffffffffffffffffffffffffffffffffff905b9181191691161790565b90611a0e6101be611a159261133d565b82546119d0565b9055565b929190611a24845190565b92828403611a8f5760005b845b811015611a8757611a8081611a7a611a55611a50611a3195898961198d565b6119a2565b6000611a746005611a6e611a69878f6119ac565b6119c6565b906102a9565b016119fe565b60010190565b9050611a2f565b509350505050565b7fff633a38000000000000000000000000000000000000000000000000000000006000908152600490fd5b906101a3929161194b565b906101a39291611ad36124ab565b611cb1565b90357fffffffffffffffffffffffffffffffffffffffffffffffffffffffffffffffe1368390030181121561019157016020813591019167ffffffffffffffff82116101915736829003831361019157565b9190611b4881611b41816108759560209181520190565b8095610879565b601f017fffffffffffffffffffffffffffffffffffffffffffffffffffffffffffffffe01690565b506101be906020810190610196565b610210906102a0565b906101be906040611bd6611bcc611bb160608501611ba68880611ad8565b878303885290611b2a565b611bbe6020880188611ad8565b908683036020880152611b2a565b9482810190611b70565b910190611b7f565b906101be91611b88565b90357fffffffffffffffffffffffffffffffffffffffffffffffffffffffffffffffa13683900301811215610191570190565b818352916020019081611c316020830284019490565b92836000925b848410611c475750505050505090565b9091929394956020611c73611c6c8385600195038852611c678b88611be8565b611bde565b9860200190565b940194019294939190611c37565b73ffffffffffffffffffffffffffffffffffffffff9190911681526040602082018190526101be93910191611c1b565b9091611cbd8184612af4565b611cca610d056000610c4e565b803b1561019157611d159360008094611ce260405190565b968795869485937f7bd0d60500000000000000000000000000000000000000000000000000000000855260048501611c81565b03925af18015610dea57611d265750565b6101a3906000611d368183610696565b81019061041f565b906101a39291611ac5565b906101a39291611d576124ab565b906101a39291612dd9565b906101a39291611d49565b6101be9060401c6102d7565b6101be9054611d6d565b6101be905b67ffffffffffffffff1690565b6101be9054611d83565b611d886101be6101be9290565b9067ffffffffffffffff906119f4565b611d886101be6101be9267ffffffffffffffff1690565b90611de36101be611a1592611dbc565b8254611dac565b9068ff00000000000000009060401b6119f4565b90611e0e6101be611a1592151590565b8254611dea565b61021090611d9f565b6020810192916101a39190611e15565b97949192611e5699969360009b989592611e60611e5a611e4c612ece565b9e8f019d8e611d79565b1590565b9c611d95565b611e6a6000611d9f565b67ffffffffffffffff8216149081611f8b575b611e98611e8a6001611d9f565b9167ffffffffffffffff1690565b149081611f66575b155b9081611f5d575b50611f3257611ed29a8d8d611ec7611ec16001611d9f565b83611dd3565b611f20575b50611fc6565b611ed95750565b611ee590600090611dfe565b7fc7f505b2f371ae2175ee4913f4499e1f2633a7b5936321eed1cdaeb6115181d2611f0f60405190565b80611f1b600182611e1e565b0390a1565b611f2c90600190611dfe565b8d611ecc565b7ff92ee8a9000000000000000000000000000000000000000000000000000000006000908152600490fd5b15905038611ea9565b9050611ea2611f7430610522565b3b611f82610ce5600061133d565b14919050611ea0565b8d9150611e7d565b9073ffffffffffffffffffffffffffffffffffffffff906119f4565b90611fbf6101be611a1592610522565b8254611f93565b611fdb909b9a9998979695949392919b612eeb565b611fe3612f07565b60009a611fef8c610fb1565b73ffffffffffffffffffffffffffffffffffffffff811673ffffffffffffffffffffffffffffffffffffffff8516149081156120d6575b81156120a0575b50612078576101a39a9b61206161206e94610d0561205a6120739b9a999896610d05612067976003611faf565b6001611faf565b90611faf565b6002611faf565b61300d565b612dd9565b7f8579befe000000000000000000000000000000000000000000000000000000008c5260048cfd5b73ffffffffffffffffffffffffffffffffffffffff16905073ffffffffffffffffffffffffffffffffffffffff8516143861202d565b905073ffffffffffffffffffffffffffffffffffffffff811673ffffffffffffffffffffffffffffffffffffffff84161490612026565b906101a39a999897969594939291611e2e565b906101a3929161212e6124ab565b929190612139845190565b92828403611a8f5760005b845b811015611a875761217981611a7a612165611a5061214695898961198d565b6001611a746005611a6e611a69878f6119ac565b9050612144565b906101a39291612120565b6116db906121976129de565b6121ab6104ba60406114dd81850185611449565b8034106118ee578034116122c5575b6121c7610d056001610c4e565b60206121d260405190565b7ff2d6382600000000000000000000000000000000000000000000000000000000815291829060049082905afa918215610dea57611785610d05612220946020946000916118865750610522565b03915afa908115610dea576000916122a6575b50612241610d056001610c4e565b90602061224d60405190565b7f3b19e84a00000000000000000000000000000000000000000000000000000000815292839060049082905afa918215610dea57612299926000928392839261184657506040516113d6565b6113f0576101a390612816565b6122bf915060203d602011610f9357610f848183610696565b38612233565b6122d56000806118ad84346116e3565b156121ba577fbf961a28000000000000000000000000000000000000000000000000000000006000908152600490fd5b6101a39061218b565b6101a39061231a6124ab565b600061232581610fb1565b73ffffffffffffffffffffffffffffffffffffffff811673ffffffffffffffffffffffffffffffffffffffff8416146123635750506101a390612692565b7f1e4fbdf700000000000000000000000000000000000000000000000000000000825273ffffffffffffffffffffffffffffffffffffffff166004820152602490fd5b6101a39061230e565b69ffffffffffffffffffff81166101d9565b905051906101a3826123af565b919060a083820312610191576123e481846123c1565b926123f28260208301610e07565b926101be6124038460408501610e07565b9360806124138260608701610e07565b94016123c1565b610d0561242991611113600090565b60a061243460405190565b7ffeaf968c00000000000000000000000000000000000000000000000000000000815291829060049082905afa8015610dea576101be91600091612479575b5061133d565b61249b915060a03d60a0116124a4575b6124938183610696565b8101906123ce565b50505090612473565b503d612489565b6124b3611922565b33906124be826114a9565b036124c65750565b7f118cdaa700000000000000000000000000000000000000000000000000000000600090815273ffffffffffffffffffffffffffffffffffffffff9091166004526024036000fd5b9082101561199d5760206101be9202810190611449565b91908201809211610c9857565b909291600092839561254d610d056125478490565b97610522565b93602061255960405190565b7f313ce56700000000000000000000000000000000000000000000000000000000815295869060049082905afa948515610dea57600095612601575b5061259f9061241a565b94965b865b8810156125f7576125ef6125e86125a4926125e289610d996125d960008f8c611a6e60406114dd8f94610d879560059561250e565b610d938c610c87565b90612525565b9860010190565b9790506125a2565b9650945050505050565b6125a491955061262261259f9160203d602011610de357610dce8183610696565b959150612595565b356101be816101c1565b604081019061264c6126468383610fba565b90612af4565b6126558161315f565b612678612665610d056000610c4e565b926126726020840161262a565b92610fba565b9092803b1561019157611d159360008094611ce260405190565b6126d26126cc7f9016d09d72d40fdae2fd8ceac6b6234c7706214fd39c1cd1e609a0528c199300610d05846126c683610c4e565b92611faf565b91610522565b907f8be0079c531659141344cd1fd0a4f28419497f9722a3daafe3b4186f6b6457e06126fd60405190565b600090a3565b9035907fffffffffffffffffffffffffffffffffffffffffffffffffffffffffffffffe13682900301821215610191570180359067ffffffffffffffff8211610191576020019136829003831361019157565b90916108759083908093610879565b610944906020949361087593612756565b909161095e9061278560405190565b93849384612765565b90916101be92612776565b9060ff906119f4565b906127b26101be611a1592151590565b8254612799565b73ffffffffffffffffffffffffffffffffffffffff90911681526101be9160408201916020818403910152611b88565b7fffffffffffffffffffffffffffffffffffffffffffffffffffffffffffffffff8114610c985760010190565b6040810161282960406114dd8385611449565b6128406128368385611449565b6020810190612703565b93906005946128616128576002610d87878a6102a9565b6125e2600161133d565b612876610ce56101be6001610d87898c6102a9565b116129a957612890600361288a86896102a9565b016102dd565b612949575b50506128a081613282565b6128c36128b0610d056000610c4e565b936128bd6020840161262a565b92611449565b833b15610191576128fa93600092836128db60405190565b8097819582946128ef6382e2fc4760e01b90565b8452600484016127b9565b03925af1908115610dea576101a39360029361291b93612933575b506102a9565b0161292d612928826102c8565b6127e9565b906119fe565b612943906000611d368183610696565b38612915565b61295d6129588284600661278e565b6102dd565b61297e5761297260019161297793600661278e565b6127a2565b3880612895565b7f0bee2d28000000000000000000000000000000000000000000000000000000006000908152600490fd5b7fc30436e9000000000000000000000000000000000000000000000000000000006000908152600490fd5b6101be600261133d565b7f9b779b17422d0df92223018b32b4d1fa46e071723d6817e2486d003becc55f00612a08816102c8565b612a106129d4565b908114612a20576101a3916119fe565b7f3ee5aeb5000000000000000000000000000000000000000000000000000000006000908152600490fd5b6101be600161133d565b6101a37f9b779b17422d0df92223018b32b4d1fa46e071723d6817e2486d003becc55f006000612a83612a4b565b91016119fe565b91906000918294612aa1612a9b8390565b9561241a565b93955b855b871015612aeb57612ae3612adc612aa6926125e288610d9961136e6000610d878f611a6e60408f928f906114dd9160059561250e565b9760010190565b969050612aa4565b95509350505050565b916000908290612b038361133d565b845b811015611a8757612b1c60406114dd83868a61250e565b612b2a61283683868a61250e565b90600591612b3d6002610d8786866102a9565b91612b4d6001936125e28561133d565b612b61610ce56101be86610d878a8a6102a9565b11612c0057612b75600361288a87876102a9565b612b9a575b50505091611a7a600261291b612b9394612b05966102a9565b9050612b03565b6006612baa61295884848461278e565b612bd85794612b059694612bce611a7a9561297260029661291b96612b939b61278e565b9496509450612b7a565b7f0bee2d28000000000000000000000000000000000000000000000000000000008a5260048afd5b7fc30436e9000000000000000000000000000000000000000000000000000000008952600489fd5b805482101561199d57612c42600191600052602060002090565b91020190600090565b919060086119f4910291612c7e7fffffffffffffffffffffffffffffffffffffffffffffffffffffffffffffffff841b90565b921b90565b9190612c946101be611a159361133d565b908354612c4b565b6101a391600091612c83565b818110612cb3575050565b80612cc16000600193612c9c565b01612ca8565b919091828210612cd657505050565b6101a39291612ceb9091600052602060002090565b9182019101612ca8565b906801000000000000000081116106d65781612d126101a3935490565b90828155612cc7565b60006101a391612cf5565b7f4e487b7100000000000000000000000000000000000000000000000000000000600052600060045260246000fd5b90600003612d66576101a390612d1b565b612d26565b919060086119f4910291612c7e73ffffffffffffffffffffffffffffffffffffffff841b90565b9190612da36101be611a1593610522565b908354612d6b565b90815491680100000000000000008310156106d65782612dd39160016101a395018155612c28565b90612d92565b919092600893612de7855490565b93600092835b865b811015612e3557612e2e612def91611a7a612e0a6000610fb1565b612e298c612e23612e1d86600793612c28565b9061044b565b906105c3565b611faf565b9050612ded565b5090919395929450612e48600084612d55565b815194868603611a8f575b855b811015612ec557612ebe81611a7a612ea6612e29612eb6612eb1858e612eab8d612ea0612e868f9d612e559e6119ac565b5173ffffffffffffffffffffffffffffffffffffffff1690565b97889190565b612dab565b8d61198d565b61262a565b9160076105c3565b9050612e53565b50945050505050565b6101be613338565b6101a390612ee2613340565b6101a390613388565b6101a390612ed6565b612efc613340565b6101a36101a3613399565b6101a3612ef4565b919081101561199d576080020190565b905035906101a382610e01565b905035906101a382610e28565b919060808382031261019157612f8c906060612f5560806106db565b94612f608382612f1f565b8652612f6f8360208301612f1f565b6020870152612f818360408301612f1f565b604087015201612f2c565b6060830152565b6101be903690612f39565b6101be60806106db565b6003612ffc60606101a394612fc7612fc1600083015190565b866119fe565b612fde612fd5602083015190565b600187016119fe565b612ff5612fec604083015190565b600287016119fe565b0151151590565b91016127a2565b906101a391612fa8565b929190613018845190565b92828403611a8f5760005b845b811015611a87576130bf81611a7a613049613044613025958989612f0f565b612f93565b6130a8613054825190565b9161309f613098613066602084015190565b9261309361307960606000930151151590565b9461308c613085612f9e565b98848a0152565b6020880152565b61133d565b6040850152565b15156060830152565b6130ba6005611a6e611a69868e6119ac565b613003565b9050613023565b67ffffffffffffffff81166101d9565b356101be816130c6565b9161314f916101a39698979560809561313a6131479461311d60a089019560008a019073ffffffffffffffffffffffffffffffffffffffff169052565b73ffffffffffffffffffffffffffffffffffffffff166020880152565b8583036040870152611c1b565b966060830152565b019067ffffffffffffffff169052565b6101a39061316c8161262a565b6131786020830161262a565b91613185606082016119a2565b613191608083016130d6565b906131ea816131cc87876131c0876131ac60408b018b610fba565b6040519197919788966020880196876130e0565b90810382520382610696565b6131de6131d7825190565b9160200190565b209360a0810190612703565b9590946133c3565b9460c0966132628761314f976101a39c979b9e9d9b61325561327b9861323861327099600060e0880197019073ffffffffffffffffffffffffffffffffffffffff169052565b73ffffffffffffffffffffffffffffffffffffffff1660208d0152565b8a830360408c0152611b2a565b918783036060890152611b2a565b986080850190611b7f565b60a0830152565b6101a39061328f8161262a565b61329b6020830161262a565b916132a8606082016119a2565b6132b4608083016130d6565b906131ea6132c56040850185611449565b6131cc87876131c0878760406132db8880612703565b9190986132f76132ee6020830183612703565b9390920161147d565b9261330160405190565b9a8b9960208b01998a6131f2565b6101be7ff0c57e16840df040f15088dc2f81fe391c3923bec73e23a9662efc9c229c6a0061133d565b6101be61330f565b61334b611e5661352f565b61335157565b7fd7e6bcf8000000000000000000000000000000000000000000000000000000006000908152600490fd5b6101a39061231a613340565b6101a39061337c565b6116db613340565b6101a3613391565b6101be6101be6101be9267ffffffffffffffff1690565b6101be913691610885565b959094919392956133d96114a96101a530610522565b03613504576004956133f36133ee87896105c3565b6102c8565b8590036134da57613403906133a1565b42116134b0576101a56134609261345a6114a9936134546134246002610c4e565b977f19457468657265756d205369676e6564204d6573736167653a0a333200000000600052601c52603c60002090565b926133b8565b90613542565b03613486576101a3929161347b61348192610875600161133d565b926105c3565b6119fe565b7f8baa579f0000000000000000000000000000000000000000000000000000000060009081528390fd5b7f0819bdcd0000000000000000000000000000000000000000000000000000000060009081528690fd5b7f756688fe0000000000000000000000000000000000000000000000000000000060009081528790fd5b7fa3399df7000000000000000000000000000000000000000000000000000000006000908152600490fd5b6101be600061353c612ece565b01611d79565b6101be9161354f91613558565b909291926135d8565b90600091613564825190565b613571610ce5604161133d565b0361359b5761359492506020820151906060604084015193015160001a906136ff565b9192909190565b5090506135b36130936135ae6000610fb1565b925190565b909160029190565b6004111561029157565b906101a3826135bb565b6101be9061133d565b906000916135e5836135c5565b6135ee826135c5565b036135f857505050565b61360260016135c5565b61360b826135c5565b03613638577ff645eedf000000000000000000000000000000000000000000000000000000008352600483fd5b61364260026135c5565b61364b826135c5565b0361368d575061133961365e83926135cf565b7ffce698f700000000000000000000000000000000000000000000000000000000835260048301526024820190565b6136a061369a60036135c5565b916135c5565b146136a9575050565b7fd78bce0c0000000000000000000000000000000000000000000000000000000082526004820152602490fd5b610e7b6101a3946103486060949897956136f5608086019a6000870152565b60ff166020850152565b909161370a846135cf565b613736610ce57f7fffffffffffffffffffffffffffffff5d576e7357a4501ddfe92f46681b20a061133d565b116137cc57906137586020946000949361374f60405190565b948594856136d6565b838052039060015afa15610dea5760005160009161377583610fb1565b73ffffffffffffffffffffffffffffffffffffffff811673ffffffffffffffffffffffffffffffffffffffff8416146137b857506137b28361133d565b91929190565b9150916137c49061133d565b909160019190565b5050506137d96000610fb1565b916003919056fea26469706673582212205afb0722c9cea0ad3c0a5e5b42b1d296267ecc9d123d62f00e86b4543ec530c864736f6c634300081e0033",
  "linkReferences": {},
  "deployedLinkReferences": {}
}