{
  "_format": "hh-sol-artifact-1",
  "contractName": "TicketFactory",
  "sourceName": "contracts/tickets/TicketFactory.sol",
  "abi": [
    {
      "inputs": [],
      "name": "AccessControlBadConfirmation",
      "type": "error"
    },
    {
      "inputs": [
        {
          "internalType": "address",
          "name": "account",
          "type": "address"
        },
        {
          "internalType": "bytes32",
          "name": "neededRole",
          "type": "bytes32"
        }
      ],
      "name": "AccessControlUnauthorizedAccount",
      "type": "error"
    },
    {
      "inputs": [
        {
          "internalType": "address",
          "name": "target",
          "type": "address"
        }
      ],
      "name": "AddressEmptyCode",
      "type": "error"
    },
    {
      "inputs": [
        {
          "internalType": "address",
          "name": "implementation",
          "type": "address"
        }
      ],
      "name": "ERC1967InvalidImplementation",
      "type": "error"
    },
    {
      "inputs": [],
      "name": "ERC1967NonPayable",
      "type": "error"
    },
    {
      "inputs": [],
      "name": "FailedCall",
      "type": "error"
    },
    {
      "inputs": [],
      "name": "FailedDeployment",
      "type": "error"
    },
    {
      "inputs": [
        {
          "internalType": "uint256",
          "name": "balance",
          "type": "uint256"
        },
        {
          "internalType": "uint256",
          "name": "needed",
          "type": "uint256"
        }
      ],
      "name": "InsufficientBalance",
      "type": "error"
    },
    {
      "inputs": [],
      "name": "InvalidInitialization",
      "type": "error"
    },
    {
      "inputs": [],
      "name": "InvalidOrganizer",
      "type": "error"
    },
    {
      "inputs": [],
      "name": "NotInitializing",
      "type": "error"
    },
    {
      "inputs": [],
      "name": "UUPSUnauthorizedCallContext",
      "type": "error"
    },
    {
      "inputs": [
        {
          "internalType": "bytes32",
          "name": "slot",
          "type": "bytes32"
        }
      ],
      "name": "UUPSUnsupportedProxiableUUID",
      "type": "error"
    },
    {
      "anonymous": false,
      "inputs": [
        {
          "indexed": true,
          "internalType": "address",
          "name": "owner",
          "type": "address"
        },
        {
          "indexed": true,
          "internalType": "address",
          "name": "ticket",
          "type": "address"
        },
        {
          "indexed": true,
          "internalType": "address",
          "name": "ticketLaunchpad",
          "type": "address"
        }
      ],
      "name": "Created",
      "type": "event"
    },
    {
      "anonymous": false,
      "inputs": [
        {
          "indexed": false,
          "internalType": "uint64",
          "name": "version",
          "type": "uint64"
        }
      ],
      "name": "Initialized",
      "type": "event"
    },
    {
      "anonymous": false,
      "inputs": [
        {
          "indexed": true,
          "internalType": "bytes32",
          "name": "role",
          "type": "bytes32"
        },
        {
          "indexed": true,
          "internalType": "bytes32",
          "name": "previousAdminRole",
          "type": "bytes32"
        },
        {
          "indexed": true,
          "internalType": "bytes32",
          "name": "newAdminRole",
          "type": "bytes32"
        }
      ],
      "name": "RoleAdminChanged",
      "type": "event"
    },
    {
      "anonymous": false,
      "inputs": [
        {
          "indexed": true,
          "internalType": "bytes32",
          "name": "role",
          "type": "bytes32"
        },
        {
          "indexed": true,
          "internalType": "address",
          "name": "account",
          "type": "address"
        },
        {
          "indexed": true,
          "internalType": "address",
          "name": "sender",
          "type": "address"
        }
      ],
      "name": "RoleGranted",
      "type": "event"
    },
    {
      "anonymous": false,
      "inputs": [
        {
          "indexed": true,
          "internalType": "bytes32",
          "name": "role",
          "type": "bytes32"
        },
        {
          "indexed": true,
          "internalType": "address",
          "name": "account",
          "type": "address"
        },
        {
          "indexed": true,
          "internalType": "address",
          "name": "sender",
          "type": "address"
        }
      ],
      "name": "RoleRevoked",
      "type": "event"
    },
    {
      "anonymous": false,
      "inputs": [
        {
          "indexed": true,
          "internalType": "address",
          "name": "implementation",
          "type": "address"
        }
      ],
      "name": "Upgraded",
      "type": "event"
    },
    {
      "inputs": [],
      "name": "DEFAULT_ADMIN_ROLE",
      "outputs": [
        {
          "internalType": "bytes32",
          "name": "",
          "type": "bytes32"
        }
      ],
      "stateMutability": "view",
      "type": "function"
    },
    {
      "inputs": [],
      "name": "UPGRADE_INTERFACE_VERSION",
      "outputs": [
        {
          "internalType": "string",
          "name": "",
          "type": "string"
        }
      ],
      "stateMutability": "view",
      "type": "function"
    },
    {
      "inputs": [
        {
          "internalType": "address",
          "name": "ethUSDPriceFeed",
          "type": "address"
        },
        {
          "components": [
            {
              "internalType": "string",
              "name": "name",
              "type": "string"
            },
            {
              "internalType": "string",
              "name": "symbol",
              "type": "string"
            },
            {
              "internalType": "string",
              "name": "coverImageURI",
              "type": "string"
            },
            {
              "internalType": "string",
              "name": "description",
              "type": "string"
            },
            {
              "internalType": "string",
              "name": "location",
              "type": "string"
            },
            {
              "internalType": "uint64",
              "name": "startTime",
              "type": "uint64"
            },
            {
              "internalType": "uint64",
              "name": "endTime",
              "type": "uint64"
            }
          ],
          "internalType": "struct EventDetails",
          "name": "eventDetails",
          "type": "tuple"
        },
        {
          "internalType": "enum Tier[]",
          "name": "tierIds",
          "type": "uint8[]"
        },
        {
          "internalType": "string[]",
          "name": "imageURIs",
          "type": "string[]"
        },
        {
          "components": [
            {
              "internalType": "uint256",
              "name": "priceUSD",
              "type": "uint256"
            },
            {
              "internalType": "uint256",
              "name": "maxSupply",
              "type": "uint256"
            },
            {
              "internalType": "uint256",
              "name": "sold",
              "type": "uint256"
            },
            {
              "internalType": "bool",
              "name": "hasSeatNumbers",
              "type": "bool"
            }
          ],
          "internalType": "struct TierInfo[]",
          "name": "tierInfoList",
          "type": "tuple[]"
        },
        {
          "internalType": "address[]",
          "name": "paymentTokens",
          "type": "address[]"
        },
        {
          "internalType": "address[]",
          "name": "priceFeeds",
          "type": "address[]"
        }
      ],
      "name": "createTicketPair",
      "outputs": [
        {
          "internalType": "address",
          "name": "ticket",
          "type": "address"
        },
        {
          "internalType": "address",
          "name": "ticketLaunchpad",
          "type": "address"
        }
      ],
      "stateMutability": "nonpayable",
      "type": "function"
    },
    {
      "inputs": [],
      "name": "getAuthorizedSigner",
      "outputs": [
        {
          "internalType": "address",
          "name": "",
          "type": "address"
        }
      ],
      "stateMutability": "view",
      "type": "function"
    },
    {
      "inputs": [],
      "name": "getConfigAddress",
      "outputs": [
        {
          "internalType": "address",
          "name": "",
          "type": "address"
        }
      ],
      "stateMutability": "view",
      "type": "function"
    },
    {
      "inputs": [],
      "name": "getImplementation",
      "outputs": [
        {
          "internalType": "address",
          "name": "",
          "type": "address"
        }
      ],
      "stateMutability": "view",
      "type": "function"
    },
    {
      "inputs": [
        {
          "internalType": "address",
          "name": "ticketAddr",
          "type": "address"
        }
      ],
      "name": "getLaunchpadByTicket",
      "outputs": [
        {
          "internalType": "address",
          "name": "",
          "type": "address"
        }
      ],
      "stateMutability": "view",
      "type": "function"
    },
    {
      "inputs": [
        {
          "internalType": "bytes32",
          "name": "role",
          "type": "bytes32"
        }
      ],
      "name": "getRoleAdmin",
      "outputs": [
        {
          "internalType": "bytes32",
          "name": "",
          "type": "bytes32"
        }
      ],
      "stateMutability": "view",
      "type": "function"
    },
    {
      "inputs": [],
      "name": "getTicketImplementation",
      "outputs": [
        {
          "internalType": "address",
          "name": "",
          "type": "address"
        }
      ],
      "stateMutability": "view",
      "type": "function"
    },
    {
      "inputs": [],
      "name": "getTicketLaunchpadImplementation",
      "outputs": [
        {
          "internalType": "address",
          "name": "",
          "type": "address"
        }
      ],
      "stateMutability": "view",
      "type": "function"
    },
    {
      "inputs": [
        {
          "internalType": "address",
          "name": "user",
          "type": "address"
        }
      ],
      "name": "getTicketListByUser",
      "outputs": [
        {
          "internalType": "address[]",
          "name": "",
          "type": "address[]"
        }
      ],
      "stateMutability": "view",
      "type": "function"
    },
    {
      "inputs": [
        {
          "internalType": "bytes32",
          "name": "role",
          "type": "bytes32"
        },
        {
          "internalType": "address",
          "name": "account",
          "type": "address"
        }
      ],
      "name": "grantRole",
      "outputs": [],
      "stateMutability": "nonpayable",
      "type": "function"
    },
    {
      "inputs": [
        {
          "internalType": "bytes32",
          "name": "role",
          "type": "bytes32"
        },
        {
          "internalType": "address",
          "name": "account",
          "type": "address"
        }
      ],
      "name": "hasRole",
      "outputs": [
        {
          "internalType": "bool",
          "name": "",
          "type": "bool"
        }
      ],
      "stateMutability": "view",
      "type": "function"
    },
    {
      "inputs": [
        {
          "internalType": "address",
          "name": "ticketImplementation",
          "type": "address"
        },
        {
          "internalType": "address",
          "name": "ticketLaunchpadImplementation",
          "type": "address"
        },
        {
          "internalType": "address",
          "name": "config",
          "type": "address"
        },
        {
          "internalType": "address",
          "name": "authorizedSigner",
          "type": "address"
        }
      ],
      "name": "initialize",
      "outputs": [],
      "stateMutability": "nonpayable",
      "type": "function"
    },
    {
      "inputs": [],
      "name": "proxiableUUID",
      "outputs": [
        {
          "internalType": "bytes32",
          "name": "",
          "type": "bytes32"
        }
      ],
      "stateMutability": "view",
      "type": "function"
    },
    {
      "inputs": [
        {
          "internalType": "bytes32",
          "name": "role",
          "type": "bytes32"
        },
        {
          "internalType": "address",
          "name": "callerConfirmation",
          "type": "address"
        }
      ],
      "name": "renounceRole",
      "outputs": [],
      "stateMutability": "nonpayable",
      "type": "function"
    },
    {
      "inputs": [
        {
          "internalType": "bytes32",
          "name": "role",
          "type": "bytes32"
        },
        {
          "internalType": "address",
          "name": "account",
          "type": "address"
        }
      ],
      "name": "revokeRole",
      "outputs": [],
      "stateMutability": "nonpayable",
      "type": "function"
    },
    {
      "inputs": [
        {
          "internalType": "address",
          "name": "signer",
          "type": "address"
        }
      ],
      "name": "setAuthorizedSigner",
      "outputs": [],
      "stateMutability": "nonpayable",
      "type": "function"
    },
    {
      "inputs": [
        {
          "internalType": "address",
          "name": "cfg",
          "type": "address"
        }
      ],
      "name": "setConfigAddress",
      "outputs": [],
      "stateMutability": "nonpayable",
      "type": "function"
    },
    {
      "inputs": [
        {
          "internalType": "address",
          "name": "impl",
          "type": "address"
        }
      ],
      "name": "setTicketImplementation",
      "outputs": [],
      "stateMutability": "nonpayable",
      "type": "function"
    },
    {
      "inputs": [
        {
          "internalType": "address",
          "name": "impl",
          "type": "address"
        }
      ],
      "name": "setTicketLaunchpadImplementation",
      "outputs": [],
      "stateMutability": "nonpayable",
      "type": "function"
    },
    {
      "inputs": [
        {
          "internalType": "bytes4",
          "name": "interfaceId",
          "type": "bytes4"
        }
      ],
      "name": "supportsInterface",
      "outputs": [
        {
          "internalType": "bool",
          "name": "",
          "type": "bool"
        }
      ],
      "stateMutability": "view",
      "type": "function"
    },
    {
      "inputs": [
        {
          "internalType": "address",
          "name": "newImplementation",
          "type": "address"
        },
        {
          "internalType": "bytes",
          "name": "data",
          "type": "bytes"
        }
      ],
      "name": "upgradeToAndCall",
      "outputs": [],
      "stateMutability": "payable",
      "type": "function"
    }
  ],
  "bytecode": "0x60a06040523461003257610011610037565b6040516125fc6101fd8239608051818181611e8b01526120f601526125fc90f35b600080fd5b61003f610041565b565b610049610051565b61003f61011e565b61003f61003f61003f61003f61003f61009a565b6100799061007c906001600160a01b031682565b90565b6001600160a01b031690565b61007990610065565b61007990610088565b6100a330610091565b608052565b6100799060401c60ff1690565b61007990546100a8565b610079905b6001600160401b031690565b61007990546100bf565b610079906100c4906001600160401b031682565b906100fe61007961011a926100da565b82546001600160401b0319166001600160401b03919091161790565b9055565b60006101286101b6565b01610132816100b5565b6101a45761013f816100d0565b6001600160401b0391908290811603610156575050565b816101857fc7f505b2f371ae2175ee4913f4499e1f2633a7b5936321eed1cdaeb6115181d29361019f936100ee565b604051918291826001600160401b03909116815260200190565b0390a1565b63f92ee8a960e01b6000908152600490fd5b6100796101f4565b6100796100796100799290565b6100797ff0c57e16840df040f15088dc2f81fe391c3923bec73e23a9662efc9c229c6a006101be565b6100796101cb56fe6080604052600436101561001257600080fd5b60003560e01c806301ffc9a714610182578063248a9ca31461017d5780632f2ff15d1461017857806336568abe14610173578063371b320c1461016e5780633ec2734114610169578063434f2f31146101645780634f1ef2861461015f57806352d1902d1461015a57806362f536681461015557806364d527051461015057806383a12de91461014b57806391d14854146101465780639be9438014610141578063a217fddf1461013c578063aaf10f4214610137578063ad3cb1cc14610132578063b38c326f1461012d578063c706703614610128578063d279b0ca14610123578063d547741f1461011e578063e5d74666146101195763f8c8765e036101b257610aeb565b610a9b565b610a82565b610a6a565b610a4f565b610a37565b610a10565b610912565b6108f7565b61089d565b6105ed565b6105d5565b6105bd565b6105a2565b610587565b610573565b6103fd565b610361565b610314565b6102e7565b6102c9565b610239565b6101e1565b7fffffffff0000000000000000000000000000000000000000000000000000000081165b036101b257565b600080fd5b905035906101c482610187565b565b906020828203126101b2576101da916101b7565b90565b9052565b346101b25761020e6101fc6101f73660046101c6565b610b07565b60405191829182901515815260200190565b0390f35b806101ab565b905035906101c482610212565b906020828203126101b2576101da91610218565b346101b25761020e61025461024f366004610225565b610bc4565b6040519182918290815260200190565b73ffffffffffffffffffffffffffffffffffffffff1690565b73ffffffffffffffffffffffffffffffffffffffff81166101ab565b905035906101c48261027d565b91906040838203126101b2576101da9060206102c28286610218565b9401610299565b346101b2576102e26102dc3660046102a6565b90610c29565b604051005b346101b2576102e26102fa3660046102a6565b90610c33565b906020828203126101b2576101da91610299565b346101b25761020e61032f61032a366004610300565b610ce2565b6040519182918273ffffffffffffffffffffffffffffffffffffffff909116815260200190565b60009103126101b257565b346101b257610371366004610356565b61020e61032f610d21565b0190565b906103a061039961038f845190565b8084529260200190565b9260200190565b9060005b8181106103b15750505090565b9091926103e46103dd600192865173ffffffffffffffffffffffffffffffffffffffff16815260200190565b9460200190565b9291016103a4565b60208082526101da92910190610380565b346101b25761020e610418610413366004610300565b610df0565b604051918291826103ec565b7f4e487b7100000000000000000000000000000000000000000000000000000000600052604160045260246000fd5b90601f017fffffffffffffffffffffffffffffffffffffffffffffffffffffffffffffffe016810190811067ffffffffffffffff82111761049357604052565b610424565b906101c46104a560405190565b9283610453565b67ffffffffffffffff811161049357602090601f017fffffffffffffffffffffffffffffffffffffffffffffffffffffffffffffffe0160190565b90826000939282370152565b90929192610508610503826104ac565b610498565b93818552818301116101b2576101c49160208501906104e7565b9080601f830112156101b2578160206101da933591016104f3565b9190916040818403126101b2576105548382610299565b92602082013567ffffffffffffffff81116101b2576101da9201610522565b6102e261058136600461053d565b90610e4d565b346101b257610597366004610356565b61020e610254610e9a565b346101b2576105b2366004610356565b61020e61032f610ea4565b346101b2576102e26105d0366004610300565b610f77565b346101b2576102e26105e8366004610300565b610fbb565b346101b25761020e6101fc6106033660046102a6565b90610fd9565b908160e09103126101b25790565b67ffffffffffffffff81116104935760208091020190565b600311156101b257565b905035906101c48261062f565b9092919261065661050382610617565b93818552602080860192028301928184116101b257915b83831061067a5750505050565b602080916106888486610639565b81520192019161066d565b9080601f830112156101b2578160206101da93359101610646565b909182601f830112156101b25781359167ffffffffffffffff83116101b25760200192602083028401116101b257565b909182601f830112156101b25781359167ffffffffffffffff83116101b25760200192608083028401116101b257565b9092919261071e61050382610617565b93818552602080860192028301928184116101b257915b8383106107425750505050565b602080916107508486610299565b815201920191610735565b9080601f830112156101b2578160206101da9335910161070e565b91909160e0818403126101b25761078d8382610299565b92602082013567ffffffffffffffff81116101b257816107ae918401610609565b92604083013567ffffffffffffffff81116101b257826107cf918501610693565b92606081013567ffffffffffffffff81116101b257836107f09183016106ae565b929093608083013567ffffffffffffffff81116101b257816108139185016106de565b92909360a081013567ffffffffffffffff81116101b2578361083691830161075b565b9260c082013567ffffffffffffffff81116101b25761085592016106ae565b9091565b73ffffffffffffffffffffffffffffffffffffffff90911681526040810192916101c4916020905b019073ffffffffffffffffffffffffffffffffffffffff169052565b346101b2576108c26108b0366004610776565b9897909796919695929594939461164c565b9061020e6108cf60405190565b92839283610859565b6101da6101da6101da9290565b6101da60006108d8565b6101da6108e5565b346101b257610907366004610356565b61020e6102546108ef565b346101b257610922366004610356565b61020e61032f6119c1565b9061093a610503836104ac565b918252565b610949600561092d565b7f352e302e30000000000000000000000000000000000000000000000000000000602082015290565b6101da61093f565b6101da610972565b6101da61097a565b60005b83811061099d5750506000910152565b818101518382015260200161098d565b6109ce6109d760209361037c936109c2815190565b80835293849260200190565b9586910161098a565b601f017fffffffffffffffffffffffffffffffffffffffffffffffffffffffffffffffe01690565b60208082526101da929101906109ad565b346101b257610a20366004610356565b61020e610a2b610982565b604051918291826109ff565b346101b2576102e2610a4a366004610300565b611a04565b346101b257610a5f366004610356565b61020e61032f611a0d565b346101b2576102e2610a7d366004610300565b611a73565b346101b2576102e2610a953660046102a6565b90611a97565b346101b257610aab366004610356565b61020e61032f611aa1565b6080818303126101b257610aca8282610299565b926101da610adb8460208501610299565b9360606102c28260408701610299565b346101b2576102e2610afe366004610ab6565b92919091611d31565b7f7965db0b000000000000000000000000000000000000000000000000000000007fffffffff00000000000000000000000000000000000000000000000000000000821614908115610b57575090565b6101da91507fffffffff00000000000000000000000000000000000000000000000000000000167f01ffc9a7000000000000000000000000000000000000000000000000000000001490565b905b600052602052604060002090565b6101da9081565b6101da9054610bb3565b6001610c006101da92610bd5600090565b5060007f02dd7bc7dec4dceedda775e58dd541e08a116c6c53815c0bd028192f7b6268005b01610ba3565b01610bba565b906101c491610c1c610c1782610bc4565b611d3d565b90610c2691611d68565b50565b906101c491610c06565b90610c3d33610264565b73ffffffffffffffffffffffffffffffffffffffff821603610c6257610c2691611e01565b7f6697b23200000000000000000000000000000000000000000000000000000000600090815260045b036000fd5b6102646101da6101da9273ffffffffffffffffffffffffffffffffffffffff1690565b6101da90610c90565b6101da90610cb3565b90610ba590610cbc565b6101da90610264565b6101da9054610ccf565b610d1c6101da91610cf1600090565b5060047fe5ebfa008bacc85f8657a926bb677f563002d5a3ca82b831785a3e95c335fd745b01610cc5565b610cd8565b6101da60027fe5ebfa008bacc85f8657a926bb677f563002d5a3ca82b831785a3e95c335fd745b01610cd8565b90610d69610d5d61038f845490565b92600052602060002090565b9060005b818110610d7a5750505090565b909192610db4610dad600192610d8f87610cd8565b73ffffffffffffffffffffffffffffffffffffffff16815260200190565b9460010190565b929101610d6d565b906101da91610d4e565b906101c4610de092610dd760405190565b93848092610dbc565b0383610453565b6101da90610dc6565b610e286101da91610dff606090565b5060057fe5ebfa008bacc85f8657a926bb677f563002d5a3ca82b831785a3e95c335fd74610d16565b610de7565b906101c491610e3a611e80565b906101c491610e4881611f82565b611fac565b906101c491610e2d565b6101da90610e636120d3565b610e91565b6101da7f360894a13ba1a3210667c828492db98dca3e2076cc3735a920a3ca505d382bbc6108d8565b506101da610e68565b6101da6000610e57565b6101da60007fe5ebfa008bacc85f8657a926bb677f563002d5a3ca82b831785a3e95c335fd74610d48565b6101da7faf290d8680820aad922855f39b306097b20e28774d6c1ad35a20325630c3a02c6108d8565b6101c490610f07610c17610ecf565b610f49565b9073ffffffffffffffffffffffffffffffffffffffff905b9181191691161790565b90610f3e6101da610f4592610cbc565b8254610f0c565b9055565b6101c49060017fe5ebfa008bacc85f8657a926bb677f563002d5a3ca82b831785a3e95c335fd745b01610f2e565b6101c490610ef8565b6101c490610f8f610c17610ecf565b6101c49060027fe5ebfa008bacc85f8657a926bb677f563002d5a3ca82b831785a3e95c335fd74610f71565b6101c490610f80565b6101da905b60ff1690565b6101da9054610fc4565b6101da916000610d1661101693610fee600090565b50827f02dd7bc7dec4dceedda775e58dd541e08a116c6c53815c0bd028192f7b626800610bfa565b610fcf565b905051906101c48261027d565b906020828203126101b2576101da9161101b565b6040513d6000823e3d90fd5b8015156101ab565b905051906101c482611048565b906020828203126101b2576101da91611050565b7f4e487b7100000000000000000000000000000000000000000000000000000000600052603260045260246000fd5b80548210156110c3576110ba600191600052602060002090565b91020190600090565b611071565b91906008610f249102916110ef73ffffffffffffffffffffffffffffffffffffffff841b90565b921b90565b91906111056101da610f4593610cbc565b9083546110c8565b908154916801000000000000000083101561049357826111359160016101c4950181556110a0565b906110f4565b90357fffffffffffffffffffffffffffffffffffffffffffffffffffffffffffffffe136839003018112156101b257016020813591019167ffffffffffffffff82116101b2573682900383136101b257565b91906109d7816111a48161037c9560209181520190565b80956104e7565b67ffffffffffffffff81166101ab565b905035906101c4826111ab565b506101da9060208101906111bb565b906101da9060c06112a061127561125a61123f61122461120960e088016111fe8b8061113b565b8a83038b529061118d565b61121660208b018b61113b565b9089830360208b015261118d565b61123160408a018a61113b565b9088830360408a015261118d565b61124c606089018961113b565b90878303606089015261118d565b611267608088018861113b565b90868303608088015261118d565b9461129761128660a08301836111c8565b67ffffffffffffffff1660a0860152565b828101906111c8565b67ffffffffffffffff16910152565b7f4e487b7100000000000000000000000000000000000000000000000000000000600052602160045260246000fd5b600311156112e857565b6112af565b906101c4826112de565b6101da906112ed565b6101dd906112f7565b9061037c81602093611300565b9061132561039961038f845190565b9060005b8181106113365750505090565b9091926113496103dd6001928651611309565b929101611329565b906101da929161118d565b8183529160200190816113726020830284019490565b92836000925b8484106113885750505050505090565b90919293949560206113b56113ae83856001950388526113a88b8861113b565b90611351565b9860200190565b940194019294939190611378565b94926101da9694916114279161141a611435956113fd60a08b019460008c019073ffffffffffffffffffffffffffffffffffffffff169052565b73ffffffffffffffffffffffffffffffffffffffff1660208a0152565b87820360408901526111d7565b908582036060870152611316565b92608081850391015261135c565b506101da906020810190610218565b905035906101c482611048565b506101da906020810190611452565b9060606114c36101c49361148c6114886000830183611443565b8552565b6114a361149c6020830183611443565b6020860152565b6114ba6114b36040830183611443565b6040860152565b8281019061145f565b1515910152565b9061037c8160809361146e565b818352602090920191906000825b8282106114f3575050505090565b9091929361151361150c6001926115078890565b6114ca565b9560800190565b939201906114e5565b506101da906020810190610299565b818352602090920191906000825b828210611547575050505090565b9091929361156561155e600192610d8f888661151c565b9560200190565b93920190611539565b9997929561161461162f966115f761163d9a976101da9f9d9a8f6108816060926115da6116219b6115bd61012086019c600087019073ffffffffffffffffffffffffffffffffffffffff169052565b73ffffffffffffffffffffffffffffffffffffffff166020850152565b73ffffffffffffffffffffffffffffffffffffffff166040830152565b73ffffffffffffffffffffffffffffffffffffffff1660808d0152565b8a820360a08c0152611316565b9188830360c08a01526114d7565b9085820360e0870152610380565b9261010081850391015261152b565b909592999794989196939861165f600090565b507fe5ebfa008bacc85f8657a926bb677f563002d5a3ca82b831785a3e95c335fd74916116b46116af807fe5ebfa008bacc85f8657a926bb677f563002d5a3ca82b831785a3e95c335fd76610cd8565b610cbc565b60206116bf60405190565b7f5a97adc900000000000000000000000000000000000000000000000000000000815291829060049082905afa90811561191f57611709916116af91600091611992575b50610cbc565b602061171460405190565b7f55a508b900000000000000000000000000000000000000000000000000000000815233600482015291829060249082905afa801561191f5761175d9160009161196557501590565b61193a5761176a83610cd8565b61177390612122565b98899c6001850161178390610cd8565b61178c90612122565b9c8d9a908b61179e8e60048a01610cc5565b906117a891610f2e565b8c6117b63360058a01610cc5565b906117c09161110d565b6117c98d610cbc565b6117d290610cbc565b803b156101b257600092838e61182088956117ec60405190565b988997889687957f1f4b12ab00000000000000000000000000000000000000000000000000000000875233600488016113c3565b03925af1801561191f57611924575b5061183c6116af8a610cbc565b94611855600361184e60028801610cd8565b9601610cd8565b98863b156101b2576000988c988a966118a59561187160405190565b9d8e9c8d9b8c9a7fb47527ab000000000000000000000000000000000000000000000000000000008c523360048d0161156e565b03925af1801561191f57611901575b506118d06118ca6118c433610cbc565b93610cbc565b91610cbc565b917f454b0172f64812df0cd504c2bd7df7aab8ff328a54d946b4bd0fa7c527adf9cc6118fb60405190565b600090a4565b6119199060006119118183610453565b810190610356565b386118b4565b61103c565b6119349060006119118183610453565b3861182f565b7f0b46a34e000000000000000000000000000000000000000000000000000000006000908152600490fd5b611987915060203d60201161198b575b61197f8183610453565b81019061105d565b1590565b503d611975565b6119b4915060203d6020116119ba575b6119ac8183610453565b810190611028565b38611703565b503d6119a2565b6101da612136565b6101c4906119d8610c17610ecf565b6101c49060007fe5ebfa008bacc85f8657a926bb677f563002d5a3ca82b831785a3e95c335fd74610f71565b6101c4906119c9565b6101da60037fe5ebfa008bacc85f8657a926bb677f563002d5a3ca82b831785a3e95c335fd74610d48565b6101c490611a47610c17610ecf565b6101c49060037fe5ebfa008bacc85f8657a926bb677f563002d5a3ca82b831785a3e95c335fd74610f71565b6101c490611a38565b906101c491611a8d610c1782610bc4565b90610c2691611e01565b906101c491611a7c565b6101da60017fe5ebfa008bacc85f8657a926bb677f563002d5a3ca82b831785a3e95c335fd74610d48565b6101da9060401c610fc9565b6101da9054611acc565b6101da905b67ffffffffffffffff1690565b6101da9054611ae2565b611ae76101da6101da9290565b9067ffffffffffffffff90610f24565b611ae76101da6101da9267ffffffffffffffff1690565b90611b426101da610f4592611b1b565b8254611b0b565b9068ff00000000000000009060401b610f24565b90611b6d6101da610f4592151590565b8254611b49565b6101dd90611afe565b6020810192916101c49190611b74565b91611b96612146565b938491611bae611ba861198785611ad8565b93611af4565b93600095611bbb87611afe565b67ffffffffffffffff87161480611cd7575b600196611bea611bdc89611afe565b9167ffffffffffffffff1690565b149081611caf575b155b9081611ca6575b50611c7e5790611c2793929185611c1e89611c158a611afe565b9b019a8b611b32565b611c6f57611cde565b611c3057505050565b611c5e611c6a927fc7f505b2f371ae2175ee4913f4499e1f2633a7b5936321eed1cdaeb6115181d294611b5d565b60405191829182611b7d565b0390a1565b611c79878a611b5d565b611cde565b7ff92ee8a9000000000000000000000000000000000000000000000000000000008752600487fd5b15905038611bfb565b9050611bf4611cbd30610cbc565b3b611cce611cca8b6108d8565b9190565b14919050611bf2565b5084611bcd565b610f716101c49493611d28600394611cf4612193565b611d1f7fe5ebfa008bacc85f8657a926bb677f563002d5a3ca82b831785a3e95c335fd749586610f2e565b60018501610f2e565b60028301610f2e565b906101c4939291611b8d565b6101c49033906121c5565b9060ff90610f24565b90611d616101da610f4592151590565b8254611d48565b7f02dd7bc7dec4dceedda775e58dd541e08a116c6c53815c0bd028192f7b626800611d966119878484610fd9565b15611df9576001611db2846000610d168682611db79701610ba3565b611d51565b611dc56118ca6118c4339390565b917f2f8788117e7eff1d82e926ec794901d17c78024a50270940304540a733656f0d611df060405190565b600090a4600190565b505050600090565b7f02dd7bc7dec4dceedda775e58dd541e08a116c6c53815c0bd028192f7b626800611e2c8383610fd9565b15611df9576000611db28482610d168682611e479701610ba3565b611e556118ca6118c4339390565b917ff6391f5c32d9c69d2a47ea670b442974b53935d1edc7fd64eb21e047a839171b611df060405190565b611e8930610cbc565b7f000000000000000000000000000000000000000000000000000000000000000090611ee073ffffffffffffffffffffffffffffffffffffffff83165b9173ffffffffffffffffffffffffffffffffffffffff1690565b14908115611f1b575b50611ef057565b7fe07c8dba000000000000000000000000000000000000000000000000000000006000908152600490fd5b9050611f45611ec6611f2b612136565b9273ffffffffffffffffffffffffffffffffffffffff1690565b141538611ee9565b6101da7fa615a8afb6fffcb8c6809ac0997b5c9c12b8cc97651150f14c8f6203168cff4c6108d8565b506101c4610c17611f4d565b6101c490611f76565b905051906101c482610212565b906020828203126101b2576101da91611f8b565b90611fb96116af83610cbc565b906020611fc560405190565b7f52d1902d00000000000000000000000000000000000000000000000000000000815292839060049082905afa600092816120a2575b50612053575050600161200b5750565b7f4c9c8ce300000000000000000000000000000000000000000000000000000000600090815273ffffffffffffffffffffffffffffffffffffffff9091166004526024036000fd5b9092916120616101da610e68565b8403612072576101c492935061220d565b7faa1d49a40000000000000000000000000000000000000000000000000000000060009081526004859052602490fd5b6120c591935060203d6020116120cc575b6120bd8183610453565b810190611f98565b9138611ffb565b503d6120b3565b6120dc30610cbc565b61211b73ffffffffffffffffffffffffffffffffffffffff7f000000000000000000000000000000000000000000000000000000000000000016611ec6565b03611ef057565b6101da9061213060006108d8565b9061229f565b6101da6000610d486101da610e68565b6101da6123a5565b6121566123ad565b6101c46121616123f1565b6121696123f1565b61217b6121746108e5565b3390611d68565b50612187612174611f4d565b50610c26612174610ecf565b6101c461214e565b73ffffffffffffffffffffffffffffffffffffffff90911681526040810192916101c49160200152565b906121d36119878284610fd9565b6121db575050565b7fe2517d3f00000000000000000000000000000000000000000000000000000000600090815291610c8b91600461219b565b90612217826123f9565b61222082610cbc565b7fbc7cd75a20ee27fd9adebab32041f755214dbc6bffa90cc0225b39da2e5c2d3b61224a60405190565b600090a2805161225d611cca60006108d8565b111561226c57610c26916124bf565b50506101c4612464565b9081526040810192916101c49160200152565b6102646101da6101da9290565b6101da90612289565b6122a830610cbc565b8281311061234857506037916e5af43d82803e903d91602b57fd5bf382763d602d80600a3d3981f3363d3d373d3d3d363d7300000060099460601b60e81c1760005260781b17602052f090600061230161026482612296565b73ffffffffffffffffffffffffffffffffffffffff8416146123205750565b7fb06ebf3d000000000000000000000000000000000000000000000000000000008152600490fd5b610c8b83600092317fcf47918100000000000000000000000000000000000000000000000000000000845260048401612276565b6101da7ff0c57e16840df040f15088dc2f81fe391c3923bec73e23a9662efc9c229c6a006108d8565b6101da61237c565b6123b86119876124e6565b6123be57565b7fd7e6bcf8000000000000000000000000000000000000000000000000000000006000908152600490fd5b6101c46123ad565b6101c46123e9565b6000813b612409611cca836108d8565b1461241e57906101c491610f716101da610e68565b7f4c9c8ce300000000000000000000000000000000000000000000000000000000815273ffffffffffffffffffffffffffffffffffffffff919091166004820152602490fd5b600061246f816108d8565b34116124785750565b7fb398979f000000000000000000000000000000000000000000000000000000008152600490fd5b3d156124ba576124af3d61092d565b903d6000602084013e565b606090565b6000806101da936124ce606090565b50602081519101845af46124e06124a0565b916124f9565b6101da60006124f3612146565b01611ad8565b90612504575061257e565b815190600091612516611cca846108d8565b1480612569575b61252657505090565b7f9996b31500000000000000000000000000000000000000000000000000000000825273ffffffffffffffffffffffffffffffffffffffff166004820152602490fd5b50803b612578611cca846108d8565b1461251d565b805160009061258f611cca836108d8565b111561259e5750805190602001fd5b7fd6bda275000000000000000000000000000000000000000000000000000000008152600490fdfea26469706673582212208797ecffb27e5d49d0f752966255320f5b117f172394dfe1911da88661e8b75164736f6c634300081e0033",
  "linkReferences": {},
  "deployedLinkReferences": {},
  "address": "0x04BC735f51Cbf4d3c9D1b9fc0005ebB84EA27780"
}