{
  "_format": "hh-sol-artifact-1",
  "contractName": "TicketLaunchpad",
  "sourceName": "contracts/markets/TicketLaunchpad.sol",
  "abi": [
    {
      "inputs": [],
      "stateMutability": "nonpayable",
      "type": "constructor"
    },
    {
      "inputs": [],
      "name": "ECDSAInvalidSignature",
      "type": "error"
    },
    {
      "inputs": [
        {
          "internalType": "uint256",
          "name": "length",
          "type": "uint256"
        }
      ],
      "name": "ECDSAInvalidSignatureLength",
      "type": "error"
    },
    {
      "inputs": [
        {
          "internalType": "bytes32",
          "name": "s",
          "type": "bytes32"
        }
      ],
      "name": "ECDSAInvalidSignatureS",
      "type": "error"
    },
    {
      "inputs": [],
      "name": "ExceedsMaxSupply",
      "type": "error"
    },
    {
      "inputs": [],
      "name": "InsufficientAmount",
      "type": "error"
    },
    {
      "inputs": [],
      "name": "InvalidInitialization",
      "type": "error"
    },
    {
      "inputs": [],
      "name": "InvalidNonce",
      "type": "error"
    },
    {
      "inputs": [],
      "name": "InvalidSignature",
      "type": "error"
    },
    {
      "inputs": [],
      "name": "LaunchpadMismatch",
      "type": "error"
    },
    {
      "inputs": [],
      "name": "LengthMismatch",
      "type": "error"
    },
    {
      "inputs": [],
      "name": "NewMaxSupplyTooLow",
      "type": "error"
    },
    {
      "inputs": [],
      "name": "NotInitializing",
      "type": "error"
    },
    {
      "inputs": [
        {
          "internalType": "address",
          "name": "owner",
          "type": "address"
        }
      ],
      "name": "OwnableInvalidOwner",
      "type": "error"
    },
    {
      "inputs": [
        {
          "internalType": "address",
          "name": "account",
          "type": "address"
        }
      ],
      "name": "OwnableUnauthorizedAccount",
      "type": "error"
    },
    {
      "inputs": [],
      "name": "ReentrancyGuardReentrantCall",
      "type": "error"
    },
    {
      "inputs": [],
      "name": "SeatAlreadyClaimed",
      "type": "error"
    },
    {
      "inputs": [],
      "name": "SignatureExpired",
      "type": "error"
    },
    {
      "inputs": [],
      "name": "TransactionFailed",
      "type": "error"
    },
    {
      "inputs": [],
      "name": "UnacceptablePayment",
      "type": "error"
    },
    {
      "inputs": [],
      "name": "ZeroAddressNotAllowed",
      "type": "error"
    },
    {
      "anonymous": false,
      "inputs": [
        {
          "indexed": false,
          "internalType": "uint64",
          "name": "version",
          "type": "uint64"
        }
      ],
      "name": "Initialized",
      "type": "event"
    },
    {
      "anonymous": false,
      "inputs": [
        {
          "indexed": true,
          "internalType": "address",
          "name": "previousOwner",
          "type": "address"
        },
        {
          "indexed": true,
          "internalType": "address",
          "name": "newOwner",
          "type": "address"
        }
      ],
      "name": "OwnershipTransferred",
      "type": "event"
    },
    {
      "inputs": [
        {
          "internalType": "address",
          "name": "to",
          "type": "address"
        },
        {
          "components": [
            {
              "internalType": "string",
              "name": "section",
              "type": "string"
            },
            {
              "internalType": "string",
              "name": "seatNumber",
              "type": "string"
            },
            {
              "internalType": "enum Tier",
              "name": "tier",
              "type": "uint8"
            }
          ],
          "internalType": "struct Seat[]",
          "name": "seats",
          "type": "tuple[]"
        }
      ],
      "name": "adminMint",
      "outputs": [],
      "stateMutability": "nonpayable",
      "type": "function"
    },
    {
      "inputs": [
        {
          "internalType": "string",
          "name": "seatNumber",
          "type": "string"
        }
      ],
      "name": "claimedSeatNumbers",
      "outputs": [
        {
          "internalType": "bool",
          "name": "used",
          "type": "bool"
        }
      ],
      "stateMutability": "view",
      "type": "function"
    },
    {
      "inputs": [],
      "name": "config",
      "outputs": [
        {
          "internalType": "contract IConfig",
          "name": "",
          "type": "address"
        }
      ],
      "stateMutability": "view",
      "type": "function"
    },
    {
      "inputs": [],
      "name": "ethUsdPriceFeed",
      "outputs": [
        {
          "internalType": "address",
          "name": "",
          "type": "address"
        }
      ],
      "stateMutability": "view",
      "type": "function"
    },
    {
      "inputs": [
        {
          "internalType": "enum Tier",
          "name": "tier",
          "type": "uint8"
        }
      ],
      "name": "getPriceInETH",
      "outputs": [
        {
          "internalType": "uint256",
          "name": "",
          "type": "uint256"
        }
      ],
      "stateMutability": "view",
      "type": "function"
    },
    {
      "inputs": [
        {
          "internalType": "enum Tier",
          "name": "tier",
          "type": "uint8"
        },
        {
          "internalType": "address",
          "name": "paymentToken",
          "type": "address"
        }
      ],
      "name": "getPriceInToken",
      "outputs": [
        {
          "internalType": "uint256",
          "name": "",
          "type": "uint256"
        }
      ],
      "stateMutability": "view",
      "type": "function"
    },
    {
      "inputs": [
        {
          "internalType": "address",
          "name": "owner",
          "type": "address"
        },
        {
          "internalType": "address",
          "name": "ethUsdPriceFeed_",
          "type": "address"
        },
        {
          "internalType": "address",
          "name": "config_",
          "type": "address"
        },
        {
          "internalType": "address",
          "name": "ticket_",
          "type": "address"
        },
        {
          "internalType": "address",
          "name": "authorizedSigner_",
          "type": "address"
        },
        {
          "internalType": "enum Tier[]",
          "name": "tierIds",
          "type": "uint8[]"
        },
        {
          "components": [
            {
              "internalType": "uint256",
              "name": "priceUSD",
              "type": "uint256"
            },
            {
              "internalType": "uint256",
              "name": "maxSupply",
              "type": "uint256"
            },
            {
              "internalType": "uint256",
              "name": "sold",
              "type": "uint256"
            },
            {
              "internalType": "bool",
              "name": "hasSeatNumbers",
              "type": "bool"
            }
          ],
          "internalType": "struct TierInfo[]",
          "name": "tierInfoList",
          "type": "tuple[]"
        },
        {
          "internalType": "address[]",
          "name": "paymentTokens",
          "type": "address[]"
        },
        {
          "internalType": "address[]",
          "name": "priceFeeds",
          "type": "address[]"
        }
      ],
      "name": "initialize",
      "outputs": [],
      "stateMutability": "nonpayable",
      "type": "function"
    },
    {
      "inputs": [
        {
          "internalType": "address",
          "name": "user",
          "type": "address"
        }
      ],
      "name": "nonces",
      "outputs": [
        {
          "internalType": "uint256",
          "name": "nonce",
          "type": "uint256"
        }
      ],
      "stateMutability": "view",
      "type": "function"
    },
    {
      "inputs": [],
      "name": "owner",
      "outputs": [
        {
          "internalType": "address",
          "name": "",
          "type": "address"
        }
      ],
      "stateMutability": "view",
      "type": "function"
    },
    {
      "inputs": [
        {
          "components": [
            {
              "internalType": "address",
              "name": "launchpad",
              "type": "address"
            },
            {
              "internalType": "address",
              "name": "to",
              "type": "address"
            },
            {
              "components": [
                {
                  "internalType": "string",
                  "name": "section",
                  "type": "string"
                },
                {
                  "internalType": "string",
                  "name": "seatNumber",
                  "type": "string"
                },
                {
                  "internalType": "enum Tier",
                  "name": "tier",
                  "type": "uint8"
                }
              ],
              "internalType": "struct Seat[]",
              "name": "seats",
              "type": "tuple[]"
            },
            {
              "internalType": "uint256",
              "name": "nonce",
              "type": "uint256"
            },
            {
              "internalType": "uint64",
              "name": "deadline",
              "type": "uint64"
            },
            {
              "internalType": "bytes",
              "name": "signature",
              "type": "bytes"
            }
          ],
          "internalType": "struct MintBatchSignatureParams",
          "name": "params",
          "type": "tuple"
        }
      ],
      "name": "payBatchWithETH",
      "outputs": [],
      "stateMutability": "payable",
      "type": "function"
    },
    {
      "inputs": [
        {
          "internalType": "address",
          "name": "paymentToken",
          "type": "address"
        },
        {
          "components": [
            {
              "internalType": "address",
              "name": "launchpad",
              "type": "address"
            },
            {
              "internalType": "address",
              "name": "to",
              "type": "address"
            },
            {
              "components": [
                {
                  "internalType": "string",
                  "name": "section",
                  "type": "string"
                },
                {
                  "internalType": "string",
                  "name": "seatNumber",
                  "type": "string"
                },
                {
                  "internalType": "enum Tier",
                  "name": "tier",
                  "type": "uint8"
                }
              ],
              "internalType": "struct Seat[]",
              "name": "seats",
              "type": "tuple[]"
            },
            {
              "internalType": "uint256",
              "name": "nonce",
              "type": "uint256"
            },
            {
              "internalType": "uint64",
              "name": "deadline",
              "type": "uint64"
            },
            {
              "internalType": "bytes",
              "name": "signature",
              "type": "bytes"
            }
          ],
          "internalType": "struct MintBatchSignatureParams",
          "name": "params",
          "type": "tuple"
        }
      ],
      "name": "payBatchWithToken",
      "outputs": [],
      "stateMutability": "nonpayable",
      "type": "function"
    },
    {
      "inputs": [
        {
          "components": [
            {
              "internalType": "address",
              "name": "launchpad",
              "type": "address"
            },
            {
              "internalType": "address",
              "name": "to",
              "type": "address"
            },
            {
              "components": [
                {
                  "internalType": "string",
                  "name": "section",
                  "type": "string"
                },
                {
                  "internalType": "string",
                  "name": "seatNumber",
                  "type": "string"
                },
                {
                  "internalType": "enum Tier",
                  "name": "tier",
                  "type": "uint8"
                }
              ],
              "internalType": "struct Seat",
              "name": "seat",
              "type": "tuple"
            },
            {
              "internalType": "uint256",
              "name": "nonce",
              "type": "uint256"
            },
            {
              "internalType": "uint64",
              "name": "deadline",
              "type": "uint64"
            },
            {
              "internalType": "bytes",
              "name": "signature",
              "type": "bytes"
            }
          ],
          "internalType": "struct MintSignatureParams",
          "name": "params",
          "type": "tuple"
        }
      ],
      "name": "payWithETH",
      "outputs": [],
      "stateMutability": "payable",
      "type": "function"
    },
    {
      "inputs": [
        {
          "internalType": "address",
          "name": "paymentToken",
          "type": "address"
        },
        {
          "components": [
            {
              "internalType": "address",
              "name": "launchpad",
              "type": "address"
            },
            {
              "internalType": "address",
              "name": "to",
              "type": "address"
            },
            {
              "components": [
                {
                  "internalType": "string",
                  "name": "section",
                  "type": "string"
                },
                {
                  "internalType": "string",
                  "name": "seatNumber",
                  "type": "string"
                },
                {
                  "internalType": "enum Tier",
                  "name": "tier",
                  "type": "uint8"
                }
              ],
              "internalType": "struct Seat",
              "name": "seat",
              "type": "tuple"
            },
            {
              "internalType": "uint256",
              "name": "nonce",
              "type": "uint256"
            },
            {
              "internalType": "uint64",
              "name": "deadline",
              "type": "uint64"
            },
            {
              "internalType": "bytes",
              "name": "signature",
              "type": "bytes"
            }
          ],
          "internalType": "struct MintSignatureParams",
          "name": "params",
          "type": "tuple"
        }
      ],
      "name": "payWithToken",
      "outputs": [],
      "stateMutability": "nonpayable",
      "type": "function"
    },
    {
      "inputs": [
        {
          "internalType": "address",
          "name": "paymentToken",
          "type": "address"
        }
      ],
      "name": "paymentTokenPriceFeeds",
      "outputs": [
        {
          "internalType": "address",
          "name": "priceFeed",
          "type": "address"
        }
      ],
      "stateMutability": "view",
      "type": "function"
    },
    {
      "inputs": [],
      "name": "renounceOwnership",
      "outputs": [],
      "stateMutability": "nonpayable",
      "type": "function"
    },
    {
      "inputs": [
        {
          "internalType": "address[]",
          "name": "paymentTokens",
          "type": "address[]"
        },
        {
          "internalType": "address[]",
          "name": "priceFeeds",
          "type": "address[]"
        }
      ],
      "name": "setPaymentTokens",
      "outputs": [],
      "stateMutability": "nonpayable",
      "type": "function"
    },
    {
      "inputs": [
        {
          "internalType": "enum Tier[]",
          "name": "tierIds",
          "type": "uint8[]"
        },
        {
          "internalType": "uint256[]",
          "name": "maxSupplies",
          "type": "uint256[]"
        }
      ],
      "name": "setTierMaxSupply",
      "outputs": [],
      "stateMutability": "nonpayable",
      "type": "function"
    },
    {
      "inputs": [
        {
          "internalType": "enum Tier[]",
          "name": "tierIds",
          "type": "uint8[]"
        },
        {
          "internalType": "uint256[]",
          "name": "maxSupplies",
          "type": "uint256[]"
        },
        {
          "internalType": "uint256[]",
          "name": "tierPricesUSD",
          "type": "uint256[]"
        }
      ],
      "name": "setTierMaxSupplyPrices",
      "outputs": [],
      "stateMutability": "nonpayable",
      "type": "function"
    },
    {
      "inputs": [
        {
          "internalType": "enum Tier[]",
          "name": "tierIds",
          "type": "uint8[]"
        },
        {
          "internalType": "uint256[]",
          "name": "tierPricesUSD",
          "type": "uint256[]"
        }
      ],
      "name": "setTierPrices",
      "outputs": [],
      "stateMutability": "nonpayable",
      "type": "function"
    },
    {
      "inputs": [],
      "name": "ticket",
      "outputs": [
        {
          "internalType": "contract ITicket",
          "name": "",
          "type": "address"
        }
      ],
      "stateMutability": "view",
      "type": "function"
    },
    {
      "inputs": [
        {
          "internalType": "enum Tier",
          "name": "tier",
          "type": "uint8"
        }
      ],
      "name": "tierInfo",
      "outputs": [
        {
          "internalType": "uint256",
          "name": "priceUSD",
          "type": "uint256"
        },
        {
          "internalType": "uint256",
          "name": "maxSupply",
          "type": "uint256"
        },
        {
          "internalType": "uint256",
          "name": "sold",
          "type": "uint256"
        },
        {
          "internalType": "bool",
          "name": "hasSeatNumbers",
          "type": "bool"
        }
      ],
      "stateMutability": "view",
      "type": "function"
    },
    {
      "inputs": [
        {
          "internalType": "address",
          "name": "newOwner",
          "type": "address"
        }
      ],
      "name": "transferOwnership",
      "outputs": [],
      "stateMutability": "nonpayable",
      "type": "function"
    },
    {
      "inputs": [
        {
          "internalType": "address",
          "name": "to",
          "type": "address"
        }
      ],
      "name": "withdrawETH",
      "outputs": [],
      "stateMutability": "nonpayable",
      "type": "function"
    },
    {
      "inputs": [
        {
          "internalType": "address",
          "name": "to",
          "type": "address"
        },
        {
          "internalType": "address",
          "name": "token",
          "type": "address"
        }
      ],
      "name": "withdrawToken",
      "outputs": [],
      "stateMutability": "nonpayable",
      "type": "function"
    }
  ],
  "bytecode": "0x60806040523461002257610011610027565b6040516139ca61018982396139ca90f35b600080fd5b61002f6100aa565b565b61003e9060401c60ff1690565b90565b61003e9054610031565b61003e905b6001600160401b031690565b61003e905461004b565b61003e90610050906001600160401b031682565b9061008a61003e6100a692610066565b82546001600160401b0319166001600160401b03919091161790565b9055565b60006100b4610142565b016100be81610041565b610130576100cb8161005c565b6001600160401b03919082908116036100e2575050565b816101117fc7f505b2f371ae2175ee4913f4499e1f2633a7b5936321eed1cdaeb6115181d29361012b9361007a565b604051918291826001600160401b03909116815260200190565b0390a1565b63f92ee8a960e01b6000908152600490fd5b61003e610180565b61003e61003e61003e9290565b61003e7ff0c57e16840df040f15088dc2f81fe391c3923bec73e23a9662efc9c229c6a0061014a565b61003e61015756fe6080604052600436101561001257600080fd5b60003560e01c8063111279ad1461019257806335766f4b1461018d5780633aeac4e1146101885780633e9ee0071461018357806342f6fb291461017e5780634bc6d1f914610179578063690d8320146101745780636cc25db71461016f578063715018a61461016a57806371e1ba121461016557806379502c55146101605780637ecebe001461015b578063858855b4146101565780638da5cb5b1461015157806390e8a1631461014c57806396277ea014610147578063995772fa14610142578063a630da8f1461013d578063b47527ab14610138578063c90b3ebe14610133578063cb0035cb1461012e578063e9a57d4514610129578063ef62ae10146101245763f2fde38b036101a157610c8c565b610c70565b610bf4565b610bd9565b610bab565b610b86565b610a69565b6109aa565b610831565b610801565b61065c565b610649565b610608565b6105b8565b610593565b61057b565b610554565b6104e3565b6104b4565b610472565b610416565b6103b4565b610367565b610224565b600311156101a157565b600080fd5b905035906101b382610197565b565b73ffffffffffffffffffffffffffffffffffffffff1690565b90565b73ffffffffffffffffffffffffffffffffffffffff81165b036101a157565b905035906101b3826101d1565b91906040838203126101a1576101ce90602061021982866101a6565b94016101f0565b9052565b346101a15761025061024061023a3660046101fd565b90610d8e565b6040519182918290815260200190565b0390f35b906020828203126101a1576101ce916101a6565b7f4e487b7100000000000000000000000000000000000000000000000000000000600052602160045260246000fd5b600311156102a157565b610268565b906101b382610297565b6101ce906102a6565b906102c3906102b0565b600052602052604060002090565b6101ce9081565b6101ce90546102d1565b6101ce905b60ff1690565b6101ce90546102e2565b6103029060056102b9565b9061030c826102d8565b91610319600182016102d8565b916101ce600361032b600285016102d8565b93016102ed565b61035f6101b394610358606094989795610351608086019a6000870152565b6020850152565b6040830152565b019015159052565b346101a15761025061038261037d366004610254565b6102f7565b9061038f94929460405190565b94859485610332565b91906040838203126101a1576101ce90602061021982866101f0565b346101a1576103cd6103c7366004610398565b9061102f565b604051005b908160c09103126101a15790565b9190916040818403126101a1576103f783826101f0565b92602082013567ffffffffffffffff81116101a1576101ce92016103d2565b346101a1576103cd6104293660046103e0565b906110f6565b60009103126101a157565b6101ce916008021c73ffffffffffffffffffffffffffffffffffffffff1690565b906101ce915461043a565b6101ce6000600361045b565b346101a15761048236600461042f565b61025061048d610466565b6040519182918273ffffffffffffffffffffffffffffffffffffffff909116815260200190565b346101a1576102506102406104ca366004610254565b6113df565b906020828203126101a1576101ce916101f0565b346101a1576103cd6104f63660046104cf565b6114b0565b6101ce60008061045b565b6101b56101ce6101ce9273ffffffffffffffffffffffffffffffffffffffff1690565b6101ce90610506565b6101ce90610529565b61022090610532565b6020810192916101b3919061053b565b346101a15761056436600461042f565b61025061056f6104fb565b60405191829182610544565b346101a15761058b36600461042f565b6103cd6114d6565b346101a1576103cd6105a63660046103e0565b9061151c565b6101ce6000600161045b565b346101a1576105c836600461042f565b61025061056f6105ac565b906102c390610532565b6101ce916008021c81565b906101ce91546105dd565b60006106036101ce9260046105d3565b6105e8565b346101a15761025061024061061e3660046104cf565b6105f3565b906020828203126101a157813567ffffffffffffffff81116101a1576101ce92016103d2565b6103cd610657366004610623565b6119ae565b346101a15761066c36600461042f565b61025061048d6119b7565b7f4e487b7100000000000000000000000000000000000000000000000000000000600052604160045260246000fd5b90601f017fffffffffffffffffffffffffffffffffffffffffffffffffffffffffffffffe016810190811067ffffffffffffffff8211176106e657604052565b610677565b906101b36106f860405190565b92836106a6565b67ffffffffffffffff81116106e65760208091020190565b9092919261072c610727826106ff565b6106eb565b93818552602080860192028301928184116101a157915b8383106107505750505050565b6020809161075e84866101a6565b815201920191610743565b9080601f830112156101a1578160206101ce93359101610717565b909182601f830112156101a15781359167ffffffffffffffff83116101a15760200192602083028401116101a157565b9190916040818403126101a157803567ffffffffffffffff81116101a157836107de918301610769565b92602082013567ffffffffffffffff81116101a1576107fd9201610784565b9091565b346101a1576103cd6108143660046107b4565b91611b4f565b9190916040818403126101a1576107de83826101f0565b346101a1576103cd61084436600461081a565b91611dd3565b67ffffffffffffffff81116106e657602090601f017fffffffffffffffffffffffffffffffffffffffffffffffffffffffffffffffe0160190565b0190565b90826000939282370152565b909291926108a56107278261084a565b93818552818301116101a1576101b3916020850190610889565b9080601f830112156101a1578160206101ce93359101610895565b906020828203126101a157813567ffffffffffffffff81116101a1576101ce92016108bf565b60005b8381106109135750506000910152565b8181015183820152602001610903565b61088561093b92602092610935815190565b94859290565b93849101610900565b6109546108859160209493610923565b918252565b61096e61096560405190565b92839283610944565b03902090565b6101ce91610959565b6101ce916008021c6102e7565b906101ce915461097d565b60006109a56101ce926006610974565b61098a565b346101a1576102506109c56109c03660046108da565b610995565b60405191829182901515815260200190565b909291926109e7610727826106ff565b93818552602080860192028301928184116101a157915b838310610a0b5750505050565b60208091610a1984866101f0565b8152019201916109fe565b9080601f830112156101a1578160206101ce933591016109d7565b9190916040818403126101a157803567ffffffffffffffff81116101a157836107de918301610a24565b346101a1576103cd610a7c366004610a3f565b91611df7565b909182601f830112156101a15781359167ffffffffffffffff83116101a15760200192608083028401116101a157565b9190610120838203126101a157610ac981846101f0565b92610ad782602083016101f0565b92610ae583604084016101f0565b92610af381606085016101f0565b92610b0182608083016101f0565b9260a082013567ffffffffffffffff81116101a15783610b22918401610769565b9260c083013567ffffffffffffffff81116101a15781610b43918501610a82565b92909360e081013567ffffffffffffffff81116101a15783610b66918301610a24565b9261010082013567ffffffffffffffff81116101a1576107fd9201610784565b346101a1576103cd610b99366004610ab2565b999890989791979692969593956121a2565b346101a1576103cd610bbe3660046107b4565b91612215565b6000610bd46101ce9260076105d3565b61045b565b346101a15761025061048d610bef3660046104cf565b610bc4565b6103cd610c02366004610623565b61239a565b6060818303126101a157803567ffffffffffffffff81116101a15782610c2e918301610769565b92602082013567ffffffffffffffff81116101a15783610c4f918401610784565b929093604082013567ffffffffffffffff81116101a1576107fd9201610784565b346101a1576103cd610c83366004610c07565b939290926124b5565b346101a1576103cd610c9f3660046104cf565b61255a565b60ff81166101e9565b905051906101b382610ca4565b906020828203126101a1576101ce91610cad565b6040513d6000823e3d90fd5b6101ce906101b5565b6101ce9054610cda565b7f4e487b7100000000000000000000000000000000000000000000000000000000600052601160045260246000fd5b60ff16604d8111610d2d57600a0a90565b610ced565b81810292918115918404141715610d2d57565b7f4e487b7100000000000000000000000000000000000000000000000000000000600052601260045260246000fd5b90610d7e565b9190565b908115610d89570490565b610d45565b610d9f610d9a83610532565b610532565b6020610daa60405190565b7f313ce56700000000000000000000000000000000000000000000000000000000815291829060049082905afa8015610e7f576101ce93610e2e92600092610e33575b50610e226000610e1c610e14610e0f610e0a610e289660076105d3565b610ce3565b6125ce565b9660056102b9565b016102d8565b91610d1c565b90610d32565b610d74565b610e289192506000610e1c610e14610e0f610e0a610e6b610e229660203d602011610e78575b610e6381836106a6565b810190610cba565b9796505050505050610ded565b503d610e59565b610cce565b906101b391610e9161265f565b610f14565b806101e9565b905051906101b382610e96565b906020828203126101a1576101ce91610e9c565b8015156101e9565b905051906101b382610ebd565b906020828203126101a1576101ce91610ec5565b73ffffffffffffffffffffffffffffffffffffffff90911681526040810192916101b39160200152565b0152565b90610f24610d9a610f7e92610532565b6020610f2f30610532565b6040517f70a0823100000000000000000000000000000000000000000000000000000000815273ffffffffffffffffffffffffffffffffffffffff909116600482015292839081906024820190565b0381845afa908115610e7f57610fc493602093600093611000575b506000610fa560405190565b809681958294610fb963a9059cbb60e01b90565b845260048401610ee6565b03925af18015610e7f57610fd55750565b610ff69060203d602011610ff9575b610fee81836106a6565b810190610ed2565b50565b503d610fe4565b611021919350843d8611611028575b61101981836106a6565b810190610ea9565b9138610f99565b503d61100f565b906101b391610e84565b6101b56101ce6101ce9290565b6101ce90611039565b9035907fffffffffffffffffffffffffffffffffffffffffffffffffffffffffffffffe136829003018212156101a1570180359067ffffffffffffffff82116101a1576020019160208202360383136101a157565b905051906101b3826101d1565b906020828203126101a1576101ce916110a4565b73ffffffffffffffffffffffffffffffffffffffff9182168152911660208201526060810192916101b39160400152565b90611105610e0a8360076105d3565b916000926111156101b585611046565b73ffffffffffffffffffffffffffffffffffffffff8216146113a4578161114b91611143604086018661104f565b9290916126e6565b90611159610d9a6001610ce3565b602061116460405190565b7ff2d6382600000000000000000000000000000000000000000000000000000000815291829060049082905afa908115610e7f576111ae91610d9a91600091611385575b50610532565b9060206111ba60405190565b7f99a5d7470000000000000000000000000000000000000000000000000000000081526004810185905292839060249082905afa918215610e7f57600092611357575b50602061120f610d9a61124e93610532565b9361121930610532565b60405193849283927f23b872dd00000000000000000000000000000000000000000000000000000000845233600485016110c5565b038188875af18015610e7f5761133a575b5061126d610d9a6001610ce3565b91602061127960405190565b7f3b19e84a00000000000000000000000000000000000000000000000000000000815293849060049082905afa8015610e7f576112d49560209460009261130b575b506040515b809781958294610fb963a9059cbb60e01b90565b03925af1918215610e7f576101b3926112ee575b506127e8565b6113069060203d602011610ff957610fee81836106a6565b6112e8565b61132c919250853d8711611333575b61132481836106a6565b8101906110b1565b90386112bb565b503d61131a565b6113529060203d602011610ff957610fee81836106a6565b61125f565b61124e91925061120f610d9a61137b602093843d86116110285761101981836106a6565b94935050506111fd565b61139e915060203d6020116113335761132481836106a6565b386111a8565b7fbbcbb6f30000000000000000000000000000000000000000000000000000000084528380600481015b0390fd5b6101ce6101ce6101ce9290565b6101ce90610e2e6114036000610e1c6113fb610e0f6003610ce3565b9460056102b9565b610e28670de0b6b3a76400006113d2565b6101b39061142061265f565b611451565b906109546107278361084a565b3d1561144c576114413d611425565b903d6000602084013e565b606090565b60008061147f9261146130610532565b3161146b60405190565b90818003925af161147a611432565b501590565b61148557565b7fbf961a28000000000000000000000000000000000000000000000000000000006000908152600490fd5b6101b390611414565b6114c161265f565b6101b36101b36114d16000611046565b612846565b6101b36114b9565b9035907fffffffffffffffffffffffffffffffffffffffffffffffffffffffffffffffa136829003018212156101a1570190565b356101ce81610197565b9061152b610e0a8360076105d3565b9160009261155861153e6101b586611046565b9173ffffffffffffffffffffffffffffffffffffffff1690565b146117375761157d816115786040611572818701876114de565b01611512565b610d8e565b9061158b610d9a6001610ce3565b602061159660405190565b7ff2d6382600000000000000000000000000000000000000000000000000000000815291829060049082905afa908115610e7f576115df91610d9a916000916113855750610532565b9060206115eb60405190565b7f99a5d7470000000000000000000000000000000000000000000000000000000081526004810185905292839060249082905afa918215610e7f57600092611709575b50602061120f610d9a61164093610532565b038188875af18015610e7f576116ec575b5061165f610d9a6001610ce3565b91602061166b60405190565b7f3b19e84a00000000000000000000000000000000000000000000000000000000815293849060049082905afa8015610e7f576116b59560209460009261130b57506040516112c0565b03925af1918215610e7f576101b3926116cf575b506129ca565b6116e79060203d602011610ff957610fee81836106a6565b6116c9565b6117049060203d602011610ff957610fee81836106a6565b611651565b61164091925061120f610d9a61172d602093843d86116110285761101981836106a6565b949350505061162e565b7fbbcbb6f3000000000000000000000000000000000000000000000000000000008352600483fd5b6117709061176b612b92565b611785565b6101b3612c09565b91908203918211610d2d57565b6117a5611795604083018361104f565b906117a06003610ce3565b612c3e565b80341061198357803411611932575b6117c1610d9a6001610ce3565b60206117cc60405190565b7ff2d6382600000000000000000000000000000000000000000000000000000000815291829060049082905afa918215610e7f5761181a610d9a6118549460209460009161191b5750610532565b604051938492839182917f99a5d7470000000000000000000000000000000000000000000000000000000083526004830190815260200190565b03915afa908115610e7f576000916118fc575b50611875610d9a6001610ce3565b90602061188160405190565b7f3b19e84a00000000000000000000000000000000000000000000000000000000815292839060049082905afa918215610e7f576118ce92600092839283926118db575b5060405161146b565b611485576101b3906127e8565b6118f591925060203d6020116113335761132481836106a6565b90386118c5565b611915915060203d6020116110285761101981836106a6565b38611867565b61139e9150853d87116113335761132481836106a6565b6119536000806119428434611778565b604051600091335af161147a611432565b156117b4577fbf961a28000000000000000000000000000000000000000000000000000000006000908152600490fd5b7f5945ea56000000000000000000000000000000000000000000000000000000006000908152600490fd5b6101b39061175f565b6101ce7f9016d09d72d40fdae2fd8ceac6b6234c7706214fd39c1cd1e609a0528c199300610ce3565b906101b392916119ee61265f565b611aae565b7f4e487b7100000000000000000000000000000000000000000000000000000000600052603260045260246000fd5b9190811015611a32576020020190565b6119f3565b356101ce81610e96565b90611a4a825190565b811015611a32576020809102010190565b6101ce90516102a6565b907fffffffffffffffffffffffffffffffffffffffffffffffffffffffffffffffff905b9181191691161790565b90611aa36101ce611aaa926113d2565b8254611a65565b9055565b929190611ab9845190565b92828403611b245760005b845b811015611b1c57611b1581611b0f611aea611ae5611ac6958989611a22565b611a37565b6000611b096005611b03611afe878f611a41565b611a5b565b906102b9565b01611a93565b60010190565b9050611ac4565b509350505050565b7fff633a38000000000000000000000000000000000000000000000000000000006000908152600490fd5b906101b392916119e0565b906101b39291611b6861265f565b611d46565b90357fffffffffffffffffffffffffffffffffffffffffffffffffffffffffffffffe136839003018112156101a157016020813591019167ffffffffffffffff82116101a1573682900383136101a157565b9190611bdd81611bd6816108859560209181520190565b8095610889565b601f017fffffffffffffffffffffffffffffffffffffffffffffffffffffffffffffffe01690565b506101ce9060208101906101a6565b610220906102b0565b906101ce906040611c6b611c61611c4660608501611c3b8880611b6d565b878303885290611bbf565b611c536020880188611b6d565b908683036020880152611bbf565b9482810190611c05565b910190611c14565b906101ce91611c1d565b90357fffffffffffffffffffffffffffffffffffffffffffffffffffffffffffffffa136839003018112156101a1570190565b818352916020019081611cc66020830284019490565b92836000925b848410611cdc5750505050505090565b9091929394956020611d08611d018385600195038852611cfc8b88611c7d565b611c73565b9860200190565b940194019294939190611ccc565b73ffffffffffffffffffffffffffffffffffffffff9190911681526040602082018190526101ce93910191611cb0565b9091611d528184612ca8565b611d5f610d9a6000610ce3565b803b156101a157611daa9360008094611d7760405190565b968795869485937f7bd0d60500000000000000000000000000000000000000000000000000000000855260048501611d16565b03925af18015610e7f57611dbb5750565b6101b3906000611dcb81836106a6565b81019061042f565b906101b39291611b5a565b906101b39291611dec61265f565b906101b39291612f8d565b906101b39291611dde565b6101ce9060401c6102e7565b6101ce9054611e02565b6101ce905b67ffffffffffffffff1690565b6101ce9054611e18565b611e1d6101ce6101ce9290565b9067ffffffffffffffff90611a89565b611e1d6101ce6101ce9267ffffffffffffffff1690565b90611e786101ce611aaa92611e51565b8254611e41565b9068ff00000000000000009060401b611a89565b90611ea36101ce611aaa92151590565b8254611e7f565b61022090611e34565b6020810192916101b39190611eaa565b97949192611eeb99969360009b989592611ef5611eef611ee1613082565b9e8f019d8e611e0e565b1590565b9c611e2a565b611eff6000611e34565b67ffffffffffffffff8216149081612020575b611f2d611f1f6001611e34565b9167ffffffffffffffff1690565b149081611ffb575b155b9081611ff2575b50611fc757611f679a8d8d611f5c611f566001611e34565b83611e68565b611fb5575b5061205b565b611f6e5750565b611f7a90600090611e93565b7fc7f505b2f371ae2175ee4913f4499e1f2633a7b5936321eed1cdaeb6115181d2611fa460405190565b80611fb0600182611eb3565b0390a1565b611fc190600190611e93565b8d611f61565b7ff92ee8a9000000000000000000000000000000000000000000000000000000006000908152600490fd5b15905038611f3e565b9050611f3761200930610532565b3b612017610d7a60006113d2565b14919050611f35565b8d9150611f12565b9073ffffffffffffffffffffffffffffffffffffffff90611a89565b906120546101ce611aaa92610532565b8254612028565b612070909b9a9998979695949392919b61309f565b6120786130bb565b60009a6120848c611046565b73ffffffffffffffffffffffffffffffffffffffff811673ffffffffffffffffffffffffffffffffffffffff85161490811561216b575b8115612135575b5061210d576101b39a9b6120f661210394610d9a6120ef6121089b9a999896610d9a6120fc976003612044565b6001612044565b90612044565b6002612044565b6131c1565b612f8d565b7f8579befe000000000000000000000000000000000000000000000000000000008c5260048cfd5b73ffffffffffffffffffffffffffffffffffffffff16905073ffffffffffffffffffffffffffffffffffffffff851614386120c2565b905073ffffffffffffffffffffffffffffffffffffffff811673ffffffffffffffffffffffffffffffffffffffff841614906120bb565b906101b39a999897969594939291611ec3565b906101b392916121c361265f565b9291906121ce845190565b92828403611b245760005b845b811015611b1c5761220e81611b0f6121fa611ae56121db958989611a22565b6001611b096005611b03611afe878f611a41565b90506121d9565b906101b392916121b5565b6117709061222c612b92565b6122406104ca6040611572818501856114de565b8034106119835780341161235a575b61225c610d9a6001610ce3565b602061226760405190565b7ff2d6382600000000000000000000000000000000000000000000000000000000815291829060049082905afa918215610e7f5761181a610d9a6122b59460209460009161191b5750610532565b03915afa908115610e7f5760009161233b575b506122d6610d9a6001610ce3565b9060206122e260405190565b7f3b19e84a00000000000000000000000000000000000000000000000000000000815292839060049082905afa918215610e7f5761232e92600092839283926118db575060405161146b565b611485576101b3906129ca565b612354915060203d6020116110285761101981836106a6565b386122c8565b61236a6000806119428434611778565b1561224f577fbf961a28000000000000000000000000000000000000000000000000000000006000908152600490fd5b6101b390612220565b906101b3949392916123b361265f565b91949390926123c0835190565b948686141580156124ab575b611b245760005b865b8110156124a157848861240f610d7a6101ce611ae5866124086002610e1c612402611afe8560059c611a41565b8a6102b9565b958d611a22565b116124765781611b0f876000611b0961246f95611b038f878f611ae58f9c8f9d6123d59e6124648c6001611b0961245e611afe88612458611ae5611afe9f83906124699f611a22565b95611a41565b8d6102b9565b611a22565b96611a41565b90506123d3565b7fd2955d3b000000000000000000000000000000000000000000000000000000006000908152600490fd5b5095505050505050565b50828614156123cc565b906101b3949392916123a3565b6101b3906124ce61265f565b60006124d981611046565b73ffffffffffffffffffffffffffffffffffffffff811673ffffffffffffffffffffffffffffffffffffffff8416146125175750506101b390612846565b7f1e4fbdf700000000000000000000000000000000000000000000000000000000825273ffffffffffffffffffffffffffffffffffffffff166004820152602490fd5b6101b3906124c2565b69ffffffffffffffffffff81166101e9565b905051906101b382612563565b919060a0838203126101a1576125988184612575565b926125a68260208301610e9c565b926101ce6125b78460408501610e9c565b9360806125c78260608701610e9c565b9401612575565b610d9a6125dd916111a8600090565b60a06125e860405190565b7ffeaf968c00000000000000000000000000000000000000000000000000000000815291829060049082905afa8015610e7f576101ce9160009161262d575b506113d2565b61264f915060a03d60a011612658575b61264781836106a6565b810190612582565b50505090612627565b503d61263d565b6126676119b7565b33906126728261153e565b0361267a5750565b7f118cdaa700000000000000000000000000000000000000000000000000000000600090815273ffffffffffffffffffffffffffffffffffffffff9091166004526024036000fd5b90821015611a325760206101ce92028101906114de565b91908201809211610d2d57565b9092916000928395612701610d9a6126fb8490565b97610532565b93602061270d60405190565b7f313ce56700000000000000000000000000000000000000000000000000000000815295869060049082905afa948515610e7f576000956127b5575b50612753906125ce565b94965b865b8810156127ab576127a361279c6127589261279689610e2e61278d60008f8c611b0360406115728f94610e1c956005956126c2565b610e288c610d1c565b906126d9565b9860010190565b979050612756565b9650945050505050565b6127589195506127d66127539160203d602011610e7857610e6381836106a6565b959150612749565b356101ce816101d1565b60408101906128006127fa838361104f565b90612ca8565b61280981613313565b61282c612819610d9a6000610ce3565b92612826602084016127de565b9261104f565b9092803b156101a157611daa9360008094611d7760405190565b6128866128807f9016d09d72d40fdae2fd8ceac6b6234c7706214fd39c1cd1e609a0528c199300610d9a8461287a83610ce3565b92612044565b91610532565b907f8be0079c531659141344cd1fd0a4f28419497f9722a3daafe3b4186f6b6457e06128b160405190565b600090a3565b9035907fffffffffffffffffffffffffffffffffffffffffffffffffffffffffffffffe136829003018212156101a1570180359067ffffffffffffffff82116101a157602001913682900383136101a157565b90916108859083908093610889565b61095490602094936108859361290a565b909161096e9061293960405190565b93849384612919565b90916101ce9261292a565b9060ff90611a89565b906129666101ce611aaa92151590565b825461294d565b73ffffffffffffffffffffffffffffffffffffffff90911681526101ce9160408201916020818403910152611c1d565b7fffffffffffffffffffffffffffffffffffffffffffffffffffffffffffffffff8114610d2d5760010190565b604081016129dd604061157283856114de565b6129f46129ea83856114de565b60208101906128b7565b9390600594612a15612a0b6002610e1c878a6102b9565b61279660016113d2565b612a2a610d7a6101ce6001610e1c898c6102b9565b11612b5d57612a446003612a3e86896102b9565b016102ed565b612afd575b5050612a5481613436565b612a77612a64610d9a6000610ce3565b93612a71602084016127de565b926114de565b833b156101a157612aae9360009283612a8f60405190565b809781958294612aa36382e2fc4760e01b90565b84526004840161296d565b03925af1908115610e7f576101b393600293612acf93612ae7575b506102b9565b01612ae1612adc826102d8565b61299d565b90611a93565b612af7906000611dcb81836106a6565b38612ac9565b612b11612b0c82846006612942565b6102ed565b612b3257612b26600191612b2b936006612942565b612956565b3880612a49565b7f0bee2d28000000000000000000000000000000000000000000000000000000006000908152600490fd5b7fc30436e9000000000000000000000000000000000000000000000000000000006000908152600490fd5b6101ce60026113d2565b7f9b779b17422d0df92223018b32b4d1fa46e071723d6817e2486d003becc55f00612bbc816102d8565b612bc4612b88565b908114612bd4576101b391611a93565b7f3ee5aeb5000000000000000000000000000000000000000000000000000000006000908152600490fd5b6101ce60016113d2565b6101b37f9b779b17422d0df92223018b32b4d1fa46e071723d6817e2486d003becc55f006000612c37612bff565b9101611a93565b91906000918294612c55612c4f8390565b956125ce565b93955b855b871015612c9f57612c97612c90612c5a9261279688610e2e6114036000610e1c8f611b0360408f928f90611572916005956126c2565b9760010190565b969050612c58565b95509350505050565b916000908290612cb7836113d2565b845b811015611b1c57612cd0604061157283868a6126c2565b612cde6129ea83868a6126c2565b90600591612cf16002610e1c86866102b9565b91612d01600193612796856113d2565b612d15610d7a6101ce86610e1c8a8a6102b9565b11612db457612d296003612a3e87876102b9565b612d4e575b50505091611b0f6002612acf612d4794612cb9966102b9565b9050612cb7565b6006612d5e612b0c848484612942565b612d8c5794612cb99694612d82611b0f95612b26600296612acf96612d479b612942565b9496509450612d2e565b7f0bee2d28000000000000000000000000000000000000000000000000000000008a5260048afd5b7fc30436e9000000000000000000000000000000000000000000000000000000008952600489fd5b8054821015611a3257612df6600191600052602060002090565b91020190600090565b91906008611a89910291612e327fffffffffffffffffffffffffffffffffffffffffffffffffffffffffffffffff841b90565b921b90565b9190612e486101ce611aaa936113d2565b908354612dff565b6101b391600091612e37565b818110612e67575050565b80612e756000600193612e50565b01612e5c565b919091828210612e8a57505050565b6101b39291612e9f9091600052602060002090565b9182019101612e5c565b906801000000000000000081116106e65781612ec66101b3935490565b90828155612e7b565b60006101b391612ea9565b7f4e487b7100000000000000000000000000000000000000000000000000000000600052600060045260246000fd5b90600003612f1a576101b390612ecf565b612eda565b91906008611a89910291612e3273ffffffffffffffffffffffffffffffffffffffff841b90565b9190612f576101ce611aaa93610532565b908354612f1f565b90815491680100000000000000008310156106e65782612f879160016101b395018155612ddc565b90612f46565b919092600893612f9b855490565b93600092835b865b811015612fe957612fe2612fa391611b0f612fbe6000611046565b612fdd8c612fd7612fd186600793612ddc565b9061045b565b906105d3565b612044565b9050612fa1565b5090919395929450612ffc600084612f09565b815194868603611b24575b855b8110156130795761307281611b0f61305a612fdd61306a613065858e61305f8d61305461303a8f9d6130099e611a41565b5173ffffffffffffffffffffffffffffffffffffffff1690565b97889190565b612f5f565b8d611a22565b6127de565b9160076105d3565b9050613007565b50945050505050565b6101ce6134ec565b6101b3906130966134f4565b6101b39061353c565b6101b39061308a565b6130b06134f4565b6101b36101b361354d565b6101b36130a8565b9190811015611a32576080020190565b905035906101b382610e96565b905035906101b382610ebd565b91906080838203126101a15761314090606061310960806106eb565b9461311483826130d3565b865261312383602083016130d3565b602087015261313583604083016130d3565b6040870152016130e0565b6060830152565b6101ce9036906130ed565b6101ce60806106eb565b60036131b060606101b39461317b613175600083015190565b86611a93565b613192613189602083015190565b60018701611a93565b6131a96131a0604083015190565b60028701611a93565b0151151590565b9101612956565b906101b39161315c565b9291906131cc845190565b92828403611b245760005b845b811015611b1c5761327381611b0f6131fd6131f86131d99589896130c3565b613147565b61325c613208825190565b9161325361324c61321a602084015190565b9261324761322d60606000930151151590565b94613240613239613152565b98848a0152565b6020880152565b6113d2565b6040850152565b15156060830152565b61326e6005611b03611afe868e611a41565b6131b7565b90506131d7565b67ffffffffffffffff81166101e9565b356101ce8161327a565b91613303916101b3969897956080956132ee6132fb946132d160a089019560008a019073ffffffffffffffffffffffffffffffffffffffff169052565b73ffffffffffffffffffffffffffffffffffffffff166020880152565b8583036040870152611cb0565b966060830152565b019067ffffffffffffffff169052565b6101b390613320816127de565b61332c602083016127de565b9161333960608201611a37565b6133456080830161328a565b9061339e8161338087876133748761336060408b018b61104f565b604051919791978896602088019687613294565b908103825203826106a6565b61339261338b825190565b9160200190565b209360a08101906128b7565b959094613577565b9460c09661341687613303976101b39c979b9e9d9b61340961342f986133ec61342499600060e0880197019073ffffffffffffffffffffffffffffffffffffffff169052565b73ffffffffffffffffffffffffffffffffffffffff1660208d0152565b8a830360408c0152611bbf565b918783036060890152611bbf565b986080850190611c14565b60a0830152565b6101b390613443816127de565b61344f602083016127de565b9161345c60608201611a37565b6134686080830161328a565b9061339e61347960408501856114de565b61338087876133748787604061348f88806128b7565b9190986134ab6134a260208301836128b7565b93909201611512565b926134b560405190565b9a8b9960208b01998a6133a6565b6101ce7ff0c57e16840df040f15088dc2f81fe391c3923bec73e23a9662efc9c229c6a006113d2565b6101ce6134c3565b6134ff611eeb6136e3565b61350557565b7fd7e6bcf8000000000000000000000000000000000000000000000000000000006000908152600490fd5b6101b3906124ce6134f4565b6101b390613530565b6117706134f4565b6101b3613545565b6101ce6101ce6101ce9267ffffffffffffffff1690565b6101ce913691610895565b9590949193929561358d61153e6101b530610532565b036136b8576004956135a76135a287896105d3565b6102d8565b85900361368e576135b790613555565b4211613664576101b56136149261360e61153e936136086135d86002610ce3565b977f19457468657265756d205369676e6564204d6573736167653a0a333200000000600052601c52603c60002090565b9261356c565b906136f6565b0361363a576101b3929161362f6136359261088560016113d2565b926105d3565b611a93565b7f8baa579f0000000000000000000000000000000000000000000000000000000060009081528390fd5b7f0819bdcd0000000000000000000000000000000000000000000000000000000060009081528690fd5b7f756688fe0000000000000000000000000000000000000000000000000000000060009081528790fd5b7fa3399df7000000000000000000000000000000000000000000000000000000006000908152600490fd5b6101ce60006136f0613082565b01611e0e565b6101ce916137039161370c565b9092919261378c565b90600091613718825190565b613725610d7a60416113d2565b0361374f5761374892506020820151906060604084015193015160001a906138b3565b9192909190565b5090506137676132476137626000611046565b925190565b909160029190565b600411156102a157565b906101b38261376f565b6101ce906113d2565b9060009161379983613779565b6137a282613779565b036137ac57505050565b6137b66001613779565b6137bf82613779565b036137ec577ff645eedf000000000000000000000000000000000000000000000000000000008352600483fd5b6137f66002613779565b6137ff82613779565b0361384157506113ce6138128392613783565b7ffce698f700000000000000000000000000000000000000000000000000000000835260048301526024820190565b61385461384e6003613779565b91613779565b1461385d575050565b7fd78bce0c0000000000000000000000000000000000000000000000000000000082526004820152602490fd5b610f106101b3946103586060949897956138a9608086019a6000870152565b60ff166020850152565b90916138be84613783565b6138ea610d7a7f7fffffffffffffffffffffffffffffff5d576e7357a4501ddfe92f46681b20a06113d2565b11613980579061390c6020946000949361390360405190565b9485948561388a565b838052039060015afa15610e7f5760005160009161392983611046565b73ffffffffffffffffffffffffffffffffffffffff811673ffffffffffffffffffffffffffffffffffffffff84161461396c5750613966836113d2565b91929190565b915091613978906113d2565b909160019190565b50505061398d6000611046565b916003919056fea26469706673582212206f3ceaebf2f706d85d08a398c6dfb7e0f2b8a57b6bd07aa5a9fc8f57447ef41664736f6c634300081e0033",
  "linkReferences": {},
  "deployedLinkReferences": {}
}