{
  "_format": "hh-sol-artifact-1",
  "contractName": "Treasury",
  "sourceName": "contracts/platform/Treasury.sol",
  "abi": [
    {
      "inputs": [],
      "name": "AccessControlBadConfirmation",
      "type": "error"
    },
    {
      "inputs": [
        {
          "internalType": "address",
          "name": "account",
          "type": "address"
        },
        {
          "internalType": "bytes32",
          "name": "neededRole",
          "type": "bytes32"
        }
      ],
      "name": "AccessControlUnauthorizedAccount",
      "type": "error"
    },
    {
      "inputs": [
        {
          "internalType": "address",
          "name": "target",
          "type": "address"
        }
      ],
      "name": "AddressEmptyCode",
      "type": "error"
    },
    {
      "inputs": [
        {
          "internalType": "address",
          "name": "implementation",
          "type": "address"
        }
      ],
      "name": "ERC1967InvalidImplementation",
      "type": "error"
    },
    {
      "inputs": [],
      "name": "ERC1967NonPayable",
      "type": "error"
    },
    {
      "inputs": [],
      "name": "FailedCall",
      "type": "error"
    },
    {
      "inputs": [],
      "name": "InvalidInitialization",
      "type": "error"
    },
    {
      "inputs": [],
      "name": "NotInitializing",
      "type": "error"
    },
    {
      "inputs": [],
      "name": "TransactionFailed",
      "type": "error"
    },
    {
      "inputs": [],
      "name": "UUPSUnauthorizedCallContext",
      "type": "error"
    },
    {
      "inputs": [
        {
          "internalType": "bytes32",
          "name": "slot",
          "type": "bytes32"
        }
      ],
      "name": "UUPSUnsupportedProxiableUUID",
      "type": "error"
    },
    {
      "anonymous": false,
      "inputs": [
        {
          "indexed": false,
          "internalType": "uint64",
          "name": "version",
          "type": "uint64"
        }
      ],
      "name": "Initialized",
      "type": "event"
    },
    {
      "anonymous": false,
      "inputs": [
        {
          "indexed": true,
          "internalType": "bytes32",
          "name": "role",
          "type": "bytes32"
        },
        {
          "indexed": true,
          "internalType": "bytes32",
          "name": "previousAdminRole",
          "type": "bytes32"
        },
        {
          "indexed": true,
          "internalType": "bytes32",
          "name": "newAdminRole",
          "type": "bytes32"
        }
      ],
      "name": "RoleAdminChanged",
      "type": "event"
    },
    {
      "anonymous": false,
      "inputs": [
        {
          "indexed": true,
          "internalType": "bytes32",
          "name": "role",
          "type": "bytes32"
        },
        {
          "indexed": true,
          "internalType": "address",
          "name": "account",
          "type": "address"
        },
        {
          "indexed": true,
          "internalType": "address",
          "name": "sender",
          "type": "address"
        }
      ],
      "name": "RoleGranted",
      "type": "event"
    },
    {
      "anonymous": false,
      "inputs": [
        {
          "indexed": true,
          "internalType": "bytes32",
          "name": "role",
          "type": "bytes32"
        },
        {
          "indexed": true,
          "internalType": "address",
          "name": "account",
          "type": "address"
        },
        {
          "indexed": true,
          "internalType": "address",
          "name": "sender",
          "type": "address"
        }
      ],
      "name": "RoleRevoked",
      "type": "event"
    },
    {
      "anonymous": false,
      "inputs": [
        {
          "indexed": true,
          "internalType": "address",
          "name": "implementation",
          "type": "address"
        }
      ],
      "name": "Upgraded",
      "type": "event"
    },
    {
      "inputs": [],
      "name": "DEFAULT_ADMIN_ROLE",
      "outputs": [
        {
          "internalType": "bytes32",
          "name": "",
          "type": "bytes32"
        }
      ],
      "stateMutability": "view",
      "type": "function"
    },
    {
      "inputs": [],
      "name": "UPGRADE_INTERFACE_VERSION",
      "outputs": [
        {
          "internalType": "string",
          "name": "",
          "type": "string"
        }
      ],
      "stateMutability": "view",
      "type": "function"
    },
    {
      "inputs": [],
      "name": "getImplementation",
      "outputs": [
        {
          "internalType": "address",
          "name": "",
          "type": "address"
        }
      ],
      "stateMutability": "view",
      "type": "function"
    },
    {
      "inputs": [
        {
          "internalType": "bytes32",
          "name": "role",
          "type": "bytes32"
        }
      ],
      "name": "getRoleAdmin",
      "outputs": [
        {
          "internalType": "bytes32",
          "name": "",
          "type": "bytes32"
        }
      ],
      "stateMutability": "view",
      "type": "function"
    },
    {
      "inputs": [
        {
          "internalType": "bytes32",
          "name": "role",
          "type": "bytes32"
        },
        {
          "internalType": "address",
          "name": "account",
          "type": "address"
        }
      ],
      "name": "grantRole",
      "outputs": [],
      "stateMutability": "nonpayable",
      "type": "function"
    },
    {
      "inputs": [
        {
          "internalType": "bytes32",
          "name": "role",
          "type": "bytes32"
        },
        {
          "internalType": "address",
          "name": "account",
          "type": "address"
        }
      ],
      "name": "hasRole",
      "outputs": [
        {
          "internalType": "bool",
          "name": "",
          "type": "bool"
        }
      ],
      "stateMutability": "view",
      "type": "function"
    },
    {
      "inputs": [],
      "name": "initialize",
      "outputs": [],
      "stateMutability": "nonpayable",
      "type": "function"
    },
    {
      "inputs": [],
      "name": "proxiableUUID",
      "outputs": [
        {
          "internalType": "bytes32",
          "name": "",
          "type": "bytes32"
        }
      ],
      "stateMutability": "view",
      "type": "function"
    },
    {
      "inputs": [
        {
          "internalType": "bytes32",
          "name": "role",
          "type": "bytes32"
        },
        {
          "internalType": "address",
          "name": "callerConfirmation",
          "type": "address"
        }
      ],
      "name": "renounceRole",
      "outputs": [],
      "stateMutability": "nonpayable",
      "type": "function"
    },
    {
      "inputs": [
        {
          "internalType": "bytes32",
          "name": "role",
          "type": "bytes32"
        },
        {
          "internalType": "address",
          "name": "account",
          "type": "address"
        }
      ],
      "name": "revokeRole",
      "outputs": [],
      "stateMutability": "nonpayable",
      "type": "function"
    },
    {
      "inputs": [
        {
          "internalType": "bytes4",
          "name": "interfaceId",
          "type": "bytes4"
        }
      ],
      "name": "supportsInterface",
      "outputs": [
        {
          "internalType": "bool",
          "name": "",
          "type": "bool"
        }
      ],
      "stateMutability": "view",
      "type": "function"
    },
    {
      "inputs": [
        {
          "internalType": "address",
          "name": "newImplementation",
          "type": "address"
        },
        {
          "internalType": "bytes",
          "name": "data",
          "type": "bytes"
        }
      ],
      "name": "upgradeToAndCall",
      "outputs": [],
      "stateMutability": "payable",
      "type": "function"
    },
    {
      "inputs": [
        {
          "internalType": "address",
          "name": "to",
          "type": "address"
        }
      ],
      "name": "withdrawETH",
      "outputs": [],
      "stateMutability": "nonpayable",
      "type": "function"
    },
    {
      "inputs": [
        {
          "internalType": "address",
          "name": "to",
          "type": "address"
        },
        {
          "internalType": "address",
          "name": "token",
          "type": "address"
        }
      ],
      "name": "withdrawToken",
      "outputs": [],
      "stateMutability": "nonpayable",
      "type": "function"
    },
    {
      "stateMutability": "payable",
      "type": "receive"
    }
  ],
  "bytecode": "0x60a06040523461003257610011610037565b60405161153a6101fd8239608051818181610f0b0152611145015261153a90f35b600080fd5b61003f610041565b565b610049610051565b61003f61011e565b61003f61003f61003f61003f61003f61009a565b6100799061007c906001600160a01b031682565b90565b6001600160a01b031690565b61007990610065565b61007990610088565b6100a330610091565b608052565b6100799060401c60ff1690565b61007990546100a8565b610079905b6001600160401b031690565b61007990546100bf565b610079906100c4906001600160401b031682565b906100fe61007961011a926100da565b82546001600160401b0319166001600160401b03919091161790565b9055565b60006101286101b6565b01610132816100b5565b6101a45761013f816100d0565b6001600160401b0391908290811603610156575050565b816101857fc7f505b2f371ae2175ee4913f4499e1f2633a7b5936321eed1cdaeb6115181d29361019f936100ee565b604051918291826001600160401b03909116815260200190565b0390a1565b63f92ee8a960e01b6000908152600490fd5b6100796101f4565b6100796100796100799290565b6100797ff0c57e16840df040f15088dc2f81fe391c3923bec73e23a9662efc9c229c6a006101be565b6100796101cb56fe6080604052600436101561001b575b361561001957600080fd5b005b60003560e01c806301ffc9a7146100fb578063248a9ca3146100f65780632f2ff15d146100f157806336568abe146100ec5780633aeac4e1146100e75780634f1ef286146100e257806352d1902d146100dd578063690d8320146100d85780638129fc1c146100d357806391d14854146100ce578063a217fddf146100c9578063aaf10f42146100c4578063ad3cb1cc146100bf5763d547741f0361000e57610621565b6105fa565b6104d5565b6104ba565b61047f565b610467565b61044f565b610420565b610401565b610295565b610260565b610242565b6101b2565b61015a565b7fffffffff0000000000000000000000000000000000000000000000000000000081165b0361012b57565b600080fd5b9050359061013d82610100565b565b9060208282031261012b5761015391610130565b90565b9052565b3461012b5761018761017561017036600461013f565b61063a565b60405191829182901515815260200190565b0390f35b80610124565b9050359061013d8261018b565b9060208282031261012b5761015391610191565b3461012b576101876101cd6101c836600461019e565b6106f7565b6040519182918290815260200190565b73ffffffffffffffffffffffffffffffffffffffff1690565b73ffffffffffffffffffffffffffffffffffffffff8116610124565b9050359061013d826101f6565b919060408382031261012b5761015390602061023b8286610191565b9401610212565b3461012b5761025b61025536600461021f565b9061075c565b604051005b3461012b5761025b61027336600461021f565b90610766565b919060408382031261012b5761015390602061023b8286610212565b3461012b5761025b6102a8366004610279565b906109d8565b7f4e487b7100000000000000000000000000000000000000000000000000000000600052604160045260246000fd5b90601f017fffffffffffffffffffffffffffffffffffffffffffffffffffffffffffffffe016810190811067ffffffffffffffff82111761031d57604052565b6102ae565b9061013d61032f60405190565b92836102dd565b67ffffffffffffffff811161031d57602090601f017fffffffffffffffffffffffffffffffffffffffffffffffffffffffffffffffe0160190565b0190565b90826000939282370152565b9092919261039661039182610336565b610322565b938185528183011161012b5761013d916020850190610375565b9080601f8301121561012b5781602061015393359101610381565b91909160408184031261012b576103e28382610212565b92602082013567ffffffffffffffff811161012b5761015392016103b0565b61025b61040f3660046103cb565b90610a02565b600091031261012b57565b3461012b57610430366004610415565b6101876101cd610a4f565b9060208282031261012b5761015391610212565b3461012b5761025b61046236600461043b565b610aeb565b3461012b57610477366004610415565b61025b610d17565b3461012b5761018761017561049536600461021f565b90610d3c565b6101536101536101539290565b610153600061049b565b6101536104a8565b3461012b576104ca366004610415565b6101876101cd6104b2565b3461012b576104e5366004610415565b6101876104f0610d84565b6040519182918273ffffffffffffffffffffffffffffffffffffffff909116815260200190565b9061052461039183610336565b918252565b6105336005610517565b7f352e302e30000000000000000000000000000000000000000000000000000000602082015290565b610153610529565b61015361055c565b610153610564565b60005b8381106105875750506000910152565b8181015183820152602001610577565b6105b86105c1602093610371936105ac815190565b80835293849260200190565b95869101610574565b601f017fffffffffffffffffffffffffffffffffffffffffffffffffffffffffffffffe01690565b602080825261015392910190610597565b3461012b5761060a366004610415565b61018761061561056c565b604051918291826105e9565b3461012b5761025b61063436600461021f565b90610da7565b7f7965db0b000000000000000000000000000000000000000000000000000000007fffffffff0000000000000000000000000000000000000000000000000000000082161490811561068a575090565b61015391507fffffffff00000000000000000000000000000000000000000000000000000000167f01ffc9a7000000000000000000000000000000000000000000000000000000001490565b905b600052602052604060002090565b6101539081565b61015390546106e6565b600161073361015392610708600090565b5060007f02dd7bc7dec4dceedda775e58dd541e08a116c6c53815c0bd028192f7b6268005b016106d6565b016106ed565b9061013d9161074f61074a826106f7565b610db1565b9061075991610ddc565b50565b9061013d91610739565b90610770336101dd565b73ffffffffffffffffffffffffffffffffffffffff8216036107955761075991610e81565b7f6697b23200000000000000000000000000000000000000000000000000000000600090815260045b036000fd5b6101537faf290d8680820aad922855f39b306097b20e28774d6c1ad35a20325630c3a02c61049b565b9061013d916107fc61074a6107c3565b6108b6565b6101dd6101536101539273ffffffffffffffffffffffffffffffffffffffff1690565b61015390610801565b61015390610824565b9050519061013d8261018b565b9060208282031261012b5761015391610836565b6040513d6000823e3d90fd5b801515610124565b9050519061013d82610863565b9060208282031261012b576101539161086b565b73ffffffffffffffffffffffffffffffffffffffff909116815260408101929161013d9160200152565b906108cb6108c66109259261082d565b61082d565b60206108d63061082d565b6040517f70a0823100000000000000000000000000000000000000000000000000000000815273ffffffffffffffffffffffffffffffffffffffff909116600482015292839081906024820190565b0381845afa9081156109a45761096b936020936000936109a9575b50600061094c60405190565b80968195829461096063a9059cbb60e01b90565b84526004840161088c565b03925af180156109a45761097c5750565b6107599060203d60201161099d575b61099581836102dd565b810190610878565b503d61098b565b610857565b6109ca919350843d86116109d1575b6109c281836102dd565b810190610843565b9138610940565b503d6109b8565b9061013d916107ec565b9061013d916109ef610f00565b9061013d916109fd81611002565b61100b565b9061013d916109e2565b61015390610a18611122565b610a46565b6101537f360894a13ba1a3210667c828492db98dca3e2076cc3735a920a3ca505d382bbc61049b565b50610153610a1d565b6101536000610a0c565b61013d90610a6861074a6107c3565b610a8c565b3d15610a8757610a7c3d610517565b903d6000602084013e565b606090565b600080610aba92610a9c3061082d565b31610aa660405190565b90818003925af1610ab5610a6d565b501590565b610ac057565b7fbf961a28000000000000000000000000000000000000000000000000000000006000908152600490fd5b61013d90610a59565b6101539060401c5b60ff1690565b6101539054610af4565b610153905b67ffffffffffffffff1690565b6101539054610b0c565b610b116101536101539290565b9067ffffffffffffffff905b9181191691161790565b610b116101536101539267ffffffffffffffff1690565b90610b72610153610b7992610b4b565b8254610b35565b9055565b9068ff00000000000000009060401b610b41565b90610ba1610153610b7992151590565b8254610b7d565b61015690610b28565b60208101929161013d9190610ba8565b610bc9611171565b80610be3610bdd610bd983610b02565b1590565b91610b1e565b600091610bef83610b28565b67ffffffffffffffff83161480610d08575b600192610c1e610c1085610b28565b9167ffffffffffffffff1690565b149081610ce0575b155b9081610cd7575b50610caf5780610c4b84610c4285610b28565b96019586610b62565b610ca0575b610c58610d0f565b610c6157505050565b610c8f610c9b927fc7f505b2f371ae2175ee4913f4499e1f2633a7b5936321eed1cdaeb6115181d294610b91565b60405191829182610bb1565b0390a1565b610caa8285610b91565b610c50565b7ff92ee8a9000000000000000000000000000000000000000000000000000000008352600483fd5b15905038610c2f565b9050610c28610cee3061082d565b3b610cff610cfb8761049b565b9190565b14919050610c26565b5080610c01565b61013d6111be565b61013d610bc1565b906106d89061082d565b61015390610afc565b6101539054610d29565b610153916000610d79610d7f93610d51600090565b50827f02dd7bc7dec4dceedda775e58dd541e08a116c6c53815c0bd028192f7b62680061072d565b01610d1f565b610d32565b6101536111d9565b9061013d91610d9d61074a826106f7565b9061075991610e81565b9061013d91610d8c565b61013d9033906111ef565b9060ff90610b41565b90610dd5610153610b7992151590565b8254610dbc565b7f02dd7bc7dec4dceedda775e58dd541e08a116c6c53815c0bd028192f7b626800610e0a610bd98484610d3c565b15610e79576001610e26846000610d798682610e2b97016106d6565b610dc5565b610e45610e3f610e39339390565b9361082d565b9161082d565b917f2f8788117e7eff1d82e926ec794901d17c78024a50270940304540a733656f0d610e7060405190565b600090a4600190565b505050600090565b7f02dd7bc7dec4dceedda775e58dd541e08a116c6c53815c0bd028192f7b626800610eac8383610d3c565b15610e79576000610e268482610d798682610ec797016106d6565b610ed5610e3f610e39339390565b917ff6391f5c32d9c69d2a47ea670b442974b53935d1edc7fd64eb21e047a839171b610e7060405190565b610f093061082d565b7f000000000000000000000000000000000000000000000000000000000000000090610f6073ffffffffffffffffffffffffffffffffffffffff83165b9173ffffffffffffffffffffffffffffffffffffffff1690565b14908115610f9b575b50610f7057565b7fe07c8dba000000000000000000000000000000000000000000000000000000006000908152600490fd5b9050610fc5610f46610fab6111d9565b9273ffffffffffffffffffffffffffffffffffffffff1690565b141538610f69565b6101537fa615a8afb6fffcb8c6809ac0997b5c9c12b8cc97651150f14c8f6203168cff4c61049b565b5061013d61074a610fcd565b61013d90610ff6565b906110186108c68361082d565b90602061102460405190565b7f52d1902d00000000000000000000000000000000000000000000000000000000815292839060049082905afa60009281611101575b506110b2575050600161106a5750565b7f4c9c8ce300000000000000000000000000000000000000000000000000000000600090815273ffffffffffffffffffffffffffffffffffffffff9091166004526024036000fd5b9092916110c0610153610a1d565b84036110d15761013d929350611237565b7faa1d49a40000000000000000000000000000000000000000000000000000000060009081526004859052602490fd5b61111b91935060203d6020116109d1576109c281836102dd565b913861105a565b61112b3061082d565b61116a73ffffffffffffffffffffffffffffffffffffffff7f000000000000000000000000000000000000000000000000000000000000000016610f46565b03610f7057565b6101536112c9565b6111816112d1565b61013d61118c611315565b611194611315565b6111a661119f6104a8565b3390610ddc565b506111b261119f610fcd565b5061075961119f6107c3565b61013d611179565b610153906101dd565b61015390546111c6565b61015360006111e9610153610a1d565b016111cf565b906111fd610bd98284610d3c565b611205575050565b7fe2517d3f000000000000000000000000000000000000000000000000000000006000908152916107be91600461088c565b9061124182611350565b61124a8261082d565b7fbc7cd75a20ee27fd9adebab32041f755214dbc6bffa90cc0225b39da2e5c2d3b61127460405190565b600090a28051611287610cfb600061049b565b111561129657610759916113fd565b505061013d6113c1565b6101537ff0c57e16840df040f15088dc2f81fe391c3923bec73e23a9662efc9c229c6a0061049b565b6101536112a0565b6112dc610bd9611424565b6112e257565b7fd7e6bcf8000000000000000000000000000000000000000000000000000000006000908152600490fd5b61013d6112d1565b61013d61130d565b9073ffffffffffffffffffffffffffffffffffffffff90610b41565b90611349610153610b799261082d565b825461131d565b6000813b611360610cfb8361049b565b1461137b579061013d91611375610153610a1d565b01611339565b7f4c9c8ce300000000000000000000000000000000000000000000000000000000815273ffffffffffffffffffffffffffffffffffffffff919091166004820152602490fd5b60006113cc8161049b565b34116113d55750565b7fb398979f000000000000000000000000000000000000000000000000000000008152600490fd5b6000806101539361140c606090565b50602081519101845af461141e610a6d565b91611437565b6101536000611431611171565b01610b02565b9061144257506114bc565b815190600091611454610cfb8461049b565b14806114a7575b61146457505090565b7f9996b31500000000000000000000000000000000000000000000000000000000825273ffffffffffffffffffffffffffffffffffffffff166004820152602490fd5b50803b6114b6610cfb8461049b565b1461145b565b80516000906114cd610cfb8361049b565b11156114dc5750805190602001fd5b7fd6bda275000000000000000000000000000000000000000000000000000000008152600490fdfea26469706673582212200d15b4c69100f8c2a6bc738744f7dd2ca4572e62da92faf3f74c798f7c31b73c64736f6c634300081e0033",
  "linkReferences": {},
  "deployedLinkReferences": {},
  "address": "0x2690926404E9BB3859fD7b6b85F34301cB120f59"
}