{
  "_format": "hh-sol-artifact-1",
  "contractName": "OrganizerRegistry",
  "sourceName": "contracts/platform/OrganizerRegistry.sol",
  "abi": [
    {
      "inputs": [],
      "name": "AccessControlBadConfirmation",
      "type": "error"
    },
    {
      "inputs": [
        {
          "internalType": "address",
          "name": "account",
          "type": "address"
        },
        {
          "internalType": "bytes32",
          "name": "neededRole",
          "type": "bytes32"
        }
      ],
      "name": "AccessControlUnauthorizedAccount",
      "type": "error"
    },
    {
      "inputs": [
        {
          "internalType": "address",
          "name": "target",
          "type": "address"
        }
      ],
      "name": "AddressEmptyCode",
      "type": "error"
    },
    {
      "inputs": [
        {
          "internalType": "address",
          "name": "implementation",
          "type": "address"
        }
      ],
      "name": "ERC1967InvalidImplementation",
      "type": "error"
    },
    {
      "inputs": [],
      "name": "ERC1967NonPayable",
      "type": "error"
    },
    {
      "inputs": [],
      "name": "FailedCall",
      "type": "error"
    },
    {
      "inputs": [],
      "name": "InvalidInitialization",
      "type": "error"
    },
    {
      "inputs": [],
      "name": "NotInitializing",
      "type": "error"
    },
    {
      "inputs": [],
      "name": "UUPSUnauthorizedCallContext",
      "type": "error"
    },
    {
      "inputs": [
        {
          "internalType": "bytes32",
          "name": "slot",
          "type": "bytes32"
        }
      ],
      "name": "UUPSUnsupportedProxiableUUID",
      "type": "error"
    },
    {
      "anonymous": false,
      "inputs": [
        {
          "indexed": false,
          "internalType": "uint64",
          "name": "version",
          "type": "uint64"
        }
      ],
      "name": "Initialized",
      "type": "event"
    },
    {
      "anonymous": false,
      "inputs": [
        {
          "indexed": true,
          "internalType": "bytes32",
          "name": "role",
          "type": "bytes32"
        },
        {
          "indexed": true,
          "internalType": "bytes32",
          "name": "previousAdminRole",
          "type": "bytes32"
        },
        {
          "indexed": true,
          "internalType": "bytes32",
          "name": "newAdminRole",
          "type": "bytes32"
        }
      ],
      "name": "RoleAdminChanged",
      "type": "event"
    },
    {
      "anonymous": false,
      "inputs": [
        {
          "indexed": true,
          "internalType": "bytes32",
          "name": "role",
          "type": "bytes32"
        },
        {
          "indexed": true,
          "internalType": "address",
          "name": "account",
          "type": "address"
        },
        {
          "indexed": true,
          "internalType": "address",
          "name": "sender",
          "type": "address"
        }
      ],
      "name": "RoleGranted",
      "type": "event"
    },
    {
      "anonymous": false,
      "inputs": [
        {
          "indexed": true,
          "internalType": "bytes32",
          "name": "role",
          "type": "bytes32"
        },
        {
          "indexed": true,
          "internalType": "address",
          "name": "account",
          "type": "address"
        },
        {
          "indexed": true,
          "internalType": "address",
          "name": "sender",
          "type": "address"
        }
      ],
      "name": "RoleRevoked",
      "type": "event"
    },
    {
      "anonymous": false,
      "inputs": [
        {
          "indexed": true,
          "internalType": "address",
          "name": "implementation",
          "type": "address"
        }
      ],
      "name": "Upgraded",
      "type": "event"
    },
    {
      "inputs": [],
      "name": "DEFAULT_ADMIN_ROLE",
      "outputs": [
        {
          "internalType": "bytes32",
          "name": "",
          "type": "bytes32"
        }
      ],
      "stateMutability": "view",
      "type": "function"
    },
    {
      "inputs": [],
      "name": "UPGRADE_INTERFACE_VERSION",
      "outputs": [
        {
          "internalType": "string",
          "name": "",
          "type": "string"
        }
      ],
      "stateMutability": "view",
      "type": "function"
    },
    {
      "inputs": [
        {
          "internalType": "address",
          "name": "user",
          "type": "address"
        }
      ],
      "name": "checkOrganizer",
      "outputs": [
        {
          "internalType": "bool",
          "name": "",
          "type": "bool"
        }
      ],
      "stateMutability": "view",
      "type": "function"
    },
    {
      "inputs": [],
      "name": "getImplementation",
      "outputs": [
        {
          "internalType": "address",
          "name": "",
          "type": "address"
        }
      ],
      "stateMutability": "view",
      "type": "function"
    },
    {
      "inputs": [
        {
          "internalType": "bytes32",
          "name": "role",
          "type": "bytes32"
        }
      ],
      "name": "getRoleAdmin",
      "outputs": [
        {
          "internalType": "bytes32",
          "name": "",
          "type": "bytes32"
        }
      ],
      "stateMutability": "view",
      "type": "function"
    },
    {
      "inputs": [
        {
          "internalType": "bytes32",
          "name": "role",
          "type": "bytes32"
        },
        {
          "internalType": "address",
          "name": "account",
          "type": "address"
        }
      ],
      "name": "grantRole",
      "outputs": [],
      "stateMutability": "nonpayable",
      "type": "function"
    },
    {
      "inputs": [
        {
          "internalType": "bytes32",
          "name": "role",
          "type": "bytes32"
        },
        {
          "internalType": "address",
          "name": "account",
          "type": "address"
        }
      ],
      "name": "hasRole",
      "outputs": [
        {
          "internalType": "bool",
          "name": "",
          "type": "bool"
        }
      ],
      "stateMutability": "view",
      "type": "function"
    },
    {
      "inputs": [],
      "name": "initialize",
      "outputs": [],
      "stateMutability": "nonpayable",
      "type": "function"
    },
    {
      "inputs": [],
      "name": "proxiableUUID",
      "outputs": [
        {
          "internalType": "bytes32",
          "name": "",
          "type": "bytes32"
        }
      ],
      "stateMutability": "view",
      "type": "function"
    },
    {
      "inputs": [
        {
          "internalType": "bytes32",
          "name": "role",
          "type": "bytes32"
        },
        {
          "internalType": "address",
          "name": "callerConfirmation",
          "type": "address"
        }
      ],
      "name": "renounceRole",
      "outputs": [],
      "stateMutability": "nonpayable",
      "type": "function"
    },
    {
      "inputs": [
        {
          "internalType": "bytes32",
          "name": "role",
          "type": "bytes32"
        },
        {
          "internalType": "address",
          "name": "account",
          "type": "address"
        }
      ],
      "name": "revokeRole",
      "outputs": [],
      "stateMutability": "nonpayable",
      "type": "function"
    },
    {
      "inputs": [
        {
          "internalType": "address",
          "name": "organizer",
          "type": "address"
        },
        {
          "internalType": "bool",
          "name": "approved",
          "type": "bool"
        }
      ],
      "name": "setOrganizer",
      "outputs": [],
      "stateMutability": "nonpayable",
      "type": "function"
    },
    {
      "inputs": [
        {
          "internalType": "bytes4",
          "name": "interfaceId",
          "type": "bytes4"
        }
      ],
      "name": "supportsInterface",
      "outputs": [
        {
          "internalType": "bool",
          "name": "",
          "type": "bool"
        }
      ],
      "stateMutability": "view",
      "type": "function"
    },
    {
      "inputs": [
        {
          "internalType": "address",
          "name": "newImplementation",
          "type": "address"
        },
        {
          "internalType": "bytes",
          "name": "data",
          "type": "bytes"
        }
      ],
      "name": "upgradeToAndCall",
      "outputs": [],
      "stateMutability": "payable",
      "type": "function"
    }
  ],
  "bytecode": "0x60a06040523461003257610011610037565b6040516110ea6101fd8239608051818181610b8b0152610d5601526110ea90f35b600080fd5b61003f610041565b565b610049610051565b61003f61011e565b61003f61003f61003f61003f61003f61009a565b6100799061007c906001600160a01b031682565b90565b6001600160a01b031690565b61007990610065565b61007990610088565b6100a330610091565b608052565b6100799060401c60ff1690565b61007990546100a8565b610079905b6001600160401b031690565b61007990546100bf565b610079906100c4906001600160401b031682565b906100fe61007961011a926100da565b82546001600160401b0319166001600160401b03919091161790565b9055565b60006101286101b6565b01610132816100b5565b6101a45761013f816100d0565b6001600160401b0391908290811603610156575050565b816101857fc7f505b2f371ae2175ee4913f4499e1f2633a7b5936321eed1cdaeb6115181d29361019f936100ee565b604051918291826001600160401b03909116815260200190565b0390a1565b63f92ee8a960e01b6000908152600490fd5b6100796101f4565b6100796100796100799290565b6100797ff0c57e16840df040f15088dc2f81fe391c3923bec73e23a9662efc9c229c6a006101be565b6100796101cb56fe6080604052600436101561001257600080fd5b60003560e01c806301ffc9a7146100f2578063248a9ca3146100ed5780632f2ff15d146100e857806336568abe146100e35780633a189674146100de5780634f1ef286146100d957806352d1902d146100d457806355a508b9146100cf5780638129fc1c146100ca57806391d14854146100c5578063a217fddf146100c0578063aaf10f42146100bb578063ad3cb1cc146100b65763d547741f0361010a5761056d565b610546565b610464565b610449565b61040e565b6103f6565b6103db565b6103ac565b61038d565b610276565b610225565b610207565b610191565b610139565b6001600160e01b031981165b0361010a57565b600080fd5b9050359061011c826100f7565b565b9060208282031261010a576101329161010f565b90565b9052565b3461010a5761016661015461014f36600461011e565b610586565b60405191829182901515815260200190565b0390f35b80610103565b9050359061011c8261016a565b9060208282031261010a5761013291610170565b3461010a576101666101ac6101a736600461017d565b6105e1565b6040519182918290815260200190565b6001600160a01b031690565b6001600160a01b038116610103565b9050359061011c826101c8565b919060408382031261010a576101329060206102008286610170565b94016101d7565b3461010a5761022061021a3660046101e4565b90610634565b604051005b3461010a576102206102383660046101e4565b9061063e565b801515610103565b9050359061011c8261023e565b919060408382031261010a5761013290602061026f82866101d7565b9401610246565b3461010a57610220610289366004610253565b90610749565b634e487b7160e01b600052604160045260246000fd5b90601f01601f1916810190811067ffffffffffffffff8211176102c757604052565b61028f565b9061011c6102d960405190565b92836102a5565b67ffffffffffffffff81116102c757602090601f01601f19160190565b0190565b90826000939282370152565b9092919261032261031d826102e0565b6102cc565b938185528183011161010a5761011c916020850190610301565b9080601f8301121561010a578160206101329335910161030d565b91909160408184031261010a5761036e83826101d7565b92602082013567ffffffffffffffff811161010a57610132920161033c565b61022061039b366004610357565b90610773565b600091031261010a57565b3461010a576103bc3660046103a1565b6101666101ac6107c0565b9060208282031261010a57610132916101d7565b3461010a576101666101546103f13660046103c7565b6107df565b3461010a576104063660046103a1565b610220610a1a565b3461010a576101666101546104243660046101e4565b90610a22565b6101326101326101329290565b610132600061042a565b610132610437565b3461010a576104593660046103a1565b6101666101ac610441565b3461010a576104743660046103a1565b61016661047f610a4d565b604051918291826001600160a01b03909116815260200190565b906104a661031d836102e0565b918252565b6104b56005610499565b640352e302e360dc1b602082015290565b6101326104ab565b6101326104c6565b6101326104ce565b60005b8381106104f15750506000910152565b81810151838201526020016104e1565b61052261052b6020936102fd93610516815190565b80835293849260200190565b958691016104de565b601f01601f191690565b602080825261013292910190610501565b3461010a576105563660046103a1565b6101666105616104d6565b60405191829182610535565b3461010a576102206105803660046101e4565b90610a70565b637965db0b60e01b6001600160e01b03198216149081156105a5575090565b61013291506001600160e01b0319166301ffc9a760e01b1490565b905b600052602052604060002090565b6101329081565b61013290546105d0565b600161060b610132926105f2600090565b5060006000805160206110958339815191525b016105c0565b016105d7565b9061011c91610627610622826105e1565b610a7a565b9061063191610a85565b50565b9061011c91610611565b90610648336101bc565b6001600160a01b038216036106605761063191610b13565b63334bd91960e11b600090815260045b036000fd5b6101327faf290d8680820aad922855f39b306097b20e28774d6c1ad35a20325630c3a02c61042a565b9061011c916106ae610622610675565b61070d565b610132906101bc906001600160a01b031682565b610132906106b3565b610132906106c7565b906105c2906106d0565b9060ff905b9181191691161790565b9061070261013261070992151590565b82546106e3565b9055565b9061074461011c92600061073e7f0e34be40f780293d810dbdc2a3771f1f7831fadb0251836c9fa67a6d52f2f3e790565b016106d9565b6106f2565b9061011c9161069e565b9061011c91610760610b80565b9061011c9161076e81610c42565b610c6c565b9061011c91610753565b61013290610789610d40565b6107b7565b6101327f360894a13ba1a3210667c828492db98dca3e2076cc3735a920a3ca505d382bbc61042a565b5061013261078e565b610132600061077d565b610132905b60ff1690565b61013290546107ca565b610817610132916107ee600090565b5060007f0e34be40f780293d810dbdc2a3771f1f7831fadb0251836c9fa67a6d52f2f3e761073e565b6107d5565b6101329060401c6107cf565b610132905461081c565b610132905b67ffffffffffffffff1690565b6101329054610832565b6108376101326101329290565b9067ffffffffffffffff906106e8565b6108376101326101329267ffffffffffffffff1690565b906108926101326107099261086b565b825461085b565b9068ff00000000000000009060401b6106e8565b906108bd61013261070992151590565b8254610899565b6101359061084e565b60208101929161011c91906108c4565b6108e5610d82565b806108ff6108f96108f583610828565b1590565b91610844565b60009161090b8361084e565b67ffffffffffffffff83161480610a0b575b60019261093a61092c8561084e565b9167ffffffffffffffff1690565b1490816109e3575b155b90816109da575b506109cb57806109678461095e8561084e565b96019586610882565b6109bc575b610974610a12565b61097d57505050565b6109ab6109b7927fc7f505b2f371ae2175ee4913f4499e1f2633a7b5936321eed1cdaeb6115181d2946108ad565b604051918291826108cd565b0390a1565b6109c682856108ad565b61096c565b63f92ee8a960e01b8352600483fd5b1590503861094b565b90506109446109f1306106d0565b3b610a026109fe8761042a565b9190565b14919050610942565b508061091d565b61011c610dcf565b61011c6108dd565b61013291600061073e61081793610a37600090565b5082600080516020611095833981519152610605565b610132610dea565b9061011c91610a66610622826105e1565b9061063191610b13565b9061011c91610a55565b61011c903390610e1d565b600080516020611095833981519152610aa16108f58484610a22565b15610b0b57600161074484600061073e8682610abd97016105c0565b610ad7610ad1610acb339390565b936106d0565b916106d0565b917f2f8788117e7eff1d82e926ec794901d17c78024a50270940304540a733656f0d610b0260405190565b600090a4600190565b505050600090565b600080516020611095833981519152610b2c8383610a22565b15610b0b576000610744848261073e8682610b4797016105c0565b610b55610ad1610acb339390565b917ff6391f5c32d9c69d2a47ea670b442974b53935d1edc7fd64eb21e047a839171b610b0260405190565b610b89306106d0565b7f000000000000000000000000000000000000000000000000000000000000000090610bc66001600160a01b0383165b916001600160a01b031690565b14908115610be8575b50610bd657565b63703e46dd60e11b6000908152600490fd5b9050610c05610bb9610bf8610dea565b926001600160a01b031690565b141538610bcf565b6101327fa615a8afb6fffcb8c6809ac0997b5c9c12b8cc97651150f14c8f6203168cff4c61042a565b5061011c610622610c0d565b61011c90610c36565b9050519061011c8261016a565b9060208282031261010a5761013291610c4b565b90610c7e610c79836106d0565b6106d0565b906020610c8a60405190565b6352d1902d60e01b815292839060049082905afa60009281610d0f575b50610cd95750506001610cb75750565b634c9c8ce360e01b60009081526001600160a01b039091166004526024036000fd5b909291610ce761013261078e565b8403610cf85761011c929350610e4c565b632a87526960e21b60009081526004859052602490fd5b610d3291935060203d602011610d39575b610d2a81836102a5565b810190610c58565b9138610ca7565b503d610d20565b610d49306106d0565b610d7b6001600160a01b037f000000000000000000000000000000000000000000000000000000000000000016610bb9565b03610bd657565b610132610ede565b610d92610ee6565b61011c610d9d610f11565b610da5610f11565b610db7610db0610437565b3390610a85565b50610dc3610db0610c0d565b50610631610db0610675565b61011c610d8a565b610132906101bc565b6101329054610dd7565b6101326000610dfa61013261078e565b01610de0565b6001600160a01b03909116815260408101929161011c9160200152565b90610e2b6108f58284610a22565b610e33575050565b63e2517d3f60e01b600090815291610670916004610e00565b90610e5682610f3f565b610e5f826106d0565b7fbc7cd75a20ee27fd9adebab32041f755214dbc6bffa90cc0225b39da2e5c2d3b610e8960405190565b600090a28051610e9c6109fe600061042a565b1115610eab5761063191610fcc565b505061011c610f8a565b6101327ff0c57e16840df040f15088dc2f81fe391c3923bec73e23a9662efc9c229c6a0061042a565b610132610eb5565b610ef16108f5610ff3565b610ef757565b631afcd79f60e31b6000908152600490fd5b61011c610ee6565b61011c610f09565b906001600160a01b03906106e8565b90610f38610132610709926106d0565b8254610f19565b6000813b610f4f6109fe8361042a565b14610f6a579061011c91610f6461013261078e565b01610f28565b634c9c8ce360e01b81526001600160a01b03919091166004820152602490fd5b6000610f958161042a565b3411610f9e5750565b63b398979f60e01b8152600490fd5b3d15610fc757610fbc3d610499565b903d6000602084013e565b606090565b60008061013293610fdb606090565b50602081519101845af4610fed610fad565b91611006565b6101326000611000610d82565b01610828565b906110115750611065565b8151906000916110236109fe8461042a565b1480611050575b61103357505090565b639996b31560e01b82526001600160a01b03166004820152602490fd5b50803b61105f6109fe8461042a565b1461102a565b80516000906110766109fe8361042a565b11156110855750805190602001fd5b63d6bda27560e01b8152600490fdfe02dd7bc7dec4dceedda775e58dd541e08a116c6c53815c0bd028192f7b626800a264697066735822122032723ff27e2c2866cbeb408555049a4fd1ad23d5be2cecafd26504ec2917053b64736f6c634300081e0033",
  "linkReferences": {},
  "deployedLinkReferences": {}
}