{
  "_format": "hh-sol-artifact-1",
  "contractName": "Ticket",
  "sourceName": "contracts/tickets/Ticket.sol",
  "abi": [
    {
      "inputs": [],
      "stateMutability": "nonpayable",
      "type": "constructor"
    },
    {
      "inputs": [],
      "name": "ApprovalCallerNotOwnerNorApproved",
      "type": "error"
    },
    {
      "inputs": [],
      "name": "ApprovalQueryForNonexistentToken",
      "type": "error"
    },
    {
      "inputs": [],
      "name": "BalanceQueryForZeroAddress",
      "type": "error"
    },
    {
      "inputs": [],
      "name": "InvalidInitialization",
      "type": "error"
    },
    {
      "inputs": [],
      "name": "InvalidTime",
      "type": "error"
    },
    {
      "inputs": [],
      "name": "LengthMismatch",
      "type": "error"
    },
    {
      "inputs": [],
      "name": "MintERC2309QuantityExceedsLimit",
      "type": "error"
    },
    {
      "inputs": [],
      "name": "MintToZeroAddress",
      "type": "error"
    },
    {
      "inputs": [],
      "name": "MintZeroQuantity",
      "type": "error"
    },
    {
      "inputs": [],
      "name": "NotCompatibleWithSpotMints",
      "type": "error"
    },
    {
      "inputs": [],
      "name": "NotInitializing",
      "type": "error"
    },
    {
      "inputs": [],
      "name": "OnlyTicketLaunchpad",
      "type": "error"
    },
    {
      "inputs": [
        {
          "internalType": "address",
          "name": "owner",
          "type": "address"
        }
      ],
      "name": "OwnableInvalidOwner",
      "type": "error"
    },
    {
      "inputs": [
        {
          "internalType": "address",
          "name": "account",
          "type": "address"
        }
      ],
      "name": "OwnableUnauthorizedAccount",
      "type": "error"
    },
    {
      "inputs": [],
      "name": "OwnerQueryForNonexistentToken",
      "type": "error"
    },
    {
      "inputs": [],
      "name": "OwnershipNotInitializedForExtraData",
      "type": "error"
    },
    {
      "inputs": [],
      "name": "SequentialMintExceedsLimit",
      "type": "error"
    },
    {
      "inputs": [],
      "name": "SequentialUpToTooSmall",
      "type": "error"
    },
    {
      "inputs": [],
      "name": "SpotMintTokenIdTooSmall",
      "type": "error"
    },
    {
      "inputs": [],
      "name": "TokenAlreadyExists",
      "type": "error"
    },
    {
      "inputs": [],
      "name": "TransferCallerNotOwnerNorApproved",
      "type": "error"
    },
    {
      "inputs": [],
      "name": "TransferFromIncorrectOwner",
      "type": "error"
    },
    {
      "inputs": [],
      "name": "TransferToNonERC721ReceiverImplementer",
      "type": "error"
    },
    {
      "inputs": [],
      "name": "TransferToZeroAddress",
      "type": "error"
    },
    {
      "inputs": [],
      "name": "URIQueryForNonexistentToken",
      "type": "error"
    },
    {
      "anonymous": false,
      "inputs": [
        {
          "indexed": true,
          "internalType": "address",
          "name": "owner",
          "type": "address"
        },
        {
          "indexed": true,
          "internalType": "address",
          "name": "approved",
          "type": "address"
        },
        {
          "indexed": true,
          "internalType": "uint256",
          "name": "tokenId",
          "type": "uint256"
        }
      ],
      "name": "Approval",
      "type": "event"
    },
    {
      "anonymous": false,
      "inputs": [
        {
          "indexed": true,
          "internalType": "address",
          "name": "owner",
          "type": "address"
        },
        {
          "indexed": true,
          "internalType": "address",
          "name": "operator",
          "type": "address"
        },
        {
          "indexed": false,
          "internalType": "bool",
          "name": "approved",
          "type": "bool"
        }
      ],
      "name": "ApprovalForAll",
      "type": "event"
    },
    {
      "anonymous": false,
      "inputs": [
        {
          "indexed": true,
          "internalType": "uint256",
          "name": "fromTokenId",
          "type": "uint256"
        },
        {
          "indexed": false,
          "internalType": "uint256",
          "name": "toTokenId",
          "type": "uint256"
        },
        {
          "indexed": true,
          "internalType": "address",
          "name": "from",
          "type": "address"
        },
        {
          "indexed": true,
          "internalType": "address",
          "name": "to",
          "type": "address"
        }
      ],
      "name": "ConsecutiveTransfer",
      "type": "event"
    },
    {
      "anonymous": false,
      "inputs": [
        {
          "indexed": false,
          "internalType": "uint64",
          "name": "version",
          "type": "uint64"
        }
      ],
      "name": "Initialized",
      "type": "event"
    },
    {
      "anonymous": false,
      "inputs": [
        {
          "indexed": true,
          "internalType": "address",
          "name": "previousOwner",
          "type": "address"
        },
        {
          "indexed": true,
          "internalType": "address",
          "name": "newOwner",
          "type": "address"
        }
      ],
      "name": "OwnershipTransferred",
      "type": "event"
    },
    {
      "anonymous": false,
      "inputs": [
        {
          "indexed": true,
          "internalType": "address",
          "name": "from",
          "type": "address"
        },
        {
          "indexed": true,
          "internalType": "address",
          "name": "to",
          "type": "address"
        },
        {
          "indexed": true,
          "internalType": "uint256",
          "name": "tokenId",
          "type": "uint256"
        }
      ],
      "name": "Transfer",
      "type": "event"
    },
    {
      "inputs": [
        {
          "internalType": "address",
          "name": "to",
          "type": "address"
        },
        {
          "internalType": "uint256",
          "name": "tokenId",
          "type": "uint256"
        }
      ],
      "name": "approve",
      "outputs": [],
      "stateMutability": "payable",
      "type": "function"
    },
    {
      "inputs": [
        {
          "internalType": "address",
          "name": "owner",
          "type": "address"
        }
      ],
      "name": "balanceOf",
      "outputs": [
        {
          "internalType": "uint256",
          "name": "",
          "type": "uint256"
        }
      ],
      "stateMutability": "view",
      "type": "function"
    },
    {
      "inputs": [
        {
          "internalType": "address",
          "name": "to",
          "type": "address"
        },
        {
          "components": [
            {
              "internalType": "string",
              "name": "section",
              "type": "string"
            },
            {
              "internalType": "string",
              "name": "seatNumber",
              "type": "string"
            },
            {
              "internalType": "enum Tier",
              "name": "tier",
              "type": "uint8"
            }
          ],
          "internalType": "struct Seat[]",
          "name": "seat",
          "type": "tuple[]"
        }
      ],
      "name": "batchMint",
      "outputs": [],
      "stateMutability": "nonpayable",
      "type": "function"
    },
    {
      "inputs": [
        {
          "internalType": "uint256",
          "name": "tokenId",
          "type": "uint256"
        }
      ],
      "name": "burn",
      "outputs": [],
      "stateMutability": "nonpayable",
      "type": "function"
    },
    {
      "inputs": [],
      "name": "description",
      "outputs": [
        {
          "internalType": "string",
          "name": "",
          "type": "string"
        }
      ],
      "stateMutability": "view",
      "type": "function"
    },
    {
      "inputs": [],
      "name": "endTime",
      "outputs": [
        {
          "internalType": "uint64",
          "name": "",
          "type": "uint64"
        }
      ],
      "stateMutability": "view",
      "type": "function"
    },
    {
      "inputs": [
        {
          "internalType": "uint256",
          "name": "tokenId",
          "type": "uint256"
        }
      ],
      "name": "getApproved",
      "outputs": [
        {
          "internalType": "address",
          "name": "",
          "type": "address"
        }
      ],
      "stateMutability": "view",
      "type": "function"
    },
    {
      "inputs": [
        {
          "internalType": "enum Tier",
          "name": "tier",
          "type": "uint8"
        }
      ],
      "name": "imageURIByTier",
      "outputs": [
        {
          "internalType": "string",
          "name": "imageURI",
          "type": "string"
        }
      ],
      "stateMutability": "view",
      "type": "function"
    },
    {
      "inputs": [
        {
          "internalType": "address",
          "name": "owner_",
          "type": "address"
        },
        {
          "internalType": "address",
          "name": "ticketLaunchpad_",
          "type": "address"
        },
        {
          "components": [
            {
              "internalType": "string",
              "name": "name",
              "type": "string"
            },
            {
              "internalType": "string",
              "name": "symbol",
              "type": "string"
            },
            {
              "internalType": "string",
              "name": "coverImageURI",
              "type": "string"
            },
            {
              "internalType": "string",
              "name": "description",
              "type": "string"
            },
            {
              "internalType": "string",
              "name": "location",
              "type": "string"
            },
            {
              "internalType": "uint64",
              "name": "startTime",
              "type": "uint64"
            },
            {
              "internalType": "uint64",
              "name": "endTime",
              "type": "uint64"
            }
          ],
          "internalType": "struct EventDetails",
          "name": "eventDetails_",
          "type": "tuple"
        },
        {
          "internalType": "enum Tier[]",
          "name": "tierIds",
          "type": "uint8[]"
        },
        {
          "internalType": "string[]",
          "name": "imageURIs",
          "type": "string[]"
        }
      ],
      "name": "initialize",
      "outputs": [],
      "stateMutability": "nonpayable",
      "type": "function"
    },
    {
      "inputs": [
        {
          "internalType": "address",
          "name": "owner",
          "type": "address"
        },
        {
          "internalType": "address",
          "name": "operator",
          "type": "address"
        }
      ],
      "name": "isApprovedForAll",
      "outputs": [
        {
          "internalType": "bool",
          "name": "",
          "type": "bool"
        }
      ],
      "stateMutability": "view",
      "type": "function"
    },
    {
      "inputs": [],
      "name": "location",
      "outputs": [
        {
          "internalType": "string",
          "name": "",
          "type": "string"
        }
      ],
      "stateMutability": "view",
      "type": "function"
    },
    {
      "inputs": [
        {
          "internalType": "address",
          "name": "to",
          "type": "address"
        },
        {
          "components": [
            {
              "internalType": "string",
              "name": "section",
              "type": "string"
            },
            {
              "internalType": "string",
              "name": "seatNumber",
              "type": "string"
            },
            {
              "internalType": "enum Tier",
              "name": "tier",
              "type": "uint8"
            }
          ],
          "internalType": "struct Seat",
          "name": "seat",
          "type": "tuple"
        }
      ],
      "name": "mint",
      "outputs": [],
      "stateMutability": "nonpayable",
      "type": "function"
    },
    {
      "inputs": [],
      "name": "name",
      "outputs": [
        {
          "internalType": "string",
          "name": "",
          "type": "string"
        }
      ],
      "stateMutability": "view",
      "type": "function"
    },
    {
      "inputs": [],
      "name": "owner",
      "outputs": [
        {
          "internalType": "address",
          "name": "",
          "type": "address"
        }
      ],
      "stateMutability": "view",
      "type": "function"
    },
    {
      "inputs": [
        {
          "internalType": "uint256",
          "name": "tokenId",
          "type": "uint256"
        }
      ],
      "name": "ownerOf",
      "outputs": [
        {
          "internalType": "address",
          "name": "",
          "type": "address"
        }
      ],
      "stateMutability": "view",
      "type": "function"
    },
    {
      "inputs": [],
      "name": "renounceOwnership",
      "outputs": [],
      "stateMutability": "nonpayable",
      "type": "function"
    },
    {
      "inputs": [
        {
          "internalType": "address",
          "name": "from",
          "type": "address"
        },
        {
          "internalType": "address",
          "name": "to",
          "type": "address"
        },
        {
          "internalType": "uint256",
          "name": "tokenId",
          "type": "uint256"
        }
      ],
      "name": "safeTransferFrom",
      "outputs": [],
      "stateMutability": "payable",
      "type": "function"
    },
    {
      "inputs": [
        {
          "internalType": "address",
          "name": "from",
          "type": "address"
        },
        {
          "internalType": "address",
          "name": "to",
          "type": "address"
        },
        {
          "internalType": "uint256",
          "name": "tokenId",
          "type": "uint256"
        },
        {
          "internalType": "bytes",
          "name": "_data",
          "type": "bytes"
        }
      ],
      "name": "safeTransferFrom",
      "outputs": [],
      "stateMutability": "payable",
      "type": "function"
    },
    {
      "inputs": [
        {
          "internalType": "uint256",
          "name": "tokenId",
          "type": "uint256"
        }
      ],
      "name": "seatsTokenId",
      "outputs": [
        {
          "internalType": "string",
          "name": "section",
          "type": "string"
        },
        {
          "internalType": "string",
          "name": "seatNumber",
          "type": "string"
        },
        {
          "internalType": "enum Tier",
          "name": "tier",
          "type": "uint8"
        }
      ],
      "stateMutability": "view",
      "type": "function"
    },
    {
      "inputs": [
        {
          "internalType": "address",
          "name": "operator",
          "type": "address"
        },
        {
          "internalType": "bool",
          "name": "approved",
          "type": "bool"
        }
      ],
      "name": "setApprovalForAll",
      "outputs": [],
      "stateMutability": "nonpayable",
      "type": "function"
    },
    {
      "inputs": [
        {
          "components": [
            {
              "internalType": "string",
              "name": "name",
              "type": "string"
            },
            {
              "internalType": "string",
              "name": "symbol",
              "type": "string"
            },
            {
              "internalType": "string",
              "name": "coverImageURI",
              "type": "string"
            },
            {
              "internalType": "string",
              "name": "description",
              "type": "string"
            },
            {
              "internalType": "string",
              "name": "location",
              "type": "string"
            },
            {
              "internalType": "uint64",
              "name": "startTime",
              "type": "uint64"
            },
            {
              "internalType": "uint64",
              "name": "endTime",
              "type": "uint64"
            }
          ],
          "internalType": "struct EventDetails",
          "name": "eventDetails_",
          "type": "tuple"
        }
      ],
      "name": "setEventDetails",
      "outputs": [],
      "stateMutability": "nonpayable",
      "type": "function"
    },
    {
      "inputs": [
        {
          "internalType": "enum Tier[]",
          "name": "tierIds",
          "type": "uint8[]"
        },
        {
          "internalType": "string[]",
          "name": "imageURIs",
          "type": "string[]"
        }
      ],
      "name": "setImageURIsByTier",
      "outputs": [],
      "stateMutability": "nonpayable",
      "type": "function"
    },
    {
      "inputs": [],
      "name": "startTime",
      "outputs": [
        {
          "internalType": "uint64",
          "name": "",
          "type": "uint64"
        }
      ],
      "stateMutability": "view",
      "type": "function"
    },
    {
      "inputs": [
        {
          "internalType": "bytes4",
          "name": "interfaceId",
          "type": "bytes4"
        }
      ],
      "name": "supportsInterface",
      "outputs": [
        {
          "internalType": "bool",
          "name": "",
          "type": "bool"
        }
      ],
      "stateMutability": "view",
      "type": "function"
    },
    {
      "inputs": [],
      "name": "symbol",
      "outputs": [
        {
          "internalType": "string",
          "name": "",
          "type": "string"
        }
      ],
      "stateMutability": "view",
      "type": "function"
    },
    {
      "inputs": [],
      "name": "ticketLaunchpad",
      "outputs": [
        {
          "internalType": "address",
          "name": "",
          "type": "address"
        }
      ],
      "stateMutability": "view",
      "type": "function"
    },
    {
      "inputs": [
        {
          "internalType": "uint256",
          "name": "tokenId",
          "type": "uint256"
        }
      ],
      "name": "tokenURI",
      "outputs": [
        {
          "internalType": "string",
          "name": "",
          "type": "string"
        }
      ],
      "stateMutability": "view",
      "type": "function"
    },
    {
      "inputs": [],
      "name": "totalSupply",
      "outputs": [
        {
          "internalType": "uint256",
          "name": "result",
          "type": "uint256"
        }
      ],
      "stateMutability": "view",
      "type": "function"
    },
    {
      "inputs": [
        {
          "internalType": "address",
          "name": "from",
          "type": "address"
        },
        {
          "internalType": "address",
          "name": "to",
          "type": "address"
        },
        {
          "internalType": "uint256",
          "name": "tokenId",
          "type": "uint256"
        }
      ],
      "name": "transferFrom",
      "outputs": [],
      "stateMutability": "payable",
      "type": "function"
    },
    {
      "inputs": [
        {
          "internalType": "address",
          "name": "newOwner",
          "type": "address"
        }
      ],
      "name": "transferOwnership",
      "outputs": [],
      "stateMutability": "nonpayable",
      "type": "function"
    }
  ],
  "bytecode": "0x60806040523461002257610011610027565b604051613022610189823961302290f35b600080fd5b61002f6100aa565b565b61003e9060401c60ff1690565b90565b61003e9054610031565b61003e905b6001600160401b031690565b61003e905461004b565b61003e90610050906001600160401b031682565b9061008a61003e6100a692610066565b82546001600160401b0319166001600160401b03919091161790565b9055565b60006100b4610142565b016100be81610041565b610130576100cb8161005c565b6001600160401b03919082908116036100e2575050565b816101117fc7f505b2f371ae2175ee4913f4499e1f2633a7b5936321eed1cdaeb6115181d29361012b9361007a565b604051918291826001600160401b03909116815260200190565b0390a1565b63f92ee8a960e01b6000908152600490fd5b61003e610180565b61003e61003e61003e9290565b61003e7ff0c57e16840df040f15088dc2f81fe391c3923bec73e23a9662efc9c229c6a0061014a565b61003e61015756fe6080604052600436101561001257600080fd5b60003560e01c806264a5a6146101f157806301ffc9a7146101ec57806306fdde03146101e7578063081812fc146101e2578063095ea7b3146101dd57806318160ddd146101d85780631f4b12ab146101d357806323b872dd146101ce5780633197cbb6146101c957806342842e0e146101c457806342966c68146101bf578063516f279e146101ba5780636352211e146101b557806370a08231146101b0578063715018a6146101ab5780637284e416146101a657806378e97925146101a15780637bd0d6051461019c57806382e2fc471461019757806384b8f110146101925780638da5cb5b1461018d57806395d89b4114610188578063a22cb46514610183578063b88d4fde1461017e578063be35e3ea14610179578063c87b56dd14610174578063e45946501461016f578063e985e9c51461016a578063ebb43782146101655763f2fde38b0361020057610c4b565b610c33565b610bf2565b610bb3565b610b50565b610b35565b610af4565b610a06565b6109b3565b610998565b61096e565b6108bb565b61085f565b61080f565b6107f4565b6107dc565b6107c1565b610792565b610777565b61075f565b61074b565b610716565b610702565b6106ba565b6105ca565b6105b1565b61053d565b6104ef565b6104b6565b610453565b6003111561020057565b600080fd5b90503590610212826101f6565b565b906020828203126102005761022891610205565b90565b634e487b7160e01b600052602160045260246000fd5b6003111561024b57565b61022b565b9061021282610241565b61022890610250565b9061026d9061025a565b600052602052604060002090565b634e487b7160e01b600052600060045260246000fd5b634e487b7160e01b600052602260045260246000fd5b90600160028304921680156102c7575b60208310146102c257565b610291565b91607f16916102b7565b805460009392916102ee6102e4836102a7565b8085529360200190565b9160018116908115610340575060011461030757505050565b61031a9192939450600052602060002090565b916000925b81841061032c5750500190565b80548484015260209093019260010161031f565b92949550505060ff1916825215156020020190565b90610228916102d1565b634e487b7160e01b600052604160045260246000fd5b90601f01601f191681019081106001600160401b0382111761039657604052565b61035f565b906102126103b5926103ac60405190565b93848092610355565b0383610375565b906000106103cd576102289061039b565b61027b565b60006103e2610228926008610263565b6103bc565b60005b8381106103fa5750506000910152565b81810151838201526020016103ea565b61042b61043460209361043e9361041f815190565b80835293849260200190565b958691016103e7565b601f01601f191690565b0190565b60208082526102289291019061040a565b346102005761047a61046e610469366004610214565b6103d2565b60405191829182610442565b0390f35b6001600160e01b031981165b0361020057565b905035906102128261047e565b906020828203126102005761022891610491565b9052565b346102005761047a6104d16104cc36600461049e565b610c83565b6040515b91829182901515815260200190565b600091031261020057565b34610200576104ff3660046104e4565b61047a61046e610cfc565b8061048a565b905035906102128261050a565b906020828203126102005761022891610510565b6001600160a01b031690565b346102005761047a61055861055336600461051d565b610d19565b604051918291826001600160a01b03909116815260200190565b6001600160a01b03811661048a565b9050359061021282610572565b9190604083820312610200576102289060206105aa8286610581565b9401610510565b6105c56105bf36600461058e565b90610d66565b604051005b34610200576105da3660046104e4565b61047a6105e5610d83565b6040519182918290815260200190565b908160e09103126102005790565b909182601f83011215610200578135916001600160401b03831161020057602001926020830284011161020057565b909160a082840312610200576106488383610581565b926106568160208501610581565b9260408101356001600160401b03811161020057826106769183016105f5565b9260608201356001600160401b0381116102005783610696918401610603565b92909360808201356001600160401b038111610200576106b69201610603565b9091565b34610200576105c56106cd366004610632565b9594909493919361150d565b9091606082840312610200576102286106f28484610581565b9360406105aa8260208701610581565b6105c56107103660046106d9565b91611583565b34610200576107263660046104e4565b61047a61073161180b565b604051918291826001600160401b03909116815260200190565b6105c56107593660046106d9565b91611839565b34610200576105c561077236600461051d565b61184d565b34610200576107873660046104e4565b61047a61046e611858565b346102005761047a6105586107a836600461051d565b611862565b906020828203126102005761022891610581565b346102005761047a6105e56107d73660046107ad565b611898565b34610200576107ec3660046104e4565b6105c561190e565b34610200576108043660046104e4565b61047a61046e611916565b346102005761081f3660046104e4565b61047a610731611920565b919091604081840312610200576108418382610581565b9260208201356001600160401b038111610200576106b69201610603565b34610200576105c561087236600461082a565b91611965565b908160609103126102005790565b9190916040818403126102005761089d8382610581565b9260208201356001600160401b038111610200576102289201610878565b34610200576105c56108ce366004610886565b90611a28565b6102286102286102289290565b9061026d906108d4565b610228905b60ff1690565b61022890546108eb565b61090b9060076108e1565b6109148161039b565b9161022860026109266001850161039b565b93016108f6565b6104b29061025a565b93929061096661021293610958604093606089019089820360008b015261040a565b90878203602089015261040a565b94019061092d565b346102005761047a61098961098436600461051d565b610900565b60405191939193849384610936565b34610200576109a83660046104e4565b61047a610558611a32565b34610200576109c33660046104e4565b61047a61046e611a5d565b80151561048a565b90503590610212826109ce565b9190604083820312610200576102289060206109ff8286610581565b94016109d6565b34610200576105c5610a193660046109e3565b90611a67565b90610212610a2c60405190565b9283610375565b6001600160401b03811161039657602090601f01601f19160190565b90826000939282370152565b90929192610a70610a6b82610a33565b610a1f565b938185528183011161020057610212916020850190610a4f565b9080601f830112156102005781602061022893359101610a5b565b9060808282031261020057610aba8183610581565b92610ac88260208501610581565b92610ad68360408301610510565b9260608201356001600160401b038111610200576102289201610a8a565b6105c5610b02366004610aa5565b92919091611ade565b610228916008021c6001600160a01b031690565b906102289154610b0b565b610228600080610b1f565b3461020057610b453660046104e4565b61047a610558610b2a565b346102005761047a61046e610b6636600461051d565b611e73565b90916040828403126102005781356001600160401b0381116102005783610b93918401610603565b92909360208201356001600160401b038111610200576106b69201610603565b34610200576105c5610bc6366004610b6b565b92919091611f5d565b919060408382031261020057610228906020610beb8286610581565b9401610581565b346102005761047a6104d1610c08366004610bcf565b90611f69565b906020828203126102005781356001600160401b0381116102005761022892016105f5565b34610200576105c5610c46366004610c0e565b611fd6565b34610200576105c5610c5e3660046107ad565b612037565b610c76610c706102289290565b60e01b90565b6001600160e01b03191690565b610c906301ffc9a7610c63565b6001600160e01b0319821614908115610cd2575b8115610cae575090565b9050610cce610cc0635b5e139f610c63565b916001600160e01b03191690565b1490565b9050610ce16380ac58cd610c63565b6001600160e01b031982161490610ca4565b6102289061039b565b6102286001610cf3565b61022890610531565b6102289054610d06565b610d29610d2582612075565b1590565b610d59576000610d53610228926006610d4d600080516020612fad83398151915290565b016108e1565b01610d0f565b6333d1c03960e21b612113565b6102129160019161211c565b6102289081565b6102289054610d72565b600080516020612fad83398151915290610dbb610db3610da284610d79565b610dae60018601610d79565b900390565b610dae6121d4565b8092610dc660001990565b60001990610dd3565b9190565b03610ddc575050565b610228929350600861043e9101610d79565b6102289060401c6108f0565b6102289054610dee565b610228905b6001600160401b031690565b6102289054610e04565b610e096102286102289290565b61022890610531906001600160a01b031682565b61022890610e2c565b61022890610e40565b906001600160401b03905b9181191691161790565b610e09610228610228926001600160401b031690565b90610e8d610228610e9492610e67565b8254610e52565b9055565b9068ff00000000000000009060401b610e5d565b90610ebc610228610e9492151590565b8254610e98565b6104b290610e1f565b6020810192916102129190610ec3565b9695909394929192610eec6121de565b958693610f04610efe610d2587610dfa565b95610e15565b95600097610f1189610e1f565b6001600160401b0389161480611010575b600198610f3e610f318b610e1f565b916001600160401b031690565b149081610fec575b155b9081610fe3575b50610fd45788999a9b87610f748a9b610f6b610f7d9b9c610e1f565b9e019d8e610e7d565b610fc5576110e3565b610f8657505050565b610fb4610fc0927fc7f505b2f371ae2175ee4913f4499e1f2633a7b5936321eed1cdaeb6115181d294610eac565b60405191829182610ecc565b0390a1565b610fcf8a8d610eac565b6110e3565b63f92ee8a960e01b8952600489fd5b15905038610f4f565b9050610f48610ffa30610e49565b3b611007610dcf8d6108d4565b14919050610f46565b5086610f22565b6102289060081c6108f0565b6102289054611017565b1561103457565b60405162461bcd60e51b815260206004820152603760248201527f455243373231415f5f496e697469616c697a61626c653a20636f6e747261637460448201527f20697320616c726561647920696e697469616c697a65640000000000000000006064820152608490fd5b9061ff009060081b610e5d565b906110bc610228610e9492151590565b825461109f565b9060ff90610e5d565b906110dc610228610e9492151590565b82546110c3565b94919261113c94919693611102600080516020612fcd83398151915290565b97889761110e89611023565b1561116a5761112361111e6121e6565b61102d565b61112f610d258a611023565b988961114f575b50611192565b6111435750565b610212906000906110ac565b60018161115f82611164946110ac565b6110cc565b38611136565b61112361111e610d258c6108f6565b6001600160401b03811661048a565b3561022881611179565b9594939291906111a460a08301611188565b6111b6610f31610e0960c08601611188565b116111c457610212966114a0565b6337bf561360e11b6000908152600490fd5b903590601e19368290030182121561020057018035906001600160401b038211610200576020019136829003831361020057565b610228913691610a5b565b906001600160a01b0390610e5d565b90611234610228610e9492610e49565b8254611215565b9160001960089290920291821b911b610e5d565b9190611260610228610e94936108d4565b90835461123b565b6102129160009161124f565b81811061127f575050565b8061128d6000600193611268565b01611274565b9190601f81116112a257505050565b6112b461021293600052602060002090565b906020601f8401819004830193106112d6575b6020601f909101040190611274565b90915081906112c7565b91906001600160401b03821161039657611304826112fe85546102a7565b85611293565b600090601f831160011461133f57610e94929160009183611334575b5050600019600883021c1916906002021790565b013590503880611320565b90601f1983169161135585600052602060002090565b92825b81811061139357509160029391856001969410611379575b50505002019055565b0135600019601f84166008021c19165b9055388080611370565b92936020600181928786013581550195019301611358565b9061021292916112e0565b906fffffffffffffffff00000000000000009060401b610e5d565b906113e1610228610e9492610e67565b82546113b6565b9061149060c060056102129461140b61140460008701876111d6565b90836113ab565b61142561141b60208701876111d6565b90600184016113ab565b61143f61143560408701876111d6565b90600284016113ab565b61145961144f60608701876111d6565b90600384016113ab565b61147361146960808701876111d6565b90600484016113ab565b019261148a61148460a08301611188565b85610e7d565b01611188565b906113d1565b90610212916113e8565b91611501611508926114fa61021299989796956114ed6114e76114c660008801886111d6565b6114e16114d960208b959495018b6111d6565b92909461120a565b9261120a565b90612298565b6114f56122c9565b6122e6565b6000611224565b6001611496565b612331565b90610212969594939291610edc565b6102289081906001600160a01b031681565b6102286001600160a01b036108d4565b6105316102286102289290565b9061026d90610e49565b9060001990610e5d565b9061156f610228610e94926108d4565b8254611555565b610228600160e11b6108d4565b9190916115a061159b611595846123b3565b92610e40565b61151c565b916115bc6115b76115af61152e565b80951661153e565b610e40565b936115c96115b78461153e565b6115e46001600160a01b0387165b916001600160a01b031690565b036117e95784926115f4836124b3565b336001600160a01b038716811482821417156117ba575b50610dcf95949361172c97936117009361159b936117b0575b50600080516020612fad8339815191529061169a611688847f2569078dfb4b0305704d3008e7403993ae9601b85f7ae5e742de3de8f8011c4561168361166a8d8361154b565b61167d61167682610d79565b6000190190565b9061155f565b61154b565b61167d61169482610d79565b60010190565b6116c66116b082856116aa611576565b9b61253c565b4260a01b908a17176001600160a01b0385161790565b6116dd60048401916116d88a846108e1565b61155f565b6000986116f26116ec8b6108d4565b91841690565b14611740575b505050610e40565b1680957fddf252ad1be2c89b69c2b068fc378daa952ba7f163c4a11628f55a4df523b3ef8480a46108d4565b1461173357565b633a954ecd60e21b612113565b8861175361174e60016108d4565b8a0190565b9361176661176186856108e1565b610d79565b611772610dcf846108d4565b1461177f575b50506116f8565b61178d916102289101610d79565b830361179b575b8881611778565b6117a8926116d8916108e1565b388080611794565b6000905538611624565b610d25906117cc929894969597611f69565b6117dc578694929391953861160b565b632ce44b5f60e11b612113565b62a1148160e81b612113565b6102289060401c610e09565b61022890546117f5565b6102286006611801565b90611822610a6b83610a33565b918252565b6102286000611815565b610228611827565b909161021292611847611831565b92611ade565b600161021291612585565b6102286005610cf3565b6115b761187a61022892611874600090565b506123b3565b61153e565b6102289061153e565b6102286001600160401b036108d4565b6118a5610531600061187f565b6001600160a01b038216146118e4576117616118d89160056118d2600080516020612fad83398151915290565b0161154b565b6118e0611888565b1690565b6323d3ad8160e21b612113565b6118f9612782565b610212610212611909600061187f565b6127bf565b6102126118f1565b6102286004610cf3565b6102286006610e15565b91906119396105316000610d0f565b3303611948576102129261195a565b6302dae24760e31b6000908152600490fd5b90610212929161286d565b90610212929161192a565b9061197e6105316000610d0f565b330361194857610212916119fa565b35610228816101f6565b906110dc610228610e949261025a565b60026119e96040610212946119c96119c260008301836111d6565b90876113ab565b6119e36119d960208301836111d6565b90600188016113ab565b0161198d565b9101611997565b90610212916119a7565b611a1861021292611a13611a0c6128c7565b60076108e1565b6119f0565b611a2260016108d4565b906128de565b9061021291611970565b61022860007f9016d09d72d40fdae2fd8ceac6b6234c7706214fd39c1cd1e609a0528c199300610d53565b6102286002610cf3565b7f17307eab39ab6107e8899845ad3d59bd9653f200f220920489ca2b5937696c31611ad9611acf611ac933611ac48761115f88611683857f2569078dfb4b0305704d3008e7403993ae9601b85f7ae5e742de3de8f8011c4761154b565b610e49565b93610e49565b936104d560405190565b0390a3565b91929092611aed818585611583565b833b611afc610dcf60006108d4565b03611b08575b50505050565b611b1593610d2593612974565b611b225738808080611b02565b6368d2bf6b60e11b612113565b610228610228610228926001600160401b031690565b80546000939291611b5c611b58836102a7565b9390565b9160018116908115611bad5750600114611b7557505050565b611b889192939450600052602060002090565b6000905b838210611b995750500190565b600181602092548486015201910190611b8c565b60ff191683525050811515909102019150565b61043e611bd892602092611bd2815190565b94859290565b938491016103e7565b611e5898611c61611d78611d096102289e9b611c74611e659f99611d09611c749e611c61611e099f611dfb9f611d1891611c749f611dac9f611d099f611c98611d0995611c61611ca7611c98611d4f9e611c61611c7a611c619a611c74611c67611cd69c611c61611cbc9d683d913730b6b2911d1160b91b815260090190565b90611b45565b602360f81b815260010190565b90611bc0565b71111610113232b9b1b934b83a34b7b7111d1160711b815260120190565b6201116160ed1b815260030190565b681134b6b0b3b2911d1160b91b815260090190565b6d2261747472696275746573223a5b60901b8152600e0190565b7f7b2274726169745f74797065223a2253656374696f6e222c2276616c7565223a8152601160f91b602082015260210190565b62089f4b60ea1b815260030190565b7f7b2274726169745f74797065223a2253656174204e756d626572222c2276616c8152643ab2911d1160d91b602082015260250190565b7f7b2274726169745f74797065223a2254696572222c2276616c7565223a2200008152601e0190565b7f7b2274726169745f74797065223a224c6f636174696f6e222c2276616c7565228152611d1160f11b602082015260220190565b7f7b2274726169745f74797065223a2253746172742054696d65222c226469737081527f6c61795f74797065223a2264617465222c2276616c7565223a00000000000000602082015260390190565b611f4b60f21b815260020190565b7f7b2274726169745f74797065223a22456e642054696d65222c22646973706c6181527f795f74797065223a2264617465222c2276616c7565223a000000000000000000602082015260370190565b607d60f81b815260010190565b615d7d60f01b815260020190565b611e7f610d2582612075565b611f355761022890816001611e986102288460076108e1565b92611f29611ea96000840192612a3e565b9260038101956002810191611ec7611ec0846108f6565b6008610263565b926001830190611edf90611eda906108f6565b612af0565b90600560048401930193611f11611f06611f01611f0b611f06611f018a610e15565b611b2f565b612a3e565b97611801565b95611f1b60405190565b9b8c9a60208c019a8b611be1565b90810382520382610375565b630a14c4b560e41b612113565b90610212939291611f51612782565b90610212939291612331565b90610212939291611f42565b61022891611683611f9392611f7c600090565b506007600080516020612fad8339815191526118d2565b6108f6565b61021290611fa4612782565b611fb060a08201611188565b611fc2610f31610e0960c08501611188565b116111c45761021290610212906001611496565b61021290611f98565b61021290611feb612782565b6000611ff68161187f565b6001600160a01b0381166001600160a01b0384161461201a575050610212906127bf565b631e4fbdf760e01b82526001600160a01b03166004820152602490fd5b61021290611fdf565b634e487b7160e01b600052601160045260246000fd5b8015612063576000190190565b612040565b610228600160e01b6108d4565b906000916120816121d4565b81101561208b5750565b600080516020612fad8339815191526120a661022882610d79565b82106120b0575050565b9192505b6120c461176182600485016108e1565b806120d2610dcf60006108d4565b036120f657506117616004926120ea6120c493612056565b90935091506120b49050565b915050610cce612104612068565b61210e60006108d4565b921690565b60005260046000fd5b9161212682611862565b90806121b9575b61219a575b612163611ac961216992611ac486600061215d886006610d4d600080516020612fad83398151915290565b01611224565b916108d4565b917f8c5be1e5ebec7d5bd14f71427d1e84f3dd0314c0f7b2291e5b200ac8c7c3b92561219460405190565b600090a4565b6121a7610d253383611f69565b15612132576367d9dca160e11b612113565b50336121cd6001600160a01b0383166115d7565b141561212d565b61022860006108d4565b610228612b83565b6121ef30610e49565b3b610cce610dcf60006108d4565b1561220457565b60405162461bcd60e51b815260206004820152603460248201527f455243373231415f5f496e697469616c697a61626c653a20636f6e7472616374604482015273206973206e6f7420696e697469616c697a696e6760601b6064820152608490fd5b610212919061228e6122896000600080516020612fcd8339815191525b01611023565b6121fd565b9061021291612ceb565b9061021291612266565b6122be6122896000600080516020612fcd833981519152612283565b610212610212612d11565b6102126122a2565b610212906122dd612d19565b61021290612d48565b610212906122d1565b634e487b7160e01b600052603260045260246000fd5b9082101561231c5760206106b692028101906111d6565b6122ef565b919081101561231c576020020190565b9093929091849382850361239e5761234960006108d4565b855b8110156123955761238e81611694818a6123898a61238361237e61237361234b9a8e8e612305565b969095600894612321565b61198d565b90610263565b6113ab565b9050612349565b50945050505050565b6001621398b960e31b03196000908152600490fd5b6123bb6121d4565b8110156123d0575b636f96cda160e11b612113565b600080516020612fad8339815191527f2569078dfb4b0305704d3008e7403993ae9601b85f7ae5e742de3de8f8011c4461240d61176184836108e1565b9260009261241a846108d4565b85146124455750505061243d612437612431612068565b926108d4565b91831690565b036123c35790565b8361245892939495506102289101610d79565b8110156123c357909190600019015b9161247561176184836108e1565b9261247f836108d4565b84146124a7575050612495612437612431612068565b1461022857636f96cda160e11b612113565b90925060001901612467565b6102286124d9916124c2600090565b506006600080516020612fad833981519152610d4d565b90815490565b61022860e86108d4565b610228906124fa610dcf6102289490565b901c90565b61250c6102286102289290565b62ffffff1690565b6102286102286102289262ffffff1690565b61022890612537610dcf6102289490565b901b90565b612571612576916102289493612550600090565b5061256b61256661255f6124df565b80976124e9565b6124ff565b91612d51565b612514565b612526565b61022860806108d4565b61258e816123b3565b9161259b6115b78461153e565b906125a5836124b3565b9091612745575b926126ae612163611ac96125e595610212989560019861273b575b506125e96125d361257b565b6125dc8a6108d4565b98899182612526565b0390565b600080516020612fad83398151915297906126359061167d61262b857f2569078dfb4b0305704d3008e7403993ae9601b85f7ae5e742de3de8f8011c4561154b565b9161043e83610d79565b61263d612068565b96612646611576565b8098179760009261267a6126598561187f565b9a612665858d8961253c565b4260a01b9117176001600160a01b0387161790565b9161268d60048d01936116d88c866108e1565b61269f612699866108d4565b91851690565b146126ea575b50505050610e49565b917fddf252ad1be2c89b69c2b068fc378daa952ba7f163c4a11628f55a4df523b3ef6126d960405190565b600090a40161167d61169482610d79565b8801926126fa61176185846108e1565b612706610dcf836108d4565b036126a557610228612719918c01610d79565b8303612726575b806126a5565b612733926116d8916108e1565b388080612720565b60009055386125c7565b336001600160a01b03841681148282141715612762575b506125ac565b610d2561277491859794969395611f69565b6117dc57929093913861275c565b61278a611a32565b3390612795826115d7565b0361279d5750565b63118cdaa760e01b60009081526001600160a01b039091166004526024036000fd5b6127ff6127f97f9016d09d72d40fdae2fd8ceac6b6234c7706214fd39c1cd1e609a0528c199300611ac4846127f383610d0f565b92611224565b91610e49565b907f8be0079c531659141344cd1fd0a4f28419497f9722a3daafe3b4186f6b6457e061282a60405190565b8080611ad9565b903590605e193682900301821215610200570190565b9082101561231c5760206102289202810190612831565b60001981146120635760010190565b919081936128796128c7565b9461288460006108d4565b818110156128b8578061169461289e6128b3938888612847565b611a1360079a6128ad8161285e565b9b6108e1565b612884565b509250935050610212916128de565b610228600080516020612fad833981519152610d79565b610212916128ea611831565b91612d5c565b905051906102128261047e565b9060208282031261020057610228916128f0565b6001600160a01b0391821681529116602082015260408101919091526080606082018190526102289291019061040a565b610c76610c706102289263ffffffff1690565b3d1561296f576129643d611815565b903d6000602084013e565b606090565b90939291602090612989611ac4600097610e49565b63150b7a02936000336129ba61299e60405190565b988996879586946129af8c60e01b90565b865260048601612911565b03925af160009281612a0d575b506129fa57505060016129d657565b6129de612955565b80516129ed610dcf60006108d4565b14611b2257805190602001fd5b610cce91929350610c76610cc091612942565b612a3091935060203d602011612a37575b612a288183610375565b8101906128fd565b91386129c7565b503d612a1e565b90602060a06040510180604052039160008352600a60018492945b0393818106603001855304928315612a75576001600a91612a59565b809350602091039203918252565b612a8d6003611815565b6205649560ec1b602082015290565b610228612a83565b612aae6008611815565b6714d510539110549160c21b602082015290565b610228612aa4565b612ad46008611815565b675354414e44494e4760c01b602082015290565b610228612aca565b612afa6000610250565b612b0382610250565b14612b5157612b126001610250565b612b1b82610250565b14612b4857612b33612b2d6002610250565b91610250565b14612b4057610228611831565b610228612ae8565b50610228612ac2565b50610228612a9c565b6102287ff0c57e16840df040f15088dc2f81fe391c3923bec73e23a9662efc9c229c6a006108d4565b610228612b5a565b6102129190612bac6122896000600080516020612fcd833981519152612283565b612c80565b90612bba815190565b906001600160401b03821161039657612bd7826112fe85546102a7565b602090601f8311600114612c1157610e94929160009183612c06575050600019600883021c1916906002021790565b015190503880611320565b601f19831691612c2685600052602060002090565b9260005b818110612c5e57509160029391856001969410612c4a5750505002019055565b01516000196008601f8516021c1916611389565b91936020600181928787015181550195019201612c2a565b9061021291612bb1565b612cc690612cb5600093612cac612ca2600080516020612fad83398151915290565b9360028501612c76565b60038301612c76565b612cbd6121d4565b9283910161155f565b612cd7610dcf6000199290565b9290565b10612cde57565b63fed8210f60e01b612113565b9061021291612b8b565b6102126122896000600080516020612fcd833981519152612283565b610212612cf5565b612d24610d25612e16565b612d2a57565b631afcd79f60e31b6000908152600490fd5b61021290611feb612d19565b61021290612d3c565b505050610228600090565b612d668282612e33565b6000813b612d76610dcf836108d4565b03612d815750505050565b9091929381612d9b600080516020612fad83398151915290565b0193612daf612da986610d79565b91820390565b9460015b15612de8575b83612dd6610d2589612dca8861187f565b9989600182019b612974565b15612db3576368d2bf6b60e11b612113565b818610612db957610dcf929650612e06939550612cd3919450610d79565b03612e1357808080611b02565b80fd5b6102286000612e236121de565b01610dfa565b61022860406108d4565b909190600080516020612fad83398151915290612e4f82610d79565b91600091612e5c836108d4565b8614612f9f578086612eb9612eac612e7a612ee39a60011460e11b90565b612e97612e868961187f565b612e8f8a6108d4565b97889161253c565b4260a01b9117176001600160a01b0385161790565b6116d888600488016108e1565b612ef961159b6001936115b7612ee9612ed0612e29565b612eda60016108d4565b9d8e9182612526565b17860290565b61167d61262b8460058c0161154b565b612f0161152e565b16928314612f9357612f169086019597860390565b612f21600019610dcf565b11612f86576001815b612f3e575b5050506102129394500161155f565b15612f74575b83908783867fddf252ad1be2c89b69c2b068fc378daa952ba7f163c4a11628f55a4df523b3ef8180a49081612f2a565b9560010195848703612f445780612f2f565b6340b23f1d60e11b612113565b622e076360e81b612113565b63b562e8dd60e01b61211356fe2569078dfb4b0305704d3008e7403993ae9601b85f7ae5e742de3de8f8011c40ee151c8401928dc223602bb187aff91b9a56c7cae5476ef1b3287b085a16c85fa26469706673582212202c7b5c7de5f41f7d2324652bf9f1b3a421d8a3e55f88eace6aa7aabad479b79264736f6c634300081e0033",
  "linkReferences": {},
  "deployedLinkReferences": {}
}