{
  "_format": "hh-sol-artifact-1",
  "contractName": "TicketLaunchpad",
  "sourceName": "contracts/markets/TicketLaunchpad.sol",
  "abi": [
    {
      "inputs": [],
      "stateMutability": "nonpayable",
      "type": "constructor"
    },
    {
      "inputs": [],
      "name": "ECDSAInvalidSignature",
      "type": "error"
    },
    {
      "inputs": [
        {
          "internalType": "uint256",
          "name": "length",
          "type": "uint256"
        }
      ],
      "name": "ECDSAInvalidSignatureLength",
      "type": "error"
    },
    {
      "inputs": [
        {
          "internalType": "bytes32",
          "name": "s",
          "type": "bytes32"
        }
      ],
      "name": "ECDSAInvalidSignatureS",
      "type": "error"
    },
    {
      "inputs": [],
      "name": "ExceedsMaxSupply",
      "type": "error"
    },
    {
      "inputs": [],
      "name": "InsufficientAmount",
      "type": "error"
    },
    {
      "inputs": [],
      "name": "InvalidInitialization",
      "type": "error"
    },
    {
      "inputs": [],
      "name": "InvalidNonce",
      "type": "error"
    },
    {
      "inputs": [],
      "name": "InvalidSignature",
      "type": "error"
    },
    {
      "inputs": [],
      "name": "LaunchpadMismatch",
      "type": "error"
    },
    {
      "inputs": [],
      "name": "LengthMismatch",
      "type": "error"
    },
    {
      "inputs": [],
      "name": "NewMaxSupplyTooLow",
      "type": "error"
    },
    {
      "inputs": [],
      "name": "NotInitializing",
      "type": "error"
    },
    {
      "inputs": [
        {
          "internalType": "address",
          "name": "owner",
          "type": "address"
        }
      ],
      "name": "OwnableInvalidOwner",
      "type": "error"
    },
    {
      "inputs": [
        {
          "internalType": "address",
          "name": "account",
          "type": "address"
        }
      ],
      "name": "OwnableUnauthorizedAccount",
      "type": "error"
    },
    {
      "inputs": [],
      "name": "ReentrancyGuardReentrantCall",
      "type": "error"
    },
    {
      "inputs": [],
      "name": "SeatAlreadyClaimed",
      "type": "error"
    },
    {
      "inputs": [],
      "name": "SignatureExpired",
      "type": "error"
    },
    {
      "inputs": [],
      "name": "TransactionFailed",
      "type": "error"
    },
    {
      "inputs": [],
      "name": "UnacceptablePayment",
      "type": "error"
    },
    {
      "inputs": [],
      "name": "ZeroAddressNotAllowed",
      "type": "error"
    },
    {
      "anonymous": false,
      "inputs": [
        {
          "indexed": false,
          "internalType": "uint64",
          "name": "version",
          "type": "uint64"
        }
      ],
      "name": "Initialized",
      "type": "event"
    },
    {
      "anonymous": false,
      "inputs": [
        {
          "indexed": true,
          "internalType": "address",
          "name": "previousOwner",
          "type": "address"
        },
        {
          "indexed": true,
          "internalType": "address",
          "name": "newOwner",
          "type": "address"
        }
      ],
      "name": "OwnershipTransferred",
      "type": "event"
    },
    {
      "inputs": [
        {
          "internalType": "address",
          "name": "to",
          "type": "address"
        },
        {
          "components": [
            {
              "internalType": "string",
              "name": "section",
              "type": "string"
            },
            {
              "internalType": "string",
              "name": "seatNumber",
              "type": "string"
            },
            {
              "internalType": "enum Tier",
              "name": "tier",
              "type": "uint8"
            }
          ],
          "internalType": "struct Seat[]",
          "name": "seats",
          "type": "tuple[]"
        }
      ],
      "name": "adminMint",
      "outputs": [],
      "stateMutability": "nonpayable",
      "type": "function"
    },
    {
      "inputs": [
        {
          "internalType": "string",
          "name": "seatNumber",
          "type": "string"
        }
      ],
      "name": "claimedSeatNumbers",
      "outputs": [
        {
          "internalType": "bool",
          "name": "used",
          "type": "bool"
        }
      ],
      "stateMutability": "view",
      "type": "function"
    },
    {
      "inputs": [],
      "name": "config",
      "outputs": [
        {
          "internalType": "contract IConfig",
          "name": "",
          "type": "address"
        }
      ],
      "stateMutability": "view",
      "type": "function"
    },
    {
      "inputs": [],
      "name": "ethUsdPriceFeed",
      "outputs": [
        {
          "internalType": "address",
          "name": "",
          "type": "address"
        }
      ],
      "stateMutability": "view",
      "type": "function"
    },
    {
      "inputs": [
        {
          "internalType": "enum Tier",
          "name": "tier",
          "type": "uint8"
        }
      ],
      "name": "getPriceInETH",
      "outputs": [
        {
          "internalType": "uint256",
          "name": "",
          "type": "uint256"
        }
      ],
      "stateMutability": "view",
      "type": "function"
    },
    {
      "inputs": [
        {
          "internalType": "enum Tier",
          "name": "tier",
          "type": "uint8"
        },
        {
          "internalType": "address",
          "name": "paymentToken",
          "type": "address"
        }
      ],
      "name": "getPriceInToken",
      "outputs": [
        {
          "internalType": "uint256",
          "name": "",
          "type": "uint256"
        }
      ],
      "stateMutability": "view",
      "type": "function"
    },
    {
      "inputs": [
        {
          "internalType": "address",
          "name": "owner",
          "type": "address"
        },
        {
          "internalType": "address",
          "name": "ethUsdPriceFeed_",
          "type": "address"
        },
        {
          "internalType": "address",
          "name": "config_",
          "type": "address"
        },
        {
          "internalType": "address",
          "name": "ticket_",
          "type": "address"
        },
        {
          "internalType": "address",
          "name": "authorizedSigner_",
          "type": "address"
        },
        {
          "internalType": "enum Tier[]",
          "name": "tierIds",
          "type": "uint8[]"
        },
        {
          "components": [
            {
              "internalType": "uint256",
              "name": "priceUSD",
              "type": "uint256"
            },
            {
              "internalType": "uint256",
              "name": "maxSupply",
              "type": "uint256"
            },
            {
              "internalType": "uint256",
              "name": "sold",
              "type": "uint256"
            },
            {
              "internalType": "bool",
              "name": "hasSeatNumbers",
              "type": "bool"
            }
          ],
          "internalType": "struct TierInfo[]",
          "name": "tierInfoList",
          "type": "tuple[]"
        },
        {
          "internalType": "address[]",
          "name": "paymentTokens",
          "type": "address[]"
        },
        {
          "internalType": "address[]",
          "name": "priceFeeds",
          "type": "address[]"
        }
      ],
      "name": "initialize",
      "outputs": [],
      "stateMutability": "nonpayable",
      "type": "function"
    },
    {
      "inputs": [
        {
          "internalType": "address",
          "name": "user",
          "type": "address"
        }
      ],
      "name": "nonces",
      "outputs": [
        {
          "internalType": "uint256",
          "name": "nonce",
          "type": "uint256"
        }
      ],
      "stateMutability": "view",
      "type": "function"
    },
    {
      "inputs": [],
      "name": "owner",
      "outputs": [
        {
          "internalType": "address",
          "name": "",
          "type": "address"
        }
      ],
      "stateMutability": "view",
      "type": "function"
    },
    {
      "inputs": [
        {
          "components": [
            {
              "internalType": "address",
              "name": "launchpad",
              "type": "address"
            },
            {
              "internalType": "address",
              "name": "to",
              "type": "address"
            },
            {
              "components": [
                {
                  "internalType": "string",
                  "name": "section",
                  "type": "string"
                },
                {
                  "internalType": "string",
                  "name": "seatNumber",
                  "type": "string"
                },
                {
                  "internalType": "enum Tier",
                  "name": "tier",
                  "type": "uint8"
                }
              ],
              "internalType": "struct Seat[]",
              "name": "seats",
              "type": "tuple[]"
            },
            {
              "internalType": "uint256",
              "name": "nonce",
              "type": "uint256"
            },
            {
              "internalType": "uint64",
              "name": "deadline",
              "type": "uint64"
            },
            {
              "internalType": "bytes",
              "name": "signature",
              "type": "bytes"
            }
          ],
          "internalType": "struct MintBatchSignatureParams",
          "name": "params",
          "type": "tuple"
        }
      ],
      "name": "payBatchWithETH",
      "outputs": [],
      "stateMutability": "payable",
      "type": "function"
    },
    {
      "inputs": [
        {
          "internalType": "address",
          "name": "paymentToken",
          "type": "address"
        },
        {
          "components": [
            {
              "internalType": "address",
              "name": "launchpad",
              "type": "address"
            },
            {
              "internalType": "address",
              "name": "to",
              "type": "address"
            },
            {
              "components": [
                {
                  "internalType": "string",
                  "name": "section",
                  "type": "string"
                },
                {
                  "internalType": "string",
                  "name": "seatNumber",
                  "type": "string"
                },
                {
                  "internalType": "enum Tier",
                  "name": "tier",
                  "type": "uint8"
                }
              ],
              "internalType": "struct Seat[]",
              "name": "seats",
              "type": "tuple[]"
            },
            {
              "internalType": "uint256",
              "name": "nonce",
              "type": "uint256"
            },
            {
              "internalType": "uint64",
              "name": "deadline",
              "type": "uint64"
            },
            {
              "internalType": "bytes",
              "name": "signature",
              "type": "bytes"
            }
          ],
          "internalType": "struct MintBatchSignatureParams",
          "name": "params",
          "type": "tuple"
        }
      ],
      "name": "payBatchWithToken",
      "outputs": [],
      "stateMutability": "nonpayable",
      "type": "function"
    },
    {
      "inputs": [
        {
          "components": [
            {
              "internalType": "address",
              "name": "launchpad",
              "type": "address"
            },
            {
              "internalType": "address",
              "name": "to",
              "type": "address"
            },
            {
              "components": [
                {
                  "internalType": "string",
                  "name": "section",
                  "type": "string"
                },
                {
                  "internalType": "string",
                  "name": "seatNumber",
                  "type": "string"
                },
                {
                  "internalType": "enum Tier",
                  "name": "tier",
                  "type": "uint8"
                }
              ],
              "internalType": "struct Seat",
              "name": "seat",
              "type": "tuple"
            },
            {
              "internalType": "uint256",
              "name": "nonce",
              "type": "uint256"
            },
            {
              "internalType": "uint64",
              "name": "deadline",
              "type": "uint64"
            },
            {
              "internalType": "bytes",
              "name": "signature",
              "type": "bytes"
            }
          ],
          "internalType": "struct MintSignatureParams",
          "name": "params",
          "type": "tuple"
        }
      ],
      "name": "payWithETH",
      "outputs": [],
      "stateMutability": "payable",
      "type": "function"
    },
    {
      "inputs": [
        {
          "internalType": "address",
          "name": "paymentToken",
          "type": "address"
        },
        {
          "components": [
            {
              "internalType": "address",
              "name": "launchpad",
              "type": "address"
            },
            {
              "internalType": "address",
              "name": "to",
              "type": "address"
            },
            {
              "components": [
                {
                  "internalType": "string",
                  "name": "section",
                  "type": "string"
                },
                {
                  "internalType": "string",
                  "name": "seatNumber",
                  "type": "string"
                },
                {
                  "internalType": "enum Tier",
                  "name": "tier",
                  "type": "uint8"
                }
              ],
              "internalType": "struct Seat",
              "name": "seat",
              "type": "tuple"
            },
            {
              "internalType": "uint256",
              "name": "nonce",
              "type": "uint256"
            },
            {
              "internalType": "uint64",
              "name": "deadline",
              "type": "uint64"
            },
            {
              "internalType": "bytes",
              "name": "signature",
              "type": "bytes"
            }
          ],
          "internalType": "struct MintSignatureParams",
          "name": "params",
          "type": "tuple"
        }
      ],
      "name": "payWithToken",
      "outputs": [],
      "stateMutability": "nonpayable",
      "type": "function"
    },
    {
      "inputs": [
        {
          "internalType": "address",
          "name": "paymentToken",
          "type": "address"
        }
      ],
      "name": "paymentTokenPriceFeeds",
      "outputs": [
        {
          "internalType": "address",
          "name": "priceFeed",
          "type": "address"
        }
      ],
      "stateMutability": "view",
      "type": "function"
    },
    {
      "inputs": [],
      "name": "renounceOwnership",
      "outputs": [],
      "stateMutability": "nonpayable",
      "type": "function"
    },
    {
      "inputs": [
        {
          "internalType": "address[]",
          "name": "paymentTokens",
          "type": "address[]"
        },
        {
          "internalType": "address[]",
          "name": "priceFeeds",
          "type": "address[]"
        }
      ],
      "name": "setPaymentTokens",
      "outputs": [],
      "stateMutability": "nonpayable",
      "type": "function"
    },
    {
      "inputs": [
        {
          "internalType": "enum Tier[]",
          "name": "tierIds",
          "type": "uint8[]"
        },
        {
          "internalType": "uint256[]",
          "name": "maxSupplies",
          "type": "uint256[]"
        }
      ],
      "name": "setTierMaxSupply",
      "outputs": [],
      "stateMutability": "nonpayable",
      "type": "function"
    },
    {
      "inputs": [
        {
          "internalType": "enum Tier[]",
          "name": "tierIds",
          "type": "uint8[]"
        },
        {
          "internalType": "uint256[]",
          "name": "maxSupplies",
          "type": "uint256[]"
        },
        {
          "internalType": "uint256[]",
          "name": "tierPricesUSD",
          "type": "uint256[]"
        }
      ],
      "name": "setTierMaxSupplyPrices",
      "outputs": [],
      "stateMutability": "nonpayable",
      "type": "function"
    },
    {
      "inputs": [
        {
          "internalType": "enum Tier[]",
          "name": "tierIds",
          "type": "uint8[]"
        },
        {
          "internalType": "uint256[]",
          "name": "tierPricesUSD",
          "type": "uint256[]"
        }
      ],
      "name": "setTierPrices",
      "outputs": [],
      "stateMutability": "nonpayable",
      "type": "function"
    },
    {
      "inputs": [],
      "name": "ticket",
      "outputs": [
        {
          "internalType": "contract ITicket",
          "name": "",
          "type": "address"
        }
      ],
      "stateMutability": "view",
      "type": "function"
    },
    {
      "inputs": [
        {
          "internalType": "enum Tier",
          "name": "tier",
          "type": "uint8"
        }
      ],
      "name": "tierInfo",
      "outputs": [
        {
          "internalType": "uint256",
          "name": "priceUSD",
          "type": "uint256"
        },
        {
          "internalType": "uint256",
          "name": "maxSupply",
          "type": "uint256"
        },
        {
          "internalType": "uint256",
          "name": "sold",
          "type": "uint256"
        },
        {
          "internalType": "bool",
          "name": "hasSeatNumbers",
          "type": "bool"
        }
      ],
      "stateMutability": "view",
      "type": "function"
    },
    {
      "inputs": [
        {
          "internalType": "address",
          "name": "newOwner",
          "type": "address"
        }
      ],
      "name": "transferOwnership",
      "outputs": [],
      "stateMutability": "nonpayable",
      "type": "function"
    },
    {
      "inputs": [
        {
          "internalType": "address",
          "name": "to",
          "type": "address"
        }
      ],
      "name": "withdrawETH",
      "outputs": [],
      "stateMutability": "nonpayable",
      "type": "function"
    },
    {
      "inputs": [
        {
          "internalType": "address",
          "name": "to",
          "type": "address"
        },
        {
          "internalType": "address",
          "name": "token",
          "type": "address"
        }
      ],
      "name": "withdrawToken",
      "outputs": [],
      "stateMutability": "nonpayable",
      "type": "function"
    }
  ],
  "bytecode": "0x60806040523461002257610011610027565b604051613210610189823961321090f35b600080fd5b61002f6100aa565b565b61003e9060401c60ff1690565b90565b61003e9054610031565b61003e905b6001600160401b031690565b61003e905461004b565b61003e90610050906001600160401b031682565b9061008a61003e6100a692610066565b82546001600160401b0319166001600160401b03919091161790565b9055565b60006100b4610142565b016100be81610041565b610130576100cb8161005c565b6001600160401b03919082908116036100e2575050565b816101117fc7f505b2f371ae2175ee4913f4499e1f2633a7b5936321eed1cdaeb6115181d29361012b9361007a565b604051918291826001600160401b03909116815260200190565b0390a1565b63f92ee8a960e01b6000908152600490fd5b61003e610180565b61003e61003e61003e9290565b61003e7ff0c57e16840df040f15088dc2f81fe391c3923bec73e23a9662efc9c229c6a0061014a565b61003e61015756fe6080604052600436101561001257600080fd5b60003560e01c8063111279ad1461019257806335766f4b1461018d5780633aeac4e1146101885780633e9ee0071461018357806342f6fb291461017e5780634bc6d1f914610179578063690d8320146101745780636cc25db71461016f578063715018a61461016a57806371e1ba121461016557806379502c55146101605780637ecebe001461015b578063858855b4146101565780638da5cb5b1461015157806390e8a1631461014c57806396277ea014610147578063995772fa14610142578063a630da8f1461013d578063b47527ab14610138578063c90b3ebe14610133578063cb0035cb1461012e578063e9a57d4514610129578063ef62ae10146101245763f2fde38b036101a157610bc9565b610bad565b610b34565b610b19565b610aeb565b610ac6565b6109ae565b6108f0565b610797565b610767565b6105fe565b6105eb565b6105ab565b61055b565b610536565b61051e565b6104f7565b610495565b610466565b610431565b6103e2565b610381565b610334565b61020a565b600311156101a157565b600080fd5b905035906101b382610197565b565b6001600160a01b031690565b90565b6001600160a01b0381165b036101a157565b905035906101b3826101c4565b91906040838203126101a1576101c19060206101ff82866101a6565b94016101d6565b9052565b346101a1576102366102266102203660046101e3565b90610c99565b6040519182918290815260200190565b0390f35b906020828203126101a1576101c1916101a6565b634e487b7160e01b600052602160045260246000fd5b6003111561026e57565b61024e565b906101b382610264565b6101c190610273565b906102909061027d565b600052602052604060002090565b6101c19081565b6101c1905461029e565b6101c1905b60ff1690565b6101c190546102af565b6102cf906005610286565b906102d9826102a5565b916102e6600182016102a5565b916101c160036102f8600285016102a5565b93016102ba565b61032c6101b39461032560609498979561031e608086019a6000870152565b6020850152565b6040830152565b019015159052565b346101a15761023661034f61034a36600461023a565b6102c4565b9061035c94929460405190565b948594856102ff565b91906040838203126101a1576101c19060206101ff82866101d6565b346101a15761039a610394366004610365565b90610eee565b604051005b908160c09103126101a15790565b9190916040818403126101a1576103c483826101d6565b9260208201356001600160401b0381116101a1576101c1920161039f565b346101a15761039a6103f53660046103ad565b90610f89565b60009103126101a157565b6101c1916008021c6001600160a01b031690565b906101c19154610406565b6101c16000600361041a565b346101a1576104413660046103fb565b61023661044c610425565b604051918291826001600160a01b03909116815260200190565b346101a15761023661022661047c36600461023a565b6111e8565b906020828203126101a1576101c1916101d6565b346101a15761039a6104a8366004610481565b6112a0565b6101c160008061041a565b6101c1906101b5906001600160a01b031682565b6101c1906104b8565b6101c1906104cc565b610206906104d5565b6020810192916101b391906104de565b346101a1576105073660046103fb565b6102366105126104ad565b604051918291826104e7565b346101a15761052e3660046103fb565b61039a6112c6565b346101a15761039a6105493660046103ad565b906112ee565b6101c16000600161041a565b346101a15761056b3660046103fb565b61023661051261054f565b90610290906104d5565b6101c1916008021c81565b906101c19154610580565b60006105a66101c1926004610576565b61058b565b346101a1576102366102266105c1366004610481565b610596565b906020828203126101a15781356001600160401b0381116101a1576101c1920161039f565b61039a6105f93660046105c6565b611692565b346101a15761060e3660046103fb565b61023661044c61169b565b634e487b7160e01b600052604160045260246000fd5b90601f01601f191681019081106001600160401b0382111761065057604052565b610619565b906101b361066260405190565b928361062f565b6001600160401b0381116106505760208091020190565b9092919261069561069082610669565b610655565b93818552602080860192028301928184116101a157915b8383106106b95750505050565b602080916106c784866101a6565b8152019201916106ac565b9080601f830112156101a1578160206101c193359101610680565b909182601f830112156101a1578135916001600160401b0383116101a15760200192602083028401116101a157565b9190916040818403126101a15780356001600160401b0381116101a157836107459183016106d2565b9260208201356001600160401b0381116101a15761076392016106ed565b9091565b346101a15761039a61077a36600461071c565b916117e6565b9190916040818403126101a15761074583826101d6565b346101a15761039a6107aa366004610780565b916119e9565b6001600160401b03811161065057602090601f01601f19160190565b0190565b90826000939282370152565b909291926107ec610690826107b0565b93818552818301116101a1576101b39160208501906107d0565b9080601f830112156101a1578160206101c1933591016107dc565b906020828203126101a15781356001600160401b0381116101a1576101c19201610806565b60005b8381106108595750506000910152565b8181015183820152602001610849565b6107cc6108819260209261087b815190565b94859290565b93849101610846565b61089a6107cc9160209493610869565b918252565b6108b46108ab60405190565b9283928361088a565b03902090565b6101c19161089f565b6101c1916008021c6102b4565b906101c191546108c3565b60006108eb6101c19260066108ba565b6108d0565b346101a15761023661090b610906366004610821565b6108db565b60405191829182901515815260200190565b9092919261092d61069082610669565b93818552602080860192028301928184116101a157915b8383106109515750505050565b6020809161095f84866101d6565b815201920191610944565b9080601f830112156101a1578160206101c19335910161091d565b9190916040818403126101a15780356001600160401b0381116101a1578361074591830161096a565b346101a15761039a6109c1366004610985565b91611a0d565b909182601f830112156101a1578135916001600160401b0383116101a15760200192608083028401116101a157565b9190610120838203126101a157610a0d81846101d6565b92610a1b82602083016101d6565b92610a2983604084016101d6565b92610a3781606085016101d6565b92610a4582608083016101d6565b9260a08201356001600160401b0381116101a15783610a659184016106d2565b9260c08301356001600160401b0381116101a15781610a859185016109c7565b92909360e08101356001600160401b0381116101a15783610aa791830161096a565b926101008201356001600160401b0381116101a15761076392016106ed565b346101a15761039a610ad93660046109f6565b99989098979197969296959395611d26565b346101a15761039a610afe36600461071c565b91611d99565b6000610b146101c1926007610576565b61041a565b346101a15761023661044c610b2f366004610481565b610b04565b61039a610b423660046105c6565b611ed3565b6060818303126101a15780356001600160401b0381116101a15782610b6d9183016106d2565b9260208201356001600160401b0381116101a15783610b8d9184016106ed565b92909360408201356001600160401b0381116101a15761076392016106ed565b346101a15761039a610bc0366004610b47565b93929092611fd5565b346101a15761039a610bdc366004610481565b61203a565b60ff81166101cf565b905051906101b382610be1565b906020828203126101a1576101c191610bea565b6040513d6000823e3d90fd5b6101c1906101b5565b6101c19054610c17565b634e487b7160e01b600052601160045260246000fd5b60ff16604d8111610c5157600a0a90565b610c2a565b81810292918115918404141715610c5157565b634e487b7160e01b600052601260045260246000fd5b90610c89565b9190565b908115610c94570490565b610c69565b610caa610ca5836104d5565b6104d5565b6020610cb560405190565b63313ce56760e01b815291829060049082905afa8015610d71576101c193610d2092600092610d25575b50610d146000610d0e610d06610d01610cfc610d1a966007610576565b610c20565b6120ae565b966005610286565b016102a5565b91610c40565b90610c56565b610c7f565b610d1a9192506000610d0e610d06610d01610cfc610d5d610d149660203d602011610d6a575b610d55818361062f565b810190610bf7565b9796505050505050610cdf565b503d610d4b565b610c0b565b906101b391610d83612126565b610df9565b806101cf565b905051906101b382610d88565b906020828203126101a1576101c191610d8e565b8015156101cf565b905051906101b382610daf565b906020828203126101a1576101c191610db7565b6001600160a01b0390911681526040810192916101b39160200152565b0152565b90610e09610ca5610e3d926104d5565b6020610e14306104d5565b6040516370a0823160e01b81526001600160a01b03909116600482015292839081906024820190565b0381845afa908115610d7157610e8393602093600093610ebf575b506000610e6460405190565b809681958294610e7863a9059cbb60e01b90565b845260048401610dd8565b03925af18015610d7157610e945750565b610eb59060203d602011610eb8575b610ead818361062f565b810190610dc4565b50565b503d610ea3565b610ee0919350843d8611610ee7575b610ed8818361062f565b810190610d9b565b9138610e58565b503d610ece565b906101b391610d76565b6101b56101c16101c19290565b6101c190610ef8565b903590601e1936829003018212156101a157018035906001600160401b0382116101a1576020019160208202360383136101a157565b905051906101b3826101c4565b906020828203126101a1576101c191610f44565b6001600160a01b039182168152911660208201526060810192916101b39160400152565b90610f98610cfc836007610576565b91600092610fa86101b585610f05565b6001600160a01b038216146111c65781610fd191610fc96040860186610f0e565b929091612187565b90610fdf610ca56001610c20565b6020610fea60405190565b63796b1c1360e11b815291829060049082905afa908115610d715761101b91610ca5916000916111a7575b506104d5565b90602061102760405190565b6399a5d74760e01b81526004810185905292839060249082905afa918215610d7157600092611179575b506020611063610ca5611089936104d5565b9361106d306104d5565b60405193849283926323b872dd60e01b84523360048501610f65565b038188875af18015610d715761115c575b506110a8610ca56001610c20565b9160206110b460405190565b631d8cf42560e11b815293849060049082905afa8015610d71576110f69560209460009261112d575b506040515b809781958294610e7863a9059cbb60e01b90565b03925af1918215610d71576101b392611110575b50612270565b6111289060203d602011610eb857610ead818361062f565b61110a565b61114e919250853d8711611155575b611146818361062f565b810190610f51565b90386110dd565b503d61113c565b6111749060203d602011610eb857610ead818361062f565b61109a565b611089919250611063610ca561119d602093843d8611610ee757610ed8818361062f565b9493505050611051565b6111c0915060203d60201161115557611146818361062f565b38611015565b63bbcbb6f360e01b84528380600481015b0390fd5b6101c16101c16101c19290565b6101c190610d2061120c6000610d0e611204610d016003610c20565b946005610286565b610d1a670de0b6b3a76400006111db565b6101b390611229612126565b61125a565b9061089a610690836107b0565b3d156112555761124a3d61122e565b903d6000602084013e565b606090565b6000806112889261126a306104d5565b3161127460405190565b90818003925af161128361123b565b501590565b61128e57565b6317f2c34560e31b6000908152600490fd5b6101b39061121d565b6112b1612126565b6101b36101b36112c16000610f05565b6122ce565b6101b36112a9565b903590605e1936829003018212156101a1570190565b356101c181610197565b906112fd610cfc836007610576565b9160009261131d6113106101b586610f05565b916001600160a01b031690565b146114b1576113428161133d6040611337818701876112ce565b016112e4565b610c99565b90611350610ca56001610c20565b602061135b60405190565b63796b1c1360e11b815291829060049082905afa908115610d715761138b91610ca5916000916111a757506104d5565b90602061139760405190565b6399a5d74760e01b81526004810185905292839060249082905afa918215610d7157600092611483575b506020611063610ca56113d3936104d5565b038188875af18015610d7157611466575b506113f2610ca56001610c20565b9160206113fe60405190565b631d8cf42560e11b815293849060049082905afa8015610d715761142f9560209460009261112d57506040516110e2565b03925af1918215610d71576101b392611449575b50612408565b6114619060203d602011610eb857610ead818361062f565b611443565b61147e9060203d602011610eb857610ead818361062f565b6113e4565b6113d3919250611063610ca56114a7602093843d8611610ee757610ed8818361062f565b94935050506113c1565b63bbcbb6f360e01b8352600483fd5b6114d1906114cc61259e565b6114e6565b6101b36125fc565b91908203918211610c5157565b6115066114f66040830183610f0e565b906115016003610c20565b612631565b80341061168057803411611648575b611522610ca56001610c20565b602061152d60405190565b63796b1c1360e11b815291829060049082905afa918215610d7157611562610ca56115839460209460009161163157506104d5565b604051938492839182916399a5d74760e01b83526004830190815260200190565b03915afa908115610d7157600091611612575b506115a4610ca56001610c20565b9060206115b060405190565b631d8cf42560e11b815292839060049082905afa918215610d71576115e492600092839283926115f1575b50604051611274565b61128e576101b390612270565b61160b91925060203d60201161115557611146818361062f565b90386115db565b61162b915060203d602011610ee757610ed8818361062f565b38611596565b6111c09150853d871161115557611146818361062f565b61166960008061165884346114d9565b604051600091335af161128361123b565b15611515576317f2c34560e31b6000908152600490fd5b632ca2f52b60e11b6000908152600490fd5b6101b3906114c0565b6101c17f9016d09d72d40fdae2fd8ceac6b6234c7706214fd39c1cd1e609a0528c199300610c20565b906101b392916116d2612126565b61175b565b634e487b7160e01b600052603260045260246000fd5b91908110156116fd576020020190565b6116d7565b356101c181610d88565b90611715825190565b8110156116fd576020809102010190565b6101c19051610273565b90600019905b9181191691161790565b906117506101c1611757926111db565b8254611730565b9055565b929190611766845190565b928284036117d15760005b845b8110156117c9576117c2816117bc6117976117926117739589896116ed565b611702565b60006117b660056117b06117ab878f61170c565b611726565b90610286565b01611740565b60010190565b9050611771565b509350505050565b6001621398b960e31b03196000908152600490fd5b906101b392916116c4565b906101b392916117ff612126565b611975565b9035601e1936839003018112156101a15701602081359101916001600160401b0382116101a1573682900383136101a157565b91906118558161184e816107cc9560209181520190565b80956107d0565b601f01601f191690565b506101c19060208101906101a6565b6102069061027d565b906101c19060406118c56118bb6118a0606085016118958880611804565b878303885290611837565b6118ad6020880188611804565b908683036020880152611837565b948281019061185f565b91019061186e565b906101c191611877565b9035605e1936839003018112156101a1570190565b8183529160200190816119026020830284019490565b92836000925b8484106119185750505050505090565b909192939495602061194461193d83856001950388526119388b886118d7565b6118cd565b9860200190565b940194019294939190611908565b6001600160a01b039190911681526040602082018190526101c1939101916118ec565b9091611981818461269b565b61198e610ca56000610c20565b803b156101a1576119c093600080946119a660405190565b96879586948593637bd0d60560e01b855260048501611952565b03925af18015610d71576119d15750565b6101b39060006119e1818361062f565b8101906103fb565b906101b392916117f1565b906101b39291611a02612126565b906101b392916128f9565b906101b392916119f4565b6101c19060401c6102b4565b6101c19054611a18565b6101c1905b6001600160401b031690565b6101c19054611a2e565b611a336101c16101c19290565b906001600160401b0390611736565b611a336101c16101c1926001600160401b031690565b90611a8b6101c161175792611a65565b8254611a56565b9068ff00000000000000009060401b611736565b90611ab66101c161175792151590565b8254611a92565b61020690611a49565b6020810192916101b39190611abd565b97949192611afe99969360009b989592611b08611b02611af46129e1565b9e8f019d8e611a24565b1590565b9c611a3f565b611b126000611a49565b6001600160401b038216149081611c18575b611b3e611b316001611a49565b916001600160401b031690565b149081611bf3575b155b9081611bea575b50611bd857611b789a8d8d611b6d611b676001611a49565b83611a7b565b611bc6575b50611c46565b611b7f5750565b611b8b90600090611aa6565b7fc7f505b2f371ae2175ee4913f4499e1f2633a7b5936321eed1cdaeb6115181d2611bb560405190565b80611bc1600182611ac6565b0390a1565b611bd290600190611aa6565b8d611b72565b63f92ee8a960e01b6000908152600490fd5b15905038611b4f565b9050611b48611c01306104d5565b3b611c0f610c8560006111db565b14919050611b46565b8d9150611b24565b906001600160a01b0390611736565b90611c3f6101c1611757926104d5565b8254611c20565b611c5b909b9a9998979695949392919b6129fe565b611c63612a1a565b60009a611c6f8c610f05565b6001600160a01b0381166001600160a01b03851614908115611d09575b8115611ced575b50611cde576101b39a9b611cc7611cd494610ca5611cc0611cd99b9a999896610ca5611ccd976003611c2f565b6001611c2f565b90611c2f565b6002611c2f565b612b20565b6128f9565b6342bcdf7f60e11b8c5260048cfd5b6001600160a01b031690506001600160a01b0385161438611c93565b90506001600160a01b0381166001600160a01b0384161490611c8c565b906101b39a999897969594939291611ad6565b906101b39291611d47612126565b929190611d52845190565b928284036117d15760005b845b8110156117c957611d92816117bc611d7e611792611d5f9589896116ed565b60016117b660056117b06117ab878f61170c565b9050611d5d565b906101b39291611d39565b6114d190611db061259e565b611dc461047c6040611337818501856112ce565b80341061168057803411611eac575b611de0610ca56001610c20565b6020611deb60405190565b63796b1c1360e11b815291829060049082905afa918215610d7157611562610ca5611e209460209460009161163157506104d5565b03915afa908115610d7157600091611e8d575b50611e41610ca56001610c20565b906020611e4d60405190565b631d8cf42560e11b815292839060049082905afa918215610d7157611e8092600092839283926115f15750604051611274565b61128e576101b390612408565b611ea6915060203d602011610ee757610ed8818361062f565b38611e33565b611ebc60008061165884346114d9565b15611dd3576317f2c34560e31b6000908152600490fd5b6101b390611da4565b906101b394939291611eec612126565b9194939092611ef9835190565b94868614158015611fcb575b6117d15760005b865b811015611fc1578488611f48610c856101c161179286611f416002610d0e611f3b6117ab8560059c61170c565b8a610286565b958d6116ed565b11611faf57816117bc8760006117b6611fa8956117b08f878f6117928f9c8f9d611f0e9e611f9d8c60016117b6611f976117ab88611f916117926117ab9f8390611fa29f6116ed565b9561170c565b8d610286565b6116ed565b9661170c565b9050611f0c565b63d2955d3b60e01b6000908152600490fd5b5095505050505050565b5082861415611f05565b906101b394939291611edc565b6101b390611fee612126565b6000611ff981610f05565b6001600160a01b0381166001600160a01b0384161461201d5750506101b3906122ce565b631e4fbdf760e01b82526001600160a01b03166004820152602490fd5b6101b390611fe2565b69ffffffffffffffffffff81166101cf565b905051906101b382612043565b919060a0838203126101a1576120788184612055565b926120868260208301610d8e565b926101c16120978460408501610d8e565b9360806120a78260608701610d8e565b9401612055565b610ca56120bd91611015600090565b60a06120c860405190565b633fabe5a360e21b815291829060049082905afa8015610d71576101c1916000916120f4575b506111db565b612116915060a03d60a01161211f575b61210e818361062f565b810190612062565b505050906120ee565b503d612104565b61212e61169b565b339061213982611310565b036121415750565b63118cdaa760e01b60009081526001600160a01b039091166004526024036000fd5b908210156116fd5760206101c192028101906112ce565b91908201809211610c5157565b90929160009283956121a2610ca561219c8490565b976104d5565b9360206121ae60405190565b63313ce56760e01b815295869060049082905afa948515610d715760009561223d575b506121db906120ae565b94965b865b8810156122335761222b6122246121e09261221e89610d2061221560008f8c6117b060406113378f94610d0e95600595612163565b610d1a8c610c40565b9061217a565b9860010190565b9790506121de565b9650945050505050565b6121e091955061225e6121db9160203d602011610d6a57610d55818361062f565b9591506121d1565b356101c1816101c4565b60408101906122886122828383610f0e565b9061269b565b61229181612c56565b6122b46122a1610ca56000610c20565b926122ae60208401612266565b92610f0e565b9092803b156101a1576119c093600080946119a660405190565b61230e6123087f9016d09d72d40fdae2fd8ceac6b6234c7706214fd39c1cd1e609a0528c199300610ca58461230283610c20565b92611c2f565b916104d5565b907f8be0079c531659141344cd1fd0a4f28419497f9722a3daafe3b4186f6b6457e061233960405190565b600090a3565b903590601e1936829003018212156101a157018035906001600160401b0382116101a157602001913682900383136101a157565b90916107cc90839080936107d0565b61089a90602094936107cc93612373565b90916108b4906123a260405190565b93849384612382565b90916101c192612393565b9060ff90611736565b906123cf6101c161175792151590565b82546123b6565b6001600160a01b0390911681526101c19160408201916020818403910152611877565b6000198114610c515760010190565b6040810161241b604061133783856112ce565b61243261242883856112ce565b602081019061233f565b93906005946124536124496002610d0e878a610286565b61221e60016111db565b612468610c856101c16001610d0e898c610286565b1161258257612482600361247c8689610286565b016102ba565b61253b575b505061249281612d5f565b6124b56124a2610ca56000610c20565b936124af60208401612266565b926112ce565b833b156101a1576124ec93600092836124cd60405190565b8097819582946124e16382e2fc4760e01b90565b8452600484016123d6565b03925af1908115610d71576101b39360029361250d93612525575b50610286565b0161251f61251a826102a5565b6123f9565b90611740565b6125359060006119e1818361062f565b38612507565b61254f61254a828460066123ab565b6102ba565b612570576125646001916125699360066123ab565b6123bf565b3880612487565b63017dc5a560e31b6000908152600490fd5b63c30436e960e01b6000908152600490fd5b6101c160026111db565b7f9b779b17422d0df92223018b32b4d1fa46e071723d6817e2486d003becc55f006125c8816102a5565b6125d0612594565b9081146125e0576101b391611740565b633ee5aeb560e01b6000908152600490fd5b6101c160016111db565b6101b37f9b779b17422d0df92223018b32b4d1fa46e071723d6817e2486d003becc55f00600061262a6125f2565b9101611740565b919060009182946126486126428390565b956120ae565b93955b855b8710156126925761268a61268361264d9261221e88610d2061120c6000610d0e8f6117b060408f928f9061133791600595612163565b9760010190565b96905061264b565b95509350505050565b9160009082906126aa836111db565b845b8110156117c9576126c3604061133783868a612163565b6126d161242883868a612163565b906005916126e46002610d0e8686610286565b916126f460019361221e856111db565b612708610c856101c186610d0e8a8a610286565b1161278e5761271c600361247c8787610286565b612741575b505050916117bc600261250d61273a946126ac96610286565b90506126aa565b600661275161254a8484846123ab565b61277f57946126ac96946127756117bc9561256460029661250d9661273a9b6123ab565b9496509450612721565b63017dc5a560e31b8a5260048afd5b63c30436e960e01b8952600489fd5b80548210156116fd576127b7600191600052602060002090565b91020190600090565b9160001960089290920291821b911b611736565b91906127e56101c1611757936111db565b9083546127c0565b6101b3916000916127d4565b818110612804575050565b8061281260006001936127ed565b016127f9565b91909182821061282757505050565b6101b3929161283c9091600052602060002090565b91820191016127f9565b90600160401b8111610650578161285e6101b3935490565b90828155612818565b60006101b391612846565b634e487b7160e01b600052600060045260246000fd5b90600003612899576101b390612867565b612872565b916001600160a01b0360089290920291821b911b611736565b91906128c86101c1611757936104d5565b90835461289e565b90815491600160401b83101561065057826128f39160016101b39501815561279d565b906128b7565b919092600893612907855490565b93600092835b865b8110156129555761294e61290f916117bc61292a6000610f05565b6129498c61294361293d8660079361279d565b9061041a565b90610576565b611c2f565b905061290d565b5090919395929450612968600084612888565b8151948686036117d1575b855b8110156129d8576129d1816117bc6129b96129496129c96129c4858e6129be8d6129b36129a68f9d6129759e61170c565b516001600160a01b031690565b97889190565b6128d0565b8d6116ed565b612266565b916007610576565b9050612973565b50945050505050565b6101c1612e15565b6101b3906129f5612e1d565b6101b390612e4c565b6101b3906129e9565b612a0f612e1d565b6101b36101b3612e5d565b6101b3612a07565b91908110156116fd576080020190565b905035906101b382610d88565b905035906101b382610daf565b91906080838203126101a157612a9f906060612a686080610655565b94612a738382612a32565b8652612a828360208301612a32565b6020870152612a948360408301612a32565b604087015201612a3f565b6060830152565b6101c1903690612a4c565b6101c16080610655565b6003612b0f60606101b394612ada612ad4600083015190565b86611740565b612af1612ae8602083015190565b60018701611740565b612b08612aff604083015190565b60028701611740565b0151151590565b91016123bf565b906101b391612abb565b929190612b2b845190565b928284036117d15760005b845b8110156117c957612bd2816117bc612b5c612b57612b38958989612a22565b612aa6565b612bbb612b67825190565b91612bb2612bab612b79602084015190565b92612ba6612b8c60606000930151151590565b94612b9f612b98612ab1565b98848a0152565b6020880152565b6111db565b6040850152565b15156060830152565b612bcd60056117b06117ab868e61170c565b612b16565b9050612b36565b6001600160401b0381166101cf565b356101c181612bd9565b91612c47916101b396989795608095612c32612c3f94612c2260a089019560008a01906001600160a01b03169052565b6001600160a01b03166020880152565b85830360408701526118ec565b966060830152565b01906001600160401b03169052565b6101b390612c6381612266565b612c6f60208301612266565b91612c7c60608201611702565b612c8860808301612be8565b90612ce181612cc38787612cb787612ca360408b018b610f0e565b604051919791978896602088019687612bf2565b9081038252038261062f565b612cd5612cce825190565b9160200190565b209360a081019061233f565b959094612e86565b9460c096612d3f87612c47976101b39c979b9e9d9b612d32612d5898612d22612d4d99600060e088019701906001600160a01b03169052565b6001600160a01b031660208d0152565b8a830360408c0152611837565b918783036060890152611837565b98608085019061186e565b60a0830152565b6101b390612d6c81612266565b612d7860208301612266565b91612d8560608201611702565b612d9160808301612be8565b90612ce1612da260408501856112ce565b612cc38787612cb787876040612db8888061233f565b919098612dd4612dcb602083018361233f565b939092016112e4565b92612dde60405190565b9a8b9960208b01998a612ce9565b6101c17ff0c57e16840df040f15088dc2f81fe391c3923bec73e23a9662efc9c229c6a006111db565b6101c1612dec565b612e28611afe612f8e565b612e2e57565b631afcd79f60e31b6000908152600490fd5b6101b390611fee612e1d565b6101b390612e40565b6114d1612e1d565b6101b3612e55565b6101c16101c16101c1926001600160401b031690565b6101c19136916107dc565b95909491939295612e9c6113106101b5306104d5565b03612f7c57600495612eb6612eb18789610576565b6102a5565b859003612f6b57612ec690612e65565b4211612f5a576101b5612f2392612f1d61131093612f17612ee76002610c20565b977f19457468657265756d205369676e6564204d6573736167653a0a333200000000600052601c52603c60002090565b92612e7b565b90612fa1565b03612f49576101b39291612f3e612f44926107cc60016111db565b92610576565b611740565b638baa579f60e01b60009081528390fd5b630819bdcd60e01b60009081528690fd5b633ab3447f60e11b60009081528790fd5b63a3399df760e01b6000908152600490fd5b6101c16000612f9b6129e1565b01611a24565b6101c191612fae91612fb7565b90929192613037565b90600091612fc3825190565b612fd0610c8560416111db565b03612ffa57612ff392506020820151906060604084015193015160001a90613113565b9192909190565b509050613012612ba661300d6000610f05565b925190565b909160029190565b6004111561026e57565b906101b38261301a565b6101c1906111db565b9060009161304483613024565b61304d82613024565b0361305757505050565b6130616001613024565b61306a82613024565b0361307e5763f645eedf60e01b8352600483fd5b6130886002613024565b61309182613024565b036130ba57506111d76130a4839261302e565b63fce698f760e01b835260048301526024820190565b6130cd6130c76003613024565b91613024565b146130d6575050565b6335e2f38360e21b82526004820152602490fd5b610df56101b394610325606094989795613109608086019a6000870152565b60ff166020850152565b909161311e8461302e565b61314a610c857f7fffffffffffffffffffffffffffffff5d576e7357a4501ddfe92f46681b20a06111db565b116131c6579061316c6020946000949361316360405190565b948594856130ea565b838052039060015afa15610d715760005160009161318983610f05565b6001600160a01b0381166001600160a01b038416146131b257506131ac836111db565b91929190565b9150916131be906111db565b909160019190565b5050506131d36000610f05565b916003919056fea264697066735822122074ba456c20ddb9afa6a5f6eab0660c8d917cf232a40f71fb6f1d7464df34c01a64736f6c634300081e0033",
  "linkReferences": {},
  "deployedLinkReferences": {}
}