{
  "_format": "hh-sol-artifact-1",
  "contractName": "Treasury",
  "sourceName": "contracts/platform/Treasury.sol",
  "abi": [
    {
      "inputs": [],
      "name": "AccessControlBadConfirmation",
      "type": "error"
    },
    {
      "inputs": [
        {
          "internalType": "address",
          "name": "account",
          "type": "address"
        },
        {
          "internalType": "bytes32",
          "name": "neededRole",
          "type": "bytes32"
        }
      ],
      "name": "AccessControlUnauthorizedAccount",
      "type": "error"
    },
    {
      "inputs": [
        {
          "internalType": "address",
          "name": "target",
          "type": "address"
        }
      ],
      "name": "AddressEmptyCode",
      "type": "error"
    },
    {
      "inputs": [
        {
          "internalType": "address",
          "name": "implementation",
          "type": "address"
        }
      ],
      "name": "ERC1967InvalidImplementation",
      "type": "error"
    },
    {
      "inputs": [],
      "name": "ERC1967NonPayable",
      "type": "error"
    },
    {
      "inputs": [],
      "name": "FailedCall",
      "type": "error"
    },
    {
      "inputs": [],
      "name": "InvalidInitialization",
      "type": "error"
    },
    {
      "inputs": [],
      "name": "NotInitializing",
      "type": "error"
    },
    {
      "inputs": [],
      "name": "TransactionFailed",
      "type": "error"
    },
    {
      "inputs": [],
      "name": "UUPSUnauthorizedCallContext",
      "type": "error"
    },
    {
      "inputs": [
        {
          "internalType": "bytes32",
          "name": "slot",
          "type": "bytes32"
        }
      ],
      "name": "UUPSUnsupportedProxiableUUID",
      "type": "error"
    },
    {
      "anonymous": false,
      "inputs": [
        {
          "indexed": false,
          "internalType": "uint64",
          "name": "version",
          "type": "uint64"
        }
      ],
      "name": "Initialized",
      "type": "event"
    },
    {
      "anonymous": false,
      "inputs": [
        {
          "indexed": true,
          "internalType": "bytes32",
          "name": "role",
          "type": "bytes32"
        },
        {
          "indexed": true,
          "internalType": "bytes32",
          "name": "previousAdminRole",
          "type": "bytes32"
        },
        {
          "indexed": true,
          "internalType": "bytes32",
          "name": "newAdminRole",
          "type": "bytes32"
        }
      ],
      "name": "RoleAdminChanged",
      "type": "event"
    },
    {
      "anonymous": false,
      "inputs": [
        {
          "indexed": true,
          "internalType": "bytes32",
          "name": "role",
          "type": "bytes32"
        },
        {
          "indexed": true,
          "internalType": "address",
          "name": "account",
          "type": "address"
        },
        {
          "indexed": true,
          "internalType": "address",
          "name": "sender",
          "type": "address"
        }
      ],
      "name": "RoleGranted",
      "type": "event"
    },
    {
      "anonymous": false,
      "inputs": [
        {
          "indexed": true,
          "internalType": "bytes32",
          "name": "role",
          "type": "bytes32"
        },
        {
          "indexed": true,
          "internalType": "address",
          "name": "account",
          "type": "address"
        },
        {
          "indexed": true,
          "internalType": "address",
          "name": "sender",
          "type": "address"
        }
      ],
      "name": "RoleRevoked",
      "type": "event"
    },
    {
      "anonymous": false,
      "inputs": [
        {
          "indexed": true,
          "internalType": "address",
          "name": "implementation",
          "type": "address"
        }
      ],
      "name": "Upgraded",
      "type": "event"
    },
    {
      "inputs": [],
      "name": "DEFAULT_ADMIN_ROLE",
      "outputs": [
        {
          "internalType": "bytes32",
          "name": "",
          "type": "bytes32"
        }
      ],
      "stateMutability": "view",
      "type": "function"
    },
    {
      "inputs": [],
      "name": "UPGRADE_INTERFACE_VERSION",
      "outputs": [
        {
          "internalType": "string",
          "name": "",
          "type": "string"
        }
      ],
      "stateMutability": "view",
      "type": "function"
    },
    {
      "inputs": [],
      "name": "getImplementation",
      "outputs": [
        {
          "internalType": "address",
          "name": "",
          "type": "address"
        }
      ],
      "stateMutability": "view",
      "type": "function"
    },
    {
      "inputs": [
        {
          "internalType": "bytes32",
          "name": "role",
          "type": "bytes32"
        }
      ],
      "name": "getRoleAdmin",
      "outputs": [
        {
          "internalType": "bytes32",
          "name": "",
          "type": "bytes32"
        }
      ],
      "stateMutability": "view",
      "type": "function"
    },
    {
      "inputs": [
        {
          "internalType": "bytes32",
          "name": "role",
          "type": "bytes32"
        },
        {
          "internalType": "address",
          "name": "account",
          "type": "address"
        }
      ],
      "name": "grantRole",
      "outputs": [],
      "stateMutability": "nonpayable",
      "type": "function"
    },
    {
      "inputs": [
        {
          "internalType": "bytes32",
          "name": "role",
          "type": "bytes32"
        },
        {
          "internalType": "address",
          "name": "account",
          "type": "address"
        }
      ],
      "name": "hasRole",
      "outputs": [
        {
          "internalType": "bool",
          "name": "",
          "type": "bool"
        }
      ],
      "stateMutability": "view",
      "type": "function"
    },
    {
      "inputs": [],
      "name": "initialize",
      "outputs": [],
      "stateMutability": "nonpayable",
      "type": "function"
    },
    {
      "inputs": [],
      "name": "proxiableUUID",
      "outputs": [
        {
          "internalType": "bytes32",
          "name": "",
          "type": "bytes32"
        }
      ],
      "stateMutability": "view",
      "type": "function"
    },
    {
      "inputs": [
        {
          "internalType": "bytes32",
          "name": "role",
          "type": "bytes32"
        },
        {
          "internalType": "address",
          "name": "callerConfirmation",
          "type": "address"
        }
      ],
      "name": "renounceRole",
      "outputs": [],
      "stateMutability": "nonpayable",
      "type": "function"
    },
    {
      "inputs": [
        {
          "internalType": "bytes32",
          "name": "role",
          "type": "bytes32"
        },
        {
          "internalType": "address",
          "name": "account",
          "type": "address"
        }
      ],
      "name": "revokeRole",
      "outputs": [],
      "stateMutability": "nonpayable",
      "type": "function"
    },
    {
      "inputs": [
        {
          "internalType": "bytes4",
          "name": "interfaceId",
          "type": "bytes4"
        }
      ],
      "name": "supportsInterface",
      "outputs": [
        {
          "internalType": "bool",
          "name": "",
          "type": "bool"
        }
      ],
      "stateMutability": "view",
      "type": "function"
    },
    {
      "inputs": [
        {
          "internalType": "address",
          "name": "newImplementation",
          "type": "address"
        },
        {
          "internalType": "bytes",
          "name": "data",
          "type": "bytes"
        }
      ],
      "name": "upgradeToAndCall",
      "outputs": [],
      "stateMutability": "payable",
      "type": "function"
    },
    {
      "inputs": [
        {
          "internalType": "address",
          "name": "to",
          "type": "address"
        }
      ],
      "name": "withdrawETH",
      "outputs": [],
      "stateMutability": "nonpayable",
      "type": "function"
    },
    {
      "inputs": [
        {
          "internalType": "address",
          "name": "to",
          "type": "address"
        },
        {
          "internalType": "address",
          "name": "token",
          "type": "address"
        }
      ],
      "name": "withdrawToken",
      "outputs": [],
      "stateMutability": "nonpayable",
      "type": "function"
    },
    {
      "stateMutability": "payable",
      "type": "receive"
    }
  ],
  "bytecode": "0x60a06040523461003257610011610037565b6040516111ea6101fd8239608051818181610cfd0152610e9201526111ea90f35b600080fd5b61003f610041565b565b610049610051565b61003f61011e565b61003f61003f61003f61003f61003f61009a565b6100799061007c906001600160a01b031682565b90565b6001600160a01b031690565b61007990610065565b61007990610088565b6100a330610091565b608052565b6100799060401c60ff1690565b61007990546100a8565b610079905b6001600160401b031690565b61007990546100bf565b610079906100c4906001600160401b031682565b906100fe61007961011a926100da565b82546001600160401b0319166001600160401b03919091161790565b9055565b60006101286101b6565b01610132816100b5565b6101a45761013f816100d0565b6001600160401b0391908290811603610156575050565b816101857fc7f505b2f371ae2175ee4913f4499e1f2633a7b5936321eed1cdaeb6115181d29361019f936100ee565b604051918291826001600160401b03909116815260200190565b0390a1565b63f92ee8a960e01b6000908152600490fd5b6100796101f4565b6100796100796100799290565b6100797ff0c57e16840df040f15088dc2f81fe391c3923bec73e23a9662efc9c229c6a006101be565b6100796101cb56fe6080604052600436101561001b575b361561001957600080fd5b005b60003560e01c806301ffc9a7146100fb578063248a9ca3146100f65780632f2ff15d146100f157806336568abe146100ec5780633aeac4e1146100e75780634f1ef286146100e257806352d1902d146100dd578063690d8320146100d85780638129fc1c146100d357806391d14854146100ce578063a217fddf146100c9578063aaf10f42146100c4578063ad3cb1cc146100bf5763d547741f0361000e57610557565b610530565b61044e565b610433565b6103f8565b6103e0565b6103c8565b610399565b61037a565b610263565b61022e565b610210565b61019a565b610142565b6001600160e01b031981165b0361011357565b600080fd5b9050359061012582610100565b565b906020828203126101135761013b91610118565b90565b9052565b346101135761016f61015d610158366004610127565b610570565b60405191829182901515815260200190565b0390f35b8061010c565b9050359061012582610173565b906020828203126101135761013b91610179565b346101135761016f6101b56101b0366004610186565b6105cb565b6040519182918290815260200190565b6001600160a01b031690565b6001600160a01b03811661010c565b90503590610125826101d1565b91906040838203126101135761013b9060206102098286610179565b94016101e0565b34610113576102296102233660046101ed565b9061061e565b604051005b34610113576102296102413660046101ed565b90610628565b91906040838203126101135761013b90602061020982866101e0565b3461011357610229610276366004610247565b90610832565b634e487b7160e01b600052604160045260246000fd5b90601f01601f1916810190811067ffffffffffffffff8211176102b457604052565b61027c565b906101256102c660405190565b9283610292565b67ffffffffffffffff81116102b457602090601f01601f19160190565b0190565b90826000939282370152565b9092919261030f61030a826102cd565b6102b9565b9381855281830111610113576101259160208501906102ee565b9080601f830112156101135781602061013b933591016102fa565b9190916040818403126101135761035b83826101e0565b92602082013567ffffffffffffffff81116101135761013b9201610329565b610229610388366004610344565b9061085c565b600091031261011357565b34610113576103a936600461038e565b61016f6101b56108a9565b906020828203126101135761013b916101e0565b34610113576102296103db3660046103b4565b61092c565b34610113576103f036600461038e565b610229610b3f565b346101135761016f61015d61040e3660046101ed565b90610b64565b61013b61013b61013b9290565b61013b6000610414565b61013b610421565b346101135761044336600461038e565b61016f6101b561042b565b346101135761045e36600461038e565b61016f610469610b9a565b604051918291826001600160a01b03909116815260200190565b9061049061030a836102cd565b918252565b61049f6005610483565b640352e302e360dc1b602082015290565b61013b610495565b61013b6104b0565b61013b6104b8565b60005b8381106104db5750506000910152565b81810151838201526020016104cb565b61050c6105156020936102ea93610500815190565b80835293849260200190565b958691016104c8565b601f01601f191690565b602080825261013b929101906104eb565b346101135761054036600461038e565b61016f61054b6104c0565b6040519182918261051f565b346101135761022961056a3660046101ed565b90610bbd565b637965db0b60e01b6001600160e01b031982161490811561058f575090565b61013b91506001600160e01b0319166301ffc9a760e01b1490565b905b600052602052604060002090565b61013b9081565b61013b90546105ba565b60016105f561013b926105dc600090565b5060006000805160206111958339815191525b016105aa565b016105c1565b906101259161061161060c826105cb565b610bc7565b9061061b91610bf2565b50565b90610125916105fb565b90610632336101c5565b6001600160a01b0382160361064a5761061b91610c85565b63334bd91960e11b600090815260045b036000fd5b61013b7faf290d8680820aad922855f39b306097b20e28774d6c1ad35a20325630c3a02c610414565b906101259161069861060c61065f565b610736565b61013b906101c5906001600160a01b031682565b61013b9061069d565b61013b906106b1565b9050519061012582610173565b906020828203126101135761013b916106c3565b6040513d6000823e3d90fd5b80151561010c565b90505190610125826106f0565b906020828203126101135761013b916106f8565b6001600160a01b0390911681526040810192916101259160200152565b9061074b61074661077f926106ba565b6106ba565b6020610756306106ba565b6040516370a0823160e01b81526001600160a01b03909116600482015292839081906024820190565b0381845afa9081156107fe576107c593602093600093610803575b5060006107a660405190565b8096819582946107ba63a9059cbb60e01b90565b845260048401610719565b03925af180156107fe576107d65750565b61061b9060203d6020116107f7575b6107ef8183610292565b810190610705565b503d6107e5565b6106e4565b610824919350843d861161082b575b61081c8183610292565b8101906106d0565b913861079a565b503d610812565b9061012591610688565b9061012591610849610cf2565b906101259161085781610db4565b610dbd565b906101259161083c565b61013b90610872610e7c565b6108a0565b61013b7f360894a13ba1a3210667c828492db98dca3e2076cc3735a920a3ca505d382bbc610414565b5061013b610877565b61013b6000610866565b610125906108c261060c61065f565b6108e6565b3d156108e1576108d63d610483565b903d6000602084013e565b606090565b600080610914926108f6306106ba565b3161090060405190565b90818003925af161090f6108c7565b501590565b61091a57565b6317f2c34560e31b6000908152600490fd5b610125906108b3565b61013b9060401c5b60ff1690565b61013b9054610935565b61013b905b67ffffffffffffffff1690565b61013b905461094d565b61095261013b61013b9290565b9067ffffffffffffffff905b9181191691161790565b61095261013b61013b9267ffffffffffffffff1690565b906109b361013b6109ba9261098c565b8254610976565b9055565b9068ff00000000000000009060401b610982565b906109e261013b6109ba92151590565b82546109be565b61013e90610969565b60208101929161012591906109e9565b610a0a610ebe565b80610a24610a1e610a1a83610943565b1590565b9161095f565b600091610a3083610969565b67ffffffffffffffff83161480610b30575b600192610a5f610a5185610969565b9167ffffffffffffffff1690565b149081610b08575b155b9081610aff575b50610af05780610a8c84610a8385610969565b960195866109a3565b610ae1575b610a99610b37565b610aa257505050565b610ad0610adc927fc7f505b2f371ae2175ee4913f4499e1f2633a7b5936321eed1cdaeb6115181d2946109d2565b604051918291826109f2565b0390a1565b610aeb82856109d2565b610a91565b63f92ee8a960e01b8352600483fd5b15905038610a70565b9050610a69610b16306106ba565b3b610b27610b2387610414565b9190565b14919050610a67565b5080610a42565b610125610f0b565b610125610a02565b906105ac906106ba565b61013b9061093d565b61013b9054610b51565b61013b916000610b8f610b9593610b79600090565b50826000805160206111958339815191526105ef565b01610b47565b610b5a565b61013b610f26565b9061012591610bb361060c826105cb565b9061061b91610c85565b9061012591610ba2565b610125903390610f3c565b9060ff90610982565b90610beb61013b6109ba92151590565b8254610bd2565b600080516020611195833981519152610c0e610a1a8484610b64565b15610c7d576001610c2a846000610b8f8682610c2f97016105aa565b610bdb565b610c49610c43610c3d339390565b936106ba565b916106ba565b917f2f8788117e7eff1d82e926ec794901d17c78024a50270940304540a733656f0d610c7460405190565b600090a4600190565b505050600090565b600080516020611195833981519152610c9e8383610b64565b15610c7d576000610c2a8482610b8f8682610cb997016105aa565b610cc7610c43610c3d339390565b917ff6391f5c32d9c69d2a47ea670b442974b53935d1edc7fd64eb21e047a839171b610c7460405190565b610cfb306106ba565b7f000000000000000000000000000000000000000000000000000000000000000090610d386001600160a01b0383165b916001600160a01b031690565b14908115610d5a575b50610d4857565b63703e46dd60e11b6000908152600490fd5b9050610d77610d2b610d6a610f26565b926001600160a01b031690565b141538610d41565b61013b7fa615a8afb6fffcb8c6809ac0997b5c9c12b8cc97651150f14c8f6203168cff4c610414565b5061012561060c610d7f565b61012590610da8565b90610dca610746836106ba565b906020610dd660405190565b6352d1902d60e01b815292839060049082905afa60009281610e5b575b50610e255750506001610e035750565b634c9c8ce360e01b60009081526001600160a01b039091166004526024036000fd5b909291610e3361013b610877565b8403610e4457610125929350610f6b565b632a87526960e21b60009081526004859052602490fd5b610e7591935060203d60201161082b5761081c8183610292565b9138610df3565b610e85306106ba565b610eb76001600160a01b037f000000000000000000000000000000000000000000000000000000000000000016610d2b565b03610d4857565b61013b610ffd565b610ece611005565b610125610ed9611030565b610ee1611030565b610ef3610eec610421565b3390610bf2565b50610eff610eec610d7f565b5061061b610eec61065f565b610125610ec6565b61013b906101c5565b61013b9054610f13565b61013b6000610f3661013b610877565b01610f1c565b90610f4a610a1a8284610b64565b610f52575050565b63e2517d3f60e01b60009081529161065a916004610719565b90610f758261105e565b610f7e826106ba565b7fbc7cd75a20ee27fd9adebab32041f755214dbc6bffa90cc0225b39da2e5c2d3b610fa860405190565b600090a28051610fbb610b236000610414565b1115610fca5761061b916110cc565b50506101256110a9565b61013b7ff0c57e16840df040f15088dc2f81fe391c3923bec73e23a9662efc9c229c6a00610414565b61013b610fd4565b611010610a1a6110f3565b61101657565b631afcd79f60e31b6000908152600490fd5b610125611005565b610125611028565b906001600160a01b0390610982565b9061105761013b6109ba926106ba565b8254611038565b6000813b61106e610b2383610414565b1461108957906101259161108361013b610877565b01611047565b634c9c8ce360e01b81526001600160a01b03919091166004820152602490fd5b60006110b481610414565b34116110bd5750565b63b398979f60e01b8152600490fd5b60008061013b936110db606090565b50602081519101845af46110ed6108c7565b91611106565b61013b6000611100610ebe565b01610943565b906111115750611165565b815190600091611123610b2384610414565b1480611150575b61113357505090565b639996b31560e01b82526001600160a01b03166004820152602490fd5b50803b61115f610b2384610414565b1461112a565b8051600090611176610b2383610414565b11156111855750805190602001fd5b63d6bda27560e01b8152600490fdfe02dd7bc7dec4dceedda775e58dd541e08a116c6c53815c0bd028192f7b626800a2646970667358221220be746c8bd99896c125b25835671a2c7471cb731dd808910b65e52196733a532764736f6c634300081e0033",
  "linkReferences": {},
  "deployedLinkReferences": {}
}