{
  "_format": "hh-sol-artifact-1",
  "contractName": "Config",
  "sourceName": "contracts/platform/Config.sol",
  "abi": [
    {
      "inputs": [],
      "name": "AccessControlBadConfirmation",
      "type": "error"
    },
    {
      "inputs": [
        {
          "internalType": "address",
          "name": "account",
          "type": "address"
        },
        {
          "internalType": "bytes32",
          "name": "neededRole",
          "type": "bytes32"
        }
      ],
      "name": "AccessControlUnauthorizedAccount",
      "type": "error"
    },
    {
      "inputs": [
        {
          "internalType": "address",
          "name": "target",
          "type": "address"
        }
      ],
      "name": "AddressEmptyCode",
      "type": "error"
    },
    {
      "inputs": [
        {
          "internalType": "address",
          "name": "implementation",
          "type": "address"
        }
      ],
      "name": "ERC1967InvalidImplementation",
      "type": "error"
    },
    {
      "inputs": [],
      "name": "ERC1967NonPayable",
      "type": "error"
    },
    {
      "inputs": [],
      "name": "FailedCall",
      "type": "error"
    },
    {
      "inputs": [],
      "name": "InvalidInitialization",
      "type": "error"
    },
    {
      "inputs": [],
      "name": "NotInitializing",
      "type": "error"
    },
    {
      "inputs": [],
      "name": "UUPSUnauthorizedCallContext",
      "type": "error"
    },
    {
      "inputs": [
        {
          "internalType": "bytes32",
          "name": "slot",
          "type": "bytes32"
        }
      ],
      "name": "UUPSUnsupportedProxiableUUID",
      "type": "error"
    },
    {
      "anonymous": false,
      "inputs": [
        {
          "indexed": false,
          "internalType": "uint64",
          "name": "version",
          "type": "uint64"
        }
      ],
      "name": "Initialized",
      "type": "event"
    },
    {
      "anonymous": false,
      "inputs": [
        {
          "indexed": true,
          "internalType": "bytes32",
          "name": "role",
          "type": "bytes32"
        },
        {
          "indexed": true,
          "internalType": "bytes32",
          "name": "previousAdminRole",
          "type": "bytes32"
        },
        {
          "indexed": true,
          "internalType": "bytes32",
          "name": "newAdminRole",
          "type": "bytes32"
        }
      ],
      "name": "RoleAdminChanged",
      "type": "event"
    },
    {
      "anonymous": false,
      "inputs": [
        {
          "indexed": true,
          "internalType": "bytes32",
          "name": "role",
          "type": "bytes32"
        },
        {
          "indexed": true,
          "internalType": "address",
          "name": "account",
          "type": "address"
        },
        {
          "indexed": true,
          "internalType": "address",
          "name": "sender",
          "type": "address"
        }
      ],
      "name": "RoleGranted",
      "type": "event"
    },
    {
      "anonymous": false,
      "inputs": [
        {
          "indexed": true,
          "internalType": "bytes32",
          "name": "role",
          "type": "bytes32"
        },
        {
          "indexed": true,
          "internalType": "address",
          "name": "account",
          "type": "address"
        },
        {
          "indexed": true,
          "internalType": "address",
          "name": "sender",
          "type": "address"
        }
      ],
      "name": "RoleRevoked",
      "type": "event"
    },
    {
      "anonymous": false,
      "inputs": [
        {
          "indexed": true,
          "internalType": "address",
          "name": "implementation",
          "type": "address"
        }
      ],
      "name": "Upgraded",
      "type": "event"
    },
    {
      "inputs": [],
      "name": "DEFAULT_ADMIN_ROLE",
      "outputs": [
        {
          "internalType": "bytes32",
          "name": "",
          "type": "bytes32"
        }
      ],
      "stateMutability": "view",
      "type": "function"
    },
    {
      "inputs": [],
      "name": "UPGRADE_INTERFACE_VERSION",
      "outputs": [
        {
          "internalType": "string",
          "name": "",
          "type": "string"
        }
      ],
      "stateMutability": "view",
      "type": "function"
    },
    {
      "inputs": [],
      "name": "getFeeManager",
      "outputs": [
        {
          "internalType": "address",
          "name": "",
          "type": "address"
        }
      ],
      "stateMutability": "view",
      "type": "function"
    },
    {
      "inputs": [],
      "name": "getImplementation",
      "outputs": [
        {
          "internalType": "address",
          "name": "",
          "type": "address"
        }
      ],
      "stateMutability": "view",
      "type": "function"
    },
    {
      "inputs": [],
      "name": "getOrganizerRegistry",
      "outputs": [
        {
          "internalType": "address",
          "name": "",
          "type": "address"
        }
      ],
      "stateMutability": "view",
      "type": "function"
    },
    {
      "inputs": [
        {
          "internalType": "bytes32",
          "name": "role",
          "type": "bytes32"
        }
      ],
      "name": "getRoleAdmin",
      "outputs": [
        {
          "internalType": "bytes32",
          "name": "",
          "type": "bytes32"
        }
      ],
      "stateMutability": "view",
      "type": "function"
    },
    {
      "inputs": [],
      "name": "getTreasury",
      "outputs": [
        {
          "internalType": "address",
          "name": "",
          "type": "address"
        }
      ],
      "stateMutability": "view",
      "type": "function"
    },
    {
      "inputs": [
        {
          "internalType": "bytes32",
          "name": "role",
          "type": "bytes32"
        },
        {
          "internalType": "address",
          "name": "account",
          "type": "address"
        }
      ],
      "name": "grantRole",
      "outputs": [],
      "stateMutability": "nonpayable",
      "type": "function"
    },
    {
      "inputs": [
        {
          "internalType": "bytes32",
          "name": "role",
          "type": "bytes32"
        },
        {
          "internalType": "address",
          "name": "account",
          "type": "address"
        }
      ],
      "name": "hasRole",
      "outputs": [
        {
          "internalType": "bool",
          "name": "",
          "type": "bool"
        }
      ],
      "stateMutability": "view",
      "type": "function"
    },
    {
      "inputs": [
        {
          "internalType": "address",
          "name": "feeManager",
          "type": "address"
        },
        {
          "internalType": "address",
          "name": "treasury",
          "type": "address"
        },
        {
          "internalType": "address",
          "name": "organizerRegistry",
          "type": "address"
        }
      ],
      "name": "initialize",
      "outputs": [],
      "stateMutability": "nonpayable",
      "type": "function"
    },
    {
      "inputs": [],
      "name": "proxiableUUID",
      "outputs": [
        {
          "internalType": "bytes32",
          "name": "",
          "type": "bytes32"
        }
      ],
      "stateMutability": "view",
      "type": "function"
    },
    {
      "inputs": [
        {
          "internalType": "bytes32",
          "name": "role",
          "type": "bytes32"
        },
        {
          "internalType": "address",
          "name": "callerConfirmation",
          "type": "address"
        }
      ],
      "name": "renounceRole",
      "outputs": [],
      "stateMutability": "nonpayable",
      "type": "function"
    },
    {
      "inputs": [
        {
          "internalType": "bytes32",
          "name": "role",
          "type": "bytes32"
        },
        {
          "internalType": "address",
          "name": "account",
          "type": "address"
        }
      ],
      "name": "revokeRole",
      "outputs": [],
      "stateMutability": "nonpayable",
      "type": "function"
    },
    {
      "inputs": [
        {
          "internalType": "address",
          "name": "feeManager",
          "type": "address"
        }
      ],
      "name": "setFeeManager",
      "outputs": [],
      "stateMutability": "nonpayable",
      "type": "function"
    },
    {
      "inputs": [
        {
          "internalType": "address",
          "name": "organizerRegistry",
          "type": "address"
        }
      ],
      "name": "setOrganizerRegistry",
      "outputs": [],
      "stateMutability": "nonpayable",
      "type": "function"
    },
    {
      "inputs": [
        {
          "internalType": "address",
          "name": "treasury",
          "type": "address"
        }
      ],
      "name": "setTreasury",
      "outputs": [],
      "stateMutability": "nonpayable",
      "type": "function"
    },
    {
      "inputs": [
        {
          "internalType": "bytes4",
          "name": "interfaceId",
          "type": "bytes4"
        }
      ],
      "name": "supportsInterface",
      "outputs": [
        {
          "internalType": "bool",
          "name": "",
          "type": "bool"
        }
      ],
      "stateMutability": "view",
      "type": "function"
    },
    {
      "inputs": [
        {
          "internalType": "address",
          "name": "newImplementation",
          "type": "address"
        },
        {
          "internalType": "bytes",
          "name": "data",
          "type": "bytes"
        }
      ],
      "name": "upgradeToAndCall",
      "outputs": [],
      "stateMutability": "payable",
      "type": "function"
    }
  ],
  "bytecode": "0x60a06040523461003257610011610037565b60405161122d6101fd8239608051818181610cf30152610ebe015261122d90f35b600080fd5b61003f610041565b565b610049610051565b61003f61011e565b61003f61003f61003f61003f61003f61009a565b6100799061007c906001600160a01b031682565b90565b6001600160a01b031690565b61007990610065565b61007990610088565b6100a330610091565b608052565b6100799060401c60ff1690565b61007990546100a8565b610079905b6001600160401b031690565b61007990546100bf565b610079906100c4906001600160401b031682565b906100fe61007961011a926100da565b82546001600160401b0319166001600160401b03919091161790565b9055565b60006101286101b6565b01610132816100b5565b6101a45761013f816100d0565b6001600160401b0391908290811603610156575050565b816101857fc7f505b2f371ae2175ee4913f4499e1f2633a7b5936321eed1cdaeb6115181d29361019f936100ee565b604051918291826001600160401b03909116815260200190565b0390a1565b63f92ee8a960e01b6000908152600490fd5b6100796101f4565b6100796100796100799290565b6100797ff0c57e16840df040f15088dc2f81fe391c3923bec73e23a9662efc9c229c6a006101be565b6100796101cb56fe6080604052600436101561001257600080fd5b60003560e01c806301ffc9a714610132578063248a9ca31461012d5780632f2ff15d1461012857806336568abe1461012357806336991bf51461011e5780633b19e84a14610119578063472d35b9146101145780634f1ef2861461010f57806352d1902d1461010a5780635a97adc91461010557806391d1485414610100578063a217fddf146100fb578063aaf10f42146100f6578063ad3cb1cc146100f1578063c0c53b8b146100ec578063d547741f146100e7578063f0f44260146100e25763f2d638260361014a57610602565b6105ea565b6105d1565b6105b8565b610568565b6104a0565b610485565b61044a565b61042f565b610414565b610400565b6102ea565b6102b5565b610292565b610265565b610247565b6101d1565b610179565b6001600160e01b031981165b0361014a57565b600080fd5b9050359061015c82610137565b565b9060208282031261014a576101729161014f565b90565b9052565b3461014a576101a661019461018f36600461015e565b61061d565b60405191829182901515815260200190565b0390f35b80610143565b9050359061015c826101aa565b9060208282031261014a57610172916101b0565b3461014a576101a66101ec6101e73660046101bd565b610678565b6040519182918290815260200190565b6001600160a01b031690565b6001600160a01b038116610143565b9050359061015c82610208565b919060408382031261014a5761017290602061024082866101b0565b9401610217565b3461014a5761026061025a366004610224565b906106cb565b604051005b3461014a57610260610278366004610224565b906106d5565b9060208282031261014a5761017291610217565b3461014a576102606102a536600461027e565b6107bb565b600091031261014a57565b3461014a576102c53660046102aa565b6101a66102d06107d7565b604051918291826001600160a01b03909116815260200190565b3461014a576102606102fd36600461027e565b61081b565b634e487b7160e01b600052604160045260246000fd5b90601f01601f1916810190811067ffffffffffffffff82111761033a57604052565b610302565b9061015c61034c60405190565b9283610318565b67ffffffffffffffff811161033a57602090601f01601f19160190565b0190565b90826000939282370152565b9092919261039561039082610353565b61033f565b938185528183011161014a5761015c916020850190610374565b9080601f8301121561014a5781602061017293359101610380565b91909160408184031261014a576103e18382610217565b92602082013567ffffffffffffffff811161014a5761017292016103af565b61026061040e3660046103ca565b90610844565b3461014a576104243660046102aa565b6101a66101ec610891565b3461014a5761043f3660046102aa565b6101a66102d061089b565b3461014a576101a6610194610460366004610224565b906108d3565b6101726101726101729290565b6101726000610466565b610172610473565b3461014a576104953660046102aa565b6101a66101ec61047d565b3461014a576104b03660046102aa565b6101a66102d0610909565b906104c861039083610353565b918252565b6104d760056104bb565b640352e302e360dc1b602082015290565b6101726104cd565b6101726104e8565b6101726104f0565b60005b8381106105135750506000910152565b8181015183820152602001610503565b61054461054d60209361037093610538815190565b80835293849260200190565b95869101610500565b601f01601f191690565b602080825261017292910190610523565b3461014a576105783660046102aa565b6101a66105836104f8565b60405191829182610557565b909160608284031261014a576101726105a88484610217565b9360406102408260208701610217565b3461014a576102606105cb36600461058f565b91610b42565b3461014a576102606105e4366004610224565b90610b68565b3461014a576102606105fd36600461027e565b610b9b565b3461014a576106123660046102aa565b6101a66102d0610ba4565b637965db0b60e01b6001600160e01b031982161490811561063c575090565b61017291506001600160e01b0319166301ffc9a760e01b1490565b905b600052602052604060002090565b6101729081565b6101729054610667565b60016106a261017292610689600090565b5060006000805160206111d88339815191525b01610657565b0161066e565b9061015c916106be6106b982610678565b610bbd565b906106c891610be8565b50565b9061015c916106a8565b906106df336101fc565b6001600160a01b038216036106f7576106c891610c7b565b63334bd91960e11b600090815260045b036000fd5b6101727faf290d8680820aad922855f39b306097b20e28774d6c1ad35a20325630c3a02c610466565b61015c906107446106b961070c565b61079f565b906001600160a01b03905b9181191691161790565b610172906101fc906001600160a01b031682565b6101729061075e565b61017290610772565b9061079461017261079b9261077b565b8254610749565b9055565b61015c9060026000805160206111b88339815191525b01610784565b61015c90610735565b610172906101fc565b61017290546107c4565b61017260016000805160206111b88339815191525b016107cd565b61015c906108016106b961070c565b61015c9060006000805160206111b88339815191526107b5565b61015c906107f2565b9061015c91610831610ce8565b9061015c9161083f81610daa565b610dd4565b9061015c91610824565b6101729061085a610ea8565b610888565b6101727f360894a13ba1a3210667c828492db98dca3e2076cc3735a920a3ca505d382bbc610466565b5061017261085f565b610172600061084e565b61017260026000805160206111b88339815191526107ec565b906106599061077b565b610172905b60ff1690565b61017290546108be565b6101729160006108fe610904936108e8600090565b50826000805160206111d883398151915261069c565b016108b4565b6108c9565b610172610eea565b6101729060401c6108c3565b6101729054610911565b610172905b67ffffffffffffffff1690565b6101729054610927565b61092c6101726101729290565b9067ffffffffffffffff90610754565b61092c6101726101729267ffffffffffffffff1690565b9061098761017261079b92610960565b8254610950565b9068ff00000000000000009060401b610754565b906109b261017261079b92151590565b825461098e565b61017590610943565b60208101929161015c91906109b9565b906109db610efa565b9283906109f76109f16109ed8461091d565b1590565b92610939565b92600094610a0486610943565b67ffffffffffffffff86161480610b06575b600195610a33610a2588610943565b9167ffffffffffffffff1690565b149081610ade575b155b9081610ad5575b50610ac65790610a6f929184610a6688610a5d89610943565b9a01998a610977565b610ab757610b0d565b610a7857505050565b610aa6610ab2927fc7f505b2f371ae2175ee4913f4499e1f2633a7b5936321eed1cdaeb6115181d2946109a2565b604051918291826109c2565b0390a1565b610ac186896109a2565b610b0d565b63f92ee8a960e01b8652600486fd5b15905038610a44565b9050610a3d610aec3061077b565b3b610afd610af98a610466565b9190565b14919050610a3b565b5083610a16565b6002906107b561015c9493610b20610f47565b610b396000805160206111b88339815191529384610784565b60018301610784565b9061015c92916109d2565b9061015c91610b5e6106b982610678565b906106c891610c7b565b9061015c91610b4d565b61015c90610b816106b961070c565b61015c9060016000805160206111b88339815191526107b5565b61015c90610b72565b61017260006000805160206111b88339815191526107ec565b61015c903390610f6c565b9060ff90610754565b90610be161017261079b92151590565b8254610bc8565b6000805160206111d8833981519152610c046109ed84846108d3565b15610c73576001610c208460006108fe8682610c259701610657565b610bd1565b610c3f610c39610c33339390565b9361077b565b9161077b565b917f2f8788117e7eff1d82e926ec794901d17c78024a50270940304540a733656f0d610c6a60405190565b600090a4600190565b505050600090565b6000805160206111d8833981519152610c9483836108d3565b15610c73576000610c2084826108fe8682610caf9701610657565b610cbd610c39610c33339390565b917ff6391f5c32d9c69d2a47ea670b442974b53935d1edc7fd64eb21e047a839171b610c6a60405190565b610cf13061077b565b7f000000000000000000000000000000000000000000000000000000000000000090610d2e6001600160a01b0383165b916001600160a01b031690565b14908115610d50575b50610d3e57565b63703e46dd60e11b6000908152600490fd5b9050610d6d610d21610d60610eea565b926001600160a01b031690565b141538610d37565b6101727fa615a8afb6fffcb8c6809ac0997b5c9c12b8cc97651150f14c8f6203168cff4c610466565b5061015c6106b9610d75565b61015c90610d9e565b9050519061015c826101aa565b9060208282031261014a5761017291610db3565b90610de6610de18361077b565b61077b565b906020610df260405190565b6352d1902d60e01b815292839060049082905afa60009281610e77575b50610e415750506001610e1f5750565b634c9c8ce360e01b60009081526001600160a01b039091166004526024036000fd5b909291610e4f61017261085f565b8403610e605761015c929350610f9b565b632a87526960e21b60009081526004859052602490fd5b610e9a91935060203d602011610ea1575b610e928183610318565b810190610dc0565b9138610e0f565b503d610e88565b610eb13061077b565b610ee36001600160a01b037f000000000000000000000000000000000000000000000000000000000000000016610d21565b03610d3e57565b61017260006107ec61017261085f565b61017261102d565b610f0a611035565b61015c610f15611060565b610f1d611060565b610f2f610f28610473565b3390610be8565b50610f3b610f28610d75565b506106c8610f2861070c565b61015c610f02565b6001600160a01b03909116815260408101929161015c9160200152565b90610f7a6109ed82846108d3565b610f82575050565b63e2517d3f60e01b600090815291610707916004610f4f565b90610fa582611068565b610fae8261077b565b7fbc7cd75a20ee27fd9adebab32041f755214dbc6bffa90cc0225b39da2e5c2d3b610fd860405190565b600090a28051610feb610af96000610466565b1115610ffa576106c8916110ef565b505061015c6110ad565b6101727ff0c57e16840df040f15088dc2f81fe391c3923bec73e23a9662efc9c229c6a00610466565b610172611004565b6110406109ed611116565b61104657565b631afcd79f60e31b6000908152600490fd5b61015c611035565b61015c611058565b6000813b611078610af983610466565b1461108d579061015c916107b561017261085f565b634c9c8ce360e01b81526001600160a01b03919091166004820152602490fd5b60006110b881610466565b34116110c15750565b63b398979f60e01b8152600490fd5b3d156110ea576110df3d6104bb565b903d6000602084013e565b606090565b600080610172936110fe606090565b50602081519101845af46111106110d0565b91611129565b6101726000611123610efa565b0161091d565b906111345750611188565b815190600091611146610af984610466565b1480611173575b61115657505090565b639996b31560e01b82526001600160a01b03166004820152602490fd5b50803b611182610af984610466565b1461114d565b8051600090611199610af983610466565b11156111a85750805190602001fd5b63d6bda27560e01b8152600490fdfe0883a0a917fea80562573e6afe782216fbb17a54ede6c467a2e8aaeadf791bda02dd7bc7dec4dceedda775e58dd541e08a116c6c53815c0bd028192f7b626800a2646970667358221220bde54ba56e63d45f3b8b63c8e151b7e9f72e7b12889871217e5e89194d905a0a64736f6c634300081e0033",
  "linkReferences": {},
  "deployedLinkReferences": {},
  "networkId": 11155111,
  "address": "0x01AbD13ff659d75233F25016230B40AF842cf25B"
}