{
  "_format": "hh-sol-artifact-1",
  "contractName": "Config",
  "sourceName": "contracts/platform/Config.sol",
  "abi": [
    {
      "inputs": [],
      "name": "AccessControlBadConfirmation",
      "type": "error"
    },
    {
      "inputs": [
        {
          "internalType": "address",
          "name": "account",
          "type": "address"
        },
        {
          "internalType": "bytes32",
          "name": "neededRole",
          "type": "bytes32"
        }
      ],
      "name": "AccessControlUnauthorizedAccount",
      "type": "error"
    },
    {
      "inputs": [
        {
          "internalType": "address",
          "name": "target",
          "type": "address"
        }
      ],
      "name": "AddressEmptyCode",
      "type": "error"
    },
    {
      "inputs": [
        {
          "internalType": "address",
          "name": "implementation",
          "type": "address"
        }
      ],
      "name": "ERC1967InvalidImplementation",
      "type": "error"
    },
    {
      "inputs": [],
      "name": "ERC1967NonPayable",
      "type": "error"
    },
    {
      "inputs": [],
      "name": "FailedCall",
      "type": "error"
    },
    {
      "inputs": [],
      "name": "InvalidInitialization",
      "type": "error"
    },
    {
      "inputs": [],
      "name": "NotInitializing",
      "type": "error"
    },
    {
      "inputs": [],
      "name": "UUPSUnauthorizedCallContext",
      "type": "error"
    },
    {
      "inputs": [
        {
          "internalType": "bytes32",
          "name": "slot",
          "type": "bytes32"
        }
      ],
      "name": "UUPSUnsupportedProxiableUUID",
      "type": "error"
    },
    {
      "anonymous": false,
      "inputs": [
        {
          "indexed": false,
          "internalType": "uint64",
          "name": "version",
          "type": "uint64"
        }
      ],
      "name": "Initialized",
      "type": "event"
    },
    {
      "anonymous": false,
      "inputs": [
        {
          "indexed": true,
          "internalType": "bytes32",
          "name": "role",
          "type": "bytes32"
        },
        {
          "indexed": true,
          "internalType": "bytes32",
          "name": "previousAdminRole",
          "type": "bytes32"
        },
        {
          "indexed": true,
          "internalType": "bytes32",
          "name": "newAdminRole",
          "type": "bytes32"
        }
      ],
      "name": "RoleAdminChanged",
      "type": "event"
    },
    {
      "anonymous": false,
      "inputs": [
        {
          "indexed": true,
          "internalType": "bytes32",
          "name": "role",
          "type": "bytes32"
        },
        {
          "indexed": true,
          "internalType": "address",
          "name": "account",
          "type": "address"
        },
        {
          "indexed": true,
          "internalType": "address",
          "name": "sender",
          "type": "address"
        }
      ],
      "name": "RoleGranted",
      "type": "event"
    },
    {
      "anonymous": false,
      "inputs": [
        {
          "indexed": true,
          "internalType": "bytes32",
          "name": "role",
          "type": "bytes32"
        },
        {
          "indexed": true,
          "internalType": "address",
          "name": "account",
          "type": "address"
        },
        {
          "indexed": true,
          "internalType": "address",
          "name": "sender",
          "type": "address"
        }
      ],
      "name": "RoleRevoked",
      "type": "event"
    },
    {
      "anonymous": false,
      "inputs": [
        {
          "indexed": true,
          "internalType": "address",
          "name": "implementation",
          "type": "address"
        }
      ],
      "name": "Upgraded",
      "type": "event"
    },
    {
      "inputs": [],
      "name": "DEFAULT_ADMIN_ROLE",
      "outputs": [
        {
          "internalType": "bytes32",
          "name": "",
          "type": "bytes32"
        }
      ],
      "stateMutability": "view",
      "type": "function"
    },
    {
      "inputs": [],
      "name": "UPGRADE_INTERFACE_VERSION",
      "outputs": [
        {
          "internalType": "string",
          "name": "",
          "type": "string"
        }
      ],
      "stateMutability": "view",
      "type": "function"
    },
    {
      "inputs": [],
      "name": "getFeeManager",
      "outputs": [
        {
          "internalType": "address",
          "name": "",
          "type": "address"
        }
      ],
      "stateMutability": "view",
      "type": "function"
    },
    {
      "inputs": [],
      "name": "getImplementation",
      "outputs": [
        {
          "internalType": "address",
          "name": "",
          "type": "address"
        }
      ],
      "stateMutability": "view",
      "type": "function"
    },
    {
      "inputs": [],
      "name": "getOrganizerRegistry",
      "outputs": [
        {
          "internalType": "address",
          "name": "",
          "type": "address"
        }
      ],
      "stateMutability": "view",
      "type": "function"
    },
    {
      "inputs": [
        {
          "internalType": "bytes32",
          "name": "role",
          "type": "bytes32"
        }
      ],
      "name": "getRoleAdmin",
      "outputs": [
        {
          "internalType": "bytes32",
          "name": "",
          "type": "bytes32"
        }
      ],
      "stateMutability": "view",
      "type": "function"
    },
    {
      "inputs": [],
      "name": "getTreasury",
      "outputs": [
        {
          "internalType": "address",
          "name": "",
          "type": "address"
        }
      ],
      "stateMutability": "view",
      "type": "function"
    },
    {
      "inputs": [
        {
          "internalType": "bytes32",
          "name": "role",
          "type": "bytes32"
        },
        {
          "internalType": "address",
          "name": "account",
          "type": "address"
        }
      ],
      "name": "grantRole",
      "outputs": [],
      "stateMutability": "nonpayable",
      "type": "function"
    },
    {
      "inputs": [
        {
          "internalType": "bytes32",
          "name": "role",
          "type": "bytes32"
        },
        {
          "internalType": "address",
          "name": "account",
          "type": "address"
        }
      ],
      "name": "hasRole",
      "outputs": [
        {
          "internalType": "bool",
          "name": "",
          "type": "bool"
        }
      ],
      "stateMutability": "view",
      "type": "function"
    },
    {
      "inputs": [
        {
          "internalType": "address",
          "name": "feeManager",
          "type": "address"
        },
        {
          "internalType": "address",
          "name": "treasury",
          "type": "address"
        },
        {
          "internalType": "address",
          "name": "organizerRegistry",
          "type": "address"
        }
      ],
      "name": "initialize",
      "outputs": [],
      "stateMutability": "nonpayable",
      "type": "function"
    },
    {
      "inputs": [],
      "name": "proxiableUUID",
      "outputs": [
        {
          "internalType": "bytes32",
          "name": "",
          "type": "bytes32"
        }
      ],
      "stateMutability": "view",
      "type": "function"
    },
    {
      "inputs": [
        {
          "internalType": "bytes32",
          "name": "role",
          "type": "bytes32"
        },
        {
          "internalType": "address",
          "name": "callerConfirmation",
          "type": "address"
        }
      ],
      "name": "renounceRole",
      "outputs": [],
      "stateMutability": "nonpayable",
      "type": "function"
    },
    {
      "inputs": [
        {
          "internalType": "bytes32",
          "name": "role",
          "type": "bytes32"
        },
        {
          "internalType": "address",
          "name": "account",
          "type": "address"
        }
      ],
      "name": "revokeRole",
      "outputs": [],
      "stateMutability": "nonpayable",
      "type": "function"
    },
    {
      "inputs": [
        {
          "internalType": "address",
          "name": "feeManager",
          "type": "address"
        }
      ],
      "name": "setFeeManager",
      "outputs": [],
      "stateMutability": "nonpayable",
      "type": "function"
    },
    {
      "inputs": [
        {
          "internalType": "address",
          "name": "organizerRegistry",
          "type": "address"
        }
      ],
      "name": "setOrganizerRegistry",
      "outputs": [],
      "stateMutability": "nonpayable",
      "type": "function"
    },
    {
      "inputs": [
        {
          "internalType": "address",
          "name": "treasury",
          "type": "address"
        }
      ],
      "name": "setTreasury",
      "outputs": [],
      "stateMutability": "nonpayable",
      "type": "function"
    },
    {
      "inputs": [
        {
          "internalType": "bytes4",
          "name": "interfaceId",
          "type": "bytes4"
        }
      ],
      "name": "supportsInterface",
      "outputs": [
        {
          "internalType": "bool",
          "name": "",
          "type": "bool"
        }
      ],
      "stateMutability": "view",
      "type": "function"
    },
    {
      "inputs": [
        {
          "internalType": "address",
          "name": "newImplementation",
          "type": "address"
        },
        {
          "internalType": "bytes",
          "name": "data",
          "type": "bytes"
        }
      ],
      "name": "upgradeToAndCall",
      "outputs": [],
      "stateMutability": "payable",
      "type": "function"
    }
  ],
  "bytecode": "0x60a06040523461003257610011610037565b60405161159c6101fd8239608051818181610f4001526111b0015261159c90f35b600080fd5b61003f610041565b565b610049610051565b61003f61011e565b61003f61003f61003f61003f61003f61009a565b6100799061007c906001600160a01b031682565b90565b6001600160a01b031690565b61007990610065565b61007990610088565b6100a330610091565b608052565b6100799060401c60ff1690565b61007990546100a8565b610079905b6001600160401b031690565b61007990546100bf565b610079906100c4906001600160401b031682565b906100fe61007961011a926100da565b82546001600160401b0319166001600160401b03919091161790565b9055565b60006101286101b6565b01610132816100b5565b6101a45761013f816100d0565b6001600160401b0391908290811603610156575050565b816101857fc7f505b2f371ae2175ee4913f4499e1f2633a7b5936321eed1cdaeb6115181d29361019f936100ee565b604051918291826001600160401b03909116815260200190565b0390a1565b63f92ee8a960e01b6000908152600490fd5b6100796101f4565b6100796100796100799290565b6100797ff0c57e16840df040f15088dc2f81fe391c3923bec73e23a9662efc9c229c6a006101be565b6100796101cb56fe6080604052600436101561001257600080fd5b60003560e01c806301ffc9a714610132578063248a9ca31461012d5780632f2ff15d1461012857806336568abe1461012357806336991bf51461011e5780633b19e84a14610119578063472d35b9146101145780634f1ef2861461010f57806352d1902d1461010a5780635a97adc91461010557806391d1485414610100578063a217fddf146100fb578063aaf10f42146100f6578063ad3cb1cc146100f1578063c0c53b8b146100ec578063d547741f146100e7578063f0f44260146100e25763f2d6382603610162576106cc565b6106b4565b61069b565b610682565b610632565b610534565b610519565b6104de565b6104c3565b6104a8565b610494565b610329565b6102e7565b6102c4565b610297565b610279565b6101e9565b610191565b7fffffffff0000000000000000000000000000000000000000000000000000000081165b0361016257565b600080fd5b9050359061017482610137565b565b906020828203126101625761018a91610167565b90565b9052565b34610162576101be6101ac6101a7366004610176565b6106e7565b60405191829182901515815260200190565b0390f35b8061015b565b90503590610174826101c2565b906020828203126101625761018a916101c8565b34610162576101be6102046101ff3660046101d5565b6107a4565b6040519182918290815260200190565b73ffffffffffffffffffffffffffffffffffffffff1690565b73ffffffffffffffffffffffffffffffffffffffff811661015b565b905035906101748261022d565b91906040838203126101625761018a90602061027282866101c8565b9401610249565b346101625761029261028c366004610256565b90610809565b604051005b34610162576102926102aa366004610256565b90610813565b906020828203126101625761018a91610249565b34610162576102926102d73660046102b0565b61094d565b600091031261016257565b34610162576102f73660046102dc565b6101be610302610969565b6040519182918273ffffffffffffffffffffffffffffffffffffffff909116815260200190565b346101625761029261033c3660046102b0565b6109d1565b7f4e487b7100000000000000000000000000000000000000000000000000000000600052604160045260246000fd5b90601f017fffffffffffffffffffffffffffffffffffffffffffffffffffffffffffffffe016810190811067ffffffffffffffff8211176103b057604052565b610341565b906101746103c260405190565b9283610370565b67ffffffffffffffff81116103b057602090601f017fffffffffffffffffffffffffffffffffffffffffffffffffffffffffffffffe0160190565b0190565b90826000939282370152565b90929192610429610424826103c9565b6103b5565b938185528183011161016257610174916020850190610408565b9080601f830112156101625781602061018a93359101610414565b919091604081840312610162576104758382610249565b92602082013567ffffffffffffffff81116101625761018a9201610443565b6102926104a236600461045e565b906109fa565b34610162576104b83660046102dc565b6101be610204610a47565b34610162576104d33660046102dc565b6101be610302610a51565b34610162576101be6101ac6104f4366004610256565b90610a9b565b61018a61018a61018a9290565b61018a60006104fa565b61018a610507565b34610162576105293660046102dc565b6101be610204610511565b34610162576105443660046102dc565b6101be610302610ae3565b9061055c610424836103c9565b918252565b61056b600561054f565b7f352e302e30000000000000000000000000000000000000000000000000000000602082015290565b61018a610561565b61018a610594565b61018a61059c565b60005b8381106105bf5750506000910152565b81810151838201526020016105af565b6105f06105f9602093610404936105e4815190565b80835293849260200190565b958691016105ac565b601f017fffffffffffffffffffffffffffffffffffffffffffffffffffffffffffffffe01690565b602080825261018a929101906105cf565b34610162576106423660046102dc565b6101be61064d6105a4565b60405191829182610621565b90916060828403126101625761018a6106728484610249565b9360406102728260208701610249565b3461016257610292610695366004610659565b91610d47565b34610162576102926106ae366004610256565b90610d6d565b34610162576102926106c73660046102b0565b610db2565b34610162576106dc3660046102dc565b6101be610302610dbb565b7f7965db0b000000000000000000000000000000000000000000000000000000007fffffffff00000000000000000000000000000000000000000000000000000000821614908115610737575090565b61018a91507fffffffff00000000000000000000000000000000000000000000000000000000167f01ffc9a7000000000000000000000000000000000000000000000000000000001490565b905b600052602052604060002090565b61018a9081565b61018a9054610793565b60016107e061018a926107b5600090565b5060007f02dd7bc7dec4dceedda775e58dd541e08a116c6c53815c0bd028192f7b6268005b01610783565b0161079a565b90610174916107fc6107f7826107a4565b610de6565b9061080691610e11565b50565b90610174916107e6565b9061081d33610214565b73ffffffffffffffffffffffffffffffffffffffff8216036108425761080691610eb6565b7f6697b23200000000000000000000000000000000000000000000000000000000600090815260045b036000fd5b61018a7faf290d8680820aad922855f39b306097b20e28774d6c1ad35a20325630c3a02c6104fa565b610174906108a86107f7610870565b61091f565b9073ffffffffffffffffffffffffffffffffffffffff905b9181191691161790565b61021461018a61018a9273ffffffffffffffffffffffffffffffffffffffff1690565b61018a906108cf565b61018a906108f2565b9061091461018a61091b926108fb565b82546108ad565b9055565b6101749060027f0883a0a917fea80562573e6afe782216fbb17a54ede6c467a2e8aaeadf791bda5b01610904565b61017490610899565b61018a90610214565b61018a9054610956565b61018a60017f0883a0a917fea80562573e6afe782216fbb17a54ede6c467a2e8aaeadf791bda5b0161095f565b610174906109a56107f7610870565b6101749060007f0883a0a917fea80562573e6afe782216fbb17a54ede6c467a2e8aaeadf791bda610947565b61017490610996565b90610174916109e7610f35565b90610174916109f581611037565b611061565b90610174916109da565b61018a90610a1061118d565b610a3e565b61018a7f360894a13ba1a3210667c828492db98dca3e2076cc3735a920a3ca505d382bbc6104fa565b5061018a610a15565b61018a6000610a04565b61018a60027f0883a0a917fea80562573e6afe782216fbb17a54ede6c467a2e8aaeadf791bda610990565b90610785906108fb565b61018a905b60ff1690565b61018a9054610a86565b61018a916000610ad8610ade93610ab0600090565b50827f02dd7bc7dec4dceedda775e58dd541e08a116c6c53815c0bd028192f7b6268006107da565b01610a7c565b610a91565b61018a6111dc565b61018a9060401c610a8b565b61018a9054610aeb565b61018a905b67ffffffffffffffff1690565b61018a9054610b01565b610b0661018a61018a9290565b9067ffffffffffffffff906108c5565b610b0661018a61018a9267ffffffffffffffff1690565b90610b6161018a61091b92610b3a565b8254610b2a565b9068ff00000000000000009060401b6108c5565b90610b8c61018a61091b92151590565b8254610b68565b61018d90610b1d565b6020810192916101749190610b93565b90610bb56111ec565b928390610bd1610bcb610bc784610af7565b1590565b92610b13565b92600094610bde86610b1d565b67ffffffffffffffff86161480610cf9575b600195610c0d610bff88610b1d565b9167ffffffffffffffff1690565b149081610cd1575b155b9081610cc8575b50610ca05790610c49929184610c4088610c3789610b1d565b9a01998a610b51565b610c9157610d00565b610c5257505050565b610c80610c8c927fc7f505b2f371ae2175ee4913f4499e1f2633a7b5936321eed1cdaeb6115181d294610b7c565b60405191829182610b9c565b0390a1565b610c9b8689610b7c565b610d00565b7ff92ee8a9000000000000000000000000000000000000000000000000000000008652600486fd5b15905038610c1e565b9050610c17610cdf306108fb565b3b610cf0610cec8a6104fa565b9190565b14919050610c15565b5083610bf0565b6002906109476101749493610d13611239565b610d3e7f0883a0a917fea80562573e6afe782216fbb17a54ede6c467a2e8aaeadf791bda9384610904565b60018301610904565b906101749291610bac565b9061017491610d636107f7826107a4565b9061080691610eb6565b9061017491610d52565b61017490610d866107f7610870565b6101749060017f0883a0a917fea80562573e6afe782216fbb17a54ede6c467a2e8aaeadf791bda610947565b61017490610d77565b61018a60007f0883a0a917fea80562573e6afe782216fbb17a54ede6c467a2e8aaeadf791bda610990565b61017490339061126b565b9060ff906108c5565b90610e0a61018a61091b92151590565b8254610df1565b7f02dd7bc7dec4dceedda775e58dd541e08a116c6c53815c0bd028192f7b626800610e3f610bc78484610a9b565b15610eae576001610e5b846000610ad88682610e609701610783565b610dfa565b610e7a610e74610e6e339390565b936108fb565b916108fb565b917f2f8788117e7eff1d82e926ec794901d17c78024a50270940304540a733656f0d610ea560405190565b600090a4600190565b505050600090565b7f02dd7bc7dec4dceedda775e58dd541e08a116c6c53815c0bd028192f7b626800610ee18383610a9b565b15610eae576000610e5b8482610ad88682610efc9701610783565b610f0a610e74610e6e339390565b917ff6391f5c32d9c69d2a47ea670b442974b53935d1edc7fd64eb21e047a839171b610ea560405190565b610f3e306108fb565b7f000000000000000000000000000000000000000000000000000000000000000090610f9573ffffffffffffffffffffffffffffffffffffffff83165b9173ffffffffffffffffffffffffffffffffffffffff1690565b14908115610fd0575b50610fa557565b7fe07c8dba000000000000000000000000000000000000000000000000000000006000908152600490fd5b9050610ffa610f7b610fe06111dc565b9273ffffffffffffffffffffffffffffffffffffffff1690565b141538610f9e565b61018a7fa615a8afb6fffcb8c6809ac0997b5c9c12b8cc97651150f14c8f6203168cff4c6104fa565b506101746107f7611002565b6101749061102b565b90505190610174826101c2565b906020828203126101625761018a91611040565b9061107361106e836108fb565b6108fb565b90602061107f60405190565b7f52d1902d00000000000000000000000000000000000000000000000000000000815292839060049082905afa6000928161115c575b5061110d57505060016110c55750565b7f4c9c8ce300000000000000000000000000000000000000000000000000000000600090815273ffffffffffffffffffffffffffffffffffffffff9091166004526024036000fd5b90929161111b61018a610a15565b840361112c576101749293506112b3565b7faa1d49a40000000000000000000000000000000000000000000000000000000060009081526004859052602490fd5b61117f91935060203d602011611186575b6111778183610370565b81019061104d565b91386110b5565b503d61116d565b611196306108fb565b6111d573ffffffffffffffffffffffffffffffffffffffff7f000000000000000000000000000000000000000000000000000000000000000016610f7b565b03610fa557565b61018a600061099061018a610a15565b61018a611345565b6111fc61134d565b610174611207611391565b61120f611391565b61122161121a610507565b3390610e11565b5061122d61121a611002565b5061080661121a610870565b6101746111f4565b73ffffffffffffffffffffffffffffffffffffffff90911681526040810192916101749160200152565b90611279610bc78284610a9b565b611281575050565b7fe2517d3f0000000000000000000000000000000000000000000000000000000060009081529161086b916004611241565b906112bd82611399565b6112c6826108fb565b7fbc7cd75a20ee27fd9adebab32041f755214dbc6bffa90cc0225b39da2e5c2d3b6112f060405190565b600090a28051611303610cec60006104fa565b1115611312576108069161145f565b5050610174611404565b61018a7ff0c57e16840df040f15088dc2f81fe391c3923bec73e23a9662efc9c229c6a006104fa565b61018a61131c565b611358610bc7611486565b61135e57565b7fd7e6bcf8000000000000000000000000000000000000000000000000000000006000908152600490fd5b61017461134d565b610174611389565b6000813b6113a9610cec836104fa565b146113be57906101749161094761018a610a15565b7f4c9c8ce300000000000000000000000000000000000000000000000000000000815273ffffffffffffffffffffffffffffffffffffffff919091166004820152602490fd5b600061140f816104fa565b34116114185750565b7fb398979f000000000000000000000000000000000000000000000000000000008152600490fd5b3d1561145a5761144f3d61054f565b903d6000602084013e565b606090565b60008061018a9361146e606090565b50602081519101845af4611480611440565b91611499565b61018a60006114936111ec565b01610af7565b906114a4575061151e565b8151906000916114b6610cec846104fa565b1480611509575b6114c657505090565b7f9996b31500000000000000000000000000000000000000000000000000000000825273ffffffffffffffffffffffffffffffffffffffff166004820152602490fd5b50803b611518610cec846104fa565b146114bd565b805160009061152f610cec836104fa565b111561153e5750805190602001fd5b7fd6bda275000000000000000000000000000000000000000000000000000000008152600490fdfea2646970667358221220970b1b1b7ff786fedfb55237770e4e9dfc593b8de95b9d5366cef64d49186b6c64736f6c634300081e0033",
  "linkReferences": {},
  "deployedLinkReferences": {},
  "networkId": 31337,
  "address": "0xD9cA22646bDbB0772ff1B15CC139e229f0AA7b64"
}