{
  "_format": "hh-sol-artifact-1",
  "contractName": "FeeManager",
  "sourceName": "contracts/platform/FeeManager.sol",
  "abi": [
    {
      "inputs": [],
      "name": "AccessControlBadConfirmation",
      "type": "error"
    },
    {
      "inputs": [
        {
          "internalType": "address",
          "name": "account",
          "type": "address"
        },
        {
          "internalType": "bytes32",
          "name": "neededRole",
          "type": "bytes32"
        }
      ],
      "name": "AccessControlUnauthorizedAccount",
      "type": "error"
    },
    {
      "inputs": [
        {
          "internalType": "address",
          "name": "target",
          "type": "address"
        }
      ],
      "name": "AddressEmptyCode",
      "type": "error"
    },
    {
      "inputs": [
        {
          "internalType": "address",
          "name": "implementation",
          "type": "address"
        }
      ],
      "name": "ERC1967InvalidImplementation",
      "type": "error"
    },
    {
      "inputs": [],
      "name": "ERC1967NonPayable",
      "type": "error"
    },
    {
      "inputs": [],
      "name": "FailedCall",
      "type": "error"
    },
    {
      "inputs": [],
      "name": "InvalidInitialization",
      "type": "error"
    },
    {
      "inputs": [],
      "name": "NotInitializing",
      "type": "error"
    },
    {
      "inputs": [],
      "name": "UUPSUnauthorizedCallContext",
      "type": "error"
    },
    {
      "inputs": [
        {
          "internalType": "bytes32",
          "name": "slot",
          "type": "bytes32"
        }
      ],
      "name": "UUPSUnsupportedProxiableUUID",
      "type": "error"
    },
    {
      "anonymous": false,
      "inputs": [
        {
          "indexed": false,
          "internalType": "uint64",
          "name": "version",
          "type": "uint64"
        }
      ],
      "name": "Initialized",
      "type": "event"
    },
    {
      "anonymous": false,
      "inputs": [
        {
          "indexed": true,
          "internalType": "bytes32",
          "name": "role",
          "type": "bytes32"
        },
        {
          "indexed": true,
          "internalType": "bytes32",
          "name": "previousAdminRole",
          "type": "bytes32"
        },
        {
          "indexed": true,
          "internalType": "bytes32",
          "name": "newAdminRole",
          "type": "bytes32"
        }
      ],
      "name": "RoleAdminChanged",
      "type": "event"
    },
    {
      "anonymous": false,
      "inputs": [
        {
          "indexed": true,
          "internalType": "bytes32",
          "name": "role",
          "type": "bytes32"
        },
        {
          "indexed": true,
          "internalType": "address",
          "name": "account",
          "type": "address"
        },
        {
          "indexed": true,
          "internalType": "address",
          "name": "sender",
          "type": "address"
        }
      ],
      "name": "RoleGranted",
      "type": "event"
    },
    {
      "anonymous": false,
      "inputs": [
        {
          "indexed": true,
          "internalType": "bytes32",
          "name": "role",
          "type": "bytes32"
        },
        {
          "indexed": true,
          "internalType": "address",
          "name": "account",
          "type": "address"
        },
        {
          "indexed": true,
          "internalType": "address",
          "name": "sender",
          "type": "address"
        }
      ],
      "name": "RoleRevoked",
      "type": "event"
    },
    {
      "anonymous": false,
      "inputs": [
        {
          "indexed": true,
          "internalType": "address",
          "name": "implementation",
          "type": "address"
        }
      ],
      "name": "Upgraded",
      "type": "event"
    },
    {
      "inputs": [],
      "name": "DEFAULT_ADMIN_ROLE",
      "outputs": [
        {
          "internalType": "bytes32",
          "name": "",
          "type": "bytes32"
        }
      ],
      "stateMutability": "view",
      "type": "function"
    },
    {
      "inputs": [],
      "name": "UPGRADE_INTERFACE_VERSION",
      "outputs": [
        {
          "internalType": "string",
          "name": "",
          "type": "string"
        }
      ],
      "stateMutability": "view",
      "type": "function"
    },
    {
      "inputs": [
        {
          "internalType": "uint256",
          "name": "amount",
          "type": "uint256"
        }
      ],
      "name": "calculateFee",
      "outputs": [
        {
          "internalType": "uint256",
          "name": "",
          "type": "uint256"
        }
      ],
      "stateMutability": "view",
      "type": "function"
    },
    {
      "inputs": [],
      "name": "getFeeRate",
      "outputs": [
        {
          "internalType": "uint256",
          "name": "",
          "type": "uint256"
        }
      ],
      "stateMutability": "view",
      "type": "function"
    },
    {
      "inputs": [],
      "name": "getImplementation",
      "outputs": [
        {
          "internalType": "address",
          "name": "",
          "type": "address"
        }
      ],
      "stateMutability": "view",
      "type": "function"
    },
    {
      "inputs": [
        {
          "internalType": "bytes32",
          "name": "role",
          "type": "bytes32"
        }
      ],
      "name": "getRoleAdmin",
      "outputs": [
        {
          "internalType": "bytes32",
          "name": "",
          "type": "bytes32"
        }
      ],
      "stateMutability": "view",
      "type": "function"
    },
    {
      "inputs": [
        {
          "internalType": "bytes32",
          "name": "role",
          "type": "bytes32"
        },
        {
          "internalType": "address",
          "name": "account",
          "type": "address"
        }
      ],
      "name": "grantRole",
      "outputs": [],
      "stateMutability": "nonpayable",
      "type": "function"
    },
    {
      "inputs": [
        {
          "internalType": "bytes32",
          "name": "role",
          "type": "bytes32"
        },
        {
          "internalType": "address",
          "name": "account",
          "type": "address"
        }
      ],
      "name": "hasRole",
      "outputs": [
        {
          "internalType": "bool",
          "name": "",
          "type": "bool"
        }
      ],
      "stateMutability": "view",
      "type": "function"
    },
    {
      "inputs": [
        {
          "internalType": "uint256",
          "name": "feeRate",
          "type": "uint256"
        }
      ],
      "name": "initialize",
      "outputs": [],
      "stateMutability": "nonpayable",
      "type": "function"
    },
    {
      "inputs": [],
      "name": "proxiableUUID",
      "outputs": [
        {
          "internalType": "bytes32",
          "name": "",
          "type": "bytes32"
        }
      ],
      "stateMutability": "view",
      "type": "function"
    },
    {
      "inputs": [
        {
          "internalType": "bytes32",
          "name": "role",
          "type": "bytes32"
        },
        {
          "internalType": "address",
          "name": "callerConfirmation",
          "type": "address"
        }
      ],
      "name": "renounceRole",
      "outputs": [],
      "stateMutability": "nonpayable",
      "type": "function"
    },
    {
      "inputs": [
        {
          "internalType": "bytes32",
          "name": "role",
          "type": "bytes32"
        },
        {
          "internalType": "address",
          "name": "account",
          "type": "address"
        }
      ],
      "name": "revokeRole",
      "outputs": [],
      "stateMutability": "nonpayable",
      "type": "function"
    },
    {
      "inputs": [
        {
          "internalType": "uint256",
          "name": "rate",
          "type": "uint256"
        }
      ],
      "name": "setFeeRate",
      "outputs": [],
      "stateMutability": "nonpayable",
      "type": "function"
    },
    {
      "inputs": [
        {
          "internalType": "bytes4",
          "name": "interfaceId",
          "type": "bytes4"
        }
      ],
      "name": "supportsInterface",
      "outputs": [
        {
          "internalType": "bool",
          "name": "",
          "type": "bool"
        }
      ],
      "stateMutability": "view",
      "type": "function"
    },
    {
      "inputs": [
        {
          "internalType": "address",
          "name": "newImplementation",
          "type": "address"
        },
        {
          "internalType": "bytes",
          "name": "data",
          "type": "bytes"
        }
      ],
      "name": "upgradeToAndCall",
      "outputs": [],
      "stateMutability": "payable",
      "type": "function"
    }
  ],
  "bytecode": "0x60a06040523461003257610011610037565b6040516111926101fd8239608051818181610c130152610dde015261119290f35b600080fd5b61003f610041565b565b610049610051565b61003f61011e565b61003f61003f61003f61003f61003f61009a565b6100799061007c906001600160a01b031682565b90565b6001600160a01b031690565b61007990610065565b61007990610088565b6100a330610091565b608052565b6100799060401c60ff1690565b61007990546100a8565b610079905b6001600160401b031690565b61007990546100bf565b610079906100c4906001600160401b031682565b906100fe61007961011a926100da565b82546001600160401b0319166001600160401b03919091161790565b9055565b60006101286101b6565b01610132816100b5565b6101a45761013f816100d0565b6001600160401b0391908290811603610156575050565b816101857fc7f505b2f371ae2175ee4913f4499e1f2633a7b5936321eed1cdaeb6115181d29361019f936100ee565b604051918291826001600160401b03909116815260200190565b0390a1565b63f92ee8a960e01b6000908152600490fd5b6100796101f4565b6100796100796100799290565b6100797ff0c57e16840df040f15088dc2f81fe391c3923bec73e23a9662efc9c229c6a006101be565b6100796101cb56fe6080604052600436101561001257600080fd5b60003560e01c806301ffc9a714610102578063248a9ca3146100fd5780632f2ff15d146100f857806336568abe146100f357806345596e2e146100ee5780634f1ef286146100e957806352d1902d146100e457806384e5eed0146100df57806391d14854146100da57806399a5d747146100d5578063a217fddf146100d0578063aaf10f42146100cb578063ad3cb1cc146100c6578063d547741f146100c15763fe4b84df0361011a5761054c565b610533565b61050c565b61042a565b61040f565b6103d5565b6103b9565b61039e565b610383565b610364565b61024e565b610235565b610217565b6101a1565b610149565b6001600160e01b031981165b0361011a57565b600080fd5b9050359061012c82610107565b565b9060208282031261011a576101429161011f565b90565b9052565b3461011a5761017661016461015f36600461012e565b610564565b60405191829182901515815260200190565b0390f35b80610113565b9050359061012c8261017a565b9060208282031261011a5761014291610180565b3461011a576101766101bc6101b736600461018d565b6105bf565b6040519182918290815260200190565b6001600160a01b031690565b6001600160a01b038116610113565b9050359061012c826101d8565b919060408382031261011a576101429060206102108286610180565b94016101e7565b3461011a5761023061022a3660046101f4565b90610612565b604051005b3461011a576102306102483660046101f4565b9061061c565b3461011a5761023061026136600461018d565b6106d7565b634e487b7160e01b600052604160045260246000fd5b90601f01601f1916810190811067ffffffffffffffff82111761029e57604052565b610266565b9061012c6102b060405190565b928361027c565b67ffffffffffffffff811161029e57602090601f01601f19160190565b0190565b90826000939282370152565b909291926102f96102f4826102b7565b6102a3565b938185528183011161011a5761012c9160208501906102d8565b9080601f8301121561011a57816020610142933591016102e4565b91909160408184031261011a5761034583826101e7565b92602082013567ffffffffffffffff811161011a576101429201610313565b61023061037236600461032e565b90610700565b600091031261011a57565b3461011a57610393366004610378565b6101766101bc61074d565b3461011a576103ae366004610378565b6101766101bc610757565b3461011a576101766101646103cf3660046101f4565b906107b5565b3461011a576101766101bc6103eb36600461018d565b610854565b6101426101426101429290565b61014260006103f0565b6101426103fd565b3461011a5761041f366004610378565b6101766101bc610407565b3461011a5761043a366004610378565b610176610445610891565b604051918291826001600160a01b03909116815260200190565b9061046c6102f4836102b7565b918252565b61047b600561045f565b640352e302e360dc1b602082015290565b610142610471565b61014261048c565b610142610494565b60005b8381106104b75750506000910152565b81810151838201526020016104a7565b6104e86104f16020936102d4936104dc815190565b80835293849260200190565b958691016104a4565b601f01601f191690565b6020808252610142929101906104c7565b3461011a5761051c366004610378565b61017661052761049c565b604051918291826104fb565b3461011a576102306105463660046101f4565b906108b4565b3461011a5761023061055f36600461018d565b610ad4565b637965db0b60e01b6001600160e01b0319821614908115610583575090565b61014291506001600160e01b0319166301ffc9a760e01b1490565b905b600052602052604060002090565b6101429081565b61014290546105ae565b60016105e9610142926105d0600090565b50600060008051602061113d8339815191525b0161059e565b016105b5565b9061012c91610605610600826105bf565b610add565b9061060f91610b08565b50565b9061012c916105ef565b90610626336101cc565b6001600160a01b0382160361063e5761060f91610b9b565b63334bd91960e11b600090815260045b036000fd5b6101427faf290d8680820aad922855f39b306097b20e28774d6c1ad35a20325630c3a02c6103f0565b61012c9061068b610600610653565b6106bb565b90600019905b9181191691161790565b906106b06101426106b7926103f0565b8254610690565b9055565b61012c90600060008051602061111d8339815191525b016106a0565b61012c9061067c565b9061012c916106ed610c08565b9061012c916106fb81610cca565b610cf4565b9061012c916106e0565b61014290610716610dc8565b610744565b6101427f360894a13ba1a3210667c828492db98dca3e2076cc3735a920a3ca505d382bbc6103f0565b5061014261071b565b610142600061070a565b610142600060008051602061111d8339815191526105e9565b610142906101cc906001600160a01b031682565b61014290610770565b61014290610784565b906105a09061078d565b610142905b60ff1690565b61014290546107a0565b6101429160006107e06107e6936107ca600090565b508260008051602061113d8339815191526105e3565b01610796565b6107ab565b634e487b7160e01b600052601160045260246000fd5b8181029291811591840414171561081457565b6107eb565b6101426127106103f0565b634e487b7160e01b600052601260045260246000fd5b90610844565b9190565b90811561084f570490565b610824565b61088361014291610863600090565b5061087d600060008051602061111d8339815191526105e9565b90610801565b61088b610819565b9061083a565b610142610e1d565b9061012c916108aa610600826105bf565b9061060f91610b9b565b9061012c91610899565b6101429060401c6107a5565b61014290546108be565b610142905b67ffffffffffffffff1690565b61014290546108d4565b6108d96101426101429290565b9067ffffffffffffffff90610696565b6108d96101426101429267ffffffffffffffff1690565b906109346101426106b79261090d565b82546108fd565b9068ff00000000000000009060401b610696565b9061095f6101426106b792151590565b825461093b565b610145906108f0565b60208101929161012c9190610966565b610987610e33565b90816109a261099c610998836108ca565b1590565b916108e6565b906000926109af846108f0565b67ffffffffffffffff84161480610aab575b6001936109de6109d0866108f0565b9167ffffffffffffffff1690565b149081610a87575b155b9081610a7e575b50610a6f57610a189082610a0f86610a06876108f0565b98019788610924565b610a6057610ab2565b610a2157505050565b610a4f610a5b927fc7f505b2f371ae2175ee4913f4499e1f2633a7b5936321eed1cdaeb6115181d29461094f565b6040519182918261096f565b0390a1565b610a6a848761094f565b610ab2565b63f92ee8a960e01b8452600484fd5b159050386109ef565b90506109e8610a953061078d565b3b610aa2610840886103f0565b149190506109e6565b50816109c1565b61012c90610abe610e80565b600060008051602061111d8339815191526106d1565b61012c9061097f565b61012c903390610ea5565b9060ff90610696565b90610b016101426106b792151590565b8254610ae8565b60008051602061113d833981519152610b2461099884846107b5565b15610b93576001610b408460006107e08682610b45970161059e565b610af1565b610b5f610b59610b53339390565b9361078d565b9161078d565b917f2f8788117e7eff1d82e926ec794901d17c78024a50270940304540a733656f0d610b8a60405190565b600090a4600190565b505050600090565b60008051602061113d833981519152610bb483836107b5565b15610b93576000610b4084826107e08682610bcf970161059e565b610bdd610b59610b53339390565b917ff6391f5c32d9c69d2a47ea670b442974b53935d1edc7fd64eb21e047a839171b610b8a60405190565b610c113061078d565b7f000000000000000000000000000000000000000000000000000000000000000090610c4e6001600160a01b0383165b916001600160a01b031690565b14908115610c70575b50610c5e57565b63703e46dd60e11b6000908152600490fd5b9050610c8d610c41610c80610e1d565b926001600160a01b031690565b141538610c57565b6101427fa615a8afb6fffcb8c6809ac0997b5c9c12b8cc97651150f14c8f6203168cff4c6103f0565b5061012c610600610c95565b61012c90610cbe565b9050519061012c8261017a565b9060208282031261011a5761014291610cd3565b90610d06610d018361078d565b61078d565b906020610d1260405190565b6352d1902d60e01b815292839060049082905afa60009281610d97575b50610d615750506001610d3f5750565b634c9c8ce360e01b60009081526001600160a01b039091166004526024036000fd5b909291610d6f61014261071b565b8403610d805761012c929350610ed4565b632a87526960e21b60009081526004859052602490fd5b610dba91935060203d602011610dc1575b610db2818361027c565b810190610ce0565b9138610d2f565b503d610da8565b610dd13061078d565b610e036001600160a01b037f000000000000000000000000000000000000000000000000000000000000000016610c41565b03610c5e57565b610142906101cc565b6101429054610e0a565b6101426000610e2d61014261071b565b01610e13565b610142610f66565b610e43610f6e565b61012c610e4e610f99565b610e56610f99565b610e68610e616103fd565b3390610b08565b50610e74610e61610c95565b5061060f610e61610653565b61012c610e3b565b6001600160a01b03909116815260408101929161012c9160200152565b90610eb361099882846107b5565b610ebb575050565b63e2517d3f60e01b60009081529161064e916004610e88565b90610ede82610fc7565b610ee78261078d565b7fbc7cd75a20ee27fd9adebab32041f755214dbc6bffa90cc0225b39da2e5c2d3b610f1160405190565b600090a28051610f2461084060006103f0565b1115610f335761060f91611054565b505061012c611012565b6101427ff0c57e16840df040f15088dc2f81fe391c3923bec73e23a9662efc9c229c6a006103f0565b610142610f3d565b610f7961099861107b565b610f7f57565b631afcd79f60e31b6000908152600490fd5b61012c610f6e565b61012c610f91565b906001600160a01b0390610696565b90610fc06101426106b79261078d565b8254610fa1565b6000813b610fd7610840836103f0565b14610ff2579061012c91610fec61014261071b565b01610fb0565b634c9c8ce360e01b81526001600160a01b03919091166004820152602490fd5b600061101d816103f0565b34116110265750565b63b398979f60e01b8152600490fd5b3d1561104f576110443d61045f565b903d6000602084013e565b606090565b60008061014293611063606090565b50602081519101845af4611075611035565b9161108e565b6101426000611088610e33565b016108ca565b9061109957506110ed565b8151906000916110ab610840846103f0565b14806110d8575b6110bb57505090565b639996b31560e01b82526001600160a01b03166004820152602490fd5b50803b6110e7610840846103f0565b146110b2565b80516000906110fe610840836103f0565b111561110d5750805190602001fd5b63d6bda27560e01b8152600490fdfe0883a0a917fea80562573e6afe782216fbb17a54ede6c467a2e8aaeadf791bda02dd7bc7dec4dceedda775e58dd541e08a116c6c53815c0bd028192f7b626800a264697066735822122032e7d796beb139cba7829a99ed02a1ebe1fdfa1d66db3165b75c9a674d82c9d164736f6c634300081e0033",
  "linkReferences": {},
  "deployedLinkReferences": {},
  "networkId": 11155111,
  "address": "0xDEAe5Fe045Ca7FA0a6206A1434c2C23033da6BAb"
}