{
  "_format": "hh-sol-artifact-1",
  "contractName": "TicketFactory",
  "sourceName": "contracts/tickets/TicketFactory.sol",
  "abi": [
    {
      "inputs": [],
      "name": "AccessControlBadConfirmation",
      "type": "error"
    },
    {
      "inputs": [
        {
          "internalType": "address",
          "name": "account",
          "type": "address"
        },
        {
          "internalType": "bytes32",
          "name": "neededRole",
          "type": "bytes32"
        }
      ],
      "name": "AccessControlUnauthorizedAccount",
      "type": "error"
    },
    {
      "inputs": [
        {
          "internalType": "address",
          "name": "target",
          "type": "address"
        }
      ],
      "name": "AddressEmptyCode",
      "type": "error"
    },
    {
      "inputs": [
        {
          "internalType": "address",
          "name": "implementation",
          "type": "address"
        }
      ],
      "name": "ERC1967InvalidImplementation",
      "type": "error"
    },
    {
      "inputs": [],
      "name": "ERC1967NonPayable",
      "type": "error"
    },
    {
      "inputs": [],
      "name": "FailedCall",
      "type": "error"
    },
    {
      "inputs": [],
      "name": "FailedDeployment",
      "type": "error"
    },
    {
      "inputs": [
        {
          "internalType": "uint256",
          "name": "balance",
          "type": "uint256"
        },
        {
          "internalType": "uint256",
          "name": "needed",
          "type": "uint256"
        }
      ],
      "name": "InsufficientBalance",
      "type": "error"
    },
    {
      "inputs": [],
      "name": "InvalidInitialization",
      "type": "error"
    },
    {
      "inputs": [],
      "name": "InvalidOrganizer",
      "type": "error"
    },
    {
      "inputs": [],
      "name": "NotInitializing",
      "type": "error"
    },
    {
      "inputs": [],
      "name": "UUPSUnauthorizedCallContext",
      "type": "error"
    },
    {
      "inputs": [
        {
          "internalType": "bytes32",
          "name": "slot",
          "type": "bytes32"
        }
      ],
      "name": "UUPSUnsupportedProxiableUUID",
      "type": "error"
    },
    {
      "anonymous": false,
      "inputs": [
        {
          "indexed": true,
          "internalType": "address",
          "name": "owner",
          "type": "address"
        },
        {
          "indexed": true,
          "internalType": "address",
          "name": "ticket",
          "type": "address"
        },
        {
          "indexed": true,
          "internalType": "address",
          "name": "ticketLaunchpad",
          "type": "address"
        }
      ],
      "name": "Created",
      "type": "event"
    },
    {
      "anonymous": false,
      "inputs": [
        {
          "indexed": false,
          "internalType": "uint64",
          "name": "version",
          "type": "uint64"
        }
      ],
      "name": "Initialized",
      "type": "event"
    },
    {
      "anonymous": false,
      "inputs": [
        {
          "indexed": true,
          "internalType": "bytes32",
          "name": "role",
          "type": "bytes32"
        },
        {
          "indexed": true,
          "internalType": "bytes32",
          "name": "previousAdminRole",
          "type": "bytes32"
        },
        {
          "indexed": true,
          "internalType": "bytes32",
          "name": "newAdminRole",
          "type": "bytes32"
        }
      ],
      "name": "RoleAdminChanged",
      "type": "event"
    },
    {
      "anonymous": false,
      "inputs": [
        {
          "indexed": true,
          "internalType": "bytes32",
          "name": "role",
          "type": "bytes32"
        },
        {
          "indexed": true,
          "internalType": "address",
          "name": "account",
          "type": "address"
        },
        {
          "indexed": true,
          "internalType": "address",
          "name": "sender",
          "type": "address"
        }
      ],
      "name": "RoleGranted",
      "type": "event"
    },
    {
      "anonymous": false,
      "inputs": [
        {
          "indexed": true,
          "internalType": "bytes32",
          "name": "role",
          "type": "bytes32"
        },
        {
          "indexed": true,
          "internalType": "address",
          "name": "account",
          "type": "address"
        },
        {
          "indexed": true,
          "internalType": "address",
          "name": "sender",
          "type": "address"
        }
      ],
      "name": "RoleRevoked",
      "type": "event"
    },
    {
      "anonymous": false,
      "inputs": [
        {
          "indexed": true,
          "internalType": "address",
          "name": "implementation",
          "type": "address"
        }
      ],
      "name": "Upgraded",
      "type": "event"
    },
    {
      "inputs": [],
      "name": "DEFAULT_ADMIN_ROLE",
      "outputs": [
        {
          "internalType": "bytes32",
          "name": "",
          "type": "bytes32"
        }
      ],
      "stateMutability": "view",
      "type": "function"
    },
    {
      "inputs": [],
      "name": "UPGRADE_INTERFACE_VERSION",
      "outputs": [
        {
          "internalType": "string",
          "name": "",
          "type": "string"
        }
      ],
      "stateMutability": "view",
      "type": "function"
    },
    {
      "inputs": [
        {
          "internalType": "address",
          "name": "ethUSDPriceFeed",
          "type": "address"
        },
        {
          "components": [
            {
              "internalType": "string",
              "name": "name",
              "type": "string"
            },
            {
              "internalType": "string",
              "name": "symbol",
              "type": "string"
            },
            {
              "internalType": "string",
              "name": "coverImageURI",
              "type": "string"
            },
            {
              "internalType": "string",
              "name": "description",
              "type": "string"
            },
            {
              "internalType": "uint64",
              "name": "startTime",
              "type": "uint64"
            },
            {
              "internalType": "uint64",
              "name": "endTime",
              "type": "uint64"
            }
          ],
          "internalType": "struct EventDetails",
          "name": "eventDetails",
          "type": "tuple"
        },
        {
          "internalType": "enum Tier[]",
          "name": "tierIds",
          "type": "uint8[]"
        },
        {
          "internalType": "string[]",
          "name": "imageURIs",
          "type": "string[]"
        },
        {
          "components": [
            {
              "internalType": "uint256",
              "name": "priceUSD",
              "type": "uint256"
            },
            {
              "internalType": "uint256",
              "name": "maxSupply",
              "type": "uint256"
            },
            {
              "internalType": "uint256",
              "name": "sold",
              "type": "uint256"
            }
          ],
          "internalType": "struct TierInfo[]",
          "name": "tierInfoList",
          "type": "tuple[]"
        },
        {
          "internalType": "address[]",
          "name": "paymentTokens",
          "type": "address[]"
        },
        {
          "internalType": "address[]",
          "name": "priceFeeds",
          "type": "address[]"
        }
      ],
      "name": "createTicketPair",
      "outputs": [
        {
          "internalType": "address",
          "name": "ticket",
          "type": "address"
        },
        {
          "internalType": "address",
          "name": "ticketLaunchpad",
          "type": "address"
        }
      ],
      "stateMutability": "nonpayable",
      "type": "function"
    },
    {
      "inputs": [],
      "name": "getAuthorizedSigner",
      "outputs": [
        {
          "internalType": "address",
          "name": "",
          "type": "address"
        }
      ],
      "stateMutability": "view",
      "type": "function"
    },
    {
      "inputs": [],
      "name": "getConfigAddress",
      "outputs": [
        {
          "internalType": "address",
          "name": "",
          "type": "address"
        }
      ],
      "stateMutability": "view",
      "type": "function"
    },
    {
      "inputs": [],
      "name": "getImplementation",
      "outputs": [
        {
          "internalType": "address",
          "name": "",
          "type": "address"
        }
      ],
      "stateMutability": "view",
      "type": "function"
    },
    {
      "inputs": [
        {
          "internalType": "address",
          "name": "ticketAddr",
          "type": "address"
        }
      ],
      "name": "getLaunchpadByTicket",
      "outputs": [
        {
          "internalType": "address",
          "name": "",
          "type": "address"
        }
      ],
      "stateMutability": "view",
      "type": "function"
    },
    {
      "inputs": [
        {
          "internalType": "bytes32",
          "name": "role",
          "type": "bytes32"
        }
      ],
      "name": "getRoleAdmin",
      "outputs": [
        {
          "internalType": "bytes32",
          "name": "",
          "type": "bytes32"
        }
      ],
      "stateMutability": "view",
      "type": "function"
    },
    {
      "inputs": [],
      "name": "getTicketImplementation",
      "outputs": [
        {
          "internalType": "address",
          "name": "",
          "type": "address"
        }
      ],
      "stateMutability": "view",
      "type": "function"
    },
    {
      "inputs": [],
      "name": "getTicketLaunchpadImplementation",
      "outputs": [
        {
          "internalType": "address",
          "name": "",
          "type": "address"
        }
      ],
      "stateMutability": "view",
      "type": "function"
    },
    {
      "inputs": [
        {
          "internalType": "address",
          "name": "user",
          "type": "address"
        }
      ],
      "name": "getTicketListByUser",
      "outputs": [
        {
          "internalType": "address[]",
          "name": "",
          "type": "address[]"
        }
      ],
      "stateMutability": "view",
      "type": "function"
    },
    {
      "inputs": [
        {
          "internalType": "bytes32",
          "name": "role",
          "type": "bytes32"
        },
        {
          "internalType": "address",
          "name": "account",
          "type": "address"
        }
      ],
      "name": "grantRole",
      "outputs": [],
      "stateMutability": "nonpayable",
      "type": "function"
    },
    {
      "inputs": [
        {
          "internalType": "bytes32",
          "name": "role",
          "type": "bytes32"
        },
        {
          "internalType": "address",
          "name": "account",
          "type": "address"
        }
      ],
      "name": "hasRole",
      "outputs": [
        {
          "internalType": "bool",
          "name": "",
          "type": "bool"
        }
      ],
      "stateMutability": "view",
      "type": "function"
    },
    {
      "inputs": [
        {
          "internalType": "address",
          "name": "ticketImplementation",
          "type": "address"
        },
        {
          "internalType": "address",
          "name": "ticketLaunchpadImplementation",
          "type": "address"
        },
        {
          "internalType": "address",
          "name": "config",
          "type": "address"
        },
        {
          "internalType": "address",
          "name": "authorizedSigner",
          "type": "address"
        }
      ],
      "name": "initialize",
      "outputs": [],
      "stateMutability": "nonpayable",
      "type": "function"
    },
    {
      "inputs": [],
      "name": "proxiableUUID",
      "outputs": [
        {
          "internalType": "bytes32",
          "name": "",
          "type": "bytes32"
        }
      ],
      "stateMutability": "view",
      "type": "function"
    },
    {
      "inputs": [
        {
          "internalType": "bytes32",
          "name": "role",
          "type": "bytes32"
        },
        {
          "internalType": "address",
          "name": "callerConfirmation",
          "type": "address"
        }
      ],
      "name": "renounceRole",
      "outputs": [],
      "stateMutability": "nonpayable",
      "type": "function"
    },
    {
      "inputs": [
        {
          "internalType": "bytes32",
          "name": "role",
          "type": "bytes32"
        },
        {
          "internalType": "address",
          "name": "account",
          "type": "address"
        }
      ],
      "name": "revokeRole",
      "outputs": [],
      "stateMutability": "nonpayable",
      "type": "function"
    },
    {
      "inputs": [
        {
          "internalType": "address",
          "name": "signer",
          "type": "address"
        }
      ],
      "name": "setAuthorizedSigner",
      "outputs": [],
      "stateMutability": "nonpayable",
      "type": "function"
    },
    {
      "inputs": [
        {
          "internalType": "address",
          "name": "cfg",
          "type": "address"
        }
      ],
      "name": "setConfigAddress",
      "outputs": [],
      "stateMutability": "nonpayable",
      "type": "function"
    },
    {
      "inputs": [
        {
          "internalType": "address",
          "name": "impl",
          "type": "address"
        }
      ],
      "name": "setTicketImplementation",
      "outputs": [],
      "stateMutability": "nonpayable",
      "type": "function"
    },
    {
      "inputs": [
        {
          "internalType": "address",
          "name": "impl",
          "type": "address"
        }
      ],
      "name": "setTicketLaunchpadImplementation",
      "outputs": [],
      "stateMutability": "nonpayable",
      "type": "function"
    },
    {
      "inputs": [
        {
          "internalType": "bytes4",
          "name": "interfaceId",
          "type": "bytes4"
        }
      ],
      "name": "supportsInterface",
      "outputs": [
        {
          "internalType": "bool",
          "name": "",
          "type": "bool"
        }
      ],
      "stateMutability": "view",
      "type": "function"
    },
    {
      "inputs": [
        {
          "internalType": "address",
          "name": "newImplementation",
          "type": "address"
        },
        {
          "internalType": "bytes",
          "name": "data",
          "type": "bytes"
        }
      ],
      "name": "upgradeToAndCall",
      "outputs": [],
      "stateMutability": "payable",
      "type": "function"
    }
  ],
  "bytecode": "0x60a06040523461003257610011610037565b6040516126376101fd8239608051818181611eda0152612145015261263790f35b600080fd5b61003f610041565b565b610049610051565b61003f61011e565b61003f61003f61003f61003f61003f61009a565b6100799061007c906001600160a01b031682565b90565b6001600160a01b031690565b61007990610065565b61007990610088565b6100a330610091565b608052565b6100799060401c60ff1690565b61007990546100a8565b610079905b6001600160401b031690565b61007990546100bf565b610079906100c4906001600160401b031682565b906100fe61007961011a926100da565b82546001600160401b0319166001600160401b03919091161790565b9055565b60006101286101b6565b01610132816100b5565b6101a45761013f816100d0565b6001600160401b0391908290811603610156575050565b816101857fc7f505b2f371ae2175ee4913f4499e1f2633a7b5936321eed1cdaeb6115181d29361019f936100ee565b604051918291826001600160401b03909116815260200190565b0390a1565b63f92ee8a960e01b6000908152600490fd5b6100796101f4565b6100796100796100799290565b6100797ff0c57e16840df040f15088dc2f81fe391c3923bec73e23a9662efc9c229c6a006101be565b6100796101cb56fe6080604052600436101561001257600080fd5b60003560e01c806301ffc9a7146101825780631e96b8ea1461017d578063248a9ca3146101785780632f2ff15d1461017357806336568abe1461016e578063371b320c146101695780633ec2734114610164578063434f2f311461015f5780634f1ef2861461015a57806352d1902d1461015557806362f536681461015057806364d527051461014b57806383a12de91461014657806391d1485414610141578063a217fddf1461013c578063aaf10f4214610137578063ad3cb1cc14610132578063b38c326f1461012d578063c706703614610128578063d279b0ca14610123578063d547741f1461011e578063e5d74666146101195763f8c8765e036101b257610aeb565b610a9b565b610a82565b610a6a565b610a4f565b610a37565b610a10565b610912565b6108f7565b6108bc565b6108a4565b61088c565b610871565b610856565b610842565b610759565b6106bd565b610670565b610643565b610625565b6105d7565b610575565b6101e1565b7fffffffff0000000000000000000000000000000000000000000000000000000081165b036101b257565b600080fd5b905035906101c482610187565b565b906020828203126101b2576101da916101b7565b90565b9052565b346101b25761020e6101fc6101f73660046101c6565b610b07565b60405191829182901515815260200190565b0390f35b73ffffffffffffffffffffffffffffffffffffffff1690565b73ffffffffffffffffffffffffffffffffffffffff81166101ab565b905035906101c48261022b565b908160c09103126101b25790565b7f4e487b7100000000000000000000000000000000000000000000000000000000600052604160045260246000fd5b90601f017fffffffffffffffffffffffffffffffffffffffffffffffffffffffffffffffe016810190811067ffffffffffffffff8211176102d157604052565b610262565b906101c46102e360405190565b9283610291565b67ffffffffffffffff81116102d15760208091020190565b600211156101b257565b905035906101c482610302565b9092919261032e610329826102ea565b6102d6565b93818552602080860192028301928184116101b257915b8383106103525750505050565b60208091610360848661030c565b815201920191610345565b9080601f830112156101b2578160206101da93359101610319565b909182601f830112156101b25781359167ffffffffffffffff83116101b25760200192602083028401116101b257565b909182601f830112156101b25781359167ffffffffffffffff83116101b25760200192606083028401116101b257565b909291926103f6610329826102ea565b93818552602080860192028301928184116101b257915b83831061041a5750505050565b602080916104288486610247565b81520192019161040d565b9080601f830112156101b2578160206101da933591016103e6565b91909160e0818403126101b2576104658382610247565b92602082013567ffffffffffffffff81116101b25781610486918401610254565b92604083013567ffffffffffffffff81116101b257826104a791850161036b565b92606081013567ffffffffffffffff81116101b257836104c8918301610386565b929093608083013567ffffffffffffffff81116101b257816104eb9185016103b6565b92909360a081013567ffffffffffffffff81116101b2578361050e918301610433565b9260c082013567ffffffffffffffff81116101b25761052d9201610386565b9091565b73ffffffffffffffffffffffffffffffffffffffff90911681526040810192916101c4916020905b019073ffffffffffffffffffffffffffffffffffffffff169052565b346101b25761059a61058836600461044e565b98979097969196959295949394611229565b9061020e6105a760405190565b92839283610531565b806101ab565b905035906101c4826105b0565b906020828203126101b2576101da916105b6565b346101b25761020e6105f26105ed3660046105c3565b61161b565b6040519182918290815260200190565b91906040838203126101b2576101da90602061061e82866105b6565b9401610247565b346101b25761063e610638366004610602565b90611680565b604051005b346101b25761063e610656366004610602565b9061168a565b906020828203126101b2576101da91610247565b346101b25761020e61068b61068636600461065c565b6116e4565b6040519182918273ffffffffffffffffffffffffffffffffffffffff909116815260200190565b60009103126101b257565b346101b2576106cd3660046106b2565b61020e61068b611738565b0190565b906106fc6106f56106eb845190565b8084529260200190565b9260200190565b9060005b81811061070d5750505090565b909192610740610739600192865173ffffffffffffffffffffffffffffffffffffffff16815260200190565b9460200190565b929101610700565b60208082526101da929101906106dc565b346101b25761020e61077461076f36600461065c565b611813565b60405191829182610748565b67ffffffffffffffff81116102d157602090601f017fffffffffffffffffffffffffffffffffffffffffffffffffffffffffffffffe0160190565b90826000939282370152565b909291926107d761032982610780565b93818552818301116101b2576101c49160208501906107bb565b9080601f830112156101b2578160206101da933591016107c7565b9190916040818403126101b2576108238382610247565b92602082013567ffffffffffffffff81116101b2576101da92016107f1565b61063e61085036600461080c565b90611870565b346101b2576108663660046106b2565b61020e6105f26118bd565b346101b2576108813660046106b2565b61020e61068b6118c7565b346101b25761063e61089f36600461065c565b611958565b346101b25761063e6108b736600461065c565b61199c565b346101b25761020e6101fc6108d2366004610602565b906119ba565b6101da6101da6101da9290565b6101da60006108d8565b6101da6108e5565b346101b2576109073660046106b2565b61020e6105f26108ef565b346101b2576109223660046106b2565b61020e61068b6119fc565b9061093a61032983610780565b918252565b610949600561092d565b7f352e302e30000000000000000000000000000000000000000000000000000000602082015290565b6101da61093f565b6101da610972565b6101da61097a565b60005b83811061099d5750506000910152565b818101518382015260200161098d565b6109ce6109d76020936106d8936109c2815190565b80835293849260200190565b9586910161098a565b601f017fffffffffffffffffffffffffffffffffffffffffffffffffffffffffffffffe01690565b60208082526101da929101906109ad565b346101b257610a203660046106b2565b61020e610a2b610982565b604051918291826109ff565b346101b25761063e610a4a36600461065c565b611a3f565b346101b257610a5f3660046106b2565b61020e61068b611a48565b346101b25761063e610a7d36600461065c565b611aae565b346101b25761063e610a95366004610602565b90611ad2565b346101b257610aab3660046106b2565b61020e61068b611adc565b6080818303126101b257610aca8282610247565b926101da610adb8460208501610247565b93606061061e8260408701610247565b346101b25761063e610afe366004610ab6565b92919091611d6c565b7f7965db0b000000000000000000000000000000000000000000000000000000007fffffffff00000000000000000000000000000000000000000000000000000000821614908115610b57575090565b6101da91507fffffffff00000000000000000000000000000000000000000000000000000000167f01ffc9a7000000000000000000000000000000000000000000000000000000001490565b6102126101da6101da9273ffffffffffffffffffffffffffffffffffffffff1690565b6101da90610ba3565b6101da90610bc6565b905051906101c48261022b565b906020828203126101b2576101da91610bd8565b6040513d6000823e3d90fd5b8015156101ab565b905051906101c482610c05565b906020828203126101b2576101da91610c0d565b90610c3890610bcf565b600052602052604060002090565b9073ffffffffffffffffffffffffffffffffffffffff905b9181191691161790565b90610c786101da610c7f92610bcf565b8254610c46565b9055565b7f4e487b7100000000000000000000000000000000000000000000000000000000600052603260045260246000fd5b8054821015610cd557610ccc600191600052602060002090565b91020190600090565b610c83565b91906008610c5e910291610d0173ffffffffffffffffffffffffffffffffffffffff841b90565b921b90565b9190610d176101da610c7f93610bcf565b908354610cda565b90815491680100000000000000008310156102d15782610d479160016101c495018155610cb2565b90610d06565b90357fffffffffffffffffffffffffffffffffffffffffffffffffffffffffffffffe136839003018112156101b257016020813591019167ffffffffffffffff82116101b2573682900383136101b257565b91906109d781610db6816106d89560209181520190565b80956107bb565b67ffffffffffffffff81166101ab565b905035906101c482610dbd565b506101da906020810190610dcd565b906101da9060a0610e94610e69610e4e610e33610e1860c08701610e0d8a80610d4d565b8983038a5290610d9f565b610e2560208a018a610d4d565b9088830360208a0152610d9f565b610e406040890189610d4d565b908783036040890152610d9f565b610e5b6060880188610d4d565b908683036060880152610d9f565b94610e8b610e7a6080830183610dda565b67ffffffffffffffff166080860152565b82810190610dda565b67ffffffffffffffff16910152565b7f4e487b7100000000000000000000000000000000000000000000000000000000600052602160045260246000fd5b60021115610edc57565b610ea3565b906101c482610ed2565b6101da90610ee1565b6101dd90610eeb565b906106d881602093610ef4565b90610f196106f56106eb845190565b9060005b818110610f2a5750505090565b909192610f3d6107396001928651610efd565b929101610f1d565b906101da9291610d9f565b818352916020019081610f666020830284019490565b92836000925b848410610f7c5750505050505090565b9091929394956020610fa9610fa28385600195038852610f9c8b88610d4d565b90610f45565b9860200190565b940194019294939190610f6c565b94926101da96949161101b9161100e61102995610ff160a08b019460008c019073ffffffffffffffffffffffffffffffffffffffff169052565b73ffffffffffffffffffffffffffffffffffffffff1660208a0152565b8782036040890152610de9565b908582036060870152610f0a565b926080818503910152610f50565b506101da9060208101906105b6565b9060406110846101c4936110646110606000830183611037565b8552565b61107b6110746020830183611037565b6020860152565b82810190611037565b910152565b906106d881606093611046565b818352602090920191906000825b8282106110b2575050505090565b909192936110d26110cb6001926110c68890565b611089565b9560600190565b939201906110a4565b506101da906020810190610247565b818352602090920191906000825b828210611106575050505090565b9091929361114261113b60019261111d88866110db565b73ffffffffffffffffffffffffffffffffffffffff16815260200190565b9560200190565b939201906110f8565b999792956111f161120c966111d461121a9a976101da9f9d9a8f6105596060926111b76111fe9b61119a61012086019c600087019073ffffffffffffffffffffffffffffffffffffffff169052565b73ffffffffffffffffffffffffffffffffffffffff166020850152565b73ffffffffffffffffffffffffffffffffffffffff166040830152565b73ffffffffffffffffffffffffffffffffffffffff1660808d0152565b8a820360a08c0152610f0a565b9188830360c08a0152611096565b9085820360e08701526106dc565b926101008185039101526110ea565b909592999794989196939861123c600090565b507fe5ebfa008bacc85f8657a926bb677f563002d5a3ca82b831785a3e95c335fd74916112a66112a1807fe5ebfa008bacc85f8657a926bb677f563002d5a3ca82b831785a3e95c335fd765473ffffffffffffffffffffffffffffffffffffffff1690565b610bcf565b60206112b160405190565b7f5a97adc900000000000000000000000000000000000000000000000000000000815291829060049082905afa90811561155f576112fb916112a1916000916115d5575b50610bcf565b602061130660405190565b7f55a508b900000000000000000000000000000000000000000000000000000000815233600482015291829060249082905afa801561155f5761134f916000916115a857501590565b61157a57825473ffffffffffffffffffffffffffffffffffffffff1661137490611d78565b98899c60018501611399905473ffffffffffffffffffffffffffffffffffffffff1690565b6113a290611d78565b9c8d9a908b6113b48e60048a01610c2e565b906113be91610c68565b8c6113cc3360058a01610c2e565b906113d691610d1f565b6113df8d610bcf565b6113e890610bcf565b803b156101b257600092838e611436889561140260405190565b988997889687957fb1efdc960000000000000000000000000000000000000000000000000000000087523360048801610fb7565b03925af1801561155f57611564575b506114526112a18a610bcf565b946114956003611479600288015473ffffffffffffffffffffffffffffffffffffffff1690565b96015473ffffffffffffffffffffffffffffffffffffffff1690565b98863b156101b2576000988c988a966114e5956114b160405190565b9d8e9c8d9b8c9a7faa1395dc000000000000000000000000000000000000000000000000000000008c523360048d0161114b565b03925af1801561155f57611541575b5061151061150a61150433610bcf565b93610bcf565b91610bcf565b917f454b0172f64812df0cd504c2bd7df7aab8ff328a54d946b4bd0fa7c527adf9cc61153b60405190565b600090a4565b6115599060006115518183610291565b8101906106b2565b386114f4565b610bf9565b6115749060006115518183610291565b38611445565b7f0b46a34e00000000000000000000000000000000000000000000000000000000600090815260045b036000fd5b6115ca915060203d6020116115ce575b6115c28183610291565b810190610c1a565b1590565b503d6115b8565b6115f7915060203d6020116115fd575b6115ef8183610291565b810190610be5565b386112f5565b503d6115e5565b90610c38565b6101da9081565b6101da905461160a565b60016116576101da9261162c600090565b5060007f02dd7bc7dec4dceedda775e58dd541e08a116c6c53815c0bd028192f7b6268005b01611604565b01611611565b906101c49161167361166e8261161b565b611d8c565b9061167d91611db7565b50565b906101c49161165d565b9061169433610212565b73ffffffffffffffffffffffffffffffffffffffff8216036116b95761167d91611e50565b7f6697b232000000000000000000000000000000000000000000000000000000006000908152600490fd5b61171e6101da916116f3600090565b5060047fe5ebfa008bacc85f8657a926bb677f563002d5a3ca82b831785a3e95c335fd745b01610c2e565b5473ffffffffffffffffffffffffffffffffffffffff1690565b6101da60027fe5ebfa008bacc85f8657a926bb677f563002d5a3ca82b831785a3e95c335fd745b015473ffffffffffffffffffffffffffffffffffffffff1690565b906117956117896106eb845490565b92600052602060002090565b9060005b8181106117a65750505090565b9091926117d76117d060019261111d875473ffffffffffffffffffffffffffffffffffffffff1690565b9460010190565b929101611799565b906101da9161177a565b906101c4611803926117fa60405190565b938480926117df565b0383610291565b6101da906117e9565b61184b6101da91611822606090565b5060057fe5ebfa008bacc85f8657a926bb677f563002d5a3ca82b831785a3e95c335fd74611718565b61180a565b906101c49161185d611ecf565b906101c49161186b81611fd1565b611ffb565b906101c491611850565b6101da90611886612122565b6118b4565b6101da7f360894a13ba1a3210667c828492db98dca3e2076cc3735a920a3ca505d382bbc6108d8565b506101da61188b565b6101da600061187a565b6101da60007fe5ebfa008bacc85f8657a926bb677f563002d5a3ca82b831785a3e95c335fd7461175f565b6101da7faf290d8680820aad922855f39b306097b20e28774d6c1ad35a20325630c3a02c6108d8565b6101c49061192a61166e6118f2565b6101c49060017fe5ebfa008bacc85f8657a926bb677f563002d5a3ca82b831785a3e95c335fd745b01610c68565b6101c49061191b565b6101c49061197061166e6118f2565b6101c49060027fe5ebfa008bacc85f8657a926bb677f563002d5a3ca82b831785a3e95c335fd74611952565b6101c490611961565b6101da905b60ff1690565b6101da90546119a5565b6101da9160006117186119f7936119cf600090565b50827f02dd7bc7dec4dceedda775e58dd541e08a116c6c53815c0bd028192f7b626800611651565b6119b0565b6101da612171565b6101c490611a1361166e6118f2565b6101c49060007fe5ebfa008bacc85f8657a926bb677f563002d5a3ca82b831785a3e95c335fd74611952565b6101c490611a04565b6101da60037fe5ebfa008bacc85f8657a926bb677f563002d5a3ca82b831785a3e95c335fd7461175f565b6101c490611a8261166e6118f2565b6101c49060037fe5ebfa008bacc85f8657a926bb677f563002d5a3ca82b831785a3e95c335fd74611952565b6101c490611a73565b906101c491611ac861166e8261161b565b9061167d91611e50565b906101c491611ab7565b6101da60017fe5ebfa008bacc85f8657a926bb677f563002d5a3ca82b831785a3e95c335fd7461175f565b6101da9060401c6119aa565b6101da9054611b07565b6101da905b67ffffffffffffffff1690565b6101da9054611b1d565b611b226101da6101da9290565b9067ffffffffffffffff90610c5e565b611b226101da6101da9267ffffffffffffffff1690565b90611b7d6101da610c7f92611b56565b8254611b46565b9068ff00000000000000009060401b610c5e565b90611ba86101da610c7f92151590565b8254611b84565b6101dd90611b39565b6020810192916101c49190611baf565b91611bd1612181565b938491611be9611be36115ca85611b13565b93611b2f565b93600095611bf687611b39565b67ffffffffffffffff87161480611d12575b600196611c25611c1789611b39565b9167ffffffffffffffff1690565b149081611cea575b155b9081611ce1575b50611cb95790611c6293929185611c5989611c508a611b39565b9b019a8b611b6d565b611caa57611d19565b611c6b57505050565b611c99611ca5927fc7f505b2f371ae2175ee4913f4499e1f2633a7b5936321eed1cdaeb6115181d294611b98565b60405191829182611bb8565b0390a1565b611cb4878a611b98565b611d19565b7ff92ee8a9000000000000000000000000000000000000000000000000000000008752600487fd5b15905038611c36565b9050611c2f611cf830610bcf565b3b611d09611d058b6108d8565b9190565b14919050611c2d565b5084611c08565b6119526101c49493611d63600394611d2f6121ce565b611d5a7fe5ebfa008bacc85f8657a926bb677f563002d5a3ca82b831785a3e95c335fd749586610c68565b60018501610c68565b60028301610c68565b906101c4939291611bc8565b6101da90611d8660006108d8565b906121ff565b6101c4903390612306565b9060ff90610c5e565b90611db06101da610c7f92151590565b8254611d97565b7f02dd7bc7dec4dceedda775e58dd541e08a116c6c53815c0bd028192f7b626800611de56115ca84846119ba565b15611e48576001611e018460006117188682611e069701611604565b611da0565b611e1461150a611504339390565b917f2f8788117e7eff1d82e926ec794901d17c78024a50270940304540a733656f0d611e3f60405190565b600090a4600190565b505050600090565b7f02dd7bc7dec4dceedda775e58dd541e08a116c6c53815c0bd028192f7b626800611e7b83836119ba565b15611e48576000611e0184826117188682611e969701611604565b611ea461150a611504339390565b917ff6391f5c32d9c69d2a47ea670b442974b53935d1edc7fd64eb21e047a839171b611e3f60405190565b611ed830610bcf565b7f000000000000000000000000000000000000000000000000000000000000000090611f2f73ffffffffffffffffffffffffffffffffffffffff83165b9173ffffffffffffffffffffffffffffffffffffffff1690565b14908115611f6a575b50611f3f57565b7fe07c8dba000000000000000000000000000000000000000000000000000000006000908152600490fd5b9050611f94611f15611f7a612171565b9273ffffffffffffffffffffffffffffffffffffffff1690565b141538611f38565b6101da7fa615a8afb6fffcb8c6809ac0997b5c9c12b8cc97651150f14c8f6203168cff4c6108d8565b506101c461166e611f9c565b6101c490611fc5565b905051906101c4826105b0565b906020828203126101b2576101da91611fda565b906120086112a183610bcf565b90602061201460405190565b7f52d1902d00000000000000000000000000000000000000000000000000000000815292839060049082905afa600092816120f1575b506120a2575050600161205a5750565b7f4c9c8ce300000000000000000000000000000000000000000000000000000000600090815273ffffffffffffffffffffffffffffffffffffffff9091166004526024036000fd5b9092916120b06101da61188b565b84036120c1576101c492935061234e565b7faa1d49a40000000000000000000000000000000000000000000000000000000060009081526004859052602490fd5b61211491935060203d60201161211b575b61210c8183610291565b810190611fe7565b913861204a565b503d612102565b61212b30610bcf565b61216a73ffffffffffffffffffffffffffffffffffffffff7f000000000000000000000000000000000000000000000000000000000000000016611f15565b03611f3f57565b6101da600061175f6101da61188b565b6101da6123e0565b6121916123e8565b6101c461219c61242c565b6121a461242c565b6121b66121af6108e5565b3390611db7565b506121c26121af611f9c565b5061167d6121af6118f2565b6101c4612189565b9081526040810192916101c49160200152565b6102126101da6101da9290565b6101da906121e9565b61220830610bcf565b828131106122a857506037916e5af43d82803e903d91602b57fd5bf382763d602d80600a3d3981f3363d3d373d3d3d363d7300000060099460601b60e81c1760005260781b17602052f0906000612261610212826121f6565b73ffffffffffffffffffffffffffffffffffffffff8416146122805750565b7fb06ebf3d000000000000000000000000000000000000000000000000000000008152600490fd5b6115a383600092317fcf479181000000000000000000000000000000000000000000000000000000008452600484016121d6565b73ffffffffffffffffffffffffffffffffffffffff90911681526040810192916101c49160200152565b906123146115ca82846119ba565b61231c575050565b7fe2517d3f000000000000000000000000000000000000000000000000000000006000908152916115a39160046122dc565b9061235882612434565b61236182610bcf565b7fbc7cd75a20ee27fd9adebab32041f755214dbc6bffa90cc0225b39da2e5c2d3b61238b60405190565b600090a2805161239e611d0560006108d8565b11156123ad5761167d916124fa565b50506101c461249f565b6101da7ff0c57e16840df040f15088dc2f81fe391c3923bec73e23a9662efc9c229c6a006108d8565b6101da6123b7565b6123f36115ca612521565b6123f957565b7fd7e6bcf8000000000000000000000000000000000000000000000000000000006000908152600490fd5b6101c46123e8565b6101c4612424565b6000813b612444611d05836108d8565b1461245957906101c4916119526101da61188b565b7f4c9c8ce300000000000000000000000000000000000000000000000000000000815273ffffffffffffffffffffffffffffffffffffffff919091166004820152602490fd5b60006124aa816108d8565b34116124b35750565b7fb398979f000000000000000000000000000000000000000000000000000000008152600490fd5b3d156124f5576124ea3d61092d565b903d6000602084013e565b606090565b6000806101da93612509606090565b50602081519101845af461251b6124db565b91612534565b6101da600061252e612181565b01611b13565b9061253f57506125b9565b815190600091612551611d05846108d8565b14806125a4575b61256157505090565b7f9996b31500000000000000000000000000000000000000000000000000000000825273ffffffffffffffffffffffffffffffffffffffff166004820152602490fd5b50803b6125b3611d05846108d8565b14612558565b80516000906125ca611d05836108d8565b11156125d95750805190602001fd5b7fd6bda275000000000000000000000000000000000000000000000000000000008152600490fdfea26469706673582212209162c4521f23ab21f06122c614dabff7ea58465854a050b9e2859d4756caa28464736f6c634300081e0033",
  "linkReferences": {},
  "deployedLinkReferences": {},
  "networkId": 31337,
  "address": "0x9c5a467ca0c1BD182d0d5E0eb838261C2a2902D0"
}